{
  "contractName": "OctobayVisibilityToken",
  "abi": [
    {
      "anonymous": false,
      "inputs": [
        {
          "indexed": true,
          "internalType": "address",
          "name": "owner",
          "type": "address"
        },
        {
          "indexed": true,
          "internalType": "address",
          "name": "spender",
          "type": "address"
        },
        {
          "indexed": false,
          "internalType": "uint256",
          "name": "value",
          "type": "uint256"
        }
      ],
      "name": "Approval",
      "type": "event"
    },
    {
      "anonymous": false,
      "inputs": [
        {
          "indexed": true,
          "internalType": "address",
          "name": "previousOwner",
          "type": "address"
        },
        {
          "indexed": true,
          "internalType": "address",
          "name": "newOwner",
          "type": "address"
        }
      ],
      "name": "OwnershipTransferred",
      "type": "event"
    },
    {
      "anonymous": false,
      "inputs": [
        {
          "indexed": true,
          "internalType": "address",
          "name": "from",
          "type": "address"
        },
        {
          "indexed": true,
          "internalType": "address",
          "name": "to",
          "type": "address"
        },
        {
          "indexed": false,
          "internalType": "uint256",
          "name": "value",
          "type": "uint256"
        }
      ],
      "name": "Transfer",
      "type": "event"
    },
    {
      "inputs": [
        {
          "internalType": "address",
          "name": "owner",
          "type": "address"
        },
        {
          "internalType": "address",
          "name": "spender",
          "type": "address"
        }
      ],
      "name": "allowance",
      "outputs": [
        {
          "internalType": "uint256",
          "name": "",
          "type": "uint256"
        }
      ],
      "stateMutability": "view",
      "type": "function",
      "constant": true
    },
    {
      "inputs": [
        {
          "internalType": "address",
          "name": "spender",
          "type": "address"
        },
        {
          "internalType": "uint256",
          "name": "amount",
          "type": "uint256"
        }
      ],
      "name": "approve",
      "outputs": [
        {
          "internalType": "bool",
          "name": "",
          "type": "bool"
        }
      ],
      "stateMutability": "nonpayable",
      "type": "function"
    },
    {
      "inputs": [
        {
          "internalType": "address",
          "name": "account",
          "type": "address"
        }
      ],
      "name": "balanceOf",
      "outputs": [
        {
          "internalType": "uint256",
          "name": "",
          "type": "uint256"
        }
      ],
      "stateMutability": "view",
      "type": "function",
      "constant": true
    },
    {
      "inputs": [],
      "name": "decimals",
      "outputs": [
        {
          "internalType": "uint8",
          "name": "",
          "type": "uint8"
        }
      ],
      "stateMutability": "view",
      "type": "function",
      "constant": true
    },
    {
      "inputs": [
        {
          "internalType": "address",
          "name": "spender",
          "type": "address"
        },
        {
          "internalType": "uint256",
          "name": "subtractedValue",
          "type": "uint256"
        }
      ],
      "name": "decreaseAllowance",
      "outputs": [
        {
          "internalType": "bool",
          "name": "",
          "type": "bool"
        }
      ],
      "stateMutability": "nonpayable",
      "type": "function"
    },
    {
      "inputs": [
        {
          "internalType": "address",
          "name": "spender",
          "type": "address"
        },
        {
          "internalType": "uint256",
          "name": "addedValue",
          "type": "uint256"
        }
      ],
      "name": "increaseAllowance",
      "outputs": [
        {
          "internalType": "bool",
          "name": "",
          "type": "bool"
        }
      ],
      "stateMutability": "nonpayable",
      "type": "function"
    },
    {
      "inputs": [],
      "name": "name",
      "outputs": [
        {
          "internalType": "string",
          "name": "",
          "type": "string"
        }
      ],
      "stateMutability": "view",
      "type": "function",
      "constant": true
    },
    {
      "inputs": [],
      "name": "owner",
      "outputs": [
        {
          "internalType": "address",
          "name": "",
          "type": "address"
        }
      ],
      "stateMutability": "view",
      "type": "function",
      "constant": true
    },
    {
      "inputs": [],
      "name": "renounceOwnership",
      "outputs": [],
      "stateMutability": "nonpayable",
      "type": "function"
    },
    {
      "inputs": [
        {
          "internalType": "address",
          "name": "_octobay",
          "type": "address"
        }
      ],
      "name": "setOctobay",
      "outputs": [],
      "stateMutability": "nonpayable",
      "type": "function"
    },
    {
      "inputs": [],
      "name": "symbol",
      "outputs": [
        {
          "internalType": "string",
          "name": "",
          "type": "string"
        }
      ],
      "stateMutability": "view",
      "type": "function",
      "constant": true
    },
    {
      "inputs": [],
      "name": "totalSupply",
      "outputs": [
        {
          "internalType": "uint256",
          "name": "",
          "type": "uint256"
        }
      ],
      "stateMutability": "view",
      "type": "function",
      "constant": true
    },
    {
      "inputs": [
        {
          "internalType": "address",
          "name": "recipient",
          "type": "address"
        },
        {
          "internalType": "uint256",
          "name": "amount",
          "type": "uint256"
        }
      ],
      "name": "transfer",
      "outputs": [
        {
          "internalType": "bool",
          "name": "",
          "type": "bool"
        }
      ],
      "stateMutability": "nonpayable",
      "type": "function"
    },
    {
      "inputs": [
        {
          "internalType": "address",
          "name": "sender",
          "type": "address"
        },
        {
          "internalType": "address",
          "name": "recipient",
          "type": "address"
        },
        {
          "internalType": "uint256",
          "name": "amount",
          "type": "uint256"
        }
      ],
      "name": "transferFrom",
      "outputs": [
        {
          "internalType": "bool",
          "name": "",
          "type": "bool"
        }
      ],
      "stateMutability": "nonpayable",
      "type": "function"
    },
    {
      "inputs": [
        {
          "internalType": "address",
          "name": "newOwner",
          "type": "address"
        }
      ],
      "name": "transferOwnership",
      "outputs": [],
      "stateMutability": "nonpayable",
      "type": "function"
    },
    {
      "inputs": [
        {
          "internalType": "address",
          "name": "_to",
          "type": "address"
        },
        {
          "internalType": "uint256",
          "name": "_amount",
          "type": "uint256"
        }
      ],
      "name": "mint",
      "outputs": [],
      "stateMutability": "nonpayable",
      "type": "function"
    },
    {
      "inputs": [
        {
          "internalType": "address",
          "name": "_from",
          "type": "address"
        },
        {
          "internalType": "uint256",
          "name": "_amount",
          "type": "uint256"
        }
      ],
      "name": "burn",
      "outputs": [],
      "stateMutability": "nonpayable",
      "type": "function"
    }
  ],
  "bytecode": "0x60806040523480156200001157600080fd5b506040518060400160405280601881526020017f4f63746f626179205669736962696c69747920546f6b656e00000000000000008152506040518060400160405280600381526020016213d59560ea1b8152506000620000766200010160201b60201c565b600080546001600160a01b0319166001600160a01b0383169081178255604051929350917f8be0079c531659141344cd1fd0a4f28419497f9722a3daafe3b4186f6b6457e0908290a3508151620000d590600590602085019062000105565b508051620000eb90600690602084019062000105565b50506007805460ff1916601217905550620001a1565b3390565b828054600181600116156101000203166002900490600052602060002090601f016020900481019282601f106200014857805160ff191683800117855562000178565b8280016001018555821562000178579182015b82811115620001785782518255916020019190600101906200015b565b50620001869291506200018a565b5090565b5b808211156200018657600081556001016200018b565b610fbf80620001b16000396000f3fe608060405234801561001057600080fd5b50600436106100eb5760003560e01c8063715018a611610092578063715018a6146101a65780638da5cb5b146101ae57806395d89b41146101c35780639dc29fac146101cb578063a457c2d7146101de578063a9059cbb146101f1578063dd62ed3e14610204578063f2fde38b14610217578063f380e05c1461022a576100eb565b806306fdde03146100f0578063095ea7b31461010e57806318160ddd1461012e57806323b872dd14610143578063313ce56714610156578063395093511461016b57806340c10f191461017e57806370a0823114610193575b600080fd5b6100f861023d565b6040516101059190610bc3565b60405180910390f35b61012161011c366004610b7a565b6102d3565b6040516101059190610bb8565b6101366102f1565b6040516101059190610ea5565b610121610151366004610b3a565b6102f7565b61015e61037e565b6040516101059190610eae565b610121610179366004610b7a565b610387565b61019161018c366004610b7a565b6103d5565b005b6101366101a1366004610aeb565b610416565b610191610431565b6101b66104b0565b6040516101059190610ba4565b6100f86104bf565b6101916101d9366004610b7a565b610520565b6101216101ec366004610b7a565b610554565b6101216101ff366004610b7a565b6105bc565b610136610212366004610b06565b6105d0565b610191610225366004610aeb565b6105fb565b610191610238366004610aeb565b6106b1565b60058054604080516020601f60026000196101006001881615020190951694909404938401819004810282018101909252828152606093909290918301828280156102c95780601f1061029e576101008083540402835291602001916102c9565b820191906000526020600020905b8154815290600101906020018083116102ac57829003601f168201915b5050505050905090565b60006102e76102e0610708565b848461070c565b5060015b92915050565b60045490565b60006103048484846107c0565b61037484610310610708565b61036f85604051806060016040528060288152602001610f1d602891396001600160a01b038a1660009081526003602052604081209061034e610708565b6001600160a01b0316815260208101919091526040016000205491906108c3565b61070c565b5060019392505050565b60075460ff1690565b60006102e7610394610708565b8461036f85600360006103a5610708565b6001600160a01b03908116825260208083019390935260409182016000908120918c1681529252902054906108ef565b6001546001600160a01b031633146104085760405162461bcd60e51b81526004016103ff90610c59565b60405180910390fd5b610412828261091b565b5050565b6001600160a01b031660009081526002602052604090205490565b610439610708565b6000546001600160a01b039081169116146104665760405162461bcd60e51b81526004016103ff90610d6f565b600080546040516001600160a01b03909116907f8be0079c531659141344cd1fd0a4f28419497f9722a3daafe3b4186f6b6457e0908390a3600080546001600160a01b0319169055565b6000546001600160a01b031690565b60068054604080516020601f60026000196101006001881615020190951694909404938401819004810282018101909252828152606093909290918301828280156102c95780601f1061029e576101008083540402835291602001916102c9565b6001546001600160a01b0316331461054a5760405162461bcd60e51b81526004016103ff90610c59565b61041282826109c9565b60006102e7610561610708565b8461036f85604051806060016040528060258152602001610f65602591396003600061058b610708565b6001600160a01b03908116825260208083019390935260409182016000908120918d168152925290205491906108c3565b60006102e76105c9610708565b84846107c0565b6001600160a01b03918216600090815260036020908152604080832093909416825291909152205490565b610603610708565b6000546001600160a01b039081169116146106305760405162461bcd60e51b81526004016103ff90610d6f565b6001600160a01b0381166106565760405162461bcd60e51b81526004016103ff90610cb0565b600080546040516001600160a01b03808516939216917f8be0079c531659141344cd1fd0a4f28419497f9722a3daafe3b4186f6b6457e091a3600080546001600160a01b0319166001600160a01b0392909216919091179055565b6106b9610708565b6000546001600160a01b039081169116146106e65760405162461bcd60e51b81526004016103ff90610d6f565b600180546001600160a01b0319166001600160a01b0392909216919091179055565b3390565b6001600160a01b0383166107325760405162461bcd60e51b81526004016103ff90610e2a565b6001600160a01b0382166107585760405162461bcd60e51b81526004016103ff90610cf6565b6001600160a01b0380841660008181526003602090815260408083209487168084529490915290819020849055517f8c5be1e5ebec7d5bd14f71427d1e84f3dd0314c0f7b2291e5b200ac8c7c3b925906107b3908590610ea5565b60405180910390a3505050565b6001600160a01b0383166107e65760405162461bcd60e51b81526004016103ff90610de5565b6001600160a01b03821661080c5760405162461bcd60e51b81526004016103ff90610c16565b610817838383610a8d565b61085481604051806060016040528060268152602001610ef7602691396001600160a01b03861660009081526002602052604090205491906108c3565b6001600160a01b03808516600090815260026020526040808220939093559084168152205461088390826108ef565b6001600160a01b038084166000818152600260205260409081902093909355915190851690600080516020610f45833981519152906107b3908590610ea5565b600081848411156108e75760405162461bcd60e51b81526004016103ff9190610bc3565b505050900390565b6000828201838110156109145760405162461bcd60e51b81526004016103ff90610d38565b9392505050565b6001600160a01b0382166109415760405162461bcd60e51b81526004016103ff90610e6e565b61094d60008383610a8d565b60045461095a90826108ef565b6004556001600160a01b03821660009081526002602052604090205461098090826108ef565b6001600160a01b038316600081815260026020526040808220939093559151909190600080516020610f45833981519152906109bd908590610ea5565b60405180910390a35050565b6001600160a01b0382166109ef5760405162461bcd60e51b81526004016103ff90610da4565b6109fb82600083610a8d565b610a3881604051806060016040528060228152602001610ed5602291396001600160a01b03851660009081526002602052604090205491906108c3565b6001600160a01b038316600090815260026020526040902055600454610a5e9082610a92565b6004556040516000906001600160a01b03841690600080516020610f45833981519152906109bd908590610ea5565b505050565b600061091483836040518060400160405280601e81526020017f536166654d6174683a207375627472616374696f6e206f766572666c6f7700008152506108c3565b80356001600160a01b03811681146102eb57600080fd5b600060208284031215610afc578081fd5b6109148383610ad4565b60008060408385031215610b18578081fd5b610b228484610ad4565b9150610b318460208501610ad4565b90509250929050565b600080600060608486031215610b4e578081fd5b8335610b5981610ebc565b92506020840135610b6981610ebc565b929592945050506040919091013590565b60008060408385031215610b8c578182fd5b610b968484610ad4565b946020939093013593505050565b6001600160a01b0391909116815260200190565b901515815260200190565b6000602080835283518082850152825b81811015610bef57858101830151858201604001528201610bd3565b81811115610c005783604083870101525b50601f01601f1916929092016040019392505050565b60208082526023908201527f45524332303a207472616e7366657220746f20746865207a65726f206164647260408201526265737360e81b606082015260800190565b60208082526037908201527f4f6e6c79207468652063757272656e74206f63746f6261792076657273696f6e6040820152761031b0b7103ab9b2903a3434b990333ab731ba34b7b71760491b606082015260800190565b60208082526026908201527f4f776e61626c653a206e6577206f776e657220697320746865207a65726f206160408201526564647265737360d01b606082015260800190565b60208082526022908201527f45524332303a20617070726f766520746f20746865207a65726f206164647265604082015261737360f01b606082015260800190565b6020808252601b908201527f536166654d6174683a206164646974696f6e206f766572666c6f770000000000604082015260600190565b6020808252818101527f4f776e61626c653a2063616c6c6572206973206e6f7420746865206f776e6572604082015260600190565b60208082526021908201527f45524332303a206275726e2066726f6d20746865207a65726f206164647265736040820152607360f81b606082015260800190565b60208082526025908201527f45524332303a207472616e736665722066726f6d20746865207a65726f206164604082015264647265737360d81b606082015260800190565b60208082526024908201527f45524332303a20617070726f76652066726f6d20746865207a65726f206164646040820152637265737360e01b606082015260800190565b6020808252601f908201527f45524332303a206d696e7420746f20746865207a65726f206164647265737300604082015260600190565b90815260200190565b60ff91909116815260200190565b6001600160a01b0381168114610ed157600080fd5b5056fe45524332303a206275726e20616d6f756e7420657863656564732062616c616e636545524332303a207472616e7366657220616d6f756e7420657863656564732062616c616e636545524332303a207472616e7366657220616d6f756e74206578636565647320616c6c6f77616e6365ddf252ad1be2c89b69c2b068fc378daa952ba7f163c4a11628f55a4df523b3ef45524332303a2064656372656173656420616c6c6f77616e63652062656c6f77207a65726fa26469706673582212204afb234a02a5e049fd0e422981b5d19ebd27bd5fada6b5fa7b0c0d39a9c9268264736f6c634300060c0033",
  "immutableReferences": {},
  "source": "// SPDX-License-Identifier: MIT\npragma solidity ^0.6.0;\npragma experimental ABIEncoderV2;\n\nimport '@openzeppelin/contracts/token/ERC20/ERC20.sol';\nimport './OctobayStorage.sol';\n\ncontract OctobayVisibilityToken is OctobayStorage, ERC20('Octobay Visibility Token', 'OVT') {\n    function mint(address _to, uint256 _amount) external onlyOctobay {\n        _mint(_to, _amount);\n    }\n\n    function burn(address _from, uint256 _amount) external onlyOctobay {\n        _burn(_from, _amount);\n    }\n}\n",
  "sourcePath": "/home/mkt/Projects/octobay/contracts/contracts/OctobayVisibilityToken.sol",
  "compiler": {
    "name": "solc",
    "version": "0.6.12+commit.27d51765.Emscripten.clang"
  },
  "schemaVersion": "3.2.5",
  "updatedAt": "2021-03-10T23:27:37.379Z",
  "networkType": "ethereum",
  "devdoc": {
    "kind": "dev",
    "methods": {
      "allowance(address,address)": {
        "details": "See {IERC20-allowance}."
      },
      "approve(address,uint256)": {
        "details": "See {IERC20-approve}. Requirements: - `spender` cannot be the zero address."
      },
      "balanceOf(address)": {
        "details": "See {IERC20-balanceOf}."
      },
      "decimals()": {
        "details": "Returns the number of decimals used to get its user representation. For example, if `decimals` equals `2`, a balance of `505` tokens should be displayed to a user as `5,05` (`505 / 10 ** 2`). Tokens usually opt for a value of 18, imitating the relationship between Ether and Wei. This is the value {ERC20} uses, unless {_setupDecimals} is called. NOTE: This information is only used for _display_ purposes: it in no way affects any of the arithmetic of the contract, including {IERC20-balanceOf} and {IERC20-transfer}."
      },
      "decreaseAllowance(address,uint256)": {
        "details": "Atomically decreases the allowance granted to `spender` by the caller. This is an alternative to {approve} that can be used as a mitigation for problems described in {IERC20-approve}. Emits an {Approval} event indicating the updated allowance. Requirements: - `spender` cannot be the zero address. - `spender` must have allowance for the caller of at least `subtractedValue`."
      },
      "increaseAllowance(address,uint256)": {
        "details": "Atomically increases the allowance granted to `spender` by the caller. This is an alternative to {approve} that can be used as a mitigation for problems described in {IERC20-approve}. Emits an {Approval} event indicating the updated allowance. Requirements: - `spender` cannot be the zero address."
      },
      "name()": {
        "details": "Returns the name of the token."
      },
      "owner()": {
        "details": "Returns the address of the current owner."
      },
      "renounceOwnership()": {
        "details": "Leaves the contract without owner. It will not be possible to call `onlyOwner` functions anymore. Can only be called by the current owner. NOTE: Renouncing ownership will leave the contract without an owner, thereby removing any functionality that is only available to the owner."
      },
      "symbol()": {
        "details": "Returns the symbol of the token, usually a shorter version of the name."
      },
      "totalSupply()": {
        "details": "See {IERC20-totalSupply}."
      },
      "transfer(address,uint256)": {
        "details": "See {IERC20-transfer}. Requirements: - `recipient` cannot be the zero address. - the caller must have a balance of at least `amount`."
      },
      "transferFrom(address,address,uint256)": {
        "details": "See {IERC20-transferFrom}. Emits an {Approval} event indicating the updated allowance. This is not required by the EIP. See the note at the beginning of {ERC20}. Requirements: - `sender` and `recipient` cannot be the zero address. - `sender` must have a balance of at least `amount`. - the caller must have allowance for ``sender``'s tokens of at least `amount`."
      },
      "transferOwnership(address)": {
        "details": "Transfers ownership of the contract to a new account (`newOwner`). Can only be called by the current owner."
      }
    },
    "version": 1
  },
  "userdoc": {
    "kind": "user",
    "methods": {},
    "version": 1
  }
}