{
  "contractName": "Octobay",
  "abi": [
    {
      "inputs": [
        {
          "internalType": "address",
          "name": "_link",
          "type": "address"
        },
        {
          "internalType": "address",
          "name": "_forwarder",
          "type": "address"
        },
        {
          "internalType": "address",
          "name": "_userAddressStorage",
          "type": "address"
        },
        {
          "internalType": "address",
          "name": "_oracleStorage",
          "type": "address"
        },
        {
          "internalType": "address",
          "name": "_octobayGovernor",
          "type": "address"
        },
        {
          "internalType": "address",
          "name": "_ethUSDPriceFeed",
          "type": "address"
        },
        {
          "internalType": "address",
          "name": "_octobayGovNFT",
          "type": "address"
        },
        {
          "internalType": "address",
          "name": "_depositStorage",
          "type": "address"
        }
      ],
      "stateMutability": "nonpayable",
      "type": "constructor"
    },
    {
      "anonymous": false,
      "inputs": [
        {
          "indexed": true,
          "internalType": "bytes32",
          "name": "id",
          "type": "bytes32"
        }
      ],
      "name": "ChainlinkCancelled",
      "type": "event"
    },
    {
      "anonymous": false,
      "inputs": [
        {
          "indexed": true,
          "internalType": "bytes32",
          "name": "id",
          "type": "bytes32"
        }
      ],
      "name": "ChainlinkFulfilled",
      "type": "event"
    },
    {
      "anonymous": false,
      "inputs": [
        {
          "indexed": true,
          "internalType": "bytes32",
          "name": "id",
          "type": "bytes32"
        }
      ],
      "name": "ChainlinkRequested",
      "type": "event"
    },
    {
      "anonymous": false,
      "inputs": [
        {
          "indexed": true,
          "internalType": "address",
          "name": "previousOwner",
          "type": "address"
        },
        {
          "indexed": true,
          "internalType": "address",
          "name": "newOwner",
          "type": "address"
        }
      ],
      "name": "OwnershipTransferred",
      "type": "event"
    },
    {
      "inputs": [],
      "name": "depositStorage",
      "outputs": [
        {
          "internalType": "contract DepositStorage",
          "name": "",
          "type": "address"
        }
      ],
      "stateMutability": "view",
      "type": "function",
      "constant": true
    },
    {
      "inputs": [
        {
          "internalType": "address",
          "name": "forwarder",
          "type": "address"
        }
      ],
      "name": "isTrustedForwarder",
      "outputs": [
        {
          "internalType": "bool",
          "name": "",
          "type": "bool"
        }
      ],
      "stateMutability": "view",
      "type": "function",
      "constant": true
    },
    {
      "inputs": [
        {
          "internalType": "bytes32",
          "name": "",
          "type": "bytes32"
        }
      ],
      "name": "issueWithdrawRequests",
      "outputs": [
        {
          "internalType": "string",
          "name": "issueId",
          "type": "string"
        },
        {
          "internalType": "address",
          "name": "payoutAddress",
          "type": "address"
        }
      ],
      "stateMutability": "view",
      "type": "function",
      "constant": true
    },
    {
      "inputs": [
        {
          "internalType": "bytes32",
          "name": "",
          "type": "bytes32"
        }
      ],
      "name": "newGovernanceTokenReqs",
      "outputs": [
        {
          "internalType": "bool",
          "name": "isValue",
          "type": "bool"
        },
        {
          "internalType": "string",
          "name": "githubUserId",
          "type": "string"
        },
        {
          "internalType": "string",
          "name": "name",
          "type": "string"
        },
        {
          "internalType": "string",
          "name": "symbol",
          "type": "string"
        },
        {
          "internalType": "string",
          "name": "projectId",
          "type": "string"
        },
        {
          "internalType": "uint16",
          "name": "newProposalShare",
          "type": "uint16"
        },
        {
          "internalType": "uint16",
          "name": "minQuorum",
          "type": "uint16"
        },
        {
          "internalType": "address",
          "name": "creator",
          "type": "address"
        }
      ],
      "stateMutability": "view",
      "type": "function",
      "constant": true
    },
    {
      "inputs": [],
      "name": "octobayGovNFT",
      "outputs": [
        {
          "internalType": "contract OctobayGovNFT",
          "name": "",
          "type": "address"
        }
      ],
      "stateMutability": "view",
      "type": "function",
      "constant": true
    },
    {
      "inputs": [],
      "name": "octobayGovernor",
      "outputs": [
        {
          "internalType": "contract OctobayGovernor",
          "name": "",
          "type": "address"
        }
      ],
      "stateMutability": "view",
      "type": "function",
      "constant": true
    },
    {
      "inputs": [],
      "name": "oracleStorage",
      "outputs": [
        {
          "internalType": "contract OracleStorage",
          "name": "",
          "type": "address"
        }
      ],
      "stateMutability": "view",
      "type": "function",
      "constant": true
    },
    {
      "inputs": [],
      "name": "owner",
      "outputs": [
        {
          "internalType": "address",
          "name": "",
          "type": "address"
        }
      ],
      "stateMutability": "view",
      "type": "function",
      "constant": true
    },
    {
      "inputs": [],
      "name": "renounceOwnership",
      "outputs": [],
      "stateMutability": "nonpayable",
      "type": "function"
    },
    {
      "inputs": [
        {
          "internalType": "address",
          "name": "newOwner",
          "type": "address"
        }
      ],
      "name": "transferOwnership",
      "outputs": [],
      "stateMutability": "nonpayable",
      "type": "function"
    },
    {
      "inputs": [],
      "name": "trustedForwarder",
      "outputs": [
        {
          "internalType": "address",
          "name": "",
          "type": "address"
        }
      ],
      "stateMutability": "view",
      "type": "function",
      "constant": true
    },
    {
      "inputs": [
        {
          "internalType": "bytes32",
          "name": "",
          "type": "bytes32"
        }
      ],
      "name": "userAddressRegistrations",
      "outputs": [
        {
          "internalType": "string",
          "name": "githubUserId",
          "type": "string"
        },
        {
          "internalType": "address",
          "name": "ethAddress",
          "type": "address"
        }
      ],
      "stateMutability": "view",
      "type": "function",
      "constant": true
    },
    {
      "inputs": [],
      "name": "userAddressStorage",
      "outputs": [
        {
          "internalType": "contract UserAddressStorage",
          "name": "",
          "type": "address"
        }
      ],
      "stateMutability": "view",
      "type": "function",
      "constant": true
    },
    {
      "inputs": [],
      "name": "versionRecipient",
      "outputs": [
        {
          "internalType": "string",
          "name": "",
          "type": "string"
        }
      ],
      "stateMutability": "view",
      "type": "function",
      "constant": true
    },
    {
      "inputs": [
        {
          "internalType": "address",
          "name": "_forwarder",
          "type": "address"
        }
      ],
      "name": "setTrustedForwarder",
      "outputs": [],
      "stateMutability": "nonpayable",
      "type": "function"
    },
    {
      "inputs": [
        {
          "internalType": "address",
          "name": "_userAddressStorage",
          "type": "address"
        }
      ],
      "name": "setUserAddressStorage",
      "outputs": [],
      "stateMutability": "nonpayable",
      "type": "function"
    },
    {
      "inputs": [
        {
          "internalType": "address",
          "name": "_oracleStorage",
          "type": "address"
        }
      ],
      "name": "setOracleStorage",
      "outputs": [],
      "stateMutability": "nonpayable",
      "type": "function"
    },
    {
      "inputs": [
        {
          "internalType": "address",
          "name": "_octobayGovernor",
          "type": "address"
        }
      ],
      "name": "setOctobayGovernor",
      "outputs": [],
      "stateMutability": "nonpayable",
      "type": "function"
    },
    {
      "inputs": [
        {
          "internalType": "address",
          "name": "_ethUSDPriceFeed",
          "type": "address"
        }
      ],
      "name": "setEthUSDPriceFeed",
      "outputs": [],
      "stateMutability": "nonpayable",
      "type": "function"
    },
    {
      "inputs": [
        {
          "internalType": "address",
          "name": "_octobayGovNFT",
          "type": "address"
        }
      ],
      "name": "setOctobayGovNFT",
      "outputs": [],
      "stateMutability": "nonpayable",
      "type": "function"
    },
    {
      "inputs": [
        {
          "internalType": "address",
          "name": "_oracle",
          "type": "address"
        },
        {
          "internalType": "string",
          "name": "_name",
          "type": "string"
        },
        {
          "internalType": "string[]",
          "name": "_jobNames",
          "type": "string[]"
        },
        {
          "components": [
            {
              "internalType": "bytes32",
              "name": "id",
              "type": "bytes32"
            },
            {
              "internalType": "uint256",
              "name": "fee",
              "type": "uint256"
            }
          ],
          "internalType": "struct OracleStorage.Job[]",
          "name": "_jobs",
          "type": "tuple[]"
        }
      ],
      "name": "addOracle",
      "outputs": [],
      "stateMutability": "nonpayable",
      "type": "function"
    },
    {
      "inputs": [
        {
          "internalType": "address",
          "name": "_oracle",
          "type": "address"
        }
      ],
      "name": "removeOracle",
      "outputs": [],
      "stateMutability": "nonpayable",
      "type": "function"
    },
    {
      "inputs": [
        {
          "internalType": "address",
          "name": "_oracle",
          "type": "address"
        },
        {
          "internalType": "string",
          "name": "_name",
          "type": "string"
        }
      ],
      "name": "changeOracleName",
      "outputs": [],
      "stateMutability": "nonpayable",
      "type": "function"
    },
    {
      "inputs": [
        {
          "internalType": "address",
          "name": "_oracle",
          "type": "address"
        },
        {
          "internalType": "string",
          "name": "_jobName",
          "type": "string"
        },
        {
          "components": [
            {
              "internalType": "bytes32",
              "name": "id",
              "type": "bytes32"
            },
            {
              "internalType": "uint256",
              "name": "fee",
              "type": "uint256"
            }
          ],
          "internalType": "struct OracleStorage.Job",
          "name": "_job",
          "type": "tuple"
        }
      ],
      "name": "addOracleJob",
      "outputs": [],
      "stateMutability": "nonpayable",
      "type": "function"
    },
    {
      "inputs": [
        {
          "internalType": "address",
          "name": "_oracle",
          "type": "address"
        },
        {
          "internalType": "string",
          "name": "_jobName",
          "type": "string"
        }
      ],
      "name": "removeOracleJob",
      "outputs": [],
      "stateMutability": "nonpayable",
      "type": "function"
    },
    {
      "inputs": [
        {
          "internalType": "address",
          "name": "_octobayPaymaster",
          "type": "address"
        }
      ],
      "name": "setPaymaster",
      "outputs": [],
      "stateMutability": "nonpayable",
      "type": "function"
    },
    {
      "inputs": [
        {
          "internalType": "string",
          "name": "_githubUserId",
          "type": "string"
        },
        {
          "internalType": "uint256",
          "name": "_amount",
          "type": "uint256"
        }
      ],
      "name": "deductGasFee",
      "outputs": [],
      "stateMutability": "nonpayable",
      "type": "function"
    },
    {
      "inputs": [
        {
          "internalType": "address",
          "name": "_oracle",
          "type": "address"
        },
        {
          "internalType": "string",
          "name": "_githubUserId",
          "type": "string"
        }
      ],
      "name": "registerUserAddress",
      "outputs": [
        {
          "internalType": "bytes32",
          "name": "requestId",
          "type": "bytes32"
        }
      ],
      "stateMutability": "nonpayable",
      "type": "function"
    },
    {
      "inputs": [
        {
          "internalType": "bytes32",
          "name": "_requestId",
          "type": "bytes32"
        },
        {
          "internalType": "bytes32",
          "name": "_addressName",
          "type": "bytes32"
        }
      ],
      "name": "confirmRegisterUserAddress",
      "outputs": [],
      "stateMutability": "nonpayable",
      "type": "function"
    },
    {
      "inputs": [
        {
          "internalType": "string",
          "name": "_githubUserId",
          "type": "string"
        }
      ],
      "name": "depositEthForGithubUser",
      "outputs": [],
      "stateMutability": "payable",
      "type": "function",
      "payable": true
    },
    {
      "inputs": [
        {
          "internalType": "uint256",
          "name": "_depositId",
          "type": "uint256"
        }
      ],
      "name": "refundUserDeposit",
      "outputs": [],
      "stateMutability": "nonpayable",
      "type": "function"
    },
    {
      "inputs": [
        {
          "internalType": "uint256",
          "name": "_depositId",
          "type": "uint256"
        }
      ],
      "name": "withdrawUserDeposit",
      "outputs": [],
      "stateMutability": "nonpayable",
      "type": "function"
    },
    {
      "inputs": [
        {
          "internalType": "string",
          "name": "_issueId",
          "type": "string"
        },
        {
          "internalType": "address",
          "name": "_govTokenAddress",
          "type": "address"
        },
        {
          "internalType": "string",
          "name": "_projectId",
          "type": "string"
        }
      ],
      "name": "depositAndSetGovTokenForIssue",
      "outputs": [],
      "stateMutability": "payable",
      "type": "function",
      "payable": true
    },
    {
      "inputs": [
        {
          "internalType": "string",
          "name": "_issueId",
          "type": "string"
        },
        {
          "internalType": "address",
          "name": "_govTokenAddress",
          "type": "address"
        },
        {
          "internalType": "string",
          "name": "_projectId",
          "type": "string"
        }
      ],
      "name": "setGovTokenForIssue",
      "outputs": [],
      "stateMutability": "nonpayable",
      "type": "function"
    },
    {
      "inputs": [
        {
          "internalType": "string",
          "name": "_issueId",
          "type": "string"
        }
      ],
      "name": "depositEthForIssue",
      "outputs": [],
      "stateMutability": "payable",
      "type": "function",
      "payable": true
    },
    {
      "inputs": [
        {
          "internalType": "uint256",
          "name": "_depositId",
          "type": "uint256"
        }
      ],
      "name": "refundIssueDeposit",
      "outputs": [],
      "stateMutability": "nonpayable",
      "type": "function"
    },
    {
      "inputs": [
        {
          "internalType": "address",
          "name": "_oracle",
          "type": "address"
        },
        {
          "internalType": "string",
          "name": "_issueId",
          "type": "string"
        }
      ],
      "name": "withdrawIssueDeposit",
      "outputs": [
        {
          "internalType": "bytes32",
          "name": "requestId",
          "type": "bytes32"
        }
      ],
      "stateMutability": "nonpayable",
      "type": "function"
    },
    {
      "inputs": [
        {
          "internalType": "bytes32",
          "name": "_requestId",
          "type": "bytes32"
        }
      ],
      "name": "confirmWithdrawIssueDeposit",
      "outputs": [],
      "stateMutability": "nonpayable",
      "type": "function"
    },
    {
      "inputs": [
        {
          "internalType": "address",
          "name": "_oracle",
          "type": "address"
        },
        {
          "components": [
            {
              "internalType": "bool",
              "name": "isValue",
              "type": "bool"
            },
            {
              "internalType": "string",
              "name": "githubUserId",
              "type": "string"
            },
            {
              "internalType": "string",
              "name": "name",
              "type": "string"
            },
            {
              "internalType": "string",
              "name": "symbol",
              "type": "string"
            },
            {
              "internalType": "string",
              "name": "projectId",
              "type": "string"
            },
            {
              "internalType": "uint16",
              "name": "newProposalShare",
              "type": "uint16"
            },
            {
              "internalType": "uint16",
              "name": "minQuorum",
              "type": "uint16"
            },
            {
              "internalType": "address",
              "name": "creator",
              "type": "address"
            }
          ],
          "internalType": "struct Octobay.NewGovernanceToken",
          "name": "_newToken",
          "type": "tuple"
        }
      ],
      "name": "createGovernanceToken",
      "outputs": [
        {
          "internalType": "bytes32",
          "name": "requestId",
          "type": "bytes32"
        }
      ],
      "stateMutability": "nonpayable",
      "type": "function"
    },
    {
      "inputs": [
        {
          "internalType": "bytes32",
          "name": "_requestId",
          "type": "bytes32"
        },
        {
          "internalType": "bool",
          "name": "_result",
          "type": "bool"
        }
      ],
      "name": "confirmCreateGovernanceToken",
      "outputs": [],
      "stateMutability": "nonpayable",
      "type": "function"
    }
  ],
  "bytecode": "0x6001600590815560c06040526080819052640322e302e360dc1b60a09081526200002d91600a9190620001cd565b503480156200003b57600080fd5b506040516200466e3803806200466e8339810160408190526200005e9162000287565b60006200006a62000142565b600080546001600160a01b0319166001600160a01b0383169081178255604051929350917f8be0079c531659141344cd1fd0a4f28419497f9722a3daafe3b4186f6b6457e0908290a350620000bf886200015f565b600780546001600160a01b03199081166001600160a01b03998a1617909155600b80548216978916979097179096556008805487169588169590951790945560108054861693871693909317909255601180548516918616919091179055600e80548416918516919091179055600d805490921692169190911790555062000336565b6000620001596200018160201b62002a411760201c565b90505b90565b600380546001600160a01b0319166001600160a01b0392909216919091179055565b6000601836108015906200019b57506200019b33620001b9565b15620001b1575060131936013560601c6200015c565b50336200015c565b6007546001600160a01b0390811691161490565b828054600181600116156101000203166002900490600052602060002090601f016020900481019282601f106200021057805160ff191683800117855562000240565b8280016001018555821562000240579182015b828111156200024057825182559160200191906001019062000223565b506200024e92915062000252565b5090565b5b808211156200024e576000815560010162000253565b80516001600160a01b03811681146200028157600080fd5b92915050565b600080600080600080600080610100898b031215620002a4578384fd5b620002b08a8a62000269565b9750620002c18a60208b0162000269565b9650620002d28a60408b0162000269565b9550620002e38a60608b0162000269565b9450620002f48a60808b0162000269565b9350620003058a60a08b0162000269565b9250620003168a60c08b0162000269565b9150620003278a60e08b0162000269565b90509295985092959890939650565b61432880620003466000396000f3fe60806040526004361061023a5760003560e01c80636ed3aa421161012e578063b0903a2f116100ab578063da7422281161006f578063da74222814610683578063e5c59948146106a3578063f2fde38b146106c3578063f4b90ef7146106e3578063fdc85fc4146106f65761023a565b8063b0903a2f146105f9578063b910b63314610619578063c315fbca1461062e578063c4f59d631461064e578063d792efae146106635761023a565b80638da5cb5b116100f25780638da5cb5b14610575578063924718a61461058a578063968ad3811461059d5780639996f186146105d1578063a9d2facd146105e45761023a565b80636ed3aa42146104f6578063715018a6146105165780637da0a8771461052b5780638617fc4614610540578063886c3c89146105605761023a565b8063486ff0cd116101bc57806357608857116101805780635760885714610456578063583d789b146104765780635b45ceca146104965780635f38dace146104b657806360445fb2146104d65761023a565b8063486ff0cd146103a7578063532f1325146103c9578063546075da146103e9578063554d108a14610409578063572b6c05146104295761023a565b8063420acf3c11610203578063420acf3c146102ec578063422c546b1461030c57806342aaf11b1461033a57806345ae77171461035a57806348297f59146103875761023a565b806283cf111461023f5780631c2a01e1146102615780632a97fa77146102815780632bbba336146102a15780633f98b9c7146102c1575b600080fd5b34801561024b57600080fd5b5061025f61025a3660046136c1565b610716565b005b34801561026d57600080fd5b5061025f61027c3660046137ae565b610c7e565b34801561028d57600080fd5b5061025f61029c366004613399565b610ed6565b3480156102ad57600080fd5b5061025f6102bc3660046134f4565b610f2d565b3480156102cd57600080fd5b506102d6610fd0565b6040516102e39190613a03565b60405180910390f35b3480156102f857600080fd5b5061025f6103073660046136f0565b610fdf565b34801561031857600080fd5b5061032c6103273660046136a9565b6110f3565b6040516102e3929190613e80565b34801561034657600080fd5b5061025f6103553660046133b5565b6111a3565b34801561036657600080fd5b5061037a6103753660046133b5565b611243565b6040516102e39190613e00565b34801561039357600080fd5b5061025f6103a2366004613407565b6116a8565b3480156103b357600080fd5b506103bc61174e565b6040516102e39190613e6d565b3480156103d557600080fd5b5061025f6103e4366004613399565b6117dc565b3480156103f557600080fd5b5061025f61040436600461382f565b611833565b34801561041557600080fd5b5061025f6104243660046136a9565b61187e565b34801561043557600080fd5b50610449610444366004613399565b611a91565b6040516102e39190613d6c565b34801561046257600080fd5b5061037a610471366004613559565b611aa8565b34801561048257600080fd5b5061025f6104913660046133b5565b611e2f565b3480156104a257600080fd5b5061025f6104b1366004613399565b611e98565b3480156104c257600080fd5b5061032c6104d13660046136a9565b611eef565b3480156104e257600080fd5b5061025f6104f13660046136a9565b611f5b565b34801561050257600080fd5b5061025f610511366004613399565b611fc2565b34801561052257600080fd5b5061025f612019565b34801561053757600080fd5b506102d6612098565b34801561054c57600080fd5b5061025f61055b3660046136a9565b6120a7565b34801561056c57600080fd5b506102d66120d9565b34801561058157600080fd5b506102d66120e8565b61025f6105983660046137ae565b6120f8565b3480156105a957600080fd5b506105bd6105b83660046136a9565b61210f565b6040516102e3989796959493929190613d77565b61025f6105df36600461376f565b612398565b3480156105f057600080fd5b506102d66123e7565b34801561060557600080fd5b5061025f610614366004613399565b6123f6565b34801561062557600080fd5b506102d661244d565b34801561063a57600080fd5b5061025f6106493660046136a9565b61245c565b34801561065a57600080fd5b506102d661250f565b34801561066f57600080fd5b5061025f61067e366004613399565b61251e565b34801561068f57600080fd5b5061025f61069e366004613399565b612575565b3480156106af57600080fd5b5061037a6106be3660046133b5565b6125cc565b3480156106cf57600080fd5b5061025f6106de366004613399565b6128f0565b61025f6106f136600461376f565b6129a6565b34801561070257600080fd5b5061025f610711366004613399565b6129dc565b60008281526006602052604090205482906001600160a01b031633146107575760405162461bcd60e51b815260040161074e90614168565b60405180910390fd5b60008181526006602052604080822080546001600160a01b03191690555182916000805160206142d383398151915291a2816107a55760405162461bcd60e51b815260040161074e90613ffb565b6107ad6130b2565b60008481526012602090815260409182902082516101008082018552825460ff1615158252600180840180548751600293821615909402600019011691909104601f810186900486028301860190965285825291949293858101939192919083018282801561085d5780601f106108325761010080835404028352916020019161085d565b820191906000526020600020905b81548152906001019060200180831161084057829003601f168201915b5050509183525050600282810180546040805160206001841615610100026000190190931694909404601f810183900483028501830190915280845293810193908301828280156108ef5780601f106108c4576101008083540402835291602001916108ef565b820191906000526020600020905b8154815290600101906020018083116108d257829003601f168201915b505050918352505060038201805460408051602060026001851615610100026000190190941693909304601f81018490048402820184019092528181529382019392918301828280156109835780601f1061095857610100808354040283529160200191610983565b820191906000526020600020905b81548152906001019060200180831161096657829003601f168201915b505050918352505060048201805460408051602060026001851615610100026000190190941693909304601f8101849004840282018401909252818152938201939291830182828015610a175780601f106109ec57610100808354040283529160200191610a17565b820191906000526020600020905b8154815290600101906020018083116109fa57829003601f168201915b50505091835250506005919091015461ffff808216602084015262010000820416604083015264010000000090046001600160a01b03166060909101528051909150610a755760405162461bcd60e51b815260040161074e9061404a565b6000848152601260205260408120805460ff1916815590610a99600183018261310a565b610aa760028301600061310a565b610ab560038301600061310a565b610ac360048301600061310a565b5060050180546001600160c01b031916905560105460e0820151608083015160a084015160c085015160408087015160608801519151630f442c0160e41b81526000976001600160a01b03169663f442c01096610b2d969195909491939092909190600401613b8d565b602060405180830381600087803b158015610b4757600080fd5b505af1158015610b5b573d6000803e3d6000fd5b505050506040513d601f19601f82011682018060405250810190610b7f9190613734565b600e5460e0840151608085015160405163c94e4df560e01b81529394506000936001600160a01b039093169263c94e4df592610bc19290918790600401613b58565b602060405180830381600087803b158015610bdb57600080fd5b505af1158015610bef573d6000803e3d6000fd5b505050506040513d601f19601f82011682018060405250810190610c1391906138e1565b600e5460405163e483abaf60e01b81529192506001600160a01b03169063e483abaf90610c44908490600401613e00565b600060405180830381600087803b158015610c5e57600080fd5b505af1158015610c72573d6000803e3d6000fd5b50505050505050505050565b6010546040516331f5934360e11b81526001600160a01b038086169216906363eb268690610cb29086908690600401613e09565b60206040518083038186803b158015610cca57600080fd5b505afa158015610cde573d6000803e3d6000fd5b505050506040513d601f19601f82011682018060405250810190610d029190613734565b6001600160a01b031614610d285760405162461bcd60e51b815260040161074e90613ef0565b600e54604051635a47d15760e11b815260009182916001600160a01b039091169063b48fa2ae90610d6190339088908890600401613a17565b60206040518083038186803b158015610d7957600080fd5b505afa158015610d8d573d6000803e3d6000fd5b505050506040513d601f19601f82011682018060405250810190610db191906138e1565b90508015801590610e405750600e5460405163ceb0d74760e01b81526001600160a01b039091169063ceb0d74790610df09084906002906004016141f1565b60206040518083038186803b158015610e0857600080fd5b505afa158015610e1c573d6000803e3d6000fd5b505050506040513d601f19601f82011682018060405250810190610e40919061368d565b15610e4a57600191505b81610e675760405162461bcd60e51b815260040161074e906140a8565b600d546040516386d0e60960e01b81526001600160a01b03909116906386d0e60990610e9b908a908a908a90600401613e1d565b600060405180830381600087803b158015610eb557600080fd5b505af1158015610ec9573d6000803e3d6000fd5b5050505050505050505050565b610ede612a73565b6000546001600160a01b03908116911614610f0b5760405162461bcd60e51b815260040161074e90614073565b600980546001600160a01b0319166001600160a01b0392909216919091179055565b610f35612a73565b6000546001600160a01b03908116911614610f625760405162461bcd60e51b815260040161074e90614073565b6008546040516315ddd19b60e11b81526001600160a01b0390911690632bbba33690610f98908790879087908790600401613b00565b600060405180830381600087803b158015610fb257600080fd5b505af1158015610fc6573d6000803e3d6000fd5b5050505050505050565b600d546001600160a01b031681565b60008281526006602052604090205482906001600160a01b031633146110175760405162461bcd60e51b815260040161074e90614168565b60008181526006602052604080822080546001600160a01b03191690555182916000805160206142d383398151915291a2600b546000848152600c60205260409081902060018101549151632625cd2960e21b81526001600160a01b039384169363989734a4936110919392889290911690600401613ebd565b600060405180830381600087803b1580156110ab57600080fd5b505af11580156110bf573d6000803e3d6000fd5b5050506000848152600c6020526040812091506110dc828261310a565b5060010180546001600160a01b0319169055505050565b600c6020908152600091825260409182902080548351601f6002600019610100600186161502019093169290920491820184900484028101840190945280845290929183919083018282801561118a5780601f1061115f5761010080835404028352916020019161118a565b820191906000526020600020905b81548152906001019060200180831161116d57829003601f168201915b505050600190930154919250506001600160a01b031682565b6111ab612a73565b6000546001600160a01b039081169116146111d85760405162461bcd60e51b815260040161074e90614073565b6008546040516342aaf11b60e01b81526001600160a01b03909116906342aaf11b9061120c90869086908690600401613a17565b600060405180830381600087803b15801561122657600080fd5b505af115801561123a573d6000803e3d6000fd5b50505050505050565b6040805180820182526005815264636c61696d60d81b60208201526008549151637f7207c360e11b81526000928692916001600160a01b039091169063fee40f8690611293908590600401613a03565b60206040518083038186803b1580156112ab57600080fd5b505afa1580156112bf573d6000803e3d6000fd5b505050506040513d601f19601f820116820180604052508101906112e3919061368d565b6112ff5760405162461bcd60e51b815260040161074e90613f42565b600854604051639dd1e44b60e01b81526001600160a01b0390911690639dd1e44b906113319085908590600401613b34565b60206040518083038186803b15801561134957600080fd5b505afa15801561135d573d6000803e3d6000fd5b505050506040513d601f19601f82011682018060405250810190611381919061368d565b61139d5760405162461bcd60e51b815260040161074e90614131565b600d54604051636a6ab0e960e01b81526000916001600160a01b031690636a6ab0e9906113d09089908990600401613e09565b60206040518083038186803b1580156113e857600080fd5b505afa1580156113fc573d6000803e3d6000fd5b505050506040513d601f19601f820116820180604052508101906114209190613750565b600181111561142b57fe5b146114485760405162461bcd60e51b815260040161074e90614105565b600854604051632ed20a2960e21b815260009182916001600160a01b039091169063bb4828a49061147d908b90600401613c55565b604080518083038186803b15801561149457600080fd5b505afa1580156114a8573d6000803e3d6000fd5b505050506040513d601f19601f820116820180604052508101906114cc9190613711565b915091506114d8613151565b6114ea8330632aa6884560e11b612a82565b604080518082018252600c81526b19da5d1a1d58955cd95c925960a21b6020820152600b54915163c155f9bd60e01b815292935061159e9290916001600160a01b03169063c155f9bd90611542903390600401613a03565b60006040518083038186803b15801561155a57600080fd5b505afa15801561156e573d6000803e3d6000fd5b505050506040513d6000823e601f3d908101601f191682016040526115969190810190613878565b839190612aa7565b611601604051806040016040528060078152602001661a5cdcdd59525960ca1b81525089898080601f016020809104026020016040519081016040528093929190818152602001838380828437600092019190915250869493925050612aa79050565b61160c898284612aca565b6040805160606020601f8c01819004028201810183529181018a81529298509182918b908b9081908501838280828437600092018290525093855250503360209384015250888152600f82526040902082518051919261167192849290910190613186565b5060209190910151600190910180546001600160a01b0319166001600160a01b039092169190911790555093979650505050505050565b6116b0612a73565b6000546001600160a01b039081169116146116dd5760405162461bcd60e51b815260040161074e90614073565b6008546040516348297f5960e01b81526001600160a01b03909116906348297f59906117159088908890889088908890600401613a3c565b600060405180830381600087803b15801561172f57600080fd5b505af1158015611743573d6000803e3d6000fd5b505050505050505050565b600a805460408051602060026001851615610100026000190190941693909304601f810184900484028201840190925281815292918301828280156117d45780601f106117a9576101008083540402835291602001916117d4565b820191906000526020600020905b8154815290600101906020018083116117b757829003601f168201915b505050505081565b6117e4612a73565b6000546001600160a01b039081169116146118115760405162461bcd60e51b815260040161074e90614073565b600880546001600160a01b0319166001600160a01b0392909216919091179055565b6009546001600160a01b0316331461184a57600080fd5b600d54604051632a303aed60e11b81526001600160a01b039091169063546075da9061120c90869086908690600401613e49565b60008181526006602052604090205481906001600160a01b031633146118b65760405162461bcd60e51b815260040161074e90614168565b60008181526006602052604080822080546001600160a01b03191690555182916000805160206142d383398151915291a2600d546000838152600f602052604080822060018101549151632007557f60e21b815292936001600160a01b039081169363801d55fc9361192e9392169190600401613bf6565b602060405180830381600087803b15801561194857600080fd5b505af115801561195c573d6000803e3d6000fd5b505050506040513d601f19601f8201168201806040525081019061198091906138e1565b6010546000858152600f6020526040908190206001810154600d549251632512be9360e01b81529495506001600160a01b03938416946306d6bda794918216938793921691632512be93916119d89190600401613eaa565b60206040518083038186803b1580156119f057600080fd5b505afa158015611a04573d6000803e3d6000fd5b505050506040513d601f19601f82011682018060405250810190611a289190613734565b6040518463ffffffff1660e01b8152600401611a4693929190613d49565b600060405180830381600087803b158015611a6057600080fd5b505af1158015611a74573d6000803e3d6000fd5b5050506000848152600f6020526040812091506110dc828261310a565b6007546001600160a01b038281169116145b919050565b604080518082018252600f81526e0636865636b2d6f776e65727368697608c1b60208201526008549151637f7207c360e11b81526000928592916001600160a01b039091169063fee40f8690611b02908590600401613a03565b60206040518083038186803b158015611b1a57600080fd5b505afa158015611b2e573d6000803e3d6000fd5b505050506040513d601f19601f82011682018060405250810190611b52919061368d565b611b6e5760405162461bcd60e51b815260040161074e90613f42565b600854604051639dd1e44b60e01b81526001600160a01b0390911690639dd1e44b90611ba09085908590600401613b34565b60206040518083038186803b158015611bb857600080fd5b505afa158015611bcc573d6000803e3d6000fd5b505050506040513d601f19601f82011682018060405250810190611bf0919061368d565b611c0c5760405162461bcd60e51b815260040161074e90614131565b600854604051632ed20a2960e21b815260009182916001600160a01b039091169063bb4828a490611c41908a90600401613c1a565b604080518083038186803b158015611c5857600080fd5b505afa158015611c6c573d6000803e3d6000fd5b505050506040513d601f19601f82011682018060405250810190611c909190613711565b91509150611c9c613151565b611cad83306283cf1160e01b612a82565b9050611cec6040518060400160405280600c81526020016b19da5d1a1d58955cd95c925960a21b815250886020015183612aa79092919063ffffffff16565b6040805180820190915260098152681c995c1bd3dc99d25960ba1b60208201526080880151611d1c918391612aa7565b611d27888284612aca565b3360e089015260008181526012602090815260409091208951815460ff1916901515178155818a015180519399508a939192611d6b92600185019290910190613186565b5060408201518051611d87916002840191602090910190613186565b5060608201518051611da3916003840191602090910190613186565b5060808201518051611dbf916004840191602090910190613186565b5060a0820151600591909101805460c084015160e09094015161ffff1990911661ffff9384161763ffff0000191662010000939094169290920292909217640100000000600160c01b0319166401000000006001600160a01b039092169190910217905550939695505050505050565b611e37612a73565b6000546001600160a01b03908116911614611e645760405162461bcd60e51b815260040161074e90614073565b60085460405163583d789b60e01b81526001600160a01b039091169063583d789b9061120c90869086908690600401613a17565b611ea0612a73565b6000546001600160a01b03908116911614611ecd5760405162461bcd60e51b815260040161074e90614073565b601080546001600160a01b0319166001600160a01b0392909216919091179055565b600f6020908152600091825260409182902080548351601f6002600019610100600186161502019093169290920491820184900484028101840190945280845290929183919083018282801561118a5780601f1061115f5761010080835404028352916020019161118a565b600d54604051634c7ad98160e11b81526001600160a01b03909116906398f5b30290611f8d90849033906004016141b0565b600060405180830381600087803b158015611fa757600080fd5b505af1158015611fbb573d6000803e3d6000fd5b5050505050565b611fca612a73565b6000546001600160a01b03908116911614611ff75760405162461bcd60e51b815260040161074e90614073565b600b80546001600160a01b0319166001600160a01b0392909216919091179055565b612021612a73565b6000546001600160a01b0390811691161461204e5760405162461bcd60e51b815260040161074e90614073565b600080546040516001600160a01b03909116907f8be0079c531659141344cd1fd0a4f28419497f9722a3daafe3b4186f6b6457e0908390a3600080546001600160a01b0319169055565b6007546001600160a01b031681565b600d546040516363e30a7d60e11b81526001600160a01b039091169063c7c614fa90611f8d90849033906004016141b0565b6008546001600160a01b031681565b6000546001600160a01b03165b90565b61210285856129a6565b611fbb8585858585610c7e565b6012602090815260009182526040918290208054600180830180548651600261010094831615949094026000190190911692909204601f810186900486028301860190965285825260ff9092169492939092908301828280156121b35780601f10612188576101008083540402835291602001916121b3565b820191906000526020600020905b81548152906001019060200180831161219657829003601f168201915b50505060028085018054604080516020601f60001961010060018716150201909416959095049283018590048502810185019091528181529596959450909250908301828280156122455780601f1061221a57610100808354040283529160200191612245565b820191906000526020600020905b81548152906001019060200180831161222857829003601f168201915b5050505060038301805460408051602060026001851615610100026000190190941693909304601f81018490048402820184019092528181529495949350908301828280156122d55780601f106122aa576101008083540402835291602001916122d5565b820191906000526020600020905b8154815290600101906020018083116122b857829003601f168201915b5050505060048301805460408051602060026001851615610100026000190190941693909304601f81018490048402820184019092528181529495949350908301828280156123655780601f1061233a57610100808354040283529160200191612365565b820191906000526020600020905b81548152906001019060200180831161234857829003601f168201915b5050506005909301549192505061ffff80821691620100008104909116906001600160a01b036401000000009091041688565b600d54604051634f6e037760e11b81526001600160a01b0390911690639edc06ee9034906123ce90869086903390600401613e1d565b6000604051808303818588803b15801561122657600080fd5b6010546001600160a01b031681565b6123fe612a73565b6000546001600160a01b0390811691161461242b5760405162461bcd60e51b815260040161074e90614073565b600e80546001600160a01b0319166001600160a01b0392909216919091179055565b600e546001600160a01b031681565b600d54600b5460405163c155f9bd60e01b81526001600160a01b039283169263e14c375f92859233929091169063c155f9bd9061249d908490600401613a03565b60006040518083038186803b1580156124b557600080fd5b505afa1580156124c9573d6000803e3d6000fd5b505050506040513d6000823e601f3d908101601f191682016040526124f19190810190613878565b6040518463ffffffff1660e01b8152600401611f8d939291906141c7565b600b546001600160a01b031681565b612526612a73565b6000546001600160a01b039081169116146125535760405162461bcd60e51b815260040161074e90614073565b601180546001600160a01b0319166001600160a01b0392909216919091179055565b61257d612a73565b6000546001600160a01b039081169116146125aa5760405162461bcd60e51b815260040161074e90614073565b600780546001600160a01b0319166001600160a01b0392909216919091179055565b6040805180820182526008808252673932b3b4b9ba32b960c11b6020830152549151637f7207c360e11b81526000928692916001600160a01b039091169063fee40f869061261e908590600401613a03565b60206040518083038186803b15801561263657600080fd5b505afa15801561264a573d6000803e3d6000fd5b505050506040513d601f19601f8201168201806040525081019061266e919061368d565b61268a5760405162461bcd60e51b815260040161074e90613f42565b600854604051639dd1e44b60e01b81526001600160a01b0390911690639dd1e44b906126bc9085908590600401613b34565b60206040518083038186803b1580156126d457600080fd5b505afa1580156126e8573d6000803e3d6000fd5b505050506040513d601f19601f8201168201806040525081019061270c919061368d565b6127285760405162461bcd60e51b815260040161074e90614131565b600854604051632ed20a2960e21b815260009182916001600160a01b039091169063bb4828a49061275d908b90600401613c86565b604080518083038186803b15801561277457600080fd5b505afa158015612788573d6000803e3d6000fd5b505050506040513d601f19601f820116820180604052508101906127ac9190613711565b915091506127b8613151565b6127ca8330631082b3cf60e21b612a82565b90506128346040518060400160405280600c81526020016b19da5d1a1d58955cd95c925960a21b81525089898080601f016020809104026020016040519081016040528093929190818152602001838380828437600092019190915250869493925050612aa79050565b61286a6040518060400160405280600a8152602001696574684164647265737360b01b815250611596612865612a73565b612c09565b612875898284612aca565b6040805160606020601f8c01819004028201810183529181018a81529298509182918b908b90819085018382808284376000920191909152505050908252506020016128bf612a73565b6001600160a01b031690526000878152600c6020908152604090912082518051919261167192849290910190613186565b6128f8612a73565b6000546001600160a01b039081169116146129255760405162461bcd60e51b815260040161074e90614073565b6001600160a01b03811661294b5760405162461bcd60e51b815260040161074e90613f72565b600080546040516001600160a01b03808516939216917f8be0079c531659141344cd1fd0a4f28419497f9722a3daafe3b4186f6b6457e091a3600080546001600160a01b0319166001600160a01b0392909216919091179055565b600d5460405163e54f54a960e01b81526001600160a01b039091169063e54f54a99034906123ce90869086903390600401613e1d565b6129e4612a73565b6000546001600160a01b03908116911614612a115760405162461bcd60e51b815260040161074e90614073565b600854604051633f7217f160e21b81526001600160a01b039091169063fdc85fc490611f8d908490600401613a03565b600060183610801590612a585750612a5833611a91565b15612a6c575060131936013560601c6120f5565b50336120f5565b6000612a7d612a41565b905090565b612a8a613151565b612a92613151565b612a9e81868686612cec565b95945050505050565b6080830151612ab69083612d29565b6080830151612ac59082612d29565b505050565b600030600554604051602001612ae19291906139e1565b60408051808303601f19018152918152815160209283012060055460608701526000818152600690935281832080546001600160a01b0319166001600160a01b038916179055905190925082917fb5e6e01e79f91267dc17b4e6314d5d4d03593d2ceee0fbb452b750bd70ea5af991a26003546001600160a01b0316634000aea08584612b6d87612d40565b6040518463ffffffff1660e01b8152600401612b8b93929190613d22565b602060405180830381600087803b158015612ba557600080fd5b505af1158015612bb9573d6000803e3d6000fd5b505050506040513d601f19601f82011682018060405250810190612bdd919061368d565b612bf95760405162461bcd60e51b815260040161074e90613fb8565b6005805460010190559392505050565b60606001600160a01b03821680612c395750506040805180820190915260018152600360fc1b6020820152611aa3565b8060005b8115612c5157600101600a82049150612c3d565b6060816001600160401b0381118015612c6957600080fd5b506040519080825280601f01601f191660200182016040528015612c94576020820181803683370190505b50905060001982015b8415612ce257600a850660300160f81b82828060019003935081518110612cc057fe5b60200101906001600160f81b031916908160001a905350600a85049450612c9d565b5095945050505050565b612cf4613151565b612d048560800151610100612dbc565b50509183526001600160a01b031660208301526001600160e01b031916604082015290565b612d368260038351612dfc565b612ac58282612ed5565b6060634042994660e01b60008084600001518560200151866040015187606001516001896080015160000151604051602401612d83989796959493929190613cba565b60408051601f198184030181529190526020810180516001600160e01b03166001600160e01b0319909316929092179091529050919050565b612dc4613204565b6020820615612dd95760208206602003820191505b506020808301829052604080518085526000815283019091019052815b92915050565b60178111612e1d57612e178360e0600585901b168317612ef6565b50612ac5565b60ff8111612e4757612e3a836018611fe0600586901b1617612ef6565b50612e1783826001612f0e565b61ffff8111612e7257612e65836019611fe0600586901b1617612ef6565b50612e1783826002612f0e565b63ffffffff8111612e9f57612e9283601a611fe0600586901b1617612ef6565b50612e1783826004612f0e565b6001600160401b038111612ac557612ec283601b611fe0600586901b1617612ef6565b50612ecf83826008612f0e565b50505050565b612edd613204565b612eef83846000015151848551612f2f565b9392505050565b612efe613204565b612eef8384600001515184612fdb565b612f16613204565b612f27848560000151518585613026565b949350505050565b612f37613204565b8251821115612f4557600080fd5b84602001518285011115612f6f57612f6f85612f678760200151878601613084565b60020261309b565b600080865180518760208301019350808887011115612f8e5787860182525b505050602084015b60208410612fb55780518252601f199093019260209182019101612f96565b51815160001960208690036101000a019081169019919091161790525083949350505050565b612fe3613204565b83602001518310612fff57612fff84856020015160020261309b565b83518051602085830101848153508085141561301c576001810182525b5093949350505050565b61302e613204565b8460200151848301111561304b5761304b8585840160020261309b565b60006001836101000a0390508551838682010185831982511617815250805184870111156130795783860181525b509495945050505050565b600081831115613095575081612df6565b50919050565b81516130a78383612dbc565b50612ecf8382612ed5565b60405180610100016040528060001515815260200160608152602001606081526020016060815260200160608152602001600061ffff168152602001600061ffff16815260200160006001600160a01b031681525090565b50805460018160011615610100020316600290046000825580601f10613130575061314e565b601f01602090049060005260206000209081019061314e919061321e565b50565b6040805160a081018252600080825260208201819052918101829052606081019190915260808101613181613204565b905290565b828054600181600116156101000203166002900490600052602060002090601f016020900481019282601f106131c757805160ff19168380011785556131f4565b828001600101855582156131f4579182015b828111156131f45782518255916020019190600101906131d9565b5061320092915061321e565b5090565b604051806040016040528060608152602001600081525090565b5b80821115613200576000815560010161321f565b8035612df6816142af565b600082601f83011261324e578081fd5b813561326161325c82614235565b61420f565b818152915060208083019084810160408085028701830188101561328457600080fd5b60005b858110156132ab576132998984613356565b85529383019391810191600101613287565b50505050505092915050565b8035612df6816142c4565b60008083601f8401126132d3578182fd5b5081356001600160401b038111156132e9578182fd5b60208301915083602082850101111561330157600080fd5b9250929050565b600082601f830112613318578081fd5b813561332661325c82614254565b915080825283602082850101111561333d57600080fd5b8060208401602084013760009082016020015292915050565b600060408284031215613367578081fd5b613371604061420f565b9050813581526020820135602082015292915050565b803561ffff81168114612df657600080fd5b6000602082840312156133aa578081fd5b8135612eef816142af565b6000806000604084860312156133c9578182fd5b83356133d4816142af565b925060208401356001600160401b038111156133ee578283fd5b6133fa868287016132c2565b9497909650939450505050565b60008060008060006080868803121561341e578081fd5b8535613429816142af565b94506020868101356001600160401b0380821115613445578384fd5b6134518a838b016132c2565b90975095506040890135915080821115613469578384fd5b818901915089601f83011261347c578384fd5b813561348a61325c82614235565b81815284810190848601875b848110156134bf576134ad8f8984358a0101613308565b84529287019290870190600101613496565b5090975050505060608901359250808311156134d9578384fd5b50506134e78882890161323e565b9150509295509295909350565b60008060008060808587031215613509578384fd5b8435613514816142af565b935060208501356001600160401b0381111561352e578384fd5b61353a878288016132c2565b909450925061354e90508660408701613356565b905092959194509250565b6000806040838503121561356b578182fd5b8235613576816142af565b915060208301356001600160401b0380821115613591578283fd5b81850191506101008083880312156135a7578384fd5b6135b08161420f565b90506135bc87846132b7565b81526020830135828111156135cf578485fd5b6135db88828601613308565b6020830152506040830135828111156135f2578485fd5b6135fe88828601613308565b604083015250606083013582811115613615578485fd5b61362188828601613308565b606083015250608083013582811115613638578485fd5b61364488828601613308565b6080830152506136578760a08501613387565b60a08201526136698760c08501613387565b60c082015261367b8760e08501613233565b60e08201528093505050509250929050565b60006020828403121561369e578081fd5b8151612eef816142c4565b6000602082840312156136ba578081fd5b5035919050565b600080604083850312156136d3578182fd5b8235915060208301356136e5816142c4565b809150509250929050565b60008060408385031215613702578182fd5b50508035926020909101359150565b60008060408385031215613723578182fd5b505080516020909101519092909150565b600060208284031215613745578081fd5b8151612eef816142af565b600060208284031215613761578081fd5b815160028110612eef578182fd5b60008060208385031215613781578182fd5b82356001600160401b03811115613796578283fd5b6137a2858286016132c2565b90969095509350505050565b6000806000806000606086880312156137c5578283fd5b85356001600160401b03808211156137db578485fd5b6137e789838a016132c2565b9097509550602088013591506137fc826142af565b90935060408701359080821115613811578283fd5b5061381e888289016132c2565b969995985093965092949392505050565b600080600060408486031215613843578081fd5b83356001600160401b03811115613858578182fd5b613864868287016132c2565b909790965060209590950135949350505050565b600060208284031215613889578081fd5b81516001600160401b0381111561389e578182fd5b8201601f810184136138ae578182fd5b80516138bc61325c82614254565b8181528560208385010111156138d0578384fd5b612a9e826020830160208601614283565b6000602082840312156138f2578081fd5b5051919050565b60008151808452613911816020860160208601614283565b601f01601f19169290920160200192915050565b60008284528282602086013780602084860101526020601f19601f85011685010190509392505050565b6000815460018082166000811461396d576001811461398b576139c9565b60028304607f16865260ff19831660208701526040860193506139c9565b6002830480875261399b86614277565b60005b828110156139bf5781546020828b010152848201915060208101905061399e565b8801602001955050505b50505092915050565b80518252602090810151910152565b60609290921b6bffffffffffffffffffffffff19168252601482015260340190565b6001600160a01b0391909116815260200190565b6001600160a01b0384168152604060208201819052600090612a9e9083018486613925565b6001600160a01b038616815260806020808301829052600091613a629084018789613925565b604084820381860152818751808452848401915084858202850101858a01875b83811015613ab057601f19878403018552613a9e8383516138f9565b94880194925090870190600101613a82565b5050878103606089015288518082529086019450915050838701855b82811015613aef57613adf8583516139d2565b9383019390850190600101613acc565b50929b9a5050505050505050505050565b6001600160a01b0385168152608060208201819052600090613b259083018587613925565b9050612a9e60408301846139d2565b6001600160a01b0383168152604060208201819052600090612f27908301846138f9565b600060018060a01b03808616835260606020840152613b7a60608401866138f9565b9150808416604084015250949350505050565b6001600160a01b038716815260c060208201819052600090613bb1908301886138f9565b61ffff8781166040850152861660608401528281036080840152613bd581866138f9565b905082810360a0840152613be981856138f9565b9998505050505050505050565b6001600160a01b0383168152604060208201819052600090612f279083018461394f565b6001600160a01b03919091168152604060208201819052600f908201526e0636865636b2d6f776e65727368697608c1b606082015260800190565b6001600160a01b0391909116815260406020820181905260059082015264636c61696d60d81b606082015260800190565b6001600160a01b03919091168152604060208201819052600890820152673932b3b4b9ba32b960c11b606082015260800190565b6001600160a01b0389811682526020820189905260408201889052861660608201526001600160e01b03198516608082015260a0810184905260c0810183905261010060e08201819052600090613d13838201856138f9565b9b9a5050505050505050505050565b600060018060a01b038516825283602083015260606040830152612a9e60608301846138f9565b6001600160a01b0393841681526020810192909252909116604082015260600190565b901515815260200190565b60006101008a15158352806020840152613d938184018b6138f9565b90508281036040840152613da7818a6138f9565b90508281036060840152613dbb81896138f9565b90508281036080840152613dcf81886138f9565b61ffff96871660a08501529490951660c0830152506001600160a01b039190911660e0909101529695505050505050565b90815260200190565b600060208252612f27602083018486613925565b600060408252613e31604083018587613925565b905060018060a01b0383166020830152949350505050565b600060408252613e5d604083018587613925565b9050826020830152949350505050565b600060208252612eef60208301846138f9565b600060408252613e9360408301856138f9565b905060018060a01b03831660208301529392505050565b600060208252612eef602083018461394f565b600060608252613ed0606083018661394f565b6020830194909452506001600160a01b0391909116604090910152919050565b60208082526032908201527f5f70726f6a6563744964206973206e6f74206173736f6369617465642077697460408201527168205f676f76546f6b656e4164647265737360701b606082015260800190565b60208082526016908201527527b930b1b632903237b2b9903737ba1032bc34b9ba1760511b604082015260600190565b60208082526026908201527f4f776e61626c653a206e6577206f776e657220697320746865207a65726f206160408201526564647265737360d01b606082015260800190565b60208082526023908201527f756e61626c6520746f207472616e73666572416e6443616c6c20746f206f7261604082015262636c6560e81b606082015260800190565b6020808252602f908201527f55736572206973206e6f74206f776e6572206f66206f7267616e697a6174696f60408201526e6e206f72207265706f7369746f727960881b606082015260800190565b6020808252600f908201526e139bc81cdd58da081c995c5d595cdd608a1b604082015260600190565b6020808252818101527f4f776e61626c653a2063616c6c6572206973206e6f7420746865206f776e6572604082015260600190565b6020808252603d908201527f596f7520646f6e27742068617665207065726d697373696f6e20746f2073657460408201527f20676f7665726e616e636520746f6b656e7320666f7220697373756573000000606082015260800190565b60208082526012908201527124b9b9bab29034b9903737ba1027a822a71760711b604082015260600190565b6020808252601a908201527f4f7261636c65206a6f6220646f6573206e6f742065786973742e000000000000604082015260600190565b60208082526028908201527f536f75726365206d75737420626520746865206f7261636c65206f6620746865604082015267081c995c5d595cdd60c21b606082015260800190565b9182526001600160a01b0316602082015260400190565b8381526001600160a01b0383166020820152606060408201819052600090612a9e908301846138f9565b828152604081016004831061420257fe5b8260208301529392505050565b6040518181016001600160401b038111828210171561422d57600080fd5b604052919050565b60006001600160401b0382111561424a578081fd5b5060209081020190565b60006001600160401b03821115614269578081fd5b50601f01601f191660200190565b60009081526020902090565b60005b8381101561429e578181015183820152602001614286565b83811115612ecf5750506000910152565b6001600160a01b038116811461314e57600080fd5b801515811461314e57600080fdfe7cc135e0cebb02c3480ae5d74d377283180a2601f8f644edf7987b009316c63aa26469706673582212207032a64de004f932104e2269f039752037cd2b5f9f69b589b5569ebef54d5ba464736f6c634300060c0033",
  "immutableReferences": {},
  "source": "// SPDX-License-Identifier: MIT\npragma solidity ^0.6.0;\npragma experimental ABIEncoderV2;\n\nimport '@openzeppelin/contracts/access/Ownable.sol';\nimport '@chainlink/contracts/src/v0.6/ChainlinkClient.sol';\nimport \"@chainlink/contracts/src/v0.6/interfaces/AggregatorV3Interface.sol\";\nimport '@opengsn/gsn/contracts/BaseRelayRecipient.sol';\nimport './UserAddressStorage.sol';\nimport './OracleStorage.sol';\nimport './OctobayGovToken.sol';\nimport './OctobayGovernor.sol';\nimport './OctobayGovNFT.sol';\nimport './DepositStorage.sol';\n\ncontract Octobay is Ownable, ChainlinkClient, BaseRelayRecipient {\n\n    constructor(\n        address _link,\n        address _forwarder,\n        address _userAddressStorage,\n        address _oracleStorage,\n        address _octobayGovernor,\n        address _ethUSDPriceFeed,\n        address _octobayGovNFT,\n        address _depositStorage\n    ) public {\n        setChainlinkToken(_link);\n        trustedForwarder = _forwarder; // GSN trusted forwarder\n        userAddressStorage = UserAddressStorage(_userAddressStorage);\n        oracleStorage = OracleStorage(_oracleStorage);\n        octobayGovernor = OctobayGovernor(_octobayGovernor);\n        ethUSDPriceFeed = AggregatorV3Interface(_ethUSDPriceFeed);\n        octobayGovNFT = OctobayGovNFT(_octobayGovNFT);\n        depositStorage = DepositStorage(_depositStorage);\n    }\n\n    // ------------ Set contract addresses ------------ //\n\n    function setTrustedForwarder(address _forwarder) external onlyOwner {\n        trustedForwarder = _forwarder; // GSN trusted forwarder\n    }\n\n    function setUserAddressStorage(address _userAddressStorage) external onlyOwner {\n        userAddressStorage = UserAddressStorage(_userAddressStorage);\n    }\n\n    function setOracleStorage(address _oracleStorage) external onlyOwner {\n        oracleStorage = OracleStorage(_oracleStorage);\n    }\n\n    function setOctobayGovernor(address _octobayGovernor) external onlyOwner {\n        octobayGovernor = OctobayGovernor(_octobayGovernor);\n    }\n\n    function setEthUSDPriceFeed(address _ethUSDPriceFeed) external onlyOwner {\n        ethUSDPriceFeed = AggregatorV3Interface(_ethUSDPriceFeed);\n    }\n\n    function setOctobayGovNFT(address _octobayGovNFT) external onlyOwner {\n        octobayGovNFT = OctobayGovNFT(_octobayGovNFT);\n    }                    \n\n    // ------------ Oracles ------------ //\n    \n    //TODO: These methods are all wrappers, can we call OracleStorage directly?\n\n    OracleStorage public oracleStorage;\n\n    modifier oracleHandlesJob(address _oracle, string memory _jobName) {\n        require(oracleStorage.oracleExists(_oracle), \"Oracle does not exist.\");\n        require(oracleStorage.oracleJobExists(_oracle, _jobName), \"Oracle job does not exist.\");\n        _;\n    }\n\n    function addOracle(\n        address _oracle,\n        string calldata _name,\n        string[] memory _jobNames,\n        OracleStorage.Job[] memory _jobs\n    ) external onlyOwner {\n        oracleStorage.addOracle(_oracle, _name, _jobNames, _jobs);\n    }\n\n    function removeOracle(address _oracle) external onlyOwner {\n        oracleStorage.removeOracle(_oracle);\n    }\n\n    function changeOracleName(address _oracle, string calldata _name) external onlyOwner {\n        oracleStorage.changeOracleName(_oracle, _name);\n    }\n\n    function addOracleJob(\n        address _oracle,\n        string calldata _jobName,\n        OracleStorage.Job memory _job\n    ) external onlyOwner {\n        oracleStorage.addOracleJob(_oracle, _jobName, _job);\n    }\n\n    function removeOracleJob(address _oracle, string calldata _jobName) external onlyOwner {\n        oracleStorage.removeOracleJob(_oracle, _jobName);\n    }\n\n    // ------------ GSN ------------ //\n\n\n    address octobayPaymaster;\n\n    function setPaymaster(address _octobayPaymaster) external onlyOwner {\n        octobayPaymaster = _octobayPaymaster;\n    }\n\n    function _msgSender() internal override(Context, BaseRelayRecipient)\n    view returns (address payable) {\n        return BaseRelayRecipient._msgSender();\n    }\n\n    function _msgData() internal override(Context, BaseRelayRecipient)\n    view returns (bytes memory ret) {\n        return BaseRelayRecipient._msgData();\n    }\n\n    string public override versionRecipient = '2.0.0'; // GSN version\n\n    function deductGasFee(string calldata _githubUserId, uint256 _amount)\n        external\n    {\n        // only paymaster, cause paymaster pays for gas fee on behalf of user\n        require(msg.sender == octobayPaymaster);\n        depositStorage.deductGasFee(_githubUserId, _amount);\n    }\n\n\n\n\n\n    // ------------ REGISTRATION ------------ //\n\n\n    UserAddressStorage public userAddressStorage;\n\n    struct UserAddressRegistration {\n        string githubUserId;\n        address ethAddress;\n    }\n\n    mapping(bytes32 => UserAddressRegistration) public userAddressRegistrations;\n\n    function registerUserAddress(\n        address _oracle,\n        string calldata _githubUserId\n    ) public oracleHandlesJob(_oracle, 'register') returns(bytes32 requestId) {\n        (bytes32 jobId, uint256 jobFee) = oracleStorage.getOracleJob(_oracle, 'register');\n        Chainlink.Request memory request =\n            buildChainlinkRequest(\n                jobId,\n                address(this),\n                this.confirmRegisterUserAddress.selector\n            );\n        request.add('githubUserId', _githubUserId);\n        request.add('ethAddress', addressToIntString(_msgSender()));\n        requestId = sendChainlinkRequestTo(_oracle, request, jobFee);\n\n        userAddressRegistrations[requestId] = UserAddressRegistration(_githubUserId, _msgSender());\n    }\n\n    function confirmRegisterUserAddress(bytes32 _requestId, bytes32 _addressName)\n        public\n        recordChainlinkFulfillment(_requestId)\n    {\n        userAddressStorage.addUserAddress(\n            userAddressRegistrations[_requestId].githubUserId,\n            _addressName,\n            userAddressRegistrations[_requestId].ethAddress\n        );\n\n        delete userAddressRegistrations[_requestId];\n    }\n\n    // ------------ USER DEPOSITS ------------ //\n\n    DepositStorage public depositStorage;\n\n    function depositEthForGithubUser(string calldata _githubUserId)\n        external\n        payable\n    {\n        // Forwards eth payment to depositStorage to hold\n        depositStorage.depositEthForGithubUser{value: msg.value}(_githubUserId, msg.sender);\n    }\n\n    function refundUserDeposit(uint256 _depositId) external {\n        depositStorage.refundUserDeposit(_depositId, msg.sender);\n    }\n\n    function withdrawUserDeposit(uint256 _depositId) external {\n        depositStorage.withdrawUserDeposit(_depositId, msg.sender, userAddressStorage.userIdsByAddress(msg.sender));\n    }\n\n    // ------------ ISSUE DEPOSITS ------------ //\n\n    OctobayGovNFT public octobayGovNFT;\n\n    function depositAndSetGovTokenForIssue(string calldata _issueId, address _govTokenAddress, string calldata _projectId) external payable {\n        depositEthForIssue(_issueId);\n        setGovTokenForIssue(_issueId, _govTokenAddress, _projectId);\n    }\n\n    function setGovTokenForIssue(string calldata _issueId, address _govTokenAddress, string calldata _projectId) public {\n        // Ensure they're giving us a valid gov token\n        require(address(octobayGovernor.tokensByProjectId(_projectId)) == _govTokenAddress, \"_projectId is not associated with _govTokenAddress\");\n        bool hasPermission = false;\n        uint256 govNFTId = octobayGovNFT.getTokenIDForUserInProject(msg.sender, _projectId);\n        if (govNFTId != 0 && octobayGovNFT.hasPermission(govNFTId, OctobayGovNFT.Permission.SET_ISSUE_GOVTOKEN)) {\n            hasPermission = true;\n        } else {\n            // Do other permission checks here, e.g. oracle calls\n        }\n        require(hasPermission, \"You don't have permission to set governance tokens for issues\");\n        depositStorage.setGovTokenForIssue(_issueId, _govTokenAddress);\n    }\n\n    function depositEthForIssue(string calldata _issueId) public payable {\n        // Forwards eth payment to depositStorage to hold\n        depositStorage.depositEthForIssue{value: msg.value}(_issueId, msg.sender);\n    }\n\n    function refundIssueDeposit(uint256 _depositId) external {\n        depositStorage.refundIssueDeposit(_depositId, msg.sender);\n    }\n\n    // ------------ ISSUE CLAIMING ------------ //\n\n    struct IssueWithdrawRequest {\n        string issueId;\n        address payoutAddress;\n    }\n\n    mapping(bytes32 => IssueWithdrawRequest) public issueWithdrawRequests;\n\n    function withdrawIssueDeposit(\n        address _oracle,\n        string calldata _issueId\n    ) public oracleHandlesJob(_oracle, 'claim') returns(bytes32 requestId) {\n        require(depositStorage.issueStatusByIssueId(_issueId) == DepositStorage.IssueStatus.OPEN, 'Issue is not OPEN.'); \n\n        (bytes32 jobId, uint256 jobFee) = oracleStorage.getOracleJob(_oracle, 'claim');\n        Chainlink.Request memory request =\n            buildChainlinkRequest(\n                jobId,\n                address(this),\n                this.confirmWithdrawIssueDeposit.selector\n            );\n        request.add('githubUserId', userAddressStorage.userIdsByAddress(msg.sender));\n        request.add('issueId', _issueId);\n        requestId = sendChainlinkRequestTo(_oracle, request, jobFee);\n        issueWithdrawRequests[requestId] = IssueWithdrawRequest({\n            issueId: _issueId,\n            payoutAddress: msg.sender\n        });\n    }\n\n    function confirmWithdrawIssueDeposit(bytes32 _requestId)\n        public\n        recordChainlinkFulfillment(_requestId)\n    {\n        uint256 payoutAmt = depositStorage.confirmWithdrawIssueDeposit(issueWithdrawRequests[_requestId].payoutAddress, issueWithdrawRequests[_requestId].issueId);\n        octobayGovernor.awardGovernanceTokens(\n            issueWithdrawRequests[_requestId].payoutAddress, \n            payoutAmt, \n            depositStorage.govTokenByIssueId(issueWithdrawRequests[_requestId].issueId));\n        delete issueWithdrawRequests[_requestId];\n    }\n\n\n\n    // ------------ GOVERNANCE ------------ //\n\n    OctobayGovernor public octobayGovernor;\n    AggregatorV3Interface internal ethUSDPriceFeed;\n\n    /// @notice Used to store Chainlink requests for new governance tokens\n    struct NewGovernanceToken {\n        bool isValue; // Ensure we have a valid value in the map\n        string githubUserId; // Github graphql ID of the user we need to check for ownership\n        string name; // Name of the new governance token\n        string symbol; // Symbol to use for the new governance token\n        string projectId; // Github graphql ID of the project (repo/org) to be associated with the new token\n        uint16 newProposalShare; // Share of gov tokens a holder requires before they can create new proposals\n        uint16 minQuorum; // The minimum quorum allowed for new proposals\n        address creator; // Address of the creator, we need to store this as we lose it in the Oracle callback otherwise\n    }\n\n    mapping(bytes32 => NewGovernanceToken) public newGovernanceTokenReqs;\n\n    /// @notice A request from the site to create a new governance token, checks ownership of the given\n    ///         project (repo or org) via a Chainlink Oracle request to confirm\n    /// @dev Using a struct as an argument here otherwise we get stack too deep errors\n    /// @param _oracle Specify the address of the _oracle to use for the request\n    /// @param _newToken The details of the new governance token to create\n    function createGovernanceToken(\n        address _oracle,\n        NewGovernanceToken memory _newToken\n    ) public oracleHandlesJob(_oracle, 'check-ownership') returns(bytes32 requestId) {\n        (bytes32 jobId, uint256 jobFee) = oracleStorage.getOracleJob(_oracle, 'check-ownership');\n        Chainlink.Request memory request =\n            buildChainlinkRequest(\n                jobId,\n                address(this),\n                this.confirmCreateGovernanceToken.selector\n            );\n        request.add('githubUserId', _newToken.githubUserId);\n        request.add('repoOrgId', _newToken.projectId);\n        requestId = sendChainlinkRequestTo(_oracle, request, jobFee);\n\n        _newToken.creator = msg.sender;\n        newGovernanceTokenReqs[requestId] = _newToken;\n    }\n\n    /// @notice Called in response by the Chainlink Oracle, continues with governance token creation\n    /// @param _requestId Chainlink request ID being returned\n    /// @param _result True if the given github user is an owner of the given project (org/repo)\n    function confirmCreateGovernanceToken(bytes32 _requestId, bool _result)\n        public\n        recordChainlinkFulfillment(_requestId)\n    {\n        require(_result, \"User is not owner of organization or repository\");\n        NewGovernanceToken memory newToken = newGovernanceTokenReqs[_requestId];\n        require(newToken.isValue, \"No such request\");\n        delete newGovernanceTokenReqs[_requestId];\n\n        OctobayGovToken deployedToken = octobayGovernor.createGovernorAndToken(\n            newToken.creator,\n            newToken.projectId,\n            newToken.newProposalShare,\n            newToken.minQuorum,\n            newToken.name,\n            newToken.symbol\n        );\n        uint256 nftId = octobayGovNFT.mintTokenForProject(newToken.creator, newToken.projectId, address(deployedToken));\n        octobayGovNFT.grantAllPermissions(nftId);\n    }\n\n    // ------------ UTILS ------------ //\n\n\n    function addressToIntString(address _address)\n        internal\n        pure\n        returns (string memory _string)\n    {\n        uint256 _i = uint256(_address);\n        if (_i == 0) {\n            return '0';\n        }\n        uint256 j = _i;\n        uint256 len;\n        while (j != 0) {\n            len++;\n            j /= 10;\n        }\n        bytes memory bstr = new bytes(len);\n        uint256 k = len - 1;\n        while (_i != 0) {\n            bstr[k--] = bytes1(uint8(48 + (_i % 10)));\n            _i /= 10;\n        }\n        return string(bstr);\n    }\n}\n",
  "sourcePath": "/home/mkt/Projects/octobay/contracts/contracts/Octobay.sol",
  "compiler": {
    "name": "solc",
    "version": "0.6.12+commit.27d51765.Emscripten.clang"
  },
  "schemaVersion": "3.3.4",
  "updatedAt": "2021-04-22T14:47:54.800Z",
  "networkType": "ethereum",
  "devdoc": {
    "kind": "dev",
    "methods": {
      "confirmCreateGovernanceToken(bytes32,bool)": {
        "params": {
          "_requestId": "Chainlink request ID being returned",
          "_result": "True if the given github user is an owner of the given project (org/repo)"
        }
      },
      "createGovernanceToken(address,(bool,string,string,string,string,uint16,uint16,address))": {
        "details": "Using a struct as an argument here otherwise we get stack too deep errors",
        "params": {
          "_newToken": "The details of the new governance token to create",
          "_oracle": "Specify the address of the _oracle to use for the request"
        }
      },
      "owner()": {
        "details": "Returns the address of the current owner."
      },
      "renounceOwnership()": {
        "details": "Leaves the contract without owner. It will not be possible to call `onlyOwner` functions anymore. Can only be called by the current owner. NOTE: Renouncing ownership will leave the contract without an owner, thereby removing any functionality that is only available to the owner."
      },
      "transferOwnership(address)": {
        "details": "Transfers ownership of the contract to a new account (`newOwner`). Can only be called by the current owner."
      }
    },
    "version": 1
  },
  "userdoc": {
    "kind": "user",
    "methods": {
      "confirmCreateGovernanceToken(bytes32,bool)": {
        "notice": "Called in response by the Chainlink Oracle, continues with governance token creation"
      },
      "createGovernanceToken(address,(bool,string,string,string,string,uint16,uint16,address))": {
        "notice": "A request from the site to create a new governance token, checks ownership of the given         project (repo or org) via a Chainlink Oracle request to confirm"
      },
      "isTrustedForwarder(address)": {
        "notice": "return if the forwarder is trusted to forward relayed transactions to us. the forwarder is required to verify the sender's signature, and verify the call is not a replay."
      }
    },
    "version": 1
  }
}