{
  "contractName": "Octobay",
  "abi": [
    {
      "inputs": [
        {
          "internalType": "address",
          "name": "_link",
          "type": "address"
        },
        {
          "internalType": "address",
          "name": "_forwarder",
          "type": "address"
        },
        {
          "internalType": "address",
          "name": "_ovt",
          "type": "address"
        },
        {
          "internalType": "address",
          "name": "_userAddressStorage",
          "type": "address"
        },
        {
          "internalType": "address",
          "name": "_oracleStorage",
          "type": "address"
        },
        {
          "internalType": "address",
          "name": "_octobayGovernor",
          "type": "address"
        },
        {
          "internalType": "address",
          "name": "_ethUSDPriceFeed",
          "type": "address"
        },
        {
          "internalType": "address",
          "name": "_octobayGovNFT",
          "type": "address"
        }
      ],
      "stateMutability": "nonpayable",
      "type": "constructor"
    },
    {
      "anonymous": false,
      "inputs": [
        {
          "indexed": false,
          "internalType": "address",
          "name": "recipient",
          "type": "address"
        },
        {
          "indexed": false,
          "internalType": "uint256",
          "name": "amount",
          "type": "uint256"
        },
        {
          "indexed": false,
          "internalType": "address",
          "name": "tokenAddr",
          "type": "address"
        }
      ],
      "name": "AwardGovernanceTokensEvent",
      "type": "event"
    },
    {
      "anonymous": false,
      "inputs": [
        {
          "indexed": true,
          "internalType": "bytes32",
          "name": "id",
          "type": "bytes32"
        }
      ],
      "name": "ChainlinkCancelled",
      "type": "event"
    },
    {
      "anonymous": false,
      "inputs": [
        {
          "indexed": true,
          "internalType": "bytes32",
          "name": "id",
          "type": "bytes32"
        }
      ],
      "name": "ChainlinkFulfilled",
      "type": "event"
    },
    {
      "anonymous": false,
      "inputs": [
        {
          "indexed": true,
          "internalType": "bytes32",
          "name": "id",
          "type": "bytes32"
        }
      ],
      "name": "ChainlinkRequested",
      "type": "event"
    },
    {
      "anonymous": false,
      "inputs": [
        {
          "indexed": false,
          "internalType": "address",
          "name": "from",
          "type": "address"
        },
        {
          "indexed": false,
          "internalType": "uint256",
          "name": "amount",
          "type": "uint256"
        },
        {
          "indexed": false,
          "internalType": "string",
          "name": "issueId",
          "type": "string"
        },
        {
          "indexed": false,
          "internalType": "uint256",
          "name": "depositId",
          "type": "uint256"
        }
      ],
      "name": "IssueDepositEvent",
      "type": "event"
    },
    {
      "anonymous": false,
      "inputs": [
        {
          "indexed": true,
          "internalType": "address",
          "name": "previousOwner",
          "type": "address"
        },
        {
          "indexed": true,
          "internalType": "address",
          "name": "newOwner",
          "type": "address"
        }
      ],
      "name": "OwnershipTransferred",
      "type": "event"
    },
    {
      "anonymous": false,
      "inputs": [
        {
          "indexed": false,
          "internalType": "address",
          "name": "to",
          "type": "address"
        },
        {
          "indexed": false,
          "internalType": "uint256",
          "name": "amount",
          "type": "uint256"
        },
        {
          "indexed": false,
          "internalType": "string",
          "name": "issueId",
          "type": "string"
        },
        {
          "indexed": false,
          "internalType": "uint256",
          "name": "depositId",
          "type": "uint256"
        }
      ],
      "name": "RefundIssueDepositEvent",
      "type": "event"
    },
    {
      "anonymous": false,
      "inputs": [
        {
          "indexed": false,
          "internalType": "address",
          "name": "from",
          "type": "address"
        },
        {
          "indexed": false,
          "internalType": "string",
          "name": "issueId",
          "type": "string"
        },
        {
          "indexed": false,
          "internalType": "address",
          "name": "govTokenAddress",
          "type": "address"
        },
        {
          "indexed": false,
          "internalType": "string",
          "name": "projectId",
          "type": "string"
        }
      ],
      "name": "SetGovTokenForIssueEvent",
      "type": "event"
    },
    {
      "anonymous": false,
      "inputs": [
        {
          "indexed": false,
          "internalType": "string",
          "name": "issueId",
          "type": "string"
        },
        {
          "indexed": false,
          "internalType": "bytes32",
          "name": "tweetId",
          "type": "bytes32"
        }
      ],
      "name": "TwitterPostEvent",
      "type": "event"
    },
    {
      "anonymous": false,
      "inputs": [
        {
          "indexed": false,
          "internalType": "address",
          "name": "from",
          "type": "address"
        },
        {
          "indexed": false,
          "internalType": "uint256",
          "name": "amount",
          "type": "uint256"
        },
        {
          "indexed": false,
          "internalType": "string",
          "name": "githubUser",
          "type": "string"
        }
      ],
      "name": "UserDepositEvent",
      "type": "event"
    },
    {
      "anonymous": false,
      "inputs": [
        {
          "indexed": false,
          "internalType": "string",
          "name": "issueId",
          "type": "string"
        },
        {
          "indexed": false,
          "internalType": "address",
          "name": "recipient",
          "type": "address"
        },
        {
          "indexed": false,
          "internalType": "uint256",
          "name": "amount",
          "type": "uint256"
        }
      ],
      "name": "WithdrawIssueDepositEvent",
      "type": "event"
    },
    {
      "inputs": [
        {
          "internalType": "string",
          "name": "",
          "type": "string"
        }
      ],
      "name": "govTokenByIssueId",
      "outputs": [
        {
          "internalType": "contract OctobayGovToken",
          "name": "",
          "type": "address"
        }
      ],
      "stateMutability": "view",
      "type": "function",
      "constant": true
    },
    {
      "inputs": [
        {
          "internalType": "address",
          "name": "forwarder",
          "type": "address"
        }
      ],
      "name": "isTrustedForwarder",
      "outputs": [
        {
          "internalType": "bool",
          "name": "",
          "type": "bool"
        }
      ],
      "stateMutability": "view",
      "type": "function",
      "constant": true
    },
    {
      "inputs": [
        {
          "internalType": "string",
          "name": "",
          "type": "string"
        },
        {
          "internalType": "uint256",
          "name": "",
          "type": "uint256"
        }
      ],
      "name": "issueDepositIdsByIssueId",
      "outputs": [
        {
          "internalType": "uint256",
          "name": "",
          "type": "uint256"
        }
      ],
      "stateMutability": "view",
      "type": "function",
      "constant": true
    },
    {
      "inputs": [
        {
          "internalType": "address",
          "name": "",
          "type": "address"
        },
        {
          "internalType": "uint256",
          "name": "",
          "type": "uint256"
        }
      ],
      "name": "issueDepositIdsBySender",
      "outputs": [
        {
          "internalType": "uint256",
          "name": "",
          "type": "uint256"
        }
      ],
      "stateMutability": "view",
      "type": "function",
      "constant": true
    },
    {
      "inputs": [
        {
          "internalType": "uint256",
          "name": "",
          "type": "uint256"
        }
      ],
      "name": "issueDeposits",
      "outputs": [
        {
          "internalType": "address",
          "name": "from",
          "type": "address"
        },
        {
          "internalType": "uint256",
          "name": "amount",
          "type": "uint256"
        },
        {
          "internalType": "string",
          "name": "issueId",
          "type": "string"
        }
      ],
      "stateMutability": "view",
      "type": "function",
      "constant": true
    },
    {
      "inputs": [
        {
          "internalType": "string",
          "name": "",
          "type": "string"
        }
      ],
      "name": "issueDepositsAmountByIssueId",
      "outputs": [
        {
          "internalType": "uint256",
          "name": "",
          "type": "uint256"
        }
      ],
      "stateMutability": "view",
      "type": "function",
      "constant": true
    },
    {
      "inputs": [
        {
          "internalType": "string",
          "name": "",
          "type": "string"
        }
      ],
      "name": "issuePins",
      "outputs": [
        {
          "internalType": "uint256",
          "name": "",
          "type": "uint256"
        }
      ],
      "stateMutability": "view",
      "type": "function",
      "constant": true
    },
    {
      "inputs": [
        {
          "internalType": "string",
          "name": "",
          "type": "string"
        }
      ],
      "name": "issueStatusByIssueId",
      "outputs": [
        {
          "internalType": "enum Octobay.IssueStatus",
          "name": "",
          "type": "uint8"
        }
      ],
      "stateMutability": "view",
      "type": "function",
      "constant": true
    },
    {
      "inputs": [
        {
          "internalType": "bytes32",
          "name": "",
          "type": "bytes32"
        }
      ],
      "name": "issueWithdrawRequests",
      "outputs": [
        {
          "internalType": "string",
          "name": "issueId",
          "type": "string"
        },
        {
          "internalType": "address",
          "name": "payoutAddress",
          "type": "address"
        }
      ],
      "stateMutability": "view",
      "type": "function",
      "constant": true
    },
    {
      "inputs": [
        {
          "internalType": "bytes32",
          "name": "",
          "type": "bytes32"
        }
      ],
      "name": "newGovernanceTokenReqs",
      "outputs": [
        {
          "internalType": "bool",
          "name": "isValue",
          "type": "bool"
        },
        {
          "internalType": "string",
          "name": "githubUserId",
          "type": "string"
        },
        {
          "internalType": "string",
          "name": "name",
          "type": "string"
        },
        {
          "internalType": "string",
          "name": "symbol",
          "type": "string"
        },
        {
          "internalType": "string",
          "name": "projectId",
          "type": "string"
        },
        {
          "internalType": "uint16",
          "name": "newProposalShare",
          "type": "uint16"
        },
        {
          "internalType": "uint16",
          "name": "minQuorum",
          "type": "uint16"
        },
        {
          "internalType": "address",
          "name": "creator",
          "type": "address"
        }
      ],
      "stateMutability": "view",
      "type": "function",
      "constant": true
    },
    {
      "inputs": [],
      "name": "nextIssueDepositId",
      "outputs": [
        {
          "internalType": "uint256",
          "name": "",
          "type": "uint256"
        }
      ],
      "stateMutability": "view",
      "type": "function",
      "constant": true
    },
    {
      "inputs": [],
      "name": "octobayGovNFT",
      "outputs": [
        {
          "internalType": "contract OctobayGovNFT",
          "name": "",
          "type": "address"
        }
      ],
      "stateMutability": "view",
      "type": "function",
      "constant": true
    },
    {
      "inputs": [],
      "name": "octobayGovernor",
      "outputs": [
        {
          "internalType": "contract OctobayGovernor",
          "name": "",
          "type": "address"
        }
      ],
      "stateMutability": "view",
      "type": "function",
      "constant": true
    },
    {
      "inputs": [],
      "name": "oracleStorage",
      "outputs": [
        {
          "internalType": "contract OracleStorage",
          "name": "",
          "type": "address"
        }
      ],
      "stateMutability": "view",
      "type": "function",
      "constant": true
    },
    {
      "inputs": [],
      "name": "ovt",
      "outputs": [
        {
          "internalType": "contract OctobayVisibilityToken",
          "name": "",
          "type": "address"
        }
      ],
      "stateMutability": "view",
      "type": "function",
      "constant": true
    },
    {
      "inputs": [],
      "name": "owner",
      "outputs": [
        {
          "internalType": "address",
          "name": "",
          "type": "address"
        }
      ],
      "stateMutability": "view",
      "type": "function",
      "constant": true
    },
    {
      "inputs": [
        {
          "internalType": "bytes32",
          "name": "",
          "type": "bytes32"
        }
      ],
      "name": "pendingTwitterPostsIssueIds",
      "outputs": [
        {
          "internalType": "string",
          "name": "",
          "type": "string"
        }
      ],
      "stateMutability": "view",
      "type": "function",
      "constant": true
    },
    {
      "inputs": [],
      "name": "renounceOwnership",
      "outputs": [],
      "stateMutability": "nonpayable",
      "type": "function"
    },
    {
      "inputs": [
        {
          "internalType": "address",
          "name": "newOwner",
          "type": "address"
        }
      ],
      "name": "transferOwnership",
      "outputs": [],
      "stateMutability": "nonpayable",
      "type": "function"
    },
    {
      "inputs": [],
      "name": "trustedForwarder",
      "outputs": [
        {
          "internalType": "address",
          "name": "",
          "type": "address"
        }
      ],
      "stateMutability": "view",
      "type": "function",
      "constant": true
    },
    {
      "inputs": [],
      "name": "twitterAccountId",
      "outputs": [
        {
          "internalType": "string",
          "name": "",
          "type": "string"
        }
      ],
      "stateMutability": "view",
      "type": "function",
      "constant": true
    },
    {
      "inputs": [],
      "name": "twitterFollowers",
      "outputs": [
        {
          "internalType": "uint256",
          "name": "",
          "type": "uint256"
        }
      ],
      "stateMutability": "view",
      "type": "function",
      "constant": true
    },
    {
      "inputs": [
        {
          "internalType": "bytes32",
          "name": "",
          "type": "bytes32"
        }
      ],
      "name": "userAddressRegistrations",
      "outputs": [
        {
          "internalType": "string",
          "name": "githubUserId",
          "type": "string"
        },
        {
          "internalType": "address",
          "name": "ethAddress",
          "type": "address"
        }
      ],
      "stateMutability": "view",
      "type": "function",
      "constant": true
    },
    {
      "inputs": [],
      "name": "userAddressStorage",
      "outputs": [
        {
          "internalType": "contract UserAddressStorage",
          "name": "",
          "type": "address"
        }
      ],
      "stateMutability": "view",
      "type": "function",
      "constant": true
    },
    {
      "inputs": [
        {
          "internalType": "string",
          "name": "",
          "type": "string"
        }
      ],
      "name": "userClaimAmountByGithbUserId",
      "outputs": [
        {
          "internalType": "uint256",
          "name": "",
          "type": "uint256"
        }
      ],
      "stateMutability": "view",
      "type": "function",
      "constant": true
    },
    {
      "inputs": [
        {
          "internalType": "string",
          "name": "",
          "type": "string"
        },
        {
          "internalType": "uint256",
          "name": "",
          "type": "uint256"
        }
      ],
      "name": "userDepositIdsByGithubUserId",
      "outputs": [
        {
          "internalType": "uint256",
          "name": "",
          "type": "uint256"
        }
      ],
      "stateMutability": "view",
      "type": "function",
      "constant": true
    },
    {
      "inputs": [
        {
          "internalType": "address",
          "name": "",
          "type": "address"
        },
        {
          "internalType": "uint256",
          "name": "",
          "type": "uint256"
        }
      ],
      "name": "userDepositIdsBySender",
      "outputs": [
        {
          "internalType": "uint256",
          "name": "",
          "type": "uint256"
        }
      ],
      "stateMutability": "view",
      "type": "function",
      "constant": true
    },
    {
      "inputs": [
        {
          "internalType": "uint256",
          "name": "",
          "type": "uint256"
        }
      ],
      "name": "userDeposits",
      "outputs": [
        {
          "internalType": "address",
          "name": "from",
          "type": "address"
        },
        {
          "internalType": "uint256",
          "name": "amount",
          "type": "uint256"
        },
        {
          "internalType": "string",
          "name": "githubUserId",
          "type": "string"
        }
      ],
      "stateMutability": "view",
      "type": "function",
      "constant": true
    },
    {
      "inputs": [],
      "name": "versionRecipient",
      "outputs": [
        {
          "internalType": "string",
          "name": "",
          "type": "string"
        }
      ],
      "stateMutability": "view",
      "type": "function",
      "constant": true
    },
    {
      "inputs": [
        {
          "internalType": "string",
          "name": "_accountId",
          "type": "string"
        }
      ],
      "name": "setTwitterAccountId",
      "outputs": [],
      "stateMutability": "nonpayable",
      "type": "function"
    },
    {
      "inputs": [
        {
          "internalType": "string",
          "name": "_issueId",
          "type": "string"
        },
        {
          "internalType": "uint256",
          "name": "_amount",
          "type": "uint256"
        }
      ],
      "name": "pinIssue",
      "outputs": [],
      "stateMutability": "nonpayable",
      "type": "function"
    },
    {
      "inputs": [
        {
          "internalType": "address",
          "name": "_forwarder",
          "type": "address"
        }
      ],
      "name": "setTrustedForwarder",
      "outputs": [],
      "stateMutability": "nonpayable",
      "type": "function"
    },
    {
      "inputs": [
        {
          "internalType": "address",
          "name": "_userAddressStorage",
          "type": "address"
        }
      ],
      "name": "setUserAddressStorage",
      "outputs": [],
      "stateMutability": "nonpayable",
      "type": "function"
    },
    {
      "inputs": [
        {
          "internalType": "address",
          "name": "_oracleStorage",
          "type": "address"
        }
      ],
      "name": "setOracleStorage",
      "outputs": [],
      "stateMutability": "nonpayable",
      "type": "function"
    },
    {
      "inputs": [
        {
          "internalType": "address",
          "name": "_ovt",
          "type": "address"
        }
      ],
      "name": "setOctobayVisibilityToken",
      "outputs": [],
      "stateMutability": "nonpayable",
      "type": "function"
    },
    {
      "inputs": [
        {
          "internalType": "address",
          "name": "_octobayGovernor",
          "type": "address"
        }
      ],
      "name": "setOctobayGovernor",
      "outputs": [],
      "stateMutability": "nonpayable",
      "type": "function"
    },
    {
      "inputs": [
        {
          "internalType": "address",
          "name": "_ethUSDPriceFeed",
          "type": "address"
        }
      ],
      "name": "setEthUSDPriceFeed",
      "outputs": [],
      "stateMutability": "nonpayable",
      "type": "function"
    },
    {
      "inputs": [
        {
          "internalType": "address",
          "name": "_octobayGovNFT",
          "type": "address"
        }
      ],
      "name": "setOctobayGovNFT",
      "outputs": [],
      "stateMutability": "nonpayable",
      "type": "function"
    },
    {
      "inputs": [
        {
          "internalType": "address",
          "name": "_oracle",
          "type": "address"
        },
        {
          "internalType": "string",
          "name": "_name",
          "type": "string"
        },
        {
          "internalType": "string[]",
          "name": "_jobNames",
          "type": "string[]"
        },
        {
          "components": [
            {
              "internalType": "bytes32",
              "name": "id",
              "type": "bytes32"
            },
            {
              "internalType": "uint256",
              "name": "fee",
              "type": "uint256"
            }
          ],
          "internalType": "struct OracleStorage.Job[]",
          "name": "_jobs",
          "type": "tuple[]"
        }
      ],
      "name": "addOracle",
      "outputs": [],
      "stateMutability": "nonpayable",
      "type": "function"
    },
    {
      "inputs": [
        {
          "internalType": "address",
          "name": "_oracle",
          "type": "address"
        }
      ],
      "name": "removeOracle",
      "outputs": [],
      "stateMutability": "nonpayable",
      "type": "function"
    },
    {
      "inputs": [
        {
          "internalType": "address",
          "name": "_oracle",
          "type": "address"
        },
        {
          "internalType": "string",
          "name": "_name",
          "type": "string"
        }
      ],
      "name": "changeOracleName",
      "outputs": [],
      "stateMutability": "nonpayable",
      "type": "function"
    },
    {
      "inputs": [
        {
          "internalType": "address",
          "name": "_oracle",
          "type": "address"
        },
        {
          "internalType": "string",
          "name": "_jobName",
          "type": "string"
        },
        {
          "components": [
            {
              "internalType": "bytes32",
              "name": "id",
              "type": "bytes32"
            },
            {
              "internalType": "uint256",
              "name": "fee",
              "type": "uint256"
            }
          ],
          "internalType": "struct OracleStorage.Job",
          "name": "_job",
          "type": "tuple"
        }
      ],
      "name": "addOracleJob",
      "outputs": [],
      "stateMutability": "nonpayable",
      "type": "function"
    },
    {
      "inputs": [
        {
          "internalType": "address",
          "name": "_oracle",
          "type": "address"
        },
        {
          "internalType": "string",
          "name": "_jobName",
          "type": "string"
        }
      ],
      "name": "removeOracleJob",
      "outputs": [],
      "stateMutability": "nonpayable",
      "type": "function"
    },
    {
      "inputs": [
        {
          "internalType": "address",
          "name": "_octobayPaymaster",
          "type": "address"
        }
      ],
      "name": "setPaymaster",
      "outputs": [],
      "stateMutability": "nonpayable",
      "type": "function"
    },
    {
      "inputs": [
        {
          "internalType": "string",
          "name": "_githubUserId",
          "type": "string"
        },
        {
          "internalType": "uint256",
          "name": "_amount",
          "type": "uint256"
        }
      ],
      "name": "deductGasFee",
      "outputs": [],
      "stateMutability": "nonpayable",
      "type": "function"
    },
    {
      "inputs": [
        {
          "internalType": "address",
          "name": "_oracle",
          "type": "address"
        },
        {
          "internalType": "string",
          "name": "_githubUserId",
          "type": "string"
        }
      ],
      "name": "registerUserAddress",
      "outputs": [
        {
          "internalType": "bytes32",
          "name": "requestId",
          "type": "bytes32"
        }
      ],
      "stateMutability": "nonpayable",
      "type": "function"
    },
    {
      "inputs": [
        {
          "internalType": "bytes32",
          "name": "_requestId",
          "type": "bytes32"
        },
        {
          "internalType": "bytes32",
          "name": "_addressName",
          "type": "bytes32"
        }
      ],
      "name": "confirmRegisterUserAddress",
      "outputs": [],
      "stateMutability": "nonpayable",
      "type": "function"
    },
    {
      "inputs": [
        {
          "internalType": "string",
          "name": "_githubUserId",
          "type": "string"
        }
      ],
      "name": "depositEthForGithubUser",
      "outputs": [],
      "stateMutability": "payable",
      "type": "function",
      "payable": true
    },
    {
      "inputs": [
        {
          "internalType": "uint256",
          "name": "_depositId",
          "type": "uint256"
        }
      ],
      "name": "refundUserDeposit",
      "outputs": [],
      "stateMutability": "nonpayable",
      "type": "function"
    },
    {
      "inputs": [
        {
          "internalType": "uint256",
          "name": "_depositId",
          "type": "uint256"
        }
      ],
      "name": "withdrawUserDeposit",
      "outputs": [],
      "stateMutability": "nonpayable",
      "type": "function"
    },
    {
      "inputs": [
        {
          "internalType": "string",
          "name": "_issueId",
          "type": "string"
        },
        {
          "internalType": "address",
          "name": "_govTokenAddress",
          "type": "address"
        },
        {
          "internalType": "string",
          "name": "_projectId",
          "type": "string"
        }
      ],
      "name": "depositAndSetGovTokenForIssue",
      "outputs": [],
      "stateMutability": "nonpayable",
      "type": "function"
    },
    {
      "inputs": [
        {
          "internalType": "string",
          "name": "_issueId",
          "type": "string"
        },
        {
          "internalType": "address",
          "name": "_govTokenAddress",
          "type": "address"
        },
        {
          "internalType": "string",
          "name": "_projectId",
          "type": "string"
        }
      ],
      "name": "setGovTokenForIssue",
      "outputs": [],
      "stateMutability": "nonpayable",
      "type": "function"
    },
    {
      "inputs": [
        {
          "internalType": "string",
          "name": "_issueId",
          "type": "string"
        }
      ],
      "name": "depositEthForIssue",
      "outputs": [],
      "stateMutability": "payable",
      "type": "function",
      "payable": true
    },
    {
      "inputs": [
        {
          "internalType": "uint256",
          "name": "_depositId",
          "type": "uint256"
        }
      ],
      "name": "refundIssueDeposit",
      "outputs": [],
      "stateMutability": "nonpayable",
      "type": "function"
    },
    {
      "inputs": [
        {
          "internalType": "address",
          "name": "_oracle",
          "type": "address"
        },
        {
          "internalType": "string",
          "name": "_issueId",
          "type": "string"
        }
      ],
      "name": "withdrawIssueDeposit",
      "outputs": [
        {
          "internalType": "bytes32",
          "name": "requestId",
          "type": "bytes32"
        }
      ],
      "stateMutability": "nonpayable",
      "type": "function"
    },
    {
      "inputs": [
        {
          "internalType": "bytes32",
          "name": "_requestId",
          "type": "bytes32"
        }
      ],
      "name": "confirmWithdrawIssueDeposit",
      "outputs": [],
      "stateMutability": "nonpayable",
      "type": "function"
    },
    {
      "inputs": [
        {
          "internalType": "address",
          "name": "_oracle",
          "type": "address"
        },
        {
          "components": [
            {
              "internalType": "bool",
              "name": "isValue",
              "type": "bool"
            },
            {
              "internalType": "string",
              "name": "githubUserId",
              "type": "string"
            },
            {
              "internalType": "string",
              "name": "name",
              "type": "string"
            },
            {
              "internalType": "string",
              "name": "symbol",
              "type": "string"
            },
            {
              "internalType": "string",
              "name": "projectId",
              "type": "string"
            },
            {
              "internalType": "uint16",
              "name": "newProposalShare",
              "type": "uint16"
            },
            {
              "internalType": "uint16",
              "name": "minQuorum",
              "type": "uint16"
            },
            {
              "internalType": "address",
              "name": "creator",
              "type": "address"
            }
          ],
          "internalType": "struct Octobay.NewGovernanceToken",
          "name": "_newToken",
          "type": "tuple"
        }
      ],
      "name": "createGovernanceToken",
      "outputs": [
        {
          "internalType": "bytes32",
          "name": "requestId",
          "type": "bytes32"
        }
      ],
      "stateMutability": "nonpayable",
      "type": "function"
    },
    {
      "inputs": [
        {
          "internalType": "bytes32",
          "name": "_requestId",
          "type": "bytes32"
        },
        {
          "internalType": "bool",
          "name": "_result",
          "type": "bool"
        }
      ],
      "name": "confirmCreateGovernanceToken",
      "outputs": [],
      "stateMutability": "nonpayable",
      "type": "function"
    },
    {
      "inputs": [
        {
          "internalType": "address",
          "name": "_tokenAddress",
          "type": "address"
        },
        {
          "internalType": "string",
          "name": "_projectId",
          "type": "string"
        },
        {
          "internalType": "string",
          "name": "_discussionId",
          "type": "string"
        },
        {
          "internalType": "uint256",
          "name": "_startDate",
          "type": "uint256"
        },
        {
          "internalType": "uint256",
          "name": "_endDate",
          "type": "uint256"
        },
        {
          "internalType": "uint16",
          "name": "_quorum",
          "type": "uint16"
        }
      ],
      "name": "createProposal",
      "outputs": [],
      "stateMutability": "nonpayable",
      "type": "function"
    },
    {
      "inputs": [
        {
          "internalType": "string",
          "name": "_githubUserId",
          "type": "string"
        }
      ],
      "name": "getUserDepositIdsForGithubUserId",
      "outputs": [
        {
          "internalType": "uint256[]",
          "name": "",
          "type": "uint256[]"
        }
      ],
      "stateMutability": "view",
      "type": "function",
      "constant": true
    },
    {
      "inputs": [],
      "name": "getUserDepositIdsForSender",
      "outputs": [
        {
          "internalType": "uint256[]",
          "name": "",
          "type": "uint256[]"
        }
      ],
      "stateMutability": "view",
      "type": "function",
      "constant": true
    },
    {
      "inputs": [
        {
          "internalType": "string",
          "name": "_issueId",
          "type": "string"
        }
      ],
      "name": "getIssueDepositIdsForIssueId",
      "outputs": [
        {
          "internalType": "uint256[]",
          "name": "",
          "type": "uint256[]"
        }
      ],
      "stateMutability": "view",
      "type": "function",
      "constant": true
    },
    {
      "inputs": [],
      "name": "getIssueDepositIdsForSender",
      "outputs": [
        {
          "internalType": "uint256[]",
          "name": "",
          "type": "uint256[]"
        }
      ],
      "stateMutability": "view",
      "type": "function",
      "constant": true
    },
    {
      "inputs": [
        {
          "internalType": "string",
          "name": "_githubUserId",
          "type": "string"
        }
      ],
      "name": "getUserClaimAmount",
      "outputs": [
        {
          "internalType": "uint256",
          "name": "",
          "type": "uint256"
        }
      ],
      "stateMutability": "view",
      "type": "function",
      "constant": true
    }
  ],
  "bytecode": "0x6001600590815560c06040526080819052640322e302e360dc1b60a09081526200002d9160109190620001d7565b5060006014556000601a553480156200004557600080fd5b5060405162005d7e38038062005d7e833981016040819052620000689162000291565b6000620000746200014c565b600080546001600160a01b0319166001600160a01b0383169081178255604051929350917f8be0079c531659141344cd1fd0a4f28419497f9722a3daafe3b4186f6b6457e0908290a350620000c98862000169565b600780546001600160a01b03199081166001600160a01b03998a161790915560118054821696891696909617909555600e805486169488169490941790935560098054851695871695909517909455602180548416918616919091179055600d805483169385169390931790925560188054909116919092161790555062000340565b6000620001636200018b60201b620039461760201c565b90505b90565b600380546001600160a01b0319166001600160a01b0392909216919091179055565b600060183610801590620001a55750620001a533620001c3565b15620001bb575060131936013560601c62000166565b503362000166565b6007546001600160a01b0390811691161490565b828054600181600116156101000203166002900490600052602060002090601f016020900481019282601f106200021a57805160ff19168380011785556200024a565b828001600101855582156200024a579182015b828111156200024a5782518255916020019190600101906200022d565b50620002589291506200025c565b5090565b5b808211156200025857600081556001016200025d565b80516001600160a01b03811681146200028b57600080fd5b92915050565b600080600080600080600080610100898b031215620002ae578384fd5b620002ba8a8a62000273565b9750620002cb8a60208b0162000273565b9650620002dc8a60408b0162000273565b9550620002ed8a60608b0162000273565b9450620002fe8a60808b0162000273565b93506200030f8a60a08b0162000273565b9250620003208a60c08b0162000273565b9150620003318a60e08b0162000273565b90509295985092959890939650565b615a2e80620003506000396000f3fe6080604052600436106103425760003560e01c806364701750116101b2578063b910b633116100ed578063f16b41f411610090578063f16b41f414610a40578063f224f90214610a60578063f2fde38b14610a80578063f4b90ef714610aa0578063f63e8c7014610ab3578063f831eaa414610ac8578063fb95354a14610ae8578063fdc85fc414610afd57610342565b8063b910b63314610947578063c315fbca1461095c578063c4f59d631461097c578063cf5f5f4614610991578063d224784d146109b1578063d792efae146109e0578063da74222814610a00578063e5c5994814610a2057610342565b80638d6ec921116101555780638d6ec921146108565780638da5cb5b14610876578063924718a61461088b578063968ad381146108ab5780639996f186146108df578063a9d2facd146108f2578063b0903a2f14610907578063b26785c21461092757610342565b8063647017501461076a5780636a6ab0e91461078a5780636ed3aa42146107b7578063715018a6146107d75780637da0a877146107ec57806384f8f644146108015780638617fc4614610821578063886c3c891461084157610342565b8063486ff0cd11610282578063583d789b11610225578063583d789b14610680578063590b5970146106a0578063595670b3146106b55780635b45ceca146106ca5780635f38dace146106ea5780635ff3a19a1461070a57806360445fb21461072a57806361e421d51461074a57610342565b8063486ff0cd1461058957806348f927871461059e57806350aea559146105b3578063532f1325146105d3578063546075da146105f3578063554d108a14610613578063572b6c0514610633578063576088571461066057610342565b80632a97fa77116102ea5780632a97fa77146104795780632bbba33614610499578063420acf3c146104b9578063422c546b146104d957806342aaf11b14610507578063454d05541461052757806345ae77171461054957806348297f591461056957610342565b806283cf111461034757806304405fa914610369578063056444df1461039f578063113d4134146103bf57806313fd21ce146103df57806317c486f11461040c5780631c2a01e11461042c5780632512be931461044c575b600080fd5b34801561035357600080fd5b506103676103623660046149b2565b610b1d565b005b34801561037557600080fd5b50610389610384366004614be5565b61107b565b6040516103969190615378565b60405180910390f35b3480156103ab57600080fd5b506103676103ba366004614789565b6110b8565b3480156103cb57600080fd5b506103896103da366004614a41565b6110f2565b3480156103eb57600080fd5b506103ff6103fa36600461499a565b61111e565b60405161039691906153a9565b34801561041857600080fd5b50610389610427366004614b4a565b6111b9565b34801561043857600080fd5b50610367610447366004614a80565b6111d6565b34801561045857600080fd5b5061046c610467366004614b4a565b611499565b6040516103969190614e62565b34801561048557600080fd5b506103676104943660046145c9565b6114bf565b3480156104a557600080fd5b506103676104b4366004614724565b611516565b3480156104c557600080fd5b506103676104d43660046149e1565b6115b9565b3480156104e557600080fd5b506104f96104f436600461499a565b6116cd565b6040516103969291906153bc565b34801561051357600080fd5b506103676105223660046145e5565b61177d565b34801561053357600080fd5b5061053c61181d565b60405161039691906152a0565b34801561055557600080fd5b506103896105643660046145e5565b61187f565b34801561057557600080fd5b50610367610584366004614637565b611c87565b34801561059557600080fd5b506103ff611d2d565b3480156105aa57600080fd5b506103ff611d88565b3480156105bf57600080fd5b5061053c6105ce366004614a41565b611de3565b3480156105df57600080fd5b506103676105ee3660046145c9565b611e56565b3480156105ff57600080fd5b5061036761060e366004614b01565b611ead565b34801561061f57600080fd5b5061036761062e36600461499a565b611f33565b34801561063f57600080fd5b5061065361064e3660046145c9565b612165565b60405161039691906152e4565b34801561066c57600080fd5b5061038961067b36600461481f565b61217c565b34801561068c57600080fd5b5061036761069b3660046145e5565b612503565b3480156106ac57600080fd5b5061046c61256c565b3480156106c157600080fd5b5061038961257b565b3480156106d657600080fd5b506103676106e53660046145c9565b612581565b3480156106f657600080fd5b506104f961070536600461499a565b6125d8565b34801561071657600080fd5b5061053c610725366004614a41565b612642565b34801561073657600080fd5b5061036761074536600461499a565b612656565b34801561075657600080fd5b50610389610765366004614953565b612699565b34801561077657600080fd5b50610389610785366004614953565b6126b2565b34801561079657600080fd5b506107aa6107a5366004614b4a565b6126cb565b6040516103969190615381565b3480156107c357600080fd5b506103676107d23660046145c9565b6126eb565b3480156107e357600080fd5b50610367612742565b3480156107f857600080fd5b5061046c6127c1565b34801561080d57600080fd5b5061036761081c366004614be5565b6127d0565b34801561082d57600080fd5b5061036761083c36600461499a565b61287f565b34801561084d57600080fd5b5061046c612a04565b34801561086257600080fd5b50610367610871366004614b4a565b612a13565b34801561088257600080fd5b5061046c612a64565b34801561089757600080fd5b506103676108a6366004614a80565b612a73565b3480156108b757600080fd5b506108cb6108c636600461499a565b612a8a565b6040516103969897969594939291906152ef565b6103676108ed366004614a41565b612d13565b3480156108fe57600080fd5b5061046c612ea5565b34801561091357600080fd5b506103676109223660046145c9565b612eb4565b34801561093357600080fd5b506103676109423660046145c9565b612f0b565b34801561095357600080fd5b5061046c612f62565b34801561096857600080fd5b5061036761097736600461499a565b612f71565b34801561098857600080fd5b5061046c613044565b34801561099d57600080fd5b506103896109ac366004614b4a565b613053565b3480156109bd57600080fd5b506109d16109cc36600461499a565b613070565b60405161039693929190615279565b3480156109ec57600080fd5b506103676109fb3660046145c9565b613126565b348015610a0c57600080fd5b50610367610a1b3660046145c9565b61317d565b348015610a2c57600080fd5b50610389610a3b3660046145e5565b6131d4565b348015610a4c57600080fd5b506109d1610a5b36600461499a565b6134f9565b348015610a6c57600080fd5b50610389610a7b366004614b4a565b61357a565b348015610a8c57600080fd5b50610367610a9b3660046145c9565b613597565b610367610aae366004614a41565b61364d565b348015610abf57600080fd5b50610389613826565b348015610ad457600080fd5b50610389610ae3366004614be5565b61382c565b348015610af457600080fd5b5061053c613854565b348015610b0957600080fd5b50610367610b183660046145c9565b6138b3565b60008281526006602052604090205482906001600160a01b03163314610b5e5760405162461bcd60e51b8152600401610b5590615883565b60405180910390fd5b60008181526006602052604080822080546001600160a01b03191690555182916000805160206159d983398151915291a281610bac5760405162461bcd60e51b8152600401610b5590615630565b610bb46142a1565b60008481526022602090815260409182902082516101008082018552825460ff1615158252600180840180548751600293821615909402600019011691909104601f8101869004860283018601909652858252919492938581019391929190830182828015610c645780601f10610c3957610100808354040283529160200191610c64565b820191906000526020600020905b815481529060010190602001808311610c4757829003601f168201915b5050509183525050600282810180546040805160206001841615610100026000190190931694909404601f81018390048302850183019091528084529381019390830182828015610cf65780601f10610ccb57610100808354040283529160200191610cf6565b820191906000526020600020905b815481529060010190602001808311610cd957829003601f168201915b505050918352505060038201805460408051602060026001851615610100026000190190941693909304601f8101849004840282018401909252818152938201939291830182828015610d8a5780601f10610d5f57610100808354040283529160200191610d8a565b820191906000526020600020905b815481529060010190602001808311610d6d57829003601f168201915b505050918352505060048201805460408051602060026001851615610100026000190190941693909304601f8101849004840282018401909252818152938201939291830182828015610e1e5780601f10610df357610100808354040283529160200191610e1e565b820191906000526020600020905b815481529060010190602001808311610e0157829003601f168201915b50505091835250506005919091015461ffff808216602084015262010000820416604083015264010000000090046001600160a01b03166060909101528051909150610e7c5760405162461bcd60e51b8152600401610b55906156fd565b6000848152602260205260408120805460ff1916815590610ea060018301826142f9565b610eae6002830160006142f9565b610ebc6003830160006142f9565b610eca6004830160006142f9565b5060050180546001600160c01b0319169055602154608082015160a083015160c084015160408086015160608701519151633afcfa0b60e11b81526000966001600160a01b0316956375f9f41695610f2a959194909391926004016153e6565b602060405180830381600087803b158015610f4457600080fd5b505af1158015610f58573d6000803e3d6000fd5b505050506040513d601f19601f82011682018060405250810190610f7c9190614a25565b60185460e0840151608085015160405163c94e4df560e01b81529394506000936001600160a01b039093169263c94e4df592610fbe92909187906004016150c0565b602060405180830381600087803b158015610fd857600080fd5b505af1158015610fec573d6000803e3d6000fd5b505050506040513d601f19601f820116820180604052508101906110109190614c27565b60185460405163e483abaf60e01b81529192506001600160a01b03169063e483abaf90611041908490600401615378565b600060405180830381600087803b15801561105b57600080fd5b505af115801561106f573d6000803e3d6000fd5b50505050505050505050565b8151602081840181018051601b8252928201918501919091209190528054829081106110a357fe5b90600052602060002001600091509150505481565b60215460405163056444df60e01b81526001600160a01b039091169063056444df90611041908990899089908990899089906004016150f5565b600060138383604051611106929190614e36565b90815260200160405180910390205490505b92915050565b600c6020908152600091825260409182902080548351601f6002600019610100600186161502019093169290920491820184900484028101840190945280845290918301828280156111b15780601f10611186576101008083540402835291602001916111b1565b820191906000526020600020905b81548152906001019060200180831161119457829003601f168201915b505050505081565b8051602081830181018051601d8252928201919093012091525481565b6000601e86866040516111ea929190614e36565b9081526040519081900360200190205460ff16600181111561120857fe5b146112255760405162461bcd60e51b8152600401610b5590615820565b6021546040516331f5934360e11b81526001600160a01b038086169216906363eb2686906112599086908690600401615395565b60206040518083038186803b15801561127157600080fd5b505afa158015611285573d6000803e3d6000fd5b505050506040513d601f19601f820116820180604052508101906112a99190614a25565b6001600160a01b0316146112cf5760405162461bcd60e51b8152600401610b55906154ee565b601854604051635a47d15760e11b815260009182916001600160a01b039091169063b48fa2ae9061130890339088908890600401614e76565b60206040518083038186803b15801561132057600080fd5b505afa158015611334573d6000803e3d6000fd5b505050506040513d601f19601f820116820180604052508101906113589190614c27565b905080158015906113e7575060185460405163ceb0d74760e01b81526001600160a01b039091169063ceb0d747906113979084906002906004016158f7565b60206040518083038186803b1580156113af57600080fd5b505afa1580156113c3573d6000803e3d6000fd5b505050506040513d601f19601f820116820180604052508101906113e7919061497e565b156113f157600191505b8161140e5760405162461bcd60e51b8152600401610b559061575b565b84601f8888604051611421929190614e36565b90815260405190819003602001812080546001600160a01b03939093166001600160a01b0319909316929092179091557fc82436870110d88ae48acbdbd49a266bab91ea504cac8d1fae116b327400916d906114889033908a908a908a908a908a90614e9b565b60405180910390a150505050505050565b8051602081830181018051601f825292820191909301209152546001600160a01b031681565b6114c7613978565b6000546001600160a01b039081169116146114f45760405162461bcd60e51b8152600401610b5590615726565b600f80546001600160a01b0319166001600160a01b0392909216919091179055565b61151e613978565b6000546001600160a01b0390811691161461154b5760405162461bcd60e51b8152600401610b5590615726565b600e546040516315ddd19b60e11b81526001600160a01b0390911690632bbba33690611581908790879087908790600401615068565b600060405180830381600087803b15801561159b57600080fd5b505af11580156115af573d6000803e3d6000fd5b5050505050505050565b60008281526006602052604090205482906001600160a01b031633146115f15760405162461bcd60e51b8152600401610b5590615883565b60008181526006602052604080822080546001600160a01b03191690555182916000805160206159d983398151915291a26011546000848152601260205260409081902060018101549151632625cd2960e21b81526001600160a01b039384169363989734a49361166b939288929091169060040161546b565b600060405180830381600087803b15801561168557600080fd5b505af1158015611699573d6000803e3d6000fd5b505050600084815260126020526040812091506116b682826142f9565b5060010180546001600160a01b0319169055505050565b60126020908152600091825260409182902080548351601f600260001961010060018616150201909316929092049182018490048402810184019094528084529092918391908301828280156117645780601f1061173957610100808354040283529160200191611764565b820191906000526020600020905b81548152906001019060200180831161174757829003601f168201915b505050600190930154919250506001600160a01b031682565b611785613978565b6000546001600160a01b039081169116146117b25760405162461bcd60e51b8152600401610b5590615726565b600e546040516342aaf11b60e01b81526001600160a01b03909116906342aaf11b906117e690869086908690600401614e76565b600060405180830381600087803b15801561180057600080fd5b505af1158015611814573d6000803e3d6000fd5b50505050505050565b3360009081526017602090815260409182902080548351818402810184019094528084526060939283018282801561187457602002820191906000526020600020905b815481526020019060010190808311611860575b505050505090505b90565b6040805180820182526005815264636c61696d60d81b6020820152600e549151637f7207c360e11b81526000928692916001600160a01b039091169063fee40f86906118cf908590600401614e62565b60206040518083038186803b1580156118e757600080fd5b505afa1580156118fb573d6000803e3d6000fd5b505050506040513d601f19601f8201168201806040525081019061191f919061497e565b61193b5760405162461bcd60e51b8152600401610b5590615577565b600e54604051639dd1e44b60e01b81526001600160a01b0390911690639dd1e44b9061196d908590859060040161509c565b60206040518083038186803b15801561198557600080fd5b505afa158015611999573d6000803e3d6000fd5b505050506040513d601f19601f820116820180604052508101906119bd919061497e565b6119d95760405162461bcd60e51b8152600401610b559061584c565b6000601e86866040516119ed929190614e36565b9081526040519081900360200190205460ff166001811115611a0b57fe5b14611a285760405162461bcd60e51b8152600401610b5590615820565b600e54604051632ed20a2960e21b815260009182916001600160a01b039091169063bb4828a490611a5d908b90600401615189565b604080518083038186803b158015611a7457600080fd5b505afa158015611a88573d6000803e3d6000fd5b505050506040513d601f19601f82011682018060405250810190611aac9190614a02565b91509150611ab861433d565b611aca8330632aa6884560e11b613987565b604080518082018252600c81526b19da5d1a1d58955cd95c925960a21b6020820152601154915163c155f9bd60e01b8152929350611b7e9290916001600160a01b03169063c155f9bd90611b22903390600401614e62565b60006040518083038186803b158015611b3a57600080fd5b505afa158015611b4e573d6000803e3d6000fd5b505050506040513d6000823e601f3d908101601f19168201604052611b769190810190614b7c565b8391906139ac565b611be1604051806040016040528060078152602001661a5cdcdd59525960ca1b81525089898080601f0160208091040260200160405190810160405280939291908181526020018383808284376000920191909152508694939250506139ac9050565b611bec8982846139ca565b6040805160606020601f8c01819004028201810183529181018a81529298509182918b908b908190850183828082843760009201829052509385525050336020938401525088815281805260409020825180519192611c5092849290910190614372565b5060209190910151600190910180546001600160a01b0319166001600160a01b039092169190911790555093979650505050505050565b611c8f613978565b6000546001600160a01b03908116911614611cbc5760405162461bcd60e51b8152600401610b5590615726565b600e546040516348297f5960e01b81526001600160a01b03909116906348297f5990611cf49088908890889088908890600401614fa4565b600060405180830381600087803b158015611d0e57600080fd5b505af1158015611d22573d6000803e3d6000fd5b505050505050505050565b6010805460408051602060026001851615610100026000190190941693909304601f810184900484028201840190925281815292918301828280156111b15780601f10611186576101008083540402835291602001916111b1565b600a805460408051602060026001851615610100026000190190941693909304601f810184900484028201840190925281815292918301828280156111b15780601f10611186576101008083540402835291602001916111b1565b6060601b8383604051611df7929190614e36565b9081526040805191829003602090810183208054808302850183019093528284529190830182828015611e4957602002820191906000526020600020905b815481526020019060010190808311611e35575b5050505050905092915050565b611e5e613978565b6000546001600160a01b03908116911614611e8b5760405162461bcd60e51b8152600401610b5590615726565b600e80546001600160a01b0319166001600160a01b0392909216919091179055565b600f546001600160a01b03163314611ec457600080fd5b8060138484604051611ed7929190614e36565b9081526020016040518091039020541015611f045760405162461bcd60e51b8152600401610b55906156c6565b8060138484604051611f17929190614e36565b9081526040519081900360200190208054919091039055505050565b60008181526006602052604090205481906001600160a01b03163314611f6b5760405162461bcd60e51b8152600401610b5590615883565b60008181526006602052604080822080546001600160a01b03191690555182916000805160206159d983398151915291a260008281526020805260409020600101546001600160a01b0316611fbf57600080fd5b6000828152602080526040808220600181015491516001600160a01b039092169291601d91611fed91614e08565b9081526040805160209281900383018120546000888152938052918320919350601d9161201991614e08565b90815260408051602092819003830181209390935560008781529180529020600191601e9161204791614e08565b908152604051908190036020019020805460ff19166001838181111561206957fe5b02179055506120b68282601f602060008981526020019081526020016000206000016040516120989190614e08565b908152604051908190036020019020546001600160a01b0316613b09565b60008481526020805260409081902090517fdc0861bad4be5f3f068f6252a7b985acb7fd378990006b92d20855b3d25340e3916120f6918590859061543d565b60405180910390a1600084815260208052604081209061211682826142f9565b5060010180546001600160a01b03191690556040516001600160a01b0383169082156108fc029083906000818181858888f1935050505015801561215e573d6000803e3d6000fd5b5050505050565b6007546001600160a01b038281169116145b919050565b604080518082018252600f81526e0636865636b2d6f776e65727368697608c1b6020820152600e549151637f7207c360e11b81526000928592916001600160a01b039091169063fee40f86906121d6908590600401614e62565b60206040518083038186803b1580156121ee57600080fd5b505afa158015612202573d6000803e3d6000fd5b505050506040513d601f19601f82011682018060405250810190612226919061497e565b6122425760405162461bcd60e51b8152600401610b5590615577565b600e54604051639dd1e44b60e01b81526001600160a01b0390911690639dd1e44b90612274908590859060040161509c565b60206040518083038186803b15801561228c57600080fd5b505afa1580156122a0573d6000803e3d6000fd5b505050506040513d601f19601f820116820180604052508101906122c4919061497e565b6122e05760405162461bcd60e51b8152600401610b559061584c565b600e54604051632ed20a2960e21b815260009182916001600160a01b039091169063bb4828a490612315908a9060040161514e565b604080518083038186803b15801561232c57600080fd5b505afa158015612340573d6000803e3d6000fd5b505050506040513d601f19601f820116820180604052508101906123649190614a02565b9150915061237061433d565b61238183306283cf1160e01b613987565b90506123c06040518060400160405280600c81526020016b19da5d1a1d58955cd95c925960a21b8152508860200151836139ac9092919063ffffffff16565b6040805180820190915260098152681c995c1bd3dc99d25960ba1b602082015260808801516123f09183916139ac565b6123fb8882846139ca565b3360e089015260008181526022602090815260409091208951815460ff1916901515178155818a015180519399508a93919261243f92600185019290910190614372565b506040820151805161245b916002840191602090910190614372565b5060608201518051612477916003840191602090910190614372565b5060808201518051612493916004840191602090910190614372565b5060a0820151600591909101805460c084015160e09094015161ffff1990911661ffff9384161763ffff0000191662010000939094169290920292909217640100000000600160c01b0319166401000000006001600160a01b039092169190910217905550939695505050505050565b61250b613978565b6000546001600160a01b039081169116146125385760405162461bcd60e51b8152600401610b5590615726565b600e5460405163583d789b60e01b81526001600160a01b039091169063583d789b906117e690869086908690600401614e76565b6009546001600160a01b031681565b600b5481565b612589613978565b6000546001600160a01b039081169116146125b65760405162461bcd60e51b8152600401610b5590615726565b602180546001600160a01b0319166001600160a01b0392909216919091179055565b6020808052600091825260409182902080548351601f600260001961010060018616150201909316929092049182018490048402810184019094528084529092918391908301828280156117645780601f1061173957610100808354040283529160200191611764565b606060168383604051611df7929190614e36565b6000818152601560205260409020546001600160a01b0316331461268c5760405162461bcd60e51b8152600401610b559061549e565b6126968133613c8d565b50565b601c60205281600052604060002081815481106110a357fe5b601760205281600052604060002081815481106110a357fe5b8051602081830181018051601e8252928201919093012091525460ff1681565b6126f3613978565b6000546001600160a01b039081169116146127205760405162461bcd60e51b8152600401610b5590615726565b601180546001600160a01b0319166001600160a01b0392909216919091179055565b61274a613978565b6000546001600160a01b039081169116146127775760405162461bcd60e51b8152600401610b5590615726565b600080546040516001600160a01b03909116907f8be0079c531659141344cd1fd0a4f28419497f9722a3daafe3b4186f6b6457e0908390a3600080546001600160a01b0319169055565b6007546001600160a01b031681565b600081116127f05760405162461bcd60e51b8152600401610b5590615540565b600954604051632770a7eb60e21b81526001600160a01b0390911690639dc29fac906128229033908590600401614ee7565b600060405180830381600087803b15801561283c57600080fd5b505af1158015612850573d6000803e3d6000fd5b50505050806008836040516128659190614e46565b908152604051908190036020019020805490910190555050565b6000818152601960205260409020546001600160a01b031633146128b55760405162461bcd60e51b8152600401610b55906157b8565b6000818152601960205260408082209051601e916128d891600290910190614e08565b9081526040519081900360200190205460ff1660018111156128f657fe5b146129135760405162461bcd60e51b8152600401610b5590615820565b60008181526019602052604090819020600181015491518291601d9161293c9160020190614e08565b90815260408051602092819003830181208054949094039093556000858152601990925290207fd0bcb4e3e011748e643741274f157a3c2810a6655d5df0ff9aa8a27880dae495916129979133918591600201908790614f6c565b60405180910390a1600082815260196020526040812080546001600160a01b031916815560018101829055906129d060028301826142f9565b5050604051339082156108fc029083906000818181858888f193505050501580156129ff573d6000803e3d6000fd5b505050565b600e546001600160a01b031681565b612a1b613978565b6000546001600160a01b03908116911614612a485760405162461bcd60e51b8152600401610b5590615726565b8051612a5b90600a906020840190614372565b50506000600b55565b6000546001600160a01b031690565b612a7d858561364d565b61215e85858585856111d6565b6022602090815260009182526040918290208054600180830180548651600261010094831615949094026000190190911692909204601f810186900486028301860190965285825260ff909216949293909290830182828015612b2e5780601f10612b0357610100808354040283529160200191612b2e565b820191906000526020600020905b815481529060010190602001808311612b1157829003601f168201915b50505060028085018054604080516020601f6000196101006001871615020190941695909504928301859004850281018501909152818152959695945090925090830182828015612bc05780601f10612b9557610100808354040283529160200191612bc0565b820191906000526020600020905b815481529060010190602001808311612ba357829003601f168201915b5050505060038301805460408051602060026001851615610100026000190190941693909304601f8101849004840282018401909252818152949594935090830182828015612c505780601f10612c2557610100808354040283529160200191612c50565b820191906000526020600020905b815481529060010190602001808311612c3357829003601f168201915b5050505060048301805460408051602060026001851615610100026000190190941693909304601f8101849004840282018401909252818152949594935090830182828015612ce05780601f10612cb557610100808354040283529160200191612ce0565b820191906000526020600020905b815481529060010190602001808311612cc357829003601f168201915b5050506005909301549192505061ffff80821691620100008104909116906001600160a01b036401000000009091041688565b60003411612d335760405162461bcd60e51b8152600401610b55906158cb565b60148054600101905560408051606081018252338152346020808301919091528251601f8501829004820281018201845284815291928301919085908590819084018382808284376000920182905250939094525050601454815260156020908152604091829020845181546001600160a01b0319166001600160a01b03909116178155848201516001820155918401518051929350612ddc9260028501929190910190614372565b5090505060168282604051612df2929190614e36565b9081526040805191829003602090810183206014805482546001818101855560009485528585209091019190915533835260178452938220905481549485018255908252919020909101553490601390612e4f9085908590614e36565b90815260405190819003602001812080549092019091557f406551011d3a3874d102c2ee25adb004adb6d90a8134f04c14bd02f73ad4a3d090612e99903390349086908690614f00565b60405180910390a15050565b6021546001600160a01b031681565b612ebc613978565b6000546001600160a01b03908116911614612ee95760405162461bcd60e51b8152600401610b5590615726565b601880546001600160a01b0319166001600160a01b0392909216919091179055565b612f13613978565b6000546001600160a01b03908116911614612f405760405162461bcd60e51b8152600401610b5590615726565b600980546001600160a01b0319166001600160a01b0392909216919091179055565b6018546001600160a01b031681565b60115460405163c155f9bd60e01b81526001600160a01b039091169063c155f9bd90612fa1903390600401614e62565b60006040518083038186803b158015612fb957600080fd5b505afa158015612fcd573d6000803e3d6000fd5b505050506040513d6000823e601f3d908101601f19168201604052612ff59190810190614b7c565b805190602001206015600083815260200190815260200160002060020160405161301f9190614e08565b60405180910390201461268c5760405162461bcd60e51b8152600401610b559061567f565b6011546001600160a01b031681565b805160208183018101805160088252928201919093012091525481565b60196020908152600091825260409182902080546001808301546002808501805488516101009582161595909502600019011691909104601f81018790048702840187019097528683526001600160a01b0390931695909491929183018282801561311c5780601f106130f15761010080835404028352916020019161311c565b820191906000526020600020905b8154815290600101906020018083116130ff57829003601f168201915b5050505050905083565b61312e613978565b6000546001600160a01b0390811691161461315b5760405162461bcd60e51b8152600401610b5590615726565b600d80546001600160a01b0319166001600160a01b0392909216919091179055565b613185613978565b6000546001600160a01b039081169116146131b25760405162461bcd60e51b8152600401610b5590615726565b600780546001600160a01b0319166001600160a01b0392909216919091179055565b60408051808201825260088152673932b3b4b9ba32b960c11b6020820152600e549151637f7207c360e11b81526000928692916001600160a01b039091169063fee40f8690613227908590600401614e62565b60206040518083038186803b15801561323f57600080fd5b505afa158015613253573d6000803e3d6000fd5b505050506040513d601f19601f82011682018060405250810190613277919061497e565b6132935760405162461bcd60e51b8152600401610b5590615577565b600e54604051639dd1e44b60e01b81526001600160a01b0390911690639dd1e44b906132c5908590859060040161509c565b60206040518083038186803b1580156132dd57600080fd5b505afa1580156132f1573d6000803e3d6000fd5b505050506040513d601f19601f82011682018060405250810190613315919061497e565b6133315760405162461bcd60e51b8152600401610b559061584c565b600e54604051632ed20a2960e21b815260009182916001600160a01b039091169063bb4828a490613366908b906004016151ba565b604080518083038186803b15801561337d57600080fd5b505afa158015613391573d6000803e3d6000fd5b505050506040513d601f19601f820116820180604052508101906133b59190614a02565b915091506133c161433d565b6133d38330631082b3cf60e21b613987565b905061343d6040518060400160405280600c81526020016b19da5d1a1d58955cd95c925960a21b81525089898080601f0160208091040260200160405190810160405280939291908181526020018383808284376000920191909152508694939250506139ac9050565b6134736040518060400160405280600a8152602001696574684164647265737360b01b815250611b7661346e613978565b613dfe565b61347e8982846139ca565b6040805160606020601f8c01819004028201810183529181018a81529298509182918b908b90819085018382808284376000920191909152505050908252506020016134c8613978565b6001600160a01b031690526000878152601260209081526040909120825180519192611c5092849290910190614372565b60156020908152600091825260409182902080546001808301546002808501805488516101009582161595909502600019011691909104601f81018790048702840187019097528683526001600160a01b0390931695909491929183018282801561311c5780601f106130f15761010080835404028352916020019161311c565b805160208183018101805160138252928201919093012091525481565b61359f613978565b6000546001600160a01b039081169116146135cc5760405162461bcd60e51b8152600401610b5590615726565b6001600160a01b0381166135f25760405162461bcd60e51b8152600401610b55906155a7565b600080546040516001600160a01b03808516939216917f8be0079c531659141344cd1fd0a4f28419497f9722a3daafe3b4186f6b6457e091a3600080546001600160a01b0319166001600160a01b0392909216919091179055565b6000341161366d5760405162461bcd60e51b8152600401610b55906158cb565b6000601e8383604051613681929190614e36565b9081526040519081900360200190205460ff16600181111561369f57fe5b146136bc5760405162461bcd60e51b8152600401610b5590615820565b601a8054600101905560408051606081018252338152346020808301919091528251601f8501829004820281018201845284815291928301919085908590819084018382808284376000920182905250939094525050601a54815260196020908152604091829020845181546001600160a01b0319166001600160a01b039091161781558482015160018201559184015180519293506137659260028501929190910190614372565b50905050601b828260405161377b929190614e36565b908152604080519182900360209081018320601a8054825460018181018555600094855285852090910191909155338352601c8452938220905481549485018255908252919020909101553490601d906137d89085908590614e36565b9081526040519081900360200181208054909201909155601a547f1c0306f1b3e6623ac3e5a5b1b36db068ce661a4afdd25b0fa922519d7ea9cf5a91612e9991339134918791879190614f32565b601a5481565b815160208184018101805160168252928201918501919091209190528054829081106110a357fe5b336000908152601c60209081526040918290208054835181840281018401909452808452606093928301828280156118745760200282019190600052602060002090815481526020019060010190808311611860575050505050905090565b6138bb613978565b6000546001600160a01b039081169116146138e85760405162461bcd60e51b8152600401610b5590615726565b600e54604051633f7217f160e21b81526001600160a01b039091169063fdc85fc490613918908490600401614e62565b600060405180830381600087803b15801561393257600080fd5b505af115801561215e573d6000803e3d6000fd5b60006018361080159061395d575061395d33612165565b15613971575060131936013560601c61187c565b503361187c565b6000613982613946565b905090565b61398f61433d565b61399761433d565b6139a381868686613ee1565b95945050505050565b60808301516139bb9083613f1e565b60808301516129ff9082613f1e565b6000306005546040516020016139e1929190614e14565b60408051808303601f19018152918152815160209283012060055460608701526000818152600690935281832080546001600160a01b0319166001600160a01b038916179055905190925082917fb5e6e01e79f91267dc17b4e6314d5d4d03593d2ceee0fbb452b750bd70ea5af991a26003546001600160a01b0316634000aea08584613a6d87613f35565b6040518463ffffffff1660e01b8152600401613a8b93929190615279565b602060405180830381600087803b158015613aa557600080fd5b505af1158015613ab9573d6000803e3d6000fd5b505050506040513d601f19601f82011682018060405250810190613add919061497e565b613af95760405162461bcd60e51b8152600401610b55906155ed565b6005805460010190559392505050565b600d5460408051633fabe5a360e21b815290516000926001600160a01b03169163feaf968c9160048083019260a0929190829003018186803b158015613b4e57600080fd5b505afa158015613b62573d6000803e3d6000fd5b505050506040513d601f19601f82011682018060405250810190613b869190614c3f565b5050509150506000600d60009054906101000a90046001600160a01b03166001600160a01b031663313ce5676040518163ffffffff1660e01b815260040160206040518083038186803b158015613bdc57600080fd5b505afa158015613bf0573d6000803e3d6000fd5b505050506040513d601f19601f82011682018060405250810190613c149190614c90565b60ff1682850281613c2157fe5b0490507fb8c37540534e3c73833fa45c239553e91d75af88ce658ebc50e097fc33a91de2858285604051613c57939291906151ee565b60405180910390a16040516340c10f1960e01b81526001600160a01b038416906340c10f1990611cf49088908590600401614ee7565b613c956143f0565b600083815260156020908152604091829020825160608101845281546001600160a01b03168152600180830154828501526002808401805487516101009482161594909402600019011691909104601f81018690048602830186018752808352929593949386019391929091830182828015613d525780601f10613d2757610100808354040283529160200191613d52565b820191906000526020600020905b815481529060010190602001808311613d3557829003601f168201915b5050505050815250509050816001600160a01b03166108fc82602001519081150290604051600060405180830381858888f19350505050158015613d9a573d6000803e3d6000fd5b50806020015160138260400151604051613db49190614e46565b90815260408051602092819003830190208054939093039092556000858152601590915290812080546001600160a01b0319168155600181018290559061215e60028301826142f9565b60606001600160a01b03821680613e2e5750506040805180820190915260018152600360fc1b6020820152612177565b8060005b8115613e4657600101600a82049150613e32565b6060816001600160401b0381118015613e5e57600080fd5b506040519080825280601f01601f191660200182016040528015613e89576020820181803683370190505b50905060001982015b8415613ed757600a850660300160f81b82828060019003935081518110613eb557fe5b60200101906001600160f81b031916908160001a905350600a85049450613e92565b5095945050505050565b613ee961433d565b613ef98560800151610100613fb1565b50509183526001600160a01b031660208301526001600160e01b031916604082015290565b613f2b8260038351613feb565b6129ff82826140c4565b6060634042994660e01b60008084600001518560200151866040015187606001516001896080015160000151604051602401613f78989796959493929190615211565b60408051601f198184030181529190526020810180516001600160e01b03166001600160e01b0319909316929092179091529050919050565b613fb961441a565b6020820615613fce5760208206602003820191505b506020828101829052604080518085526000815290920101905290565b6017811161400c576140068360e0600585901b1683176140e5565b506129ff565b60ff811161403657614029836018611fe0600586901b16176140e5565b50614006838260016140fd565b61ffff811161406157614054836019611fe0600586901b16176140e5565b50614006838260026140fd565b63ffffffff811161408e5761408183601a611fe0600586901b16176140e5565b50614006838260046140fd565b6001600160401b0381116129ff576140b183601b611fe0600586901b16176140e5565b506140be838260086140fd565b50505050565b6140cc61441a565b6140de8384600001515184855161411e565b9392505050565b6140ed61441a565b6140de83846000015151846141ca565b61410561441a565b614116848560000151518585614215565b949350505050565b61412661441a565b825182111561413457600080fd5b8460200151828501111561415e5761415e856141568760200151878601614273565b60020261428a565b60008086518051876020830101935080888701111561417d5787860182525b505050602084015b602084106141a45780518252601f199093019260209182019101614185565b51815160001960208690036101000a019081169019919091161790525083949350505050565b6141d261441a565b836020015183106141ee576141ee84856020015160020261428a565b83518051602085830101848153508085141561420b576001810182525b5093949350505050565b61421d61441a565b8460200151848301111561423a5761423a8585840160020261428a565b60006001836101000a0390508551838682010185831982511617815250805184870111156142685783860181525b509495945050505050565b600081831115614284575081611118565b50919050565b81516142968383613fb1565b506140be83826140c4565b60405180610100016040528060001515815260200160608152602001606081526020016060815260200160608152602001600061ffff168152602001600061ffff16815260200160006001600160a01b031681525090565b50805460018160011615610100020316600290046000825580601f1061431f5750612696565b601f0160209004906000526020600020908101906126969190614434565b6040805160a08101825260008082526020820181905291810182905260608101919091526080810161436d61441a565b905290565b828054600181600116156101000203166002900490600052602060002090601f016020900481019282601f106143b357805160ff19168380011785556143e0565b828001600101855582156143e0579182015b828111156143e05782518255916020019190600101906143c5565b506143ec929150614434565b5090565b604051806060016040528060006001600160a01b0316815260200160008152602001606081525090565b604051806040016040528060608152602001600081525090565b5b808211156143ec5760008155600101614435565b8035611118816159b5565b600082601f830112614464578081fd5b81356144776144728261593b565b615915565b818152915060208083019084810160408085028701830188101561449a57600080fd5b60005b858110156144c1576144af898461456c565b8552938301939181019160010161449d565b50505050505092915050565b8035611118816159ca565b60008083601f8401126144e9578182fd5b5081356001600160401b038111156144ff578182fd5b60208301915083602082850101111561451757600080fd5b9250929050565b600082601f83011261452e578081fd5b813561453c6144728261595a565b915080825283602082850101111561455357600080fd5b8060208401602084013760009082016020015292915050565b60006040828403121561457d578081fd5b6145876040615915565b9050813581526020820135602082015292915050565b803561ffff8116811461111857600080fd5b805169ffffffffffffffffffff8116811461111857600080fd5b6000602082840312156145da578081fd5b81356140de816159b5565b6000806000604084860312156145f9578182fd5b8335614604816159b5565b925060208401356001600160401b0381111561461e578283fd5b61462a868287016144d8565b9497909650939450505050565b60008060008060006080868803121561464e578081fd5b8535614659816159b5565b94506020868101356001600160401b0380821115614675578384fd5b6146818a838b016144d8565b90975095506040890135915080821115614699578384fd5b818901915089601f8301126146ac578384fd5b81356146ba6144728261593b565b81815284810190848601875b848110156146ef576146dd8f8984358a010161451e565b845292870192908701906001016146c6565b509097505050506060890135925080831115614709578384fd5b505061471788828901614454565b9150509295509295909350565b60008060008060808587031215614739578384fd5b8435614744816159b5565b935060208501356001600160401b0381111561475e578384fd5b61476a878288016144d8565b909450925061477e9050866040870161456c565b905092959194509250565b60008060008060008060c087890312156147a1578384fd5b86356147ac816159b5565b955060208701356001600160401b03808211156147c7578586fd5b6147d38a838b0161451e565b965060408901359150808211156147e8578586fd5b506147f589828a0161451e565b94505060608701359250608087013591506148138860a0890161459d565b90509295509295509295565b60008060408385031215614831578182fd5b823561483c816159b5565b915060208301356001600160401b0380821115614857578283fd5b818501915061010080838803121561486d578384fd5b61487681615915565b905061488287846144cd565b8152602083013582811115614895578485fd5b6148a18882860161451e565b6020830152506040830135828111156148b8578485fd5b6148c48882860161451e565b6040830152506060830135828111156148db578485fd5b6148e78882860161451e565b6060830152506080830135828111156148fe578485fd5b61490a8882860161451e565b60808301525061491d8760a0850161459d565b60a082015261492f8760c0850161459d565b60c08201526149418760e08501614449565b60e08201528093505050509250929050565b60008060408385031215614965578182fd5b8235614970816159b5565b946020939093013593505050565b60006020828403121561498f578081fd5b81516140de816159ca565b6000602082840312156149ab578081fd5b5035919050565b600080604083850312156149c4578182fd5b8235915060208301356149d6816159ca565b809150509250929050565b600080604083850312156149f3578182fd5b50508035926020909101359150565b60008060408385031215614a14578182fd5b505080516020909101519092909150565b600060208284031215614a36578081fd5b81516140de816159b5565b60008060208385031215614a53578182fd5b82356001600160401b03811115614a68578283fd5b614a74858286016144d8565b90969095509350505050565b600080600080600060608688031215614a97578283fd5b85356001600160401b0380821115614aad578485fd5b614ab989838a016144d8565b909750955060208801359150614ace826159b5565b90935060408701359080821115614ae3578283fd5b50614af0888289016144d8565b969995985093965092949392505050565b600080600060408486031215614b15578081fd5b83356001600160401b03811115614b2a578182fd5b614b36868287016144d8565b909790965060209590950135949350505050565b600060208284031215614b5b578081fd5b81356001600160401b03811115614b70578182fd5b6141168482850161451e565b600060208284031215614b8d578081fd5b81516001600160401b03811115614ba2578182fd5b8201601f81018413614bb2578182fd5b8051614bc06144728261595a565b818152856020838501011115614bd4578384fd5b6139a3826020830160208601615989565b60008060408385031215614bf7578182fd5b82356001600160401b03811115614c0c578283fd5b614c188582860161451e565b95602094909401359450505050565b600060208284031215614c38578081fd5b5051919050565b600080600080600060a08688031215614c56578283fd5b614c6087876145af565b9450602086015193506040860151925060608601519150614c8487608088016145af565b90509295509295909350565b600060208284031215614ca1578081fd5b815160ff811681146140de578182fd5b60008151808452614cc9816020860160208601615989565b601f01601f19169290920160200192915050565b60008154600180821660008114614cfb5760018114614d1257614d44565b60ff198316865260028304607f1686019350614d44565b600283048560005260208060002060005b83811015614d3c5781548a820152908501908201614d23565b505050860193505b50505092915050565b60008284528282602086013780602084860101526020601f19601f85011685010190509392505050565b60008154600180821660008114614d955760018114614db357614d44565b60028304607f16865260ff1983166020870152604086019350614d44565b60028304808752614dc38661597d565b60005b82811015614de75781546020828b0101528482019150602081019050614dc6565b88016020019550505050505092915050565b80518252602090810151910152565b60006140de8284614cdd565b60609290921b6bffffffffffffffffffffffff19168252601482015260340190565b6000828483379101908152919050565b60008251614e58818460208701615989565b9190910192915050565b6001600160a01b0391909116815260200190565b6001600160a01b03841681526040602082018190526000906139a39083018486614d4d565b600060018060a01b03808916835260806020840152614ebe60808401888a614d4d565b81871660408501528381036060850152614ed9818688614d4d565b9a9950505050505050505050565b6001600160a01b03929092168252602082015260400190565b600060018060a01b038616825284602083015260606040830152614f28606083018486614d4d565b9695505050505050565b600060018060a01b038716825285602083015260806040830152614f5a608083018587614d4d565b90508260608301529695505050505050565b600060018060a01b038616825284602083015260806040830152614f936080830185614d77565b905082606083015295945050505050565b6001600160a01b038616815260806020808301829052600091614fca9084018789614d4d565b604084820381860152818751808452848401915084858202850101858a01875b8381101561501857601f19878403018552615006838351614cb1565b94880194925090870190600101614fea565b5050878103606089015288518082529086019450915050838701855b8281101561505757615047858351614df9565b9383019390850190600101615034565b50929b9a5050505050505050505050565b6001600160a01b038516815260806020820181905260009061508d9083018587614d4d565b90506139a36040830184614df9565b6001600160a01b038316815260406020820181905260009061411690830184614cb1565b600060018060a01b038086168352606060208401526150e26060840186614cb1565b9150808416604084015250949350505050565b6001600160a01b038716815260c06020820181905260009061511990830188614cb1565b828103604084015261512b8188614cb1565b60608401969096525050608081019290925261ffff1660a0909101529392505050565b6001600160a01b03919091168152604060208201819052600f908201526e0636865636b2d6f776e65727368697608c1b606082015260800190565b6001600160a01b0391909116815260406020820181905260059082015264636c61696d60d81b606082015260800190565b6001600160a01b03919091168152604060208201819052600890820152673932b3b4b9ba32b960c11b606082015260800190565b6001600160a01b0393841681526020810192909252909116604082015260600190565b6001600160a01b0389811682526020820189905260408201889052861660608201526001600160e01b03198516608082015260a0810184905260c0810183905261010060e0820181905260009061526a83820185614cb1565b9b9a5050505050505050505050565b600060018060a01b0385168252836020830152606060408301526139a36060830184614cb1565b6020808252825182820181905260009190848201906040850190845b818110156152d8578351835292840192918401916001016152bc565b50909695505050505050565b901515815260200190565b60006101008a1515835280602084015261530b8184018b614cb1565b9050828103604084015261531f818a614cb1565b905082810360608401526153338189614cb1565b905082810360808401526153478188614cb1565b61ffff96871660a08501529490951660c0830152506001600160a01b039190911660e0909101529695505050505050565b90815260200190565b602081016002831061538f57fe5b91905290565b600060208252614116602083018486614d4d565b6000602082526140de6020830184614cb1565b6000604082526153cf6040830185614cb1565b905060018060a01b03831660208301529392505050565b600060a082526153f960a0830188614cb1565b61ffff878116602085015286166040840152828103606084015261541d8186614cb1565b905082810360808401526154318185614cb1565b98975050505050505050565b6000606082526154506060830186614d77565b6001600160a01b039490941660208301525060400152919050565b60006060825261547e6060830186614d77565b6020830194909452506001600160a01b0391909116604090910152919050565b60208082526030908201527f4465706f73697420646964206e6f742063616d652066726f6d2074686973204560408201526f3a3432b932bab69030b2323932b9b99760811b606082015260800190565b60208082526032908201527f5f70726f6a6563744964206973206e6f74206173736f6369617465642077697460408201527168205f676f76546f6b656e4164647265737360701b606082015260800190565b6020808252601c908201527f416d6f756e74206d7573742062652067726561746572207a65726f2e00000000604082015260600190565b60208082526016908201527527b930b1b632903237b2b9903737ba1032bc34b9ba1760511b604082015260600190565b60208082526026908201527f4f776e61626c653a206e6577206f776e657220697320746865207a65726f206160408201526564647265737360d01b606082015260800190565b60208082526023908201527f756e61626c6520746f207472616e73666572416e6443616c6c20746f206f7261604082015262636c6560e81b606082015260800190565b6020808252602f908201527f55736572206973206e6f74206f776e6572206f66206f7267616e697a6174696f60408201526e6e206f72207265706f7369746f727960881b606082015260800190565b60208082526027908201527f4465706f736974206973206e6f7420666f72207468697320476974487562206160408201526631b1b7bab73a1760c91b606082015260800190565b6020808252601e908201527f4e6f7420656e6f7567682066756e647320746f20706179206761734665650000604082015260600190565b6020808252600f908201526e139bc81cdd58da081c995c5d595cdd608a1b604082015260600190565b6020808252818101527f4f776e61626c653a2063616c6c6572206973206e6f7420746865206f776e6572604082015260600190565b6020808252603d908201527f596f7520646f6e27742068617665207065726d697373696f6e20746f2073657460408201527f20676f7665726e616e636520746f6b656e7320666f7220697373756573000000606082015260800190565b60208082526042908201527f4465706f73697420646964206e6f7420636f6d652066726f6d2074686973204560408201527f7468657265756d2061646472657373206f7220646f6573206e6f7420657869736060820152613a1760f11b608082015260a00190565b60208082526012908201527124b9b9bab29034b9903737ba1027a822a71760711b604082015260600190565b6020808252601a908201527f4f7261636c65206a6f6220646f6573206e6f742065786973742e000000000000604082015260600190565b60208082526028908201527f536f75726365206d75737420626520746865206f7261636c65206f6620746865604082015267081c995c5d595cdd60c21b606082015260800190565b6020808252601290820152712cb7ba9036bab9ba1039b2b7321022aa241760711b604082015260600190565b828152604081016004831061590857fe5b8260208301529392505050565b6040518181016001600160401b038111828210171561593357600080fd5b604052919050565b60006001600160401b03821115615950578081fd5b5060209081020190565b60006001600160401b0382111561596f578081fd5b50601f01601f191660200190565b60009081526020902090565b60005b838110156159a457818101518382015260200161598c565b838111156140be5750506000910152565b6001600160a01b038116811461269657600080fd5b801515811461269657600080fdfe7cc135e0cebb02c3480ae5d74d377283180a2601f8f644edf7987b009316c63aa2646970667358221220f11c9f74b9f542e2439d0e4eeefcdf4b82ffd2584487db3038c74429cf1fe56264736f6c634300060c0033",
  "immutableReferences": {},
  "source": "// SPDX-License-Identifier: MIT\npragma solidity ^0.6.0;\npragma experimental ABIEncoderV2;\n\nimport '@openzeppelin/contracts/token/ERC20/ERC20.sol';\nimport '@openzeppelin/contracts/access/Ownable.sol';\nimport '@chainlink/contracts/src/v0.6/ChainlinkClient.sol';\nimport \"@chainlink/contracts/src/v0.6/interfaces/AggregatorV3Interface.sol\";\nimport '@opengsn/gsn/contracts/BaseRelayRecipient.sol';\nimport '@opengsn/gsn/contracts/BasePaymaster.sol';\nimport './OctobayVisibilityToken.sol';\nimport './UserAddressStorage.sol';\nimport './OracleStorage.sol';\nimport './OctobayGovToken.sol';\nimport './OctobayGovernor.sol';\nimport './OctobayGovNFT.sol';\n\ncontract Octobay is Ownable, ChainlinkClient, BaseRelayRecipient {\n\n    // TODO: Add more events related to user withdrawls\n    event TwitterPostEvent(string issueId, bytes32 tweetId);\n\n    mapping(string => uint256) public issuePins;\n\n    OctobayVisibilityToken public ovt;\n\n    string public twitterAccountId;\n    uint256 public twitterFollowers;\n    mapping(bytes32 => string) public pendingTwitterPostsIssueIds;\n    AggregatorV3Interface internal ethUSDPriceFeed;\n\n    constructor(\n        address _link,\n        address _forwarder,\n        address _ovt,\n        address _userAddressStorage,\n        address _oracleStorage,\n        address _octobayGovernor,\n        address _ethUSDPriceFeed,\n        address _octobayGovNFT\n    ) public {\n        setChainlinkToken(_link);\n        trustedForwarder = _forwarder; // GSN trusted forwarder\n        userAddressStorage = UserAddressStorage(_userAddressStorage);\n        oracleStorage = OracleStorage(_oracleStorage);\n        ovt = OctobayVisibilityToken(_ovt);\n        octobayGovernor = OctobayGovernor(_octobayGovernor);\n        ethUSDPriceFeed = AggregatorV3Interface(_ethUSDPriceFeed);\n        octobayGovNFT = OctobayGovNFT(_octobayGovNFT);\n    }\n\n    function setTwitterAccountId(string memory _accountId) external onlyOwner {\n        twitterAccountId = _accountId;\n        twitterFollowers = 0;\n    }\n\n    function pinIssue(string memory _issueId, uint256 _amount) public {\n        require(_amount > 0, 'Amount must be greater zero.');\n        ovt.burn(msg.sender, _amount);\n        issuePins[_issueId] += _amount;\n    }\n\n    // ------------ Set contract addresses ------------ //\n\n    function setTrustedForwarder(address _forwarder) external onlyOwner {\n        trustedForwarder = _forwarder; // GSN trusted forwarder\n    }\n\n    function setUserAddressStorage(address _userAddressStorage) external onlyOwner {\n        userAddressStorage = UserAddressStorage(_userAddressStorage);\n    }\n\n    function setOracleStorage(address _oracleStorage) external onlyOwner {\n        oracleStorage = OracleStorage(_oracleStorage);\n    }\n\n    function setOctobayVisibilityToken(address _ovt) external onlyOwner {\n        ovt = OctobayVisibilityToken(_ovt);\n    }\n\n    function setOctobayGovernor(address _octobayGovernor) external onlyOwner {\n        octobayGovernor = OctobayGovernor(_octobayGovernor);\n    }\n\n    function setEthUSDPriceFeed(address _ethUSDPriceFeed) external onlyOwner {\n        ethUSDPriceFeed = AggregatorV3Interface(_ethUSDPriceFeed);\n    }\n\n    function setOctobayGovNFT(address _octobayGovNFT) external onlyOwner {\n        octobayGovNFT = OctobayGovNFT(_octobayGovNFT);\n    }                    \n\n    // ------------ Oracles ------------ //\n\n\n    OracleStorage public oracleStorage;\n\n    modifier oracleHandlesJob(address _oracle, string memory _jobName) {\n        require(oracleStorage.oracleExists(_oracle), \"Oracle does not exist.\");\n        require(oracleStorage.oracleJobExists(_oracle, _jobName), \"Oracle job does not exist.\");\n        _;\n    }\n\n    function addOracle(\n        address _oracle,\n        string calldata _name,\n        string[] memory _jobNames,\n        OracleStorage.Job[] memory _jobs\n    ) external onlyOwner {\n        oracleStorage.addOracle(_oracle, _name, _jobNames, _jobs);\n    }\n\n    function removeOracle(address _oracle) external onlyOwner {\n        oracleStorage.removeOracle(_oracle);\n    }\n\n    function changeOracleName(address _oracle, string calldata _name) external onlyOwner {\n        oracleStorage.changeOracleName(_oracle, _name);\n    }\n\n    function addOracleJob(\n        address _oracle,\n        string calldata _jobName,\n        OracleStorage.Job memory _job\n    ) external onlyOwner {\n        oracleStorage.addOracleJob(_oracle, _jobName, _job);\n    }\n\n    function removeOracleJob(address _oracle, string calldata _jobName) external onlyOwner {\n        oracleStorage.removeOracleJob(_oracle, _jobName);\n    }\n    \n\n\n\n\n    // ------------ GSN ------------ //\n\n\n    address octobayPaymaster;\n\n    function setPaymaster(address _octobayPaymaster) external onlyOwner {\n        octobayPaymaster = _octobayPaymaster;\n    }\n\n    function _msgSender() internal override(Context, BaseRelayRecipient)\n    view returns (address payable) {\n        return BaseRelayRecipient._msgSender();\n    }\n\n    function _msgData() internal override(Context, BaseRelayRecipient)\n    view returns (bytes memory ret) {\n        return BaseRelayRecipient._msgData();\n    }\n\n    string public override versionRecipient = '2.0.0'; // GSN version\n\n    function deductGasFee(string calldata _githubUserId, uint256 _amount)\n        external\n    {\n        // only paymaster, cause paymaster pays for gas fee on behalf of user\n        require(msg.sender == octobayPaymaster);\n        require(userClaimAmountByGithbUserId[_githubUserId] >= _amount, 'Not enough funds to pay gasFee');\n\n        userClaimAmountByGithbUserId[_githubUserId] -= _amount;\n    }\n\n\n\n\n\n    // ------------ REGISTRATION ------------ //\n\n\n    UserAddressStorage public userAddressStorage;\n\n    struct UserAddressRegistration {\n        string githubUserId;\n        address ethAddress;\n    }\n\n    mapping(bytes32 => UserAddressRegistration) public userAddressRegistrations;\n\n    function registerUserAddress(\n        address _oracle,\n        string calldata _githubUserId\n    ) public oracleHandlesJob(_oracle, 'register') returns(bytes32 requestId) {\n        (bytes32 jobId, uint256 jobFee) = oracleStorage.getOracleJob(_oracle, 'register');\n        Chainlink.Request memory request =\n            buildChainlinkRequest(\n                jobId,\n                address(this),\n                this.confirmRegisterUserAddress.selector\n            );\n        request.add('githubUserId', _githubUserId);\n        request.add('ethAddress', addressToIntString(_msgSender()));\n        requestId = sendChainlinkRequestTo(_oracle, request, jobFee);\n\n        userAddressRegistrations[requestId] = UserAddressRegistration(_githubUserId, _msgSender());\n    }\n\n    function confirmRegisterUserAddress(bytes32 _requestId, bytes32 _addressName)\n        public\n        recordChainlinkFulfillment(_requestId)\n    {\n        userAddressStorage.addUserAddress(\n            userAddressRegistrations[_requestId].githubUserId,\n            _addressName,\n            userAddressRegistrations[_requestId].ethAddress\n        );\n\n        delete userAddressRegistrations[_requestId];\n    }\n\n\n\n\n\n    // ------------ TWITTER ------------ //\n\n\n    // function twitterPost(\n    //     address _oracle,\n    //     string memory _issueId\n    // ) internal oracleHandlesJob(_oracle, 'twitterPost') returns(bytes32 requestId) {\n    //     (bytes32 jobId, uint256 jobFee) = oracleStorage.getOracleJob(_oracle, 'twitterPost');\n    //     Chainlink.Request memory request =\n    //         buildChainlinkRequest(\n    //             jobId,\n    //             address(this),\n    //             this.twitterPostConfirm.selector\n    //         );\n    //     request.add('issueId', _issueId);\n    //     request.addUint('amount', issueDepositsAmountByIssueId[_issueId]);\n    //     requestId = sendChainlinkRequestTo(_oracle, request, jobFee);\n    // }\n\n    // function twitterPostConfirm(bytes32 _requestId, bytes32 _tweetId)\n    //     public\n    //     recordChainlinkFulfillment(_requestId)\n    // {\n    //     emit TwitterPostEvent(pendingTwitterPostsIssueIds[_requestId], _tweetId);\n    // }\n\n    // function updateTwitterFollowersAndPost(\n    //     address _oracle,\n    //     string memory _issueId\n    // ) public oracleHandlesJob(_oracle, 'twitterFollowers') returns(bytes32 requestId) {\n    //     (bytes32 jobId, uint256 jobFee) = oracleStorage.getOracleJob(_oracle, 'twitterFollowers');\n    //     Chainlink.Request memory request =\n    //         buildChainlinkRequest(\n    //             jobId,\n    //             address(this),\n    //             this.updateTwitterFollowersConfirm.selector\n    //         );\n    //     request.add('accountId', twitterAccountId);\n    //     requestId = sendChainlinkRequestTo(_oracle, request, jobFee);\n    //     pendingTwitterPostsIssueIds[requestId] = _issueId;\n    // }\n\n    // function updateTwitterFollowersConfirm(bytes32 _requestId, uint256 _followers)\n    //     public\n    //     recordChainlinkFulfillment(_requestId)\n    // {\n    //     twitterFollowers = _followers;\n    //     bytes32 postRequestId = twitterPost(msg.sender, pendingTwitterPostsIssueIds[_requestId]);\n    //     pendingTwitterPostsIssueIds[postRequestId] = pendingTwitterPostsIssueIds[_requestId];\n    //     delete pendingTwitterPostsIssueIds[_requestId];\n    // }\n\n\n\n\n\n    // ------------ USER DEPOSITS ------------ //\n\n\n    event UserDepositEvent(address from, uint256 amount, string githubUser);\n\n    mapping(string => uint256) public userClaimAmountByGithbUserId;\n\n    struct UserDeposit {\n        address from;\n        uint256 amount;\n        string githubUserId;\n    }\n\n    uint256 private nextUserDepositId = 0;\n\n    mapping(uint256 => UserDeposit) public userDeposits;\n\n    mapping(string => uint256[]) public userDepositIdsByGithubUserId;\n\n    mapping(address => uint256[]) public userDepositIdsBySender;\n\n    function depositEthForGithubUser(string calldata _githubUserId)\n        external\n        payable\n    {\n        require(msg.value > 0, 'You must send ETH.');\n\n        nextUserDepositId++;\n        userDeposits[nextUserDepositId] = UserDeposit(\n            msg.sender,\n            msg.value,\n            _githubUserId\n        );\n        userDepositIdsByGithubUserId[_githubUserId].push(nextUserDepositId);\n        userDepositIdsBySender[msg.sender].push(nextUserDepositId);\n\n        // increment claim amount\n        userClaimAmountByGithbUserId[_githubUserId] += msg.value;\n\n        emit UserDepositEvent(msg.sender, msg.value, _githubUserId);\n    }\n\n    function _sendDeposit(uint256 _depositId, address _to) internal {\n        UserDeposit memory deposit = userDeposits[_depositId];\n        payable(_to).transfer(deposit.amount);\n\n        // reduce claim amount\n        userClaimAmountByGithbUserId[deposit.githubUserId] -= deposit.amount;\n\n        delete userDeposits[_depositId];\n    }\n\n    function refundUserDeposit(uint256 _depositId) external {\n        require(\n            userDeposits[_depositId].from == msg.sender,\n            'Deposit did not came from this Ethereum address.'\n        );\n        _sendDeposit(_depositId, msg.sender);   // msg.sender is depositor\n    }\n\n    function withdrawUserDeposit(uint256 _depositId) external {\n        require(\n            keccak256(bytes(userDeposits[_depositId].githubUserId)) ==\n                keccak256(\n                    bytes(userAddressStorage.userIdsByAddress(msg.sender))\n                ),\n            'Deposit is not for this GitHub account.'\n        );\n        _sendDeposit(_depositId, msg.sender);   // msg.sender is user\n    }\n\n\n\n\n\n    // ------------ ISSUE DEPOSITS ------------ //\n\n    OctobayGovNFT public octobayGovNFT;\n\n    event IssueDepositEvent(address from, uint256 amount, string issueId, uint256 depositId);\n    event RefundIssueDepositEvent(address to, uint256 amount, string issueId, uint256 depositId);\n    event SetGovTokenForIssueEvent(address from, string  issueId, address govTokenAddress, string projectId);\n\n    enum IssueStatus {\n        // NOT_VALID, // There's no sense of 'opening' an issue atm, this would be used if so\n        OPEN,\n        CLAIMED\n    }\n\n    struct IssueDeposit {\n        address from;\n        uint256 amount;\n        string issueId;\n    }\n    mapping(uint256 => IssueDeposit) public issueDeposits;\n    uint256 public nextIssueDepositId = 0;\n    mapping(string => uint256[]) public issueDepositIdsByIssueId; // Consider removing this? Can be derived from issueDeposits. Unless we need it for deletion.\n    mapping(address => uint256[]) public issueDepositIdsBySender;\n    mapping(string => uint256) public issueDepositsAmountByIssueId;\n    mapping(string => IssueStatus) public issueStatusByIssueId;\n    mapping(string => OctobayGovToken) public govTokenByIssueId;\n\n    function depositAndSetGovTokenForIssue(string calldata _issueId, address _govTokenAddress, string calldata _projectId) external {\n        depositEthForIssue(_issueId);\n        setGovTokenForIssue(_issueId, _govTokenAddress, _projectId);\n    }\n\n    function setGovTokenForIssue(string calldata _issueId, address _govTokenAddress, string calldata _projectId) public {\n        require(issueStatusByIssueId[_issueId] == IssueStatus.OPEN, 'Issue is not OPEN.');\n        // Ensure they're giving us a valid gov token\n        require(address(octobayGovernor.tokensByProjectId(_projectId)) == _govTokenAddress, \"_projectId is not associated with _govTokenAddress\");\n        bool hasPermission = false;\n        uint256 govNFTId = octobayGovNFT.getTokenIDForUserInProject(msg.sender, _projectId);\n        if (govNFTId != 0 && octobayGovNFT.hasPermission(govNFTId, OctobayGovNFT.Permission.SET_ISSUE_GOVTOKEN)) {\n            hasPermission = true;\n        } else {\n            // Do other permission checks here, e.g. oracle calls\n        }\n        require(hasPermission, \"You don't have permission to set governance tokens for issues\");\n        govTokenByIssueId[_issueId] = OctobayGovToken(_govTokenAddress);\n        emit SetGovTokenForIssueEvent(msg.sender, _issueId, _govTokenAddress, _projectId);\n    }\n\n    function depositEthForIssue(string calldata _issueId) public payable {\n        require(msg.value > 0, 'You must send ETH.');\n        require(issueStatusByIssueId[_issueId] == IssueStatus.OPEN, 'Issue is not OPEN.');\n\n        nextIssueDepositId++;\n        issueDeposits[nextIssueDepositId] = IssueDeposit(\n            msg.sender,\n            msg.value,\n            _issueId\n        );\n        issueDepositIdsByIssueId[_issueId].push(nextIssueDepositId);\n        issueDepositIdsBySender[msg.sender].push(nextIssueDepositId);\n        issueDepositsAmountByIssueId[_issueId] += msg.value;\n        emit IssueDepositEvent(msg.sender, msg.value, _issueId, nextIssueDepositId);\n    }\n\n    function refundIssueDeposit(uint256 _depositId) external {\n        require(\n            issueDeposits[_depositId].from == msg.sender,\n            'Deposit did not come from this Ethereum address or does not exist.'\n        );\n        require(issueStatusByIssueId[issueDeposits[_depositId].issueId] == IssueStatus.OPEN, 'Issue is not OPEN.');\n\n        uint256 payoutAmt = issueDeposits[_depositId].amount;\n        issueDepositsAmountByIssueId[\n            issueDeposits[_depositId].issueId\n        ] -= payoutAmt;\n        emit RefundIssueDepositEvent(msg.sender, payoutAmt, issueDeposits[_depositId].issueId, _depositId);\n        delete issueDeposits[_depositId];\n        payable(msg.sender).transfer(payoutAmt);\n    }\n\n\n\n    // ------------ ISSUE CLAIMING ------------ //\n\n    event WithdrawIssueDepositEvent(string issueId, address recipient, uint256 amount);\n\n    struct IssueWithdrawRequest {\n        string issueId;\n        address payoutAddress;\n    }\n\n    mapping(bytes32 => IssueWithdrawRequest) public issueWithdrawRequests;\n\n    function withdrawIssueDeposit(\n        address _oracle,\n        string calldata _issueId\n    ) public oracleHandlesJob(_oracle, 'claim') returns(bytes32 requestId) {\n        require(issueStatusByIssueId[_issueId] == IssueStatus.OPEN, 'Issue is not OPEN.'); \n\n        (bytes32 jobId, uint256 jobFee) = oracleStorage.getOracleJob(_oracle, 'claim');\n        Chainlink.Request memory request =\n            buildChainlinkRequest(\n                jobId,\n                address(this),\n                this.confirmWithdrawIssueDeposit.selector\n            );\n        request.add('githubUserId', userAddressStorage.userIdsByAddress(msg.sender));\n        request.add('issueId', _issueId);\n        requestId = sendChainlinkRequestTo(_oracle, request, jobFee);\n        issueWithdrawRequests[requestId] = IssueWithdrawRequest({\n            issueId: _issueId,\n            payoutAddress: msg.sender\n        });\n    }\n\n    function confirmWithdrawIssueDeposit(bytes32 _requestId)\n        public\n        recordChainlinkFulfillment(_requestId)\n    {\n        require(issueWithdrawRequests[_requestId].payoutAddress != address(0) );\n        address payoutAddr = issueWithdrawRequests[_requestId].payoutAddress;\n        uint256 payoutAmt = issueDepositsAmountByIssueId[issueWithdrawRequests[_requestId].issueId];\n        issueDepositsAmountByIssueId[issueWithdrawRequests[_requestId].issueId] = 0;\n        issueStatusByIssueId[issueWithdrawRequests[_requestId].issueId] = IssueStatus.CLAIMED;\n        awardGovernanceTokens(payoutAddr, payoutAmt, govTokenByIssueId[issueWithdrawRequests[_requestId].issueId]);\n        emit WithdrawIssueDepositEvent(issueWithdrawRequests[_requestId].issueId, payoutAddr, payoutAmt);\n        delete issueWithdrawRequests[_requestId];\n        // delete issueDeposits[_depositId]; ??? loop through issueDepositIdsByIssueId ???\n        payable(payoutAddr).transfer(payoutAmt);\n    }\n\n\n\n    // ------------ GOVERNANCE ------------ //\n\n    event AwardGovernanceTokensEvent(address recipient, uint256 amount, address tokenAddr);\n\n    OctobayGovernor public octobayGovernor;\n\n    struct NewGovernanceToken {\n        bool isValue;\n        string githubUserId;\n        string name;\n        string symbol;\n        string projectId;\n        uint16 newProposalShare;\n        uint16 minQuorum;\n        address creator;\n    }\n\n    mapping(bytes32 => NewGovernanceToken) public newGovernanceTokenReqs;\n\n    // Using a struct as arg here otherwise we get stack too deep errors\n    function createGovernanceToken(\n        address _oracle,\n        NewGovernanceToken memory _newToken\n    ) public oracleHandlesJob(_oracle, 'check-ownership') returns(bytes32 requestId) {\n        (bytes32 jobId, uint256 jobFee) = oracleStorage.getOracleJob(_oracle, 'check-ownership');\n        Chainlink.Request memory request =\n            buildChainlinkRequest(\n                jobId,\n                address(this),\n                this.confirmCreateGovernanceToken.selector\n            );\n        request.add('githubUserId', _newToken.githubUserId);\n        request.add('repoOrgId', _newToken.projectId); // Which one should we use to keep these in sync? \n        requestId = sendChainlinkRequestTo(_oracle, request, jobFee);\n\n        _newToken.creator = msg.sender;\n        newGovernanceTokenReqs[requestId] = _newToken;\n    }\n\n    function confirmCreateGovernanceToken(bytes32 _requestId, bool _result)\n        public\n        recordChainlinkFulfillment(_requestId)\n    {\n        require(_result, \"User is not owner of organization or repository\");\n        NewGovernanceToken memory newToken = newGovernanceTokenReqs[_requestId];\n        require(newToken.isValue, \"No such request\");\n        delete newGovernanceTokenReqs[_requestId];\n\n        OctobayGovToken deployedToken = octobayGovernor.createGovernorAndToken(newToken.projectId, newToken.newProposalShare, newToken.minQuorum, newToken.name, newToken.symbol);\n        uint256 nftId = octobayGovNFT.mintTokenForProject(newToken.creator, newToken.projectId, address(deployedToken));\n        octobayGovNFT.grantAllPermissions(nftId);\n    }\n\n    function awardGovernanceTokens(address recipient, uint256 payoutEth, OctobayGovToken tokenAddr) internal {\n        (\n            , //uint80 roundID, \n            int price,\n            , //uint startedAt,\n            , //uint timeStamp,\n            //uint80 answeredInRound\n        ) = ethUSDPriceFeed.latestRoundData();\n        uint256 amount = uint256((payoutEth * uint256(price)) / ethUSDPriceFeed.decimals());\n        emit AwardGovernanceTokensEvent(recipient, amount, address(tokenAddr));\n        tokenAddr.mint(recipient, amount);\n    }\n\n    // yes... there should be an oracle call before this\n    function createProposal(address _tokenAddress, string memory _projectId, string memory _discussionId, uint256 _startDate, uint256 _endDate, uint16 _quorum) external {\n        octobayGovernor.createProposal(_tokenAddress, _projectId, _discussionId, _startDate, _endDate, _quorum);\n    }\n\n\n    // ------------ GETTERS ------------ //\n\n\n     function getUserDepositIdsForGithubUserId(string calldata _githubUserId)\n        external\n        view\n        returns (uint256[] memory)\n    {\n        return userDepositIdsByGithubUserId[_githubUserId];\n    }\n\n    function getUserDepositIdsForSender()\n        external\n        view\n        returns (uint256[] memory)\n    {\n        return userDepositIdsBySender[msg.sender];\n    }\n\n    function getIssueDepositIdsForIssueId(string calldata _issueId)\n        external\n        view\n        returns (uint256[] memory)\n    {\n        return issueDepositIdsByIssueId[_issueId];\n    }\n\n    function getIssueDepositIdsForSender()\n        external\n        view\n        returns (uint256[] memory)\n    {\n        return issueDepositIdsBySender[msg.sender];\n    }\n\n    function getUserClaimAmount(string calldata _githubUserId)\n        external\n        view\n        returns (uint256)\n    {\n        return userClaimAmountByGithbUserId[_githubUserId];\n    }\n\n\n\n\n\n    // ------------ UTILS ------------ //\n\n\n    function addressToIntString(address _address)\n        internal\n        pure\n        returns (string memory _string)\n    {\n        uint256 _i = uint256(_address);\n        if (_i == 0) {\n            return '0';\n        }\n        uint256 j = _i;\n        uint256 len;\n        while (j != 0) {\n            len++;\n            j /= 10;\n        }\n        bytes memory bstr = new bytes(len);\n        uint256 k = len - 1;\n        while (_i != 0) {\n            bstr[k--] = bytes1(uint8(48 + (_i % 10)));\n            _i /= 10;\n        }\n        return string(bstr);\n    }\n}\n",
  "sourcePath": "/home/mkt/Projects/octobay/contracts/contracts/Octobay.sol",
  "compiler": {
    "name": "solc",
    "version": "0.6.12+commit.27d51765.Emscripten.clang"
  },
  "schemaVersion": "3.3.4",
  "updatedAt": "2021-04-09T12:05:40.535Z",
  "networkType": "ethereum",
  "devdoc": {
    "kind": "dev",
    "methods": {
      "owner()": {
        "details": "Returns the address of the current owner."
      },
      "renounceOwnership()": {
        "details": "Leaves the contract without owner. It will not be possible to call `onlyOwner` functions anymore. Can only be called by the current owner. NOTE: Renouncing ownership will leave the contract without an owner, thereby removing any functionality that is only available to the owner."
      },
      "transferOwnership(address)": {
        "details": "Transfers ownership of the contract to a new account (`newOwner`). Can only be called by the current owner."
      }
    },
    "version": 1
  },
  "userdoc": {
    "kind": "user",
    "methods": {
      "isTrustedForwarder(address)": {
        "notice": "return if the forwarder is trusted to forward relayed transactions to us. the forwarder is required to verify the sender's signature, and verify the call is not a replay."
      }
    },
    "version": 1
  }
}