{
  "contractName": "Octobay",
  "abi": [
    {
      "inputs": [
        {
          "internalType": "address",
          "name": "_link",
          "type": "address"
        },
        {
          "internalType": "address",
          "name": "_forwarder",
          "type": "address"
        },
        {
          "internalType": "address",
          "name": "_userAddressStorage",
          "type": "address"
        },
        {
          "internalType": "address",
          "name": "_oracleStorage",
          "type": "address"
        },
        {
          "internalType": "address",
          "name": "_depositStorage",
          "type": "address"
        },
        {
          "internalType": "address",
          "name": "_octobayGovernor",
          "type": "address"
        },
        {
          "internalType": "address",
          "name": "_octobayGovNFT",
          "type": "address"
        },
        {
          "internalType": "address",
          "name": "_ethUSDPriceFeed",
          "type": "address"
        }
      ],
      "stateMutability": "nonpayable",
      "type": "constructor"
    },
    {
      "anonymous": false,
      "inputs": [
        {
          "indexed": true,
          "internalType": "bytes32",
          "name": "id",
          "type": "bytes32"
        }
      ],
      "name": "ChainlinkCancelled",
      "type": "event"
    },
    {
      "anonymous": false,
      "inputs": [
        {
          "indexed": true,
          "internalType": "bytes32",
          "name": "id",
          "type": "bytes32"
        }
      ],
      "name": "ChainlinkFulfilled",
      "type": "event"
    },
    {
      "anonymous": false,
      "inputs": [
        {
          "indexed": true,
          "internalType": "bytes32",
          "name": "id",
          "type": "bytes32"
        }
      ],
      "name": "ChainlinkRequested",
      "type": "event"
    },
    {
      "anonymous": false,
      "inputs": [
        {
          "indexed": true,
          "internalType": "address",
          "name": "previousOwner",
          "type": "address"
        },
        {
          "indexed": true,
          "internalType": "address",
          "name": "newOwner",
          "type": "address"
        }
      ],
      "name": "OwnershipTransferred",
      "type": "event"
    },
    {
      "anonymous": false,
      "inputs": [
        {
          "indexed": false,
          "internalType": "address",
          "name": "depositStorage",
          "type": "address"
        }
      ],
      "name": "SetDepositStorageEvent",
      "type": "event"
    },
    {
      "anonymous": false,
      "inputs": [
        {
          "indexed": false,
          "internalType": "address",
          "name": "ethUsdPriceFeed",
          "type": "address"
        }
      ],
      "name": "SetEthUSDPriceFeedEvent",
      "type": "event"
    },
    {
      "anonymous": false,
      "inputs": [
        {
          "indexed": false,
          "internalType": "address",
          "name": "octobayGovNFT",
          "type": "address"
        }
      ],
      "name": "SetOctobayGovNFTEvent",
      "type": "event"
    },
    {
      "anonymous": false,
      "inputs": [
        {
          "indexed": false,
          "internalType": "address",
          "name": "octobayGovernor",
          "type": "address"
        }
      ],
      "name": "SetOctobayGovernorEvent",
      "type": "event"
    },
    {
      "anonymous": false,
      "inputs": [
        {
          "indexed": false,
          "internalType": "address",
          "name": "oracleStorage",
          "type": "address"
        }
      ],
      "name": "SetOracleStorageEvent",
      "type": "event"
    },
    {
      "anonymous": false,
      "inputs": [
        {
          "indexed": false,
          "internalType": "address",
          "name": "forwarder",
          "type": "address"
        }
      ],
      "name": "SetTrustedForwarderEvent",
      "type": "event"
    },
    {
      "anonymous": false,
      "inputs": [
        {
          "indexed": false,
          "internalType": "address",
          "name": "addressStorage",
          "type": "address"
        }
      ],
      "name": "SetUserAddressStorageEvent",
      "type": "event"
    },
    {
      "inputs": [],
      "name": "depositStorage",
      "outputs": [
        {
          "internalType": "contract DepositStorage",
          "name": "",
          "type": "address"
        }
      ],
      "stateMutability": "view",
      "type": "function"
    },
    {
      "inputs": [
        {
          "internalType": "address",
          "name": "forwarder",
          "type": "address"
        }
      ],
      "name": "isTrustedForwarder",
      "outputs": [
        {
          "internalType": "bool",
          "name": "",
          "type": "bool"
        }
      ],
      "stateMutability": "view",
      "type": "function"
    },
    {
      "inputs": [
        {
          "internalType": "bytes32",
          "name": "",
          "type": "bytes32"
        }
      ],
      "name": "issueWithdrawRequests",
      "outputs": [
        {
          "internalType": "string",
          "name": "issueId",
          "type": "string"
        },
        {
          "internalType": "address",
          "name": "payoutAddress",
          "type": "address"
        }
      ],
      "stateMutability": "view",
      "type": "function"
    },
    {
      "inputs": [
        {
          "internalType": "bytes32",
          "name": "",
          "type": "bytes32"
        }
      ],
      "name": "newGovernanceTokenReqs",
      "outputs": [
        {
          "internalType": "bool",
          "name": "isValue",
          "type": "bool"
        },
        {
          "internalType": "string",
          "name": "githubUserId",
          "type": "string"
        },
        {
          "internalType": "string",
          "name": "name",
          "type": "string"
        },
        {
          "internalType": "string",
          "name": "symbol",
          "type": "string"
        },
        {
          "internalType": "string",
          "name": "projectId",
          "type": "string"
        },
        {
          "internalType": "uint16",
          "name": "newProposalShare",
          "type": "uint16"
        },
        {
          "internalType": "uint16",
          "name": "minQuorum",
          "type": "uint16"
        },
        {
          "internalType": "address",
          "name": "creator",
          "type": "address"
        }
      ],
      "stateMutability": "view",
      "type": "function"
    },
    {
      "inputs": [],
      "name": "octobayGovNFT",
      "outputs": [
        {
          "internalType": "contract OctobayGovNFT",
          "name": "",
          "type": "address"
        }
      ],
      "stateMutability": "view",
      "type": "function"
    },
    {
      "inputs": [],
      "name": "octobayGovernor",
      "outputs": [
        {
          "internalType": "contract OctobayGovernor",
          "name": "",
          "type": "address"
        }
      ],
      "stateMutability": "view",
      "type": "function"
    },
    {
      "inputs": [],
      "name": "oracleStorage",
      "outputs": [
        {
          "internalType": "contract OracleStorage",
          "name": "",
          "type": "address"
        }
      ],
      "stateMutability": "view",
      "type": "function"
    },
    {
      "inputs": [],
      "name": "owner",
      "outputs": [
        {
          "internalType": "address",
          "name": "",
          "type": "address"
        }
      ],
      "stateMutability": "view",
      "type": "function"
    },
    {
      "inputs": [],
      "name": "renounceOwnership",
      "outputs": [],
      "stateMutability": "nonpayable",
      "type": "function"
    },
    {
      "inputs": [
        {
          "internalType": "address",
          "name": "newOwner",
          "type": "address"
        }
      ],
      "name": "transferOwnership",
      "outputs": [],
      "stateMutability": "nonpayable",
      "type": "function"
    },
    {
      "inputs": [],
      "name": "trustedForwarder",
      "outputs": [
        {
          "internalType": "address",
          "name": "",
          "type": "address"
        }
      ],
      "stateMutability": "view",
      "type": "function"
    },
    {
      "inputs": [
        {
          "internalType": "bytes32",
          "name": "",
          "type": "bytes32"
        }
      ],
      "name": "userAddressRegistrations",
      "outputs": [
        {
          "internalType": "string",
          "name": "githubUserId",
          "type": "string"
        },
        {
          "internalType": "address",
          "name": "ethAddress",
          "type": "address"
        }
      ],
      "stateMutability": "view",
      "type": "function"
    },
    {
      "inputs": [],
      "name": "userAddressStorage",
      "outputs": [
        {
          "internalType": "contract UserAddressStorage",
          "name": "",
          "type": "address"
        }
      ],
      "stateMutability": "view",
      "type": "function"
    },
    {
      "inputs": [],
      "name": "versionRecipient",
      "outputs": [
        {
          "internalType": "string",
          "name": "",
          "type": "string"
        }
      ],
      "stateMutability": "view",
      "type": "function"
    },
    {
      "inputs": [
        {
          "internalType": "address",
          "name": "_forwarder",
          "type": "address"
        }
      ],
      "name": "setTrustedForwarder",
      "outputs": [],
      "stateMutability": "nonpayable",
      "type": "function"
    },
    {
      "inputs": [
        {
          "internalType": "address",
          "name": "_userAddressStorage",
          "type": "address"
        }
      ],
      "name": "setUserAddressStorage",
      "outputs": [],
      "stateMutability": "nonpayable",
      "type": "function"
    },
    {
      "inputs": [
        {
          "internalType": "address",
          "name": "_oracleStorage",
          "type": "address"
        }
      ],
      "name": "setOracleStorage",
      "outputs": [],
      "stateMutability": "nonpayable",
      "type": "function"
    },
    {
      "inputs": [
        {
          "internalType": "address",
          "name": "_depositStorage",
          "type": "address"
        }
      ],
      "name": "setDepositStorage",
      "outputs": [],
      "stateMutability": "nonpayable",
      "type": "function"
    },
    {
      "inputs": [
        {
          "internalType": "address",
          "name": "_octobayGovernor",
          "type": "address"
        }
      ],
      "name": "setOctobayGovernor",
      "outputs": [],
      "stateMutability": "nonpayable",
      "type": "function"
    },
    {
      "inputs": [
        {
          "internalType": "address",
          "name": "_octobayGovNFT",
          "type": "address"
        }
      ],
      "name": "setOctobayGovNFT",
      "outputs": [],
      "stateMutability": "nonpayable",
      "type": "function"
    },
    {
      "inputs": [
        {
          "internalType": "address",
          "name": "_ethUSDPriceFeed",
          "type": "address"
        }
      ],
      "name": "setEthUSDPriceFeed",
      "outputs": [],
      "stateMutability": "nonpayable",
      "type": "function"
    },
    {
      "inputs": [
        {
          "internalType": "address",
          "name": "_oracle",
          "type": "address"
        },
        {
          "internalType": "string",
          "name": "_name",
          "type": "string"
        },
        {
          "internalType": "string[]",
          "name": "_jobNames",
          "type": "string[]"
        },
        {
          "components": [
            {
              "internalType": "bytes32",
              "name": "id",
              "type": "bytes32"
            },
            {
              "internalType": "uint256",
              "name": "fee",
              "type": "uint256"
            }
          ],
          "internalType": "struct OracleStorage.Job[]",
          "name": "_jobs",
          "type": "tuple[]"
        }
      ],
      "name": "addOracle",
      "outputs": [],
      "stateMutability": "nonpayable",
      "type": "function"
    },
    {
      "inputs": [
        {
          "internalType": "address",
          "name": "_oracle",
          "type": "address"
        }
      ],
      "name": "removeOracle",
      "outputs": [],
      "stateMutability": "nonpayable",
      "type": "function"
    },
    {
      "inputs": [
        {
          "internalType": "address",
          "name": "_oracle",
          "type": "address"
        },
        {
          "internalType": "string",
          "name": "_name",
          "type": "string"
        }
      ],
      "name": "changeOracleName",
      "outputs": [],
      "stateMutability": "nonpayable",
      "type": "function"
    },
    {
      "inputs": [
        {
          "internalType": "address",
          "name": "_oracle",
          "type": "address"
        },
        {
          "internalType": "string",
          "name": "_jobName",
          "type": "string"
        },
        {
          "components": [
            {
              "internalType": "bytes32",
              "name": "id",
              "type": "bytes32"
            },
            {
              "internalType": "uint256",
              "name": "fee",
              "type": "uint256"
            }
          ],
          "internalType": "struct OracleStorage.Job",
          "name": "_job",
          "type": "tuple"
        }
      ],
      "name": "addOracleJob",
      "outputs": [],
      "stateMutability": "nonpayable",
      "type": "function"
    },
    {
      "inputs": [
        {
          "internalType": "address",
          "name": "_oracle",
          "type": "address"
        },
        {
          "internalType": "string",
          "name": "_jobName",
          "type": "string"
        }
      ],
      "name": "removeOracleJob",
      "outputs": [],
      "stateMutability": "nonpayable",
      "type": "function"
    },
    {
      "inputs": [
        {
          "internalType": "address",
          "name": "_octobayPaymaster",
          "type": "address"
        }
      ],
      "name": "setPaymaster",
      "outputs": [],
      "stateMutability": "nonpayable",
      "type": "function"
    },
    {
      "inputs": [
        {
          "internalType": "string",
          "name": "_githubUserId",
          "type": "string"
        },
        {
          "internalType": "uint256",
          "name": "_amount",
          "type": "uint256"
        }
      ],
      "name": "deductGasFee",
      "outputs": [],
      "stateMutability": "nonpayable",
      "type": "function"
    },
    {
      "inputs": [
        {
          "internalType": "address",
          "name": "_oracle",
          "type": "address"
        },
        {
          "internalType": "string",
          "name": "_githubUserId",
          "type": "string"
        }
      ],
      "name": "registerUserAddress",
      "outputs": [
        {
          "internalType": "bytes32",
          "name": "requestId",
          "type": "bytes32"
        }
      ],
      "stateMutability": "nonpayable",
      "type": "function"
    },
    {
      "inputs": [
        {
          "internalType": "bytes32",
          "name": "_requestId",
          "type": "bytes32"
        },
        {
          "internalType": "bytes32",
          "name": "_addressName",
          "type": "bytes32"
        }
      ],
      "name": "confirmRegisterUserAddress",
      "outputs": [],
      "stateMutability": "nonpayable",
      "type": "function"
    },
    {
      "inputs": [
        {
          "internalType": "string",
          "name": "_githubUserId",
          "type": "string"
        }
      ],
      "name": "depositEthForGithubUser",
      "outputs": [],
      "stateMutability": "payable",
      "type": "function"
    },
    {
      "inputs": [
        {
          "internalType": "uint256",
          "name": "_depositId",
          "type": "uint256"
        }
      ],
      "name": "refundUserDeposit",
      "outputs": [],
      "stateMutability": "nonpayable",
      "type": "function"
    },
    {
      "inputs": [
        {
          "internalType": "uint256",
          "name": "_depositId",
          "type": "uint256"
        }
      ],
      "name": "withdrawUserDeposit",
      "outputs": [],
      "stateMutability": "nonpayable",
      "type": "function"
    },
    {
      "inputs": [
        {
          "internalType": "string",
          "name": "_issueId",
          "type": "string"
        },
        {
          "internalType": "contract OctobayGovToken",
          "name": "_govToken",
          "type": "address"
        }
      ],
      "name": "depositAndSetGovTokenForIssue",
      "outputs": [],
      "stateMutability": "payable",
      "type": "function"
    },
    {
      "inputs": [
        {
          "internalType": "string",
          "name": "_issueId",
          "type": "string"
        },
        {
          "internalType": "contract OctobayGovToken",
          "name": "_govToken",
          "type": "address"
        }
      ],
      "name": "setGovTokenForIssue",
      "outputs": [],
      "stateMutability": "nonpayable",
      "type": "function"
    },
    {
      "inputs": [
        {
          "internalType": "string",
          "name": "_issueId",
          "type": "string"
        }
      ],
      "name": "depositEthForIssue",
      "outputs": [],
      "stateMutability": "payable",
      "type": "function"
    },
    {
      "inputs": [
        {
          "internalType": "uint256",
          "name": "_depositId",
          "type": "uint256"
        }
      ],
      "name": "refundIssueDeposit",
      "outputs": [],
      "stateMutability": "nonpayable",
      "type": "function"
    },
    {
      "inputs": [
        {
          "internalType": "address",
          "name": "_oracle",
          "type": "address"
        },
        {
          "internalType": "string",
          "name": "_issueId",
          "type": "string"
        }
      ],
      "name": "withdrawIssueDeposit",
      "outputs": [
        {
          "internalType": "bytes32",
          "name": "requestId",
          "type": "bytes32"
        }
      ],
      "stateMutability": "nonpayable",
      "type": "function"
    },
    {
      "inputs": [
        {
          "internalType": "bytes32",
          "name": "_requestId",
          "type": "bytes32"
        }
      ],
      "name": "confirmWithdrawIssueDeposit",
      "outputs": [],
      "stateMutability": "nonpayable",
      "type": "function"
    },
    {
      "inputs": [
        {
          "internalType": "address",
          "name": "_oracle",
          "type": "address"
        },
        {
          "components": [
            {
              "internalType": "bool",
              "name": "isValue",
              "type": "bool"
            },
            {
              "internalType": "string",
              "name": "githubUserId",
              "type": "string"
            },
            {
              "internalType": "string",
              "name": "name",
              "type": "string"
            },
            {
              "internalType": "string",
              "name": "symbol",
              "type": "string"
            },
            {
              "internalType": "string",
              "name": "projectId",
              "type": "string"
            },
            {
              "internalType": "uint16",
              "name": "newProposalShare",
              "type": "uint16"
            },
            {
              "internalType": "uint16",
              "name": "minQuorum",
              "type": "uint16"
            },
            {
              "internalType": "address",
              "name": "creator",
              "type": "address"
            }
          ],
          "internalType": "struct Octobay.NewGovernanceToken",
          "name": "_newToken",
          "type": "tuple"
        }
      ],
      "name": "createGovernanceToken",
      "outputs": [
        {
          "internalType": "bytes32",
          "name": "requestId",
          "type": "bytes32"
        }
      ],
      "stateMutability": "nonpayable",
      "type": "function"
    },
    {
      "inputs": [
        {
          "internalType": "bytes32",
          "name": "_requestId",
          "type": "bytes32"
        },
        {
          "internalType": "bool",
          "name": "_result",
          "type": "bool"
        }
      ],
      "name": "confirmCreateGovernanceToken",
      "outputs": [],
      "stateMutability": "nonpayable",
      "type": "function"
    },
    {
      "inputs": [
        {
          "internalType": "contract OctobayGovToken",
          "name": "_govToken",
          "type": "address"
        },
        {
          "internalType": "uint16",
          "name": "_newProposalShare",
          "type": "uint16"
        },
        {
          "internalType": "uint16",
          "name": "_minQuorum",
          "type": "uint16"
        }
      ],
      "name": "updateGovTokenParams",
      "outputs": [],
      "stateMutability": "nonpayable",
      "type": "function"
    }
  ],
  "bytecode": "0x6001600590815560c06040526080819052640322e302e360dc1b60a09081526200002d91600a9190620003cb565b503480156200003b57600080fd5b5060405162004a0138038062004a018339810160408190526200005e9162000485565b60006200006a6200011a565b600080546001600160a01b0319166001600160a01b0383169081178255604051929350917f8be0079c531659141344cd1fd0a4f28419497f9722a3daafe3b4186f6b6457e0908290a350620000bf8862000137565b620000ca8762000159565b620000d586620001b1565b620000e085620001fe565b620000eb846200024b565b620000f68362000298565b6200010182620002e5565b6200010c8162000332565b505050505050505062000548565b6000620001316200037f60201b620029921760201c565b90505b90565b600380546001600160a01b0319166001600160a01b0392909216919091179055565b600780546001600160a01b0319166001600160a01b0383161790556040517fbcb011e6c2b421bcf7f7892a40d76e2a09f136fa40eda7b0d5eaef8aa0eb318390620001a690839062000534565b60405180910390a150565b600b80546001600160a01b0319166001600160a01b0383161790556040517f47a741dd6477ca582acb3b97bf19f307712c5699a5afc355ba935a8706e85bf190620001a690839062000534565b600880546001600160a01b0319166001600160a01b0383161790556040517f2cdcc189927b3cee3e431400dfc309b9d91d01d49c4948245e719258bc67191e90620001a690839062000534565b600d80546001600160a01b0319166001600160a01b0383161790556040517fa7f1cf8dcbcb1fa8421f563a445c32f7539e77aa7ff1f74a1340e6a07f40640290620001a690839062000534565b601080546001600160a01b0319166001600160a01b0383161790556040517f805bc30b9f0485a7b999877abc80591d6a9f19dc80637e66a8c53866c869a56690620001a690839062000534565b600e80546001600160a01b0319166001600160a01b0383161790556040517f9783fc86d55b5bc32eacdb6429d4c74bd160c60186add12c8b9dc2cef3b4dc4890620001a690839062000534565b601180546001600160a01b0319166001600160a01b0383161790556040517f963a4d8ee7ff8b4d9e706dda742b1f940d4fa5fc6a04e86f2b119de5341cbd9190620001a690839062000534565b6000601836108015906200039957506200039933620003b7565b15620003af575060131936013560601c62000134565b503362000134565b6007546001600160a01b0390811691161490565b828054600181600116156101000203166002900490600052602060002090601f016020900481019282601f106200040e57805160ff19168380011785556200043e565b828001600101855582156200043e579182015b828111156200043e57825182559160200191906001019062000421565b506200044c92915062000450565b5090565b5b808211156200044c576000815560010162000451565b80516001600160a01b03811681146200047f57600080fd5b92915050565b600080600080600080600080610100898b031215620004a2578384fd5b620004ae8a8a62000467565b9750620004bf8a60208b0162000467565b9650620004d08a60408b0162000467565b9550620004e18a60608b0162000467565b9450620004f28a60808b0162000467565b9350620005038a60a08b0162000467565b9250620005148a60c08b0162000467565b9150620005258a60e08b0162000467565b90509295985092959890939650565b6001600160a01b0391909116815260200190565b6144a980620005586000396000f3fe6080604052600436106102505760003560e01c8063715018a611610139578063b910b633116100b6578063da7422281161007a578063da742228146106b9578063e5c59948146106d9578063f17a9182146106f9578063f2fde38b14610719578063f4b90ef714610739578063fdc85fc41461074c57610250565b8063b910b6331461063c578063bb3c2bfb14610651578063c315fbca14610664578063c4f59d6314610684578063d792efae1461069957610250565b80638da5cb5b116100fd5780638da5cb5b146105ab578063968ad381146105c05780639996f186146105f4578063a9d2facd14610607578063b0903a2f1461061c57610250565b8063715018a61461052c5780637da0a877146105415780638617fc461461055657806386d0e60914610576578063886c3c891461059657610250565b8063486ff0cd116101d25780635760885711610196578063576088571461046c578063583d789b1461048c5780635b45ceca146104ac5780635f38dace146104cc57806360445fb2146104ec5780636ed3aa421461050c57610250565b8063486ff0cd146103bd578063532f1325146103df578063546075da146103ff578063554d108a1461041f578063572b6c051461043f57610250565b8063420acf3c11610219578063420acf3c14610302578063422c546b1461032257806342aaf11b1461035057806345ae77171461037057806348297f591461039d57610250565b806283cf111461025557806324d68914146102775780632a97fa77146102975780632bbba336146102b75780633f98b9c7146102d7575b600080fd5b34801561026157600080fd5b50610275610270366004613822565b61076c565b005b34801561028357600080fd5b506102756102923660046134fa565b610ccd565b3480156102a357600080fd5b506102756102b23660046134fa565b610d0e565b3480156102c357600080fd5b506102756102d2366004613655565b610d65565b3480156102e357600080fd5b506102ec610e08565b6040516102f99190613b76565b60405180910390f35b34801561030e57600080fd5b5061027561031d366004613851565b610e17565b34801561032e57600080fd5b5061034261033d36600461380a565b610f2b565b6040516102f9929190614036565b34801561035c57600080fd5b5061027561036b366004613516565b610fdb565b34801561037c57600080fd5b5061039061038b366004613516565b61107b565b6040516102f99190613f88565b3480156103a957600080fd5b506102756103b8366004613568565b6114e0565b3480156103c957600080fd5b506103d2611586565b6040516102f99190614023565b3480156103eb57600080fd5b506102756103fa3660046134fa565b611614565b34801561040b57600080fd5b5061027561041a3660046139a2565b611652565b34801561042b57600080fd5b5061027561043a36600461380a565b61169d565b34801561044b57600080fd5b5061045f61045a3660046134fa565b6118b0565b6040516102f99190613ef4565b34801561047857600080fd5b506103906104873660046136ba565b6118c7565b34801561049857600080fd5b506102756104a7366004613516565b611c4e565b3480156104b857600080fd5b506102756104c73660046134fa565b611cb7565b3480156104d857600080fd5b506103426104e736600461380a565b611cf5565b3480156104f857600080fd5b5061027561050736600461380a565b611d61565b34801561051857600080fd5b506102756105273660046134fa565b611dc8565b34801561053857600080fd5b50610275611e06565b34801561054d57600080fd5b506102ec611e85565b34801561056257600080fd5b5061027561057136600461380a565b611e94565b34801561058257600080fd5b50610275610591366004613959565b611ec6565b3480156105a257600080fd5b506102ec61203c565b3480156105b757600080fd5b506102ec61204b565b3480156105cc57600080fd5b506105e06105db36600461380a565b61205b565b6040516102f9989796959493929190613eff565b61027561060236600461391a565b6122e4565b34801561061357600080fd5b506102ec612333565b34801561062857600080fd5b506102756106373660046134fa565b612342565b34801561064857600080fd5b506102ec612380565b61027561065f366004613959565b61238f565b34801561067057600080fd5b5061027561067f36600461380a565b6123a9565b34801561069057600080fd5b506102ec61245c565b3480156106a557600080fd5b506102756106b43660046134fa565b61246b565b3480156106c557600080fd5b506102756106d43660046134fa565b6124a9565b3480156106e557600080fd5b506103906106f4366004613516565b6124e7565b34801561070557600080fd5b506102756107143660046138b1565b61280b565b34801561072557600080fd5b506102756107343660046134fa565b612841565b61027561074736600461391a565b6128f7565b34801561075857600080fd5b506102756107673660046134fa565b61292d565b60008281526006602052604090205482906001600160a01b031633146107ad5760405162461bcd60e51b81526004016107a4906142cc565b60405180910390fd5b60008181526006602052604080822080546001600160a01b031916905551829160008051602061445483398151915291a2816107fb5760405162461bcd60e51b81526004016107a49061415f565b610803613216565b60008481526012602090815260409182902082516101008082018552825460ff1615158252600180840180548751600293821615909402600019011691909104601f81018690048602830186019096528582529194929385810193919291908301828280156108b35780601f10610888576101008083540402835291602001916108b3565b820191906000526020600020905b81548152906001019060200180831161089657829003601f168201915b5050509183525050600282810180546040805160206001841615610100026000190190931694909404601f810183900483028501830190915280845293810193908301828280156109455780601f1061091a57610100808354040283529160200191610945565b820191906000526020600020905b81548152906001019060200180831161092857829003601f168201915b505050918352505060038201805460408051602060026001851615610100026000190190941693909304601f81018490048402820184019092528181529382019392918301828280156109d95780601f106109ae576101008083540402835291602001916109d9565b820191906000526020600020905b8154815290600101906020018083116109bc57829003601f168201915b505050918352505060048201805460408051602060026001851615610100026000190190941693909304601f8101849004840282018401909252818152938201939291830182828015610a6d5780601f10610a4257610100808354040283529160200191610a6d565b820191906000526020600020905b815481529060010190602001808311610a5057829003601f168201915b50505091835250506005919091015461ffff808216602084015262010000820416604083015264010000000090046001600160a01b03166060909101528051909150610acb5760405162461bcd60e51b81526004016107a4906141ae565b6000848152601260205260408120805460ff1916815590610aef600183018261326e565b610afd60028301600061326e565b610b0b60038301600061326e565b610b1960048301600061326e565b5060050180546001600160c01b031916905560105460e0820151608083015160a084015160c085015160408087015160608801519151630f442c0160e41b81526000976001600160a01b03169663f442c01096610b83969195909491939092909190600401613d15565b602060405180830381600087803b158015610b9d57600080fd5b505af1158015610bb1573d6000803e3d6000fd5b505050506040513d601f19601f82011682018060405250810190610bd59190613895565b600e5460e0840151604051631be4190560e31b81529293506000926001600160a01b039092169163df20c82891610c10918690600401613bba565b602060405180830381600087803b158015610c2a57600080fd5b505af1158015610c3e573d6000803e3d6000fd5b505050506040513d601f19601f82011682018060405250810190610c629190613a54565b600e5460405163e483abaf60e01b81529192506001600160a01b03169063e483abaf90610c93908490600401613f88565b600060405180830381600087803b158015610cad57600080fd5b505af1158015610cc1573d6000803e3d6000fd5b50505050505050505050565b610cd56129c4565b6000546001600160a01b03908116911614610d025760405162461bcd60e51b81526004016107a4906141d7565b610d0b816129d3565b50565b610d166129c4565b6000546001600160a01b03908116911614610d435760405162461bcd60e51b81526004016107a4906141d7565b600980546001600160a01b0319166001600160a01b0392909216919091179055565b610d6d6129c4565b6000546001600160a01b03908116911614610d9a5760405162461bcd60e51b81526004016107a4906141d7565b6008546040516315ddd19b60e11b81526001600160a01b0390911690632bbba33690610dd0908790879087908790600401613cbd565b600060405180830381600087803b158015610dea57600080fd5b505af1158015610dfe573d6000803e3d6000fd5b5050505050505050565b600d546001600160a01b031681565b60008281526006602052604090205482906001600160a01b03163314610e4f5760405162461bcd60e51b81526004016107a4906142cc565b60008181526006602052604080822080546001600160a01b031916905551829160008051602061445483398151915291a2600b546000848152600c60205260409081902060018101549151632625cd2960e21b81526001600160a01b039384169363989734a493610ec99392889290911690600401614073565b600060405180830381600087803b158015610ee357600080fd5b505af1158015610ef7573d6000803e3d6000fd5b5050506000848152600c602052604081209150610f14828261326e565b5060010180546001600160a01b0319169055505050565b600c6020908152600091825260409182902080548351601f60026000196101006001861615020190931692909204918201849004840281018401909452808452909291839190830182828015610fc25780601f10610f9757610100808354040283529160200191610fc2565b820191906000526020600020905b815481529060010190602001808311610fa557829003601f168201915b505050600190930154919250506001600160a01b031682565b610fe36129c4565b6000546001600160a01b039081169116146110105760405162461bcd60e51b81526004016107a4906141d7565b6008546040516342aaf11b60e01b81526001600160a01b03909116906342aaf11b9061104490869086908690600401613bd4565b600060405180830381600087803b15801561105e57600080fd5b505af1158015611072573d6000803e3d6000fd5b50505050505050565b6040805180820182526005815264636c61696d60d81b60208201526008549151637f7207c360e11b81526000928692916001600160a01b039091169063fee40f86906110cb908590600401613b76565b60206040518083038186803b1580156110e357600080fd5b505afa1580156110f7573d6000803e3d6000fd5b505050506040513d601f19601f8201168201806040525081019061111b91906137ee565b6111375760405162461bcd60e51b81526004016107a4906140a6565b600854604051639dd1e44b60e01b81526001600160a01b0390911690639dd1e44b906111699085908590600401613cf1565b60206040518083038186803b15801561118157600080fd5b505afa158015611195573d6000803e3d6000fd5b505050506040513d601f19601f820116820180604052508101906111b991906137ee565b6111d55760405162461bcd60e51b81526004016107a490614295565b600d54604051636a6ab0e960e01b81526000916001600160a01b031690636a6ab0e9906112089089908990600401613fbf565b60206040518083038186803b15801561122057600080fd5b505afa158015611234573d6000803e3d6000fd5b505050506040513d601f19601f8201168201806040525081019061125891906138fb565b600181111561126357fe5b146112805760405162461bcd60e51b81526004016107a490614269565b600854604051632ed20a2960e21b815260009182916001600160a01b039091169063bb4828a4906112b5908b90600401613ddd565b604080518083038186803b1580156112cc57600080fd5b505afa1580156112e0573d6000803e3d6000fd5b505050506040513d601f19601f820116820180604052508101906113049190613872565b915091506113106132b2565b6113228330632aa6884560e11b612a29565b604080518082018252600c81526b19da5d1a1d58955cd95c925960a21b6020820152600b54915163c155f9bd60e01b81529293506113d69290916001600160a01b03169063c155f9bd9061137a903390600401613b76565b60006040518083038186803b15801561139257600080fd5b505afa1580156113a6573d6000803e3d6000fd5b505050506040513d6000823e601f3d908101601f191682016040526113ce91908101906139eb565b839190612a4e565b611439604051806040016040528060078152602001661a5cdcdd59525960ca1b81525089898080601f016020809104026020016040519081016040528093929190818152602001838380828437600092019190915250869493925050612a4e9050565b611444898284612a6c565b6040805160606020601f8c01819004028201810183529181018a81529298509182918b908b9081908501838280828437600092018290525093855250503360209384015250888152600f8252604090208251805191926114a9928492909101906132e7565b5060209190910151600190910180546001600160a01b0319166001600160a01b039092169190911790555093979650505050505050565b6114e86129c4565b6000546001600160a01b039081169116146115155760405162461bcd60e51b81526004016107a4906141d7565b6008546040516348297f5960e01b81526001600160a01b03909116906348297f599061154d9088908890889088908890600401613bf9565b600060405180830381600087803b15801561156757600080fd5b505af115801561157b573d6000803e3d6000fd5b505050505050505050565b600a805460408051602060026001851615610100026000190190941693909304601f8101849004840282018401909252818152929183018282801561160c5780601f106115e15761010080835404028352916020019161160c565b820191906000526020600020905b8154815290600101906020018083116115ef57829003601f168201915b505050505081565b61161c6129c4565b6000546001600160a01b039081169116146116495760405162461bcd60e51b81526004016107a4906141d7565b610d0b81612bab565b6009546001600160a01b0316331461166957600080fd5b600d54604051632a303aed60e11b81526001600160a01b039091169063546075da9061104490869086908690600401613fff565b60008181526006602052604090205481906001600160a01b031633146116d55760405162461bcd60e51b81526004016107a4906142cc565b60008181526006602052604080822080546001600160a01b031916905551829160008051602061445483398151915291a2600d546000838152600f602052604080822060018101549151632007557f60e21b815292936001600160a01b039081169363801d55fc9361174d9392169190600401613d7e565b602060405180830381600087803b15801561176757600080fd5b505af115801561177b573d6000803e3d6000fd5b505050506040513d601f19601f8201168201806040525081019061179f9190613a54565b6010546000858152600f6020526040908190206001810154600d549251632512be9360e01b81529495506001600160a01b03938416946306d6bda794918216938793921691632512be93916117f79190600401614060565b60206040518083038186803b15801561180f57600080fd5b505afa158015611823573d6000803e3d6000fd5b505050506040513d601f19601f820116820180604052508101906118479190613895565b6040518463ffffffff1660e01b815260040161186593929190613ed1565b600060405180830381600087803b15801561187f57600080fd5b505af1158015611893573d6000803e3d6000fd5b5050506000848152600f602052604081209150610f14828261326e565b6007546001600160a01b038281169116145b919050565b604080518082018252600f81526e0636865636b2d6f776e65727368697608c1b60208201526008549151637f7207c360e11b81526000928592916001600160a01b039091169063fee40f8690611921908590600401613b76565b60206040518083038186803b15801561193957600080fd5b505afa15801561194d573d6000803e3d6000fd5b505050506040513d601f19601f8201168201806040525081019061197191906137ee565b61198d5760405162461bcd60e51b81526004016107a4906140a6565b600854604051639dd1e44b60e01b81526001600160a01b0390911690639dd1e44b906119bf9085908590600401613cf1565b60206040518083038186803b1580156119d757600080fd5b505afa1580156119eb573d6000803e3d6000fd5b505050506040513d601f19601f82011682018060405250810190611a0f91906137ee565b611a2b5760405162461bcd60e51b81526004016107a490614295565b600854604051632ed20a2960e21b815260009182916001600160a01b039091169063bb4828a490611a60908a90600401613da2565b604080518083038186803b158015611a7757600080fd5b505afa158015611a8b573d6000803e3d6000fd5b505050506040513d601f19601f82011682018060405250810190611aaf9190613872565b91509150611abb6132b2565b611acc83306283cf1160e01b612a29565b9050611b0b6040518060400160405280600c81526020016b19da5d1a1d58955cd95c925960a21b815250886020015183612a4e9092919063ffffffff16565b6040805180820190915260098152681c995c1bd3dc99d25960ba1b60208201526080880151611b3b918391612a4e565b611b46888284612a6c565b3360e089015260008181526012602090815260409091208951815460ff1916901515178155818a015180519399508a939192611b8a926001850192909101906132e7565b5060408201518051611ba69160028401916020909101906132e7565b5060608201518051611bc29160038401916020909101906132e7565b5060808201518051611bde9160048401916020909101906132e7565b5060a0820151600591909101805460c084015160e09094015161ffff1990911661ffff9384161763ffff0000191662010000939094169290920292909217640100000000600160c01b0319166401000000006001600160a01b039092169190910217905550939695505050505050565b611c566129c4565b6000546001600160a01b03908116911614611c835760405162461bcd60e51b81526004016107a4906141d7565b60085460405163583d789b60e01b81526001600160a01b039091169063583d789b9061104490869086908690600401613bd4565b611cbf6129c4565b6000546001600160a01b03908116911614611cec5760405162461bcd60e51b81526004016107a4906141d7565b610d0b81612bf6565b600f6020908152600091825260409182902080548351601f60026000196101006001861615020190931692909204918201849004840281018401909452808452909291839190830182828015610fc25780601f10610f9757610100808354040283529160200191610fc2565b600d54604051634c7ad98160e11b81526001600160a01b03909116906398f5b30290611d93908490339060040161433f565b600060405180830381600087803b158015611dad57600080fd5b505af1158015611dc1573d6000803e3d6000fd5b5050505050565b611dd06129c4565b6000546001600160a01b03908116911614611dfd5760405162461bcd60e51b81526004016107a4906141d7565b610d0b81612c41565b611e0e6129c4565b6000546001600160a01b03908116911614611e3b5760405162461bcd60e51b81526004016107a4906141d7565b600080546040516001600160a01b03909116907f8be0079c531659141344cd1fd0a4f28419497f9722a3daafe3b4186f6b6457e0908390a3600080546001600160a01b0319169055565b6007546001600160a01b031681565b600d546040516363e30a7d60e11b81526001600160a01b039091169063c7c614fa90611d93908490339060040161433f565b601054604051638f90df9560e01b81526001600160a01b0390911690638f90df9590611ef6908490600401613b76565b60006040518083038186803b158015611f0e57600080fd5b505afa158015611f22573d6000803e3d6000fd5b505050506040513d6000823e601f3d908101601f19168201604052611f4a91908101906139eb565b51611f675760405162461bcd60e51b81526004016107a490614314565b600e5460405163e7957c3560e01b81526001600160a01b039091169063e7957c3590611f9c9033908590600290600401613b8a565b60206040518083038186803b158015611fb457600080fd5b505afa158015611fc8573d6000803e3d6000fd5b505050506040513d601f19601f82011682018060405250810190611fec91906137ee565b6120085760405162461bcd60e51b81526004016107a49061420c565b600d546040516386d0e60960e01b81526001600160a01b03909116906386d0e6099061104490869086908690600401613fd3565b6008546001600160a01b031681565b6000546001600160a01b03165b90565b6012602090815260009182526040918290208054600180830180548651600261010094831615949094026000190190911692909204601f810186900486028301860190965285825260ff9092169492939092908301828280156120ff5780601f106120d4576101008083540402835291602001916120ff565b820191906000526020600020905b8154815290600101906020018083116120e257829003601f168201915b50505060028085018054604080516020601f60001961010060018716150201909416959095049283018590048502810185019091528181529596959450909250908301828280156121915780601f1061216657610100808354040283529160200191612191565b820191906000526020600020905b81548152906001019060200180831161217457829003601f168201915b5050505060038301805460408051602060026001851615610100026000190190941693909304601f81018490048402820184019092528181529495949350908301828280156122215780601f106121f657610100808354040283529160200191612221565b820191906000526020600020905b81548152906001019060200180831161220457829003601f168201915b5050505060048301805460408051602060026001851615610100026000190190941693909304601f81018490048402820184019092528181529495949350908301828280156122b15780601f10612286576101008083540402835291602001916122b1565b820191906000526020600020905b81548152906001019060200180831161229457829003601f168201915b5050506005909301549192505061ffff80821691620100008104909116906001600160a01b036401000000009091041688565b600d54604051634f6e037760e11b81526001600160a01b0390911690639edc06ee90349061231a90869086903390600401613fd3565b6000604051808303818588803b15801561105e57600080fd5b6010546001600160a01b031681565b61234a6129c4565b6000546001600160a01b039081169116146123775760405162461bcd60e51b81526004016107a4906141d7565b610d0b81612c8c565b600e546001600160a01b031681565b61239983836128f7565b6123a4838383611ec6565b505050565b600d54600b5460405163c155f9bd60e01b81526001600160a01b039283169263e14c375f92859233929091169063c155f9bd906123ea908490600401613b76565b60006040518083038186803b15801561240257600080fd5b505afa158015612416573d6000803e3d6000fd5b505050506040513d6000823e601f3d908101601f1916820160405261243e91908101906139eb565b6040518463ffffffff1660e01b8152600401611d9393929190614356565b600b546001600160a01b031681565b6124736129c4565b6000546001600160a01b039081169116146124a05760405162461bcd60e51b81526004016107a4906141d7565b610d0b81612cd7565b6124b16129c4565b6000546001600160a01b039081169116146124de5760405162461bcd60e51b81526004016107a4906141d7565b610d0b81612d22565b6040805180820182526008808252673932b3b4b9ba32b960c11b6020830152549151637f7207c360e11b81526000928692916001600160a01b039091169063fee40f8690612539908590600401613b76565b60206040518083038186803b15801561255157600080fd5b505afa158015612565573d6000803e3d6000fd5b505050506040513d601f19601f8201168201806040525081019061258991906137ee565b6125a55760405162461bcd60e51b81526004016107a4906140a6565b600854604051639dd1e44b60e01b81526001600160a01b0390911690639dd1e44b906125d79085908590600401613cf1565b60206040518083038186803b1580156125ef57600080fd5b505afa158015612603573d6000803e3d6000fd5b505050506040513d601f19601f8201168201806040525081019061262791906137ee565b6126435760405162461bcd60e51b81526004016107a490614295565b600854604051632ed20a2960e21b815260009182916001600160a01b039091169063bb4828a490612678908b90600401613e0e565b604080518083038186803b15801561268f57600080fd5b505afa1580156126a3573d6000803e3d6000fd5b505050506040513d601f19601f820116820180604052508101906126c79190613872565b915091506126d36132b2565b6126e58330631082b3cf60e21b612a29565b905061274f6040518060400160405280600c81526020016b19da5d1a1d58955cd95c925960a21b81525089898080601f016020809104026020016040519081016040528093929190818152602001838380828437600092019190915250869493925050612a4e9050565b6127856040518060400160405280600a8152602001696574684164647265737360b01b8152506113ce6127806129c4565b612d6d565b612790898284612a6c565b6040805160606020601f8c01819004028201810183529181018a81529298509182918b908b90819085018382808284376000920191909152505050908252506020016127da6129c4565b6001600160a01b031690526000878152600c602090815260409091208251805191926114a9928492909101906132e7565b60105460405163e1aaf80160e01b81526001600160a01b039091169063e1aaf80190611044908690869086903390600401613f91565b6128496129c4565b6000546001600160a01b039081169116146128765760405162461bcd60e51b81526004016107a4906141d7565b6001600160a01b03811661289c5760405162461bcd60e51b81526004016107a4906140d6565b600080546040516001600160a01b03808516939216917f8be0079c531659141344cd1fd0a4f28419497f9722a3daafe3b4186f6b6457e091a3600080546001600160a01b0319166001600160a01b0392909216919091179055565b600d5460405163e54f54a960e01b81526001600160a01b039091169063e54f54a990349061231a90869086903390600401613fd3565b6129356129c4565b6000546001600160a01b039081169116146129625760405162461bcd60e51b81526004016107a4906141d7565b600854604051633f7217f160e21b81526001600160a01b039091169063fdc85fc490611d93908490600401613b76565b6000601836108015906129a957506129a9336118b0565b156129bd575060131936013560601c612058565b5033612058565b60006129ce612992565b905090565b600d80546001600160a01b0319166001600160a01b0383161790556040517fa7f1cf8dcbcb1fa8421f563a445c32f7539e77aa7ff1f74a1340e6a07f40640290612a1e908390613b76565b60405180910390a150565b612a316132b2565b612a396132b2565b612a4581868686612e50565b95945050505050565b6080830151612a5d9083612e8d565b60808301516123a49082612e8d565b600030600554604051602001612a83929190613b54565b60408051808303601f19018152918152815160209283012060055460608701526000818152600690935281832080546001600160a01b0319166001600160a01b038916179055905190925082917fb5e6e01e79f91267dc17b4e6314d5d4d03593d2ceee0fbb452b750bd70ea5af991a26003546001600160a01b0316634000aea08584612b0f87612ea4565b6040518463ffffffff1660e01b8152600401612b2d93929190613eaa565b602060405180830381600087803b158015612b4757600080fd5b505af1158015612b5b573d6000803e3d6000fd5b505050506040513d601f19601f82011682018060405250810190612b7f91906137ee565b612b9b5760405162461bcd60e51b81526004016107a49061411c565b6005805460010190559392505050565b600880546001600160a01b0319166001600160a01b0383161790556040517f2cdcc189927b3cee3e431400dfc309b9d91d01d49c4948245e719258bc67191e90612a1e908390613b76565b601080546001600160a01b0319166001600160a01b0383161790556040517f805bc30b9f0485a7b999877abc80591d6a9f19dc80637e66a8c53866c869a56690612a1e908390613b76565b600b80546001600160a01b0319166001600160a01b0383161790556040517f47a741dd6477ca582acb3b97bf19f307712c5699a5afc355ba935a8706e85bf190612a1e908390613b76565b600e80546001600160a01b0319166001600160a01b0383161790556040517f9783fc86d55b5bc32eacdb6429d4c74bd160c60186add12c8b9dc2cef3b4dc4890612a1e908390613b76565b601180546001600160a01b0319166001600160a01b0383161790556040517f963a4d8ee7ff8b4d9e706dda742b1f940d4fa5fc6a04e86f2b119de5341cbd9190612a1e908390613b76565b600780546001600160a01b0319166001600160a01b0383161790556040517fbcb011e6c2b421bcf7f7892a40d76e2a09f136fa40eda7b0d5eaef8aa0eb318390612a1e908390613b76565b60606001600160a01b03821680612d9d5750506040805180820190915260018152600360fc1b60208201526118c2565b8060005b8115612db557600101600a82049150612da1565b6060816001600160401b0381118015612dcd57600080fd5b506040519080825280601f01601f191660200182016040528015612df8576020820181803683370190505b50905060001982015b8415612e4657600a850660300160f81b82828060019003935081518110612e2457fe5b60200101906001600160f81b031916908160001a905350600a85049450612e01565b5095945050505050565b612e586132b2565b612e688560800151610100612f20565b50509183526001600160a01b031660208301526001600160e01b031916604082015290565b612e9a8260038351612f60565b6123a48282613039565b6060634042994660e01b60008084600001518560200151866040015187606001516001896080015160000151604051602401612ee7989796959493929190613e42565b60408051601f198184030181529190526020810180516001600160e01b03166001600160e01b0319909316929092179091529050919050565b612f28613365565b6020820615612f3d5760208206602003820191505b506020808301829052604080518085526000815283019091019052815b92915050565b60178111612f8157612f7b8360e0600585901b16831761305a565b506123a4565b60ff8111612fab57612f9e836018611fe0600586901b161761305a565b50612f7b83826001613072565b61ffff8111612fd657612fc9836019611fe0600586901b161761305a565b50612f7b83826002613072565b63ffffffff811161300357612ff683601a611fe0600586901b161761305a565b50612f7b83826004613072565b6001600160401b0381116123a45761302683601b611fe0600586901b161761305a565b5061303383826008613072565b50505050565b613041613365565b61305383846000015151848551613093565b9392505050565b613062613365565b613053838460000151518461313f565b61307a613365565b61308b84856000015151858561318a565b949350505050565b61309b613365565b82518211156130a957600080fd5b846020015182850111156130d3576130d3856130cb87602001518786016131e8565b6002026131ff565b6000808651805187602083010193508088870111156130f25787860182525b505050602084015b602084106131195780518252601f1990930192602091820191016130fa565b51815160001960208690036101000a019081169019919091161790525083949350505050565b613147613365565b83602001518310613163576131638485602001516002026131ff565b835180516020858301018481535080851415613180576001810182525b5093949350505050565b613192613365565b846020015184830111156131af576131af858584016002026131ff565b60006001836101000a0390508551838682010185831982511617815250805184870111156131dd5783860181525b509495945050505050565b6000818311156131f9575081612f5a565b50919050565b815161320b8383612f20565b506130338382613039565b60405180610100016040528060001515815260200160608152602001606081526020016060815260200160608152602001600061ffff168152602001600061ffff16815260200160006001600160a01b031681525090565b50805460018160011615610100020316600290046000825580601f106132945750610d0b565b601f016020900490600052602060002090810190610d0b919061337f565b6040805160a0810182526000808252602082018190529181018290526060810191909152608081016132e2613365565b905290565b828054600181600116156101000203166002900490600052602060002090601f016020900481019282601f1061332857805160ff1916838001178555613355565b82800160010185558215613355579182015b8281111561335557825182559160200191906001019061333a565b5061336192915061337f565b5090565b604051806040016040528060608152602001600081525090565b5b808211156133615760008155600101613380565b8035612f5a81614420565b600082601f8301126133af578081fd5b81356133c26133bd826143a6565b614380565b81815291506020808301908481016040808502870183018810156133e557600080fd5b60005b8581101561340c576133fa89846134b7565b855293830193918101916001016133e8565b50505050505092915050565b8035612f5a81614435565b60008083601f840112613434578182fd5b5081356001600160401b0381111561344a578182fd5b60208301915083602082850101111561346257600080fd5b9250929050565b600082601f830112613479578081fd5b81356134876133bd826143c5565b915080825283602082850101111561349e57600080fd5b8060208401602084013760009082016020015292915050565b6000604082840312156134c8578081fd5b6134d26040614380565b9050813581526020820135602082015292915050565b803561ffff81168114612f5a57600080fd5b60006020828403121561350b578081fd5b813561305381614420565b60008060006040848603121561352a578182fd5b833561353581614420565b925060208401356001600160401b0381111561354f578283fd5b61355b86828701613423565b9497909650939450505050565b60008060008060006080868803121561357f578081fd5b853561358a81614420565b94506020868101356001600160401b03808211156135a6578384fd5b6135b28a838b01613423565b909750955060408901359150808211156135ca578384fd5b818901915089601f8301126135dd578384fd5b81356135eb6133bd826143a6565b81815284810190848601875b848110156136205761360e8f8984358a0101613469565b845292870192908701906001016135f7565b50909750505050606089013592508083111561363a578384fd5b50506136488882890161339f565b9150509295509295909350565b6000806000806080858703121561366a578384fd5b843561367581614420565b935060208501356001600160401b0381111561368f578384fd5b61369b87828801613423565b90945092506136af905086604087016134b7565b905092959194509250565b600080604083850312156136cc578182fd5b82356136d781614420565b915060208301356001600160401b03808211156136f2578283fd5b8185019150610100808388031215613708578384fd5b61371181614380565b905061371d8784613418565b8152602083013582811115613730578485fd5b61373c88828601613469565b602083015250604083013582811115613753578485fd5b61375f88828601613469565b604083015250606083013582811115613776578485fd5b61378288828601613469565b606083015250608083013582811115613799578485fd5b6137a588828601613469565b6080830152506137b88760a085016134e8565b60a08201526137ca8760c085016134e8565b60c08201526137dc8760e08501613394565b60e08201528093505050509250929050565b6000602082840312156137ff578081fd5b815161305381614435565b60006020828403121561381b578081fd5b5035919050565b60008060408385031215613834578182fd5b82359150602083013561384681614435565b809150509250929050565b60008060408385031215613863578182fd5b50508035926020909101359150565b60008060408385031215613884578182fd5b505080516020909101519092909150565b6000602082840312156138a6578081fd5b815161305381614420565b6000806000606084860312156138c5578081fd5b83356138d081614420565b925060208401356138e081614443565b915060408401356138f081614443565b809150509250925092565b60006020828403121561390c578081fd5b815160028110613053578182fd5b6000806020838503121561392c578182fd5b82356001600160401b03811115613941578283fd5b61394d85828601613423565b90969095509350505050565b60008060006040848603121561396d578081fd5b83356001600160401b03811115613982578182fd5b61398e86828701613423565b90945092505060208401356138f081614420565b6000806000604084860312156139b6578081fd5b83356001600160401b038111156139cb578182fd5b6139d786828701613423565b909790965060209590950135949350505050565b6000602082840312156139fc578081fd5b81516001600160401b03811115613a11578182fd5b8201601f81018413613a21578182fd5b8051613a2f6133bd826143c5565b818152856020838501011115613a43578384fd5b612a458260208301602086016143f4565b600060208284031215613a65578081fd5b5051919050565b60008151808452613a848160208601602086016143f4565b601f01601f19169290920160200192915050565b60008284528282602086013780602084860101526020601f19601f85011685010190509392505050565b60008154600180821660008114613ae05760018114613afe57613b3c565b60028304607f16865260ff1983166020870152604086019350613b3c565b60028304808752613b0e866143e8565b60005b82811015613b325781546020828b0101528482019150602081019050613b11565b8801602001955050505b50505092915050565b80518252602090810151910152565b60609290921b6bffffffffffffffffffffffff19168252601482015260340190565b6001600160a01b0391909116815260200190565b6001600160a01b038481168252831660208201526060810160048310613bac57fe5b826040830152949350505050565b6001600160a01b0392831681529116602082015260400190565b6001600160a01b0384168152604060208201819052600090612a459083018486613a98565b6001600160a01b038616815260806020808301829052600091613c1f9084018789613a98565b604084820381860152818751808452848401915084858202850101858a01875b83811015613c6d57601f19878403018552613c5b838351613a6c565b94880194925090870190600101613c3f565b5050878103606089015288518082529086019450915050838701855b82811015613cac57613c9c858351613b45565b9383019390850190600101613c89565b50929b9a5050505050505050505050565b6001600160a01b0385168152608060208201819052600090613ce29083018587613a98565b9050612a456040830184613b45565b6001600160a01b038316815260406020820181905260009061308b90830184613a6c565b6001600160a01b038716815260c060208201819052600090613d3990830188613a6c565b61ffff8781166040850152861660608401528281036080840152613d5d8186613a6c565b905082810360a0840152613d718185613a6c565b9998505050505050505050565b6001600160a01b038316815260406020820181905260009061308b90830184613ac2565b6001600160a01b03919091168152604060208201819052600f908201526e0636865636b2d6f776e65727368697608c1b606082015260800190565b6001600160a01b0391909116815260406020820181905260059082015264636c61696d60d81b606082015260800190565b6001600160a01b03919091168152604060208201819052600890820152673932b3b4b9ba32b960c11b606082015260800190565b6001600160a01b0389811682526020820189905260408201889052861660608201526001600160e01b03198516608082015260a0810184905260c0810183905261010060e08201819052600090613e9b83820185613a6c565b9b9a5050505050505050505050565b600060018060a01b038516825283602083015260606040830152612a456060830184613a6c565b6001600160a01b0393841681526020810192909252909116604082015260600190565b901515815260200190565b60006101008a15158352806020840152613f1b8184018b613a6c565b90508281036040840152613f2f818a613a6c565b90508281036060840152613f438189613a6c565b90508281036080840152613f578188613a6c565b61ffff96871660a08501529490951660c0830152506001600160a01b039190911660e0909101529695505050505050565b90815260200190565b6001600160a01b03948516815261ffff93841660208201529190921660408201529116606082015260800190565b60006020825261308b602083018486613a98565b600060408252613fe7604083018587613a98565b905060018060a01b0383166020830152949350505050565b600060408252614013604083018587613a98565b9050826020830152949350505050565b6000602082526130536020830184613a6c565b6000604082526140496040830185613a6c565b905060018060a01b03831660208301529392505050565b6000602082526130536020830184613ac2565b6000606082526140866060830186613ac2565b6020830194909452506001600160a01b0391909116604090910152919050565b60208082526016908201527527b930b1b632903237b2b9903737ba1032bc34b9ba1760511b604082015260600190565b60208082526026908201527f4f776e61626c653a206e6577206f776e657220697320746865207a65726f206160408201526564647265737360d01b606082015260800190565b60208082526023908201527f756e61626c6520746f207472616e73666572416e6443616c6c20746f206f7261604082015262636c6560e81b606082015260800190565b6020808252602f908201527f55736572206973206e6f74206f776e6572206f66206f7267616e697a6174696f60408201526e6e206f72207265706f7369746f727960881b606082015260800190565b6020808252600f908201526e139bc81cdd58da081c995c5d595cdd608a1b604082015260600190565b6020808252818101527f4f776e61626c653a2063616c6c6572206973206e6f7420746865206f776e6572604082015260600190565b6020808252603d908201527f596f7520646f6e27742068617665207065726d697373696f6e20746f2073657460408201527f20676f7665726e616e636520746f6b656e7320666f7220697373756573000000606082015260800190565b60208082526012908201527124b9b9bab29034b9903737ba1027a822a71760711b604082015260600190565b6020808252601a908201527f4f7261636c65206a6f6220646f6573206e6f742065786973742e000000000000604082015260600190565b60208082526028908201527f536f75726365206d75737420626520746865206f7261636c65206f6620746865604082015267081c995c5d595cdd60c21b606082015260800190565b60208082526011908201527024b73b30b634b2102fb3b7bb2a37b5b2b760791b604082015260600190565b9182526001600160a01b0316602082015260400190565b8381526001600160a01b0383166020820152606060408201819052600090612a4590830184613a6c565b6040518181016001600160401b038111828210171561439e57600080fd5b604052919050565b60006001600160401b038211156143bb578081fd5b5060209081020190565b60006001600160401b038211156143da578081fd5b50601f01601f191660200190565b60009081526020902090565b60005b8381101561440f5781810151838201526020016143f7565b838111156130335750506000910152565b6001600160a01b0381168114610d0b57600080fd5b8015158114610d0b57600080fd5b61ffff81168114610d0b57600080fdfe7cc135e0cebb02c3480ae5d74d377283180a2601f8f644edf7987b009316c63aa26469706673582212208e69b268d618c3ee921ba7d20abdd1a0cd10e219886bab919589792487f96d3164736f6c634300060c0033",
  "immutableReferences": {},
  "source": "// SPDX-License-Identifier: MIT\npragma solidity ^0.6.0;\npragma experimental ABIEncoderV2;\n\nimport '@openzeppelin/contracts/access/Ownable.sol';\nimport '@chainlink/contracts/src/v0.6/ChainlinkClient.sol';\nimport \"@chainlink/contracts/src/v0.6/interfaces/AggregatorV3Interface.sol\";\nimport '@opengsn/gsn/contracts/BaseRelayRecipient.sol';\nimport './UserAddressStorage.sol';\nimport './OracleStorage.sol';\nimport './OctobayGovToken.sol';\nimport './OctobayGovernor.sol';\nimport './OctobayGovNFT.sol';\nimport './DepositStorage.sol';\n\ncontract Octobay is Ownable, ChainlinkClient, BaseRelayRecipient {\n\n    constructor(\n        address _link,\n        address _forwarder,\n        address _userAddressStorage,\n        address _oracleStorage,\n        address _depositStorage,\n        address _octobayGovernor,\n        address _octobayGovNFT,\n        address _ethUSDPriceFeed\n    ) public {\n        setChainlinkToken(_link);\n        _setTrustedForwarder(_forwarder); // GSN trusted forwarder\n        _setUserAddressStorage(_userAddressStorage);\n        _setOracleStorage(_oracleStorage);\n        _setDepositStorage(_depositStorage);\n        _setOctobayGovernor(_octobayGovernor);\n        _setOctobayGovNFT(_octobayGovNFT);\n        _setEthUSDPriceFeed(_ethUSDPriceFeed);\n    }\n\n    // ------------ Set contract addresses ------------ //\n\n    event SetTrustedForwarderEvent(address forwarder);\n    event SetUserAddressStorageEvent(address addressStorage);\n    event SetOracleStorageEvent(address oracleStorage);\n    event SetDepositStorageEvent(address depositStorage);\n    event SetOctobayGovernorEvent(address octobayGovernor);\n    event SetOctobayGovNFTEvent(address octobayGovNFT);\n    event SetEthUSDPriceFeedEvent(address ethUsdPriceFeed);\n\n    function setTrustedForwarder(address _forwarder) external onlyOwner {\n        _setTrustedForwarder(_forwarder);\n    }\n\n    function setUserAddressStorage(address _userAddressStorage) external onlyOwner {\n        _setUserAddressStorage(_userAddressStorage);\n    }\n\n    function setOracleStorage(address _oracleStorage) external onlyOwner {\n        _setOracleStorage(_oracleStorage);\n    }\n\n    function setDepositStorage(address _depositStorage) external onlyOwner {\n        _setDepositStorage(_depositStorage);\n    }\n\n    function setOctobayGovernor(address _octobayGovernor) external onlyOwner {\n        _setOctobayGovernor(_octobayGovernor);\n    }\n\n    function setOctobayGovNFT(address _octobayGovNFT) external onlyOwner {\n        _setOctobayGovNFT(_octobayGovNFT);\n    }                    \n\n    function setEthUSDPriceFeed(address _ethUSDPriceFeed) external onlyOwner {\n        _setEthUSDPriceFeed(_ethUSDPriceFeed);\n    }\n\n    function _setTrustedForwarder(address _forwarder) internal {\n        trustedForwarder = _forwarder;\n        emit SetTrustedForwarderEvent(_forwarder);\n    }\n\n    function _setUserAddressStorage(address _userAddressStorage) internal {\n        userAddressStorage = UserAddressStorage(_userAddressStorage);\n        emit SetUserAddressStorageEvent(_userAddressStorage);\n    }\n\n    function _setOracleStorage(address _oracleStorage) internal {\n        oracleStorage = OracleStorage(_oracleStorage);\n        emit SetOracleStorageEvent(_oracleStorage);\n    }\n\n    function _setDepositStorage(address _depositStorage) internal {\n        depositStorage = DepositStorage(_depositStorage);\n        emit SetDepositStorageEvent(_depositStorage);\n    }\n\n    function _setOctobayGovernor(address _octobayGovernor) internal {\n        octobayGovernor = OctobayGovernor(_octobayGovernor);\n        emit SetOctobayGovernorEvent(_octobayGovernor);\n    }\n\n    function _setOctobayGovNFT(address _octobayGovNFT) internal {\n        octobayGovNFT = OctobayGovNFT(_octobayGovNFT);\n        emit SetOctobayGovNFTEvent(_octobayGovNFT);\n    }                    \n\n    function _setEthUSDPriceFeed(address _ethUSDPriceFeed) internal {\n        ethUSDPriceFeed = AggregatorV3Interface(_ethUSDPriceFeed);\n        emit SetEthUSDPriceFeedEvent(_ethUSDPriceFeed);\n    }\n\n    // ------------ Oracles ------------ //\n    \n    //TODO: These methods are all wrappers, can we call OracleStorage directly?\n\n    OracleStorage public oracleStorage;\n\n    modifier oracleHandlesJob(address _oracle, string memory _jobName) {\n        require(oracleStorage.oracleExists(_oracle), \"Oracle does not exist.\");\n        require(oracleStorage.oracleJobExists(_oracle, _jobName), \"Oracle job does not exist.\");\n        _;\n    }\n\n    function addOracle(\n        address _oracle,\n        string calldata _name,\n        string[] memory _jobNames,\n        OracleStorage.Job[] memory _jobs\n    ) external onlyOwner {\n        oracleStorage.addOracle(_oracle, _name, _jobNames, _jobs);\n    }\n\n    function removeOracle(address _oracle) external onlyOwner {\n        oracleStorage.removeOracle(_oracle);\n    }\n\n    function changeOracleName(address _oracle, string calldata _name) external onlyOwner {\n        oracleStorage.changeOracleName(_oracle, _name);\n    }\n\n    function addOracleJob(\n        address _oracle,\n        string calldata _jobName,\n        OracleStorage.Job memory _job\n    ) external onlyOwner {\n        oracleStorage.addOracleJob(_oracle, _jobName, _job);\n    }\n\n    function removeOracleJob(address _oracle, string calldata _jobName) external onlyOwner {\n        oracleStorage.removeOracleJob(_oracle, _jobName);\n    }\n\n    // ------------ GSN ------------ //\n\n\n    address octobayPaymaster;\n\n    function setPaymaster(address _octobayPaymaster) external onlyOwner {\n        octobayPaymaster = _octobayPaymaster;\n    }\n\n    function _msgSender() internal override(Context, BaseRelayRecipient)\n    view returns (address payable) {\n        return BaseRelayRecipient._msgSender();\n    }\n\n    function _msgData() internal override(Context, BaseRelayRecipient)\n    view returns (bytes memory ret) {\n        return BaseRelayRecipient._msgData();\n    }\n\n    string public override versionRecipient = '2.0.0'; // GSN version\n\n    function deductGasFee(string calldata _githubUserId, uint256 _amount)\n        external\n    {\n        // only paymaster, cause paymaster pays for gas fee on behalf of user\n        require(msg.sender == octobayPaymaster);\n        depositStorage.deductGasFee(_githubUserId, _amount);\n    }\n\n\n\n\n\n    // ------------ REGISTRATION ------------ //\n\n\n    UserAddressStorage public userAddressStorage;\n\n    struct UserAddressRegistration {\n        string githubUserId;\n        address ethAddress;\n    }\n\n    mapping(bytes32 => UserAddressRegistration) public userAddressRegistrations;\n\n    function registerUserAddress(\n        address _oracle,\n        string calldata _githubUserId\n    ) public oracleHandlesJob(_oracle, 'register') returns(bytes32 requestId) {\n        (bytes32 jobId, uint256 jobFee) = oracleStorage.getOracleJob(_oracle, 'register');\n        Chainlink.Request memory request =\n            buildChainlinkRequest(\n                jobId,\n                address(this),\n                this.confirmRegisterUserAddress.selector\n            );\n        request.add('githubUserId', _githubUserId);\n        request.add('ethAddress', addressToIntString(_msgSender()));\n        requestId = sendChainlinkRequestTo(_oracle, request, jobFee);\n\n        userAddressRegistrations[requestId] = UserAddressRegistration(_githubUserId, _msgSender());\n    }\n\n    function confirmRegisterUserAddress(bytes32 _requestId, bytes32 _addressName)\n        public\n        recordChainlinkFulfillment(_requestId)\n    {\n        userAddressStorage.addUserAddress(\n            userAddressRegistrations[_requestId].githubUserId,\n            _addressName,\n            userAddressRegistrations[_requestId].ethAddress\n        );\n\n        delete userAddressRegistrations[_requestId];\n    }\n\n    // ------------ USER DEPOSITS ------------ //\n\n    DepositStorage public depositStorage;\n\n    function depositEthForGithubUser(string calldata _githubUserId)\n        external\n        payable\n    {\n        // Forwards eth payment to depositStorage to hold\n        depositStorage.depositEthForGithubUser{value: msg.value}(_githubUserId, msg.sender);\n    }\n\n    function refundUserDeposit(uint256 _depositId) external {\n        depositStorage.refundUserDeposit(_depositId, msg.sender);\n    }\n\n    function withdrawUserDeposit(uint256 _depositId) external {\n        depositStorage.withdrawUserDeposit(_depositId, msg.sender, userAddressStorage.userIdsByAddress(msg.sender));\n    }\n\n    // ------------ ISSUE DEPOSITS ------------ //\n\n    OctobayGovNFT public octobayGovNFT;\n\n    function depositAndSetGovTokenForIssue(string calldata _issueId, OctobayGovToken _govToken) external payable {\n        depositEthForIssue(_issueId);\n        setGovTokenForIssue(_issueId, _govToken);\n    }\n\n    function setGovTokenForIssue(string calldata _issueId, OctobayGovToken _govToken) public {\n        // Ensure they're giving us a valid gov token\n        require(bytes(octobayGovernor.projectsByToken(_govToken)).length != 0, \"Invalid _govToken\");\n        require(octobayGovNFT.userHasPermissionForGovToken(msg.sender, _govToken, OctobayGovNFT.Permission.SET_ISSUE_GOVTOKEN), \n            \"You don't have permission to set governance tokens for issues\");\n        depositStorage.setGovTokenForIssue(_issueId, _govToken);\n    }\n\n    function depositEthForIssue(string calldata _issueId) public payable {\n        // Forwards eth payment to depositStorage to hold\n        depositStorage.depositEthForIssue{value: msg.value}(_issueId, msg.sender);\n    }\n\n    function refundIssueDeposit(uint256 _depositId) external {\n        depositStorage.refundIssueDeposit(_depositId, msg.sender);\n    }\n\n    // ------------ ISSUE CLAIMING ------------ //\n\n    struct IssueWithdrawRequest {\n        string issueId;\n        address payoutAddress;\n    }\n\n    mapping(bytes32 => IssueWithdrawRequest) public issueWithdrawRequests;\n\n    function withdrawIssueDeposit(\n        address _oracle,\n        string calldata _issueId\n    ) public oracleHandlesJob(_oracle, 'claim') returns(bytes32 requestId) {\n        require(depositStorage.issueStatusByIssueId(_issueId) == DepositStorage.IssueStatus.OPEN, 'Issue is not OPEN.'); \n\n        (bytes32 jobId, uint256 jobFee) = oracleStorage.getOracleJob(_oracle, 'claim');\n        Chainlink.Request memory request =\n            buildChainlinkRequest(\n                jobId,\n                address(this),\n                this.confirmWithdrawIssueDeposit.selector\n            );\n        request.add('githubUserId', userAddressStorage.userIdsByAddress(msg.sender));\n        request.add('issueId', _issueId);\n        requestId = sendChainlinkRequestTo(_oracle, request, jobFee);\n        issueWithdrawRequests[requestId] = IssueWithdrawRequest({\n            issueId: _issueId,\n            payoutAddress: msg.sender\n        });\n    }\n\n    function confirmWithdrawIssueDeposit(bytes32 _requestId)\n        public\n        recordChainlinkFulfillment(_requestId)\n    {\n        uint256 payoutAmt = depositStorage.confirmWithdrawIssueDeposit(issueWithdrawRequests[_requestId].payoutAddress, issueWithdrawRequests[_requestId].issueId);\n        octobayGovernor.awardGovernanceTokens(\n            issueWithdrawRequests[_requestId].payoutAddress, \n            payoutAmt, \n            depositStorage.govTokenByIssueId(issueWithdrawRequests[_requestId].issueId));\n        delete issueWithdrawRequests[_requestId];\n    }\n\n\n\n    // ------------ GOVERNANCE ------------ //\n\n    OctobayGovernor public octobayGovernor;\n    AggregatorV3Interface internal ethUSDPriceFeed;\n\n    /// @notice Used to store Chainlink requests for new governance tokens\n    struct NewGovernanceToken {\n        bool isValue; // Ensure we have a valid value in the map\n        string githubUserId; // Github graphql ID of the user we need to check for ownership\n        string name; // Name of the new governance token\n        string symbol; // Symbol to use for the new governance token\n        string projectId; // Github graphql ID of the project (repo/org) to be associated with the new token\n        uint16 newProposalShare; // Share of gov tokens a holder requires before they can create new proposals\n        uint16 minQuorum; // The minimum quorum allowed for new proposals\n        address creator; // Address of the creator, we need to store this as we lose it in the Oracle callback otherwise\n    }\n\n    mapping(bytes32 => NewGovernanceToken) public newGovernanceTokenReqs;\n\n    /// @notice A request from the site to create a new governance token, checks ownership of the given\n    ///         project (repo or org) via a Chainlink Oracle request to confirm\n    /// @dev Using a struct as an argument here otherwise we get stack too deep errors\n    /// @param _oracle Specify the address of the _oracle to use for the request\n    /// @param _newToken The details of the new governance token to create\n    function createGovernanceToken(\n        address _oracle,\n        NewGovernanceToken memory _newToken\n    ) public oracleHandlesJob(_oracle, 'check-ownership') returns(bytes32 requestId) {\n        (bytes32 jobId, uint256 jobFee) = oracleStorage.getOracleJob(_oracle, 'check-ownership');\n        Chainlink.Request memory request =\n            buildChainlinkRequest(\n                jobId,\n                address(this),\n                this.confirmCreateGovernanceToken.selector\n            );\n        request.add('githubUserId', _newToken.githubUserId);\n        request.add('repoOrgId', _newToken.projectId);\n        requestId = sendChainlinkRequestTo(_oracle, request, jobFee);\n\n        _newToken.creator = msg.sender;\n        newGovernanceTokenReqs[requestId] = _newToken;\n    }\n\n    /// @notice Called in response by the Chainlink Oracle, continues with governance token creation\n    /// @param _requestId Chainlink request ID being returned\n    /// @param _result True if the given github user is an owner of the given project (org/repo)\n    function confirmCreateGovernanceToken(bytes32 _requestId, bool _result)\n        public\n        recordChainlinkFulfillment(_requestId)\n    {\n        require(_result, \"User is not owner of organization or repository\");\n        NewGovernanceToken memory newToken = newGovernanceTokenReqs[_requestId];\n        require(newToken.isValue, \"No such request\");\n        delete newGovernanceTokenReqs[_requestId];\n\n        OctobayGovToken deployedToken = octobayGovernor.createGovernorAndToken(\n            newToken.creator,\n            newToken.projectId,\n            newToken.newProposalShare,\n            newToken.minQuorum,\n            newToken.name,\n            newToken.symbol\n        );\n        uint256 nftId = octobayGovNFT.mintNFTForGovToken(newToken.creator, deployedToken);\n        octobayGovNFT.grantAllPermissions(nftId);\n    }\n\n    /// @notice A request from the site to update a governance token's params for new proposals\n    /// @param _govToken The address of the governance token for this governor\n    /// @param _newProposalShare Share of gov tokens a holder requires before they can create new proposals\n    /// @param _minQuorum The minimum quorum allowed for new proposals    \n    function updateGovTokenParams(OctobayGovToken _govToken, uint16 _newProposalShare, uint16 _minQuorum)\n        public\n    {\n        octobayGovernor.updateGovTokenParams(_govToken, _newProposalShare, _minQuorum, msg.sender);\n    }\n\n    // ------------ UTILS ------------ //\n\n\n    function addressToIntString(address _address)\n        internal\n        pure\n        returns (string memory _string)\n    {\n        uint256 _i = uint256(_address);\n        if (_i == 0) {\n            return '0';\n        }\n        uint256 j = _i;\n        uint256 len;\n        while (j != 0) {\n            len++;\n            j /= 10;\n        }\n        bytes memory bstr = new bytes(len);\n        uint256 k = len - 1;\n        while (_i != 0) {\n            bstr[k--] = bytes1(uint8(48 + (_i % 10)));\n            _i /= 10;\n        }\n        return string(bstr);\n    }\n}\n",
  "sourcePath": "/home/mkt/Projects/octobay/contracts/contracts/Octobay.sol",
  "compiler": {
    "name": "solc",
    "version": "0.6.12+commit.27d51765.Emscripten.clang"
  },
  "schemaVersion": "3.3.4",
  "updatedAt": "2021-05-09T20:40:30.588Z",
  "devdoc": {
    "kind": "dev",
    "methods": {
      "confirmCreateGovernanceToken(bytes32,bool)": {
        "params": {
          "_requestId": "Chainlink request ID being returned",
          "_result": "True if the given github user is an owner of the given project (org/repo)"
        }
      },
      "createGovernanceToken(address,(bool,string,string,string,string,uint16,uint16,address))": {
        "details": "Using a struct as an argument here otherwise we get stack too deep errors",
        "params": {
          "_newToken": "The details of the new governance token to create",
          "_oracle": "Specify the address of the _oracle to use for the request"
        }
      },
      "owner()": {
        "details": "Returns the address of the current owner."
      },
      "renounceOwnership()": {
        "details": "Leaves the contract without owner. It will not be possible to call `onlyOwner` functions anymore. Can only be called by the current owner. NOTE: Renouncing ownership will leave the contract without an owner, thereby removing any functionality that is only available to the owner."
      },
      "transferOwnership(address)": {
        "details": "Transfers ownership of the contract to a new account (`newOwner`). Can only be called by the current owner."
      },
      "updateGovTokenParams(address,uint16,uint16)": {
        "params": {
          "_govToken": "The address of the governance token for this governor",
          "_minQuorum": "The minimum quorum allowed for new proposals    ",
          "_newProposalShare": "Share of gov tokens a holder requires before they can create new proposals"
        }
      }
    },
    "version": 1
  },
  "userdoc": {
    "kind": "user",
    "methods": {
      "confirmCreateGovernanceToken(bytes32,bool)": {
        "notice": "Called in response by the Chainlink Oracle, continues with governance token creation"
      },
      "createGovernanceToken(address,(bool,string,string,string,string,uint16,uint16,address))": {
        "notice": "A request from the site to create a new governance token, checks ownership of the given         project (repo or org) via a Chainlink Oracle request to confirm"
      },
      "isTrustedForwarder(address)": {
        "notice": "return if the forwarder is trusted to forward relayed transactions to us. the forwarder is required to verify the sender's signature, and verify the call is not a replay."
      },
      "updateGovTokenParams(address,uint16,uint16)": {
        "notice": "A request from the site to update a governance token's params for new proposals"
      }
    },
    "version": 1
  }
}