{
  "contractName": "OctobayGovernor",
  "abi": [
    {
      "inputs": [
        {
          "internalType": "address",
          "name": "_octobayGovNFT",
          "type": "address"
        }
      ],
      "stateMutability": "nonpayable",
      "type": "constructor"
    },
    {
      "anonymous": false,
      "inputs": [
        {
          "indexed": false,
          "internalType": "address",
          "name": "recipient",
          "type": "address"
        },
        {
          "indexed": false,
          "internalType": "uint256",
          "name": "amount",
          "type": "uint256"
        },
        {
          "indexed": false,
          "internalType": "address",
          "name": "tokenAddr",
          "type": "address"
        }
      ],
      "name": "AwardGovernanceTokensEvent",
      "type": "event"
    },
    {
      "anonymous": false,
      "inputs": [
        {
          "indexed": false,
          "internalType": "address",
          "name": "creator",
          "type": "address"
        },
        {
          "indexed": false,
          "internalType": "string",
          "name": "projectId",
          "type": "string"
        },
        {
          "indexed": false,
          "internalType": "uint16",
          "name": "newProposalShare",
          "type": "uint16"
        },
        {
          "indexed": false,
          "internalType": "uint16",
          "name": "minQuorum",
          "type": "uint16"
        },
        {
          "indexed": false,
          "internalType": "string",
          "name": "tokenName",
          "type": "string"
        },
        {
          "indexed": false,
          "internalType": "string",
          "name": "tokenSymbol",
          "type": "string"
        },
        {
          "indexed": false,
          "internalType": "address",
          "name": "tokenAddress",
          "type": "address"
        }
      ],
      "name": "DepartmentCreatedEvent",
      "type": "event"
    },
    {
      "anonymous": false,
      "inputs": [
        {
          "indexed": true,
          "internalType": "address",
          "name": "previousOwner",
          "type": "address"
        },
        {
          "indexed": true,
          "internalType": "address",
          "name": "newOwner",
          "type": "address"
        }
      ],
      "name": "OwnershipTransferred",
      "type": "event"
    },
    {
      "anonymous": false,
      "inputs": [
        {
          "indexed": false,
          "internalType": "address",
          "name": "tokenAddress",
          "type": "address"
        },
        {
          "indexed": false,
          "internalType": "string",
          "name": "discussionId",
          "type": "string"
        },
        {
          "indexed": false,
          "internalType": "uint256",
          "name": "startDate",
          "type": "uint256"
        },
        {
          "indexed": false,
          "internalType": "uint256",
          "name": "endDate",
          "type": "uint256"
        },
        {
          "indexed": false,
          "internalType": "uint16",
          "name": "quorum",
          "type": "uint16"
        },
        {
          "indexed": false,
          "internalType": "address",
          "name": "creator",
          "type": "address"
        },
        {
          "indexed": false,
          "internalType": "uint256",
          "name": "proposalId",
          "type": "uint256"
        },
        {
          "indexed": false,
          "internalType": "uint256",
          "name": "snapshotId",
          "type": "uint256"
        }
      ],
      "name": "ProposalCreatedEvent",
      "type": "event"
    },
    {
      "anonymous": false,
      "inputs": [
        {
          "indexed": false,
          "internalType": "address",
          "name": "govToken",
          "type": "address"
        },
        {
          "indexed": false,
          "internalType": "uint16",
          "name": "newProposalShare",
          "type": "uint16"
        },
        {
          "indexed": false,
          "internalType": "uint16",
          "name": "minQuorum",
          "type": "uint16"
        }
      ],
      "name": "UpdateGovTokenParamsEvent",
      "type": "event"
    },
    {
      "anonymous": false,
      "inputs": [
        {
          "indexed": false,
          "internalType": "string",
          "name": "oldProjectId",
          "type": "string"
        },
        {
          "indexed": false,
          "internalType": "string",
          "name": "newProjectId",
          "type": "string"
        },
        {
          "indexed": false,
          "internalType": "address",
          "name": "tokenAddr",
          "type": "address"
        }
      ],
      "name": "UpdatedProjectId",
      "type": "event"
    },
    {
      "anonymous": false,
      "inputs": [
        {
          "indexed": false,
          "internalType": "address",
          "name": "tokenAddress",
          "type": "address"
        },
        {
          "indexed": false,
          "internalType": "uint256",
          "name": "proposalId",
          "type": "uint256"
        },
        {
          "indexed": false,
          "internalType": "string",
          "name": "discussionId",
          "type": "string"
        },
        {
          "indexed": false,
          "internalType": "int16",
          "name": "vote",
          "type": "int16"
        },
        {
          "indexed": false,
          "internalType": "address",
          "name": "voter",
          "type": "address"
        }
      ],
      "name": "VoteCastEvent",
      "type": "event"
    },
    {
      "inputs": [
        {
          "internalType": "contract OctobayGovToken",
          "name": "",
          "type": "address"
        }
      ],
      "name": "governorsByTokenAddr",
      "outputs": [
        {
          "internalType": "bool",
          "name": "isValue",
          "type": "bool"
        },
        {
          "internalType": "address",
          "name": "creator",
          "type": "address"
        },
        {
          "internalType": "uint256",
          "name": "proposalCount",
          "type": "uint256"
        },
        {
          "internalType": "uint16",
          "name": "newProposalShare",
          "type": "uint16"
        },
        {
          "internalType": "uint16",
          "name": "minQuorum",
          "type": "uint16"
        }
      ],
      "stateMutability": "view",
      "type": "function"
    },
    {
      "inputs": [],
      "name": "octobay",
      "outputs": [
        {
          "internalType": "address",
          "name": "",
          "type": "address"
        }
      ],
      "stateMutability": "view",
      "type": "function"
    },
    {
      "inputs": [],
      "name": "octobayGovNFT",
      "outputs": [
        {
          "internalType": "contract OctobayGovNFT",
          "name": "",
          "type": "address"
        }
      ],
      "stateMutability": "view",
      "type": "function"
    },
    {
      "inputs": [],
      "name": "owner",
      "outputs": [
        {
          "internalType": "address",
          "name": "",
          "type": "address"
        }
      ],
      "stateMutability": "view",
      "type": "function"
    },
    {
      "inputs": [
        {
          "internalType": "contract OctobayGovToken",
          "name": "",
          "type": "address"
        }
      ],
      "name": "projectsByToken",
      "outputs": [
        {
          "internalType": "string",
          "name": "",
          "type": "string"
        }
      ],
      "stateMutability": "view",
      "type": "function"
    },
    {
      "inputs": [],
      "name": "renounceOwnership",
      "outputs": [],
      "stateMutability": "nonpayable",
      "type": "function"
    },
    {
      "inputs": [
        {
          "internalType": "address",
          "name": "_octobay",
          "type": "address"
        }
      ],
      "name": "setOctobay",
      "outputs": [],
      "stateMutability": "nonpayable",
      "type": "function"
    },
    {
      "inputs": [
        {
          "internalType": "string",
          "name": "",
          "type": "string"
        },
        {
          "internalType": "uint256",
          "name": "",
          "type": "uint256"
        }
      ],
      "name": "tokensByProjectId",
      "outputs": [
        {
          "internalType": "contract OctobayGovToken",
          "name": "",
          "type": "address"
        }
      ],
      "stateMutability": "view",
      "type": "function"
    },
    {
      "inputs": [
        {
          "internalType": "address",
          "name": "newOwner",
          "type": "address"
        }
      ],
      "name": "transferOwnership",
      "outputs": [],
      "stateMutability": "nonpayable",
      "type": "function"
    },
    {
      "inputs": [
        {
          "internalType": "address",
          "name": "_creator",
          "type": "address"
        },
        {
          "internalType": "string",
          "name": "_projectId",
          "type": "string"
        },
        {
          "internalType": "uint16",
          "name": "_newProposalShare",
          "type": "uint16"
        },
        {
          "internalType": "uint16",
          "name": "_minQuorum",
          "type": "uint16"
        },
        {
          "internalType": "string",
          "name": "_name",
          "type": "string"
        },
        {
          "internalType": "string",
          "name": "_symbol",
          "type": "string"
        }
      ],
      "name": "createGovernorAndToken",
      "outputs": [
        {
          "internalType": "contract OctobayGovToken",
          "name": "newToken",
          "type": "address"
        }
      ],
      "stateMutability": "nonpayable",
      "type": "function"
    },
    {
      "inputs": [
        {
          "internalType": "address",
          "name": "_creator",
          "type": "address"
        },
        {
          "internalType": "contract OctobayGovToken",
          "name": "_newToken",
          "type": "address"
        },
        {
          "internalType": "uint16",
          "name": "_newProposalShare",
          "type": "uint16"
        },
        {
          "internalType": "uint16",
          "name": "_minQuorum",
          "type": "uint16"
        }
      ],
      "name": "createGovernor",
      "outputs": [],
      "stateMutability": "nonpayable",
      "type": "function"
    },
    {
      "inputs": [
        {
          "internalType": "contract OctobayGovToken",
          "name": "_govToken",
          "type": "address"
        },
        {
          "internalType": "uint16",
          "name": "_newProposalShare",
          "type": "uint16"
        },
        {
          "internalType": "uint16",
          "name": "_minQuorum",
          "type": "uint16"
        },
        {
          "internalType": "address",
          "name": "_msgSender",
          "type": "address"
        }
      ],
      "name": "updateGovTokenParams",
      "outputs": [],
      "stateMutability": "nonpayable",
      "type": "function"
    },
    {
      "inputs": [
        {
          "internalType": "contract OctobayGovToken",
          "name": "_govToken",
          "type": "address"
        },
        {
          "internalType": "string",
          "name": "_discussionId",
          "type": "string"
        },
        {
          "internalType": "uint256",
          "name": "_startDate",
          "type": "uint256"
        },
        {
          "internalType": "uint256",
          "name": "_endDate",
          "type": "uint256"
        },
        {
          "internalType": "uint16",
          "name": "_quorum",
          "type": "uint16"
        }
      ],
      "name": "createProposal",
      "outputs": [],
      "stateMutability": "nonpayable",
      "type": "function"
    },
    {
      "inputs": [
        {
          "internalType": "contract OctobayGovToken",
          "name": "_govToken",
          "type": "address"
        },
        {
          "internalType": "uint256",
          "name": "_proposalId",
          "type": "uint256"
        }
      ],
      "name": "proposalState",
      "outputs": [
        {
          "internalType": "enum OctobayGovernor.ProposalState",
          "name": "",
          "type": "uint8"
        }
      ],
      "stateMutability": "view",
      "type": "function"
    },
    {
      "inputs": [
        {
          "internalType": "contract OctobayGovToken",
          "name": "_govToken",
          "type": "address"
        },
        {
          "internalType": "uint256",
          "name": "_proposalId",
          "type": "uint256"
        },
        {
          "internalType": "int16",
          "name": "_vote",
          "type": "int16"
        }
      ],
      "name": "castVote",
      "outputs": [],
      "stateMutability": "nonpayable",
      "type": "function"
    },
    {
      "inputs": [
        {
          "internalType": "string",
          "name": "_name",
          "type": "string"
        },
        {
          "internalType": "string",
          "name": "_symbol",
          "type": "string"
        },
        {
          "internalType": "string",
          "name": "_projectId",
          "type": "string"
        }
      ],
      "name": "createToken",
      "outputs": [
        {
          "internalType": "contract OctobayGovToken",
          "name": "",
          "type": "address"
        }
      ],
      "stateMutability": "nonpayable",
      "type": "function"
    },
    {
      "inputs": [
        {
          "internalType": "contract OctobayGovToken",
          "name": "_govToken",
          "type": "address"
        },
        {
          "internalType": "string",
          "name": "_newProjectId",
          "type": "string"
        }
      ],
      "name": "updateProjectId",
      "outputs": [],
      "stateMutability": "nonpayable",
      "type": "function"
    },
    {
      "inputs": [
        {
          "internalType": "address",
          "name": "recipient",
          "type": "address"
        },
        {
          "internalType": "uint256",
          "name": "payoutEth",
          "type": "uint256"
        },
        {
          "internalType": "contract OctobayGovToken",
          "name": "tokenAddr",
          "type": "address"
        }
      ],
      "name": "awardGovernanceTokens",
      "outputs": [],
      "stateMutability": "nonpayable",
      "type": "function"
    }
  ],
  "bytecode": "0x60806040523480156200001157600080fd5b5060405162003d7d38038062003d7d8339810160408190526200003491620000b4565b600062000040620000b0565b600080546001600160a01b0319166001600160a01b0383169081178255604051929350917f8be0079c531659141344cd1fd0a4f28419497f9722a3daafe3b4186f6b6457e0908290a350600380546001600160a01b0319166001600160a01b0392909216919091179055620000e4565b3390565b600060208284031215620000c6578081fd5b81516001600160a01b0381168114620000dd578182fd5b9392505050565b613c8980620000f46000396000f3fe60806040523480156200001157600080fd5b50600436106200010c5760003560e01c806394aed7d0116200009f57806394aed7d014620001f5578063b66e2d56146200020c578063b910b6331462000223578063d7fee2eb146200022d578063dfb3aec61462000244578063e1aaf801146200026a578063f2fde38b1462000281578063f380e05c1462000298578063f442c01014620002af576200010c565b80630693f961146200011157806306d6bda71462000133578063148b92bc146200014c5780635defefe814620001635780636de3696e146200018d578063715018a614620001a45780638763bdca14620001ae5780638da5cb5b14620001c55780638f90df9514620001cf575b600080fd5b6200011b620002c6565b6040516200012a919062001ce9565b60405180910390f35b6200014a620001443660046200197b565b620002d5565b005b6200014a6200015d36600462001a37565b620003c7565b6200017a6200017436600462001822565b620007a9565b6040516200012a95949392919062001f3c565b6200014a6200019e36600462001848565b620007ec565b6200014a62000912565b6200014a620001bf36600462001b3c565b62000996565b6200011b62000c4d565b620001e6620001e036600462001822565b62000c5c565b6040516200012a919062001f86565b6200011b6200020636600462001b7c565b62000cfb565b6200011b6200021d36600462001c0a565b62000e3d565b6200011b62000e82565b6200014a6200023e366004620019e3565b62000e91565b6200025b6200025536600462001b0e565b62001053565b6040516200012a919062001f71565b6200014a6200027b36600462001ab5565b62001179565b6200014a6200029236600462001822565b6200130f565b6200014a620002a936600462001822565b620013cd565b6200011b620002c0366004620018ac565b62001429565b6001546001600160a01b031681565b6001546001600160a01b031633146200030b5760405162461bcd60e51b815260040162000302906200200f565b60405180910390fd5b6107d06000670de0b6b3a76400008483020490507fb8c37540534e3c73833fa45c239553e91d75af88ce658ebc50e097fc33a91de2858285604051620003549392919062001e45565b60405180910390a16040516340c10f1960e01b81526001600160a01b038416906340c10f19906200038c908890859060040162001d2e565b600060405180830381600087803b158015620003a757600080fd5b505af1158015620003bc573d6000803e3d6000fd5b505050505050505050565b6001600160a01b03851660009081526002602052604090205460ff16620004025760405162461bcd60e51b8152600401620003029062002258565b6001600160a01b03851660009081526002602081905260409091209081015461ffff6201000090910481169083161015620004515760405162461bcd60e51b815260040162000302906200234b565b60028101546040516314eed2e760e31b815261ffff909116906001600160a01b0388169063a7769738906200048b90339060040162001ce9565b60206040518083038186803b158015620004a457600080fd5b505afa158015620004b9573d6000803e3d6000fd5b505050506040513d601f19601f82011682018060405250810190620004df919062001c51565b61ffff161015806200057657506003805460405163e7957c3560e01b81526001600160a01b039091169163e7957c3591620005229133918b919060040162001cfd565b60206040518083038186803b1580156200053b57600080fd5b505afa15801562000550573d6000803e3d6000fd5b505050506040513d601f19601f82011682018060405250810190620005769190620019c1565b620005955760405162461bcd60e51b81526004016200030290620023e9565b6000866001600160a01b0316639711715a6040518163ffffffff1660e01b8152600401602060405180830381600087803b158015620005d357600080fd5b505af1158015620005e8573d6000803e3d6000fd5b505050506040513d601f19601f820116820180604052508101906200060e919062001c70565b90506200061a6200164a565b50604080516101208101825260018082523360208084019182528385018b8152606085018b9052608085018a905261ffff891660a0860152600060c0860181905260e086018890526001600160a01b038e8116610100808901919091528a87018054880190819055835260038b0185529790912086518154955160ff199690961690151517610100600160a81b0319169490911690960292909217855590518051939485949093620006d293908501920190620016b1565b50606082015160028201556080820151600382015560a082015160048201805460c085015161ffff1990911661ffff9384161763ffff0000191662010000600192830b949094169390930292909217905560e0830151600583015561010090920151600690910180546001600160a01b0319166001600160a01b039092169190911790558301546040517f0c81952fe7ff36e0c782ff51f2062277a41025478e90d1d7f9c2bbbf8fcdd2db9162000797918b918b918b918b918b9133918b9062001dbf565b60405180910390a15050505050505050565b600260208190526000918252604090912080546001820154919092015460ff83169261010090046001600160a01b0316919061ffff808216916201000090041685565b6001546001600160a01b03163314620008195760405162461bcd60e51b815260040162000302906200200f565b6001600160a01b03831660009081526002602052604090205460ff1615620008555760405162461bcd60e51b8152600401620003029062002158565b6200085f62001736565b506040805160a08101825260018082526001600160a01b039687166020808401918252600084860181815261ffff9889166060870190815297891660808701908152998b16825260029283905295902093518454925160ff1990931690151517610100600160a81b0319166101009290991691909102979097178255915191810191909155905193018054925161ffff199093169382169390931763ffff00001916620100009290911691909102179055565b6200091c620014c5565b6000546001600160a01b039081169116146200094c5760405162461bcd60e51b81526004016200030290620021f1565b600080546040516001600160a01b03909116907f8be0079c531659141344cd1fd0a4f28419497f9722a3daafe3b4186f6b6457e0908390a3600080546001600160a01b0319169055565b6001600160a01b0383166000908152600260205260409020548390839060ff16620009d55760405162461bcd60e51b815260040162000302906200239f565b6001600160a01b038216600090815260026020908152604080832084845260030190915290205460ff1662000a1e5760405162461bcd60e51b81526004016200030290620021a6565b6001600160a01b03851660009081526002602090815260408083208784526003019091529020600162000a52878762001053565b600381111562000a5e57fe5b1462000a7e5760405162461bcd60e51b81526004016200030290620022a1565b33600090815260078201602052604090205460ff161562000ab35760405162461bcd60e51b8152600401620003029062002226565b6000808560010b1262000aca578460010b62000ad3565b846000190260010b5b6006830154600584015460405163a9456ec360e01b815292935083926001600160a01b039092169163a9456ec39162000b129133919060040162001d2e565b60206040518083038186803b15801562000b2b57600080fd5b505afa15801562000b40573d6000803e3d6000fd5b505050506040513d601f19601f8201168201806040525081019062000b66919062001c51565b61ffff16101562000b8b5760405162461bcd60e51b81526004016200030290620020fb565b60048201805462010000808204600190810b8901900b61ffff160263ffff00001990911617905562000bbc62001764565b50604080518082018252600180825287810b60208084019182523360008181526007890190925290859020845181549351850b61ffff166101000262ffff001991151560ff19909516949094171692909217909155925191927f4172b53fbe437da18f868a019328a24bdbbf39dbb770a13e791f50f2a338a6e99262000797928c928c92918901918c919062001e68565b6000546001600160a01b031690565b60056020908152600091825260409182902080548351601f60026000196101006001861615020190931692909204918201849004840281018401909452808452909183018282801562000cf35780601f1062000cc75761010080835404028352916020019162000cf3565b820191906000526020600020905b81548152906001019060200180831162000cd557829003601f168201915b505050505081565b6001546000906001600160a01b0316331462000d2b5760405162461bcd60e51b815260040162000302906200200f565b6000848460405162000d3d906200177b565b62000d4a92919062001f9b565b604051809103906000f08015801562000d67573d6000803e3d6000fd5b50604051633ce0381760e21b81529091506001600160a01b0382169063f380e05c9062000d9990339060040162001ce9565b600060405180830381600087803b15801562000db457600080fd5b505af115801562000dc9573d6000803e3d6000fd5b5050505060048360405162000ddf919062001ccb565b9081526040805160209281900383019020805460018101825560009182528382200180546001600160a01b0319166001600160a01b03861690811790915581526005835220845162000e3492860190620016b1565b50949350505050565b8151602081840181018051600482529282019185019190912091905280548290811062000e6657fe5b6000918252602090912001546001600160a01b03169150829050565b6003546001600160a01b031681565b6001546001600160a01b0316331462000ebe5760405162461bcd60e51b815260040162000302906200200f565b6001600160a01b03821660009081526005602090815260409182902080548351601f600260001961010060018616150201909316929092049182018490048402810184019094528084526060939283018282801562000f615780601f1062000f355761010080835404028352916020019162000f61565b820191906000526020600020905b81548152906001019060200180831162000f4357829003601f168201915b5050505050905080516000141562000f8d5760405162461bcd60e51b81526004016200030290620020ac565b62000f998382620014c9565b6001600160a01b0383166000908152600560209081526040909120835162000fc492850190620016b1565b5060048260405162000fd7919062001ccb565b908152604051602091819003820181208054600181018255600091825292902090910180546001600160a01b0319166001600160a01b0386161790557fc19ffaa96ba6d2dbe37bd245d9f2287311e447d1aa68454ef45b7fd98944ca5390620010469083908590879062001fcd565b60405180910390a1505050565b6001600160a01b0382166000908152600260205260408120548390839060ff16620010925760405162461bcd60e51b815260040162000302906200239f565b6001600160a01b038216600090815260026020908152604080832084845260030190915290205460ff16620010db5760405162461bcd60e51b81526004016200030290620021a6565b6001600160a01b0385166000908152600260208181526040808420888552600301909152909120908101544210156200111957600093505062001171565b80600201544210158015620011315750806003015442105b156200114257600193505062001171565b600481015461ffff811662010000909104600190810b900b126200116b57600393505062001171565b60029350505b505092915050565b6001546001600160a01b03163314620011a65760405162461bcd60e51b815260040162000302906200200f565b6001600160a01b03841660009081526002602052604090205460ff16620011e15760405162461bcd60e51b8152600401620003029062002319565b60035460405163e7957c3560e01b81526001600160a01b039091169063e7957c359062001218908490889060009060040162001cfd565b60206040518083038186803b1580156200123157600080fd5b505afa15801562001246573d6000803e3d6000fd5b505050506040513d601f19601f820116820180604052508101906200126c9190620019c1565b6200128b5760405162461bcd60e51b81526004016200030290620022d1565b6001600160a01b03841660009081526002602081905260409182902001805461ffff858116620100000263ffff00001991881661ffff199093169290921716179055517f7d0e3fb33d1bc976b621346342a09b717cde6f3ade794df2786e6c2d000f55de90620013019086908690869062001e20565b60405180910390a150505050565b62001319620014c5565b6000546001600160a01b03908116911614620013495760405162461bcd60e51b81526004016200030290620021f1565b6001600160a01b038116620013725760405162461bcd60e51b8152600401620003029062002066565b600080546040516001600160a01b03808516939216917f8be0079c531659141344cd1fd0a4f28419497f9722a3daafe3b4186f6b6457e091a3600080546001600160a01b0319166001600160a01b0392909216919091179055565b620013d7620014c5565b6000546001600160a01b03908116911614620014075760405162461bcd60e51b81526004016200030290620021f1565b600180546001600160a01b0319166001600160a01b0392909216919091179055565b6001546000906001600160a01b03163314620014595760405162461bcd60e51b815260040162000302906200200f565b6200146683838862000cfb565b90506200147687828787620007ec565b7f9b0c84fa9019281f85827d916ac7abc8dcf039c385f04a11a335215ef178085b87878787878787604051620014b3979695949392919062001d47565b60405180910390a19695505050505050565b3390565b6000600482604051620014dd919062001ccb565b9081526040519081900360200181205491506000906004906200150290859062001ccb565b908152602001604051809103902060018303815481106200151f57fe5b60009182526020822001546001600160a01b031691505b828110156200164357846001600160a01b03166004856040516200155b919062001ccb565b908152602001604051809103902082815481106200157557fe5b6000918252602090912001546001600160a01b031614156200163a5781600485604051620015a4919062001ccb565b90815260200160405180910390208281548110620015be57fe5b9060005260206000200160006101000a8154816001600160a01b0302191690836001600160a01b03160217905550600484604051620015fe919062001ccb565b908152602001604051809103902060018403815481106200161b57fe5b600091825260209091200180546001600160a01b031916905562001643565b60010162001536565b5050505050565b60405180610120016040528060001515815260200160006001600160a01b03168152602001606081526020016000815260200160008152602001600061ffff168152602001600060010b81526020016000815260200160006001600160a01b031681525090565b828054600181600116156101000203166002900490600052602060002090601f016020900481019282601f10620016f457805160ff191683800117855562001724565b8280016001018555821562001724579182015b828111156200172457825182559160200191906001019062001707565b506200173292915062001789565b5090565b6040805160a08101825260008082526020820181905291810182905260608101829052608081019190915290565b604080518082019091526000808252602082015290565b61178480620024d083390190565b5b808211156200173257600081556001016200178a565b600082601f830112620017b1578081fd5b813567ffffffffffffffff80821115620017c9578283fd5b604051601f8301601f191681016020018281118282101715620017ea578485fd5b6040528281529250828483016020018610156200180657600080fd5b8260208601602083013760006020848301015250505092915050565b60006020828403121562001834578081fd5b81356200184181620024a8565b9392505050565b600080600080608085870312156200185e578283fd5b84356200186b81620024a8565b935060208501356200187d81620024a8565b925060408501356200188f81620024be565b91506060850135620018a181620024be565b939692955090935050565b60008060008060008060c08789031215620018c5578182fd5b8635620018d281620024a8565b9550602087013567ffffffffffffffff80821115620018ef578384fd5b620018fd8a838b01620017a0565b9650604089013591506200191182620024be565b9094506060880135906200192582620024be565b909350608088013590808211156200193b578384fd5b620019498a838b01620017a0565b935060a08901359150808211156200195f578283fd5b506200196e89828a01620017a0565b9150509295509295509295565b60008060006060848603121562001990578283fd5b83356200199d81620024a8565b9250602084013591506040840135620019b681620024a8565b809150509250925092565b600060208284031215620019d3578081fd5b8151801515811462001841578182fd5b60008060408385031215620019f6578182fd5b823562001a0381620024a8565b9150602083013567ffffffffffffffff81111562001a1f578182fd5b62001a2d85828601620017a0565b9150509250929050565b600080600080600060a0868803121562001a4f578081fd5b853562001a5c81620024a8565b9450602086013567ffffffffffffffff81111562001a78578182fd5b62001a8688828901620017a0565b9450506040860135925060608601359150608086013562001aa781620024be565b809150509295509295909350565b6000806000806080858703121562001acb578384fd5b843562001ad881620024a8565b9350602085013562001aea81620024be565b9250604085013562001afc81620024be565b91506060850135620018a181620024a8565b6000806040838503121562001b21578182fd5b823562001b2e81620024a8565b946020939093013593505050565b60008060006060848603121562001b51578283fd5b833562001b5e81620024a8565b9250602084013591506040840135600181900b8114620019b6578182fd5b60008060006060848603121562001b91578081fd5b833567ffffffffffffffff8082111562001ba9578283fd5b62001bb787838801620017a0565b9450602086013591508082111562001bcd578283fd5b62001bdb87838801620017a0565b9350604086013591508082111562001bf1578283fd5b5062001c0086828701620017a0565b9150509250925092565b6000806040838503121562001c1d578182fd5b823567ffffffffffffffff81111562001c34578283fd5b62001c4285828601620017a0565b95602094909401359450505050565b60006020828403121562001c63578081fd5b81516200184181620024be565b60006020828403121562001c82578081fd5b5051919050565b6001600160a01b03169052565b60010b9052565b6000815180845262001cb781602086016020860162002467565b601f01601f19169290920160200192915050565b6000825162001cdf81846020870162002467565b9190910192915050565b6001600160a01b0391909116815260200190565b6001600160a01b038481168252831660208201526060810162001d20836200249a565b826040830152949350505050565b6001600160a01b03929092168252602082015260400190565b600060018060a01b03808a16835260e0602084015262001d6b60e084018a62001c9d565b61ffff898116604086015288166060850152838103608085015262001d91818862001c9d565b905083810360a085015262001da7818762001c9d565b92505080841660c08401525098975050505050505050565b6001600160a01b0389811682526101006020830181905260009162001de78483018c62001c9d565b604085019a909a526060840198909852505061ffff9490941660808501529190931660a083015260c082019290925260e0015292915050565b6001600160a01b0393909316835261ffff918216602084015216604082015260600190565b6001600160a01b0393841681526020810192909252909116604082015260600190565b600060a0820160018060a01b03881683526020878185015260a0604085015282875460018082166000811462001ea7576001811462001eca5762001f0b565b62001eb9607f6002850416876200245e565b60ff19841681528501935062001f0b565b6002830462001eda81886200245e565b62001ee58d62002452565b895b8381101562001f025781548382015290850190880162001ee7565b91909101955050505b50505080935050505062001f23606083018562001c96565b62001f32608083018462001c89565b9695505050505050565b94151585526001600160a01b03939093166020850152604084019190915261ffff908116606084015216608082015260a00190565b6020810162001f80836200249a565b91905290565b60006020825262001841602083018462001c9d565b60006040825262001fb0604083018562001c9d565b828103602084015262001fc4818562001c9d565b95945050505050565b60006060825262001fe2606083018662001c9d565b828103602084015262001ff6818662001c9d565b91505060018060a01b0383166040830152949350505050565b60208082526037908201527f4f6e6c79207468652063757272656e74206f63746f6261792076657273696f6e6040820152761031b0b7103ab9b2903a3434b990333ab731ba34b7b71760491b606082015260800190565b60208082526026908201527f4f776e61626c653a206e6577206f776e657220697320746865207a65726f206160408201526564647265737360d01b606082015260800190565b6020808252602f908201527f546f6b656e205f676f76546f6b656e206973206e6f7420612076616c6964206760408201526e37bb32b93730b731b2903a37b5b2b760891b606082015260800190565b6020808252603e908201527f53656e64657220646f65736e2774206861766520656e6f75676820676f76657260408201527f6e616e636520746f6b656e7320746f206d616b65207468617420766f74650000606082015260800190565b6020808252602e908201527f476f7665726e6f7220666f72207468617420746f6b656e20616464726573732060408201526d616c72656164792065786973747360901b606082015260800190565b6020808252602b908201527f50726f706f73616c20666f722074686174205f70726f706f73616c496420646f60408201526a195cdb89dd08195e1a5cdd60aa1b606082015260800190565b6020808252818101527f4f776e61626c653a2063616c6c6572206973206e6f7420746865206f776e6572604082015260600190565b60208082526018908201527714d95b99195c881a185cc8185b1c9958591e481d9bdd195960421b604082015260600190565b60208082526029908201527f476f7665726e6f7220666f722074686174205f676f76546f6b656e20646f65736040820152681b89dd08195e1a5cdd60ba1b606082015260800190565b60208082526016908201527550726f706f73616c206973206e6f742041637469766560501b604082015260600190565b60208082526028908201527f4e6f7420616c6c6f77656420746f206368616e676520746f6b656e277320706160408201526772616d657465727360c01b606082015260800190565b602080825260189082015277476f7665726e6f7220646f6573206e6f742065786973747360401b604082015260600190565b60208082526034908201527f476976656e205f71756f72756d206973206c657373207468616e207468697320604082015273676f7665726e6f722773206d696e51756f72756d60601b606082015260800190565b6020808252602a908201527f476f7665726e6f7220666f722074686174205f70726f6a656374496420646f656040820152691cdb89dd08195e1a5cdd60b21b606082015260800190565b60208082526043908201527f546f6b656e207368617265206e6f74206869676820656e6f75676820616e642060408201527f6e6f204e4654207065726d697373696f6e20666f72206e65772070726f706f73606082015262616c7360e81b608082015260a00190565b60009081526020902090565b90815260200190565b60005b83811015620024845781810151838201526020016200246a565b8381111562002494576000848401525b50505050565b60048110620024a557fe5b50565b6001600160a01b0381168114620024a557600080fd5b61ffff81168114620024a557600080fdfe60806040523480156200001157600080fd5b506040516200178438038062001784833981016040819052620000349162000217565b8181600062000042620000d0565b600080546001600160a01b0319166001600160a01b0383169081178255604051929350917f8be0079c531659141344cd1fd0a4f28419497f9722a3daafe3b4186f6b6457e0908290a3508151620000a1906005906020850190620000d4565b508051620000b7906006906020840190620000d4565b50506007805460ff19166012179055506200027e915050565b3390565b828054600181600116156101000203166002900490600052602060002090601f016020900481019282601f106200011757805160ff191683800117855562000147565b8280016001018555821562000147579182015b82811115620001475782518255916020019190600101906200012a565b506200015592915062000159565b5090565b5b808211156200015557600081556001016200015a565b600082601f83011262000181578081fd5b81516001600160401b038082111562000198578283fd5b6040516020601f8401601f1916820181018381118382101715620001ba578586fd5b80604052508194508382528681858801011115620001d757600080fd5b600092505b83831015620001fb5785830181015182840182015291820191620001dc565b838311156200020d5760008185840101525b5050505092915050565b600080604083850312156200022a578182fd5b82516001600160401b038082111562000241578384fd5b6200024f8683870162000170565b9350602085015191508082111562000265578283fd5b50620002748582860162000170565b9150509250929050565b6114f6806200028e6000396000f3fe608060405234801561001057600080fd5b506004361061014d5760003560e01c80638da5cb5b116100c3578063a77697381161007c578063a776973814610289578063a9059cbb146102a9578063a9456ec3146102bc578063dd62ed3e146102cf578063f2fde38b146102e2578063f380e05c146102f55761014d565b80638da5cb5b1461023857806395d89b41146102405780639711715a14610248578063981b24d0146102505780639dc29fac14610263578063a457c2d7146102765761014d565b8063313ce56711610115578063313ce567146101cd57806339509351146101e257806340c10f19146101f55780634ee2cd7e1461020a57806370a082311461021d578063715018a6146102305761014d565b80630693f9611461015257806306fdde0314610170578063095ea7b31461018557806318160ddd146101a557806323b872dd146101ba575b600080fd5b61015a610308565b604051610167919061103e565b60405180910390f35b610178610317565b604051610167919061105d565b610198610193366004610ffc565b6103ad565b6040516101679190611052565b6101ad6103cb565b6040516101679190611407565b6101986101c8366004610fbc565b6103d1565b6101d561041c565b6040516101679190611410565b6101986101f0366004610ffc565b610425565b610208610203366004610ffc565b610478565b005b6101ad610218366004610ffc565b6104b0565b6101ad61022b366004610f6d565b6104f9565b610208610518565b61015a610597565b6101786105a6565b6101ad610607565b6101ad61025e366004611026565b610616565b610208610271366004610ffc565b610646565b610198610284366004610ffc565b61067a565b61029c610297366004610f6d565b6106e2565b60405161016791906113f8565b6101986102b7366004610ffc565b61071f565b61029c6102ca366004610ffc565b610739565b6101ad6102dd366004610f88565b61077a565b6102086102f0366004610f6d565b6107a5565b610208610303366004610f6d565b61085b565b6001546001600160a01b031681565b60058054604080516020601f60026000196101006001881615020190951694909404938401819004810282018101909252828152606093909290918301828280156103a35780601f10610378576101008083540402835291602001916103a3565b820191906000526020600020905b81548152906001019060200180831161038657829003601f168201915b5050505050905090565b60006103c16103ba6108b2565b84846108b6565b5060015b92915050565b60045490565b6001546000906001600160a01b031633146104075760405162461bcd60e51b81526004016103fe9061112a565b60405180910390fd5b61041284848461096a565b5060019392505050565b60075460ff1690565b60006103c16104326108b2565b8461047385600360006104436108b2565b6001600160a01b03908116825260208083019390935260409182016000908120918c168152925290205490610a6d565b6108b6565b6001546001600160a01b031633146104a25760405162461bcd60e51b81526004016103fe9061112a565b6104ac8282610a99565b5050565b6001600160a01b0382166000908152600860205260408120819081906104d7908590610b47565b91509150816104ee576104e9856104f9565b6104f0565b805b95945050505050565b6001600160a01b0381166000908152600260205260409020545b919050565b6105206108b2565b6000546001600160a01b0390811691161461054d5760405162461bcd60e51b81526004016103fe90611292565b600080546040516001600160a01b03909116907f8be0079c531659141344cd1fd0a4f28419497f9722a3daafe3b4186f6b6457e0908390a3600080546001600160a01b0319169055565b6000546001600160a01b031690565b60068054604080516020601f60026000196101006001881615020190951694909404938401819004810282018101909252828152606093909290918301828280156103a35780601f10610378576101008083540402835291602001916103a3565b6000610611610be1565b905090565b6000806000610626846009610b47565b915091508161063c576106376103cb565b61063e565b805b949350505050565b6001546001600160a01b031633146106705760405162461bcd60e51b81526004016103fe9061112a565b6104ac8282610c37565b60006103c16106876108b2565b846104738560405180606001604052806025815260200161149c60259139600360006106b16108b2565b6001600160a01b03908116825260208083019390935260409182016000908120918d16815292529020549190610cfb565b6000806106ed6103cb565b1115610717576106fb6103cb565b610704836104f9565b8161070b57fe5b04612710029050610513565b506000919050565b600060405162461bcd60e51b81526004016103fe90611240565b60008061074583610616565b11156107715761075482610616565b61075e84846104b0565b8161076557fe5b046127100290506103c5565b50600092915050565b6001600160a01b03918216600090815260036020908152604080832093909416825291909152205490565b6107ad6108b2565b6000546001600160a01b039081169116146107da5760405162461bcd60e51b81526004016103fe90611292565b6001600160a01b0381166108005760405162461bcd60e51b81526004016103fe90611181565b600080546040516001600160a01b03808516939216917f8be0079c531659141344cd1fd0a4f28419497f9722a3daafe3b4186f6b6457e091a3600080546001600160a01b0319166001600160a01b0392909216919091179055565b6108636108b2565b6000546001600160a01b039081169116146108905760405162461bcd60e51b81526004016103fe90611292565b600180546001600160a01b0319166001600160a01b0392909216919091179055565b3390565b6001600160a01b0383166108dc5760405162461bcd60e51b81526004016103fe9061134d565b6001600160a01b0382166109025760405162461bcd60e51b81526004016103fe906111c7565b6001600160a01b0380841660008181526003602090815260408083209487168084529490915290819020849055517f8c5be1e5ebec7d5bd14f71427d1e84f3dd0314c0f7b2291e5b200ac8c7c3b9259061095d908590611407565b60405180910390a3505050565b6001600160a01b0383166109905760405162461bcd60e51b81526004016103fe90611308565b6001600160a01b0382166109b65760405162461bcd60e51b81526004016103fe906110e7565b6109c1838383610d27565b6109fe81604051806060016040528060268152602001611456602691396001600160a01b0386166000908152600260205260409020549190610cfb565b6001600160a01b038085166000908152600260205260408082209390935590841681522054610a2d9082610a6d565b6001600160a01b03808416600081815260026020526040908190209390935591519085169060008051602061147c8339815191529061095d908590611407565b600082820183811015610a925760405162461bcd60e51b81526004016103fe90611209565b9392505050565b6001600160a01b038216610abf5760405162461bcd60e51b81526004016103fe906113c1565b610acb60008383610d27565b600454610ad89082610a6d565b6004556001600160a01b038216600090815260026020526040902054610afe9082610a6d565b6001600160a01b03831660008181526002602052604080822093909355915190919060008051602061147c83398151915290610b3b908590611407565b60405180910390a35050565b60008060008411610b6a5760405162461bcd60e51b81526004016103fe90611391565b610b74600b610d84565b841115610b935760405162461bcd60e51b81526004016103fe906110b0565b6000610b9f8486610d88565b8454909150811415610bb8576000809250925050610bda565b6001846001018281548110610bc957fe5b906000526020600020015492509250505b9250929050565b6000610bed600b610e29565b6000610bf9600b610d84565b90507f8030e83b04d87bef53480e26263266d6ca66863aa8506aca6f2559d18aa1cb6781604051610c2a9190611407565b60405180910390a1905090565b6001600160a01b038216610c5d5760405162461bcd60e51b81526004016103fe906112c7565b610c6982600083610d27565b610ca681604051806060016040528060228152602001611434602291396001600160a01b0385166000908152600260205260409020549190610cfb565b6001600160a01b038316600090815260026020526040902055600454610ccc9082610e32565b6004556040516000906001600160a01b0384169060008051602061147c83398151915290610b3b908590611407565b60008184841115610d1f5760405162461bcd60e51b81526004016103fe919061105d565b505050900390565b610d32838383610d7f565b6001600160a01b038316610d5657610d4982610e74565b610d51610ea1565b610d7f565b6001600160a01b038216610d6d57610d4983610e74565b610d7683610e74565b610d7f82610e74565b505050565b5490565b8154600090610d99575060006103c5565b82546000905b80821015610de8576000610db38383610eb0565b905084868281548110610dc257fe5b90600052602060002001541115610ddb57809150610de2565b8060010192505b50610d9f565b600082118015610e10575083856001840381548110610e0357fe5b9060005260206000200154145b15610e2157506000190190506103c5565b5090506103c5565b80546001019055565b6000610a9283836040518060400160405280601e81526020017f536166654d6174683a207375627472616374696f6e206f766572666c6f770000815250610cfb565b6001600160a01b0381166000908152600860205260409020610e9e90610e99836104f9565b610ed5565b50565b610eae6009610e996103cb565b565b60006002808306600285060181610ec357fe5b04600283046002850401019392505050565b6000610ee1600b610d84565b905080610eed84610f21565b1015610d7f578254600180820185556000858152602080822090930193909355938401805494850181558252902090910155565b8054600090610f3257506000610513565b815482906000198101908110610f4457fe5b90600052602060002001549050610513565b80356001600160a01b03811681146103c557600080fd5b600060208284031215610f7e578081fd5b610a928383610f56565b60008060408385031215610f9a578081fd5b610fa48484610f56565b9150610fb38460208501610f56565b90509250929050565b600080600060608486031215610fd0578081fd5b8335610fdb8161141e565b92506020840135610feb8161141e565b929592945050506040919091013590565b6000806040838503121561100e578182fd5b6110188484610f56565b946020939093013593505050565b600060208284031215611037578081fd5b5035919050565b6001600160a01b0391909116815260200190565b901515815260200190565b6000602080835283518082850152825b818110156110895785810183015185820160400152820161106d565b8181111561109a5783604083870101525b50601f01601f1916929092016040019392505050565b6020808252601d908201527f4552433230536e617073686f743a206e6f6e6578697374656e74206964000000604082015260600190565b60208082526023908201527f45524332303a207472616e7366657220746f20746865207a65726f206164647260408201526265737360e81b606082015260800190565b60208082526037908201527f4f6e6c79207468652063757272656e74206f63746f6261792076657273696f6e6040820152761031b0b7103ab9b2903a3434b990333ab731ba34b7b71760491b606082015260800190565b60208082526026908201527f4f776e61626c653a206e6577206f776e657220697320746865207a65726f206160408201526564647265737360d01b606082015260800190565b60208082526022908201527f45524332303a20617070726f766520746f20746865207a65726f206164647265604082015261737360f01b606082015260800190565b6020808252601b908201527f536166654d6174683a206164646974696f6e206f766572666c6f770000000000604082015260600190565b60208082526032908201527f5472616e736665727320617265206f6e6c7920616c6c6f776564206279207468604082015271194813d8dd1bd8985e4818dbdb9d1c9858dd60721b606082015260800190565b6020808252818101527f4f776e61626c653a2063616c6c6572206973206e6f7420746865206f776e6572604082015260600190565b60208082526021908201527f45524332303a206275726e2066726f6d20746865207a65726f206164647265736040820152607360f81b606082015260800190565b60208082526025908201527f45524332303a207472616e736665722066726f6d20746865207a65726f206164604082015264647265737360d81b606082015260800190565b60208082526024908201527f45524332303a20617070726f76652066726f6d20746865207a65726f206164646040820152637265737360e01b606082015260800190565b60208082526016908201527504552433230536e617073686f743a20696420697320360541b604082015260600190565b6020808252601f908201527f45524332303a206d696e7420746f20746865207a65726f206164647265737300604082015260600190565b61ffff91909116815260200190565b90815260200190565b60ff91909116815260200190565b6001600160a01b0381168114610e9e57600080fdfe45524332303a206275726e20616d6f756e7420657863656564732062616c616e636545524332303a207472616e7366657220616d6f756e7420657863656564732062616c616e6365ddf252ad1be2c89b69c2b068fc378daa952ba7f163c4a11628f55a4df523b3ef45524332303a2064656372656173656420616c6c6f77616e63652062656c6f77207a65726fa26469706673582212202f8375d4196dd44434dbdcd3035460b96857c3ae61cd8ce08b48345ff0f80d5964736f6c634300060c0033a264697066735822122060d98566d50c88211b21a9b2dc94ebb61a74749d44a6255c5d8731970fa5802064736f6c634300060c0033",
  "immutableReferences": {},
  "source": "// SPDX-License-Identifier: MIT\npragma solidity ^0.6.0;\npragma experimental ABIEncoderV2;\n\nimport './OctobayStorage.sol';\nimport './OctobayGovToken.sol';\nimport './OctobayGovNFT.sol';\n\n/// @notice This contract acts as Octobay's storage of all Governors, proposals and associated tokens.\n///         It handles all of the voting on the proposals and checking on statuses of proposals.\ncontract OctobayGovernor is OctobayStorage {\n\n    struct Governor {\n        bool isValue; // Ensure we have a valid value in the map\n        address creator; // msg.sender from Octobay->createGovernanceToken\n        uint256 proposalCount; // Number of proposals\n        uint16 newProposalShare; // min percentage required for a token holder to create a new proposal\n        uint16 minQuorum; // min quorum for all new proposals made in this governance department\n        mapping (uint => Proposal) proposalList; // List of proposals\n    }\n\n    struct Proposal {\n        bool isValue; // Ensure we have a valid value in the map\n        address creator; // Creator of this proposal\n        string discussionId; // GitHub Graph ID\n        uint256 startDate; // timestamp from when proposal is Active\n        uint256 endDate; // timestamp for when voting closes on proposal, can be 0 (open ended)\n        uint16 quorum; // min percentage (0 - 10000)\n        int16 voteCount; // the current vote count as a percent of supply\n        uint256 snapshotId; // ID of the snapshot of balances for the token, taken at proposal creation\n        OctobayGovToken votingToken; // governance token required to vote\n        mapping (address => Vote) votesBySubmitter; // map of votes submitted for proposal by submitter\n    }\n\n    struct Vote {\n        bool hasVoted; // to track whether a token holder has already voted\n        int16 vote; // can be negative, represents token share (0 - 10000)\n    }\n\n    enum ProposalState {\n        Pending, // Proposal is created but isn't yet active\n        Active, // Proposal is active and can be voted on\n        Defeated, // Proposal did not pass due to not reaching quorum before expiring\n        Succeeded // Proposal passed by meeting quorum at expiry\n    }\n\n    event ProposalCreatedEvent(address tokenAddress, string discussionId, uint256 startDate, uint256 endDate, uint16 quorum, address creator, uint256 proposalId, uint256 snapshotId);\n\n    event VoteCastEvent(address tokenAddress, uint256 proposalId, string discussionId, int16 vote, address voter);\n\n    event DepartmentCreatedEvent(address creator, string projectId, uint16 newProposalShare, uint16 minQuorum, string tokenName, string tokenSymbol, address tokenAddress);\n    \n    event UpdateGovTokenParamsEvent(address govToken, uint16 newProposalShare, uint16 minQuorum);\n\n    /// @notice Maps gov token address to a Governor\n    mapping (OctobayGovToken => Governor) public governorsByTokenAddr;\n\n    OctobayGovNFT public octobayGovNFT;\n\n    constructor(address _octobayGovNFT) public {\n        octobayGovNFT = OctobayGovNFT(_octobayGovNFT);\n    }\n\n    /// @notice Essentially a wrapper for createGovernor and createToken to use only one call\n    /// @param _projectId Github graphql ID of the org or repo this governor/token is associated with\n    /// @param _newProposalShare Share of gov tokens a holder requires before they can create new proposals\n    /// @param _minQuorum The minimum quorum allowed for new proposals\n    /// @param _name Name of the new governance token\n    /// @param _symbol Symbol to use for the new governance token\n    /// @return newToken A reference to the created governance token\n    function createGovernorAndToken(\n        address _creator,\n        string memory _projectId,\n        uint16 _newProposalShare,\n        uint16 _minQuorum,\n        string memory _name,\n        string memory _symbol\n    ) external onlyOctobay returns(OctobayGovToken newToken) {\n        newToken = createToken(_name, _symbol, _projectId);\n        createGovernor(_creator, newToken, _newProposalShare, _minQuorum);\n\n        emit DepartmentCreatedEvent(_creator, _projectId, _newProposalShare, _minQuorum, _name, _symbol, address(newToken));\n    } \n\n    /// @notice Necessary to set the parameters for new proposals and to know if we've already initialized a governor\n    /// @param _creator The address of the creator of this gov token\n    /// @param _newToken The address of the governance token for this governor\n    /// @param _newProposalShare Share of gov tokens a holder requires before they can create new proposals\n    /// @param _minQuorum The minimum quorum allowed for new proposals    \n    function createGovernor(address _creator, OctobayGovToken _newToken, uint16 _newProposalShare, uint16 _minQuorum) public onlyOctobay {\n        require(!governorsByTokenAddr[_newToken].isValue, \"Governor for that token address already exists\");\n        Governor memory newGovernor = Governor({\n            creator: _creator,\n            isValue: true,\n            proposalCount: 0,\n            newProposalShare: _newProposalShare,\n            minQuorum: _minQuorum\n        });\n        governorsByTokenAddr[_newToken] = newGovernor;\n    }\n\n    /// @param _govToken The address of the governance token for this governor\n    /// @param _newProposalShare Share of gov tokens a holder requires before they can create new proposals\n    /// @param _minQuorum The minimum quorum allowed for new proposals\n    /// @param _msgSender The original sender\n    function updateGovTokenParams(\n        OctobayGovToken _govToken,\n        uint16 _newProposalShare,\n        uint16 _minQuorum,\n        address _msgSender\n    ) public onlyOctobay {\n        require(governorsByTokenAddr[_govToken].isValue, \"Governor does not exists\");\n        require(octobayGovNFT.userHasPermissionForGovToken(_msgSender, _govToken, OctobayGovNFT.Permission.MINT), \"Not allowed to change token's parameters\");\n\n        governorsByTokenAddr[_govToken].newProposalShare = _newProposalShare;\n        governorsByTokenAddr[_govToken].minQuorum = _minQuorum;\n\n        emit UpdateGovTokenParamsEvent(address(_govToken), _newProposalShare, _minQuorum);\n    }\n\n    /// @notice Anyone with at least newProposalShare share of tokens or an NFT with the required permission can create a new proposal here\n    /// @param _govToken Address of the gov token to use\n    /// @param _discussionId The minimum quorum allowed for new proposals\n    /// @param _startDate Date in epoch secs when this proposal will become active and voting is opened\n    /// @param _endDate Date in epoch secs when the voting for this proposal closes\n    /// @param _quorum The minimum percentage of gov tokens required for this proposal to pass          \n    function createProposal(OctobayGovToken _govToken, string memory _discussionId, uint256 _startDate, uint256 _endDate, uint16 _quorum) external {\n        require(governorsByTokenAddr[_govToken].isValue, \"Governor for that _govToken doesn't exist\");\n        Governor storage governor = governorsByTokenAddr[_govToken];\n        require(_quorum >= governor.minQuorum, \"Given _quorum is less than this governor's minQuorum\");\n\n        require((_govToken.balanceOfAsPercent(msg.sender) >= governor.newProposalShare) || \n            (octobayGovNFT.userHasPermissionForGovToken(msg.sender, _govToken, OctobayGovNFT.Permission.CREATE_PROPOSAL)), \n            \"Token share not high enough and no NFT permission for new proposals\");\n        \n        uint256 snapshotId = _govToken.snapshot();\n        Proposal memory newProposal = Proposal({\n            isValue: true,\n            creator: msg.sender,\n            discussionId: _discussionId,\n            startDate: _startDate,\n            endDate: _endDate,\n            quorum: _quorum,\n            voteCount: 0,\n            snapshotId: snapshotId,\n            votingToken: _govToken \n        });\n\n        governor.proposalCount++;\n        governor.proposalList[governor.proposalCount] = newProposal;\n\n        emit ProposalCreatedEvent(address(_govToken), _discussionId, _startDate, _endDate, _quorum, msg.sender, governor.proposalCount, snapshotId);\n    }\n\n    /// @param _govToken Address of the gov token to use \n    /// @param _proposalId ID of the proposal whose state we should check\n    /// @return The ProposalState of the given proposal\n    function proposalState(OctobayGovToken _govToken, uint256 _proposalId) public view proposalExists(_govToken, _proposalId) returns(ProposalState) {\n        Proposal storage proposal = governorsByTokenAddr[_govToken].proposalList[_proposalId];\n        if (block.timestamp < proposal.startDate) {\n            return ProposalState.Pending;\n        } else if (block.timestamp >= proposal.startDate && block.timestamp < proposal.endDate) {\n            return ProposalState.Active;\n        } else if (proposal.voteCount >= int(proposal.quorum)) {\n            return ProposalState.Succeeded;\n        } else {\n            return ProposalState.Defeated;\n        }\n    }\n\n    /// @dev Anyone with > 0 amount of tokens can vote. They can vote up to and including their share (but not necessarily all).\n    ///      A positive _vote is considered in favour of the proposal and a negative is considered against it.\n    /// @param _govToken Address of the gov token to use \n    /// @param _proposalId ID of the proposal to vote on\n    /// @param _vote The positive(for) or negative(against) amount of your token share you'd like to vote towards this proposal \n    function castVote(OctobayGovToken _govToken, uint256 _proposalId, int16 _vote) external proposalExists(_govToken, _proposalId) {\n        Proposal storage proposal = governorsByTokenAddr[_govToken].proposalList[_proposalId];\n        require(proposalState(_govToken, _proposalId) == ProposalState.Active, \"Proposal is not Active\");\n        require(!proposal.votesBySubmitter[msg.sender].hasVoted, \"Sender has already voted\");\n        uint voteAmt = _vote < 0 ? uint(-1 * _vote) : uint(_vote);\n        require(proposal.votingToken.balanceOfAsPercentAt(msg.sender, proposal.snapshotId) >= voteAmt, \"Sender doesn't have enough governance tokens to make that vote\");\n\n        proposal.voteCount += _vote;\n        Vote memory newVote = Vote({\n            hasVoted: true,\n            vote: _vote\n        });\n        proposal.votesBySubmitter[msg.sender] = newVote;\n\n        emit VoteCastEvent(address(_govToken), _proposalId, proposal.discussionId, _vote, msg.sender);\n    }\n\n    //TODO: Include a castVoteBySignature to avoid gas costs for voters\n\n    /// @param _govToken Address of the gov token to use \n    /// @param _proposalId ID of the proposal\n    modifier proposalExists(OctobayGovToken _govToken, uint256 _proposalId) {\n        require(governorsByTokenAddr[_govToken].isValue, \"Governor for that _projectId doesn't exist\");\n        require(governorsByTokenAddr[_govToken].proposalList[_proposalId].isValue, \"Proposal for that _proposalId doesn't exist\");\n        _;\n    }\n\n    // ------------ Token Factory ------------ //\n\n    event AwardGovernanceTokensEvent(address recipient, uint256 amount, address tokenAddr);\n    event UpdatedProjectId(string oldProjectId, string newProjectId, address tokenAddr);\n    mapping (string => OctobayGovToken[]) public tokensByProjectId;\n    mapping (OctobayGovToken => string) public projectsByToken;\n\n    /// @param _name Name of the new token\n    /// @param _symbol Token Symbol for the new token\n    /// @param _projectId Github graphql ID of the org or repo this governor/token is associated with\n    /// @return A reference to the created governance token\n    function createToken(string memory _name, string memory _symbol, string memory _projectId) public onlyOctobay returns (OctobayGovToken) {\n        OctobayGovToken newToken = new OctobayGovToken(_name, _symbol);\n        newToken.setOctobay(msg.sender);\n        tokensByProjectId[_projectId].push(newToken);\n        projectsByToken[newToken] = _projectId;\n        return newToken;\n    }\n\n    /// @notice Used in case a project wants to transfer tokens from a repo to an org in the future for example\n    /// @param _govToken Address of the gov token to use \n    /// @param _newProjectId Github graphql ID of the new org or repo which should be used\n    function updateProjectId(OctobayGovToken _govToken, string memory _newProjectId) external onlyOctobay {\n        string memory oldProjectId = projectsByToken[_govToken];\n        require(bytes(oldProjectId).length != 0, \"Token _govToken is not a valid governance token\");\n\n        removeTokenFromProject(_govToken, oldProjectId);\n        projectsByToken[_govToken] = _newProjectId;\n        tokensByProjectId[_newProjectId].push(_govToken);\n        emit UpdatedProjectId(oldProjectId, _newProjectId, address(_govToken));\n    }\n\n    // Ugh, dealing with array changes is ugly - we need to remove the token from the project's list and fill the empty array slot\n    // But I think we do want a list of tokens for a projectId, right?\n    function removeTokenFromProject(OctobayGovToken _govToken, string memory _oldProjectId) internal {\n        uint len = tokensByProjectId[_oldProjectId].length;\n        OctobayGovToken lastToken = tokensByProjectId[_oldProjectId][len-1];\n        for (uint i=0; i < len; i++) {\n            if (tokensByProjectId[_oldProjectId][i] == _govToken) {\n                tokensByProjectId[_oldProjectId][i] = lastToken;\n                delete tokensByProjectId[_oldProjectId][len-1];\n                break;\n            }\n        }\n    }\n\n    /// @notice Awards (mints) governance tokens to users for completing an issue (bounty) according to USD amount of bounty\n    /// @param recipient Address of user to award governance tokens to\n    /// @param payoutEth Amount in wei of the completed bounty, used to calculate USD amount of tokens to award\n    /// @param tokenAddr Address of the governance token to award this user\n    function awardGovernanceTokens(\n        address recipient,\n        uint256 payoutEth,\n        OctobayGovToken tokenAddr\n    ) external onlyOctobay {\n        // Issues with the price feed so commenting it out and hardcoding for now\n        // (\n        //     , //uint80 roundID, \n        //     int price,\n        //     , //uint startedAt,\n        //     , //uint timeStamp,\n        //     //uint80 answeredInRound\n        // ) = ethUSDPriceFeed.latestRoundData();\n        // uint256 amount = uint256((payoutEth * uint256(price)) / ethUSDPriceFeed.decimals());\n\n        uint256 ethPriceUSD = 2000;\n        uint256 amount = uint256((payoutEth * ethPriceUSD) / 10 ** 18);\n        emit AwardGovernanceTokensEvent(recipient, amount, address(tokenAddr));\n        tokenAddr.mint(recipient, amount);\n    }    \n}\n",
  "sourcePath": "/home/mkt/Projects/octobay/contracts/contracts/OctobayGovernor.sol",
  "compiler": {
    "name": "solc",
    "version": "0.6.12+commit.27d51765.Emscripten.clang"
  },
  "schemaVersion": "3.3.4",
  "updatedAt": "2021-05-09T20:40:30.671Z",
  "devdoc": {
    "kind": "dev",
    "methods": {
      "awardGovernanceTokens(address,uint256,address)": {
        "params": {
          "payoutEth": "Amount in wei of the completed bounty, used to calculate USD amount of tokens to award",
          "recipient": "Address of user to award governance tokens to",
          "tokenAddr": "Address of the governance token to award this user"
        }
      },
      "castVote(address,uint256,int16)": {
        "details": "Anyone with > 0 amount of tokens can vote. They can vote up to and including their share (but not necessarily all).      A positive _vote is considered in favour of the proposal and a negative is considered against it.",
        "params": {
          "_govToken": "Address of the gov token to use ",
          "_proposalId": "ID of the proposal to vote on",
          "_vote": "The positive(for) or negative(against) amount of your token share you'd like to vote towards this proposal "
        }
      },
      "createGovernor(address,address,uint16,uint16)": {
        "params": {
          "_creator": "The address of the creator of this gov token",
          "_minQuorum": "The minimum quorum allowed for new proposals    ",
          "_newProposalShare": "Share of gov tokens a holder requires before they can create new proposals",
          "_newToken": "The address of the governance token for this governor"
        }
      },
      "createGovernorAndToken(address,string,uint16,uint16,string,string)": {
        "params": {
          "_minQuorum": "The minimum quorum allowed for new proposals",
          "_name": "Name of the new governance token",
          "_newProposalShare": "Share of gov tokens a holder requires before they can create new proposals",
          "_projectId": "Github graphql ID of the org or repo this governor/token is associated with",
          "_symbol": "Symbol to use for the new governance token"
        },
        "returns": {
          "newToken": "A reference to the created governance token"
        }
      },
      "createProposal(address,string,uint256,uint256,uint16)": {
        "params": {
          "_discussionId": "The minimum quorum allowed for new proposals",
          "_endDate": "Date in epoch secs when the voting for this proposal closes",
          "_govToken": "Address of the gov token to use",
          "_quorum": "The minimum percentage of gov tokens required for this proposal to pass          ",
          "_startDate": "Date in epoch secs when this proposal will become active and voting is opened"
        }
      },
      "createToken(string,string,string)": {
        "params": {
          "_name": "Name of the new token",
          "_projectId": "Github graphql ID of the org or repo this governor/token is associated with",
          "_symbol": "Token Symbol for the new token"
        },
        "returns": {
          "_0": "A reference to the created governance token"
        }
      },
      "owner()": {
        "details": "Returns the address of the current owner."
      },
      "proposalState(address,uint256)": {
        "params": {
          "_govToken": "Address of the gov token to use ",
          "_proposalId": "ID of the proposal whose state we should check"
        },
        "returns": {
          "_0": "The ProposalState of the given proposal"
        }
      },
      "renounceOwnership()": {
        "details": "Leaves the contract without owner. It will not be possible to call `onlyOwner` functions anymore. Can only be called by the current owner. NOTE: Renouncing ownership will leave the contract without an owner, thereby removing any functionality that is only available to the owner."
      },
      "transferOwnership(address)": {
        "details": "Transfers ownership of the contract to a new account (`newOwner`). Can only be called by the current owner."
      },
      "updateGovTokenParams(address,uint16,uint16,address)": {
        "params": {
          "_govToken": "The address of the governance token for this governor",
          "_minQuorum": "The minimum quorum allowed for new proposals",
          "_msgSender": "The original sender",
          "_newProposalShare": "Share of gov tokens a holder requires before they can create new proposals"
        }
      },
      "updateProjectId(address,string)": {
        "params": {
          "_govToken": "Address of the gov token to use ",
          "_newProjectId": "Github graphql ID of the new org or repo which should be used"
        }
      }
    },
    "version": 1
  },
  "userdoc": {
    "kind": "user",
    "methods": {
      "awardGovernanceTokens(address,uint256,address)": {
        "notice": "Awards (mints) governance tokens to users for completing an issue (bounty) according to USD amount of bounty"
      },
      "createGovernor(address,address,uint16,uint16)": {
        "notice": "Necessary to set the parameters for new proposals and to know if we've already initialized a governor"
      },
      "createGovernorAndToken(address,string,uint16,uint16,string,string)": {
        "notice": "Essentially a wrapper for createGovernor and createToken to use only one call"
      },
      "createProposal(address,string,uint256,uint256,uint16)": {
        "notice": "Anyone with at least newProposalShare share of tokens or an NFT with the required permission can create a new proposal here"
      },
      "governorsByTokenAddr(address)": {
        "notice": "Maps gov token address to a Governor"
      },
      "updateProjectId(address,string)": {
        "notice": "Used in case a project wants to transfer tokens from a repo to an org in the future for example"
      }
    },
    "notice": "This contract acts as Octobay's storage of all Governors, proposals and associated tokens.         It handles all of the voting on the proposals and checking on statuses of proposals.",
    "version": 1
  }
}