{
  "contractName": "OctoBay",
  "abi": [
    {
      "inputs": [
        {
          "internalType": "address",
          "name": "_link",
          "type": "address"
        },
        {
          "internalType": "address",
          "name": "_weth",
          "type": "address"
        },
        {
          "internalType": "address",
          "name": "_uniswap",
          "type": "address"
        },
        {
          "internalType": "address",
          "name": "_forwarder",
          "type": "address"
        }
      ],
      "stateMutability": "nonpayable",
      "type": "constructor"
    },
    {
      "anonymous": false,
      "inputs": [
        {
          "indexed": true,
          "internalType": "bytes32",
          "name": "id",
          "type": "bytes32"
        }
      ],
      "name": "ChainlinkCancelled",
      "type": "event"
    },
    {
      "anonymous": false,
      "inputs": [
        {
          "indexed": true,
          "internalType": "bytes32",
          "name": "id",
          "type": "bytes32"
        }
      ],
      "name": "ChainlinkFulfilled",
      "type": "event"
    },
    {
      "anonymous": false,
      "inputs": [
        {
          "indexed": true,
          "internalType": "bytes32",
          "name": "id",
          "type": "bytes32"
        }
      ],
      "name": "ChainlinkRequested",
      "type": "event"
    },
    {
      "anonymous": false,
      "inputs": [
        {
          "indexed": false,
          "internalType": "address",
          "name": "account",
          "type": "address"
        },
        {
          "indexed": false,
          "internalType": "uint256",
          "name": "amount",
          "type": "uint256"
        },
        {
          "indexed": false,
          "internalType": "string",
          "name": "issueId",
          "type": "string"
        }
      ],
      "name": "IssueDepositEvent",
      "type": "event"
    },
    {
      "anonymous": false,
      "inputs": [
        {
          "indexed": true,
          "internalType": "address",
          "name": "previousOwner",
          "type": "address"
        },
        {
          "indexed": true,
          "internalType": "address",
          "name": "newOwner",
          "type": "address"
        }
      ],
      "name": "OwnershipTransferred",
      "type": "event"
    },
    {
      "anonymous": false,
      "inputs": [
        {
          "indexed": false,
          "internalType": "string",
          "name": "issueId",
          "type": "string"
        },
        {
          "indexed": false,
          "internalType": "string",
          "name": "githubUser",
          "type": "string"
        }
      ],
      "name": "ReleaseIssueDepositsEvent",
      "type": "event"
    },
    {
      "anonymous": false,
      "inputs": [
        {
          "indexed": false,
          "internalType": "address",
          "name": "account",
          "type": "address"
        },
        {
          "indexed": false,
          "internalType": "uint256",
          "name": "amount",
          "type": "uint256"
        },
        {
          "indexed": false,
          "internalType": "string",
          "name": "githubUser",
          "type": "string"
        }
      ],
      "name": "UserDepositEvent",
      "type": "event"
    },
    {
      "anonymous": false,
      "inputs": [
        {
          "indexed": false,
          "internalType": "address",
          "name": "account",
          "type": "address"
        },
        {
          "indexed": false,
          "internalType": "uint256",
          "name": "amount",
          "type": "uint256"
        },
        {
          "indexed": false,
          "internalType": "string",
          "name": "githubUser",
          "type": "string"
        }
      ],
      "name": "UserSendEvent",
      "type": "event"
    },
    {
      "inputs": [
        {
          "internalType": "address",
          "name": "",
          "type": "address"
        }
      ],
      "name": "activeOracles",
      "outputs": [
        {
          "internalType": "string",
          "name": "name",
          "type": "string"
        },
        {
          "internalType": "bytes32",
          "name": "registerJobId",
          "type": "bytes32"
        },
        {
          "internalType": "bytes32",
          "name": "releaseJobId",
          "type": "bytes32"
        },
        {
          "internalType": "bytes32",
          "name": "claimJobId",
          "type": "bytes32"
        },
        {
          "internalType": "uint256",
          "name": "registerJobFee",
          "type": "uint256"
        },
        {
          "internalType": "uint256",
          "name": "releaseJobFee",
          "type": "uint256"
        },
        {
          "internalType": "uint256",
          "name": "claimJobFee",
          "type": "uint256"
        }
      ],
      "stateMutability": "view",
      "type": "function",
      "constant": true
    },
    {
      "inputs": [
        {
          "internalType": "uint256",
          "name": "",
          "type": "uint256"
        }
      ],
      "name": "allOracles",
      "outputs": [
        {
          "internalType": "address",
          "name": "",
          "type": "address"
        }
      ],
      "stateMutability": "view",
      "type": "function",
      "constant": true
    },
    {
      "inputs": [
        {
          "internalType": "address",
          "name": "forwarder",
          "type": "address"
        }
      ],
      "name": "isTrustedForwarder",
      "outputs": [
        {
          "internalType": "bool",
          "name": "",
          "type": "bool"
        }
      ],
      "stateMutability": "view",
      "type": "function",
      "constant": true
    },
    {
      "inputs": [
        {
          "internalType": "string",
          "name": "",
          "type": "string"
        },
        {
          "internalType": "uint256",
          "name": "",
          "type": "uint256"
        }
      ],
      "name": "issueDepositIdsByIssueId",
      "outputs": [
        {
          "internalType": "uint256",
          "name": "",
          "type": "uint256"
        }
      ],
      "stateMutability": "view",
      "type": "function",
      "constant": true
    },
    {
      "inputs": [
        {
          "internalType": "address",
          "name": "",
          "type": "address"
        },
        {
          "internalType": "uint256",
          "name": "",
          "type": "uint256"
        }
      ],
      "name": "issueDepositIdsBySender",
      "outputs": [
        {
          "internalType": "uint256",
          "name": "",
          "type": "uint256"
        }
      ],
      "stateMutability": "view",
      "type": "function",
      "constant": true
    },
    {
      "inputs": [
        {
          "internalType": "uint256",
          "name": "",
          "type": "uint256"
        }
      ],
      "name": "issueDeposits",
      "outputs": [
        {
          "internalType": "address",
          "name": "from",
          "type": "address"
        },
        {
          "internalType": "uint256",
          "name": "amount",
          "type": "uint256"
        },
        {
          "internalType": "string",
          "name": "issueId",
          "type": "string"
        }
      ],
      "stateMutability": "view",
      "type": "function",
      "constant": true
    },
    {
      "inputs": [
        {
          "internalType": "string",
          "name": "",
          "type": "string"
        }
      ],
      "name": "issueDepositsAmountByIssueId",
      "outputs": [
        {
          "internalType": "uint256",
          "name": "",
          "type": "uint256"
        }
      ],
      "stateMutability": "view",
      "type": "function",
      "constant": true
    },
    {
      "inputs": [
        {
          "internalType": "string",
          "name": "",
          "type": "string"
        }
      ],
      "name": "issuePins",
      "outputs": [
        {
          "internalType": "uint256",
          "name": "",
          "type": "uint256"
        }
      ],
      "stateMutability": "view",
      "type": "function",
      "constant": true
    },
    {
      "inputs": [
        {
          "internalType": "string",
          "name": "",
          "type": "string"
        }
      ],
      "name": "issueReleaseIDsByIssueId",
      "outputs": [
        {
          "internalType": "bytes32",
          "name": "",
          "type": "bytes32"
        }
      ],
      "stateMutability": "view",
      "type": "function",
      "constant": true
    },
    {
      "inputs": [],
      "name": "nextIssueDepositId",
      "outputs": [
        {
          "internalType": "uint256",
          "name": "",
          "type": "uint256"
        }
      ],
      "stateMutability": "view",
      "type": "function",
      "constant": true
    },
    {
      "inputs": [],
      "name": "octoPin",
      "outputs": [
        {
          "internalType": "contract OctoPin",
          "name": "",
          "type": "address"
        }
      ],
      "stateMutability": "view",
      "type": "function",
      "constant": true
    },
    {
      "inputs": [],
      "name": "owner",
      "outputs": [
        {
          "internalType": "address",
          "name": "",
          "type": "address"
        }
      ],
      "stateMutability": "view",
      "type": "function",
      "constant": true
    },
    {
      "inputs": [
        {
          "internalType": "string",
          "name": "",
          "type": "string"
        }
      ],
      "name": "pullRequestClaimIDsByPrId",
      "outputs": [
        {
          "internalType": "bytes32",
          "name": "",
          "type": "bytes32"
        }
      ],
      "stateMutability": "view",
      "type": "function",
      "constant": true
    },
    {
      "inputs": [
        {
          "internalType": "bytes32",
          "name": "",
          "type": "bytes32"
        }
      ],
      "name": "pullRequestClaims",
      "outputs": [
        {
          "internalType": "string",
          "name": "githubUser",
          "type": "string"
        },
        {
          "internalType": "string",
          "name": "prId",
          "type": "string"
        },
        {
          "internalType": "uint256",
          "name": "status",
          "type": "uint256"
        }
      ],
      "stateMutability": "view",
      "type": "function",
      "constant": true
    },
    {
      "inputs": [
        {
          "internalType": "bytes32",
          "name": "",
          "type": "bytes32"
        }
      ],
      "name": "releasedIssues",
      "outputs": [
        {
          "internalType": "string",
          "name": "githubUser",
          "type": "string"
        },
        {
          "internalType": "string",
          "name": "issueId",
          "type": "string"
        },
        {
          "internalType": "uint256",
          "name": "status",
          "type": "uint256"
        }
      ],
      "stateMutability": "view",
      "type": "function",
      "constant": true
    },
    {
      "inputs": [],
      "name": "renounceOwnership",
      "outputs": [],
      "stateMutability": "nonpayable",
      "type": "function"
    },
    {
      "inputs": [
        {
          "internalType": "address",
          "name": "newOwner",
          "type": "address"
        }
      ],
      "name": "transferOwnership",
      "outputs": [],
      "stateMutability": "nonpayable",
      "type": "function"
    },
    {
      "inputs": [],
      "name": "trustedForwarder",
      "outputs": [
        {
          "internalType": "address",
          "name": "",
          "type": "address"
        }
      ],
      "stateMutability": "view",
      "type": "function",
      "constant": true
    },
    {
      "inputs": [
        {
          "internalType": "string",
          "name": "",
          "type": "string"
        }
      ],
      "name": "userClaimAmountByGithbUser",
      "outputs": [
        {
          "internalType": "uint256",
          "name": "",
          "type": "uint256"
        }
      ],
      "stateMutability": "view",
      "type": "function",
      "constant": true
    },
    {
      "inputs": [
        {
          "internalType": "string",
          "name": "",
          "type": "string"
        },
        {
          "internalType": "uint256",
          "name": "",
          "type": "uint256"
        }
      ],
      "name": "userDepositIdsByGithubUser",
      "outputs": [
        {
          "internalType": "uint256",
          "name": "",
          "type": "uint256"
        }
      ],
      "stateMutability": "view",
      "type": "function",
      "constant": true
    },
    {
      "inputs": [
        {
          "internalType": "address",
          "name": "",
          "type": "address"
        },
        {
          "internalType": "uint256",
          "name": "",
          "type": "uint256"
        }
      ],
      "name": "userDepositIdsBySender",
      "outputs": [
        {
          "internalType": "uint256",
          "name": "",
          "type": "uint256"
        }
      ],
      "stateMutability": "view",
      "type": "function",
      "constant": true
    },
    {
      "inputs": [
        {
          "internalType": "uint256",
          "name": "",
          "type": "uint256"
        }
      ],
      "name": "userDeposits",
      "outputs": [
        {
          "internalType": "address",
          "name": "from",
          "type": "address"
        },
        {
          "internalType": "uint256",
          "name": "amount",
          "type": "uint256"
        },
        {
          "internalType": "string",
          "name": "githubUser",
          "type": "string"
        }
      ],
      "stateMutability": "view",
      "type": "function",
      "constant": true
    },
    {
      "inputs": [
        {
          "internalType": "address",
          "name": "",
          "type": "address"
        }
      ],
      "name": "userIDsByAddress",
      "outputs": [
        {
          "internalType": "bytes32",
          "name": "",
          "type": "bytes32"
        }
      ],
      "stateMutability": "view",
      "type": "function",
      "constant": true
    },
    {
      "inputs": [
        {
          "internalType": "string",
          "name": "",
          "type": "string"
        }
      ],
      "name": "userIDsByGithubUser",
      "outputs": [
        {
          "internalType": "bytes32",
          "name": "",
          "type": "bytes32"
        }
      ],
      "stateMutability": "view",
      "type": "function",
      "constant": true
    },
    {
      "inputs": [
        {
          "internalType": "bytes32",
          "name": "",
          "type": "bytes32"
        }
      ],
      "name": "users",
      "outputs": [
        {
          "internalType": "string",
          "name": "githubUser",
          "type": "string"
        },
        {
          "internalType": "address",
          "name": "ethAddress",
          "type": "address"
        },
        {
          "internalType": "uint8",
          "name": "status",
          "type": "uint8"
        }
      ],
      "stateMutability": "view",
      "type": "function",
      "constant": true
    },
    {
      "inputs": [],
      "name": "versionRecipient",
      "outputs": [
        {
          "internalType": "string",
          "name": "",
          "type": "string"
        }
      ],
      "stateMutability": "view",
      "type": "function",
      "constant": true
    },
    {
      "inputs": [
        {
          "internalType": "address",
          "name": "_octoPin",
          "type": "address"
        }
      ],
      "name": "setOctoPin",
      "outputs": [],
      "stateMutability": "nonpayable",
      "type": "function"
    },
    {
      "inputs": [
        {
          "internalType": "address",
          "name": "_octobayPaymaster",
          "type": "address"
        }
      ],
      "name": "setPaymaster",
      "outputs": [],
      "stateMutability": "nonpayable",
      "type": "function"
    },
    {
      "inputs": [
        {
          "internalType": "address",
          "name": "_oracle",
          "type": "address"
        },
        {
          "internalType": "string",
          "name": "name",
          "type": "string"
        },
        {
          "internalType": "bytes32",
          "name": "registerJobId",
          "type": "bytes32"
        },
        {
          "internalType": "bytes32",
          "name": "releaseJobId",
          "type": "bytes32"
        },
        {
          "internalType": "bytes32",
          "name": "claimJobId",
          "type": "bytes32"
        },
        {
          "internalType": "uint256",
          "name": "registerJobFee",
          "type": "uint256"
        },
        {
          "internalType": "uint256",
          "name": "releaseJobFee",
          "type": "uint256"
        },
        {
          "internalType": "uint256",
          "name": "claimJobFee",
          "type": "uint256"
        }
      ],
      "name": "setOracle",
      "outputs": [],
      "stateMutability": "nonpayable",
      "type": "function"
    },
    {
      "inputs": [
        {
          "internalType": "address",
          "name": "_oracle",
          "type": "address"
        }
      ],
      "name": "removeOracle",
      "outputs": [],
      "stateMutability": "nonpayable",
      "type": "function"
    },
    {
      "inputs": [],
      "name": "getOracles",
      "outputs": [
        {
          "internalType": "address[]",
          "name": "",
          "type": "address[]"
        }
      ],
      "stateMutability": "view",
      "type": "function",
      "constant": true
    },
    {
      "inputs": [
        {
          "internalType": "string",
          "name": "_githubUser",
          "type": "string"
        },
        {
          "internalType": "uint256",
          "name": "_amount",
          "type": "uint256"
        }
      ],
      "name": "deductGasFee",
      "outputs": [],
      "stateMutability": "nonpayable",
      "type": "function"
    },
    {
      "inputs": [
        {
          "internalType": "address",
          "name": "_oracle",
          "type": "address"
        },
        {
          "internalType": "string",
          "name": "_githubUser",
          "type": "string"
        }
      ],
      "name": "register",
      "outputs": [],
      "stateMutability": "nonpayable",
      "type": "function"
    },
    {
      "inputs": [
        {
          "internalType": "bytes32",
          "name": "_requestId",
          "type": "bytes32"
        }
      ],
      "name": "confirmRegistration",
      "outputs": [],
      "stateMutability": "nonpayable",
      "type": "function"
    },
    {
      "inputs": [
        {
          "internalType": "string",
          "name": "_githubUser",
          "type": "string"
        }
      ],
      "name": "depositEthForGithubUser",
      "outputs": [],
      "stateMutability": "payable",
      "type": "function",
      "payable": true
    },
    {
      "inputs": [
        {
          "internalType": "uint256",
          "name": "_depositId",
          "type": "uint256"
        }
      ],
      "name": "refundUserDeposit",
      "outputs": [],
      "stateMutability": "nonpayable",
      "type": "function"
    },
    {
      "inputs": [
        {
          "internalType": "uint256",
          "name": "_depositId",
          "type": "uint256"
        }
      ],
      "name": "withdrawUserDeposit",
      "outputs": [],
      "stateMutability": "nonpayable",
      "type": "function"
    },
    {
      "inputs": [
        {
          "internalType": "string",
          "name": "_issueId",
          "type": "string"
        }
      ],
      "name": "depositEthForIssue",
      "outputs": [],
      "stateMutability": "payable",
      "type": "function",
      "payable": true
    },
    {
      "inputs": [
        {
          "internalType": "uint256",
          "name": "_depositId",
          "type": "uint256"
        }
      ],
      "name": "refundIssueDeposit",
      "outputs": [],
      "stateMutability": "nonpayable",
      "type": "function"
    },
    {
      "inputs": [
        {
          "internalType": "address",
          "name": "_oracle",
          "type": "address"
        },
        {
          "internalType": "string",
          "name": "_issueId",
          "type": "string"
        },
        {
          "internalType": "string",
          "name": "_githubUser",
          "type": "string"
        }
      ],
      "name": "releaseIssueDeposits",
      "outputs": [],
      "stateMutability": "nonpayable",
      "type": "function"
    },
    {
      "inputs": [
        {
          "internalType": "bytes32",
          "name": "_requestId",
          "type": "bytes32"
        }
      ],
      "name": "confirmReleaseIssueDeposits",
      "outputs": [],
      "stateMutability": "nonpayable",
      "type": "function"
    },
    {
      "inputs": [
        {
          "internalType": "string",
          "name": "_issueId",
          "type": "string"
        }
      ],
      "name": "claimReleasedIssueDeposits",
      "outputs": [],
      "stateMutability": "nonpayable",
      "type": "function"
    },
    {
      "inputs": [
        {
          "internalType": "address",
          "name": "_oracle",
          "type": "address"
        },
        {
          "internalType": "string",
          "name": "_prId",
          "type": "string"
        },
        {
          "internalType": "string",
          "name": "_githubUser",
          "type": "string"
        }
      ],
      "name": "claimPullRequest",
      "outputs": [],
      "stateMutability": "nonpayable",
      "type": "function"
    },
    {
      "inputs": [
        {
          "internalType": "bytes32",
          "name": "_requestId",
          "type": "bytes32"
        },
        {
          "internalType": "uint256",
          "name": "_score",
          "type": "uint256"
        }
      ],
      "name": "confirmPullRequestClaim",
      "outputs": [],
      "stateMutability": "nonpayable",
      "type": "function"
    },
    {
      "inputs": [
        {
          "internalType": "string",
          "name": "_githubUser",
          "type": "string"
        }
      ],
      "name": "getUserDepositIdsForGithubUser",
      "outputs": [
        {
          "internalType": "uint256[]",
          "name": "",
          "type": "uint256[]"
        }
      ],
      "stateMutability": "view",
      "type": "function",
      "constant": true
    },
    {
      "inputs": [],
      "name": "getUserDepositIdsForSender",
      "outputs": [
        {
          "internalType": "uint256[]",
          "name": "",
          "type": "uint256[]"
        }
      ],
      "stateMutability": "view",
      "type": "function",
      "constant": true
    },
    {
      "inputs": [
        {
          "internalType": "string",
          "name": "_depositId",
          "type": "string"
        }
      ],
      "name": "getIssueDepositIdsForIssueId",
      "outputs": [
        {
          "internalType": "uint256[]",
          "name": "",
          "type": "uint256[]"
        }
      ],
      "stateMutability": "view",
      "type": "function",
      "constant": true
    },
    {
      "inputs": [],
      "name": "getIssueDepositIdsForSender",
      "outputs": [
        {
          "internalType": "uint256[]",
          "name": "",
          "type": "uint256[]"
        }
      ],
      "stateMutability": "view",
      "type": "function",
      "constant": true
    },
    {
      "inputs": [
        {
          "internalType": "string",
          "name": "_githubUser",
          "type": "string"
        }
      ],
      "name": "getUserClaimAmount",
      "outputs": [
        {
          "internalType": "uint256",
          "name": "",
          "type": "uint256"
        }
      ],
      "stateMutability": "view",
      "type": "function",
      "constant": true
    }
  ],
  "bytecode": "0x6001600590815560c06040526080819052640322e302e360dc1b60a09081526200002d91600891906200025b565b506000600e5560006013553480156200004557600080fd5b50604051620046593803806200465983398101604081905262000068916200033a565b6000620000746200013b565b600080546001600160a01b0319166001600160a01b0383169081178255604051929350917f8be0079c531659141344cd1fd0a4f28419497f9722a3daafe3b4186f6b6457e0908290a3506001600160a01b038416620000dd57620000d762000158565b620000e8565b620000e884620001ed565b601f80546001600160a01b039586166001600160a01b031991821617909155601e80549486169482169490941790935560078054918516918416919091179055600980549190931691161790556200039a565b6000620001526200020f60201b62002af21760201c565b90505b90565b620001eb73c89bd4e1632d3a43cb03aaad5262cbe4038bc5716001600160a01b03166338cc48316040518163ffffffff1660e01b815260040160206040518083038186803b158015620001aa57600080fd5b505afa158015620001bf573d6000803e3d6000fd5b505050506040513d601f19601f82011682018060405250810190620001e5919062000315565b620001ed565b565b600380546001600160a01b0319166001600160a01b0392909216919091179055565b600060183610801590620002295750620002293362000247565b156200023f575060131936013560601c62000155565b503362000155565b6007546001600160a01b0390811691161490565b828054600181600116156101000203166002900490600052602060002090601f016020900481019282601f106200029e57805160ff1916838001178555620002ce565b82800160010185558215620002ce579182015b82811115620002ce578251825591602001919060010190620002b1565b50620002dc929150620002e0565b5090565b5b80821115620002dc5760008155600101620002e1565b80516001600160a01b03811681146200030f57600080fd5b92915050565b60006020828403121562000327578081fd5b620003338383620002f7565b9392505050565b6000806000806080858703121562000350578283fd5b6200035c8686620002f7565b93506200036d8660208701620002f7565b92506200037e8660408701620002f7565b91506200038f8660608701620002f7565b905092959194509250565b6142af80620003aa6000396000f3fe60806040526004361061029e5760003560e01c806361e421d5116101655780639c900e33116100cc578063f16b41f411610085578063f16b41f414610822578063f2fde38b14610842578063f4b90ef714610862578063f63e8c7014610875578063f9c8d78f1461088a578063fb95354a146108aa578063fdc85fc4146108bf5761029e565b80639c900e3314610744578063c315fbca14610764578063cea6ab9814610784578063cf5f5f46146107b3578063d224784d146107d3578063f0e31cf9146108025761029e565b80638617fc461161011e5780638617fc46146106a75780638b5f2577146106c75780638da5cb5b146106e75780638fc0e3b2146106fc5780639947918c146107115780639996f186146107315761029e565b806361e421d5146105f05780636470175014610610578063715018a614610630578063746c97b9146106455780637da0a87714610665578063858c1194146106875761029e565b8063454d055411610209578063546075da116101c2578063546075da1461052357806354d16f67146105435780635525418814610563578063572b6c051461058357806357bd9a97146105b057806360445fb2146105d05761029e565b8063454d055414610450578063486ff0cd146104725780634c1b100a1461049457806350aea559146104c357806353a61ff9146104e3578063541b6c9f146105035761029e565b80631d2f5e831161025b5780631d2f5e831461037b5780631e97c80d1461039b5780632a97fa77146103ce57806332434a2e146103ee5780633be784bc1461040e57806340884c521461042e5761029e565b80630213511d146102a357806304405fa9146102c55780630479f6f2146102fb5780630f8b8afa1461031b578063113d41341461033b57806317c486f11461035b575b600080fd5b3480156102af57600080fd5b506102c36102be366004613535565b6108df565b005b3480156102d157600080fd5b506102e56102e0366004613778565b610a4f565b6040516102f29190613ae7565b60405180910390f35b34801561030757600080fd5b506102c3610316366004613613565b610a8c565b34801561032757600080fd5b506102e5610336366004613746565b610cb5565b34801561034757600080fd5b506102e5610356366004613746565b610cd2565b34801561036757600080fd5b506102e5610376366004613746565b610cfb565b34801561038757600080fd5b506102e5610396366004613746565b610d18565b3480156103a757600080fd5b506103bb6103b636600461351a565b610d35565b6040516102f29796959493929190613b39565b3480156103da57600080fd5b506102c36103e936600461351a565b610dfa565b3480156103fa57600080fd5b506102c36104093660046135bb565b610e51565b34801561041a57600080fd5b506102c36104293660046136ce565b611006565b34801561043a57600080fd5b50610443611152565b6040516102f29190613a57565b34801561045c57600080fd5b506104656111b5565b6040516102f29190613aa4565b34801561047e57600080fd5b50610487611215565b6040516102f29190613af0565b3480156104a057600080fd5b506104b46104af3660046136ce565b6112a3565b6040516102f293929190613b7d565b3480156104cf57600080fd5b506104656104de366004613707565b6113e8565b3480156104ef57600080fd5b506104656104fe366004613707565b61145c565b34801561050f57600080fd5b506104b461051e3660046136ce565b611470565b34801561052f57600080fd5b506102c361053e366004613778565b6114dc565b34801561054f57600080fd5b506102e561055e36600461351a565b61155d565b34801561056f57600080fd5b506102c361057e36600461351a565b61156f565b34801561058f57600080fd5b506105a361059e36600461351a565b6115c6565b6040516102f29190613adc565b3480156105bc57600080fd5b506102c36105cb3660046136ce565b6115da565b3480156105dc57600080fd5b506102c36105eb3660046136ce565b61172e565b3480156105fc57600080fd5b506102e561060b366004613684565b611771565b34801561061c57600080fd5b506102e561062b366004613684565b61178a565b34801561063c57600080fd5b506102c36117a3565b34801561065157600080fd5b506102e5610660366004613778565b611822565b34801561067157600080fd5b5061067a61184a565b6040516102f29190613953565b34801561069357600080fd5b506102c36106a2366004613613565b611859565b3480156106b357600080fd5b506102c36106c23660046136ce565b611a71565b3480156106d357600080fd5b5061067a6106e23660046136ce565b611bb3565b3480156106f357600080fd5b5061067a611bda565b34801561070857600080fd5b5061067a611be9565b34801561071d57600080fd5b506102c361072c366004613707565b611bf8565b6102c361073f366004613707565b611df8565b34801561075057600080fd5b506102e561075f366004613746565b612173565b34801561077057600080fd5b506102c361077f3660046136ce565b612190565b34801561079057600080fd5b506107a461079f3660046136ce565b61224c565b6040516102f293929190613b03565b3480156107bf57600080fd5b506102e56107ce366004613746565b612309565b3480156107df57600080fd5b506107f36107ee3660046136ce565b612326565b6040516102f293929190613a30565b34801561080e57600080fd5b506102c361081d3660046136e6565b6123dc565b34801561082e57600080fd5b506107f361083d3660046136ce565b612647565b34801561084e57600080fd5b506102c361085d36600461351a565b6126c8565b6102c3610870366004613707565b61277e565b34801561088157600080fd5b506102e5612904565b34801561089657600080fd5b506102e56108a5366004613746565b61290a565b3480156108b657600080fd5b50610465612927565b3480156108cb57600080fd5b506102c36108da36600461351a565b612986565b6108e7612b24565b6000546001600160a01b0390811691161461091d5760405162461bcd60e51b815260040161091490613f7c565b60405180910390fd5b6040518060e0016040528089898080601f016020809104026020016040519081016040528093929190818152602001838380828437600092018290525093855250505060208083018a905260408084018a9052606084018990526080840188905260a0840187905260c09093018590526001600160a01b038d168252601c81529190208251805191926109b5928492909101906132d0565b50602082015160018281019190915560408301516002830155606083015160038301556080830151600483015560a0830151600583015560c090920151600690910155601d805491820181556000527f6d4407e7be21f808e6509aa9fa9143369579dd7d760fe20a2c09680fc146134f0180546001600160a01b0319166001600160a01b039a909a16999099179098555050505050505050565b81516020818401810180516014825292820191850191909120919052805482908110610a7757fe5b90600052602060002001600091509150505481565b6001600160a01b0383166000908152601c6020526040902054839060026000196101006001841615020190911604610ad65760405162461bcd60e51b815260040161091490613d88565b60196000601a85604051610aea9190613937565b90815260200160405180910390205481526020019081526020016000206002015460021415610b2b5760405162461bcd60e51b815260040161091490613c69565b600a6000600c84604051610b3f9190613937565b908152602001604051809103902054815260200190815260200160002060010160149054906101000a900460ff1660ff16600214610b8f5760405162461bcd60e51b8152600401610914906141de565b610b9761334e565b6001600160a01b0385166000908152601c6020526040902060030154610bc5903063f0e31cf960e01b612b33565b60408051808201909152600a81526933b4ba343ab12ab9b2b960b11b6020820152909150610bf590829085612b58565b6040805180820190915260048152631c1c925960e21b6020820152610c1c90829086612b58565b6001600160a01b0385166000908152601c6020526040812060060154610c459087908490612b76565b604080516060810182528681526020808201899052600182840152600084815260198252929092208151805194955091939092610c869284929101906132d0565b506020828101518051610c9f92600185019201906132d0565b5060408201518160020155905050505050505050565b8051602081830181018051600d8252928201919093012091525481565b6000600d82604051610ce49190613937565b90815260200160405180910390205490505b919050565b805160208183018101805160168252928201919093012091525481565b8051602081830181018051600c8252928201919093012091525481565b601c6020908152600091825260409182902080548351601f60026000196101006001861615020190931692909204918201849004840281018401909452808452909291839190830182828015610dcc5780601f10610da157610100808354040283529160200191610dcc565b820191906000526020600020905b815481529060010190602001808311610daf57829003601f168201915b5050505050908060010154908060020154908060030154908060040154908060050154908060060154905087565b610e02612b24565b6000546001600160a01b03908116911614610e2f5760405162461bcd60e51b815260040161091490613f7c565b602180546001600160a01b0319166001600160a01b0392909216919091179055565b6001600160a01b0382166000908152601c6020526040902054829060026000196101006001841615020190911604610e9b5760405162461bcd60e51b815260040161091490613d88565b610ea361334e565b6001600160a01b0384166000908152601c6020526040902060010154610ed19030630ef9e12f60e21b612b33565b60408051808201909152600a81526933b4ba343ab12ab9b2b960b11b6020820152909150610f0190829085612b58565b610f3f6040518060400160405280600a8152602001696574684164647265737360b01b815250610f37610f32612b24565b612cb5565b839190612b58565b6001600160a01b0384166000908152601c6020526040812060040154610f689086908490612b76565b90506040518060600160405280858152602001610f83612b24565b6001600160a01b0316815260016020918201526000838152600a825260409020825180519192610fb8928492909101906132d0565b5060208201516001909101805460409093015160ff16600160a01b0260ff60a01b196001600160a01b039093166001600160a01b031990941693909317919091169190911790555050505050565b60008181526006602052604090205481906001600160a01b0316331461103e5760405162461bcd60e51b8152600401610914906140ed565b60008181526006602052604080822080546001600160a01b031916905551829160008051602061425a83398151915291a26000828152600a60205260408082209051600c9161108c916138f9565b9081526040805160209281900383019020546000818152600a80855283822060018101546001600160a01b03168352600b86529382208290558282529093529250906110d88282613383565b50600190810180546001600160a81b03191690556000848152600a60208181526040808420948501805460ff60a01b1916600160a11b17908190556001600160a01b03168452600b82528084208890559287905252518491600c9161113d91906138f9565b90815260405190819003602001902055505050565b6060601d8054806020026020016040519081016040528092919081815260200182805480156111aa57602002820191906000526020600020905b81546001600160a01b0316815260019091019060200180831161118c575b505050505090505b90565b336000908152601160209081526040918290208054835181840281018401909452808452606093928301828280156111aa57602002820191906000526020600020905b8154815260200190600101908083116111f8575050505050905090565b6008805460408051602060026001851615610100026000190190941693909304601f8101849004840282018401909252818152929183018282801561129b5780601f106112705761010080835404028352916020019161129b565b820191906000526020600020905b81548152906001019060200180831161127e57829003601f168201915b505050505081565b60196020908152600091825260409182902080548351601f6002600019610100600186161502019093169290920491820184900484028101840190945280845290929183919083018282801561133a5780601f1061130f5761010080835404028352916020019161133a565b820191906000526020600020905b81548152906001019060200180831161131d57829003601f168201915b505050505090806001018054600181600116156101000203166002900480601f0160208091040260200160405190810160405280929190818152602001828054600181600116156101000203166002900480156113d85780601f106113ad576101008083540402835291602001916113d8565b820191906000526020600020905b8154815290600101906020018083116113bb57829003601f168201915b5050505050908060020154905083565b6060601483836040516113fc929190613927565b908152604080519182900360209081018320805480830285018301909352828452919083018282801561144e57602002820191906000526020600020905b81548152602001906001019080831161143a575b505050505090505b92915050565b6060601083836040516113fc929190613927565b60176020908152600091825260409182902080548351601f6002600019610100600186161502019093169290920491820184900484028101840190945280845290929183919083018282801561133a5780601f1061130f5761010080835404028352916020019161133a565b6021546001600160a01b031633146114f357600080fd5b80600d836040516115049190613937565b90815260200160405180910390205410156115315760405162461bcd60e51b815260040161091490613ef7565b80600d836040516115429190613937565b90815260405190819003602001902080549190910390555050565b600b6020526000908152604090205481565b611577612b24565b6000546001600160a01b039081169116146115a45760405162461bcd60e51b815260040161091490613f7c565b602080546001600160a01b0319166001600160a01b0392909216919091179055565b6007546001600160a01b0390811691161490565b60008181526006602052604090205481906001600160a01b031633146116125760405162461bcd60e51b8152600401610914906140ed565b60008181526006602052604080822080546001600160a01b031916905551829160008051602061425a83398151915291a26000828152601760205260409020600201546001146116745760405162461bcd60e51b81526004016109149061404e565b60008281526017602052604090819020600281810155905160169161169e916001909101906138f9565b90815260408051918290036020908101832054600086815260179092529190209091600d916116cc916138f9565b90815260408051602092819003830181208054949094019093556000858152601790925290207f982ab3ed562795c652df6267e3375f911bda7be583569dd2d2f704389ee5fc4191611722916001810191613bb3565b60405180910390a15050565b6000818152600f60205260409020546001600160a01b031633146117645760405162461bcd60e51b815260040161091490613bd8565b61176e8133612d98565b50565b60156020528160005260406000208181548110610a7757fe5b60116020528160005260406000208181548110610a7757fe5b6117ab612b24565b6000546001600160a01b039081169116146117d85760405162461bcd60e51b815260040161091490613f7c565b600080546040516001600160a01b03909116907f8be0079c531659141344cd1fd0a4f28419497f9722a3daafe3b4186f6b6457e0908390a3600080546001600160a01b0319169055565b81516020818401810180516010825292820191850191909120919052805482908110610a7757fe5b6007546001600160a01b031681565b6001600160a01b0383166000908152601c60205260409020548390600260001961010060018416150201909116046118a35760405162461bcd60e51b815260040161091490613d88565b60006016846040516118b59190613937565b908152602001604051809103902054116118e15760405162461bcd60e51b815260040161091490613c28565b336000818152600b60209081526040808320548352600a9091529020600101546001600160a01b0316146119275760405162461bcd60e51b815260040161091490613e9f565b61192f61334e565b6001600160a01b0385166000908152601c602052604090206002015461195d90306357bd9a9760e01b612b33565b60408051808201909152600a81526933b4ba343ab12ab9b2b960b11b602082015290915061198d90829085612b58565b6040805180820190915260078152661a5cdcdd59525960ca1b60208201526119b790829086612b58565b6001600160a01b0385166000908152601c60205260408120600501546119e09087908490612b76565b604080516060810182528681526020808201899052600182840152600084815260178252929092208151805194955091939092611a219284929101906132d0565b506020828101518051611a3a92600185019201906132d0565b506040820151816002015590505080601886604051611a599190613937565b90815260405190819003602001902055505050505050565b6000818152601260205260409020546001600160a01b03163314611aa75760405162461bcd60e51b815260040161091490613fe6565b6000818152601260205260409081902060018101549151601691611ad0916002909101906138f9565b9081526020016040518091039020541015611afd5760405162461bcd60e51b815260040161091490613f2e565b600081815260126020526040808220600101549051339282156108fc02929190818181858888f19350505050158015611b3a573d6000803e3d6000fd5b506000818152601260205260409081902060018101549151601691611b64916002909101906138f9565b90815260408051602092819003830190208054939093039092556000838152601290915290812080546001600160a01b03191681556001810182905590611bae6002830182613383565b505050565b601d8181548110611bc057fe5b6000918252602090912001546001600160a01b0316905081565b6000546001600160a01b031690565b6020546001600160a01b031681565b336000818152600b60209081526040808320548352600a9091529020600101546001600160a01b031614611c3e5760405162461bcd60e51b815260040161091490614095565b336000908152600b60209081526040808320548352600a909152908190209051611c6891906138f9565b60405180910390206017600060188585604051611c86929190613927565b9081526020016040518091039020548152602001908152602001600020600001604051611cb391906138f9565b604051809103902014611cd85760405162461bcd60e51b815260040161091490614135565b600060168383604051611cec929190613927565b90815260200160405180910390205411611d185760405162461bcd60e51b815260040161091490613e21565b336001600160a01b03166108fc60168484604051611d37929190613927565b90815260405190819003602001812054801590920291906000818181858888f19350505050158015611d6d573d6000803e3d6000fd5b5060168282604051611d80929190613927565b90815260408051918290036020908101832054336000908152600b8352838120548152600a9092529190209091600d91611db9916138f9565b908152604051908190036020018120805492909203909155600090601690611de49085908590613927565b908152604051908190036020019020555050565b60003411611e185760405162461bcd60e51b8152600401610914906141b2565b611e206133c7565b600a6000600c8585604051611e36929190613927565b9081526040805160209281900383019020548352828201939093529082016000208251815460026001821615610100026000190190911604601f81018490049093028101608090810190945260608101838152909391928492849190840182828015611ee35780601f10611eb857610100808354040283529160200191611ee3565b820191906000526020600020905b815481529060010190602001808311611ec657829003601f168201915b5050509183525050600191909101546001600160a01b03808216602080850191909152600160a01b90920460ff166040909301929092528201519192501615801590611f365750806040015160ff166002145b1561200057600a6000600c8585604051611f51929190613927565b908152602001604051809103902054815260200190815260200160002060010160009054906101000a90046001600160a01b03166001600160a01b03166108fc349081150290604051600060405180830381858888f19350505050158015611fbd573d6000803e3d6000fd5b507f55ba5e513ac5c832c73696b2bac8efc4fa9fcac62091a294ec672803704481d533348585604051611ff39493929190613967565b60405180910390a1611bae565b600e8054600101905560408051606081018252338152346020808301919091528251601f8601829004820281018201845285815291928301919086908690819084018382808284376000920182905250939094525050600e548152600f6020908152604091829020845181546001600160a01b0319166001600160a01b039091161781558482015160018201559184015180519293506120a992600285019291909101906132d0565b50905050601083836040516120bf929190613927565b908152604080519182900360209081018320600e805482546001818101855560009485528585209091019190915533835260118452938220905481549485018255908252919020909101553490600d9061211c9086908690613927565b90815260405190819003602001812080549092019091557f406551011d3a3874d102c2ee25adb004adb6d90a8134f04c14bd02f73ad4a3d090612166903390349087908790613967565b60405180910390a1505050565b805160208183018101805160188252928201919093012091525481565b336000818152600b60209081526040808320548352600a9091529020600101546001600160a01b0316146121d65760405162461bcd60e51b815260040161091490613ca0565b336000908152600b60209081526040808320548352600a90915290819020905161220091906138f9565b604080519182900382206000848152600f60205291909120909161222791600201906138f9565b6040518091039020146117645760405162461bcd60e51b815260040161091490613e58565b600a6020908152600091825260409182902080548351601f600260001961010060018616150201909316929092049182018490048402810184019094528084529092918391908301828280156122e35780601f106122b8576101008083540402835291602001916122e3565b820191906000526020600020905b8154815290600101906020018083116122c657829003601f168201915b505050600190930154919250506001600160a01b0381169060ff600160a01b9091041683565b8051602081830181018051601b8252928201919093012091525481565b60126020908152600091825260409182902080546001808301546002808501805488516101009582161595909502600019011691909104601f81018790048702840187019097528683526001600160a01b039093169590949192918301828280156123d25780601f106123a7576101008083540402835291602001916123d2565b820191906000526020600020905b8154815290600101906020018083116123b557829003601f168201915b5050505050905083565b60008281526006602052604090205482906001600160a01b031633146124145760405162461bcd60e51b8152600401610914906140ed565b60008181526006602052604080822080546001600160a01b031916905551829160008051602061425a83398151915291a281600111158015612457575060648211155b6124735760405162461bcd60e51b815260040161091490613fb1565b6000838152601960205260409020600201546001146124a45760405162461bcd60e51b815260040161091490613cfd565b6000838152601960205260408082209051600a918391600c916124c6916138f9565b90815260408051602092819003830190205483529082019290925201600020600101546001600160a01b031614156125105760405162461bcd60e51b8152600401610914906141de565b6000838152601960209081526040808320600281810155915490516001600160a01b039091169263f68fb07592600a92600c9161254c916138f9565b908152604080516020928190038301902054835282820193909352908201600020600101548154835163313ce56760e01b815293516001600160a01b0392831694929091169263313ce5679260048082019391829003018186803b1580156125b357600080fd5b505afa1580156125c7573d6000803e3d6000fd5b505050506040513d601f19601f820116820180604052508101906125eb91906137ba565b60ff16600a0a85026040518363ffffffff1660e01b81526004016126109291906139af565b600060405180830381600087803b15801561262a57600080fd5b505af115801561263e573d6000803e3d6000fd5b50505050505050565b600f6020908152600091825260409182902080546001808301546002808501805488516101009582161595909502600019011691909104601f81018790048702840187019097528683526001600160a01b039093169590949192918301828280156123d25780601f106123a7576101008083540402835291602001916123d2565b6126d0612b24565b6000546001600160a01b039081169116146126fd5760405162461bcd60e51b815260040161091490613f7c565b6001600160a01b0381166127235760405162461bcd60e51b815260040161091490613d42565b600080546040516001600160a01b03808516939216917f8be0079c531659141344cd1fd0a4f28419497f9722a3daafe3b4186f6b6457e091a3600080546001600160a01b0319166001600160a01b0392909216919091179055565b6000341161279e5760405162461bcd60e51b8152600401610914906141b2565b60138054600101905560408051606081018252338152346020808301919091528251601f8501829004820281018201845284815291928301919085908590819084018382808284376000920182905250939094525050601354815260126020908152604091829020845181546001600160a01b0319166001600160a01b0390911617815584820151600182015591840151805192935061284792600285019291909101906132d0565b509050506014828260405161285d929190613927565b90815260408051918290036020908101832060138054825460018181018555600094855285852090910191909155338352601584529382209054815494850182559082529190209091015534906016906128ba9085908590613927565b90815260405190819003602001812080549092019091557f08c7c4039b7c98d46cb4ebb0f96ca6a67a506db7c3ddd814f88dd3cfd24e2ae990611722903390349086908690613967565b60135481565b8051602081830181018051601a8252928201919093012091525481565b336000908152601560209081526040918290208054835181840281018401909452808452606093928301828280156111aa57602002820191906000526020600020908154815260200190600101908083116111f8575050505050905090565b61298e612b24565b6000546001600160a01b039081169116146129bb5760405162461bcd60e51b815260040161091490613f7c565b6001600160a01b0381166000908152601c60205260408120906129de8282613383565b600182016000905560028201600090556003820160009055600482016000905560058201600090556006820160009055505060005b816001600160a01b0316601d8281548110612a2a57fe5b6000918252602090912001546001600160a01b031614612a4c57600101612a13565b601d5460001901811015612ac157601d8160010181548110612a6a57fe5b600091825260209091200154601d80546001600160a01b039092169183908110612a9057fe5b600091825260209091200180546001600160a01b0319166001600160a01b0392909216919091179055600101612a4c565b601d805480612acc57fe5b600082815260209020810160001990810180546001600160a01b03191690550190555050565b600060183610801590612b095750612b09336115c6565b15612b1d575060131936013560601c6111b2565b50336111b2565b6000612b2e612af2565b905090565b612b3b61334e565b612b4361334e565b612b4f81868686612f10565b95945050505050565b6080830151612b679083612f4d565b6080830151611bae9082612f4d565b600030600554604051602001612b8d929190613905565b60408051808303601f19018152918152815160209283012060055460608701526000818152600690935281832080546001600160a01b0319166001600160a01b038916179055905190925082917fb5e6e01e79f91267dc17b4e6314d5d4d03593d2ceee0fbb452b750bd70ea5af991a26003546001600160a01b0316634000aea08584612c1987612f64565b6040518463ffffffff1660e01b8152600401612c3793929190613a30565b602060405180830381600087803b158015612c5157600080fd5b505af1158015612c65573d6000803e3d6000fd5b505050506040513d601f19601f82011682018060405250810190612c8991906136ae565b612ca55760405162461bcd60e51b815260040161091490613dde565b6005805460010190559392505050565b60606001600160a01b03821680612ce55750506040805180820190915260018152600360fc1b6020820152610cf6565b8060005b8115612cfd57600101600a82049150612ce9565b6060816001600160401b0381118015612d1557600080fd5b506040519080825280601f01601f191660200182016040528015612d40576020820181803683370190505b50905060001982015b8415612d8e57600a850660300160f81b82828060019003935081518110612d6c57fe5b60200101906001600160f81b031916908160001a905350600a85049450612d49565b5095945050505050565b612da06133e7565b6000838152600f6020908152604091829020825160608101845281546001600160a01b03168152600180830154828501526002808401805487516101009482161594909402600019011691909104601f81018690048602830186018752808352929593949386019391929091830182828015612e5d5780601f10612e3257610100808354040283529160200191612e5d565b820191906000526020600020905b815481529060010190602001808311612e4057829003601f168201915b5050505050815250509050816001600160a01b03166108fc82602001519081150290604051600060405180830381858888f19350505050158015612ea5573d6000803e3d6000fd5b508060200151600d8260400151604051612ebf9190613937565b90815260408051602092819003830190208054939093039092556000858152600f90915290812080546001600160a01b03191681556001810182905590612f096002830182613383565b5050505050565b612f1861334e565b612f288560800151610100612fe0565b50509183526001600160a01b031660208301526001600160e01b031916604082015290565b612f5a826003835161301a565b611bae82826130f3565b6060634042994660e01b60008084600001518560200151866040015187606001516001896080015160000151604051602401612fa79897969594939291906139c8565b60408051601f198184030181529190526020810180516001600160e01b03166001600160e01b0319909316929092179091529050919050565b612fe8613411565b6020820615612ffd5760208206602003820191505b506020828101829052604080518085526000815290920101905290565b6017811161303b576130358360e0600585901b168317613114565b50611bae565b60ff811161306557613058836018611fe0600586901b1617613114565b506130358382600161312c565b61ffff811161309057613083836019611fe0600586901b1617613114565b506130358382600261312c565b63ffffffff81116130bd576130b083601a611fe0600586901b1617613114565b506130358382600461312c565b6001600160401b038111611bae576130e083601b611fe0600586901b1617613114565b506130ed8382600861312c565b50505050565b6130fb613411565b61310d8384600001515184855161314d565b9392505050565b61311c613411565b61310d83846000015151846131f9565b613134613411565b613145848560000151518585613244565b949350505050565b613155613411565b825182111561316357600080fd5b8460200151828501111561318d5761318d8561318587602001518786016132a2565b6002026132b9565b6000808651805187602083010193508088870111156131ac5787860182525b505050602084015b602084106131d35780518252601f1990930192602091820191016131b4565b51815160001960208690036101000a019081169019919091161790525083949350505050565b613201613411565b8360200151831061321d5761321d8485602001516002026132b9565b83518051602085830101848153508085141561323a576001810182525b5093949350505050565b61324c613411565b8460200151848301111561326957613269858584016002026132b9565b60006001836101000a0390508551838682010185831982511617815250805184870111156132975783860181525b509495945050505050565b6000818311156132b3575081611456565b50919050565b81516132c58383612fe0565b506130ed83826130f3565b828054600181600116156101000203166002900490600052602060002090601f016020900481019282601f1061331157805160ff191683800117855561333e565b8280016001018555821561333e579182015b8281111561333e578251825591602001919060010190613323565b5061334a92915061342b565b5090565b6040805160a08101825260008082526020820181905291810182905260608101919091526080810161337e613411565b905290565b50805460018160011615610100020316600290046000825580601f106133a9575061176e565b601f01602090049060005260206000209081019061176e919061342b565b604080516060808201835281526000602082018190529181019190915290565b604051806060016040528060006001600160a01b0316815260200160008152602001606081525090565b604051806040016040528060608152602001600081525090565b5b8082111561334a576000815560010161342c565b80356001600160a01b038116811461145657600080fd5b60008083601f840112613468578182fd5b5081356001600160401b0381111561347e578182fd5b60208301915083602082850101111561349657600080fd5b9250929050565b600082601f8301126134ad578081fd5b81356001600160401b03808211156134c3578283fd5b604051601f8301601f1916810160200182811182821017156134e3578485fd5b6040528281529250828483016020018610156134fe57600080fd5b8260208601602083013760006020848301015250505092915050565b60006020828403121561352b578081fd5b61310d8383613440565b60008060008060008060008060006101008a8c031215613553578485fd5b61355d8b8b613440565b985060208a01356001600160401b03811115613577578586fd5b6135838c828d01613457565b9a9d909c50999a60408101359a60608201359a506080820135995060a0820135985060c0820135975060e09091013595509350505050565b600080604083850312156135cd578182fd5b82356001600160a01b03811681146135e3578283fd5b915060208301356001600160401b038111156135fd578182fd5b6136098582860161349d565b9150509250929050565b600080600060608486031215613627578283fd5b6136318585613440565b925060208401356001600160401b038082111561364c578384fd5b6136588783880161349d565b9350604086013591508082111561366d578283fd5b5061367a8682870161349d565b9150509250925092565b60008060408385031215613696578182fd5b6136a08484613440565b946020939093013593505050565b6000602082840312156136bf578081fd5b8151801515811461310d578182fd5b6000602082840312156136df578081fd5b5035919050565b600080604083850312156136f8578182fd5b50508035926020909101359150565b60008060208385031215613719578182fd5b82356001600160401b0381111561372e578283fd5b61373a85828601613457565b90969095509350505050565b600060208284031215613757578081fd5b81356001600160401b0381111561376c578182fd5b6131458482850161349d565b6000806040838503121561378a578182fd5b82356001600160401b0381111561379f578283fd5b6137ab8582860161349d565b95602094909401359450505050565b6000602082840312156137cb578081fd5b815160ff8116811461310d578182fd5b600081518084526137f381602086016020860161422d565b601f01601f19169290920160200192915050565b60008154600180821660008114613825576001811461383c5761386e565b60ff198316865260028304607f168601935061386e565b600283048560005260208060002060005b838110156138665781548a82015290850190820161384d565b505050860193505b50505092915050565b6000815460018082166000811461389557600181146138b35761386e565b60028304607f16865260ff198316602087015260408601935061386e565b600283048087526138c386614221565b60005b828110156138e75781546020828b01015284820191506020810190506138c6565b88016020019550505050505092915050565b600061310d8284613807565b60609290921b6bffffffffffffffffffffffff19168252601482015260340190565b6000828483379101908152919050565b6000825161394981846020870161422d565b9190910192915050565b6001600160a01b0391909116815260200190565b6001600160a01b0385168152602081018490526060604082018190528101829052600082846080840137818301608090810191909152601f909201601f191601019392505050565b6001600160a01b03929092168252602082015260400190565b6001600160a01b0389811682526020820189905260408201889052861660608201526001600160e01b03198516608082015260a0810184905260c0810183905261010060e08201819052600090613a21838201856137db565b9b9a5050505050505050505050565b600060018060a01b038516825283602083015260606040830152612b4f60608301846137db565b6020808252825182820181905260009190848201906040850190845b81811015613a985783516001600160a01b031683529284019291840191600101613a73565b50909695505050505050565b6020808252825182820181905260009190848201906040850190845b81811015613a9857835183529284019291840191600101613ac0565b901515815260200190565b90815260200190565b60006020825261310d60208301846137db565b600060608252613b1660608301866137db565b6001600160a01b039490941660208301525060ff91909116604090910152919050565b600060e08252613b4c60e083018a6137db565b60208301989098525060408101959095526060850193909352608084019190915260a083015260c090910152919050565b600060608252613b9060608301866137db565b8281036020840152613ba281866137db565b915050826040830152949350505050565b600060408252613bc66040830185613877565b8281036020840152612b4f8185613877565b60208082526030908201527f4465706f73697420646964206e6f742063616d652066726f6d2074686973204560408201526f3a3432b932bab69030b2323932b9b99760811b606082015260800190565b60208082526021908201527f497373756520686173206e6f206465706f7369747320746f2072656c656173656040820152601760f91b606082015260800190565b6020808252601d908201527f50756c6c207265717565737420616c726561647920636c61696d65642e000000604082015260600190565b6020808252603d908201527f5468697320457468657265756d2061646472657373206973206e6f742072656760408201527f69737465726564207769746820616e792047697448756220757365722e000000606082015260800190565b60208082526025908201527f50756c6c207265717565737420636c61696d20776173206e6f7420726571756560408201526439ba32b21760d91b606082015260800190565b60208082526026908201527f4f776e61626c653a206e6577206f776e657220697320746865207a65726f206160408201526564647265737360d01b606082015260800190565b60208082526036908201527f4f6e6c792077686974656c6973746564206f7261636c65732063616e206265206040820152753ab9b2b2103337b9103a3434b9903932b8bab2b9ba1760511b606082015260800190565b60208082526023908201527f756e61626c6520746f207472616e73666572416e6443616c6c20746f206f7261604082015262636c6560e81b606082015260800190565b6020808252601f908201527f4973737565206465706f7369747320616c726561647920636c61696d65642e00604082015260600190565b60208082526027908201527f4465706f736974206973206e6f7420666f72207468697320476974487562206160408201526631b1b7bab73a1760c91b606082015260800190565b60208082526038908201527f4f6e6c792072656769737465726564204769744875622075736572732063616e604082015277103932b632b0b9b29034b9b9bab2903232b837b9b4ba399760411b606082015260800190565b6020808252601e908201527f4e6f7420656e6f7567682066756e647320746f20706179206761734665650000604082015260600190565b6020808252602e908201527f54686973206973737565206465706f73697420686173206265656e207769746860408201526d323930bbb71030b63932b0b23c9760911b606082015260800190565b6020808252818101527f4f776e61626c653a2063616c6c6572206973206e6f7420746865206f776e6572604082015260600190565b6020808252818101527f496e76616c69642073636f72653a2031203c3d2073636f7265203c3d20313030604082015260600190565b60208082526042908201527f4465706f73697420646964206e6f7420636f6d652066726f6d2074686973204560408201527f7468657265756d2061646472657373206f7220646f6573206e6f7420657869736060820152613a1760f11b608082015260a00190565b60208082526027908201527f49737365206465706f7369742072656c6561736520776173206e6f74207265716040820152663ab2b9ba32b21760c91b606082015260800190565b60208082526038908201527f4e6f20476974487562206163636f756e7420726567697374657265642077697460408201527734103a3434b99022ba3432b932bab69030b1b1b7bab73a1760411b606082015260800190565b60208082526028908201527f536f75726365206d75737420626520746865206f7261636c65206f6620746865604082015267081c995c5d595cdd60c21b606082015260800190565b60208082526057908201527f54686520476974487562206163636f756e74207468697320697373756520776160408201527f732072656c656173656420746f20646f6573206e6f742062656c6f6e6720746f606082015276103a3434b99022ba3432b932bab69030b1b1b7bab73a1760491b608082015260a00190565b6020808252601290820152712cb7ba9036bab9ba1039b2b7321022aa241760711b604082015260600190565b60208082526023908201527f54686973204769744875622075736572206973206e6f7420726567697374657260408201526232b21760e91b606082015260800190565b60009081526020902090565b60005b83811015614248578181015183820152602001614230565b838111156130ed575050600091015256fe7cc135e0cebb02c3480ae5d74d377283180a2601f8f644edf7987b009316c63aa264697066735822122065970b5a1a0c18a44756a094c877ad9c8e7340ede6bdbf949f1121b6dae3d6e364736f6c634300060c0033",
  "immutableReferences": {},
  "source": "// SPDX-License-Identifier: MIT\npragma solidity ^0.6.0;\npragma experimental ABIEncoderV2;\n\nimport '@openzeppelin/contracts/token/ERC20/ERC20.sol';\nimport '@openzeppelin/contracts/access/Ownable.sol';\nimport '@chainlink/contracts/src/v0.6/ChainlinkClient.sol';\nimport '@opengsn/gsn/contracts/BaseRelayRecipient.sol';\nimport '@opengsn/gsn/contracts/BasePaymaster.sol';\nimport './interfaces/IUniswapV2Router02.sol';\nimport './OctoPin.sol';\n\ncontract OctoBay is Ownable, ChainlinkClient, BaseRelayRecipient {\n\n    function _msgSender() internal override(Context, BaseRelayRecipient)\n    view returns (address payable) {\n        return BaseRelayRecipient._msgSender();\n    }\n\n    function _msgData() internal override(Context,BaseRelayRecipient)\n    view returns (bytes memory ret) {\n        return BaseRelayRecipient._msgData();\n    }\n\n    string public override versionRecipient = '2.0.0'; // GSN version\n\n    IUniswapV2Router02 uniswap;\n    // TODO: Add more events related to user withdrawls\n    event UserDepositEvent(address account, uint256 amount, string githubUser);\n    event UserSendEvent(address account, uint256 amount, string githubUser);\n    event IssueDepositEvent(address account, uint256 amount, string issueId);\n    event ReleaseIssueDepositsEvent(string issueId, string githubUser);\n\n    struct User {\n        string githubUser;\n        address ethAddress;\n        uint8 status; // 1 = requested, 2 = confirmed\n    }\n    mapping(bytes32 => User) public users;\n    mapping(address => bytes32) public userIDsByAddress;\n    mapping(string => bytes32) public userIDsByGithubUser;\n    mapping(string => uint256) public userClaimAmountByGithbUser;\n\n    struct UserDeposit {\n        address from;\n        uint256 amount;\n        string githubUser;\n    }\n    uint256 private nextUserDepositId = 0;\n    mapping(uint256 => UserDeposit) public userDeposits;\n    mapping(string => uint256[]) public userDepositIdsByGithubUser;\n    mapping(address => uint256[]) public userDepositIdsBySender;\n\n    struct IssueDeposit {\n        address from;\n        uint256 amount;\n        string issueId;\n    }\n    mapping(uint256 => IssueDeposit) public issueDeposits;\n    uint256 public nextIssueDepositId = 0;\n    mapping(string => uint256[]) public issueDepositIdsByIssueId;\n    mapping(address => uint256[]) public issueDepositIdsBySender;\n    mapping(string => uint256) public issueDepositsAmountByIssueId;\n\n    struct ReleasedIssue {\n        string githubUser;\n        string issueId;\n        uint256 status;\n    }\n    mapping(bytes32 => ReleasedIssue) public releasedIssues;\n    mapping(string => bytes32) public issueReleaseIDsByIssueId;\n\n    struct PullRequestClaim {\n        string githubUser;\n        string prId;\n        uint256 status; // 1 = requested, 2 = confirmed\n    }\n    mapping(bytes32 => PullRequestClaim) public pullRequestClaims;\n    mapping(string => bytes32) public pullRequestClaimIDsByPrId;\n\n    mapping(string => uint256) public issuePins;\n\n    struct Oracle {\n      string name;\n      bytes32 registerJobId;\n      bytes32 releaseJobId;\n      bytes32 claimJobId;\n      uint256 registerJobFee;\n      uint256 releaseJobFee;\n      uint256 claimJobFee;\n    }\n    mapping(address => Oracle) public activeOracles;\n    address[] public allOracles;\n\n    address weth;\n    address link;\n    OctoPin public octoPin;\n    address octobayPaymaster;\n\n    constructor(\n        address _link,\n        address _weth,\n        address _uniswap,\n        address _forwarder\n    ) public {\n        if (_link == address(0)) {\n            setPublicChainlinkToken();\n        } else {\n            setChainlinkToken(_link);\n        }\n        link = _link;\n        weth = _weth;\n        trustedForwarder = _forwarder; // GSN trusted forwarder\n        uniswap = IUniswapV2Router02(_uniswap);\n    }\n\n    function setOctoPin(address _octoPin) external onlyOwner {\n        octoPin = OctoPin(_octoPin);\n    }\n\n    function setPaymaster(address _octobayPaymaster) external onlyOwner {\n        octobayPaymaster = _octobayPaymaster;\n    }\n\n    modifier onlyActiveOracles(address _oracle) {\n      require(bytes(activeOracles[_oracle].name).length > 0, \"Only whitelisted oracles can be used for this request.\");\n      _;\n    }\n\n    function setOracle(\n      address _oracle,\n      string calldata name,\n      bytes32 registerJobId,\n      bytes32 releaseJobId,\n      bytes32 claimJobId,\n      uint256 registerJobFee,\n      uint256 releaseJobFee,\n      uint256 claimJobFee\n    ) external onlyOwner {\n        activeOracles[_oracle] = Oracle(\n          name,\n          registerJobId,\n          releaseJobId,\n          claimJobId,\n          registerJobFee,\n          releaseJobFee,\n          claimJobFee\n        );\n        allOracles.push(_oracle);\n    }\n\n    function removeOracle(address _oracle) external onlyOwner {\n      delete activeOracles[_oracle];\n      uint i = 0;\n      while (allOracles[i] != _oracle) {\n          i++;\n      }\n      while (i < allOracles.length - 1) {\n            allOracles[i] = allOracles[i + 1];\n            i++;\n        }\n        allOracles.pop();\n    }\n\n    function getOracles() external view returns(address[] memory) {\n      return allOracles;\n    }\n\n    function deductGasFee(string memory _githubUser, uint256 _amount)\n        external\n    {\n        // only paymaster, cause paymaster pays for gas fee on behalf of user\n        require(msg.sender == octobayPaymaster);\n        require(userClaimAmountByGithbUser[_githubUser] >= _amount, 'Not enough funds to pay gasFee');\n\n        userClaimAmountByGithbUser[_githubUser] -= _amount;\n    }\n\n\n    function _swapETHforLink(uint256 _ethAmount, uint256 _linkAmount)\n        internal\n        returns (uint256 _ethOut)\n    {\n        address[] memory path = new address[](2);\n        path[0] = weth;\n        path[1] = link;\n\n        uint256[] memory amounts =\n            uniswap.swapETHForExactTokens{value: _ethAmount}(\n                _linkAmount, // amountOut\n                path,\n                address(this),\n                now\n            );\n    }\n\n    // ------------ USER ONBOARDING ------------ //\n\n    function register(\n        address _oracle,\n        string memory _githubUser\n    ) public onlyActiveOracles(_oracle) {\n        // Trusted and free oracle\n        Chainlink.Request memory request =\n            buildChainlinkRequest(\n                activeOracles[_oracle].registerJobId,\n                address(this),\n                this.confirmRegistration.selector\n            );\n        request.add('githubUser', _githubUser);\n        request.add('ethAddress', addressToIntString(_msgSender()));\n        bytes32 requestId =\n            sendChainlinkRequestTo(_oracle, request, activeOracles[_oracle].registerJobFee);\n\n        users[requestId] = User(_githubUser, _msgSender(), 1);\n    }\n\n    function confirmRegistration(bytes32 _requestId)\n        public\n        recordChainlinkFulfillment(_requestId)\n    {\n        // If githubUser was registered before (changed ethAddress now) look for old\n        // ID and delete entry in userIDsByAddress as well as users entry itself (userIDsByGithubUser\n        // has been overridden above anyway).\n        bytes32 oldId = userIDsByGithubUser[users[_requestId].githubUser];\n        delete userIDsByAddress[users[oldId].ethAddress];\n        delete users[oldId];\n        // The scenario where an eth address switches to a new github account\n        // (the other way around) does not occur.\n\n        users[_requestId].status = 2;\n        userIDsByAddress[users[_requestId].ethAddress] = _requestId;\n        userIDsByGithubUser[users[_requestId].githubUser] = _requestId;\n    }\n\n    // ------------ USER DEPOSITS ------------ //\n\n    function depositEthForGithubUser(string calldata _githubUser)\n        external\n        payable\n    {\n        require(msg.value > 0, 'You must send ETH.');\n        User memory user = users[userIDsByGithubUser[_githubUser]];\n\n        if(user.ethAddress != address(0) && user.status == 2) { // Registered and verified user\n            payable(users[userIDsByGithubUser[_githubUser]].ethAddress).transfer(\n                msg.value\n            );\n\n            emit UserSendEvent(msg.sender, msg.value, _githubUser);\n\n        } else {    // hold funds in contract\n            nextUserDepositId++;\n            userDeposits[nextUserDepositId] = UserDeposit(\n                msg.sender,\n                msg.value,\n                _githubUser\n            );\n            userDepositIdsByGithubUser[_githubUser].push(nextUserDepositId);\n            userDepositIdsBySender[msg.sender].push(nextUserDepositId);\n\n            // increment claim amount\n            userClaimAmountByGithbUser[_githubUser] += msg.value;\n\n            emit UserDepositEvent(msg.sender, msg.value, _githubUser);\n        }\n    }\n\n    function _sendDeposit(uint256 _depositId, address _to) internal {\n        UserDeposit memory deposit = userDeposits[_depositId];\n        payable(_to).transfer(deposit.amount);\n\n        // reduce claim amount\n        userClaimAmountByGithbUser[deposit.githubUser] -= deposit.amount;\n\n        delete userDeposits[_depositId];\n    }\n\n\n    function refundUserDeposit(uint256 _depositId) external {\n        require(\n            userDeposits[_depositId].from == msg.sender,\n            'Deposit did not came from this Ethereum address.'\n        );\n        _sendDeposit(_depositId, msg.sender);   // msg.sender is depositor\n    }\n\n\n    // ------------ USER WITHDRAWALS ------------ //\n\n\n    function withdrawUserDeposit(uint256 _depositId) external {\n        require(\n            users[userIDsByAddress[msg.sender]].ethAddress == msg.sender,\n            'This Ethereum address is not registered with any GitHub user.'\n        );\n        require(\n            keccak256(bytes(userDeposits[_depositId].githubUser)) ==\n                keccak256(\n                    bytes(users[userIDsByAddress[msg.sender]].githubUser)\n                ),\n            'Deposit is not for this GitHub account.'\n        );\n        _sendDeposit(_depositId, msg.sender);   // msg.sender is user\n    }\n\n\n\n    // ------------ ISSUE DEPOSITS ------------ //\n\n    function depositEthForIssue(string calldata _issueId) external payable {\n        require(msg.value > 0, 'You must send ETH.');\n        nextIssueDepositId++;\n        issueDeposits[nextIssueDepositId] = IssueDeposit(\n            msg.sender,\n            msg.value,\n            _issueId\n        );\n        issueDepositIdsByIssueId[_issueId].push(nextIssueDepositId);\n        issueDepositIdsBySender[msg.sender].push(nextIssueDepositId);\n        issueDepositsAmountByIssueId[_issueId] += msg.value;\n        emit IssueDepositEvent(msg.sender, msg.value, _issueId);\n    }\n\n    function refundIssueDeposit(uint256 _depositId) external {\n        require(\n            issueDeposits[_depositId].from == msg.sender,\n            'Deposit did not come from this Ethereum address or does not exist.'\n        );\n        require(\n            issueDepositsAmountByIssueId[issueDeposits[_depositId].issueId] >=\n                issueDeposits[_depositId].amount,\n            'This issue deposit has been withdrawn already.'\n        );\n        payable(msg.sender).transfer(issueDeposits[_depositId].amount);\n        issueDepositsAmountByIssueId[\n            issueDeposits[_depositId].issueId\n        ] -= issueDeposits[_depositId].amount;\n        delete issueDeposits[_depositId];\n    }\n\n\n    // ------------ ISSUE-DEPOSIT RELEASES ------------ //\n\n    function releaseIssueDeposits(\n        address _oracle,\n        string memory _issueId,\n        string memory _githubUser\n    ) public onlyActiveOracles(_oracle) {\n        require(\n            issueDepositsAmountByIssueId[_issueId] > 0,\n            'Issue has no deposits to release.'\n        );\n        require(\n            users[userIDsByAddress[msg.sender]].ethAddress == msg.sender,\n            'Only registered GitHub users can release issue deposits.'\n        );\n\n        Chainlink.Request memory request =\n            buildChainlinkRequest(\n                activeOracles[_oracle].releaseJobId,\n                address(this),\n                this.confirmReleaseIssueDeposits.selector\n            );\n        request.add('githubUser', _githubUser);\n        request.add('issueId', _issueId);\n        bytes32 requestId =\n            sendChainlinkRequestTo(_oracle, request, activeOracles[_oracle].releaseJobFee);\n\n        releasedIssues[requestId] = ReleasedIssue(_githubUser, _issueId, 1);\n        issueReleaseIDsByIssueId[_issueId] = requestId;\n    }\n\n    function confirmReleaseIssueDeposits(bytes32 _requestId)\n        public\n        recordChainlinkFulfillment(_requestId)\n    {\n        require(\n            releasedIssues[_requestId].status == 1,\n            'Isse deposit release was not requested.'\n        );\n        releasedIssues[_requestId].status = 2;\n\n        // add released issue funds to user deposits\n        userClaimAmountByGithbUser[releasedIssues[_requestId].githubUser] +=\n            issueDepositsAmountByIssueId[releasedIssues[_requestId].issueId];\n\n        emit ReleaseIssueDepositsEvent(\n            releasedIssues[_requestId].issueId,\n            releasedIssues[_requestId].githubUser\n        );\n    }\n\n    function claimReleasedIssueDeposits(string calldata _issueId) external {\n        require(\n            users[userIDsByAddress[msg.sender]].ethAddress == msg.sender,\n            'No GitHub account registered with this Ethereum account.'\n        );\n        require(\n            keccak256(\n                bytes(\n                    releasedIssues[issueReleaseIDsByIssueId[_issueId]]\n                        .githubUser\n                )\n            ) ==\n                keccak256(\n                    bytes(users[userIDsByAddress[msg.sender]].githubUser)\n                ),\n            'The GitHub account this issue was released to does not belong to this Ethereum account.'\n        );\n        require(\n            issueDepositsAmountByIssueId[_issueId] > 0,\n            'Issue deposits already claimed.'\n        );\n\n        payable(msg.sender).transfer(issueDepositsAmountByIssueId[_issueId]);\n        // subtract released issue funds from user deposits\n        userClaimAmountByGithbUser[users[userIDsByAddress[msg.sender]].githubUser] -=\n            issueDepositsAmountByIssueId[_issueId];\n\n        issueDepositsAmountByIssueId[_issueId] = 0;\n    }\n\n    // ------------ PULL REQUESTS ------------ //\n\n    function claimPullRequest(\n        address _oracle,\n        string memory _prId,\n        string memory _githubUser\n    ) public onlyActiveOracles(_oracle) {\n        require(\n            pullRequestClaims[pullRequestClaimIDsByPrId[_prId]].status != 2,\n            'Pull request already claimed.'\n        );\n        require(\n            users[userIDsByGithubUser[_githubUser]].status == 2,\n            'This GitHub user is not registered.'\n        );\n\n        Chainlink.Request memory request =\n            buildChainlinkRequest(\n                activeOracles[_oracle].claimJobId,\n                address(this),\n                this.confirmPullRequestClaim.selector\n            );\n        request.add('githubUser', _githubUser);\n        request.add('prId', _prId);\n        bytes32 requestId = sendChainlinkRequestTo(_oracle, request, activeOracles[_oracle].claimJobFee);\n\n        pullRequestClaims[requestId] = PullRequestClaim(_githubUser, _prId, 1);\n    }\n\n    function confirmPullRequestClaim(bytes32 _requestId, uint256 _score)\n        public\n        recordChainlinkFulfillment(_requestId)\n    {\n        require(\n            1 <= _score && _score <= 100,\n            'Invalid score: 1 <= score <= 100'\n        );\n        require(\n            pullRequestClaims[_requestId].status == 1,\n            'Pull request claim was not requested.'\n        );\n        require(\n            users[userIDsByGithubUser[pullRequestClaims[_requestId].githubUser]]\n                .ethAddress != address(0),\n            'This GitHub user is not registered.'\n        );\n\n        pullRequestClaims[_requestId].status = 2;\n        octoPin.mintOnPullRequestClaim(\n            users[userIDsByGithubUser[pullRequestClaims[_requestId].githubUser]]\n                .ethAddress,\n            _score * uint256(10)**octoPin.decimals()\n        );\n    }\n\n\n    // ------------ GETTERS ------------ //\n\n     function getUserDepositIdsForGithubUser(string calldata _githubUser)\n        external\n        view\n        returns (uint256[] memory)\n    {\n        return userDepositIdsByGithubUser[_githubUser];\n    }\n\n    function getUserDepositIdsForSender()\n        external\n        view\n        returns (uint256[] memory)\n    {\n        return userDepositIdsBySender[msg.sender];\n    }\n\n    function getIssueDepositIdsForIssueId(string calldata _depositId)\n        external\n        view\n        returns (uint256[] memory)\n    {\n        return issueDepositIdsByIssueId[_depositId];\n    }\n\n    function getIssueDepositIdsForSender()\n        external\n        view\n        returns (uint256[] memory)\n    {\n        return issueDepositIdsBySender[msg.sender];\n    }\n\n    function getUserClaimAmount(string memory _githubUser)\n        external\n        view\n        returns (uint256)\n    {\n        return userClaimAmountByGithbUser[_githubUser];\n    }\n\n\n    // ------------ UTILS ------------ //\n\n    function addressToIntString(address _address)\n        internal\n        pure\n        returns (string memory _string)\n    {\n        uint256 _i = uint256(_address);\n        if (_i == 0) {\n            return '0';\n        }\n        uint256 j = _i;\n        uint256 len;\n        while (j != 0) {\n            len++;\n            j /= 10;\n        }\n        bytes memory bstr = new bytes(len);\n        uint256 k = len - 1;\n        while (_i != 0) {\n            bstr[k--] = bytes1(uint8(48 + (_i % 10)));\n            _i /= 10;\n        }\n        return string(bstr);\n    }\n}\n",
  "sourcePath": "/home/mkt/Projects/octobay/.evm/contracts/OctoBay.sol",
  "compiler": {
    "name": "solc",
    "version": "0.6.12+commit.27d51765.Emscripten.clang"
  },
  "schemaVersion": "3.2.5",
  "updatedAt": "2021-01-15T10:22:13.742Z",
  "networkType": "ethereum",
  "devdoc": {
    "kind": "dev",
    "methods": {
      "owner()": {
        "details": "Returns the address of the current owner."
      },
      "renounceOwnership()": {
        "details": "Leaves the contract without owner. It will not be possible to call `onlyOwner` functions anymore. Can only be called by the current owner. NOTE: Renouncing ownership will leave the contract without an owner, thereby removing any functionality that is only available to the owner."
      },
      "transferOwnership(address)": {
        "details": "Transfers ownership of the contract to a new account (`newOwner`). Can only be called by the current owner."
      }
    },
    "version": 1
  },
  "userdoc": {
    "kind": "user",
    "methods": {
      "isTrustedForwarder(address)": {
        "notice": "return if the forwarder is trusted to forward relayed transactions to us. the forwarder is required to verify the sender's signature, and verify the call is not a replay."
      }
    },
    "version": 1
  }
}