{
  "contractName": "OctobayGovToken",
  "abi": [
    {
      "inputs": [
        {
          "internalType": "string",
          "name": "_name",
          "type": "string"
        },
        {
          "internalType": "string",
          "name": "_symbol",
          "type": "string"
        }
      ],
      "stateMutability": "nonpayable",
      "type": "constructor"
    },
    {
      "anonymous": false,
      "inputs": [
        {
          "indexed": true,
          "internalType": "address",
          "name": "owner",
          "type": "address"
        },
        {
          "indexed": true,
          "internalType": "address",
          "name": "spender",
          "type": "address"
        },
        {
          "indexed": false,
          "internalType": "uint256",
          "name": "value",
          "type": "uint256"
        }
      ],
      "name": "Approval",
      "type": "event"
    },
    {
      "anonymous": false,
      "inputs": [
        {
          "indexed": true,
          "internalType": "address",
          "name": "previousOwner",
          "type": "address"
        },
        {
          "indexed": true,
          "internalType": "address",
          "name": "newOwner",
          "type": "address"
        }
      ],
      "name": "OwnershipTransferred",
      "type": "event"
    },
    {
      "anonymous": false,
      "inputs": [
        {
          "indexed": false,
          "internalType": "uint256",
          "name": "id",
          "type": "uint256"
        }
      ],
      "name": "Snapshot",
      "type": "event"
    },
    {
      "anonymous": false,
      "inputs": [
        {
          "indexed": true,
          "internalType": "address",
          "name": "from",
          "type": "address"
        },
        {
          "indexed": true,
          "internalType": "address",
          "name": "to",
          "type": "address"
        },
        {
          "indexed": false,
          "internalType": "uint256",
          "name": "value",
          "type": "uint256"
        }
      ],
      "name": "Transfer",
      "type": "event"
    },
    {
      "inputs": [
        {
          "internalType": "address",
          "name": "owner",
          "type": "address"
        },
        {
          "internalType": "address",
          "name": "spender",
          "type": "address"
        }
      ],
      "name": "allowance",
      "outputs": [
        {
          "internalType": "uint256",
          "name": "",
          "type": "uint256"
        }
      ],
      "stateMutability": "view",
      "type": "function"
    },
    {
      "inputs": [
        {
          "internalType": "address",
          "name": "spender",
          "type": "address"
        },
        {
          "internalType": "uint256",
          "name": "amount",
          "type": "uint256"
        }
      ],
      "name": "approve",
      "outputs": [
        {
          "internalType": "bool",
          "name": "",
          "type": "bool"
        }
      ],
      "stateMutability": "nonpayable",
      "type": "function"
    },
    {
      "inputs": [
        {
          "internalType": "address",
          "name": "account",
          "type": "address"
        }
      ],
      "name": "balanceOf",
      "outputs": [
        {
          "internalType": "uint256",
          "name": "",
          "type": "uint256"
        }
      ],
      "stateMutability": "view",
      "type": "function"
    },
    {
      "inputs": [
        {
          "internalType": "address",
          "name": "account",
          "type": "address"
        },
        {
          "internalType": "uint256",
          "name": "snapshotId",
          "type": "uint256"
        }
      ],
      "name": "balanceOfAt",
      "outputs": [
        {
          "internalType": "uint256",
          "name": "",
          "type": "uint256"
        }
      ],
      "stateMutability": "view",
      "type": "function"
    },
    {
      "inputs": [],
      "name": "decimals",
      "outputs": [
        {
          "internalType": "uint8",
          "name": "",
          "type": "uint8"
        }
      ],
      "stateMutability": "view",
      "type": "function"
    },
    {
      "inputs": [
        {
          "internalType": "address",
          "name": "spender",
          "type": "address"
        },
        {
          "internalType": "uint256",
          "name": "subtractedValue",
          "type": "uint256"
        }
      ],
      "name": "decreaseAllowance",
      "outputs": [
        {
          "internalType": "bool",
          "name": "",
          "type": "bool"
        }
      ],
      "stateMutability": "nonpayable",
      "type": "function"
    },
    {
      "inputs": [
        {
          "internalType": "address",
          "name": "spender",
          "type": "address"
        },
        {
          "internalType": "uint256",
          "name": "addedValue",
          "type": "uint256"
        }
      ],
      "name": "increaseAllowance",
      "outputs": [
        {
          "internalType": "bool",
          "name": "",
          "type": "bool"
        }
      ],
      "stateMutability": "nonpayable",
      "type": "function"
    },
    {
      "inputs": [],
      "name": "name",
      "outputs": [
        {
          "internalType": "string",
          "name": "",
          "type": "string"
        }
      ],
      "stateMutability": "view",
      "type": "function"
    },
    {
      "inputs": [],
      "name": "owner",
      "outputs": [
        {
          "internalType": "address",
          "name": "",
          "type": "address"
        }
      ],
      "stateMutability": "view",
      "type": "function"
    },
    {
      "inputs": [],
      "name": "renounceOwnership",
      "outputs": [],
      "stateMutability": "nonpayable",
      "type": "function"
    },
    {
      "inputs": [
        {
          "internalType": "address",
          "name": "_octobay",
          "type": "address"
        }
      ],
      "name": "setOctobay",
      "outputs": [],
      "stateMutability": "nonpayable",
      "type": "function"
    },
    {
      "inputs": [],
      "name": "symbol",
      "outputs": [
        {
          "internalType": "string",
          "name": "",
          "type": "string"
        }
      ],
      "stateMutability": "view",
      "type": "function"
    },
    {
      "inputs": [],
      "name": "totalSupply",
      "outputs": [
        {
          "internalType": "uint256",
          "name": "",
          "type": "uint256"
        }
      ],
      "stateMutability": "view",
      "type": "function"
    },
    {
      "inputs": [
        {
          "internalType": "uint256",
          "name": "snapshotId",
          "type": "uint256"
        }
      ],
      "name": "totalSupplyAt",
      "outputs": [
        {
          "internalType": "uint256",
          "name": "",
          "type": "uint256"
        }
      ],
      "stateMutability": "view",
      "type": "function"
    },
    {
      "inputs": [
        {
          "internalType": "address",
          "name": "newOwner",
          "type": "address"
        }
      ],
      "name": "transferOwnership",
      "outputs": [],
      "stateMutability": "nonpayable",
      "type": "function"
    },
    {
      "inputs": [
        {
          "internalType": "address",
          "name": "_to",
          "type": "address"
        },
        {
          "internalType": "uint256",
          "name": "_amount",
          "type": "uint256"
        }
      ],
      "name": "mint",
      "outputs": [],
      "stateMutability": "nonpayable",
      "type": "function"
    },
    {
      "inputs": [
        {
          "internalType": "address",
          "name": "_from",
          "type": "address"
        },
        {
          "internalType": "uint256",
          "name": "_amount",
          "type": "uint256"
        }
      ],
      "name": "burn",
      "outputs": [],
      "stateMutability": "nonpayable",
      "type": "function"
    },
    {
      "inputs": [
        {
          "internalType": "address",
          "name": "_sender",
          "type": "address"
        },
        {
          "internalType": "address",
          "name": "_recipient",
          "type": "address"
        },
        {
          "internalType": "uint256",
          "name": "_amount",
          "type": "uint256"
        }
      ],
      "name": "transferFrom",
      "outputs": [
        {
          "internalType": "bool",
          "name": "",
          "type": "bool"
        }
      ],
      "stateMutability": "nonpayable",
      "type": "function"
    },
    {
      "inputs": [
        {
          "internalType": "address",
          "name": "",
          "type": "address"
        },
        {
          "internalType": "uint256",
          "name": "",
          "type": "uint256"
        }
      ],
      "name": "transfer",
      "outputs": [
        {
          "internalType": "bool",
          "name": "",
          "type": "bool"
        }
      ],
      "stateMutability": "nonpayable",
      "type": "function"
    },
    {
      "inputs": [
        {
          "internalType": "address",
          "name": "_account",
          "type": "address"
        }
      ],
      "name": "balanceOfAsPercent",
      "outputs": [
        {
          "internalType": "uint16",
          "name": "",
          "type": "uint16"
        }
      ],
      "stateMutability": "view",
      "type": "function"
    },
    {
      "inputs": [
        {
          "internalType": "address",
          "name": "_account",
          "type": "address"
        },
        {
          "internalType": "uint256",
          "name": "_snapshotId",
          "type": "uint256"
        }
      ],
      "name": "balanceOfAsPercentAt",
      "outputs": [
        {
          "internalType": "uint16",
          "name": "",
          "type": "uint16"
        }
      ],
      "stateMutability": "view",
      "type": "function"
    },
    {
      "inputs": [],
      "name": "snapshot",
      "outputs": [
        {
          "internalType": "uint256",
          "name": "",
          "type": "uint256"
        }
      ],
      "stateMutability": "nonpayable",
      "type": "function"
    }
  ],
  "bytecode": "0x60806040523480156200001157600080fd5b506040516200176138038062001761833981016040819052620000349162000217565b8181600062000042620000d0565b600080546001600160a01b0319166001600160a01b0383169081178255604051929350917f8be0079c531659141344cd1fd0a4f28419497f9722a3daafe3b4186f6b6457e0908290a3508151620000a1906005906020850190620000d4565b508051620000b7906006906020840190620000d4565b50506007805460ff19166012179055506200027e915050565b3390565b828054600181600116156101000203166002900490600052602060002090601f016020900481019282601f106200011757805160ff191683800117855562000147565b8280016001018555821562000147579182015b82811115620001475782518255916020019190600101906200012a565b506200015592915062000159565b5090565b5b808211156200015557600081556001016200015a565b600082601f83011262000181578081fd5b81516001600160401b038082111562000198578283fd5b6040516020601f8401601f1916820181018381118382101715620001ba578586fd5b80604052508194508382528681858801011115620001d757600080fd5b600092505b83831015620001fb5785830181015182840182015291820191620001dc565b838311156200020d5760008185840101525b5050505092915050565b600080604083850312156200022a578182fd5b82516001600160401b038082111562000241578384fd5b6200024f8683870162000170565b9350602085015191508082111562000265578283fd5b50620002748582860162000170565b9150509250929050565b6114d3806200028e6000396000f3fe608060405234801561001057600080fd5b50600436106101425760003560e01c806395d89b41116100b8578063a77697381161007c578063a776973814610276578063a9059cbb14610296578063a9456ec3146102a9578063dd62ed3e146102bc578063f2fde38b146102cf578063f380e05c146102e257610142565b806395d89b411461022d5780639711715a14610235578063981b24d01461023d5780639dc29fac14610250578063a457c2d71461026357610142565b8063395093511161010a57806339509351146101c257806340c10f19146101d55780634ee2cd7e146101ea57806370a08231146101fd578063715018a6146102105780638da5cb5b1461021857610142565b806306fdde0314610147578063095ea7b31461016557806318160ddd1461018557806323b872dd1461019a578063313ce567146101ad575b600080fd5b61014f6102f5565b60405161015c919061103a565b60405180910390f35b610178610173366004610fd9565b61038b565b60405161015c919061102f565b61018d6103a9565b60405161015c91906113e4565b6101786101a8366004610f99565b6103af565b6101b56103fa565b60405161015c91906113ed565b6101786101d0366004610fd9565b610403565b6101e86101e3366004610fd9565b610456565b005b61018d6101f8366004610fd9565b61048e565b61018d61020b366004610f4a565b6104d7565b6101e86104f6565b610220610575565b60405161015c919061101b565b61014f610584565b61018d6105e5565b61018d61024b366004611003565b6105f4565b6101e861025e366004610fd9565b610624565b610178610271366004610fd9565b610658565b610289610284366004610f4a565b6106c0565b60405161015c91906113d5565b6101786102a4366004610fd9565b6106fd565b6102896102b7366004610fd9565b610717565b61018d6102ca366004610f65565b610757565b6101e86102dd366004610f4a565b610782565b6101e86102f0366004610f4a565b610838565b60058054604080516020601f60026000196101006001881615020190951694909404938401819004810282018101909252828152606093909290918301828280156103815780601f1061035657610100808354040283529160200191610381565b820191906000526020600020905b81548152906001019060200180831161036457829003601f168201915b5050505050905090565b600061039f61039861088f565b8484610893565b5060015b92915050565b60045490565b6001546000906001600160a01b031633146103e55760405162461bcd60e51b81526004016103dc90611107565b60405180910390fd5b6103f0848484610947565b5060019392505050565b60075460ff1690565b600061039f61041061088f565b84610451856003600061042161088f565b6001600160a01b03908116825260208083019390935260409182016000908120918c168152925290205490610a4a565b610893565b6001546001600160a01b031633146104805760405162461bcd60e51b81526004016103dc90611107565b61048a8282610a76565b5050565b6001600160a01b0382166000908152600860205260408120819081906104b5908590610b24565b91509150816104cc576104c7856104d7565b6104ce565b805b95945050505050565b6001600160a01b0381166000908152600260205260409020545b919050565b6104fe61088f565b6000546001600160a01b0390811691161461052b5760405162461bcd60e51b81526004016103dc9061126f565b600080546040516001600160a01b03909116907f8be0079c531659141344cd1fd0a4f28419497f9722a3daafe3b4186f6b6457e0908390a3600080546001600160a01b0319169055565b6000546001600160a01b031690565b60068054604080516020601f60026000196101006001881615020190951694909404938401819004810282018101909252828152606093909290918301828280156103815780601f1061035657610100808354040283529160200191610381565b60006105ef610bbe565b905090565b6000806000610604846009610b24565b915091508161061a576106156103a9565b61061c565b805b949350505050565b6001546001600160a01b0316331461064e5760405162461bcd60e51b81526004016103dc90611107565b61048a8282610c14565b600061039f61066561088f565b8461045185604051806060016040528060258152602001611479602591396003600061068f61088f565b6001600160a01b03908116825260208083019390935260409182016000908120918d16815292529020549190610cd8565b6000806106cb6103a9565b11156106f5576106d96103a9565b6106e2836104d7565b816106e957fe5b046127100290506104f1565b506000919050565b600060405162461bcd60e51b81526004016103dc9061121d565b6000806107226103a9565b111561074e57610731826105f4565b61073b848461048e565b8161074257fe5b046127100290506103a3565b50600092915050565b6001600160a01b03918216600090815260036020908152604080832093909416825291909152205490565b61078a61088f565b6000546001600160a01b039081169116146107b75760405162461bcd60e51b81526004016103dc9061126f565b6001600160a01b0381166107dd5760405162461bcd60e51b81526004016103dc9061115e565b600080546040516001600160a01b03808516939216917f8be0079c531659141344cd1fd0a4f28419497f9722a3daafe3b4186f6b6457e091a3600080546001600160a01b0319166001600160a01b0392909216919091179055565b61084061088f565b6000546001600160a01b0390811691161461086d5760405162461bcd60e51b81526004016103dc9061126f565b600180546001600160a01b0319166001600160a01b0392909216919091179055565b3390565b6001600160a01b0383166108b95760405162461bcd60e51b81526004016103dc9061132a565b6001600160a01b0382166108df5760405162461bcd60e51b81526004016103dc906111a4565b6001600160a01b0380841660008181526003602090815260408083209487168084529490915290819020849055517f8c5be1e5ebec7d5bd14f71427d1e84f3dd0314c0f7b2291e5b200ac8c7c3b9259061093a9085906113e4565b60405180910390a3505050565b6001600160a01b03831661096d5760405162461bcd60e51b81526004016103dc906112e5565b6001600160a01b0382166109935760405162461bcd60e51b81526004016103dc906110c4565b61099e838383610d04565b6109db81604051806060016040528060268152602001611433602691396001600160a01b0386166000908152600260205260409020549190610cd8565b6001600160a01b038085166000908152600260205260408082209390935590841681522054610a0a9082610a4a565b6001600160a01b0380841660008181526002602052604090819020939093559151908516906000805160206114598339815191529061093a9085906113e4565b600082820183811015610a6f5760405162461bcd60e51b81526004016103dc906111e6565b9392505050565b6001600160a01b038216610a9c5760405162461bcd60e51b81526004016103dc9061139e565b610aa860008383610d04565b600454610ab59082610a4a565b6004556001600160a01b038216600090815260026020526040902054610adb9082610a4a565b6001600160a01b03831660008181526002602052604080822093909355915190919060008051602061145983398151915290610b189085906113e4565b60405180910390a35050565b60008060008411610b475760405162461bcd60e51b81526004016103dc9061136e565b610b51600b610d61565b841115610b705760405162461bcd60e51b81526004016103dc9061108d565b6000610b7c8486610d65565b8454909150811415610b95576000809250925050610bb7565b6001846001018281548110610ba657fe5b906000526020600020015492509250505b9250929050565b6000610bca600b610e06565b6000610bd6600b610d61565b90507f8030e83b04d87bef53480e26263266d6ca66863aa8506aca6f2559d18aa1cb6781604051610c0791906113e4565b60405180910390a1905090565b6001600160a01b038216610c3a5760405162461bcd60e51b81526004016103dc906112a4565b610c4682600083610d04565b610c8381604051806060016040528060228152602001611411602291396001600160a01b0385166000908152600260205260409020549190610cd8565b6001600160a01b038316600090815260026020526040902055600454610ca99082610e0f565b6004556040516000906001600160a01b0384169060008051602061145983398151915290610b189085906113e4565b60008184841115610cfc5760405162461bcd60e51b81526004016103dc919061103a565b505050900390565b610d0f838383610d5c565b6001600160a01b038316610d3357610d2682610e51565b610d2e610e7e565b610d5c565b6001600160a01b038216610d4a57610d2683610e51565b610d5383610e51565b610d5c82610e51565b505050565b5490565b8154600090610d76575060006103a3565b82546000905b80821015610dc5576000610d908383610e8d565b905084868281548110610d9f57fe5b90600052602060002001541115610db857809150610dbf565b8060010192505b50610d7c565b600082118015610ded575083856001840381548110610de057fe5b9060005260206000200154145b15610dfe57506000190190506103a3565b5090506103a3565b80546001019055565b6000610a6f83836040518060400160405280601e81526020017f536166654d6174683a207375627472616374696f6e206f766572666c6f770000815250610cd8565b6001600160a01b0381166000908152600860205260409020610e7b90610e76836104d7565b610eb2565b50565b610e8b6009610e766103a9565b565b60006002808306600285060181610ea057fe5b04600283046002850401019392505050565b6000610ebe600b610d61565b905080610eca84610efe565b1015610d5c578254600180820185556000858152602080822090930193909355938401805494850181558252902090910155565b8054600090610f0f575060006104f1565b815482906000198101908110610f2157fe5b906000526020600020015490506104f1565b80356001600160a01b03811681146103a357600080fd5b600060208284031215610f5b578081fd5b610a6f8383610f33565b60008060408385031215610f77578081fd5b610f818484610f33565b9150610f908460208501610f33565b90509250929050565b600080600060608486031215610fad578081fd5b8335610fb8816113fb565b92506020840135610fc8816113fb565b929592945050506040919091013590565b60008060408385031215610feb578182fd5b610ff58484610f33565b946020939093013593505050565b600060208284031215611014578081fd5b5035919050565b6001600160a01b0391909116815260200190565b901515815260200190565b6000602080835283518082850152825b818110156110665785810183015185820160400152820161104a565b818111156110775783604083870101525b50601f01601f1916929092016040019392505050565b6020808252601d908201527f4552433230536e617073686f743a206e6f6e6578697374656e74206964000000604082015260600190565b60208082526023908201527f45524332303a207472616e7366657220746f20746865207a65726f206164647260408201526265737360e81b606082015260800190565b60208082526037908201527f4f6e6c79207468652063757272656e74206f63746f6261792076657273696f6e6040820152761031b0b7103ab9b2903a3434b990333ab731ba34b7b71760491b606082015260800190565b60208082526026908201527f4f776e61626c653a206e6577206f776e657220697320746865207a65726f206160408201526564647265737360d01b606082015260800190565b60208082526022908201527f45524332303a20617070726f766520746f20746865207a65726f206164647265604082015261737360f01b606082015260800190565b6020808252601b908201527f536166654d6174683a206164646974696f6e206f766572666c6f770000000000604082015260600190565b60208082526032908201527f5472616e736665727320617265206f6e6c7920616c6c6f776564206279207468604082015271194813d8dd1bd8985e4818dbdb9d1c9858dd60721b606082015260800190565b6020808252818101527f4f776e61626c653a2063616c6c6572206973206e6f7420746865206f776e6572604082015260600190565b60208082526021908201527f45524332303a206275726e2066726f6d20746865207a65726f206164647265736040820152607360f81b606082015260800190565b60208082526025908201527f45524332303a207472616e736665722066726f6d20746865207a65726f206164604082015264647265737360d81b606082015260800190565b60208082526024908201527f45524332303a20617070726f76652066726f6d20746865207a65726f206164646040820152637265737360e01b606082015260800190565b60208082526016908201527504552433230536e617073686f743a20696420697320360541b604082015260600190565b6020808252601f908201527f45524332303a206d696e7420746f20746865207a65726f206164647265737300604082015260600190565b61ffff91909116815260200190565b90815260200190565b60ff91909116815260200190565b6001600160a01b0381168114610e7b57600080fdfe45524332303a206275726e20616d6f756e7420657863656564732062616c616e636545524332303a207472616e7366657220616d6f756e7420657863656564732062616c616e6365ddf252ad1be2c89b69c2b068fc378daa952ba7f163c4a11628f55a4df523b3ef45524332303a2064656372656173656420616c6c6f77616e63652062656c6f77207a65726fa26469706673582212206c6b56e52bda274089a4ba4aa692ab082d1f4ecc61c0df42847315d7a5be578764736f6c634300060c0033",
  "immutableReferences": {},
  "source": "// SPDX-License-Identifier: MIT\npragma solidity ^0.6.0;\npragma experimental ABIEncoderV2;\n\nimport '@openzeppelin/contracts/token/ERC20/ERC20Snapshot.sol';\nimport './OctobayStorage.sol';\n\ncontract OctobayGovToken is OctobayStorage, ERC20Snapshot {\n\n    /// @param _name Name of the new token\n    /// @param _symbol Token Symbol for the new token\n    constructor(string memory _name, string memory _symbol) ERC20(_name, _symbol) public {}\n\n    /// @param _to Address of recipient for new tokens\n    /// @param _amount Amount of new tokens to create\n    function mint(address _to, uint256 _amount) external onlyOctobay {\n        _mint(_to, _amount);\n    }\n\n    /// @param _from Address from whose tokens will be destroyed\n    /// @param _amount Amount of tokens to destroy\n    function burn(address _from, uint256 _amount) external onlyOctobay {\n        _burn(_from, _amount);\n    }\n\n    /// @param _sender Address from whose tokens will be taken\n    /// @param _recipient Address of who will receive the tokens\n    /// @param _amount Amount of tokens to send\n    /// @return Whether the transfer was successful\n    function transferFrom(address _sender, address _recipient, uint256 _amount) public override onlyOctobay returns (bool) {\n        _transfer(_sender, _recipient, _amount);\n        return true;\n    }\n\n    /// @notice Explicitly disabling transfers by individual owners \n    function transfer(address, uint256) public override returns (bool) {\n        require(false, \"Transfers are only allowed by the Octobay contract\");\n    }\n\n    /// @param _account Address for whose balance we're asking\n    /// @return The balance of the given account as a percentage of total supply (0 - 10000) \n    function balanceOfAsPercent(address _account) public view returns (uint16) {\n        if (totalSupply() > 0) {\n            return uint16((balanceOf(_account) / totalSupply()) * 10000);\n        }\n        return 0;\n    }\n\n    /// @param _account Address for whose balance we're asking\n    /// @param _snapshotId Snapshot ID for the block at whose balance we'd like to check\n    /// @return The balance of the given account as a percentage of total supply (0 - 10000) \n    function balanceOfAsPercentAt(address _account, uint256 _snapshotId) public view returns (uint16) {\n        if (totalSupply() > 0) {\n            return uint16((balanceOfAt(_account, _snapshotId) / totalSupplyAt(_snapshotId)) * 10000);\n        }\n        return 0;\n    }\n\n    /// @notice Open to all at the moment, but we could limit this to only the governor if needed\n    /// @return The ID of the snapshot, used later to look up balances and totalSupply at a certain block\n    function snapshot() external returns (uint256) {\n        return _snapshot();\n    }        \n}\n",
  "sourcePath": "/home/mkt/Projects/octobay/contracts/contracts/OctobayGovToken.sol",
  "compiler": {
    "name": "solc",
    "version": "0.6.12+commit.27d51765.Emscripten.clang"
  },
  "schemaVersion": "3.3.4",
  "updatedAt": "2021-04-09T17:19:11.325Z",
  "devdoc": {
    "kind": "dev",
    "methods": {
      "allowance(address,address)": {
        "details": "See {IERC20-allowance}."
      },
      "approve(address,uint256)": {
        "details": "See {IERC20-approve}. Requirements: - `spender` cannot be the zero address."
      },
      "balanceOf(address)": {
        "details": "See {IERC20-balanceOf}."
      },
      "balanceOfAsPercent(address)": {
        "params": {
          "_account": "Address for whose balance we're asking"
        },
        "returns": {
          "_0": "The balance of the given account as a percentage of total supply (0 - 10000) "
        }
      },
      "balanceOfAsPercentAt(address,uint256)": {
        "params": {
          "_account": "Address for whose balance we're asking",
          "_snapshotId": "Snapshot ID for the block at whose balance we'd like to check"
        },
        "returns": {
          "_0": "The balance of the given account as a percentage of total supply (0 - 10000) "
        }
      },
      "balanceOfAt(address,uint256)": {
        "details": "Retrieves the balance of `account` at the time `snapshotId` was created."
      },
      "burn(address,uint256)": {
        "params": {
          "_amount": "Amount of tokens to destroy",
          "_from": "Address from whose tokens will be destroyed"
        }
      },
      "constructor": {
        "params": {
          "_name": "Name of the new token",
          "_symbol": "Token Symbol for the new token"
        }
      },
      "decimals()": {
        "details": "Returns the number of decimals used to get its user representation. For example, if `decimals` equals `2`, a balance of `505` tokens should be displayed to a user as `5,05` (`505 / 10 ** 2`). Tokens usually opt for a value of 18, imitating the relationship between Ether and Wei. This is the value {ERC20} uses, unless {_setupDecimals} is called. NOTE: This information is only used for _display_ purposes: it in no way affects any of the arithmetic of the contract, including {IERC20-balanceOf} and {IERC20-transfer}."
      },
      "decreaseAllowance(address,uint256)": {
        "details": "Atomically decreases the allowance granted to `spender` by the caller. This is an alternative to {approve} that can be used as a mitigation for problems described in {IERC20-approve}. Emits an {Approval} event indicating the updated allowance. Requirements: - `spender` cannot be the zero address. - `spender` must have allowance for the caller of at least `subtractedValue`."
      },
      "increaseAllowance(address,uint256)": {
        "details": "Atomically increases the allowance granted to `spender` by the caller. This is an alternative to {approve} that can be used as a mitigation for problems described in {IERC20-approve}. Emits an {Approval} event indicating the updated allowance. Requirements: - `spender` cannot be the zero address."
      },
      "mint(address,uint256)": {
        "params": {
          "_amount": "Amount of new tokens to create",
          "_to": "Address of recipient for new tokens"
        }
      },
      "name()": {
        "details": "Returns the name of the token."
      },
      "owner()": {
        "details": "Returns the address of the current owner."
      },
      "renounceOwnership()": {
        "details": "Leaves the contract without owner. It will not be possible to call `onlyOwner` functions anymore. Can only be called by the current owner. NOTE: Renouncing ownership will leave the contract without an owner, thereby removing any functionality that is only available to the owner."
      },
      "snapshot()": {
        "returns": {
          "_0": "The ID of the snapshot, used later to look up balances and totalSupply at a certain block"
        }
      },
      "symbol()": {
        "details": "Returns the symbol of the token, usually a shorter version of the name."
      },
      "totalSupply()": {
        "details": "See {IERC20-totalSupply}."
      },
      "totalSupplyAt(uint256)": {
        "details": "Retrieves the total supply at the time `snapshotId` was created."
      },
      "transferFrom(address,address,uint256)": {
        "params": {
          "_amount": "Amount of tokens to send",
          "_recipient": "Address of who will receive the tokens",
          "_sender": "Address from whose tokens will be taken"
        },
        "returns": {
          "_0": "Whether the transfer was successful"
        }
      },
      "transferOwnership(address)": {
        "details": "Transfers ownership of the contract to a new account (`newOwner`). Can only be called by the current owner."
      }
    },
    "version": 1
  },
  "userdoc": {
    "kind": "user",
    "methods": {
      "snapshot()": {
        "notice": "Open to all at the moment, but we could limit this to only the governor if needed"
      },
      "transfer(address,uint256)": {
        "notice": "Explicitly disabling transfers by individual owners "
      }
    },
    "version": 1
  }
}