{
  "contractName": "OctobayGovNFT",
  "abi": [
    {
      "inputs": [
        {
          "internalType": "string",
          "name": "name",
          "type": "string"
        },
        {
          "internalType": "string",
          "name": "symbol",
          "type": "string"
        }
      ],
      "stateMutability": "nonpayable",
      "type": "constructor"
    },
    {
      "anonymous": false,
      "inputs": [
        {
          "indexed": true,
          "internalType": "address",
          "name": "owner",
          "type": "address"
        },
        {
          "indexed": true,
          "internalType": "address",
          "name": "approved",
          "type": "address"
        },
        {
          "indexed": true,
          "internalType": "uint256",
          "name": "tokenId",
          "type": "uint256"
        }
      ],
      "name": "Approval",
      "type": "event"
    },
    {
      "anonymous": false,
      "inputs": [
        {
          "indexed": true,
          "internalType": "address",
          "name": "owner",
          "type": "address"
        },
        {
          "indexed": true,
          "internalType": "address",
          "name": "operator",
          "type": "address"
        },
        {
          "indexed": false,
          "internalType": "bool",
          "name": "approved",
          "type": "bool"
        }
      ],
      "name": "ApprovalForAll",
      "type": "event"
    },
    {
      "anonymous": false,
      "inputs": [
        {
          "indexed": false,
          "internalType": "uint256",
          "name": "tokenId",
          "type": "uint256"
        }
      ],
      "name": "BurnTokenEvent",
      "type": "event"
    },
    {
      "anonymous": false,
      "inputs": [
        {
          "indexed": false,
          "internalType": "address",
          "name": "to",
          "type": "address"
        },
        {
          "indexed": false,
          "internalType": "string",
          "name": "projectId",
          "type": "string"
        },
        {
          "indexed": false,
          "internalType": "uint256",
          "name": "tokenId",
          "type": "uint256"
        },
        {
          "indexed": false,
          "internalType": "address",
          "name": "govTokenAddress",
          "type": "address"
        }
      ],
      "name": "MintTokenForProjectEvent",
      "type": "event"
    },
    {
      "anonymous": false,
      "inputs": [
        {
          "indexed": true,
          "internalType": "address",
          "name": "previousOwner",
          "type": "address"
        },
        {
          "indexed": true,
          "internalType": "address",
          "name": "newOwner",
          "type": "address"
        }
      ],
      "name": "OwnershipTransferred",
      "type": "event"
    },
    {
      "anonymous": false,
      "inputs": [
        {
          "indexed": false,
          "internalType": "address",
          "name": "account",
          "type": "address"
        }
      ],
      "name": "Paused",
      "type": "event"
    },
    {
      "anonymous": false,
      "inputs": [
        {
          "indexed": true,
          "internalType": "address",
          "name": "from",
          "type": "address"
        },
        {
          "indexed": true,
          "internalType": "address",
          "name": "to",
          "type": "address"
        },
        {
          "indexed": true,
          "internalType": "uint256",
          "name": "tokenId",
          "type": "uint256"
        }
      ],
      "name": "Transfer",
      "type": "event"
    },
    {
      "anonymous": false,
      "inputs": [
        {
          "indexed": false,
          "internalType": "address",
          "name": "account",
          "type": "address"
        }
      ],
      "name": "Unpaused",
      "type": "event"
    },
    {
      "inputs": [
        {
          "internalType": "address",
          "name": "to",
          "type": "address"
        },
        {
          "internalType": "uint256",
          "name": "tokenId",
          "type": "uint256"
        }
      ],
      "name": "approve",
      "outputs": [],
      "stateMutability": "nonpayable",
      "type": "function"
    },
    {
      "inputs": [
        {
          "internalType": "address",
          "name": "owner",
          "type": "address"
        }
      ],
      "name": "balanceOf",
      "outputs": [
        {
          "internalType": "uint256",
          "name": "",
          "type": "uint256"
        }
      ],
      "stateMutability": "view",
      "type": "function",
      "constant": true
    },
    {
      "inputs": [],
      "name": "baseURI",
      "outputs": [
        {
          "internalType": "string",
          "name": "",
          "type": "string"
        }
      ],
      "stateMutability": "view",
      "type": "function",
      "constant": true
    },
    {
      "inputs": [
        {
          "internalType": "uint256",
          "name": "tokenId",
          "type": "uint256"
        }
      ],
      "name": "getApproved",
      "outputs": [
        {
          "internalType": "address",
          "name": "",
          "type": "address"
        }
      ],
      "stateMutability": "view",
      "type": "function",
      "constant": true
    },
    {
      "inputs": [
        {
          "internalType": "address",
          "name": "owner",
          "type": "address"
        },
        {
          "internalType": "address",
          "name": "operator",
          "type": "address"
        }
      ],
      "name": "isApprovedForAll",
      "outputs": [
        {
          "internalType": "bool",
          "name": "",
          "type": "bool"
        }
      ],
      "stateMutability": "view",
      "type": "function",
      "constant": true
    },
    {
      "inputs": [],
      "name": "name",
      "outputs": [
        {
          "internalType": "string",
          "name": "",
          "type": "string"
        }
      ],
      "stateMutability": "view",
      "type": "function",
      "constant": true
    },
    {
      "inputs": [],
      "name": "owner",
      "outputs": [
        {
          "internalType": "address",
          "name": "",
          "type": "address"
        }
      ],
      "stateMutability": "view",
      "type": "function",
      "constant": true
    },
    {
      "inputs": [
        {
          "internalType": "uint256",
          "name": "tokenId",
          "type": "uint256"
        }
      ],
      "name": "ownerOf",
      "outputs": [
        {
          "internalType": "address",
          "name": "",
          "type": "address"
        }
      ],
      "stateMutability": "view",
      "type": "function",
      "constant": true
    },
    {
      "inputs": [],
      "name": "paused",
      "outputs": [
        {
          "internalType": "bool",
          "name": "",
          "type": "bool"
        }
      ],
      "stateMutability": "view",
      "type": "function",
      "constant": true
    },
    {
      "inputs": [
        {
          "internalType": "uint256",
          "name": "",
          "type": "uint256"
        },
        {
          "internalType": "uint256",
          "name": "",
          "type": "uint256"
        }
      ],
      "name": "permissionsByTokenID",
      "outputs": [
        {
          "internalType": "bool",
          "name": "",
          "type": "bool"
        }
      ],
      "stateMutability": "view",
      "type": "function",
      "constant": true
    },
    {
      "inputs": [
        {
          "internalType": "uint256",
          "name": "",
          "type": "uint256"
        }
      ],
      "name": "projectIdsByTokenID",
      "outputs": [
        {
          "internalType": "string",
          "name": "",
          "type": "string"
        }
      ],
      "stateMutability": "view",
      "type": "function",
      "constant": true
    },
    {
      "inputs": [],
      "name": "renounceOwnership",
      "outputs": [],
      "stateMutability": "nonpayable",
      "type": "function"
    },
    {
      "inputs": [
        {
          "internalType": "address",
          "name": "operator",
          "type": "address"
        },
        {
          "internalType": "bool",
          "name": "approved",
          "type": "bool"
        }
      ],
      "name": "setApprovalForAll",
      "outputs": [],
      "stateMutability": "nonpayable",
      "type": "function"
    },
    {
      "inputs": [
        {
          "internalType": "address",
          "name": "_octobay",
          "type": "address"
        }
      ],
      "name": "setOctobay",
      "outputs": [],
      "stateMutability": "nonpayable",
      "type": "function"
    },
    {
      "inputs": [
        {
          "internalType": "bytes4",
          "name": "interfaceId",
          "type": "bytes4"
        }
      ],
      "name": "supportsInterface",
      "outputs": [
        {
          "internalType": "bool",
          "name": "",
          "type": "bool"
        }
      ],
      "stateMutability": "view",
      "type": "function",
      "constant": true
    },
    {
      "inputs": [],
      "name": "symbol",
      "outputs": [
        {
          "internalType": "string",
          "name": "",
          "type": "string"
        }
      ],
      "stateMutability": "view",
      "type": "function",
      "constant": true
    },
    {
      "inputs": [
        {
          "internalType": "uint256",
          "name": "index",
          "type": "uint256"
        }
      ],
      "name": "tokenByIndex",
      "outputs": [
        {
          "internalType": "uint256",
          "name": "",
          "type": "uint256"
        }
      ],
      "stateMutability": "view",
      "type": "function",
      "constant": true
    },
    {
      "inputs": [
        {
          "internalType": "address",
          "name": "owner",
          "type": "address"
        },
        {
          "internalType": "uint256",
          "name": "index",
          "type": "uint256"
        }
      ],
      "name": "tokenOfOwnerByIndex",
      "outputs": [
        {
          "internalType": "uint256",
          "name": "",
          "type": "uint256"
        }
      ],
      "stateMutability": "view",
      "type": "function",
      "constant": true
    },
    {
      "inputs": [
        {
          "internalType": "uint256",
          "name": "tokenId",
          "type": "uint256"
        }
      ],
      "name": "tokenURI",
      "outputs": [
        {
          "internalType": "string",
          "name": "",
          "type": "string"
        }
      ],
      "stateMutability": "view",
      "type": "function",
      "constant": true
    },
    {
      "inputs": [],
      "name": "totalSupply",
      "outputs": [
        {
          "internalType": "uint256",
          "name": "",
          "type": "uint256"
        }
      ],
      "stateMutability": "view",
      "type": "function",
      "constant": true
    },
    {
      "inputs": [
        {
          "internalType": "address",
          "name": "from",
          "type": "address"
        },
        {
          "internalType": "address",
          "name": "to",
          "type": "address"
        },
        {
          "internalType": "uint256",
          "name": "tokenId",
          "type": "uint256"
        }
      ],
      "name": "transferFrom",
      "outputs": [],
      "stateMutability": "nonpayable",
      "type": "function"
    },
    {
      "inputs": [
        {
          "internalType": "address",
          "name": "newOwner",
          "type": "address"
        }
      ],
      "name": "transferOwnership",
      "outputs": [],
      "stateMutability": "nonpayable",
      "type": "function"
    },
    {
      "inputs": [
        {
          "internalType": "uint256",
          "name": "_tokenId",
          "type": "uint256"
        },
        {
          "internalType": "enum OctobayGovNFT.Permission",
          "name": "_perm",
          "type": "uint8"
        }
      ],
      "name": "hasPermission",
      "outputs": [
        {
          "internalType": "bool",
          "name": "",
          "type": "bool"
        }
      ],
      "stateMutability": "view",
      "type": "function",
      "constant": true
    },
    {
      "inputs": [
        {
          "internalType": "uint256",
          "name": "_tokenId",
          "type": "uint256"
        }
      ],
      "name": "grantAllPermissions",
      "outputs": [],
      "stateMutability": "nonpayable",
      "type": "function"
    },
    {
      "inputs": [
        {
          "internalType": "uint256",
          "name": "_tokenId",
          "type": "uint256"
        },
        {
          "internalType": "enum OctobayGovNFT.Permission",
          "name": "_perm",
          "type": "uint8"
        }
      ],
      "name": "grantPermission",
      "outputs": [],
      "stateMutability": "nonpayable",
      "type": "function"
    },
    {
      "inputs": [
        {
          "internalType": "uint256",
          "name": "_tokenId",
          "type": "uint256"
        },
        {
          "internalType": "enum OctobayGovNFT.Permission",
          "name": "_perm",
          "type": "uint8"
        }
      ],
      "name": "revokePermission",
      "outputs": [],
      "stateMutability": "nonpayable",
      "type": "function"
    },
    {
      "inputs": [
        {
          "internalType": "address",
          "name": "_to",
          "type": "address"
        },
        {
          "internalType": "string",
          "name": "_projectId",
          "type": "string"
        },
        {
          "internalType": "address",
          "name": "_govTokenAddress",
          "type": "address"
        }
      ],
      "name": "mintTokenForProject",
      "outputs": [
        {
          "internalType": "uint256",
          "name": "",
          "type": "uint256"
        }
      ],
      "stateMutability": "nonpayable",
      "type": "function"
    },
    {
      "inputs": [
        {
          "internalType": "address",
          "name": "_user",
          "type": "address"
        },
        {
          "internalType": "string",
          "name": "_projectId",
          "type": "string"
        }
      ],
      "name": "getTokenIDForUserInProject",
      "outputs": [
        {
          "internalType": "uint256",
          "name": "",
          "type": "uint256"
        }
      ],
      "stateMutability": "view",
      "type": "function",
      "constant": true
    },
    {
      "inputs": [
        {
          "internalType": "address",
          "name": "_from",
          "type": "address"
        },
        {
          "internalType": "address",
          "name": "_to",
          "type": "address"
        },
        {
          "internalType": "uint256",
          "name": "_tokenId",
          "type": "uint256"
        }
      ],
      "name": "safeTransferFrom",
      "outputs": [],
      "stateMutability": "nonpayable",
      "type": "function"
    },
    {
      "inputs": [
        {
          "internalType": "address",
          "name": "from",
          "type": "address"
        },
        {
          "internalType": "address",
          "name": "to",
          "type": "address"
        },
        {
          "internalType": "uint256",
          "name": "tokenId",
          "type": "uint256"
        },
        {
          "internalType": "bytes",
          "name": "_data",
          "type": "bytes"
        }
      ],
      "name": "safeTransferFrom",
      "outputs": [],
      "stateMutability": "nonpayable",
      "type": "function"
    },
    {
      "inputs": [
        {
          "internalType": "uint256",
          "name": "_tokenId",
          "type": "uint256"
        }
      ],
      "name": "burn",
      "outputs": [],
      "stateMutability": "nonpayable",
      "type": "function"
    }
  ],
  "bytecode": "0x60806040523480156200001157600080fd5b5060405162002c9638038062002c96833981016040819052620000349162000337565b81816000620000426200011e565b600080546001600160a01b0319166001600160a01b0383169081178255604051929350917f8be0079c531659141344cd1fd0a4f28419497f9722a3daafe3b4186f6b6457e0908290a3506200009e6301ffc9a760e01b62000122565b8151620000b3906008906020850190620001f4565b508051620000c9906009906020840190620001f4565b50620000dc6380ac58cd60e01b62000122565b620000ee635b5e139f60e01b62000122565b6200010063780e9d6360e01b62000122565b5050600c805460ff19169055620001166200017d565b505062000413565b3390565b6001600160e01b03198082161415620001585760405162461bcd60e51b81526004016200014f90620003b2565b60405180910390fd5b6001600160e01b0319166000908152600260205260409020805460ff19166001179055565b600c5460ff1615620001a35760405162461bcd60e51b81526004016200014f90620003e9565b600c805460ff191660011790557f62e78cea01bee320cd4e420270b5ea74000d11b0c9f74754ebdbfc544b05a258620001db6200011e565b604051620001ea91906200039e565b60405180910390a1565b828054600181600116156101000203166002900490600052602060002090601f016020900481019282601f106200023757805160ff191683800117855562000267565b8280016001018555821562000267579182015b82811115620002675782518255916020019190600101906200024a565b506200027592915062000279565b5090565b5b808211156200027557600081556001016200027a565b600082601f830112620002a1578081fd5b81516001600160401b0380821115620002b8578283fd5b6040516020601f8401601f1916820181018381118382101715620002da578586fd5b80604052508194508382528681858801011115620002f757600080fd5b600092505b838310156200031b5785830181015182840182015291820191620002fc565b838311156200032d5760008185840101525b5050505092915050565b600080604083850312156200034a578182fd5b82516001600160401b038082111562000361578384fd5b6200036f8683870162000290565b9350602085015191508082111562000385578283fd5b50620003948582860162000290565b9150509250929050565b6001600160a01b0391909116815260200190565b6020808252601c908201527f4552433136353a20696e76616c696420696e7465726661636520696400000000604082015260600190565b60208082526010908201526f14185d5cd8589b194e881c185d5cd95960821b604082015260600190565b61287380620004236000396000f3fe608060405234801561001057600080fd5b50600436106101a55760003560e01c80636c0360eb116100ef578063b88d4fde11610092578063b88d4fde14610351578063c87b56dd14610364578063c94e4df514610377578063ceb0d7471461038a578063e483abaf1461039d578063e985e9c5146103b0578063f2fde38b146103c3578063f380e05c146103d6576101a5565b80636c0360eb146102e557806370a08231146102ed578063715018a6146103005780638da5cb5b1461030857806395d89b4114610310578063a22cb46514610318578063a66c34dc1461032b578063b48fa2ae1461033e576101a5565b80632f745c59116101575780632f745c591461025857806342842e0e1461026b57806342966c681461027e5780634f6ccce7146102915780635c975abb146102a45780635e94305d146102ac5780635f9bb0dc146102bf5780636352211e146102d2576101a5565b806301ffc9a7146101aa57806306fdde03146101d3578063081812fc146101e8578063095ea7b31461020857806318160ddd1461021d57806323b872dd146102325780632706460d14610245575b600080fd5b6101bd6101b8366004611e96565b6103e9565b6040516101ca91906120f3565b60405180910390f35b6101db61040c565b6040516101ca91906120fe565b6101fb6101f6366004611ece565b6104a2565b6040516101ca9190612067565b61021b610216366004611e6c565b6104ee565b005b610225610586565b6040516101ca9190612762565b61021b610240366004611cdd565b610597565b61021b610253366004611ee6565b6105cf565b610225610266366004611e6c565b610637565b61021b610279366004611cdd565b610662565b61021b61028c366004611ece565b6106a4565b61022561029f366004611ece565b6106e7565b6101bd6106fd565b6101db6102ba366004611ece565b610706565b6101bd6102cd366004611f0d565b6107a1565b6101fb6102e0366004611ece565b6107c1565b6101db6107e9565b6102256102fb366004611c8e565b61084a565b61021b610893565b6101fb610912565b6101db610921565b61021b610326366004611d85565b610982565b61021b610339366004611ee6565b610a50565b61022561034c366004611dc0565b610a88565b61021b61035f366004611d1d565b610afe565b6101db610372366004611ece565b610b3d565b610225610385366004611e0e565b610c87565b6101bd610398366004611ee6565b610cc9565b61021b6103ab366004611ece565b610cff565b6101bd6103be366004611ca9565b610d58565b61021b6103d1366004611c8e565b610d86565b61021b6103e4366004611c8e565b610e3c565b6001600160e01b0319811660009081526002602052604090205460ff165b919050565b60088054604080516020601f60026000196101006001881615020190951694909404938401819004810282018101909252828152606093909290918301828280156104985780601f1061046d57610100808354040283529160200191610498565b820191906000526020600020905b81548152906001019060200180831161047b57829003601f168201915b5050505050905090565b60006104ad82610e93565b6104d25760405162461bcd60e51b81526004016104c99061253e565b60405180910390fd5b506000908152600660205260409020546001600160a01b031690565b60006104f9826107c1565b9050806001600160a01b0316836001600160a01b0316141561052d5760405162461bcd60e51b81526004016104c990612699565b806001600160a01b031661053f610ea0565b6001600160a01b0316148061055b575061055b816103be610ea0565b6105775760405162461bcd60e51b81526004016104c990612425565b6105818383610ea4565b505050565b60006105926004610f12565b905090565b6105a86105a2610ea0565b82610f1d565b6105c45760405162461bcd60e51b81526004016104c9906126da565b610581838383610fa2565b6001546001600160a01b031633146105f95760405162461bcd60e51b81526004016104c99061221e565b6000828152600d602052604081208183600381111561061457fe5b81526020810191909152604001600020805460ff19169115159190911790555050565b6001600160a01b0382166000908152600360205260408120610659908361109e565b90505b92915050565b61066d816001610cc9565b6106895760405162461bcd60e51b81526004016104c990612657565b6106916110aa565b61069c838383611116565b610581611131565b6106ad8161118a565b7fb8c497fa4677498ae2d340c571843eb8d86a01494195a7240016b28f83e9573d816040516106dc9190612762565b60405180910390a150565b6000806106f5600484611245565b509392505050565b600c5460ff1690565b600e6020908152600091825260409182902080548351601f6002600019610100600186161502019093169290920491820184900484028101840190945280845290918301828280156107995780601f1061076e57610100808354040283529160200191610799565b820191906000526020600020905b81548152906001019060200180831161077c57829003601f168201915b505050505081565b600d60209081526000928352604080842090915290825290205460ff1681565b600061065c826040518060600160405280602981526020016127f56029913960049190611261565b600b8054604080516020601f60026000196101006001881615020190951694909404938401819004810282018101909252828152606093909290918301828280156104985780601f1061046d57610100808354040283529160200191610498565b60006001600160a01b0382166108725760405162461bcd60e51b81526004016104c99061247d565b6001600160a01b038216600090815260036020526040902061065c90610f12565b61089b610ea0565b6000546001600160a01b039081169116146108c85760405162461bcd60e51b81526004016104c99061258a565b600080546040516001600160a01b03909116907f8be0079c531659141344cd1fd0a4f28419497f9722a3daafe3b4186f6b6457e0908390a3600080546001600160a01b0319169055565b6000546001600160a01b031690565b60098054604080516020601f60026000196101006001881615020190951694909404938401819004810282018101909252828152606093909290918301828280156104985780601f1061046d57610100808354040283529160200191610498565b61098a610ea0565b6001600160a01b0316826001600160a01b031614156109bb5760405162461bcd60e51b81526004016104c990612336565b80600760006109c8610ea0565b6001600160a01b03908116825260208083019390935260409182016000908120918716808252919093529120805460ff191692151592909217909155610a0c610ea0565b6001600160a01b03167f17307eab39ab6107e8899845ad3d59bd9653f200f220920489ca2b5937696c3183604051610a4491906120f3565b60405180910390a35050565b6001546001600160a01b03163314610a7a5760405162461bcd60e51b81526004016104c99061221e565b610a84828261126e565b5050565b6000805b610a958461084a565b811015610af45782516020840120600e6000610ab18785610637565b8152602001908152602001600020604051610acc9190611f76565b60405180910390201415610aec57610ae48482610637565b91505061065c565b600101610a8c565b5060009392505050565b610b0f610b09610ea0565b83610f1d565b610b2b5760405162461bcd60e51b81526004016104c9906126da565b610b378484848461128b565b50505050565b6060610b4882610e93565b610b645760405162461bcd60e51b81526004016104c990612608565b6000828152600a602090815260409182902080548351601f6002600019610100600186161502019093169290920491820184900484028101840190945280845260609392830182828015610bf95780601f10610bce57610100808354040283529160200191610bf9565b820191906000526020600020905b815481529060010190602001808311610bdc57829003601f168201915b5050600b5493945050505060026000196101006001841615020190911604610c22579050610407565b805115610c5457600b81604051602001610c3d929190611fe6565b604051602081830303815290604052915050610407565b600b610c5f846112be565b604051602001610c70929190611fe6565b604051602081830303815290604052915050919050565b6001546000906001600160a01b03163314610cb45760405162461bcd60e51b81526004016104c99061221e565b610cbf848484611399565b90505b9392505050565b6000828152600d6020526040812081836003811115610ce457fe5b815260208101919091526040016000205460ff169392505050565b6001546001600160a01b03163314610d295760405162461bcd60e51b81526004016104c99061221e565b610d3481600061126e565b610d3f81600161126e565b610d4a81600261126e565b610d5581600361126e565b50565b6001600160a01b03918216600090815260076020908152604080832093909416825291909152205460ff1690565b610d8e610ea0565b6000546001600160a01b03908116911614610dbb5760405162461bcd60e51b81526004016104c99061258a565b6001600160a01b038116610de15760405162461bcd60e51b81526004016104c990612275565b600080546040516001600160a01b03808516939216917f8be0079c531659141344cd1fd0a4f28419497f9722a3daafe3b4186f6b6457e091a3600080546001600160a01b0319166001600160a01b0392909216919091179055565b610e44610ea0565b6000546001600160a01b03908116911614610e715760405162461bcd60e51b81526004016104c99061258a565b600180546001600160a01b0319166001600160a01b0392909216919091179055565b600061065c600483611428565b3390565b600081815260066020526040902080546001600160a01b0319166001600160a01b0384169081179091558190610ed9826107c1565b6001600160a01b03167f8c5be1e5ebec7d5bd14f71427d1e84f3dd0314c0f7b2291e5b200ac8c7c3b92560405160405180910390a45050565b600061065c82611434565b6000610f2882610e93565b610f445760405162461bcd60e51b81526004016104c9906123af565b6000610f4f836107c1565b9050806001600160a01b0316846001600160a01b03161480610f8a5750836001600160a01b0316610f7f846104a2565b6001600160a01b0316145b80610f9a5750610f9a8185610d58565b949350505050565b826001600160a01b0316610fb5826107c1565b6001600160a01b031614610fdb5760405162461bcd60e51b81526004016104c9906125bf565b6001600160a01b0382166110015760405162461bcd60e51b81526004016104c9906122f2565b61100c838383611438565b611017600082610ea4565b6001600160a01b03831660009081526003602052604090206110399082611468565b506001600160a01b038216600090815260036020526040902061105c9082611474565b5061106960048284611480565b5080826001600160a01b0316846001600160a01b031660008051602061281e83398151915260405160405180910390a4505050565b60006106598383611496565b600c5460ff166110cc5760405162461bcd60e51b81526004016104c99061219e565b600c805460ff191690557f5db9ee0a495bf2e6ff9c91a7834c1ba4fdd244a5e8aa4e537bd38aeae4b073aa6110ff610ea0565b60405161110c9190612067565b60405180910390a1565b61058183838360405180602001604052806000815250610afe565b600c5460ff16156111545760405162461bcd60e51b81526004016104c9906123fb565b600c805460ff191660011790557f62e78cea01bee320cd4e420270b5ea74000d11b0c9f74754ebdbfc544b05a2586110ff610ea0565b6000611195826107c1565b90506111a381600084611438565b6111ae600083610ea4565b6000828152600a602052604090205460026000196101006001841615020190911604156111ec576000828152600a602052604081206111ec91611b22565b6001600160a01b038116600090815260036020526040902061120e9083611468565b5061121a6004836114db565b5060405182906000906001600160a01b0384169060008051602061281e833981519152908390a45050565b600080808061125486866114e7565b9097909650945050505050565b6000610cbf848484611543565b6000828152600d6020526040812060019183600381111561061457fe5b611296848484610fa2565b6112a2848484846115a2565b610b375760405162461bcd60e51b81526004016104c9906121cc565b6060816112e357506040805180820190915260018152600360fc1b6020820152610407565b8160005b81156112fb57600101600a820491506112e7565b60608167ffffffffffffffff8111801561131457600080fd5b506040519080825280601f01601f19166020018201604052801561133f576020820181803683370190505b50859350905060001982015b831561139057600a840660300160f81b8282806001900393508151811061136e57fe5b60200101906001600160f81b031916908160001a905350600a8404935061134b565b50949350505050565b6000806113a4610586565b60010190506113b16110aa565b6113bb8582611681565b6113c3611131565b6000818152600e6020908152604090912085516113e292870190611b66565b507f82c818d61da6776e5f90e411e22d470263f0e9462496eb3c79d58a513cf98b5e8585838660405161141894939291906120b8565b60405180910390a1949350505050565b6000610659838361169b565b5490565b611443838383610581565b61144b6106fd565b156105815760405162461bcd60e51b81526004016104c990612153565b600061065983836116b3565b60006106598383611779565b6000610cbf84846001600160a01b0385166117c3565b815460009082106114b95760405162461bcd60e51b81526004016104c990612111565b8260000182815481106114c857fe5b9060005260206000200154905092915050565b6000610659838361185a565b81546000908190831061150c5760405162461bcd60e51b81526004016104c9906124c7565b600084600001848154811061151d57fe5b906000526020600020906002020190508060000154816001015492509250509250929050565b600082815260018401602052604081205482816115735760405162461bcd60e51b81526004016104c991906120fe565b5084600001600182038154811061158657fe5b9060005260206000209060020201600101549150509392505050565b60006115b6846001600160a01b031661192e565b6115c257506001610f9a565b606061164a630a85bd0160e11b6115d7610ea0565b8887876040516024016115ed949392919061207b565b604051602081830303815290604052906001600160e01b0319166020820180516001600160e01b0383818316178352505050506040518060600160405280603281526020016127c3603291396001600160a01b0388169190611934565b90506000818060200190518101906116629190611eb2565b6001600160e01b031916630a85bd0160e11b1492505050949350505050565b610a84828260405180602001604052806000815250611943565b60009081526001919091016020526040902054151590565b6000818152600183016020526040812054801561176f57835460001980830191908101906000908790839081106116e657fe5b906000526020600020015490508087600001848154811061170357fe5b60009182526020808320909101929092558281526001898101909252604090209084019055865487908061173357fe5b6001900381819060005260206000200160009055905586600101600087815260200190815260200160002060009055600194505050505061065c565b600091505061065c565b6000611785838361169b565b6117bb5750815460018181018455600084815260208082209093018490558454848252828601909352604090209190915561065c565b50600061065c565b600082815260018401602052604081205480611828575050604080518082018252838152602080820184815286546001818101895560008981528481209551600290930290950191825591519082015586548684528188019092529290912055610cc2565b8285600001600183038154811061183b57fe5b9060005260206000209060020201600101819055506000915050610cc2565b6000818152600183016020526040812054801561176f578354600019808301919081019060009087908390811061188d57fe5b90600052602060002090600202019050808760000184815481106118ad57fe5b6000918252602080832084546002909302019182556001938401549184019190915583548252898301905260409020908401905586548790806118ec57fe5b600082815260208082206002600019909401938402018281556001908101839055929093558881528982019092526040822091909155945061065c9350505050565b3b151590565b6060610cbf8484600085611976565b61194d8383611a37565b61195a60008484846115a2565b6105815760405162461bcd60e51b81526004016104c9906121cc565b6060824710156119985760405162461bcd60e51b81526004016104c990612369565b6119a18561192e565b6119bd5760405162461bcd60e51b81526004016104c99061272b565b60006060866001600160a01b031685876040516119da9190611f5a565b60006040518083038185875af1925050503d8060008114611a17576040519150601f19603f3d011682016040523d82523d6000602084013e611a1c565b606091505b5091509150611a2c828286611ae9565b979650505050505050565b6001600160a01b038216611a5d5760405162461bcd60e51b81526004016104c990612509565b611a6681610e93565b15611a835760405162461bcd60e51b81526004016104c9906122bb565b611a8f60008383611438565b6001600160a01b0382166000908152600360205260409020611ab19082611474565b50611abe60048284611480565b5060405181906001600160a01b0384169060009060008051602061281e833981519152908290a45050565b60608315611af8575081610cc2565b825115611b085782518084602001fd5b8160405162461bcd60e51b81526004016104c991906120fe565b50805460018160011615610100020316600290046000825580601f10611b485750610d55565b601f016020900490600052602060002090810190610d559190611be4565b828054600181600116156101000203166002900490600052602060002090601f016020900481019282601f10611ba757805160ff1916838001178555611bd4565b82800160010185558215611bd4579182015b82811115611bd4578251825591602001919060010190611bb9565b50611be0929150611be4565b5090565b5b80821115611be05760008155600101611be5565b80356001600160a01b038116811461065c57600080fd5b600082601f830112611c20578081fd5b813567ffffffffffffffff80821115611c37578283fd5b604051601f8301601f191681016020018281118282101715611c57578485fd5b604052828152925082848301602001861015611c7257600080fd5b8260208601602083013760006020848301015250505092915050565b600060208284031215611c9f578081fd5b6106598383611bf9565b60008060408385031215611cbb578081fd5b611cc58484611bf9565b9150611cd48460208501611bf9565b90509250929050565b600080600060608486031215611cf1578081fd5b8335611cfc81612797565b92506020840135611d0c81612797565b929592945050506040919091013590565b60008060008060808587031215611d32578081fd5b611d3c8686611bf9565b9350611d4b8660208701611bf9565b925060408501359150606085013567ffffffffffffffff811115611d6d578182fd5b611d7987828801611c10565b91505092959194509250565b60008060408385031215611d97578182fd5b611da18484611bf9565b915060208301358015158114611db5578182fd5b809150509250929050565b60008060408385031215611dd2578182fd5b8235611ddd81612797565b9150602083013567ffffffffffffffff811115611df8578182fd5b611e0485828601611c10565b9150509250929050565b600080600060608486031215611e22578283fd5b611e2c8585611bf9565b9250602084013567ffffffffffffffff811115611e47578283fd5b611e5386828701611c10565b925050611e638560408601611bf9565b90509250925092565b60008060408385031215611e7e578182fd5b611e888484611bf9565b946020939093013593505050565b600060208284031215611ea7578081fd5b8135610cc2816127ac565b600060208284031215611ec3578081fd5b8151610cc2816127ac565b600060208284031215611edf578081fd5b5035919050565b60008060408385031215611ef8578182fd5b82359150602083013560048110611db5578182fd5b60008060408385031215611f1f578182fd5b50508035926020909101359150565b60008151808452611f4681602086016020860161276b565b601f01601f19169290920160200192915050565b60008251611f6c81846020870161276b565b9190910192915050565b6000808354600180821660008114611f955760018114611fac57611fdb565b60ff198316865260028304607f1686019350611fdb565b600283048786526020808720875b83811015611fd35781548a820152908501908201611fba565b505050860193505b509195945050505050565b6000808454600180821660008114612005576001811461201c5761204b565b60ff198316865260028304607f168601935061204b565b600283048886526020808720875b838110156120435781548a82015290850190820161202a565b505050860193505b505050835161205e81836020880161276b565b01949350505050565b6001600160a01b0391909116815260200190565b6001600160a01b03858116825284166020820152604081018390526080606082018190526000906120ae90830184611f2e565b9695505050505050565b600060018060a01b038087168352608060208401526120da6080840187611f2e565b6040840195909552929092166060909101525092915050565b901515815260200190565b6000602082526106596020830184611f2e565b60208082526022908201527f456e756d657261626c655365743a20696e646578206f7574206f6620626f756e604082015261647360f01b606082015260800190565b6020808252602b908201527f4552433732315061757361626c653a20746f6b656e207472616e73666572207760408201526a1a1a5b19481c185d5cd95960aa1b606082015260800190565b60208082526014908201527314185d5cd8589b194e881b9bdd081c185d5cd95960621b604082015260600190565b60208082526032908201527f4552433732313a207472616e7366657220746f206e6f6e20455243373231526560408201527131b2b4bb32b91034b6b83632b6b2b73a32b960711b606082015260800190565b60208082526037908201527f4f6e6c79207468652063757272656e74206f63746f6261792076657273696f6e6040820152761031b0b7103ab9b2903a3434b990333ab731ba34b7b71760491b606082015260800190565b60208082526026908201527f4f776e61626c653a206e6577206f776e657220697320746865207a65726f206160408201526564647265737360d01b606082015260800190565b6020808252601c908201527f4552433732313a20746f6b656e20616c7265616479206d696e74656400000000604082015260600190565b60208082526024908201527f4552433732313a207472616e7366657220746f20746865207a65726f206164646040820152637265737360e01b606082015260800190565b60208082526019908201527822a9219b99189d1030b8383937bb32903a379031b0b63632b960391b604082015260600190565b60208082526026908201527f416464726573733a20696e73756666696369656e742062616c616e636520666f6040820152651c8818d85b1b60d21b606082015260800190565b6020808252602c908201527f4552433732313a206f70657261746f7220717565727920666f72206e6f6e657860408201526b34b9ba32b73a103a37b5b2b760a11b606082015260800190565b60208082526010908201526f14185d5cd8589b194e881c185d5cd95960821b604082015260600190565b60208082526038908201527f4552433732313a20617070726f76652063616c6c6572206973206e6f74206f776040820152771b995c881b9bdc88185c1c1c9bdd995908199bdc88185b1b60421b606082015260800190565b6020808252602a908201527f4552433732313a2062616c616e636520717565727920666f7220746865207a65604082015269726f206164647265737360b01b606082015260800190565b60208082526022908201527f456e756d657261626c654d61703a20696e646578206f7574206f6620626f756e604082015261647360f01b606082015260800190565b6020808252818101527f4552433732313a206d696e7420746f20746865207a65726f2061646472657373604082015260600190565b6020808252602c908201527f4552433732313a20617070726f76656420717565727920666f72206e6f6e657860408201526b34b9ba32b73a103a37b5b2b760a11b606082015260800190565b6020808252818101527f4f776e61626c653a2063616c6c6572206973206e6f7420746865206f776e6572604082015260600190565b60208082526029908201527f4552433732313a207472616e73666572206f6620746f6b656e2074686174206960408201526839903737ba1037bbb760b91b606082015260800190565b6020808252602f908201527f4552433732314d657461646174613a2055524920717565727920666f72206e6f60408201526e3732bc34b9ba32b73a103a37b5b2b760891b606082015260800190565b60208082526022908201527f4e6f7420616c6c6f77656420746f207472616e73666572207468697320746f6b60408201526132b760f11b606082015260800190565b60208082526021908201527f4552433732313a20617070726f76616c20746f2063757272656e74206f776e656040820152603960f91b606082015260800190565b60208082526031908201527f4552433732313a207472616e736665722063616c6c6572206973206e6f74206f6040820152701ddb995c881b9bdc88185c1c1c9bdd9959607a1b606082015260800190565b6020808252601d908201527f416464726573733a2063616c6c20746f206e6f6e2d636f6e7472616374000000604082015260600190565b90815260200190565b60005b8381101561278657818101518382015260200161276e565b83811115610b375750506000910152565b6001600160a01b0381168114610d5557600080fd5b6001600160e01b031981168114610d5557600080fdfe4552433732313a207472616e7366657220746f206e6f6e20455243373231526563656976657220696d706c656d656e7465724552433732313a206f776e657220717565727920666f72206e6f6e6578697374656e7420746f6b656eddf252ad1be2c89b69c2b068fc378daa952ba7f163c4a11628f55a4df523b3efa264697066735822122092a342364c02a977e3aedc34fbca50229e7e22a23770b6e194db8a44961c86e264736f6c634300060c0033",
  "immutableReferences": {},
  "source": "// SPDX-License-Identifier: MIT\npragma solidity ^0.6.0;\npragma experimental ABIEncoderV2;\n\nimport '@openzeppelin/contracts/token/ERC721/ERC721Pausable.sol';\nimport './OctobayStorage.sol';\n\ncontract OctobayGovNFT is OctobayStorage, ERC721Pausable {\n    enum Permission {\n        MINT,\n        TRANSFER,\n        SET_ISSUE_GOVTOKEN,\n        CREATE_PROPOSAL\n        // e.t.c.\n    }\n\n    event MintTokenForProjectEvent(address to, string projectId, uint256 tokenId, address govTokenAddress);\n    event BurnTokenEvent(uint256 tokenId);\n\n    mapping (uint256 => mapping (uint => bool) ) public permissionsByTokenID;\n    mapping (uint256 => string) public projectIdsByTokenID;\n\n    constructor(string memory name, string memory symbol) public ERC721(name, symbol) {\n        // Prevent transfers by default unless we allow it\n        _pause();\n    }\n\n    function hasPermission(uint256 _tokenId, Permission _perm) public view returns(bool) {\n        return permissionsByTokenID[_tokenId][uint(_perm)];\n    }\n\n    function grantAllPermissions(uint256 _tokenId) external onlyOctobay {\n        // There's no nice way of looping through enums... :( It's probably better that we do this here though\n        _grantPermission(_tokenId, Permission.MINT);\n        _grantPermission(_tokenId, Permission.TRANSFER);\n        _grantPermission(_tokenId, Permission.SET_ISSUE_GOVTOKEN);\n        _grantPermission(_tokenId, Permission.CREATE_PROPOSAL);\n    }\n\n    function grantPermission(uint256 _tokenId, Permission _perm) external onlyOctobay {\n        _grantPermission(_tokenId, _perm);\n    }\n\n    function _grantPermission(uint256 _tokenId, Permission _perm) internal {\n        permissionsByTokenID[_tokenId][uint(_perm)] = true;\n    }\n\n    function revokePermission(uint256 _tokenId, Permission _perm) external onlyOctobay {\n        permissionsByTokenID[_tokenId][uint(_perm)] = false;\n    }\n\n    function mintTokenForProject(address _to, string memory _projectId, address _govTokenAddress) external onlyOctobay returns(uint256) {\n        return _mintTokenForProject(_to, _projectId, _govTokenAddress);\n    }\n\n    function _mintTokenForProject(address _to, string memory _projectId, address _govTokenAddress) internal returns(uint256) {\n        uint256 tokenId = totalSupply() + 1;\n        _unpause();\n        _safeMint(_to, tokenId);\n        _pause();\n        projectIdsByTokenID[tokenId] = _projectId;\n        emit MintTokenForProjectEvent(_to, _projectId, tokenId, _govTokenAddress);\n        return tokenId;\n    }\n\n    function getTokenIDForUserInProject(address _user, string memory _projectId) public view returns(uint256) {\n        for (uint i=0; i < balanceOf(_user); i++) {\n            if (keccak256(bytes(projectIdsByTokenID[tokenOfOwnerByIndex(_user, i)])) == keccak256(bytes(_projectId))) {\n                return tokenOfOwnerByIndex(_user, i);\n            }\n        }\n\n        return 0;\n    }\n\n    function safeTransferFrom(address _from, address _to, uint256 _tokenId) public override {\n        require(hasPermission(_tokenId, Permission.TRANSFER), \"Not allowed to transfer this token\");\n        _unpause();\n        super.safeTransferFrom(_from, _to, _tokenId);\n        _pause();\n    }\n\n    // function mintTokenWithPermissions(address _to, uint256 _tokenId, Permission[] memory _perms) public {\n    //     require(hasPermission(_tokenId, Permission.MINT), \"Not allowed to mint new tokens\");\n    //     require(ownerOf(_tokenId) == msg.sender, \"Not the owner of _tokenId\");\n\n    //     uint256 newTokenId = _mintTokenForProject(_to, projectIdsByTokenID[_tokenId]);\n    //     for (uint i=0; i < _perms.length; i++) {\n    //         _grantPermission(newTokenId, _perms[i]);\n    //     }\n    // }\n\n    function burn(uint256 _tokenId) public {\n        _burn(_tokenId);\n        emit BurnTokenEvent(_tokenId);\n    }\n}",
  "sourcePath": "/home/mkt/Projects/octobay/contracts/contracts/OctobayGovNFT.sol",
  "compiler": {
    "name": "solc",
    "version": "0.6.12+commit.27d51765.Emscripten.clang"
  },
  "schemaVersion": "3.3.4",
  "updatedAt": "2021-04-11T12:17:54.431Z",
  "networkType": "ethereum",
  "devdoc": {
    "kind": "dev",
    "methods": {
      "approve(address,uint256)": {
        "details": "See {IERC721-approve}."
      },
      "balanceOf(address)": {
        "details": "See {IERC721-balanceOf}."
      },
      "baseURI()": {
        "details": "Returns the base URI set via {_setBaseURI}. This will be automatically added as a prefix in {tokenURI} to each token's URI, or to the token ID if no specific URI is set for that token ID."
      },
      "getApproved(uint256)": {
        "details": "See {IERC721-getApproved}."
      },
      "isApprovedForAll(address,address)": {
        "details": "See {IERC721-isApprovedForAll}."
      },
      "name()": {
        "details": "See {IERC721Metadata-name}."
      },
      "owner()": {
        "details": "Returns the address of the current owner."
      },
      "ownerOf(uint256)": {
        "details": "See {IERC721-ownerOf}."
      },
      "paused()": {
        "details": "Returns true if the contract is paused, and false otherwise."
      },
      "renounceOwnership()": {
        "details": "Leaves the contract without owner. It will not be possible to call `onlyOwner` functions anymore. Can only be called by the current owner. NOTE: Renouncing ownership will leave the contract without an owner, thereby removing any functionality that is only available to the owner."
      },
      "safeTransferFrom(address,address,uint256,bytes)": {
        "details": "See {IERC721-safeTransferFrom}."
      },
      "setApprovalForAll(address,bool)": {
        "details": "See {IERC721-setApprovalForAll}."
      },
      "supportsInterface(bytes4)": {
        "details": "See {IERC165-supportsInterface}. Time complexity O(1), guaranteed to always use less than 30 000 gas."
      },
      "symbol()": {
        "details": "See {IERC721Metadata-symbol}."
      },
      "tokenByIndex(uint256)": {
        "details": "See {IERC721Enumerable-tokenByIndex}."
      },
      "tokenOfOwnerByIndex(address,uint256)": {
        "details": "See {IERC721Enumerable-tokenOfOwnerByIndex}."
      },
      "tokenURI(uint256)": {
        "details": "See {IERC721Metadata-tokenURI}."
      },
      "totalSupply()": {
        "details": "See {IERC721Enumerable-totalSupply}."
      },
      "transferFrom(address,address,uint256)": {
        "details": "See {IERC721-transferFrom}."
      },
      "transferOwnership(address)": {
        "details": "Transfers ownership of the contract to a new account (`newOwner`). Can only be called by the current owner."
      }
    },
    "version": 1
  },
  "userdoc": {
    "kind": "user",
    "methods": {},
    "version": 1
  }
}