{
  "contractName": "Octobay",
  "abi": [
    {
      "inputs": [
        {
          "internalType": "address",
          "name": "_link",
          "type": "address"
        },
        {
          "internalType": "address",
          "name": "_forwarder",
          "type": "address"
        },
        {
          "internalType": "address",
          "name": "_userAddressStorage",
          "type": "address"
        },
        {
          "internalType": "address",
          "name": "_oracleStorage",
          "type": "address"
        },
        {
          "internalType": "address",
          "name": "_depositStorage",
          "type": "address"
        },
        {
          "internalType": "address",
          "name": "_octobayGovernor",
          "type": "address"
        },
        {
          "internalType": "address",
          "name": "_octobayGovNFT",
          "type": "address"
        },
        {
          "internalType": "address",
          "name": "_ethUSDPriceFeed",
          "type": "address"
        }
      ],
      "stateMutability": "nonpayable",
      "type": "constructor"
    },
    {
      "anonymous": false,
      "inputs": [
        {
          "indexed": true,
          "internalType": "bytes32",
          "name": "id",
          "type": "bytes32"
        }
      ],
      "name": "ChainlinkCancelled",
      "type": "event"
    },
    {
      "anonymous": false,
      "inputs": [
        {
          "indexed": true,
          "internalType": "bytes32",
          "name": "id",
          "type": "bytes32"
        }
      ],
      "name": "ChainlinkFulfilled",
      "type": "event"
    },
    {
      "anonymous": false,
      "inputs": [
        {
          "indexed": true,
          "internalType": "bytes32",
          "name": "id",
          "type": "bytes32"
        }
      ],
      "name": "ChainlinkRequested",
      "type": "event"
    },
    {
      "anonymous": false,
      "inputs": [
        {
          "indexed": true,
          "internalType": "address",
          "name": "previousOwner",
          "type": "address"
        },
        {
          "indexed": true,
          "internalType": "address",
          "name": "newOwner",
          "type": "address"
        }
      ],
      "name": "OwnershipTransferred",
      "type": "event"
    },
    {
      "anonymous": false,
      "inputs": [
        {
          "indexed": false,
          "internalType": "address",
          "name": "depositStorage",
          "type": "address"
        }
      ],
      "name": "SetDepositStorageEvent",
      "type": "event"
    },
    {
      "anonymous": false,
      "inputs": [
        {
          "indexed": false,
          "internalType": "address",
          "name": "ethUsdPriceFeed",
          "type": "address"
        }
      ],
      "name": "SetEthUSDPriceFeedEvent",
      "type": "event"
    },
    {
      "anonymous": false,
      "inputs": [
        {
          "indexed": false,
          "internalType": "address",
          "name": "octobayGovNFT",
          "type": "address"
        }
      ],
      "name": "SetOctobayGovNFTEvent",
      "type": "event"
    },
    {
      "anonymous": false,
      "inputs": [
        {
          "indexed": false,
          "internalType": "address",
          "name": "octobayGovernor",
          "type": "address"
        }
      ],
      "name": "SetOctobayGovernorEvent",
      "type": "event"
    },
    {
      "anonymous": false,
      "inputs": [
        {
          "indexed": false,
          "internalType": "address",
          "name": "oracleStorage",
          "type": "address"
        }
      ],
      "name": "SetOracleStorageEvent",
      "type": "event"
    },
    {
      "anonymous": false,
      "inputs": [
        {
          "indexed": false,
          "internalType": "address",
          "name": "forwarder",
          "type": "address"
        }
      ],
      "name": "SetTrustedForwarderEvent",
      "type": "event"
    },
    {
      "anonymous": false,
      "inputs": [
        {
          "indexed": false,
          "internalType": "address",
          "name": "addressStorage",
          "type": "address"
        }
      ],
      "name": "SetUserAddressStorageEvent",
      "type": "event"
    },
    {
      "inputs": [],
      "name": "depositStorage",
      "outputs": [
        {
          "internalType": "contract DepositStorage",
          "name": "",
          "type": "address"
        }
      ],
      "stateMutability": "view",
      "type": "function",
      "constant": true
    },
    {
      "inputs": [
        {
          "internalType": "address",
          "name": "forwarder",
          "type": "address"
        }
      ],
      "name": "isTrustedForwarder",
      "outputs": [
        {
          "internalType": "bool",
          "name": "",
          "type": "bool"
        }
      ],
      "stateMutability": "view",
      "type": "function",
      "constant": true
    },
    {
      "inputs": [
        {
          "internalType": "bytes32",
          "name": "",
          "type": "bytes32"
        }
      ],
      "name": "issueWithdrawRequests",
      "outputs": [
        {
          "internalType": "string",
          "name": "issueId",
          "type": "string"
        },
        {
          "internalType": "address",
          "name": "payoutAddress",
          "type": "address"
        }
      ],
      "stateMutability": "view",
      "type": "function",
      "constant": true
    },
    {
      "inputs": [
        {
          "internalType": "bytes32",
          "name": "",
          "type": "bytes32"
        }
      ],
      "name": "newGovernanceTokenReqs",
      "outputs": [
        {
          "internalType": "bool",
          "name": "isValue",
          "type": "bool"
        },
        {
          "internalType": "string",
          "name": "githubUserId",
          "type": "string"
        },
        {
          "internalType": "string",
          "name": "name",
          "type": "string"
        },
        {
          "internalType": "string",
          "name": "symbol",
          "type": "string"
        },
        {
          "internalType": "string",
          "name": "projectId",
          "type": "string"
        },
        {
          "internalType": "uint16",
          "name": "newProposalShare",
          "type": "uint16"
        },
        {
          "internalType": "uint16",
          "name": "minQuorum",
          "type": "uint16"
        },
        {
          "internalType": "address",
          "name": "creator",
          "type": "address"
        }
      ],
      "stateMutability": "view",
      "type": "function",
      "constant": true
    },
    {
      "inputs": [],
      "name": "octobayGovNFT",
      "outputs": [
        {
          "internalType": "contract OctobayGovNFT",
          "name": "",
          "type": "address"
        }
      ],
      "stateMutability": "view",
      "type": "function",
      "constant": true
    },
    {
      "inputs": [],
      "name": "octobayGovernor",
      "outputs": [
        {
          "internalType": "contract OctobayGovernor",
          "name": "",
          "type": "address"
        }
      ],
      "stateMutability": "view",
      "type": "function",
      "constant": true
    },
    {
      "inputs": [],
      "name": "oracleStorage",
      "outputs": [
        {
          "internalType": "contract OracleStorage",
          "name": "",
          "type": "address"
        }
      ],
      "stateMutability": "view",
      "type": "function",
      "constant": true
    },
    {
      "inputs": [],
      "name": "owner",
      "outputs": [
        {
          "internalType": "address",
          "name": "",
          "type": "address"
        }
      ],
      "stateMutability": "view",
      "type": "function",
      "constant": true
    },
    {
      "inputs": [],
      "name": "renounceOwnership",
      "outputs": [],
      "stateMutability": "nonpayable",
      "type": "function"
    },
    {
      "inputs": [
        {
          "internalType": "address",
          "name": "newOwner",
          "type": "address"
        }
      ],
      "name": "transferOwnership",
      "outputs": [],
      "stateMutability": "nonpayable",
      "type": "function"
    },
    {
      "inputs": [],
      "name": "trustedForwarder",
      "outputs": [
        {
          "internalType": "address",
          "name": "",
          "type": "address"
        }
      ],
      "stateMutability": "view",
      "type": "function",
      "constant": true
    },
    {
      "inputs": [
        {
          "internalType": "bytes32",
          "name": "",
          "type": "bytes32"
        }
      ],
      "name": "userAddressRegistrations",
      "outputs": [
        {
          "internalType": "string",
          "name": "githubUserId",
          "type": "string"
        },
        {
          "internalType": "address",
          "name": "ethAddress",
          "type": "address"
        }
      ],
      "stateMutability": "view",
      "type": "function",
      "constant": true
    },
    {
      "inputs": [],
      "name": "userAddressStorage",
      "outputs": [
        {
          "internalType": "contract UserAddressStorage",
          "name": "",
          "type": "address"
        }
      ],
      "stateMutability": "view",
      "type": "function",
      "constant": true
    },
    {
      "inputs": [],
      "name": "versionRecipient",
      "outputs": [
        {
          "internalType": "string",
          "name": "",
          "type": "string"
        }
      ],
      "stateMutability": "view",
      "type": "function",
      "constant": true
    },
    {
      "inputs": [
        {
          "internalType": "address",
          "name": "_forwarder",
          "type": "address"
        }
      ],
      "name": "setTrustedForwarder",
      "outputs": [],
      "stateMutability": "nonpayable",
      "type": "function"
    },
    {
      "inputs": [
        {
          "internalType": "address",
          "name": "_userAddressStorage",
          "type": "address"
        }
      ],
      "name": "setUserAddressStorage",
      "outputs": [],
      "stateMutability": "nonpayable",
      "type": "function"
    },
    {
      "inputs": [
        {
          "internalType": "address",
          "name": "_oracleStorage",
          "type": "address"
        }
      ],
      "name": "setOracleStorage",
      "outputs": [],
      "stateMutability": "nonpayable",
      "type": "function"
    },
    {
      "inputs": [
        {
          "internalType": "address",
          "name": "_depositStorage",
          "type": "address"
        }
      ],
      "name": "setDepositStorage",
      "outputs": [],
      "stateMutability": "nonpayable",
      "type": "function"
    },
    {
      "inputs": [
        {
          "internalType": "address",
          "name": "_octobayGovernor",
          "type": "address"
        }
      ],
      "name": "setOctobayGovernor",
      "outputs": [],
      "stateMutability": "nonpayable",
      "type": "function"
    },
    {
      "inputs": [
        {
          "internalType": "address",
          "name": "_octobayGovNFT",
          "type": "address"
        }
      ],
      "name": "setOctobayGovNFT",
      "outputs": [],
      "stateMutability": "nonpayable",
      "type": "function"
    },
    {
      "inputs": [
        {
          "internalType": "address",
          "name": "_ethUSDPriceFeed",
          "type": "address"
        }
      ],
      "name": "setEthUSDPriceFeed",
      "outputs": [],
      "stateMutability": "nonpayable",
      "type": "function"
    },
    {
      "inputs": [
        {
          "internalType": "address",
          "name": "_oracle",
          "type": "address"
        },
        {
          "internalType": "string",
          "name": "_name",
          "type": "string"
        },
        {
          "internalType": "string[]",
          "name": "_jobNames",
          "type": "string[]"
        },
        {
          "components": [
            {
              "internalType": "bytes32",
              "name": "id",
              "type": "bytes32"
            },
            {
              "internalType": "uint256",
              "name": "fee",
              "type": "uint256"
            }
          ],
          "internalType": "struct OracleStorage.Job[]",
          "name": "_jobs",
          "type": "tuple[]"
        }
      ],
      "name": "addOracle",
      "outputs": [],
      "stateMutability": "nonpayable",
      "type": "function"
    },
    {
      "inputs": [
        {
          "internalType": "address",
          "name": "_oracle",
          "type": "address"
        }
      ],
      "name": "removeOracle",
      "outputs": [],
      "stateMutability": "nonpayable",
      "type": "function"
    },
    {
      "inputs": [
        {
          "internalType": "address",
          "name": "_oracle",
          "type": "address"
        },
        {
          "internalType": "string",
          "name": "_name",
          "type": "string"
        }
      ],
      "name": "changeOracleName",
      "outputs": [],
      "stateMutability": "nonpayable",
      "type": "function"
    },
    {
      "inputs": [
        {
          "internalType": "address",
          "name": "_oracle",
          "type": "address"
        },
        {
          "internalType": "string",
          "name": "_jobName",
          "type": "string"
        },
        {
          "components": [
            {
              "internalType": "bytes32",
              "name": "id",
              "type": "bytes32"
            },
            {
              "internalType": "uint256",
              "name": "fee",
              "type": "uint256"
            }
          ],
          "internalType": "struct OracleStorage.Job",
          "name": "_job",
          "type": "tuple"
        }
      ],
      "name": "addOracleJob",
      "outputs": [],
      "stateMutability": "nonpayable",
      "type": "function"
    },
    {
      "inputs": [
        {
          "internalType": "address",
          "name": "_oracle",
          "type": "address"
        },
        {
          "internalType": "string",
          "name": "_jobName",
          "type": "string"
        }
      ],
      "name": "removeOracleJob",
      "outputs": [],
      "stateMutability": "nonpayable",
      "type": "function"
    },
    {
      "inputs": [
        {
          "internalType": "address",
          "name": "_octobayPaymaster",
          "type": "address"
        }
      ],
      "name": "setPaymaster",
      "outputs": [],
      "stateMutability": "nonpayable",
      "type": "function"
    },
    {
      "inputs": [
        {
          "internalType": "string",
          "name": "_githubUserId",
          "type": "string"
        },
        {
          "internalType": "uint256",
          "name": "_amount",
          "type": "uint256"
        }
      ],
      "name": "deductGasFee",
      "outputs": [],
      "stateMutability": "nonpayable",
      "type": "function"
    },
    {
      "inputs": [
        {
          "internalType": "address",
          "name": "_oracle",
          "type": "address"
        },
        {
          "internalType": "string",
          "name": "_githubUserId",
          "type": "string"
        }
      ],
      "name": "registerUserAddress",
      "outputs": [
        {
          "internalType": "bytes32",
          "name": "requestId",
          "type": "bytes32"
        }
      ],
      "stateMutability": "nonpayable",
      "type": "function"
    },
    {
      "inputs": [
        {
          "internalType": "bytes32",
          "name": "_requestId",
          "type": "bytes32"
        },
        {
          "internalType": "bytes32",
          "name": "_addressName",
          "type": "bytes32"
        }
      ],
      "name": "confirmRegisterUserAddress",
      "outputs": [],
      "stateMutability": "nonpayable",
      "type": "function"
    },
    {
      "inputs": [
        {
          "internalType": "string",
          "name": "_githubUserId",
          "type": "string"
        }
      ],
      "name": "depositEthForGithubUser",
      "outputs": [],
      "stateMutability": "payable",
      "type": "function",
      "payable": true
    },
    {
      "inputs": [
        {
          "internalType": "uint256",
          "name": "_depositId",
          "type": "uint256"
        }
      ],
      "name": "refundUserDeposit",
      "outputs": [],
      "stateMutability": "nonpayable",
      "type": "function"
    },
    {
      "inputs": [
        {
          "internalType": "uint256",
          "name": "_depositId",
          "type": "uint256"
        }
      ],
      "name": "withdrawUserDeposit",
      "outputs": [],
      "stateMutability": "nonpayable",
      "type": "function"
    },
    {
      "inputs": [
        {
          "internalType": "string",
          "name": "_issueId",
          "type": "string"
        },
        {
          "internalType": "contract OctobayGovToken",
          "name": "_govToken",
          "type": "address"
        }
      ],
      "name": "depositAndSetGovTokenForIssue",
      "outputs": [],
      "stateMutability": "payable",
      "type": "function",
      "payable": true
    },
    {
      "inputs": [
        {
          "internalType": "string",
          "name": "_issueId",
          "type": "string"
        },
        {
          "internalType": "contract OctobayGovToken",
          "name": "_govToken",
          "type": "address"
        }
      ],
      "name": "setGovTokenForIssue",
      "outputs": [],
      "stateMutability": "nonpayable",
      "type": "function"
    },
    {
      "inputs": [
        {
          "internalType": "string",
          "name": "_issueId",
          "type": "string"
        }
      ],
      "name": "depositEthForIssue",
      "outputs": [],
      "stateMutability": "payable",
      "type": "function",
      "payable": true
    },
    {
      "inputs": [
        {
          "internalType": "uint256",
          "name": "_depositId",
          "type": "uint256"
        }
      ],
      "name": "refundIssueDeposit",
      "outputs": [],
      "stateMutability": "nonpayable",
      "type": "function"
    },
    {
      "inputs": [
        {
          "internalType": "address",
          "name": "_oracle",
          "type": "address"
        },
        {
          "internalType": "string",
          "name": "_issueId",
          "type": "string"
        }
      ],
      "name": "withdrawIssueDeposit",
      "outputs": [
        {
          "internalType": "bytes32",
          "name": "requestId",
          "type": "bytes32"
        }
      ],
      "stateMutability": "nonpayable",
      "type": "function"
    },
    {
      "inputs": [
        {
          "internalType": "bytes32",
          "name": "_requestId",
          "type": "bytes32"
        }
      ],
      "name": "confirmWithdrawIssueDeposit",
      "outputs": [],
      "stateMutability": "nonpayable",
      "type": "function"
    },
    {
      "inputs": [
        {
          "internalType": "address",
          "name": "_oracle",
          "type": "address"
        },
        {
          "components": [
            {
              "internalType": "bool",
              "name": "isValue",
              "type": "bool"
            },
            {
              "internalType": "string",
              "name": "githubUserId",
              "type": "string"
            },
            {
              "internalType": "string",
              "name": "name",
              "type": "string"
            },
            {
              "internalType": "string",
              "name": "symbol",
              "type": "string"
            },
            {
              "internalType": "string",
              "name": "projectId",
              "type": "string"
            },
            {
              "internalType": "uint16",
              "name": "newProposalShare",
              "type": "uint16"
            },
            {
              "internalType": "uint16",
              "name": "minQuorum",
              "type": "uint16"
            },
            {
              "internalType": "address",
              "name": "creator",
              "type": "address"
            }
          ],
          "internalType": "struct Octobay.NewGovernanceToken",
          "name": "_newToken",
          "type": "tuple"
        }
      ],
      "name": "createGovernanceToken",
      "outputs": [
        {
          "internalType": "bytes32",
          "name": "requestId",
          "type": "bytes32"
        }
      ],
      "stateMutability": "nonpayable",
      "type": "function"
    },
    {
      "inputs": [
        {
          "internalType": "bytes32",
          "name": "_requestId",
          "type": "bytes32"
        },
        {
          "internalType": "bool",
          "name": "_result",
          "type": "bool"
        }
      ],
      "name": "confirmCreateGovernanceToken",
      "outputs": [],
      "stateMutability": "nonpayable",
      "type": "function"
    }
  ],
  "bytecode": "0x6001600590815560c06040526080819052640322e302e360dc1b60a09081526200002d91600a9190620003cb565b503480156200003b57600080fd5b5060405162004923380380620049238339810160408190526200005e9162000485565b60006200006a6200011a565b600080546001600160a01b0319166001600160a01b0383169081178255604051929350917f8be0079c531659141344cd1fd0a4f28419497f9722a3daafe3b4186f6b6457e0908290a350620000bf8862000137565b620000ca8762000159565b620000d586620001b1565b620000e085620001fe565b620000eb846200024b565b620000f68362000298565b6200010182620002e5565b6200010c8162000332565b505050505050505062000548565b6000620001316200037f60201b620029311760201c565b90505b90565b600380546001600160a01b0319166001600160a01b0392909216919091179055565b600780546001600160a01b0319166001600160a01b0383161790556040517fbcb011e6c2b421bcf7f7892a40d76e2a09f136fa40eda7b0d5eaef8aa0eb318390620001a690839062000534565b60405180910390a150565b600b80546001600160a01b0319166001600160a01b0383161790556040517f47a741dd6477ca582acb3b97bf19f307712c5699a5afc355ba935a8706e85bf190620001a690839062000534565b600880546001600160a01b0319166001600160a01b0383161790556040517f2cdcc189927b3cee3e431400dfc309b9d91d01d49c4948245e719258bc67191e90620001a690839062000534565b600d80546001600160a01b0319166001600160a01b0383161790556040517fa7f1cf8dcbcb1fa8421f563a445c32f7539e77aa7ff1f74a1340e6a07f40640290620001a690839062000534565b601080546001600160a01b0319166001600160a01b0383161790556040517f805bc30b9f0485a7b999877abc80591d6a9f19dc80637e66a8c53866c869a56690620001a690839062000534565b600e80546001600160a01b0319166001600160a01b0383161790556040517f9783fc86d55b5bc32eacdb6429d4c74bd160c60186add12c8b9dc2cef3b4dc4890620001a690839062000534565b601180546001600160a01b0319166001600160a01b0383161790556040517f963a4d8ee7ff8b4d9e706dda742b1f940d4fa5fc6a04e86f2b119de5341cbd9190620001a690839062000534565b6000601836108015906200039957506200039933620003b7565b15620003af575060131936013560601c62000134565b503362000134565b6007546001600160a01b0390811691161490565b828054600181600116156101000203166002900490600052602060002090601f016020900481019282601f106200040e57805160ff19168380011785556200043e565b828001600101855582156200043e579182015b828111156200043e57825182559160200191906001019062000421565b506200044c92915062000450565b5090565b5b808211156200044c576000815560010162000451565b80516001600160a01b03811681146200047f57600080fd5b92915050565b600080600080600080600080610100898b031215620004a2578384fd5b620004ae8a8a62000467565b9750620004bf8a60208b0162000467565b9650620004d08a60408b0162000467565b9550620004e18a60608b0162000467565b9450620004f28a60808b0162000467565b9350620005038a60a08b0162000467565b9250620005148a60c08b0162000467565b9150620005258a60e08b0162000467565b90509295985092959890939650565b6001600160a01b0391909116815260200190565b6143cb80620005586000396000f3fe6080604052600436106102455760003560e01c80636ed3aa4211610139578063b0903a2f116100b6578063d792efae1161007a578063d792efae1461068e578063da742228146106ae578063e5c59948146106ce578063f2fde38b146106ee578063f4b90ef71461070e578063fdc85fc41461072157610245565b8063b0903a2f14610611578063b910b63314610631578063bb3c2bfb14610646578063c315fbca14610659578063c4f59d631461067957610245565b8063886c3c89116100fd578063886c3c891461058b5780638da5cb5b146105a0578063968ad381146105b55780639996f186146105e9578063a9d2facd146105fc57610245565b80636ed3aa4214610501578063715018a6146105215780637da0a877146105365780638617fc461461054b57806386d0e6091461056b57610245565b8063486ff0cd116101c7578063576088571161018b5780635760885714610461578063583d789b146104815780635b45ceca146104a15780635f38dace146104c157806360445fb2146104e157610245565b8063486ff0cd146103b2578063532f1325146103d4578063546075da146103f4578063554d108a14610414578063572b6c051461043457610245565b8063420acf3c1161020e578063420acf3c146102f7578063422c546b1461031757806342aaf11b1461034557806345ae77171461036557806348297f591461039257610245565b806283cf111461024a57806324d689141461026c5780632a97fa771461028c5780632bbba336146102ac5780633f98b9c7146102cc575b600080fd5b34801561025657600080fd5b5061026a6102653660046137c1565b610741565b005b34801561027857600080fd5b5061026a610287366004613499565b610ca2565b34801561029857600080fd5b5061026a6102a7366004613499565b610ce3565b3480156102b857600080fd5b5061026a6102c73660046135f4565b610d3a565b3480156102d857600080fd5b506102e1610ddd565b6040516102ee9190613ad6565b60405180910390f35b34801561030357600080fd5b5061026a6103123660046137f0565b610dec565b34801561032357600080fd5b506103376103323660046137a9565b610f00565b6040516102ee929190613f68565b34801561035157600080fd5b5061026a6103603660046134b5565b610fb0565b34801561037157600080fd5b506103856103803660046134b5565b611050565b6040516102ee9190613ee8565b34801561039e57600080fd5b5061026a6103ad366004613507565b6114b5565b3480156103be57600080fd5b506103c761155b565b6040516102ee9190613f55565b3480156103e057600080fd5b5061026a6103ef366004613499565b6115e9565b34801561040057600080fd5b5061026a61040f366004613902565b611627565b34801561042057600080fd5b5061026a61042f3660046137a9565b611672565b34801561044057600080fd5b5061045461044f366004613499565b611885565b6040516102ee9190613e54565b34801561046d57600080fd5b5061038561047c366004613659565b61189c565b34801561048d57600080fd5b5061026a61049c3660046134b5565b611c23565b3480156104ad57600080fd5b5061026a6104bc366004613499565b611c8c565b3480156104cd57600080fd5b506103376104dc3660046137a9565b611cca565b3480156104ed57600080fd5b5061026a6104fc3660046137a9565b611d36565b34801561050d57600080fd5b5061026a61051c366004613499565b611d9d565b34801561052d57600080fd5b5061026a611ddb565b34801561054257600080fd5b506102e1611e5a565b34801561055757600080fd5b5061026a6105663660046137a9565b611e69565b34801561057757600080fd5b5061026a6105863660046138ae565b611e9b565b34801561059757600080fd5b506102e1612011565b3480156105ac57600080fd5b506102e1612020565b3480156105c157600080fd5b506105d56105d03660046137a9565b612030565b6040516102ee989796959493929190613e5f565b61026a6105f736600461386f565b6122b9565b34801561060857600080fd5b506102e1612308565b34801561061d57600080fd5b5061026a61062c366004613499565b612317565b34801561063d57600080fd5b506102e1612355565b61026a6106543660046138ae565b612364565b34801561066557600080fd5b5061026a6106743660046137a9565b61237e565b34801561068557600080fd5b506102e1612431565b34801561069a57600080fd5b5061026a6106a9366004613499565b612440565b3480156106ba57600080fd5b5061026a6106c9366004613499565b61247e565b3480156106da57600080fd5b506103856106e93660046134b5565b6124bc565b3480156106fa57600080fd5b5061026a610709366004613499565b6127e0565b61026a61071c36600461386f565b612896565b34801561072d57600080fd5b5061026a61073c366004613499565b6128cc565b60008281526006602052604090205482906001600160a01b031633146107825760405162461bcd60e51b8152600401610779906141fe565b60405180910390fd5b60008181526006602052604080822080546001600160a01b031916905551829160008051602061437683398151915291a2816107d05760405162461bcd60e51b815260040161077990614091565b6107d86131b5565b60008481526012602090815260409182902082516101008082018552825460ff1615158252600180840180548751600293821615909402600019011691909104601f81018690048602830186019096528582529194929385810193919291908301828280156108885780601f1061085d57610100808354040283529160200191610888565b820191906000526020600020905b81548152906001019060200180831161086b57829003601f168201915b5050509183525050600282810180546040805160206001841615610100026000190190931694909404601f8101839004830285018301909152808452938101939083018282801561091a5780601f106108ef5761010080835404028352916020019161091a565b820191906000526020600020905b8154815290600101906020018083116108fd57829003601f168201915b505050918352505060038201805460408051602060026001851615610100026000190190941693909304601f81018490048402820184019092528181529382019392918301828280156109ae5780601f10610983576101008083540402835291602001916109ae565b820191906000526020600020905b81548152906001019060200180831161099157829003601f168201915b505050918352505060048201805460408051602060026001851615610100026000190190941693909304601f8101849004840282018401909252818152938201939291830182828015610a425780601f10610a1757610100808354040283529160200191610a42565b820191906000526020600020905b815481529060010190602001808311610a2557829003601f168201915b50505091835250506005919091015461ffff808216602084015262010000820416604083015264010000000090046001600160a01b03166060909101528051909150610aa05760405162461bcd60e51b8152600401610779906140e0565b6000848152601260205260408120805460ff1916815590610ac4600183018261320d565b610ad260028301600061320d565b610ae060038301600061320d565b610aee60048301600061320d565b5060050180546001600160c01b031916905560105460e0820151608083015160a084015160c085015160408087015160608801519151630f442c0160e41b81526000976001600160a01b03169663f442c01096610b58969195909491939092909190600401613c75565b602060405180830381600087803b158015610b7257600080fd5b505af1158015610b86573d6000803e3d6000fd5b505050506040513d601f19601f82011682018060405250810190610baa9190613834565b600e5460e0840151604051631be4190560e31b81529293506000926001600160a01b039092169163df20c82891610be5918690600401613b1a565b602060405180830381600087803b158015610bff57600080fd5b505af1158015610c13573d6000803e3d6000fd5b505050506040513d601f19601f82011682018060405250810190610c3791906139b4565b600e5460405163e483abaf60e01b81529192506001600160a01b03169063e483abaf90610c68908490600401613ee8565b600060405180830381600087803b158015610c8257600080fd5b505af1158015610c96573d6000803e3d6000fd5b50505050505050505050565b610caa612963565b6000546001600160a01b03908116911614610cd75760405162461bcd60e51b815260040161077990614109565b610ce081612972565b50565b610ceb612963565b6000546001600160a01b03908116911614610d185760405162461bcd60e51b815260040161077990614109565b600980546001600160a01b0319166001600160a01b0392909216919091179055565b610d42612963565b6000546001600160a01b03908116911614610d6f5760405162461bcd60e51b815260040161077990614109565b6008546040516315ddd19b60e11b81526001600160a01b0390911690632bbba33690610da5908790879087908790600401613c1d565b600060405180830381600087803b158015610dbf57600080fd5b505af1158015610dd3573d6000803e3d6000fd5b5050505050505050565b600d546001600160a01b031681565b60008281526006602052604090205482906001600160a01b03163314610e245760405162461bcd60e51b8152600401610779906141fe565b60008181526006602052604080822080546001600160a01b031916905551829160008051602061437683398151915291a2600b546000848152600c60205260409081902060018101549151632625cd2960e21b81526001600160a01b039384169363989734a493610e9e9392889290911690600401613fa5565b600060405180830381600087803b158015610eb857600080fd5b505af1158015610ecc573d6000803e3d6000fd5b5050506000848152600c602052604081209150610ee9828261320d565b5060010180546001600160a01b0319169055505050565b600c6020908152600091825260409182902080548351601f60026000196101006001861615020190931692909204918201849004840281018401909452808452909291839190830182828015610f975780601f10610f6c57610100808354040283529160200191610f97565b820191906000526020600020905b815481529060010190602001808311610f7a57829003601f168201915b505050600190930154919250506001600160a01b031682565b610fb8612963565b6000546001600160a01b03908116911614610fe55760405162461bcd60e51b815260040161077990614109565b6008546040516342aaf11b60e01b81526001600160a01b03909116906342aaf11b9061101990869086908690600401613b34565b600060405180830381600087803b15801561103357600080fd5b505af1158015611047573d6000803e3d6000fd5b50505050505050565b6040805180820182526005815264636c61696d60d81b60208201526008549151637f7207c360e11b81526000928692916001600160a01b039091169063fee40f86906110a0908590600401613ad6565b60206040518083038186803b1580156110b857600080fd5b505afa1580156110cc573d6000803e3d6000fd5b505050506040513d601f19601f820116820180604052508101906110f0919061378d565b61110c5760405162461bcd60e51b815260040161077990613fd8565b600854604051639dd1e44b60e01b81526001600160a01b0390911690639dd1e44b9061113e9085908590600401613c51565b60206040518083038186803b15801561115657600080fd5b505afa15801561116a573d6000803e3d6000fd5b505050506040513d601f19601f8201168201806040525081019061118e919061378d565b6111aa5760405162461bcd60e51b8152600401610779906141c7565b600d54604051636a6ab0e960e01b81526000916001600160a01b031690636a6ab0e9906111dd9089908990600401613ef1565b60206040518083038186803b1580156111f557600080fd5b505afa158015611209573d6000803e3d6000fd5b505050506040513d601f19601f8201168201806040525081019061122d9190613850565b600181111561123857fe5b146112555760405162461bcd60e51b81526004016107799061419b565b600854604051632ed20a2960e21b815260009182916001600160a01b039091169063bb4828a49061128a908b90600401613d3d565b604080518083038186803b1580156112a157600080fd5b505afa1580156112b5573d6000803e3d6000fd5b505050506040513d601f19601f820116820180604052508101906112d99190613811565b915091506112e5613251565b6112f78330632aa6884560e11b6129c8565b604080518082018252600c81526b19da5d1a1d58955cd95c925960a21b6020820152600b54915163c155f9bd60e01b81529293506113ab9290916001600160a01b03169063c155f9bd9061134f903390600401613ad6565b60006040518083038186803b15801561136757600080fd5b505afa15801561137b573d6000803e3d6000fd5b505050506040513d6000823e601f3d908101601f191682016040526113a3919081019061394b565b8391906129ed565b61140e604051806040016040528060078152602001661a5cdcdd59525960ca1b81525089898080601f0160208091040260200160405190810160405280939291908181526020018383808284376000920191909152508694939250506129ed9050565b611419898284612a0b565b6040805160606020601f8c01819004028201810183529181018a81529298509182918b908b9081908501838280828437600092018290525093855250503360209384015250888152600f82526040902082518051919261147e92849290910190613286565b5060209190910151600190910180546001600160a01b0319166001600160a01b039092169190911790555093979650505050505050565b6114bd612963565b6000546001600160a01b039081169116146114ea5760405162461bcd60e51b815260040161077990614109565b6008546040516348297f5960e01b81526001600160a01b03909116906348297f59906115229088908890889088908890600401613b59565b600060405180830381600087803b15801561153c57600080fd5b505af1158015611550573d6000803e3d6000fd5b505050505050505050565b600a805460408051602060026001851615610100026000190190941693909304601f810184900484028201840190925281815292918301828280156115e15780601f106115b6576101008083540402835291602001916115e1565b820191906000526020600020905b8154815290600101906020018083116115c457829003601f168201915b505050505081565b6115f1612963565b6000546001600160a01b0390811691161461161e5760405162461bcd60e51b815260040161077990614109565b610ce081612b4a565b6009546001600160a01b0316331461163e57600080fd5b600d54604051632a303aed60e11b81526001600160a01b039091169063546075da9061101990869086908690600401613f31565b60008181526006602052604090205481906001600160a01b031633146116aa5760405162461bcd60e51b8152600401610779906141fe565b60008181526006602052604080822080546001600160a01b031916905551829160008051602061437683398151915291a2600d546000838152600f602052604080822060018101549151632007557f60e21b815292936001600160a01b039081169363801d55fc936117229392169190600401613cde565b602060405180830381600087803b15801561173c57600080fd5b505af1158015611750573d6000803e3d6000fd5b505050506040513d601f19601f8201168201806040525081019061177491906139b4565b6010546000858152600f6020526040908190206001810154600d549251632512be9360e01b81529495506001600160a01b03938416946306d6bda794918216938793921691632512be93916117cc9190600401613f92565b60206040518083038186803b1580156117e457600080fd5b505afa1580156117f8573d6000803e3d6000fd5b505050506040513d601f19601f8201168201806040525081019061181c9190613834565b6040518463ffffffff1660e01b815260040161183a93929190613e31565b600060405180830381600087803b15801561185457600080fd5b505af1158015611868573d6000803e3d6000fd5b5050506000848152600f602052604081209150610ee9828261320d565b6007546001600160a01b038281169116145b919050565b604080518082018252600f81526e0636865636b2d6f776e65727368697608c1b60208201526008549151637f7207c360e11b81526000928592916001600160a01b039091169063fee40f86906118f6908590600401613ad6565b60206040518083038186803b15801561190e57600080fd5b505afa158015611922573d6000803e3d6000fd5b505050506040513d601f19601f82011682018060405250810190611946919061378d565b6119625760405162461bcd60e51b815260040161077990613fd8565b600854604051639dd1e44b60e01b81526001600160a01b0390911690639dd1e44b906119949085908590600401613c51565b60206040518083038186803b1580156119ac57600080fd5b505afa1580156119c0573d6000803e3d6000fd5b505050506040513d601f19601f820116820180604052508101906119e4919061378d565b611a005760405162461bcd60e51b8152600401610779906141c7565b600854604051632ed20a2960e21b815260009182916001600160a01b039091169063bb4828a490611a35908a90600401613d02565b604080518083038186803b158015611a4c57600080fd5b505afa158015611a60573d6000803e3d6000fd5b505050506040513d601f19601f82011682018060405250810190611a849190613811565b91509150611a90613251565b611aa183306283cf1160e01b6129c8565b9050611ae06040518060400160405280600c81526020016b19da5d1a1d58955cd95c925960a21b8152508860200151836129ed9092919063ffffffff16565b6040805180820190915260098152681c995c1bd3dc99d25960ba1b60208201526080880151611b109183916129ed565b611b1b888284612a0b565b3360e089015260008181526012602090815260409091208951815460ff1916901515178155818a015180519399508a939192611b5f92600185019290910190613286565b5060408201518051611b7b916002840191602090910190613286565b5060608201518051611b97916003840191602090910190613286565b5060808201518051611bb3916004840191602090910190613286565b5060a0820151600591909101805460c084015160e09094015161ffff1990911661ffff9384161763ffff0000191662010000939094169290920292909217640100000000600160c01b0319166401000000006001600160a01b039092169190910217905550939695505050505050565b611c2b612963565b6000546001600160a01b03908116911614611c585760405162461bcd60e51b815260040161077990614109565b60085460405163583d789b60e01b81526001600160a01b039091169063583d789b9061101990869086908690600401613b34565b611c94612963565b6000546001600160a01b03908116911614611cc15760405162461bcd60e51b815260040161077990614109565b610ce081612b95565b600f6020908152600091825260409182902080548351601f60026000196101006001861615020190931692909204918201849004840281018401909452808452909291839190830182828015610f975780601f10610f6c57610100808354040283529160200191610f97565b600d54604051634c7ad98160e11b81526001600160a01b03909116906398f5b30290611d689084903390600401614271565b600060405180830381600087803b158015611d8257600080fd5b505af1158015611d96573d6000803e3d6000fd5b5050505050565b611da5612963565b6000546001600160a01b03908116911614611dd25760405162461bcd60e51b815260040161077990614109565b610ce081612be0565b611de3612963565b6000546001600160a01b03908116911614611e105760405162461bcd60e51b815260040161077990614109565b600080546040516001600160a01b03909116907f8be0079c531659141344cd1fd0a4f28419497f9722a3daafe3b4186f6b6457e0908390a3600080546001600160a01b0319169055565b6007546001600160a01b031681565b600d546040516363e30a7d60e11b81526001600160a01b039091169063c7c614fa90611d689084903390600401614271565b601054604051638f90df9560e01b81526001600160a01b0390911690638f90df9590611ecb908490600401613ad6565b60006040518083038186803b158015611ee357600080fd5b505afa158015611ef7573d6000803e3d6000fd5b505050506040513d6000823e601f3d908101601f19168201604052611f1f919081019061394b565b51611f3c5760405162461bcd60e51b815260040161077990614246565b600e5460405163e7957c3560e01b81526001600160a01b039091169063e7957c3590611f719033908590600290600401613aea565b60206040518083038186803b158015611f8957600080fd5b505afa158015611f9d573d6000803e3d6000fd5b505050506040513d601f19601f82011682018060405250810190611fc1919061378d565b611fdd5760405162461bcd60e51b81526004016107799061413e565b600d546040516386d0e60960e01b81526001600160a01b03909116906386d0e6099061101990869086908690600401613f05565b6008546001600160a01b031681565b6000546001600160a01b03165b90565b6012602090815260009182526040918290208054600180830180548651600261010094831615949094026000190190911692909204601f810186900486028301860190965285825260ff9092169492939092908301828280156120d45780601f106120a9576101008083540402835291602001916120d4565b820191906000526020600020905b8154815290600101906020018083116120b757829003601f168201915b50505060028085018054604080516020601f60001961010060018716150201909416959095049283018590048502810185019091528181529596959450909250908301828280156121665780601f1061213b57610100808354040283529160200191612166565b820191906000526020600020905b81548152906001019060200180831161214957829003601f168201915b5050505060038301805460408051602060026001851615610100026000190190941693909304601f81018490048402820184019092528181529495949350908301828280156121f65780601f106121cb576101008083540402835291602001916121f6565b820191906000526020600020905b8154815290600101906020018083116121d957829003601f168201915b5050505060048301805460408051602060026001851615610100026000190190941693909304601f81018490048402820184019092528181529495949350908301828280156122865780601f1061225b57610100808354040283529160200191612286565b820191906000526020600020905b81548152906001019060200180831161226957829003601f168201915b5050506005909301549192505061ffff80821691620100008104909116906001600160a01b036401000000009091041688565b600d54604051634f6e037760e11b81526001600160a01b0390911690639edc06ee9034906122ef90869086903390600401613f05565b6000604051808303818588803b15801561103357600080fd5b6010546001600160a01b031681565b61231f612963565b6000546001600160a01b0390811691161461234c5760405162461bcd60e51b815260040161077990614109565b610ce081612c2b565b600e546001600160a01b031681565b61236e8383612896565b612379838383611e9b565b505050565b600d54600b5460405163c155f9bd60e01b81526001600160a01b039283169263e14c375f92859233929091169063c155f9bd906123bf908490600401613ad6565b60006040518083038186803b1580156123d757600080fd5b505afa1580156123eb573d6000803e3d6000fd5b505050506040513d6000823e601f3d908101601f19168201604052612413919081019061394b565b6040518463ffffffff1660e01b8152600401611d6893929190614288565b600b546001600160a01b031681565b612448612963565b6000546001600160a01b039081169116146124755760405162461bcd60e51b815260040161077990614109565b610ce081612c76565b612486612963565b6000546001600160a01b039081169116146124b35760405162461bcd60e51b815260040161077990614109565b610ce081612cc1565b6040805180820182526008808252673932b3b4b9ba32b960c11b6020830152549151637f7207c360e11b81526000928692916001600160a01b039091169063fee40f869061250e908590600401613ad6565b60206040518083038186803b15801561252657600080fd5b505afa15801561253a573d6000803e3d6000fd5b505050506040513d601f19601f8201168201806040525081019061255e919061378d565b61257a5760405162461bcd60e51b815260040161077990613fd8565b600854604051639dd1e44b60e01b81526001600160a01b0390911690639dd1e44b906125ac9085908590600401613c51565b60206040518083038186803b1580156125c457600080fd5b505afa1580156125d8573d6000803e3d6000fd5b505050506040513d601f19601f820116820180604052508101906125fc919061378d565b6126185760405162461bcd60e51b8152600401610779906141c7565b600854604051632ed20a2960e21b815260009182916001600160a01b039091169063bb4828a49061264d908b90600401613d6e565b604080518083038186803b15801561266457600080fd5b505afa158015612678573d6000803e3d6000fd5b505050506040513d601f19601f8201168201806040525081019061269c9190613811565b915091506126a8613251565b6126ba8330631082b3cf60e21b6129c8565b90506127246040518060400160405280600c81526020016b19da5d1a1d58955cd95c925960a21b81525089898080601f0160208091040260200160405190810160405280939291908181526020018383808284376000920191909152508694939250506129ed9050565b61275a6040518060400160405280600a8152602001696574684164647265737360b01b8152506113a3612755612963565b612d0c565b612765898284612a0b565b6040805160606020601f8c01819004028201810183529181018a81529298509182918b908b90819085018382808284376000920191909152505050908252506020016127af612963565b6001600160a01b031690526000878152600c6020908152604090912082518051919261147e92849290910190613286565b6127e8612963565b6000546001600160a01b039081169116146128155760405162461bcd60e51b815260040161077990614109565b6001600160a01b03811661283b5760405162461bcd60e51b815260040161077990614008565b600080546040516001600160a01b03808516939216917f8be0079c531659141344cd1fd0a4f28419497f9722a3daafe3b4186f6b6457e091a3600080546001600160a01b0319166001600160a01b0392909216919091179055565b600d5460405163e54f54a960e01b81526001600160a01b039091169063e54f54a99034906122ef90869086903390600401613f05565b6128d4612963565b6000546001600160a01b039081169116146129015760405162461bcd60e51b815260040161077990614109565b600854604051633f7217f160e21b81526001600160a01b039091169063fdc85fc490611d68908490600401613ad6565b600060183610801590612948575061294833611885565b1561295c575060131936013560601c61202d565b503361202d565b600061296d612931565b905090565b600d80546001600160a01b0319166001600160a01b0383161790556040517fa7f1cf8dcbcb1fa8421f563a445c32f7539e77aa7ff1f74a1340e6a07f406402906129bd908390613ad6565b60405180910390a150565b6129d0613251565b6129d8613251565b6129e481868686612def565b95945050505050565b60808301516129fc9083612e2c565b60808301516123799082612e2c565b600030600554604051602001612a22929190613ab4565b60408051808303601f19018152918152815160209283012060055460608701526000818152600690935281832080546001600160a01b0319166001600160a01b038916179055905190925082917fb5e6e01e79f91267dc17b4e6314d5d4d03593d2ceee0fbb452b750bd70ea5af991a26003546001600160a01b0316634000aea08584612aae87612e43565b6040518463ffffffff1660e01b8152600401612acc93929190613e0a565b602060405180830381600087803b158015612ae657600080fd5b505af1158015612afa573d6000803e3d6000fd5b505050506040513d601f19601f82011682018060405250810190612b1e919061378d565b612b3a5760405162461bcd60e51b81526004016107799061404e565b6005805460010190559392505050565b600880546001600160a01b0319166001600160a01b0383161790556040517f2cdcc189927b3cee3e431400dfc309b9d91d01d49c4948245e719258bc67191e906129bd908390613ad6565b601080546001600160a01b0319166001600160a01b0383161790556040517f805bc30b9f0485a7b999877abc80591d6a9f19dc80637e66a8c53866c869a566906129bd908390613ad6565b600b80546001600160a01b0319166001600160a01b0383161790556040517f47a741dd6477ca582acb3b97bf19f307712c5699a5afc355ba935a8706e85bf1906129bd908390613ad6565b600e80546001600160a01b0319166001600160a01b0383161790556040517f9783fc86d55b5bc32eacdb6429d4c74bd160c60186add12c8b9dc2cef3b4dc48906129bd908390613ad6565b601180546001600160a01b0319166001600160a01b0383161790556040517f963a4d8ee7ff8b4d9e706dda742b1f940d4fa5fc6a04e86f2b119de5341cbd91906129bd908390613ad6565b600780546001600160a01b0319166001600160a01b0383161790556040517fbcb011e6c2b421bcf7f7892a40d76e2a09f136fa40eda7b0d5eaef8aa0eb3183906129bd908390613ad6565b60606001600160a01b03821680612d3c5750506040805180820190915260018152600360fc1b6020820152611897565b8060005b8115612d5457600101600a82049150612d40565b6060816001600160401b0381118015612d6c57600080fd5b506040519080825280601f01601f191660200182016040528015612d97576020820181803683370190505b50905060001982015b8415612de557600a850660300160f81b82828060019003935081518110612dc357fe5b60200101906001600160f81b031916908160001a905350600a85049450612da0565b5095945050505050565b612df7613251565b612e078560800151610100612ebf565b50509183526001600160a01b031660208301526001600160e01b031916604082015290565b612e398260038351612eff565b6123798282612fd8565b6060634042994660e01b60008084600001518560200151866040015187606001516001896080015160000151604051602401612e86989796959493929190613da2565b60408051601f198184030181529190526020810180516001600160e01b03166001600160e01b0319909316929092179091529050919050565b612ec7613304565b6020820615612edc5760208206602003820191505b506020808301829052604080518085526000815283019091019052815b92915050565b60178111612f2057612f1a8360e0600585901b168317612ff9565b50612379565b60ff8111612f4a57612f3d836018611fe0600586901b1617612ff9565b50612f1a83826001613011565b61ffff8111612f7557612f68836019611fe0600586901b1617612ff9565b50612f1a83826002613011565b63ffffffff8111612fa257612f9583601a611fe0600586901b1617612ff9565b50612f1a83826004613011565b6001600160401b03811161237957612fc583601b611fe0600586901b1617612ff9565b50612fd283826008613011565b50505050565b612fe0613304565b612ff283846000015151848551613032565b9392505050565b613001613304565b612ff283846000015151846130de565b613019613304565b61302a848560000151518585613129565b949350505050565b61303a613304565b825182111561304857600080fd5b84602001518285011115613072576130728561306a8760200151878601613187565b60020261319e565b6000808651805187602083010193508088870111156130915787860182525b505050602084015b602084106130b85780518252601f199093019260209182019101613099565b51815160001960208690036101000a019081169019919091161790525083949350505050565b6130e6613304565b836020015183106131025761310284856020015160020261319e565b83518051602085830101848153508085141561311f576001810182525b5093949350505050565b613131613304565b8460200151848301111561314e5761314e8585840160020261319e565b60006001836101000a03905085518386820101858319825116178152508051848701111561317c5783860181525b509495945050505050565b600081831115613198575081612ef9565b50919050565b81516131aa8383612ebf565b50612fd28382612fd8565b60405180610100016040528060001515815260200160608152602001606081526020016060815260200160608152602001600061ffff168152602001600061ffff16815260200160006001600160a01b031681525090565b50805460018160011615610100020316600290046000825580601f106132335750610ce0565b601f016020900490600052602060002090810190610ce0919061331e565b6040805160a081018252600080825260208201819052918101829052606081019190915260808101613281613304565b905290565b828054600181600116156101000203166002900490600052602060002090601f016020900481019282601f106132c757805160ff19168380011785556132f4565b828001600101855582156132f4579182015b828111156132f45782518255916020019190600101906132d9565b5061330092915061331e565b5090565b604051806040016040528060608152602001600081525090565b5b80821115613300576000815560010161331f565b8035612ef981614352565b600082601f83011261334e578081fd5b813561336161335c826142d8565b6142b2565b818152915060208083019084810160408085028701830188101561338457600080fd5b60005b858110156133ab576133998984613456565b85529383019391810191600101613387565b50505050505092915050565b8035612ef981614367565b60008083601f8401126133d3578182fd5b5081356001600160401b038111156133e9578182fd5b60208301915083602082850101111561340157600080fd5b9250929050565b600082601f830112613418578081fd5b813561342661335c826142f7565b915080825283602082850101111561343d57600080fd5b8060208401602084013760009082016020015292915050565b600060408284031215613467578081fd5b61347160406142b2565b9050813581526020820135602082015292915050565b803561ffff81168114612ef957600080fd5b6000602082840312156134aa578081fd5b8135612ff281614352565b6000806000604084860312156134c9578182fd5b83356134d481614352565b925060208401356001600160401b038111156134ee578283fd5b6134fa868287016133c2565b9497909650939450505050565b60008060008060006080868803121561351e578081fd5b853561352981614352565b94506020868101356001600160401b0380821115613545578384fd5b6135518a838b016133c2565b90975095506040890135915080821115613569578384fd5b818901915089601f83011261357c578384fd5b813561358a61335c826142d8565b81815284810190848601875b848110156135bf576135ad8f8984358a0101613408565b84529287019290870190600101613596565b5090975050505060608901359250808311156135d9578384fd5b50506135e78882890161333e565b9150509295509295909350565b60008060008060808587031215613609578384fd5b843561361481614352565b935060208501356001600160401b0381111561362e578384fd5b61363a878288016133c2565b909450925061364e90508660408701613456565b905092959194509250565b6000806040838503121561366b578182fd5b823561367681614352565b915060208301356001600160401b0380821115613691578283fd5b81850191506101008083880312156136a7578384fd5b6136b0816142b2565b90506136bc87846133b7565b81526020830135828111156136cf578485fd5b6136db88828601613408565b6020830152506040830135828111156136f2578485fd5b6136fe88828601613408565b604083015250606083013582811115613715578485fd5b61372188828601613408565b606083015250608083013582811115613738578485fd5b61374488828601613408565b6080830152506137578760a08501613487565b60a08201526137698760c08501613487565b60c082015261377b8760e08501613333565b60e08201528093505050509250929050565b60006020828403121561379e578081fd5b8151612ff281614367565b6000602082840312156137ba578081fd5b5035919050565b600080604083850312156137d3578182fd5b8235915060208301356137e581614367565b809150509250929050565b60008060408385031215613802578182fd5b50508035926020909101359150565b60008060408385031215613823578182fd5b505080516020909101519092909150565b600060208284031215613845578081fd5b8151612ff281614352565b600060208284031215613861578081fd5b815160028110612ff2578182fd5b60008060208385031215613881578182fd5b82356001600160401b03811115613896578283fd5b6138a2858286016133c2565b90969095509350505050565b6000806000604084860312156138c2578081fd5b83356001600160401b038111156138d7578182fd5b6138e3868287016133c2565b90945092505060208401356138f781614352565b809150509250925092565b600080600060408486031215613916578081fd5b83356001600160401b0381111561392b578182fd5b613937868287016133c2565b909790965060209590950135949350505050565b60006020828403121561395c578081fd5b81516001600160401b03811115613971578182fd5b8201601f81018413613981578182fd5b805161398f61335c826142f7565b8181528560208385010111156139a3578384fd5b6129e4826020830160208601614326565b6000602082840312156139c5578081fd5b5051919050565b600081518084526139e4816020860160208601614326565b601f01601f19169290920160200192915050565b60008284528282602086013780602084860101526020601f19601f85011685010190509392505050565b60008154600180821660008114613a405760018114613a5e57613a9c565b60028304607f16865260ff1983166020870152604086019350613a9c565b60028304808752613a6e8661431a565b60005b82811015613a925781546020828b0101528482019150602081019050613a71565b8801602001955050505b50505092915050565b80518252602090810151910152565b60609290921b6bffffffffffffffffffffffff19168252601482015260340190565b6001600160a01b0391909116815260200190565b6001600160a01b038481168252831660208201526060810160048310613b0c57fe5b826040830152949350505050565b6001600160a01b0392831681529116602082015260400190565b6001600160a01b03841681526040602082018190526000906129e490830184866139f8565b6001600160a01b038616815260806020808301829052600091613b7f90840187896139f8565b604084820381860152818751808452848401915084858202850101858a01875b83811015613bcd57601f19878403018552613bbb8383516139cc565b94880194925090870190600101613b9f565b5050878103606089015288518082529086019450915050838701855b82811015613c0c57613bfc858351613aa5565b9383019390850190600101613be9565b50929b9a5050505050505050505050565b6001600160a01b0385168152608060208201819052600090613c4290830185876139f8565b90506129e46040830184613aa5565b6001600160a01b038316815260406020820181905260009061302a908301846139cc565b6001600160a01b038716815260c060208201819052600090613c99908301886139cc565b61ffff8781166040850152861660608401528281036080840152613cbd81866139cc565b905082810360a0840152613cd181856139cc565b9998505050505050505050565b6001600160a01b038316815260406020820181905260009061302a90830184613a22565b6001600160a01b03919091168152604060208201819052600f908201526e0636865636b2d6f776e65727368697608c1b606082015260800190565b6001600160a01b0391909116815260406020820181905260059082015264636c61696d60d81b606082015260800190565b6001600160a01b03919091168152604060208201819052600890820152673932b3b4b9ba32b960c11b606082015260800190565b6001600160a01b0389811682526020820189905260408201889052861660608201526001600160e01b03198516608082015260a0810184905260c0810183905261010060e08201819052600090613dfb838201856139cc565b9b9a5050505050505050505050565b600060018060a01b0385168252836020830152606060408301526129e460608301846139cc565b6001600160a01b0393841681526020810192909252909116604082015260600190565b901515815260200190565b60006101008a15158352806020840152613e7b8184018b6139cc565b90508281036040840152613e8f818a6139cc565b90508281036060840152613ea381896139cc565b90508281036080840152613eb781886139cc565b61ffff96871660a08501529490951660c0830152506001600160a01b039190911660e0909101529695505050505050565b90815260200190565b60006020825261302a6020830184866139f8565b600060408252613f196040830185876139f8565b905060018060a01b0383166020830152949350505050565b600060408252613f456040830185876139f8565b9050826020830152949350505050565b600060208252612ff260208301846139cc565b600060408252613f7b60408301856139cc565b905060018060a01b03831660208301529392505050565b600060208252612ff26020830184613a22565b600060608252613fb86060830186613a22565b6020830194909452506001600160a01b0391909116604090910152919050565b60208082526016908201527527b930b1b632903237b2b9903737ba1032bc34b9ba1760511b604082015260600190565b60208082526026908201527f4f776e61626c653a206e6577206f776e657220697320746865207a65726f206160408201526564647265737360d01b606082015260800190565b60208082526023908201527f756e61626c6520746f207472616e73666572416e6443616c6c20746f206f7261604082015262636c6560e81b606082015260800190565b6020808252602f908201527f55736572206973206e6f74206f776e6572206f66206f7267616e697a6174696f60408201526e6e206f72207265706f7369746f727960881b606082015260800190565b6020808252600f908201526e139bc81cdd58da081c995c5d595cdd608a1b604082015260600190565b6020808252818101527f4f776e61626c653a2063616c6c6572206973206e6f7420746865206f776e6572604082015260600190565b6020808252603d908201527f596f7520646f6e27742068617665207065726d697373696f6e20746f2073657460408201527f20676f7665726e616e636520746f6b656e7320666f7220697373756573000000606082015260800190565b60208082526012908201527124b9b9bab29034b9903737ba1027a822a71760711b604082015260600190565b6020808252601a908201527f4f7261636c65206a6f6220646f6573206e6f742065786973742e000000000000604082015260600190565b60208082526028908201527f536f75726365206d75737420626520746865206f7261636c65206f6620746865604082015267081c995c5d595cdd60c21b606082015260800190565b60208082526011908201527024b73b30b634b2102fb3b7bb2a37b5b2b760791b604082015260600190565b9182526001600160a01b0316602082015260400190565b8381526001600160a01b03831660208201526060604082018190526000906129e4908301846139cc565b6040518181016001600160401b03811182821017156142d057600080fd5b604052919050565b60006001600160401b038211156142ed578081fd5b5060209081020190565b60006001600160401b0382111561430c578081fd5b50601f01601f191660200190565b60009081526020902090565b60005b83811015614341578181015183820152602001614329565b83811115612fd25750506000910152565b6001600160a01b0381168114610ce057600080fd5b8015158114610ce057600080fdfe7cc135e0cebb02c3480ae5d74d377283180a2601f8f644edf7987b009316c63aa2646970667358221220a079a7efc86186d14800bfa02d57d8759f219b43c42375bf17ff157a5c0f259264736f6c634300060c0033",
  "immutableReferences": {},
  "source": "// SPDX-License-Identifier: MIT\npragma solidity ^0.6.0;\npragma experimental ABIEncoderV2;\n\nimport '@openzeppelin/contracts/access/Ownable.sol';\nimport '@chainlink/contracts/src/v0.6/ChainlinkClient.sol';\nimport \"@chainlink/contracts/src/v0.6/interfaces/AggregatorV3Interface.sol\";\nimport '@opengsn/gsn/contracts/BaseRelayRecipient.sol';\nimport './UserAddressStorage.sol';\nimport './OracleStorage.sol';\nimport './OctobayGovToken.sol';\nimport './OctobayGovernor.sol';\nimport './OctobayGovNFT.sol';\nimport './DepositStorage.sol';\n\ncontract Octobay is Ownable, ChainlinkClient, BaseRelayRecipient {\n\n    constructor(\n        address _link,\n        address _forwarder,\n        address _userAddressStorage,\n        address _oracleStorage,\n        address _depositStorage,\n        address _octobayGovernor,\n        address _octobayGovNFT,\n        address _ethUSDPriceFeed\n    ) public {\n        setChainlinkToken(_link);\n        _setTrustedForwarder(_forwarder); // GSN trusted forwarder\n        _setUserAddressStorage(_userAddressStorage);\n        _setOracleStorage(_oracleStorage);\n        _setDepositStorage(_depositStorage);\n        _setOctobayGovernor(_octobayGovernor);\n        _setOctobayGovNFT(_octobayGovNFT);\n        _setEthUSDPriceFeed(_ethUSDPriceFeed);\n    }\n\n    // ------------ Set contract addresses ------------ //\n\n    event SetTrustedForwarderEvent(address forwarder);\n    event SetUserAddressStorageEvent(address addressStorage);\n    event SetOracleStorageEvent(address oracleStorage);\n    event SetDepositStorageEvent(address depositStorage);\n    event SetOctobayGovernorEvent(address octobayGovernor);\n    event SetOctobayGovNFTEvent(address octobayGovNFT);\n    event SetEthUSDPriceFeedEvent(address ethUsdPriceFeed);\n\n    function setTrustedForwarder(address _forwarder) external onlyOwner {\n        _setTrustedForwarder(_forwarder);\n    }\n\n    function setUserAddressStorage(address _userAddressStorage) external onlyOwner {\n        _setUserAddressStorage(_userAddressStorage);\n    }\n\n    function setOracleStorage(address _oracleStorage) external onlyOwner {\n        _setOracleStorage(_oracleStorage);\n    }\n\n    function setDepositStorage(address _depositStorage) external onlyOwner {\n        _setDepositStorage(_depositStorage);\n    }\n\n    function setOctobayGovernor(address _octobayGovernor) external onlyOwner {\n        _setOctobayGovernor(_octobayGovernor);\n    }\n\n    function setOctobayGovNFT(address _octobayGovNFT) external onlyOwner {\n        _setOctobayGovNFT(_octobayGovNFT);\n    }                    \n\n    function setEthUSDPriceFeed(address _ethUSDPriceFeed) external onlyOwner {\n        _setEthUSDPriceFeed(_ethUSDPriceFeed);\n    }\n\n    function _setTrustedForwarder(address _forwarder) internal {\n        trustedForwarder = _forwarder;\n        emit SetTrustedForwarderEvent(_forwarder);\n    }\n\n    function _setUserAddressStorage(address _userAddressStorage) internal {\n        userAddressStorage = UserAddressStorage(_userAddressStorage);\n        emit SetUserAddressStorageEvent(_userAddressStorage);\n    }\n\n    function _setOracleStorage(address _oracleStorage) internal {\n        oracleStorage = OracleStorage(_oracleStorage);\n        emit SetOracleStorageEvent(_oracleStorage);\n    }\n\n    function _setDepositStorage(address _depositStorage) internal {\n        depositStorage = DepositStorage(_depositStorage);\n        emit SetDepositStorageEvent(_depositStorage);\n    }\n\n    function _setOctobayGovernor(address _octobayGovernor) internal {\n        octobayGovernor = OctobayGovernor(_octobayGovernor);\n        emit SetOctobayGovernorEvent(_octobayGovernor);\n    }\n\n    function _setOctobayGovNFT(address _octobayGovNFT) internal {\n        octobayGovNFT = OctobayGovNFT(_octobayGovNFT);\n        emit SetOctobayGovNFTEvent(_octobayGovNFT);\n    }                    \n\n    function _setEthUSDPriceFeed(address _ethUSDPriceFeed) internal {\n        ethUSDPriceFeed = AggregatorV3Interface(_ethUSDPriceFeed);\n        emit SetEthUSDPriceFeedEvent(_ethUSDPriceFeed);\n    }\n\n    // ------------ Oracles ------------ //\n    \n    //TODO: These methods are all wrappers, can we call OracleStorage directly?\n\n    OracleStorage public oracleStorage;\n\n    modifier oracleHandlesJob(address _oracle, string memory _jobName) {\n        require(oracleStorage.oracleExists(_oracle), \"Oracle does not exist.\");\n        require(oracleStorage.oracleJobExists(_oracle, _jobName), \"Oracle job does not exist.\");\n        _;\n    }\n\n    function addOracle(\n        address _oracle,\n        string calldata _name,\n        string[] memory _jobNames,\n        OracleStorage.Job[] memory _jobs\n    ) external onlyOwner {\n        oracleStorage.addOracle(_oracle, _name, _jobNames, _jobs);\n    }\n\n    function removeOracle(address _oracle) external onlyOwner {\n        oracleStorage.removeOracle(_oracle);\n    }\n\n    function changeOracleName(address _oracle, string calldata _name) external onlyOwner {\n        oracleStorage.changeOracleName(_oracle, _name);\n    }\n\n    function addOracleJob(\n        address _oracle,\n        string calldata _jobName,\n        OracleStorage.Job memory _job\n    ) external onlyOwner {\n        oracleStorage.addOracleJob(_oracle, _jobName, _job);\n    }\n\n    function removeOracleJob(address _oracle, string calldata _jobName) external onlyOwner {\n        oracleStorage.removeOracleJob(_oracle, _jobName);\n    }\n\n    // ------------ GSN ------------ //\n\n\n    address octobayPaymaster;\n\n    function setPaymaster(address _octobayPaymaster) external onlyOwner {\n        octobayPaymaster = _octobayPaymaster;\n    }\n\n    function _msgSender() internal override(Context, BaseRelayRecipient)\n    view returns (address payable) {\n        return BaseRelayRecipient._msgSender();\n    }\n\n    function _msgData() internal override(Context, BaseRelayRecipient)\n    view returns (bytes memory ret) {\n        return BaseRelayRecipient._msgData();\n    }\n\n    string public override versionRecipient = '2.0.0'; // GSN version\n\n    function deductGasFee(string calldata _githubUserId, uint256 _amount)\n        external\n    {\n        // only paymaster, cause paymaster pays for gas fee on behalf of user\n        require(msg.sender == octobayPaymaster);\n        depositStorage.deductGasFee(_githubUserId, _amount);\n    }\n\n\n\n\n\n    // ------------ REGISTRATION ------------ //\n\n\n    UserAddressStorage public userAddressStorage;\n\n    struct UserAddressRegistration {\n        string githubUserId;\n        address ethAddress;\n    }\n\n    mapping(bytes32 => UserAddressRegistration) public userAddressRegistrations;\n\n    function registerUserAddress(\n        address _oracle,\n        string calldata _githubUserId\n    ) public oracleHandlesJob(_oracle, 'register') returns(bytes32 requestId) {\n        (bytes32 jobId, uint256 jobFee) = oracleStorage.getOracleJob(_oracle, 'register');\n        Chainlink.Request memory request =\n            buildChainlinkRequest(\n                jobId,\n                address(this),\n                this.confirmRegisterUserAddress.selector\n            );\n        request.add('githubUserId', _githubUserId);\n        request.add('ethAddress', addressToIntString(_msgSender()));\n        requestId = sendChainlinkRequestTo(_oracle, request, jobFee);\n\n        userAddressRegistrations[requestId] = UserAddressRegistration(_githubUserId, _msgSender());\n    }\n\n    function confirmRegisterUserAddress(bytes32 _requestId, bytes32 _addressName)\n        public\n        recordChainlinkFulfillment(_requestId)\n    {\n        userAddressStorage.addUserAddress(\n            userAddressRegistrations[_requestId].githubUserId,\n            _addressName,\n            userAddressRegistrations[_requestId].ethAddress\n        );\n\n        delete userAddressRegistrations[_requestId];\n    }\n\n    // ------------ USER DEPOSITS ------------ //\n\n    DepositStorage public depositStorage;\n\n    function depositEthForGithubUser(string calldata _githubUserId)\n        external\n        payable\n    {\n        // Forwards eth payment to depositStorage to hold\n        depositStorage.depositEthForGithubUser{value: msg.value}(_githubUserId, msg.sender);\n    }\n\n    function refundUserDeposit(uint256 _depositId) external {\n        depositStorage.refundUserDeposit(_depositId, msg.sender);\n    }\n\n    function withdrawUserDeposit(uint256 _depositId) external {\n        depositStorage.withdrawUserDeposit(_depositId, msg.sender, userAddressStorage.userIdsByAddress(msg.sender));\n    }\n\n    // ------------ ISSUE DEPOSITS ------------ //\n\n    OctobayGovNFT public octobayGovNFT;\n\n    function depositAndSetGovTokenForIssue(string calldata _issueId, OctobayGovToken _govToken) external payable {\n        depositEthForIssue(_issueId);\n        setGovTokenForIssue(_issueId, _govToken);\n    }\n\n    function setGovTokenForIssue(string calldata _issueId, OctobayGovToken _govToken) public {\n        // Ensure they're giving us a valid gov token\n        require(bytes(octobayGovernor.projectsByToken(_govToken)).length != 0, \"Invalid _govToken\");\n        require(octobayGovNFT.userHasPermissionForGovToken(msg.sender, _govToken, OctobayGovNFT.Permission.SET_ISSUE_GOVTOKEN), \n            \"You don't have permission to set governance tokens for issues\");\n        depositStorage.setGovTokenForIssue(_issueId, _govToken);\n    }\n\n    function depositEthForIssue(string calldata _issueId) public payable {\n        // Forwards eth payment to depositStorage to hold\n        depositStorage.depositEthForIssue{value: msg.value}(_issueId, msg.sender);\n    }\n\n    function refundIssueDeposit(uint256 _depositId) external {\n        depositStorage.refundIssueDeposit(_depositId, msg.sender);\n    }\n\n    // ------------ ISSUE CLAIMING ------------ //\n\n    struct IssueWithdrawRequest {\n        string issueId;\n        address payoutAddress;\n    }\n\n    mapping(bytes32 => IssueWithdrawRequest) public issueWithdrawRequests;\n\n    function withdrawIssueDeposit(\n        address _oracle,\n        string calldata _issueId\n    ) public oracleHandlesJob(_oracle, 'claim') returns(bytes32 requestId) {\n        require(depositStorage.issueStatusByIssueId(_issueId) == DepositStorage.IssueStatus.OPEN, 'Issue is not OPEN.'); \n\n        (bytes32 jobId, uint256 jobFee) = oracleStorage.getOracleJob(_oracle, 'claim');\n        Chainlink.Request memory request =\n            buildChainlinkRequest(\n                jobId,\n                address(this),\n                this.confirmWithdrawIssueDeposit.selector\n            );\n        request.add('githubUserId', userAddressStorage.userIdsByAddress(msg.sender));\n        request.add('issueId', _issueId);\n        requestId = sendChainlinkRequestTo(_oracle, request, jobFee);\n        issueWithdrawRequests[requestId] = IssueWithdrawRequest({\n            issueId: _issueId,\n            payoutAddress: msg.sender\n        });\n    }\n\n    function confirmWithdrawIssueDeposit(bytes32 _requestId)\n        public\n        recordChainlinkFulfillment(_requestId)\n    {\n        uint256 payoutAmt = depositStorage.confirmWithdrawIssueDeposit(issueWithdrawRequests[_requestId].payoutAddress, issueWithdrawRequests[_requestId].issueId);\n        octobayGovernor.awardGovernanceTokens(\n            issueWithdrawRequests[_requestId].payoutAddress, \n            payoutAmt, \n            depositStorage.govTokenByIssueId(issueWithdrawRequests[_requestId].issueId));\n        delete issueWithdrawRequests[_requestId];\n    }\n\n\n\n    // ------------ GOVERNANCE ------------ //\n\n    OctobayGovernor public octobayGovernor;\n    AggregatorV3Interface internal ethUSDPriceFeed;\n\n    /// @notice Used to store Chainlink requests for new governance tokens\n    struct NewGovernanceToken {\n        bool isValue; // Ensure we have a valid value in the map\n        string githubUserId; // Github graphql ID of the user we need to check for ownership\n        string name; // Name of the new governance token\n        string symbol; // Symbol to use for the new governance token\n        string projectId; // Github graphql ID of the project (repo/org) to be associated with the new token\n        uint16 newProposalShare; // Share of gov tokens a holder requires before they can create new proposals\n        uint16 minQuorum; // The minimum quorum allowed for new proposals\n        address creator; // Address of the creator, we need to store this as we lose it in the Oracle callback otherwise\n    }\n\n    mapping(bytes32 => NewGovernanceToken) public newGovernanceTokenReqs;\n\n    /// @notice A request from the site to create a new governance token, checks ownership of the given\n    ///         project (repo or org) via a Chainlink Oracle request to confirm\n    /// @dev Using a struct as an argument here otherwise we get stack too deep errors\n    /// @param _oracle Specify the address of the _oracle to use for the request\n    /// @param _newToken The details of the new governance token to create\n    function createGovernanceToken(\n        address _oracle,\n        NewGovernanceToken memory _newToken\n    ) public oracleHandlesJob(_oracle, 'check-ownership') returns(bytes32 requestId) {\n        (bytes32 jobId, uint256 jobFee) = oracleStorage.getOracleJob(_oracle, 'check-ownership');\n        Chainlink.Request memory request =\n            buildChainlinkRequest(\n                jobId,\n                address(this),\n                this.confirmCreateGovernanceToken.selector\n            );\n        request.add('githubUserId', _newToken.githubUserId);\n        request.add('repoOrgId', _newToken.projectId);\n        requestId = sendChainlinkRequestTo(_oracle, request, jobFee);\n\n        _newToken.creator = msg.sender;\n        newGovernanceTokenReqs[requestId] = _newToken;\n    }\n\n    /// @notice Called in response by the Chainlink Oracle, continues with governance token creation\n    /// @param _requestId Chainlink request ID being returned\n    /// @param _result True if the given github user is an owner of the given project (org/repo)\n    function confirmCreateGovernanceToken(bytes32 _requestId, bool _result)\n        public\n        recordChainlinkFulfillment(_requestId)\n    {\n        require(_result, \"User is not owner of organization or repository\");\n        NewGovernanceToken memory newToken = newGovernanceTokenReqs[_requestId];\n        require(newToken.isValue, \"No such request\");\n        delete newGovernanceTokenReqs[_requestId];\n\n        OctobayGovToken deployedToken = octobayGovernor.createGovernorAndToken(\n            newToken.creator,\n            newToken.projectId,\n            newToken.newProposalShare,\n            newToken.minQuorum,\n            newToken.name,\n            newToken.symbol\n        );\n        uint256 nftId = octobayGovNFT.mintNFTForGovToken(newToken.creator, deployedToken);\n        octobayGovNFT.grantAllPermissions(nftId);\n    }\n\n    // ------------ UTILS ------------ //\n\n\n    function addressToIntString(address _address)\n        internal\n        pure\n        returns (string memory _string)\n    {\n        uint256 _i = uint256(_address);\n        if (_i == 0) {\n            return '0';\n        }\n        uint256 j = _i;\n        uint256 len;\n        while (j != 0) {\n            len++;\n            j /= 10;\n        }\n        bytes memory bstr = new bytes(len);\n        uint256 k = len - 1;\n        while (_i != 0) {\n            bstr[k--] = bytes1(uint8(48 + (_i % 10)));\n            _i /= 10;\n        }\n        return string(bstr);\n    }\n}\n",
  "sourcePath": "/home/mkt/Projects/octobay/contracts/contracts/Octobay.sol",
  "compiler": {
    "name": "solc",
    "version": "0.6.12+commit.27d51765.Emscripten.clang"
  },
  "schemaVersion": "3.3.4",
  "updatedAt": "2021-05-05T22:31:48.359Z",
  "networkType": "ethereum",
  "devdoc": {
    "kind": "dev",
    "methods": {
      "confirmCreateGovernanceToken(bytes32,bool)": {
        "params": {
          "_requestId": "Chainlink request ID being returned",
          "_result": "True if the given github user is an owner of the given project (org/repo)"
        }
      },
      "createGovernanceToken(address,(bool,string,string,string,string,uint16,uint16,address))": {
        "details": "Using a struct as an argument here otherwise we get stack too deep errors",
        "params": {
          "_newToken": "The details of the new governance token to create",
          "_oracle": "Specify the address of the _oracle to use for the request"
        }
      },
      "owner()": {
        "details": "Returns the address of the current owner."
      },
      "renounceOwnership()": {
        "details": "Leaves the contract without owner. It will not be possible to call `onlyOwner` functions anymore. Can only be called by the current owner. NOTE: Renouncing ownership will leave the contract without an owner, thereby removing any functionality that is only available to the owner."
      },
      "transferOwnership(address)": {
        "details": "Transfers ownership of the contract to a new account (`newOwner`). Can only be called by the current owner."
      }
    },
    "version": 1
  },
  "userdoc": {
    "kind": "user",
    "methods": {
      "confirmCreateGovernanceToken(bytes32,bool)": {
        "notice": "Called in response by the Chainlink Oracle, continues with governance token creation"
      },
      "createGovernanceToken(address,(bool,string,string,string,string,uint16,uint16,address))": {
        "notice": "A request from the site to create a new governance token, checks ownership of the given         project (repo or org) via a Chainlink Oracle request to confirm"
      },
      "isTrustedForwarder(address)": {
        "notice": "return if the forwarder is trusted to forward relayed transactions to us. the forwarder is required to verify the sender's signature, and verify the call is not a replay."
      }
    },
    "version": 1
  }
}