{
  "contractName": "OctoBay",
  "abi": [
    {
      "inputs": [
        {
          "internalType": "address",
          "name": "_link",
          "type": "address"
        },
        {
          "internalType": "address",
          "name": "_weth",
          "type": "address"
        },
        {
          "internalType": "address",
          "name": "_uniswap",
          "type": "address"
        },
        {
          "internalType": "address",
          "name": "_forwarder",
          "type": "address"
        }
      ],
      "stateMutability": "nonpayable",
      "type": "constructor"
    },
    {
      "anonymous": false,
      "inputs": [
        {
          "indexed": true,
          "internalType": "bytes32",
          "name": "id",
          "type": "bytes32"
        }
      ],
      "name": "ChainlinkCancelled",
      "type": "event"
    },
    {
      "anonymous": false,
      "inputs": [
        {
          "indexed": true,
          "internalType": "bytes32",
          "name": "id",
          "type": "bytes32"
        }
      ],
      "name": "ChainlinkFulfilled",
      "type": "event"
    },
    {
      "anonymous": false,
      "inputs": [
        {
          "indexed": true,
          "internalType": "bytes32",
          "name": "id",
          "type": "bytes32"
        }
      ],
      "name": "ChainlinkRequested",
      "type": "event"
    },
    {
      "anonymous": false,
      "inputs": [
        {
          "indexed": false,
          "internalType": "address",
          "name": "account",
          "type": "address"
        },
        {
          "indexed": false,
          "internalType": "uint256",
          "name": "amount",
          "type": "uint256"
        },
        {
          "indexed": false,
          "internalType": "string",
          "name": "issueId",
          "type": "string"
        }
      ],
      "name": "IssueDepositEvent",
      "type": "event"
    },
    {
      "anonymous": false,
      "inputs": [
        {
          "indexed": true,
          "internalType": "address",
          "name": "previousOwner",
          "type": "address"
        },
        {
          "indexed": true,
          "internalType": "address",
          "name": "newOwner",
          "type": "address"
        }
      ],
      "name": "OwnershipTransferred",
      "type": "event"
    },
    {
      "anonymous": false,
      "inputs": [
        {
          "indexed": false,
          "internalType": "string",
          "name": "issueId",
          "type": "string"
        },
        {
          "indexed": false,
          "internalType": "string",
          "name": "githubUser",
          "type": "string"
        }
      ],
      "name": "ReleaseIssueDepositsEvent",
      "type": "event"
    },
    {
      "anonymous": false,
      "inputs": [
        {
          "indexed": false,
          "internalType": "string",
          "name": "issueId",
          "type": "string"
        },
        {
          "indexed": false,
          "internalType": "bytes32",
          "name": "tweetId",
          "type": "bytes32"
        }
      ],
      "name": "TwitterPost",
      "type": "event"
    },
    {
      "anonymous": false,
      "inputs": [
        {
          "indexed": false,
          "internalType": "address",
          "name": "account",
          "type": "address"
        },
        {
          "indexed": false,
          "internalType": "uint256",
          "name": "amount",
          "type": "uint256"
        },
        {
          "indexed": false,
          "internalType": "string",
          "name": "githubUser",
          "type": "string"
        }
      ],
      "name": "UserDepositEvent",
      "type": "event"
    },
    {
      "anonymous": false,
      "inputs": [
        {
          "indexed": false,
          "internalType": "address",
          "name": "account",
          "type": "address"
        },
        {
          "indexed": false,
          "internalType": "uint256",
          "name": "amount",
          "type": "uint256"
        },
        {
          "indexed": false,
          "internalType": "string",
          "name": "githubUser",
          "type": "string"
        }
      ],
      "name": "UserSendEvent",
      "type": "event"
    },
    {
      "inputs": [
        {
          "internalType": "address",
          "name": "",
          "type": "address"
        }
      ],
      "name": "claimJobFees",
      "outputs": [
        {
          "internalType": "uint256",
          "name": "",
          "type": "uint256"
        }
      ],
      "stateMutability": "view",
      "type": "function"
    },
    {
      "inputs": [
        {
          "internalType": "address",
          "name": "",
          "type": "address"
        }
      ],
      "name": "claimJobIds",
      "outputs": [
        {
          "internalType": "bytes32",
          "name": "",
          "type": "bytes32"
        }
      ],
      "stateMutability": "view",
      "type": "function"
    },
    {
      "inputs": [
        {
          "internalType": "address",
          "name": "forwarder",
          "type": "address"
        }
      ],
      "name": "isTrustedForwarder",
      "outputs": [
        {
          "internalType": "bool",
          "name": "",
          "type": "bool"
        }
      ],
      "stateMutability": "view",
      "type": "function"
    },
    {
      "inputs": [
        {
          "internalType": "string",
          "name": "",
          "type": "string"
        },
        {
          "internalType": "uint256",
          "name": "",
          "type": "uint256"
        }
      ],
      "name": "issueDepositIdsByIssueId",
      "outputs": [
        {
          "internalType": "uint256",
          "name": "",
          "type": "uint256"
        }
      ],
      "stateMutability": "view",
      "type": "function"
    },
    {
      "inputs": [
        {
          "internalType": "address",
          "name": "",
          "type": "address"
        },
        {
          "internalType": "uint256",
          "name": "",
          "type": "uint256"
        }
      ],
      "name": "issueDepositIdsBySender",
      "outputs": [
        {
          "internalType": "uint256",
          "name": "",
          "type": "uint256"
        }
      ],
      "stateMutability": "view",
      "type": "function"
    },
    {
      "inputs": [
        {
          "internalType": "uint256",
          "name": "",
          "type": "uint256"
        }
      ],
      "name": "issueDeposits",
      "outputs": [
        {
          "internalType": "address",
          "name": "from",
          "type": "address"
        },
        {
          "internalType": "uint256",
          "name": "amount",
          "type": "uint256"
        },
        {
          "internalType": "string",
          "name": "issueId",
          "type": "string"
        }
      ],
      "stateMutability": "view",
      "type": "function"
    },
    {
      "inputs": [
        {
          "internalType": "string",
          "name": "",
          "type": "string"
        }
      ],
      "name": "issueDepositsAmountByIssueId",
      "outputs": [
        {
          "internalType": "uint256",
          "name": "",
          "type": "uint256"
        }
      ],
      "stateMutability": "view",
      "type": "function"
    },
    {
      "inputs": [
        {
          "internalType": "string",
          "name": "",
          "type": "string"
        }
      ],
      "name": "issuePins",
      "outputs": [
        {
          "internalType": "uint256",
          "name": "",
          "type": "uint256"
        }
      ],
      "stateMutability": "view",
      "type": "function"
    },
    {
      "inputs": [
        {
          "internalType": "string",
          "name": "",
          "type": "string"
        }
      ],
      "name": "issueReleaseIDsByIssueId",
      "outputs": [
        {
          "internalType": "bytes32",
          "name": "",
          "type": "bytes32"
        }
      ],
      "stateMutability": "view",
      "type": "function"
    },
    {
      "inputs": [],
      "name": "nextIssueDepositId",
      "outputs": [
        {
          "internalType": "uint256",
          "name": "",
          "type": "uint256"
        }
      ],
      "stateMutability": "view",
      "type": "function"
    },
    {
      "inputs": [],
      "name": "octoPin",
      "outputs": [
        {
          "internalType": "contract OctoPin",
          "name": "",
          "type": "address"
        }
      ],
      "stateMutability": "view",
      "type": "function"
    },
    {
      "inputs": [
        {
          "internalType": "uint256",
          "name": "",
          "type": "uint256"
        }
      ],
      "name": "oracleAddresses",
      "outputs": [
        {
          "internalType": "address",
          "name": "",
          "type": "address"
        }
      ],
      "stateMutability": "view",
      "type": "function"
    },
    {
      "inputs": [
        {
          "internalType": "address",
          "name": "",
          "type": "address"
        }
      ],
      "name": "oracleNames",
      "outputs": [
        {
          "internalType": "string",
          "name": "",
          "type": "string"
        }
      ],
      "stateMutability": "view",
      "type": "function"
    },
    {
      "inputs": [],
      "name": "owner",
      "outputs": [
        {
          "internalType": "address",
          "name": "",
          "type": "address"
        }
      ],
      "stateMutability": "view",
      "type": "function"
    },
    {
      "inputs": [
        {
          "internalType": "bytes32",
          "name": "",
          "type": "bytes32"
        }
      ],
      "name": "pendingTwitterPostsIssueIds",
      "outputs": [
        {
          "internalType": "string",
          "name": "",
          "type": "string"
        }
      ],
      "stateMutability": "view",
      "type": "function"
    },
    {
      "inputs": [
        {
          "internalType": "string",
          "name": "",
          "type": "string"
        }
      ],
      "name": "pullRequestClaimIDsByPrId",
      "outputs": [
        {
          "internalType": "bytes32",
          "name": "",
          "type": "bytes32"
        }
      ],
      "stateMutability": "view",
      "type": "function"
    },
    {
      "inputs": [
        {
          "internalType": "bytes32",
          "name": "",
          "type": "bytes32"
        }
      ],
      "name": "pullRequestClaims",
      "outputs": [
        {
          "internalType": "string",
          "name": "githubUser",
          "type": "string"
        },
        {
          "internalType": "string",
          "name": "prId",
          "type": "string"
        },
        {
          "internalType": "uint256",
          "name": "status",
          "type": "uint256"
        }
      ],
      "stateMutability": "view",
      "type": "function"
    },
    {
      "inputs": [
        {
          "internalType": "address",
          "name": "",
          "type": "address"
        }
      ],
      "name": "registerJobFees",
      "outputs": [
        {
          "internalType": "uint256",
          "name": "",
          "type": "uint256"
        }
      ],
      "stateMutability": "view",
      "type": "function"
    },
    {
      "inputs": [
        {
          "internalType": "address",
          "name": "",
          "type": "address"
        }
      ],
      "name": "registerJobIds",
      "outputs": [
        {
          "internalType": "bytes32",
          "name": "",
          "type": "bytes32"
        }
      ],
      "stateMutability": "view",
      "type": "function"
    },
    {
      "inputs": [
        {
          "internalType": "address",
          "name": "",
          "type": "address"
        }
      ],
      "name": "releaseJobFees",
      "outputs": [
        {
          "internalType": "uint256",
          "name": "",
          "type": "uint256"
        }
      ],
      "stateMutability": "view",
      "type": "function"
    },
    {
      "inputs": [
        {
          "internalType": "address",
          "name": "",
          "type": "address"
        }
      ],
      "name": "releaseJobIds",
      "outputs": [
        {
          "internalType": "bytes32",
          "name": "",
          "type": "bytes32"
        }
      ],
      "stateMutability": "view",
      "type": "function"
    },
    {
      "inputs": [
        {
          "internalType": "bytes32",
          "name": "",
          "type": "bytes32"
        }
      ],
      "name": "releasedIssues",
      "outputs": [
        {
          "internalType": "string",
          "name": "githubUser",
          "type": "string"
        },
        {
          "internalType": "string",
          "name": "issueId",
          "type": "string"
        },
        {
          "internalType": "uint256",
          "name": "status",
          "type": "uint256"
        }
      ],
      "stateMutability": "view",
      "type": "function"
    },
    {
      "inputs": [],
      "name": "renounceOwnership",
      "outputs": [],
      "stateMutability": "nonpayable",
      "type": "function"
    },
    {
      "inputs": [
        {
          "internalType": "address",
          "name": "newOwner",
          "type": "address"
        }
      ],
      "name": "transferOwnership",
      "outputs": [],
      "stateMutability": "nonpayable",
      "type": "function"
    },
    {
      "inputs": [],
      "name": "trustedForwarder",
      "outputs": [
        {
          "internalType": "address",
          "name": "",
          "type": "address"
        }
      ],
      "stateMutability": "view",
      "type": "function"
    },
    {
      "inputs": [],
      "name": "twitterAccountId",
      "outputs": [
        {
          "internalType": "string",
          "name": "",
          "type": "string"
        }
      ],
      "stateMutability": "view",
      "type": "function"
    },
    {
      "inputs": [],
      "name": "twitterFollowers",
      "outputs": [
        {
          "internalType": "uint256",
          "name": "",
          "type": "uint256"
        }
      ],
      "stateMutability": "view",
      "type": "function"
    },
    {
      "inputs": [
        {
          "internalType": "address",
          "name": "",
          "type": "address"
        }
      ],
      "name": "twitterFollowersJobFees",
      "outputs": [
        {
          "internalType": "uint256",
          "name": "",
          "type": "uint256"
        }
      ],
      "stateMutability": "view",
      "type": "function"
    },
    {
      "inputs": [
        {
          "internalType": "address",
          "name": "",
          "type": "address"
        }
      ],
      "name": "twitterFollowersJobIds",
      "outputs": [
        {
          "internalType": "bytes32",
          "name": "",
          "type": "bytes32"
        }
      ],
      "stateMutability": "view",
      "type": "function"
    },
    {
      "inputs": [
        {
          "internalType": "address",
          "name": "",
          "type": "address"
        }
      ],
      "name": "twitterPostJobFees",
      "outputs": [
        {
          "internalType": "uint256",
          "name": "",
          "type": "uint256"
        }
      ],
      "stateMutability": "view",
      "type": "function"
    },
    {
      "inputs": [
        {
          "internalType": "address",
          "name": "",
          "type": "address"
        }
      ],
      "name": "twitterPostJobIds",
      "outputs": [
        {
          "internalType": "bytes32",
          "name": "",
          "type": "bytes32"
        }
      ],
      "stateMutability": "view",
      "type": "function"
    },
    {
      "inputs": [
        {
          "internalType": "string",
          "name": "",
          "type": "string"
        }
      ],
      "name": "userClaimAmountByGithbUser",
      "outputs": [
        {
          "internalType": "uint256",
          "name": "",
          "type": "uint256"
        }
      ],
      "stateMutability": "view",
      "type": "function"
    },
    {
      "inputs": [
        {
          "internalType": "string",
          "name": "",
          "type": "string"
        },
        {
          "internalType": "uint256",
          "name": "",
          "type": "uint256"
        }
      ],
      "name": "userDepositIdsByGithubUser",
      "outputs": [
        {
          "internalType": "uint256",
          "name": "",
          "type": "uint256"
        }
      ],
      "stateMutability": "view",
      "type": "function"
    },
    {
      "inputs": [
        {
          "internalType": "address",
          "name": "",
          "type": "address"
        },
        {
          "internalType": "uint256",
          "name": "",
          "type": "uint256"
        }
      ],
      "name": "userDepositIdsBySender",
      "outputs": [
        {
          "internalType": "uint256",
          "name": "",
          "type": "uint256"
        }
      ],
      "stateMutability": "view",
      "type": "function"
    },
    {
      "inputs": [
        {
          "internalType": "uint256",
          "name": "",
          "type": "uint256"
        }
      ],
      "name": "userDeposits",
      "outputs": [
        {
          "internalType": "address",
          "name": "from",
          "type": "address"
        },
        {
          "internalType": "uint256",
          "name": "amount",
          "type": "uint256"
        },
        {
          "internalType": "string",
          "name": "githubUser",
          "type": "string"
        }
      ],
      "stateMutability": "view",
      "type": "function"
    },
    {
      "inputs": [
        {
          "internalType": "address",
          "name": "",
          "type": "address"
        }
      ],
      "name": "userIDsByAddress",
      "outputs": [
        {
          "internalType": "bytes32",
          "name": "",
          "type": "bytes32"
        }
      ],
      "stateMutability": "view",
      "type": "function"
    },
    {
      "inputs": [
        {
          "internalType": "string",
          "name": "",
          "type": "string"
        }
      ],
      "name": "userIDsByGithubUser",
      "outputs": [
        {
          "internalType": "bytes32",
          "name": "",
          "type": "bytes32"
        }
      ],
      "stateMutability": "view",
      "type": "function"
    },
    {
      "inputs": [
        {
          "internalType": "bytes32",
          "name": "",
          "type": "bytes32"
        }
      ],
      "name": "users",
      "outputs": [
        {
          "internalType": "string",
          "name": "githubUser",
          "type": "string"
        },
        {
          "internalType": "address",
          "name": "ethAddress",
          "type": "address"
        },
        {
          "internalType": "uint8",
          "name": "status",
          "type": "uint8"
        }
      ],
      "stateMutability": "view",
      "type": "function"
    },
    {
      "inputs": [],
      "name": "versionRecipient",
      "outputs": [
        {
          "internalType": "string",
          "name": "",
          "type": "string"
        }
      ],
      "stateMutability": "view",
      "type": "function"
    },
    {
      "inputs": [
        {
          "internalType": "address",
          "name": "_octoPin",
          "type": "address"
        }
      ],
      "name": "setOctoPin",
      "outputs": [],
      "stateMutability": "nonpayable",
      "type": "function"
    },
    {
      "inputs": [
        {
          "internalType": "address",
          "name": "_octobayPaymaster",
          "type": "address"
        }
      ],
      "name": "setPaymaster",
      "outputs": [],
      "stateMutability": "nonpayable",
      "type": "function"
    },
    {
      "inputs": [
        {
          "internalType": "string",
          "name": "_accountId",
          "type": "string"
        }
      ],
      "name": "setTwitterAccountId",
      "outputs": [],
      "stateMutability": "nonpayable",
      "type": "function"
    },
    {
      "inputs": [
        {
          "internalType": "address",
          "name": "_oracle",
          "type": "address"
        },
        {
          "internalType": "string",
          "name": "name",
          "type": "string"
        }
      ],
      "name": "setOracle",
      "outputs": [],
      "stateMutability": "nonpayable",
      "type": "function"
    },
    {
      "inputs": [
        {
          "internalType": "address",
          "name": "_oracle",
          "type": "address"
        },
        {
          "internalType": "uint256",
          "name": "_jobType",
          "type": "uint256"
        },
        {
          "internalType": "bytes32",
          "name": "_jobId",
          "type": "bytes32"
        },
        {
          "internalType": "uint256",
          "name": "_jobFee",
          "type": "uint256"
        }
      ],
      "name": "setOracleJob",
      "outputs": [],
      "stateMutability": "nonpayable",
      "type": "function"
    },
    {
      "inputs": [
        {
          "internalType": "address",
          "name": "_oracle",
          "type": "address"
        }
      ],
      "name": "removeOracle",
      "outputs": [],
      "stateMutability": "nonpayable",
      "type": "function"
    },
    {
      "inputs": [],
      "name": "getOracles",
      "outputs": [
        {
          "internalType": "address[]",
          "name": "",
          "type": "address[]"
        }
      ],
      "stateMutability": "view",
      "type": "function"
    },
    {
      "inputs": [
        {
          "internalType": "string",
          "name": "_githubUser",
          "type": "string"
        },
        {
          "internalType": "uint256",
          "name": "_amount",
          "type": "uint256"
        }
      ],
      "name": "deductGasFee",
      "outputs": [],
      "stateMutability": "nonpayable",
      "type": "function"
    },
    {
      "inputs": [
        {
          "internalType": "address",
          "name": "_oracle",
          "type": "address"
        },
        {
          "internalType": "string",
          "name": "_githubUser",
          "type": "string"
        }
      ],
      "name": "register",
      "outputs": [],
      "stateMutability": "nonpayable",
      "type": "function"
    },
    {
      "inputs": [
        {
          "internalType": "bytes32",
          "name": "_requestId",
          "type": "bytes32"
        }
      ],
      "name": "confirmRegistration",
      "outputs": [],
      "stateMutability": "nonpayable",
      "type": "function"
    },
    {
      "inputs": [
        {
          "internalType": "bytes32",
          "name": "_requestId",
          "type": "bytes32"
        },
        {
          "internalType": "bytes32",
          "name": "_tweetId",
          "type": "bytes32"
        }
      ],
      "name": "twitterPostConfirm",
      "outputs": [],
      "stateMutability": "nonpayable",
      "type": "function"
    },
    {
      "inputs": [
        {
          "internalType": "address",
          "name": "_oracle",
          "type": "address"
        },
        {
          "internalType": "string",
          "name": "_issueId",
          "type": "string"
        }
      ],
      "name": "updateTwitterFollowersAndPost",
      "outputs": [
        {
          "internalType": "bytes32",
          "name": "requestId",
          "type": "bytes32"
        }
      ],
      "stateMutability": "nonpayable",
      "type": "function"
    },
    {
      "inputs": [
        {
          "internalType": "bytes32",
          "name": "_requestId",
          "type": "bytes32"
        },
        {
          "internalType": "uint256",
          "name": "_followers",
          "type": "uint256"
        }
      ],
      "name": "updateTwitterFollowersConfirm",
      "outputs": [],
      "stateMutability": "nonpayable",
      "type": "function"
    },
    {
      "inputs": [
        {
          "internalType": "string",
          "name": "_githubUser",
          "type": "string"
        }
      ],
      "name": "depositEthForGithubUser",
      "outputs": [],
      "stateMutability": "payable",
      "type": "function"
    },
    {
      "inputs": [
        {
          "internalType": "uint256",
          "name": "_depositId",
          "type": "uint256"
        }
      ],
      "name": "refundUserDeposit",
      "outputs": [],
      "stateMutability": "nonpayable",
      "type": "function"
    },
    {
      "inputs": [
        {
          "internalType": "uint256",
          "name": "_depositId",
          "type": "uint256"
        }
      ],
      "name": "withdrawUserDeposit",
      "outputs": [],
      "stateMutability": "nonpayable",
      "type": "function"
    },
    {
      "inputs": [
        {
          "internalType": "string",
          "name": "_issueId",
          "type": "string"
        }
      ],
      "name": "depositEthForIssue",
      "outputs": [],
      "stateMutability": "payable",
      "type": "function"
    },
    {
      "inputs": [
        {
          "internalType": "uint256",
          "name": "_depositId",
          "type": "uint256"
        }
      ],
      "name": "refundIssueDeposit",
      "outputs": [],
      "stateMutability": "nonpayable",
      "type": "function"
    },
    {
      "inputs": [
        {
          "internalType": "address",
          "name": "_oracle",
          "type": "address"
        },
        {
          "internalType": "string",
          "name": "_issueId",
          "type": "string"
        },
        {
          "internalType": "string",
          "name": "_githubUser",
          "type": "string"
        }
      ],
      "name": "releaseIssueDeposits",
      "outputs": [],
      "stateMutability": "nonpayable",
      "type": "function"
    },
    {
      "inputs": [
        {
          "internalType": "bytes32",
          "name": "_requestId",
          "type": "bytes32"
        }
      ],
      "name": "confirmReleaseIssueDeposits",
      "outputs": [],
      "stateMutability": "nonpayable",
      "type": "function"
    },
    {
      "inputs": [
        {
          "internalType": "string",
          "name": "_issueId",
          "type": "string"
        }
      ],
      "name": "claimReleasedIssueDeposits",
      "outputs": [],
      "stateMutability": "nonpayable",
      "type": "function"
    },
    {
      "inputs": [
        {
          "internalType": "address",
          "name": "_oracle",
          "type": "address"
        },
        {
          "internalType": "string",
          "name": "_prId",
          "type": "string"
        },
        {
          "internalType": "string",
          "name": "_githubUser",
          "type": "string"
        }
      ],
      "name": "claimPullRequest",
      "outputs": [],
      "stateMutability": "nonpayable",
      "type": "function"
    },
    {
      "inputs": [
        {
          "internalType": "bytes32",
          "name": "_requestId",
          "type": "bytes32"
        },
        {
          "internalType": "uint256",
          "name": "_score",
          "type": "uint256"
        }
      ],
      "name": "confirmPullRequestClaim",
      "outputs": [],
      "stateMutability": "nonpayable",
      "type": "function"
    },
    {
      "inputs": [
        {
          "internalType": "string",
          "name": "_githubUser",
          "type": "string"
        }
      ],
      "name": "getUserDepositIdsForGithubUser",
      "outputs": [
        {
          "internalType": "uint256[]",
          "name": "",
          "type": "uint256[]"
        }
      ],
      "stateMutability": "view",
      "type": "function"
    },
    {
      "inputs": [],
      "name": "getUserDepositIdsForSender",
      "outputs": [
        {
          "internalType": "uint256[]",
          "name": "",
          "type": "uint256[]"
        }
      ],
      "stateMutability": "view",
      "type": "function"
    },
    {
      "inputs": [
        {
          "internalType": "string",
          "name": "_depositId",
          "type": "string"
        }
      ],
      "name": "getIssueDepositIdsForIssueId",
      "outputs": [
        {
          "internalType": "uint256[]",
          "name": "",
          "type": "uint256[]"
        }
      ],
      "stateMutability": "view",
      "type": "function"
    },
    {
      "inputs": [],
      "name": "getIssueDepositIdsForSender",
      "outputs": [
        {
          "internalType": "uint256[]",
          "name": "",
          "type": "uint256[]"
        }
      ],
      "stateMutability": "view",
      "type": "function"
    },
    {
      "inputs": [
        {
          "internalType": "string",
          "name": "_githubUser",
          "type": "string"
        }
      ],
      "name": "getUserClaimAmount",
      "outputs": [
        {
          "internalType": "uint256",
          "name": "",
          "type": "uint256"
        }
      ],
      "stateMutability": "view",
      "type": "function"
    }
  ],
  "bytecode": "0x6001600590815560c06040526080819052640322e302e360dc1b60a09081526200002d91600891906200025b565b506000600e5560006013553480156200004557600080fd5b50604051620051513803806200515183398101604081905262000068916200033a565b6000620000746200013b565b600080546001600160a01b0319166001600160a01b0383169081178255604051929350917f8be0079c531659141344cd1fd0a4f28419497f9722a3daafe3b4186f6b6457e0908290a3506001600160a01b038416620000dd57620000d762000158565b620000e8565b620000e884620001ed565b602980546001600160a01b039586166001600160a01b031991821617909155602880549486169482169490941790935560078054918516918416919091179055600980549190931691161790556200039a565b6000620001526200020f60201b620033ec1760201c565b90505b90565b620001eb73c89bd4e1632d3a43cb03aaad5262cbe4038bc5716001600160a01b03166338cc48316040518163ffffffff1660e01b815260040160206040518083038186803b158015620001aa57600080fd5b505afa158015620001bf573d6000803e3d6000fd5b505050506040513d601f19601f82011682018060405250810190620001e5919062000315565b620001ed565b565b600380546001600160a01b0319166001600160a01b0392909216919091179055565b600060183610801590620002295750620002293362000247565b156200023f575060131936013560601c62000155565b503362000155565b6007546001600160a01b0390811691161490565b828054600181600116156101000203166002900490600052602060002090601f016020900481019282601f106200029e57805160ff1916838001178555620002ce565b82800160010185558215620002ce579182015b82811115620002ce578251825591602001919060010190620002b1565b50620002dc929150620002e0565b5090565b5b80821115620002dc5760008155600101620002e1565b80516001600160a01b03811681146200030f57600080fd5b92915050565b60006020828403121562000327578081fd5b620003338383620002f7565b9392505050565b6000806000806080858703121562000350578283fd5b6200035c8686620002f7565b93506200036d8660208701620002f7565b92506200037e8660408701620002f7565b91506200038f8660608701620002f7565b905092959194509250565b614da780620003aa6000396000f3fe6080604052600436106103645760003560e01c806364701750116101c85780639c900e33116100f8578063e1e7d4d31161009b578063e1e7d4d314610abf578063f0e31cf914610adf578063f16b41f414610aff578063f2fde38b14610b1f578063f4b90ef714610b3f578063f63e8c7014610b52578063f9c8d78f14610b67578063fb95354a14610b87578063fdc85fc414610b9c57610364565b80639c900e33146109a1578063bea390bc146109c1578063c315fbca146109e1578063cea6ab9814610a01578063cf5f5f4614610a30578063d224784d14610a50578063d9d9164414610a7f578063dc4bfb8514610a9f57610364565b8063858c11941161016b578063858c1194146108a45780638617fc46146108c4578063875752cd146108e45780638d6ec921146109045780638da5cb5b146109245780638fc0e3b2146109395780639947918c1461094e5780639979635e1461096e5780639996f1861461098e57610364565b806364701750146107ad5780636f451493146107cd5780636f4c91a4146107ed578063715018a61461080d578063746c97b9146108225780637c779190146108425780637d2f1f85146108625780637da0a8771461088257610364565b8063486ff0cd116102a3578063546075da11610246578063546075da1461068b57806354d16f67146106ab57806355254188146106cb57806356ba75b8146106eb578063572b6c051461070b57806357bd9a9714610738578063595670b31461075857806360445fb21461076d57806361e421d51461078d57610364565b8063486ff0cd1461059257806348f92787146105a75780634a481450146105bc5780634c1b100a146105dc57806350aea5591461060b5780635308f52c1461062b57806353a61ff91461064b578063541b6c9f1461066b57610364565b8063262541391161030b578063262541391461048e5780632a97fa77146104ae5780632fd89589146104ce57806332434a2e146104ee5780633be784bc1461050e5780633f107fdb1461052e57806340884c521461054e578063454d05541461057057610364565b806304405fa9146103695780630479f6f21461039f57806304fad8fd146103c15780630f8b8afa146103e1578063113d41341461040157806313fd21ce1461042157806317c486f11461044e5780631d2f5e831461046e575b600080fd5b34801561037557600080fd5b50610389610384366004614294565b610bbc565b6040516103969190614601565b60405180910390f35b3480156103ab57600080fd5b506103bf6103ba3660046140f6565b610bf9565b005b3480156103cd57600080fd5b506103896103dc366004614032565b610e25565b3480156103ed57600080fd5b506103896103fc366004614262565b610e37565b34801561040d57600080fd5b5061038961041c366004614262565b610e54565b34801561042d57600080fd5b5061044161043c3660046141ea565b610e7d565b604051610396919061460a565b34801561045a57600080fd5b50610389610469366004614262565b610f18565b34801561047a57600080fd5b50610389610489366004614262565b610f35565b34801561049a57600080fd5b506103896104a9366004614032565b610f52565b3480156104ba57600080fd5b506103bf6104c9366004614032565b610f64565b3480156104da57600080fd5b506103bf6104e936600461404d565b610fbb565b3480156104fa57600080fd5b506103bf61050936600461409e565b6110bd565b34801561051a57600080fd5b506103bf6105293660046141ea565b61126c565b34801561053a57600080fd5b50610389610549366004614032565b6113b8565b34801561055a57600080fd5b506105636113ca565b6040516103969190614571565b34801561057c57600080fd5b5061058561142d565b60405161039691906145be565b34801561059e57600080fd5b5061044161148d565b3480156105b357600080fd5b506104416114e8565b3480156105c857600080fd5b506103896105d7366004614032565b611543565b3480156105e857600080fd5b506105fc6105f73660046141ea565b611555565b60405161039693929190614653565b34801561061757600080fd5b50610585610626366004614223565b61169a565b34801561063757600080fd5b5061038961064636600461409e565b61170e565b34801561065757600080fd5b50610585610666366004614223565b6118a1565b34801561067757600080fd5b506105fc6106863660046141ea565b6118b5565b34801561069757600080fd5b506103bf6106a6366004614294565b611921565b3480156106b757600080fd5b506103896106c6366004614032565b6119a2565b3480156106d757600080fd5b506103bf6106e6366004614032565b6119b4565b3480156106f757600080fd5b50610389610706366004614032565b611a0b565b34801561071757600080fd5b5061072b610726366004614032565b611a1d565b60405161039691906145f6565b34801561074457600080fd5b506103bf6107533660046141ea565b611a31565b34801561076457600080fd5b50610389611b85565b34801561077957600080fd5b506103bf6107883660046141ea565b611b8b565b34801561079957600080fd5b506103896107a8366004614167565b611bce565b3480156107b957600080fd5b506103896107c8366004614167565b611be7565b3480156107d957600080fd5b506103896107e8366004614032565b611c00565b3480156107f957600080fd5b506103bf610808366004614202565b611c11565b34801561081957600080fd5b506103bf611d78565b34801561082e57600080fd5b5061038961083d366004614294565b611df7565b34801561084e57600080fd5b5061038961085d366004614032565b611e1f565b34801561086e57600080fd5b5061044161087d366004614032565b611e31565b34801561088e57600080fd5b50610897611e99565b604051610396919061446d565b3480156108b057600080fd5b506103bf6108bf3660046140f6565b611ea8565b3480156108d057600080fd5b506103bf6108df3660046141ea565b6120b9565b3480156108f057600080fd5b506103896108ff366004614032565b6121fb565b34801561091057600080fd5b506103bf61091f366004614262565b61220d565b34801561093057600080fd5b5061089761225e565b34801561094557600080fd5b5061089761226d565b34801561095a57600080fd5b506103bf610969366004614223565b61227c565b34801561097a57600080fd5b50610389610989366004614032565b61247c565b6103bf61099c366004614223565b61248e565b3480156109ad57600080fd5b506103896109bc366004614262565b612809565b3480156109cd57600080fd5b506103bf6109dc366004614202565b612826565b3480156109ed57600080fd5b506103bf6109fc3660046141ea565b6128ce565b348015610a0d57600080fd5b50610a21610a1c3660046141ea565b61298a565b6040516103969392919061461d565b348015610a3c57600080fd5b50610389610a4b366004614262565b612a47565b348015610a5c57600080fd5b50610a70610a6b3660046141ea565b612a64565b6040516103969392919061454a565b348015610a8b57600080fd5b506103bf610a9a366004614191565b612b1a565b348015610aab57600080fd5b50610897610aba3660046141ea565b612c5b565b348015610acb57600080fd5b50610389610ada366004614032565b612c82565b348015610aeb57600080fd5b506103bf610afa366004614202565b612c94565b348015610b0b57600080fd5b50610a70610b1a3660046141ea565b612f00565b348015610b2b57600080fd5b506103bf610b3a366004614032565b612f81565b6103bf610b4d366004614223565b613037565b348015610b5e57600080fd5b506103896131bd565b348015610b7357600080fd5b50610389610b82366004614262565b6131c3565b348015610b9357600080fd5b506105856131e0565b348015610ba857600080fd5b506103bf610bb7366004614032565b61323f565b81516020818401810180516014825292820191850191909120919052805482908110610be457fe5b90600052602060002001600091509150505481565b6001600160a01b0383166000908152601d6020526040902054839060026000196101006001841615020190911604610c4c5760405162461bcd60e51b8152600401610c4390614880565b60405180910390fd5b60196000601a85604051610c609190614451565b90815260200160405180910390205481526020019081526020016000206002015460021415610ca15760405162461bcd60e51b8152600401610c4390614761565b600a6000600c84604051610cb59190614451565b908152602001604051809103902054815260200190815260200160002060010160149054906101000a900460ff1660ff16600214610d055760405162461bcd60e51b8152600401610c4390614cd6565b610d0d613d05565b6001600160a01b038516600090815260226020526040902054610d38903063f0e31cf960e01b61341e565b60408051808201909152600a81526933b4ba343ab12ab9b2b960b11b6020820152909150610d6890829085613443565b6040805180820190915260048152631c1c925960e21b6020820152610d8f90829086613443565b6001600160a01b038516600090815260236020526040812054610db59087908490613461565b604080516060810182528681526020808201899052600182840152600084815260198252929092208151805194955091939092610df6928492910190613d3a565b506020828101518051610e0f9260018501920190613d3a565b5060408201518160020155905050505050505050565b60276020526000908152604090205481565b8051602081830181018051600d8252928201919093012091525481565b6000600d82604051610e669190614451565b90815260200160405180910390205490505b919050565b602e6020908152600091825260409182902080548351601f600260001961010060018616150201909316929092049182018490048402810184019094528084529091830182828015610f105780601f10610ee557610100808354040283529160200191610f10565b820191906000526020600020905b815481529060010190602001808311610ef357829003601f168201915b505050505081565b805160208183018101805160168252928201919093012091525481565b8051602081830181018051600c8252928201919093012091525481565b60216020526000908152604090205481565b610f6c6135a0565b6000546001600160a01b03908116911614610f995760405162461bcd60e51b8152600401610c4390614a74565b602b80546001600160a01b0319166001600160a01b0392909216919091179055565b610fc36135a0565b6000546001600160a01b03908116911614610ff05760405162461bcd60e51b8152600401610c4390614a74565b6000805b601c5481101561104157846001600160a01b0316601c828154811061101557fe5b6000918252602090912001546001600160a01b031614156110395760019150611041565b600101610ff4565b508061109357601c80546001810182556000919091527f0e4562a10381dec21b205ed72637e6b1b523bdd0e4d4d50af5cd23dd4500a2110180546001600160a01b0319166001600160a01b0386161790555b6001600160a01b0384166000908152601d602052604090206110b6908484613db8565b5050505050565b6001600160a01b0382166000908152601d60205260409020548290600260001961010060018416150201909116046111075760405162461bcd60e51b8152600401610c4390614880565b61110f613d05565b6001600160a01b0384166000908152601e602052604090205461113a9030630ef9e12f60e21b61341e565b60408051808201909152600a81526933b4ba343ab12ab9b2b960b11b602082015290915061116a90829085613443565b6111a86040518060400160405280600a8152602001696574684164647265737360b01b8152506111a061119b6135a0565b6135af565b839190613443565b6001600160a01b0384166000908152601f60205260408120546111ce9086908490613461565b905060405180606001604052808581526020016111e96135a0565b6001600160a01b0316815260016020918201526000838152600a82526040902082518051919261121e92849290910190613d3a565b5060208201516001909101805460409093015160ff16600160a01b0260ff60a01b196001600160a01b039093166001600160a01b031990941693909317919091169190911790555050505050565b60008181526006602052604090205481906001600160a01b031633146112a45760405162461bcd60e51b8152600401610c4390614be5565b60008181526006602052604080822080546001600160a01b0319169055518291600080516020614d5283398151915291a26000828152600a60205260408082209051600c916112f291614413565b9081526040805160209281900383019020546000818152600a80855283822060018101546001600160a01b03168352600b865293822082905582825290935292509061133e8282613e26565b50600190810180546001600160a81b03191690556000848152600a60208181526040808420948501805460ff60a01b1916600160a11b17908190556001600160a01b03168452600b82528084208890559287905252518491600c916113a39190614413565b90815260405190819003602001902055505050565b601e6020526000908152604090205481565b6060601c80548060200260200160405190810160405280929190818152602001828054801561142257602002820191906000526020600020905b81546001600160a01b03168152600190910190602001808311611404575b505050505090505b90565b3360009081526011602090815260409182902080548351818402810184019094528084526060939283018282801561142257602002820191906000526020600020905b815481526020019060010190808311611470575050505050905090565b6008805460408051602060026001851615610100026000190190941693909304601f81018490048402820184019092528181529291830182828015610f105780601f10610ee557610100808354040283529160200191610f10565b602c805460408051602060026001851615610100026000190190941693909304601f81018490048402820184019092528181529291830182828015610f105780601f10610ee557610100808354040283529160200191610f10565b601f6020526000908152604090205481565b60196020908152600091825260409182902080548351601f600260001961010060018616150201909316929092049182018490048402810184019094528084529092918391908301828280156115ec5780601f106115c1576101008083540402835291602001916115ec565b820191906000526020600020905b8154815290600101906020018083116115cf57829003601f168201915b505050505090806001018054600181600116156101000203166002900480601f01602080910402602001604051908101604052809291908181526020018280546001816001161561010002031660029004801561168a5780601f1061165f5761010080835404028352916020019161168a565b820191906000526020600020905b81548152906001019060200180831161166d57829003601f168201915b5050505050908060020154905083565b6060601483836040516116ae929190614441565b908152604080519182900360209081018320805480830285018301909352828452919083018282801561170057602002820191906000526020600020905b8154815260200190600101908083116116ec575b505050505090505b92915050565b6001600160a01b0382166000908152601d60205260408120548390600260001961010060018416150201909116046117585760405162461bcd60e51b8152600401610c4390614880565b611760613d05565b6001600160a01b03851660009081526026602052604090205461178b9030631bd3246960e21b61341e565b60408051808201825260098152681858d8dbdd5b9d125960ba1b602080830191909152602c8054845160026001831615610100026000190190921691909104601f810184900484028201840190955284815294955061184e94929390918301828280156118395780601f1061180e57610100808354040283529160200191611839565b820191906000526020600020905b81548152906001019060200180831161181c57829003601f168201915b5050505050836134439092919063ffffffff16565b6001600160a01b0385166000908152602760205260409020546118749086908390613461565b6000818152602e602090815260409091208651929550611898929091870190613d3a565b50505092915050565b6060601083836040516116ae929190614441565b60176020908152600091825260409182902080548351601f600260001961010060018616150201909316929092049182018490048402810184019094528084529092918391908301828280156115ec5780601f106115c1576101008083540402835291602001916115ec565b602b546001600160a01b0316331461193857600080fd5b80600d836040516119499190614451565b90815260200160405180910390205410156119765760405162461bcd60e51b8152600401610c43906149ef565b80600d836040516119879190614451565b90815260405190819003602001902080549190910390555050565b600b6020526000908152604090205481565b6119bc6135a0565b6000546001600160a01b039081169116146119e95760405162461bcd60e51b8152600401610c4390614a74565b602a80546001600160a01b0319166001600160a01b0392909216919091179055565b60236020526000908152604090205481565b6007546001600160a01b0390811691161490565b60008181526006602052604090205481906001600160a01b03163314611a695760405162461bcd60e51b8152600401610c4390614be5565b60008181526006602052604080822080546001600160a01b0319169055518291600080516020614d5283398151915291a2600082815260176020526040902060020154600114611acb5760405162461bcd60e51b8152600401610c4390614b46565b600082815260176020526040908190206002818101559051601691611af591600190910190614413565b90815260408051918290036020908101832054600086815260179092529190209091600d91611b2391614413565b90815260408051602092819003830181208054949094019093556000858152601790925290207f982ab3ed562795c652df6267e3375f911bda7be583569dd2d2f704389ee5fc4191611b799160018101916146ab565b60405180910390a15050565b602d5481565b6000818152600f60205260409020546001600160a01b03163314611bc15760405162461bcd60e51b8152600401610c43906146d0565b611bcb8133613692565b50565b60156020528160005260406000208181548110610be457fe5b60116020528160005260406000208181548110610be457fe5b602080526000908152604090205481565b60008281526006602052604090205482906001600160a01b03163314611c495760405162461bcd60e51b8152600401610c4390614be5565b60008181526006602052604080822080546001600160a01b0319169055518291600080516020614d5283398151915291a2602d8290556000838152602e6020908152604080832080548251601f60026000196101006001861615020190931692909204918201859004850281018501909352808352611d22933393929190830182828015611d185780601f10611ced57610100808354040283529160200191611d18565b820191906000526020600020905b815481529060010190602001808311611cfb57829003601f168201915b5050505050613803565b6000858152602e602052604080822083835291208154929350611d5a9290919060026000196101006001841615020190911604613e6a565b506000848152602e60205260408120611d7291613e26565b50505050565b611d806135a0565b6000546001600160a01b03908116911614611dad5760405162461bcd60e51b8152600401610c4390614a74565b600080546040516001600160a01b03909116907f8be0079c531659141344cd1fd0a4f28419497f9722a3daafe3b4186f6b6457e0908390a3600080546001600160a01b0319169055565b81516020818401810180516010825292820191850191909120919052805482908110610be457fe5b60256020526000908152604090205481565b601d6020908152600091825260409182902080548351601f600260001961010060018616150201909316929092049182018490048402810184019094528084529091830182828015610f105780601f10610ee557610100808354040283529160200191610f10565b6007546001600160a01b031681565b6001600160a01b0383166000908152601d6020526040902054839060026000196101006001841615020190911604611ef25760405162461bcd60e51b8152600401610c4390614880565b6000601684604051611f049190614451565b90815260200160405180910390205411611f305760405162461bcd60e51b8152600401610c4390614720565b336000818152600b60209081526040808320548352600a9091529020600101546001600160a01b031614611f765760405162461bcd60e51b8152600401610c4390614997565b611f7e613d05565b6001600160a01b0385166000908152602080526040902054611fa890306357bd9a9760e01b61341e565b60408051808201909152600a81526933b4ba343ab12ab9b2b960b11b6020820152909150611fd890829085613443565b6040805180820190915260078152661a5cdcdd59525960ca1b602082015261200290829086613443565b6001600160a01b0385166000908152602160205260408120546120289087908490613461565b604080516060810182528681526020808201899052600182840152600084815260178252929092208151805194955091939092612069928492910190613d3a565b5060208281015180516120829260018501920190613d3a565b5060408201518160020155905050806018866040516120a19190614451565b90815260405190819003602001902055505050505050565b6000818152601260205260409020546001600160a01b031633146120ef5760405162461bcd60e51b8152600401610c4390614ade565b600081815260126020526040908190206001810154915160169161211891600290910190614413565b90815260200160405180910390205410156121455760405162461bcd60e51b8152600401610c4390614a26565b600081815260126020526040808220600101549051339282156108fc02929190818181858888f19350505050158015612182573d6000803e3d6000fd5b5060008181526012602052604090819020600181015491516016916121ac91600290910190614413565b90815260408051602092819003830190208054939093039092556000838152601290915290812080546001600160a01b031916815560018101829055906121f66002830182613e26565b505050565b60246020526000908152604090205481565b6122156135a0565b6000546001600160a01b039081169116146122425760405162461bcd60e51b8152600401610c4390614a74565b805161225590602c906020840190613d3a565b50506000602d55565b6000546001600160a01b031690565b602a546001600160a01b031681565b336000818152600b60209081526040808320548352600a9091529020600101546001600160a01b0316146122c25760405162461bcd60e51b8152600401610c4390614b8d565b336000908152600b60209081526040808320548352600a9091529081902090516122ec9190614413565b6040518091039020601760006018858560405161230a929190614441565b90815260200160405180910390205481526020019081526020016000206000016040516123379190614413565b60405180910390201461235c5760405162461bcd60e51b8152600401610c4390614c2d565b600060168383604051612370929190614441565b9081526020016040518091039020541161239c5760405162461bcd60e51b8152600401610c4390614919565b336001600160a01b03166108fc601684846040516123bb929190614441565b90815260405190819003602001812054801590920291906000818181858888f193505050501580156123f1573d6000803e3d6000fd5b5060168282604051612404929190614441565b90815260408051918290036020908101832054336000908152600b8352838120548152600a9092529190209091600d9161243d91614413565b9081526040519081900360200181208054929092039091556000906016906124689085908590614441565b908152604051908190036020019020555050565b60266020526000908152604090205481565b600034116124ae5760405162461bcd60e51b8152600401610c4390614caa565b6124b6613edf565b600a6000600c85856040516124cc929190614441565b9081526040805160209281900383019020548352828201939093529082016000208251815460026001821615610100026000190190911604601f810184900490930281016080908101909452606081018381529093919284928491908401828280156125795780601f1061254e57610100808354040283529160200191612579565b820191906000526020600020905b81548152906001019060200180831161255c57829003601f168201915b5050509183525050600191909101546001600160a01b03808216602080850191909152600160a01b90920460ff1660409093019290925282015191925016158015906125cc5750806040015160ff166002145b1561269657600a6000600c85856040516125e7929190614441565b908152602001604051809103902054815260200190815260200160002060010160009054906101000a90046001600160a01b03166001600160a01b03166108fc349081150290604051600060405180830381858888f19350505050158015612653573d6000803e3d6000fd5b507f55ba5e513ac5c832c73696b2bac8efc4fa9fcac62091a294ec672803704481d5333485856040516126899493929190614481565b60405180910390a16121f6565b600e8054600101905560408051606081018252338152346020808301919091528251601f8601829004820281018201845285815291928301919086908690819084018382808284376000920182905250939094525050600e548152600f6020908152604091829020845181546001600160a01b0319166001600160a01b0390911617815584820151600182015591840151805192935061273f9260028501929190910190613d3a565b5090505060108383604051612755929190614441565b908152604080519182900360209081018320600e805482546001818101855560009485528585209091019190915533835260118452938220905481549485018255908252919020909101553490600d906127b29086908690614441565b90815260405190819003602001812080549092019091557f406551011d3a3874d102c2ee25adb004adb6d90a8134f04c14bd02f73ad4a3d0906127fc903390349087908790614481565b60405180910390a1505050565b805160208183018101805160188252928201919093012091525481565b60008281526006602052604090205482906001600160a01b0316331461285e5760405162461bcd60e51b8152600401610c4390614be5565b60008181526006602052604080822080546001600160a01b0319169055518291600080516020614d5283398151915291a26000838152602e60205260409081902090517fb1dc512b68f5a247885168f434e011092d08b7f3664d95aa70c299c98ad3913b916127fc918590614689565b336000818152600b60209081526040808320548352600a9091529020600101546001600160a01b0316146129145760405162461bcd60e51b8152600401610c4390614798565b336000908152600b60209081526040808320548352600a90915290819020905161293e9190614413565b604080519182900382206000848152600f6020529190912090916129659160020190614413565b604051809103902014611bc15760405162461bcd60e51b8152600401610c4390614950565b600a6020908152600091825260409182902080548351601f60026000196101006001861615020190931692909204918201849004840281018401909452808452909291839190830182828015612a215780601f106129f657610100808354040283529160200191612a21565b820191906000526020600020905b815481529060010190602001808311612a0457829003601f168201915b505050600190930154919250506001600160a01b0381169060ff600160a01b9091041683565b8051602081830181018051601b8252928201919093012091525481565b60126020908152600091825260409182902080546001808301546002808501805488516101009582161595909502600019011691909104601f81018790048702840187019097528683526001600160a01b03909316959094919291830182828015612b105780601f10612ae557610100808354040283529160200191612b10565b820191906000526020600020905b815481529060010190602001808311612af357829003601f168201915b5050505050905083565b612b226135a0565b6000546001600160a01b03908116911614612b4f5760405162461bcd60e51b8152600401610c4390614a74565b8260011415612b85576001600160a01b0384166000908152601e60209081526040808320859055601f9091529020819055611d72565b8260021415612bb9576001600160a01b03841660009081526020808052604080832085905560219091529020819055611d72565b8260031415612bef576001600160a01b038416600090815260226020908152604080832085905560239091529020819055611d72565b8260041415612c25576001600160a01b038416600090815260246020908152604080832085905560259091529020819055611d72565b8260051415611d72576001600160a01b039390931660009081526026602090815260408083209390935560279052209190915550565b601c8181548110612c6857fe5b6000918252602090912001546001600160a01b0316905081565b60226020526000908152604090205481565b60008281526006602052604090205482906001600160a01b03163314612ccc5760405162461bcd60e51b8152600401610c4390614be5565b60008181526006602052604080822080546001600160a01b0319169055518291600080516020614d5283398151915291a281600111158015612d0f575060648211155b612d2b5760405162461bcd60e51b8152600401610c4390614aa9565b600083815260196020526040902060020154600114612d5c5760405162461bcd60e51b8152600401610c43906147f5565b6000838152601960205260408082209051600a918391600c91612d7e91614413565b90815260408051602092819003830190205483529082019290925201600020600101546001600160a01b03161415612dc85760405162461bcd60e51b8152600401610c4390614cd6565b600083815260196020526040808220600281810155602a5491516001600160a01b039092169263f68fb07592600a92600c91612e049190614413565b90815260408051602092819003830190205483528282019390935290820160002060010154602a54835163313ce56760e01b815293516001600160a01b0392831694929091169263313ce5679260048082019391829003018186803b158015612e6c57600080fd5b505afa158015612e80573d6000803e3d6000fd5b505050506040513d601f19601f82011682018060405250810190612ea491906142d6565b60ff16600a0a85026040518363ffffffff1660e01b8152600401612ec99291906144c9565b600060405180830381600087803b158015612ee357600080fd5b505af1158015612ef7573d6000803e3d6000fd5b50505050505050565b600f6020908152600091825260409182902080546001808301546002808501805488516101009582161595909502600019011691909104601f81018790048702840187019097528683526001600160a01b03909316959094919291830182828015612b105780601f10612ae557610100808354040283529160200191612b10565b612f896135a0565b6000546001600160a01b03908116911614612fb65760405162461bcd60e51b8152600401610c4390614a74565b6001600160a01b038116612fdc5760405162461bcd60e51b8152600401610c439061483a565b600080546040516001600160a01b03808516939216917f8be0079c531659141344cd1fd0a4f28419497f9722a3daafe3b4186f6b6457e091a3600080546001600160a01b0319166001600160a01b0392909216919091179055565b600034116130575760405162461bcd60e51b8152600401610c4390614caa565b60138054600101905560408051606081018252338152346020808301919091528251601f8501829004820281018201845284815291928301919085908590819084018382808284376000920182905250939094525050601354815260126020908152604091829020845181546001600160a01b0319166001600160a01b039091161781558482015160018201559184015180519293506131009260028501929190910190613d3a565b5090505060148282604051613116929190614441565b90815260408051918290036020908101832060138054825460018181018555600094855285852090910191909155338352601584529382209054815494850182559082529190209091015534906016906131739085908590614441565b90815260405190819003602001812080549092019091557f08c7c4039b7c98d46cb4ebb0f96ca6a67a506db7c3ddd814f88dd3cfd24e2ae990611b79903390349086908690614481565b60135481565b8051602081830181018051601a8252928201919093012091525481565b336000908152601560209081526040918290208054835181840281018401909452808452606093928301828280156114225760200282019190600052602060002090815481526020019060010190808311611470575050505050905090565b6132476135a0565b6000546001600160a01b039081169116146132745760405162461bcd60e51b8152600401610c4390614a74565b6001600160a01b0381166000908152601d6020526040812061329591613e26565b6001600160a01b0381166000908152601e60209081526040808320839055601f8252808320839055818052808320839055602182528083208390556022825280832083905560238252808320839055602482528083208390556025825280832083905560268252808320839055602790915281208190555b816001600160a01b0316601c828154811061332457fe5b6000918252602090912001546001600160a01b0316146133465760010161330d565b601c54600019018110156133bb57601c816001018154811061336457fe5b600091825260209091200154601c80546001600160a01b03909216918390811061338a57fe5b600091825260209091200180546001600160a01b0319166001600160a01b0392909216919091179055600101613346565b601c8054806133c657fe5b600082815260209020810160001990810180546001600160a01b03191690550190555050565b600060183610801590613403575061340333611a1d565b15613417575060131936013560601c61142a565b503361142a565b613426613d05565b61342e613d05565b61343a8186868661391d565b95945050505050565b6080830151613452908361395a565b60808301516121f6908261395a565b60003060055460405160200161347892919061441f565b60408051808303601f19018152918152815160209283012060055460608701526000818152600690935281832080546001600160a01b0319166001600160a01b038916179055905190925082917fb5e6e01e79f91267dc17b4e6314d5d4d03593d2ceee0fbb452b750bd70ea5af991a26003546001600160a01b0316634000aea0858461350487613971565b6040518463ffffffff1660e01b81526004016135229392919061454a565b602060405180830381600087803b15801561353c57600080fd5b505af1158015613550573d6000803e3d6000fd5b505050506040513d601f19601f8201168201806040525081019061357491906141ca565b6135905760405162461bcd60e51b8152600401610c43906148d6565b6005805460010190559392505050565b60006135aa6133ec565b905090565b60606001600160a01b038216806135df5750506040805180820190915260018152600360fc1b6020820152610e78565b8060005b81156135f757600101600a820491506135e3565b6060816001600160401b038111801561360f57600080fd5b506040519080825280601f01601f19166020018201604052801561363a576020820181803683370190505b50905060001982015b841561368857600a850660300160f81b8282806001900393508151811061366657fe5b60200101906001600160f81b031916908160001a905350600a85049450613643565b5095945050505050565b61369a613eff565b6000838152600f6020908152604091829020825160608101845281546001600160a01b03168152600180830154828501526002808401805487516101009482161594909402600019011691909104601f810186900486028301860187528083529295939493860193919290918301828280156137575780601f1061372c57610100808354040283529160200191613757565b820191906000526020600020905b81548152906001019060200180831161373a57829003601f168201915b5050505050815250509050816001600160a01b03166108fc82602001519081150290604051600060405180830381858888f1935050505015801561379f573d6000803e3d6000fd5b508060200151600d82604001516040516137b99190614451565b90815260408051602092819003830190208054939093039092556000858152600f90915290812080546001600160a01b031916815560018101829055906110b66002830182613e26565b6001600160a01b0382166000908152601d602052604081205483906002600019610100600184161502019091160461384d5760405162461bcd60e51b8152600401610c4390614880565b613855613d05565b6001600160a01b0385166000908152602460205260409020546138809030632fa8e42f60e21b61341e565b6040805180820190915260078152661a5cdcdd59525960ca1b60208201529091506138ad90829086613443565b6138f760405180604001604052806006815260200165185b5bdd5b9d60d21b8152506016866040516138df9190614451565b908152604051908190036020019020548391906139ed565b6001600160a01b03851660009081526025602052604090205461343a9086908390613461565b613925613d05565b6139358560800151610100613a0b565b50509183526001600160a01b031660208301526001600160e01b031916604082015290565b6139678260038351613a45565b6121f68282613b18565b6060634042994660e01b600080846000015185602001518660400151876060015160018960800151600001516040516024016139b49897969594939291906144e2565b60408051601f198184030181529190526020810180516001600160e01b03166001600160e01b0319909316929092179091529050919050565b60808301516139fc908361395a565b60808301516121f69082613b39565b613a13613f29565b6020820615613a285760208206602003820191505b506020828101829052604080518085526000815290920101905290565b60178111613a6657613a608360e0600585901b168317613b49565b506121f6565b60ff8111613a9057613a83836018611fe0600586901b1617613b49565b50613a6083826001613b61565b61ffff8111613abb57613aae836019611fe0600586901b1617613b49565b50613a6083826002613b61565b63ffffffff8111613ae857613adb83601a611fe0600586901b1617613b49565b50613a6083826004613b61565b6001600160401b0381116121f657613b0b83601b611fe0600586901b1617613b49565b50611d7283826008613b61565b613b20613f29565b613b3283846000015151848551613b82565b9392505050565b613b4582600083613a45565b5050565b613b51613f29565b613b328384600001515184613c2e565b613b69613f29565b613b7a848560000151518585613c79565b949350505050565b613b8a613f29565b8251821115613b9857600080fd5b84602001518285011115613bc257613bc285613bba8760200151878601613cd7565b600202613cee565b600080865180518760208301019350808887011115613be15787860182525b505050602084015b60208410613c085780518252601f199093019260209182019101613be9565b51815160001960208690036101000a019081169019919091161790525083949350505050565b613c36613f29565b83602001518310613c5257613c52848560200151600202613cee565b835180516020858301018481535080851415613c6f576001810182525b5093949350505050565b613c81613f29565b84602001518483011115613c9e57613c9e85858401600202613cee565b60006001836101000a039050855183868201018583198251161781525080518487011115613ccc5783860181525b509495945050505050565b600081831115613ce8575081611708565b50919050565b8151613cfa8383613a0b565b50611d728382613b18565b6040805160a081018252600080825260208201819052918101829052606081019190915260808101613d35613f29565b905290565b828054600181600116156101000203166002900490600052602060002090601f016020900481019282601f10613d7b57805160ff1916838001178555613da8565b82800160010185558215613da8579182015b82811115613da8578251825591602001919060010190613d8d565b50613db4929150613f43565b5090565b828054600181600116156101000203166002900490600052602060002090601f016020900481019282601f10613df95782800160ff19823516178555613da8565b82800160010185558215613da8579182015b82811115613da8578235825591602001919060010190613e0b565b50805460018160011615610100020316600290046000825580601f10613e4c5750611bcb565b601f016020900490600052602060002090810190611bcb9190613f43565b828054600181600116156101000203166002900490600052602060002090601f016020900481019282601f10613ea35780548555613da8565b82800160010185558215613da857600052602060002091601f016020900482015b82811115613da8578254825591600101919060010190613ec4565b604080516060808201835281526000602082018190529181019190915290565b604051806060016040528060006001600160a01b0316815260200160008152602001606081525090565b604051806040016040528060608152602001600081525090565b5b80821115613db45760008155600101613f44565b80356001600160a01b038116811461170857600080fd5b60008083601f840112613f80578182fd5b5081356001600160401b03811115613f96578182fd5b602083019150836020828501011115613fae57600080fd5b9250929050565b600082601f830112613fc5578081fd5b81356001600160401b0380821115613fdb578283fd5b604051601f8301601f191681016020018281118282101715613ffb578485fd5b60405282815292508284830160200186101561401657600080fd5b8260208601602083013760006020848301015250505092915050565b600060208284031215614043578081fd5b613b328383613f58565b600080600060408486031215614061578182fd5b61406b8585613f58565b925060208401356001600160401b03811115614085578283fd5b61409186828701613f6f565b9497909650939450505050565b600080604083850312156140b0578182fd5b82356001600160a01b03811681146140c6578283fd5b915060208301356001600160401b038111156140e0578182fd5b6140ec85828601613fb5565b9150509250929050565b60008060006060848603121561410a578283fd5b6141148585613f58565b925060208401356001600160401b038082111561412f578384fd5b61413b87838801613fb5565b93506040860135915080821115614150578283fd5b5061415d86828701613fb5565b9150509250925092565b60008060408385031215614179578182fd5b6141838484613f58565b946020939093013593505050565b600080600080608085870312156141a6578081fd5b6141b08686613f58565b966020860135965060408601359560600135945092505050565b6000602082840312156141db578081fd5b81518015158114613b32578182fd5b6000602082840312156141fb578081fd5b5035919050565b60008060408385031215614214578182fd5b50508035926020909101359150565b60008060208385031215614235578182fd5b82356001600160401b0381111561424a578283fd5b61425685828601613f6f565b90969095509350505050565b600060208284031215614273578081fd5b81356001600160401b03811115614288578182fd5b613b7a84828501613fb5565b600080604083850312156142a6578182fd5b82356001600160401b038111156142bb578283fd5b6142c785828601613fb5565b95602094909401359450505050565b6000602082840312156142e7578081fd5b815160ff81168114613b32578182fd5b6000815180845261430f816020860160208601614d25565b601f01601f19169290920160200192915050565b60008154600180821660008114614341576001811461435857611898565b60ff198316865260028304607f1686019350611898565b600283048560005260208060002060005b838110156143825781548a820152908501908201614369565b50505090950195945050505050565b600081546001808216600081146143af57600181146143cd57611898565b60028304607f16865260ff1983166020870152604086019350611898565b600283048087526143dd86614d19565b60005b828110156144015781546020828b01015284820191506020810190506143e0565b88016020019550505050505092915050565b6000613b328284614323565b60609290921b6bffffffffffffffffffffffff19168252601482015260340190565b6000828483379101908152919050565b60008251614463818460208701614d25565b9190910192915050565b6001600160a01b0391909116815260200190565b6001600160a01b0385168152602081018490526060604082018190528101829052600082846080840137818301608090810191909152601f909201601f191601019392505050565b6001600160a01b03929092168252602082015260400190565b6001600160a01b0389811682526020820189905260408201889052861660608201526001600160e01b03198516608082015260a0810184905260c0810183905261010060e0820181905260009061453b838201856142f7565b9b9a5050505050505050505050565b600060018060a01b03851682528360208301526060604083015261343a60608301846142f7565b6020808252825182820181905260009190848201906040850190845b818110156145b25783516001600160a01b03168352928401929184019160010161458d565b50909695505050505050565b6020808252825182820181905260009190848201906040850190845b818110156145b2578351835292840192918401916001016145da565b901515815260200190565b90815260200190565b600060208252613b3260208301846142f7565b60006060825261463060608301866142f7565b6001600160a01b039490941660208301525060ff91909116604090910152919050565b60006060825261466660608301866142f7565b828103602084015261467881866142f7565b915050826040830152949350505050565b60006040825261469c6040830185614391565b90508260208301529392505050565b6000604082526146be6040830185614391565b828103602084015261343a8185614391565b60208082526030908201527f4465706f73697420646964206e6f742063616d652066726f6d2074686973204560408201526f3a3432b932bab69030b2323932b9b99760811b606082015260800190565b60208082526021908201527f497373756520686173206e6f206465706f7369747320746f2072656c656173656040820152601760f91b606082015260800190565b6020808252601d908201527f50756c6c207265717565737420616c726561647920636c61696d65642e000000604082015260600190565b6020808252603d908201527f5468697320457468657265756d2061646472657373206973206e6f742072656760408201527f69737465726564207769746820616e792047697448756220757365722e000000606082015260800190565b60208082526025908201527f50756c6c207265717565737420636c61696d20776173206e6f7420726571756560408201526439ba32b21760d91b606082015260800190565b60208082526026908201527f4f776e61626c653a206e6577206f776e657220697320746865207a65726f206160408201526564647265737360d01b606082015260800190565b60208082526036908201527f4f6e6c792077686974656c6973746564206f7261636c65732063616e206265206040820152753ab9b2b2103337b9103a3434b9903932b8bab2b9ba1760511b606082015260800190565b60208082526023908201527f756e61626c6520746f207472616e73666572416e6443616c6c20746f206f7261604082015262636c6560e81b606082015260800190565b6020808252601f908201527f4973737565206465706f7369747320616c726561647920636c61696d65642e00604082015260600190565b60208082526027908201527f4465706f736974206973206e6f7420666f72207468697320476974487562206160408201526631b1b7bab73a1760c91b606082015260800190565b60208082526038908201527f4f6e6c792072656769737465726564204769744875622075736572732063616e604082015277103932b632b0b9b29034b9b9bab2903232b837b9b4ba399760411b606082015260800190565b6020808252601e908201527f4e6f7420656e6f7567682066756e647320746f20706179206761734665650000604082015260600190565b6020808252602e908201527f54686973206973737565206465706f73697420686173206265656e207769746860408201526d323930bbb71030b63932b0b23c9760911b606082015260800190565b6020808252818101527f4f776e61626c653a2063616c6c6572206973206e6f7420746865206f776e6572604082015260600190565b6020808252818101527f496e76616c69642073636f72653a2031203c3d2073636f7265203c3d20313030604082015260600190565b60208082526042908201527f4465706f73697420646964206e6f7420636f6d652066726f6d2074686973204560408201527f7468657265756d2061646472657373206f7220646f6573206e6f7420657869736060820152613a1760f11b608082015260a00190565b60208082526027908201527f49737365206465706f7369742072656c6561736520776173206e6f74207265716040820152663ab2b9ba32b21760c91b606082015260800190565b60208082526038908201527f4e6f20476974487562206163636f756e7420726567697374657265642077697460408201527734103a3434b99022ba3432b932bab69030b1b1b7bab73a1760411b606082015260800190565b60208082526028908201527f536f75726365206d75737420626520746865206f7261636c65206f6620746865604082015267081c995c5d595cdd60c21b606082015260800190565b60208082526057908201527f54686520476974487562206163636f756e74207468697320697373756520776160408201527f732072656c656173656420746f20646f6573206e6f742062656c6f6e6720746f606082015276103a3434b99022ba3432b932bab69030b1b1b7bab73a1760491b608082015260a00190565b6020808252601290820152712cb7ba9036bab9ba1039b2b7321022aa241760711b604082015260600190565b60208082526023908201527f54686973204769744875622075736572206973206e6f7420726567697374657260408201526232b21760e91b606082015260800190565b60009081526020902090565b60005b83811015614d40578181015183820152602001614d28565b83811115611d72575050600091015256fe7cc135e0cebb02c3480ae5d74d377283180a2601f8f644edf7987b009316c63aa26469706673582212204cb99f72c9944f84631bbd7de87117b931fb4f26de435f1264a84e3015b6c2e764736f6c634300060c0033",
  "immutableReferences": {},
  "source": "// SPDX-License-Identifier: MIT\npragma solidity ^0.6.0;\npragma experimental ABIEncoderV2;\n\nimport '@openzeppelin/contracts/token/ERC20/ERC20.sol';\nimport '@openzeppelin/contracts/access/Ownable.sol';\nimport '@chainlink/contracts/src/v0.6/ChainlinkClient.sol';\nimport '@opengsn/gsn/contracts/BaseRelayRecipient.sol';\nimport '@opengsn/gsn/contracts/BasePaymaster.sol';\nimport './interfaces/IUniswapV2Router02.sol';\nimport './OctoPin.sol';\n\ncontract OctoBay is Ownable, ChainlinkClient, BaseRelayRecipient {\n\n    function _msgSender() internal override(Context, BaseRelayRecipient)\n    view returns (address payable) {\n        return BaseRelayRecipient._msgSender();\n    }\n\n    function _msgData() internal override(Context,BaseRelayRecipient)\n    view returns (bytes memory ret) {\n        return BaseRelayRecipient._msgData();\n    }\n\n    string public override versionRecipient = '2.0.0'; // GSN version\n\n    IUniswapV2Router02 uniswap;\n    // TODO: Add more events related to user withdrawls\n    event UserDepositEvent(address account, uint256 amount, string githubUser);\n    event UserSendEvent(address account, uint256 amount, string githubUser);\n    event IssueDepositEvent(address account, uint256 amount, string issueId);\n    event ReleaseIssueDepositsEvent(string issueId, string githubUser);\n    event TwitterPost(string issueId, bytes32 tweetId);\n\n    struct User {\n        string githubUser;\n        address ethAddress;\n        uint8 status; // 1 = requested, 2 = confirmed\n    }\n    mapping(bytes32 => User) public users;\n    mapping(address => bytes32) public userIDsByAddress;\n    mapping(string => bytes32) public userIDsByGithubUser;\n    mapping(string => uint256) public userClaimAmountByGithbUser;\n\n    struct UserDeposit {\n        address from;\n        uint256 amount;\n        string githubUser;\n    }\n    uint256 private nextUserDepositId = 0;\n    mapping(uint256 => UserDeposit) public userDeposits;\n    mapping(string => uint256[]) public userDepositIdsByGithubUser;\n    mapping(address => uint256[]) public userDepositIdsBySender;\n\n    struct IssueDeposit {\n        address from;\n        uint256 amount;\n        string issueId;\n    }\n    mapping(uint256 => IssueDeposit) public issueDeposits;\n    uint256 public nextIssueDepositId = 0;\n    mapping(string => uint256[]) public issueDepositIdsByIssueId;\n    mapping(address => uint256[]) public issueDepositIdsBySender;\n    mapping(string => uint256) public issueDepositsAmountByIssueId;\n\n    struct ReleasedIssue {\n        string githubUser;\n        string issueId;\n        uint256 status;\n    }\n    mapping(bytes32 => ReleasedIssue) public releasedIssues;\n    mapping(string => bytes32) public issueReleaseIDsByIssueId;\n\n    struct PullRequestClaim {\n        string githubUser;\n        string prId;\n        uint256 status; // 1 = requested, 2 = confirmed\n    }\n    mapping(bytes32 => PullRequestClaim) public pullRequestClaims;\n    mapping(string => bytes32) public pullRequestClaimIDsByPrId;\n\n    mapping(string => uint256) public issuePins;\n\n    address[] public oracleAddresses;\n    mapping(address => string) public oracleNames;\n    mapping(address => bytes32) public registerJobIds;\n    mapping(address => uint256) public registerJobFees;\n    mapping(address => bytes32) public releaseJobIds;\n    mapping(address => uint256) public releaseJobFees;\n    mapping(address => bytes32) public claimJobIds;\n    mapping(address => uint256) public claimJobFees;\n    mapping(address => bytes32) public twitterPostJobIds;\n    mapping(address => uint256) public twitterPostJobFees;\n    mapping(address => bytes32) public twitterFollowersJobIds;\n    mapping(address => uint256) public twitterFollowersJobFees;\n\n\n    address weth;\n    address link;\n    OctoPin public octoPin;\n    address octobayPaymaster;\n\n    string public twitterAccountId;\n    uint256 public twitterFollowers;\n    mapping(bytes32 => string) public pendingTwitterPostsIssueIds;\n\n    constructor(\n        address _link,\n        address _weth,\n        address _uniswap,\n        address _forwarder\n    ) public {\n        if (_link == address(0)) {\n            setPublicChainlinkToken();\n        } else {\n            setChainlinkToken(_link);\n        }\n        link = _link;\n        weth = _weth;\n        trustedForwarder = _forwarder; // GSN trusted forwarder\n        uniswap = IUniswapV2Router02(_uniswap);\n    }\n\n    function setOctoPin(address _octoPin) external onlyOwner {\n        octoPin = OctoPin(_octoPin);\n    }\n\n    function setPaymaster(address _octobayPaymaster) external onlyOwner {\n        octobayPaymaster = _octobayPaymaster;\n    }\n\n    function setTwitterAccountId(string memory _accountId) external onlyOwner {\n        twitterAccountId = _accountId;\n        twitterFollowers = 0;\n    }\n\n    modifier onlyActiveOracles(address _oracle) {\n      require(bytes(oracleNames[_oracle]).length > 0, \"Only whitelisted oracles can be used for this request.\");\n      _;\n    }\n\n    function setOracle(address _oracle, string calldata name) external onlyOwner {\n      bool exists = false;\n      for (uint i = 0; i < oracleAddresses.length; i++) {\n        if (oracleAddresses[i] == _oracle) {\n          exists = true;\n          break;\n        }\n      }\n      if (!exists) {\n        oracleAddresses.push(_oracle);\n      }\n      oracleNames[_oracle] = name;\n    }\n\n    function setOracleJob(address _oracle, uint256 _jobType, bytes32 _jobId, uint256 _jobFee) external onlyOwner {\n      if (_jobType == 1) {\n        registerJobIds[_oracle] = _jobId;\n        registerJobFees[_oracle] = _jobFee;\n      } else if (_jobType == 2) {\n        releaseJobIds[_oracle] = _jobId;\n        releaseJobFees[_oracle] = _jobFee;\n      } else if (_jobType == 3) {\n        claimJobIds[_oracle] = _jobId;\n        claimJobFees[_oracle] = _jobFee;\n      } else if (_jobType == 4) {\n        twitterPostJobIds[_oracle] = _jobId;\n        twitterPostJobFees[_oracle] = _jobFee;\n      } else if (_jobType == 5) {\n        twitterFollowersJobIds[_oracle] = _jobId;\n        twitterFollowersJobFees[_oracle] = _jobFee;\n      }\n    }\n\n    function removeOracle(address _oracle) external onlyOwner {\n      delete oracleNames[_oracle];\n      delete registerJobIds[_oracle];\n      delete registerJobFees[_oracle];\n      delete releaseJobIds[_oracle];\n      delete releaseJobFees[_oracle];\n      delete claimJobIds[_oracle];\n      delete claimJobFees[_oracle];\n      delete twitterPostJobIds[_oracle];\n      delete twitterPostJobFees[_oracle];\n      delete twitterFollowersJobIds[_oracle];\n      delete twitterFollowersJobFees[_oracle];\n\n      uint i = 0;\n      while (oracleAddresses[i] != _oracle) {\n        i++;\n      }\n      while (i < oracleAddresses.length - 1) {\n        oracleAddresses[i] = oracleAddresses[i + 1];\n        i++;\n      }\n      oracleAddresses.pop();\n    }\n\n    function getOracles() external view returns(address[] memory) {\n      return oracleAddresses;\n    }\n\n    function deductGasFee(string memory _githubUser, uint256 _amount)\n        external\n    {\n        // only paymaster, cause paymaster pays for gas fee on behalf of user\n        require(msg.sender == octobayPaymaster);\n        require(userClaimAmountByGithbUser[_githubUser] >= _amount, 'Not enough funds to pay gasFee');\n\n        userClaimAmountByGithbUser[_githubUser] -= _amount;\n    }\n\n\n    function _swapETHforLink(uint256 _ethAmount, uint256 _linkAmount)\n        internal\n        returns (uint256 _ethOut)\n    {\n        address[] memory path = new address[](2);\n        path[0] = weth;\n        path[1] = link;\n\n        uint256[] memory amounts =\n            uniswap.swapETHForExactTokens{value: _ethAmount}(\n                _linkAmount, // amountOut\n                path,\n                address(this),\n                now\n            );\n    }\n\n    // ------------ USER ONBOARDING ------------ //\n\n    function register(\n        address _oracle,\n        string memory _githubUser\n    ) public onlyActiveOracles(_oracle) {\n        // Trusted and free oracle\n        Chainlink.Request memory request =\n            buildChainlinkRequest(\n                registerJobIds[_oracle],\n                address(this),\n                this.confirmRegistration.selector\n            );\n        request.add('githubUser', _githubUser);\n        request.add('ethAddress', addressToIntString(_msgSender()));\n        bytes32 requestId =\n            sendChainlinkRequestTo(_oracle, request, registerJobFees[_oracle]);\n\n        users[requestId] = User(_githubUser, _msgSender(), 1);\n    }\n\n    function confirmRegistration(bytes32 _requestId)\n        public\n        recordChainlinkFulfillment(_requestId)\n    {\n        // If githubUser was registered before (changed ethAddress now) look for old\n        // ID and delete entry in userIDsByAddress as well as users entry itself (userIDsByGithubUser\n        // has been overridden above anyway).\n        bytes32 oldId = userIDsByGithubUser[users[_requestId].githubUser];\n        delete userIDsByAddress[users[oldId].ethAddress];\n        delete users[oldId];\n        // The scenario where an eth address switches to a new github account\n        // (the other way around) does not occur.\n\n        users[_requestId].status = 2;\n        userIDsByAddress[users[_requestId].ethAddress] = _requestId;\n        userIDsByGithubUser[users[_requestId].githubUser] = _requestId;\n    }\n\n    // ------------ TWITTER POST ------------ //\n\n    function twitterPost(\n        address _oracle,\n        string memory _issueId\n    ) internal onlyActiveOracles(_oracle) returns(bytes32 requestId) {\n        // Trusted and free oracle\n        Chainlink.Request memory request =\n            buildChainlinkRequest(\n                twitterPostJobIds[_oracle],\n                address(this),\n                this.twitterPostConfirm.selector\n            );\n        request.add('issueId', _issueId);\n        request.addUint('amount', issueDepositsAmountByIssueId[_issueId]);\n        requestId = sendChainlinkRequestTo(_oracle, request, twitterPostJobFees[_oracle]);\n    }\n\n    function twitterPostConfirm(bytes32 _requestId, bytes32 _tweetId)\n        public\n        recordChainlinkFulfillment(_requestId)\n    {\n        emit TwitterPost(pendingTwitterPostsIssueIds[_requestId], _tweetId);\n    }\n\n    // ------------ TWITTER FOLLOWERS ------------ //\n\n    function updateTwitterFollowersAndPost(\n        address _oracle,\n        string memory _issueId\n    ) public onlyActiveOracles(_oracle) returns(bytes32 requestId) {\n        // Trusted and free oracle\n        Chainlink.Request memory request =\n            buildChainlinkRequest(\n                twitterFollowersJobIds[_oracle],\n                address(this),\n                this.updateTwitterFollowersConfirm.selector\n            );\n        request.add('accountId', twitterAccountId);\n        requestId = sendChainlinkRequestTo(_oracle, request, twitterFollowersJobFees[_oracle]);\n        pendingTwitterPostsIssueIds[requestId] = _issueId;\n    }\n\n    function updateTwitterFollowersConfirm(bytes32 _requestId, uint256 _followers)\n        public\n        recordChainlinkFulfillment(_requestId)\n    {\n        twitterFollowers = _followers;\n        bytes32 postRequestId = twitterPost(msg.sender, pendingTwitterPostsIssueIds[_requestId]);\n        pendingTwitterPostsIssueIds[postRequestId] = pendingTwitterPostsIssueIds[_requestId];\n        delete pendingTwitterPostsIssueIds[_requestId];\n    }\n\n    // ------------ USER DEPOSITS ------------ //\n\n    function depositEthForGithubUser(string calldata _githubUser)\n        external\n        payable\n    {\n        require(msg.value > 0, 'You must send ETH.');\n        User memory user = users[userIDsByGithubUser[_githubUser]];\n\n        if(user.ethAddress != address(0) && user.status == 2) { // Registered and verified user\n            payable(users[userIDsByGithubUser[_githubUser]].ethAddress).transfer(\n                msg.value\n            );\n\n            emit UserSendEvent(msg.sender, msg.value, _githubUser);\n\n        } else {    // hold funds in contract\n            nextUserDepositId++;\n            userDeposits[nextUserDepositId] = UserDeposit(\n                msg.sender,\n                msg.value,\n                _githubUser\n            );\n            userDepositIdsByGithubUser[_githubUser].push(nextUserDepositId);\n            userDepositIdsBySender[msg.sender].push(nextUserDepositId);\n\n            // increment claim amount\n            userClaimAmountByGithbUser[_githubUser] += msg.value;\n\n            emit UserDepositEvent(msg.sender, msg.value, _githubUser);\n        }\n    }\n\n    function _sendDeposit(uint256 _depositId, address _to) internal {\n        UserDeposit memory deposit = userDeposits[_depositId];\n        payable(_to).transfer(deposit.amount);\n\n        // reduce claim amount\n        userClaimAmountByGithbUser[deposit.githubUser] -= deposit.amount;\n\n        delete userDeposits[_depositId];\n    }\n\n\n    function refundUserDeposit(uint256 _depositId) external {\n        require(\n            userDeposits[_depositId].from == msg.sender,\n            'Deposit did not came from this Ethereum address.'\n        );\n        _sendDeposit(_depositId, msg.sender);   // msg.sender is depositor\n    }\n\n\n    // ------------ USER WITHDRAWALS ------------ //\n\n\n    function withdrawUserDeposit(uint256 _depositId) external {\n        require(\n            users[userIDsByAddress[msg.sender]].ethAddress == msg.sender,\n            'This Ethereum address is not registered with any GitHub user.'\n        );\n        require(\n            keccak256(bytes(userDeposits[_depositId].githubUser)) ==\n                keccak256(\n                    bytes(users[userIDsByAddress[msg.sender]].githubUser)\n                ),\n            'Deposit is not for this GitHub account.'\n        );\n        _sendDeposit(_depositId, msg.sender);   // msg.sender is user\n    }\n\n\n\n    // ------------ ISSUE DEPOSITS ------------ //\n\n    function depositEthForIssue(string calldata _issueId) external payable {\n        require(msg.value > 0, 'You must send ETH.');\n        nextIssueDepositId++;\n        issueDeposits[nextIssueDepositId] = IssueDeposit(\n            msg.sender,\n            msg.value,\n            _issueId\n        );\n        issueDepositIdsByIssueId[_issueId].push(nextIssueDepositId);\n        issueDepositIdsBySender[msg.sender].push(nextIssueDepositId);\n        issueDepositsAmountByIssueId[_issueId] += msg.value;\n        emit IssueDepositEvent(msg.sender, msg.value, _issueId);\n    }\n\n    function refundIssueDeposit(uint256 _depositId) external {\n        require(\n            issueDeposits[_depositId].from == msg.sender,\n            'Deposit did not come from this Ethereum address or does not exist.'\n        );\n        require(\n            issueDepositsAmountByIssueId[issueDeposits[_depositId].issueId] >=\n                issueDeposits[_depositId].amount,\n            'This issue deposit has been withdrawn already.'\n        );\n        payable(msg.sender).transfer(issueDeposits[_depositId].amount);\n        issueDepositsAmountByIssueId[\n            issueDeposits[_depositId].issueId\n        ] -= issueDeposits[_depositId].amount;\n        delete issueDeposits[_depositId];\n    }\n\n\n    // ------------ ISSUE-DEPOSIT RELEASES ------------ //\n\n    function releaseIssueDeposits(\n        address _oracle,\n        string memory _issueId,\n        string memory _githubUser\n    ) public onlyActiveOracles(_oracle) {\n        require(\n            issueDepositsAmountByIssueId[_issueId] > 0,\n            'Issue has no deposits to release.'\n        );\n        require(\n            users[userIDsByAddress[msg.sender]].ethAddress == msg.sender,\n            'Only registered GitHub users can release issue deposits.'\n        );\n\n        Chainlink.Request memory request =\n            buildChainlinkRequest(\n                releaseJobIds[_oracle],\n                address(this),\n                this.confirmReleaseIssueDeposits.selector\n            );\n        request.add('githubUser', _githubUser);\n        request.add('issueId', _issueId);\n        bytes32 requestId =\n            sendChainlinkRequestTo(_oracle, request, releaseJobFees[_oracle]);\n\n        releasedIssues[requestId] = ReleasedIssue(_githubUser, _issueId, 1);\n        issueReleaseIDsByIssueId[_issueId] = requestId;\n    }\n\n    function confirmReleaseIssueDeposits(bytes32 _requestId)\n        public\n        recordChainlinkFulfillment(_requestId)\n    {\n        require(\n            releasedIssues[_requestId].status == 1,\n            'Isse deposit release was not requested.'\n        );\n        releasedIssues[_requestId].status = 2;\n\n        // add released issue funds to user deposits\n        userClaimAmountByGithbUser[releasedIssues[_requestId].githubUser] +=\n            issueDepositsAmountByIssueId[releasedIssues[_requestId].issueId];\n\n        emit ReleaseIssueDepositsEvent(\n            releasedIssues[_requestId].issueId,\n            releasedIssues[_requestId].githubUser\n        );\n    }\n\n    function claimReleasedIssueDeposits(string calldata _issueId) external {\n        require(\n            users[userIDsByAddress[msg.sender]].ethAddress == msg.sender,\n            'No GitHub account registered with this Ethereum account.'\n        );\n        require(\n            keccak256(\n                bytes(\n                    releasedIssues[issueReleaseIDsByIssueId[_issueId]]\n                        .githubUser\n                )\n            ) ==\n                keccak256(\n                    bytes(users[userIDsByAddress[msg.sender]].githubUser)\n                ),\n            'The GitHub account this issue was released to does not belong to this Ethereum account.'\n        );\n        require(\n            issueDepositsAmountByIssueId[_issueId] > 0,\n            'Issue deposits already claimed.'\n        );\n\n        payable(msg.sender).transfer(issueDepositsAmountByIssueId[_issueId]);\n        // subtract released issue funds from user deposits\n        userClaimAmountByGithbUser[users[userIDsByAddress[msg.sender]].githubUser] -=\n            issueDepositsAmountByIssueId[_issueId];\n\n        issueDepositsAmountByIssueId[_issueId] = 0;\n    }\n\n    // ------------ PULL REQUESTS ------------ //\n\n    function claimPullRequest(\n        address _oracle,\n        string memory _prId,\n        string memory _githubUser\n    ) public onlyActiveOracles(_oracle) {\n        require(\n            pullRequestClaims[pullRequestClaimIDsByPrId[_prId]].status != 2,\n            'Pull request already claimed.'\n        );\n        require(\n            users[userIDsByGithubUser[_githubUser]].status == 2,\n            'This GitHub user is not registered.'\n        );\n\n        Chainlink.Request memory request =\n            buildChainlinkRequest(\n                claimJobIds[_oracle],\n                address(this),\n                this.confirmPullRequestClaim.selector\n            );\n        request.add('githubUser', _githubUser);\n        request.add('prId', _prId);\n        bytes32 requestId = sendChainlinkRequestTo(_oracle, request, claimJobFees[_oracle]);\n\n        pullRequestClaims[requestId] = PullRequestClaim(_githubUser, _prId, 1);\n    }\n\n    function confirmPullRequestClaim(bytes32 _requestId, uint256 _score)\n        public\n        recordChainlinkFulfillment(_requestId)\n    {\n        require(\n            1 <= _score && _score <= 100,\n            'Invalid score: 1 <= score <= 100'\n        );\n        require(\n            pullRequestClaims[_requestId].status == 1,\n            'Pull request claim was not requested.'\n        );\n        require(\n            users[userIDsByGithubUser[pullRequestClaims[_requestId].githubUser]]\n                .ethAddress != address(0),\n            'This GitHub user is not registered.'\n        );\n\n        pullRequestClaims[_requestId].status = 2;\n        octoPin.mintOnPullRequestClaim(\n            users[userIDsByGithubUser[pullRequestClaims[_requestId].githubUser]]\n                .ethAddress,\n            _score * uint256(10)**octoPin.decimals()\n        );\n    }\n\n\n    // ------------ GETTERS ------------ //\n\n     function getUserDepositIdsForGithubUser(string calldata _githubUser)\n        external\n        view\n        returns (uint256[] memory)\n    {\n        return userDepositIdsByGithubUser[_githubUser];\n    }\n\n    function getUserDepositIdsForSender()\n        external\n        view\n        returns (uint256[] memory)\n    {\n        return userDepositIdsBySender[msg.sender];\n    }\n\n    function getIssueDepositIdsForIssueId(string calldata _depositId)\n        external\n        view\n        returns (uint256[] memory)\n    {\n        return issueDepositIdsByIssueId[_depositId];\n    }\n\n    function getIssueDepositIdsForSender()\n        external\n        view\n        returns (uint256[] memory)\n    {\n        return issueDepositIdsBySender[msg.sender];\n    }\n\n    function getUserClaimAmount(string memory _githubUser)\n        external\n        view\n        returns (uint256)\n    {\n        return userClaimAmountByGithbUser[_githubUser];\n    }\n\n\n    // ------------ UTILS ------------ //\n\n    function addressToIntString(address _address)\n        internal\n        pure\n        returns (string memory _string)\n    {\n        uint256 _i = uint256(_address);\n        if (_i == 0) {\n            return '0';\n        }\n        uint256 j = _i;\n        uint256 len;\n        while (j != 0) {\n            len++;\n            j /= 10;\n        }\n        bytes memory bstr = new bytes(len);\n        uint256 k = len - 1;\n        while (_i != 0) {\n            bstr[k--] = bytes1(uint8(48 + (_i % 10)));\n            _i /= 10;\n        }\n        return string(bstr);\n    }\n}\n",
  "sourcePath": "/home/mkt/Projects/octobay/contracts/contracts/OctoBay.sol",
  "compiler": {
    "name": "solc",
    "version": "0.6.12+commit.27d51765.Emscripten.clang"
  },
  "schemaVersion": "3.2.5",
  "updatedAt": "2021-01-20T13:30:28.761Z",
  "devdoc": {
    "kind": "dev",
    "methods": {
      "owner()": {
        "details": "Returns the address of the current owner."
      },
      "renounceOwnership()": {
        "details": "Leaves the contract without owner. It will not be possible to call `onlyOwner` functions anymore. Can only be called by the current owner. NOTE: Renouncing ownership will leave the contract without an owner, thereby removing any functionality that is only available to the owner."
      },
      "transferOwnership(address)": {
        "details": "Transfers ownership of the contract to a new account (`newOwner`). Can only be called by the current owner."
      }
    },
    "version": 1
  },
  "userdoc": {
    "kind": "user",
    "methods": {
      "isTrustedForwarder(address)": {
        "notice": "return if the forwarder is trusted to forward relayed transactions to us. the forwarder is required to verify the sender's signature, and verify the call is not a replay."
      }
    },
    "version": 1
  }
}