{
  "contractName": "OctoBay",
  "abi": [
    {
      "inputs": [
        {
          "internalType": "address",
          "name": "_link",
          "type": "address"
        },
        {
          "internalType": "address",
          "name": "_weth",
          "type": "address"
        },
        {
          "internalType": "address",
          "name": "_uniswap",
          "type": "address"
        },
        {
          "internalType": "address",
          "name": "_forwarder",
          "type": "address"
        }
      ],
      "stateMutability": "nonpayable",
      "type": "constructor"
    },
    {
      "anonymous": false,
      "inputs": [
        {
          "indexed": true,
          "internalType": "bytes32",
          "name": "id",
          "type": "bytes32"
        }
      ],
      "name": "ChainlinkCancelled",
      "type": "event"
    },
    {
      "anonymous": false,
      "inputs": [
        {
          "indexed": true,
          "internalType": "bytes32",
          "name": "id",
          "type": "bytes32"
        }
      ],
      "name": "ChainlinkFulfilled",
      "type": "event"
    },
    {
      "anonymous": false,
      "inputs": [
        {
          "indexed": true,
          "internalType": "bytes32",
          "name": "id",
          "type": "bytes32"
        }
      ],
      "name": "ChainlinkRequested",
      "type": "event"
    },
    {
      "anonymous": false,
      "inputs": [
        {
          "indexed": false,
          "internalType": "address",
          "name": "from",
          "type": "address"
        },
        {
          "indexed": false,
          "internalType": "uint256",
          "name": "amount",
          "type": "uint256"
        },
        {
          "indexed": false,
          "internalType": "string",
          "name": "issueId",
          "type": "string"
        },
        {
          "indexed": false,
          "internalType": "uint256",
          "name": "depositId",
          "type": "uint256"
        }
      ],
      "name": "IssueDepositEvent",
      "type": "event"
    },
    {
      "anonymous": false,
      "inputs": [
        {
          "indexed": false,
          "internalType": "address",
          "name": "oracle",
          "type": "address"
        },
        {
          "indexed": false,
          "internalType": "string",
          "name": "name",
          "type": "string"
        }
      ],
      "name": "OracleAddedEvent",
      "type": "event"
    },
    {
      "anonymous": false,
      "inputs": [
        {
          "indexed": false,
          "internalType": "address",
          "name": "oracle",
          "type": "address"
        },
        {
          "indexed": false,
          "internalType": "enum OctoBay.jobName",
          "name": "name",
          "type": "uint8"
        }
      ],
      "name": "OracleJobAddedEvent",
      "type": "event"
    },
    {
      "anonymous": false,
      "inputs": [
        {
          "indexed": false,
          "internalType": "address",
          "name": "oracle",
          "type": "address"
        },
        {
          "indexed": false,
          "internalType": "enum OctoBay.jobName",
          "name": "name",
          "type": "uint8"
        }
      ],
      "name": "OracleJobRemovedEvent",
      "type": "event"
    },
    {
      "anonymous": false,
      "inputs": [
        {
          "indexed": false,
          "internalType": "address",
          "name": "oracle",
          "type": "address"
        },
        {
          "indexed": false,
          "internalType": "string",
          "name": "name",
          "type": "string"
        }
      ],
      "name": "OracleNameChangedEvent",
      "type": "event"
    },
    {
      "anonymous": false,
      "inputs": [
        {
          "indexed": false,
          "internalType": "address",
          "name": "oracle",
          "type": "address"
        }
      ],
      "name": "OracleRemovedEvent",
      "type": "event"
    },
    {
      "anonymous": false,
      "inputs": [
        {
          "indexed": true,
          "internalType": "address",
          "name": "previousOwner",
          "type": "address"
        },
        {
          "indexed": true,
          "internalType": "address",
          "name": "newOwner",
          "type": "address"
        }
      ],
      "name": "OwnershipTransferred",
      "type": "event"
    },
    {
      "anonymous": false,
      "inputs": [
        {
          "indexed": false,
          "internalType": "string",
          "name": "issueId",
          "type": "string"
        },
        {
          "indexed": false,
          "internalType": "string",
          "name": "githubUser",
          "type": "string"
        }
      ],
      "name": "ReleaseIssueDepositsEvent",
      "type": "event"
    },
    {
      "anonymous": false,
      "inputs": [
        {
          "indexed": false,
          "internalType": "string",
          "name": "issueId",
          "type": "string"
        },
        {
          "indexed": false,
          "internalType": "bytes32",
          "name": "tweetId",
          "type": "bytes32"
        }
      ],
      "name": "TwitterPostEvent",
      "type": "event"
    },
    {
      "anonymous": false,
      "inputs": [
        {
          "indexed": false,
          "internalType": "bytes32",
          "name": "id",
          "type": "bytes32"
        },
        {
          "indexed": false,
          "internalType": "string",
          "name": "name",
          "type": "string"
        },
        {
          "indexed": false,
          "internalType": "address",
          "name": "ethAddress",
          "type": "address"
        },
        {
          "indexed": false,
          "internalType": "uint8",
          "name": "status",
          "type": "uint8"
        }
      ],
      "name": "UserAddedEvent",
      "type": "event"
    },
    {
      "anonymous": false,
      "inputs": [
        {
          "indexed": false,
          "internalType": "address",
          "name": "from",
          "type": "address"
        },
        {
          "indexed": false,
          "internalType": "uint256",
          "name": "amount",
          "type": "uint256"
        },
        {
          "indexed": false,
          "internalType": "string",
          "name": "githubUser",
          "type": "string"
        }
      ],
      "name": "UserDepositEvent",
      "type": "event"
    },
    {
      "anonymous": false,
      "inputs": [
        {
          "indexed": false,
          "internalType": "address",
          "name": "from",
          "type": "address"
        },
        {
          "indexed": false,
          "internalType": "uint256",
          "name": "amount",
          "type": "uint256"
        },
        {
          "indexed": false,
          "internalType": "string",
          "name": "githubUser",
          "type": "string"
        }
      ],
      "name": "UserSendEvent",
      "type": "event"
    },
    {
      "inputs": [
        {
          "internalType": "address",
          "name": "forwarder",
          "type": "address"
        }
      ],
      "name": "isTrustedForwarder",
      "outputs": [
        {
          "internalType": "bool",
          "name": "",
          "type": "bool"
        }
      ],
      "stateMutability": "view",
      "type": "function"
    },
    {
      "inputs": [
        {
          "internalType": "string",
          "name": "",
          "type": "string"
        },
        {
          "internalType": "uint256",
          "name": "",
          "type": "uint256"
        }
      ],
      "name": "issueDepositIdsByIssueId",
      "outputs": [
        {
          "internalType": "uint256",
          "name": "",
          "type": "uint256"
        }
      ],
      "stateMutability": "view",
      "type": "function"
    },
    {
      "inputs": [
        {
          "internalType": "address",
          "name": "",
          "type": "address"
        },
        {
          "internalType": "uint256",
          "name": "",
          "type": "uint256"
        }
      ],
      "name": "issueDepositIdsBySender",
      "outputs": [
        {
          "internalType": "uint256",
          "name": "",
          "type": "uint256"
        }
      ],
      "stateMutability": "view",
      "type": "function"
    },
    {
      "inputs": [
        {
          "internalType": "uint256",
          "name": "",
          "type": "uint256"
        }
      ],
      "name": "issueDeposits",
      "outputs": [
        {
          "internalType": "address",
          "name": "from",
          "type": "address"
        },
        {
          "internalType": "uint256",
          "name": "amount",
          "type": "uint256"
        },
        {
          "internalType": "string",
          "name": "issueId",
          "type": "string"
        }
      ],
      "stateMutability": "view",
      "type": "function"
    },
    {
      "inputs": [
        {
          "internalType": "string",
          "name": "",
          "type": "string"
        }
      ],
      "name": "issueDepositsAmountByIssueId",
      "outputs": [
        {
          "internalType": "uint256",
          "name": "",
          "type": "uint256"
        }
      ],
      "stateMutability": "view",
      "type": "function"
    },
    {
      "inputs": [
        {
          "internalType": "string",
          "name": "",
          "type": "string"
        }
      ],
      "name": "issuePins",
      "outputs": [
        {
          "internalType": "uint256",
          "name": "",
          "type": "uint256"
        }
      ],
      "stateMutability": "view",
      "type": "function"
    },
    {
      "inputs": [
        {
          "internalType": "string",
          "name": "",
          "type": "string"
        }
      ],
      "name": "issueReleaseIDsByIssueId",
      "outputs": [
        {
          "internalType": "bytes32",
          "name": "",
          "type": "bytes32"
        }
      ],
      "stateMutability": "view",
      "type": "function"
    },
    {
      "inputs": [],
      "name": "nextIssueDepositId",
      "outputs": [
        {
          "internalType": "uint256",
          "name": "",
          "type": "uint256"
        }
      ],
      "stateMutability": "view",
      "type": "function"
    },
    {
      "inputs": [],
      "name": "octoPin",
      "outputs": [
        {
          "internalType": "contract OctoPin",
          "name": "",
          "type": "address"
        }
      ],
      "stateMutability": "view",
      "type": "function"
    },
    {
      "inputs": [
        {
          "internalType": "address",
          "name": "",
          "type": "address"
        }
      ],
      "name": "oracles",
      "outputs": [
        {
          "internalType": "string",
          "name": "name",
          "type": "string"
        }
      ],
      "stateMutability": "view",
      "type": "function"
    },
    {
      "inputs": [],
      "name": "owner",
      "outputs": [
        {
          "internalType": "address",
          "name": "",
          "type": "address"
        }
      ],
      "stateMutability": "view",
      "type": "function"
    },
    {
      "inputs": [
        {
          "internalType": "bytes32",
          "name": "",
          "type": "bytes32"
        }
      ],
      "name": "pendingTwitterPostsIssueIds",
      "outputs": [
        {
          "internalType": "string",
          "name": "",
          "type": "string"
        }
      ],
      "stateMutability": "view",
      "type": "function"
    },
    {
      "inputs": [
        {
          "internalType": "string",
          "name": "",
          "type": "string"
        }
      ],
      "name": "pullRequestClaimIDsByPrId",
      "outputs": [
        {
          "internalType": "bytes32",
          "name": "",
          "type": "bytes32"
        }
      ],
      "stateMutability": "view",
      "type": "function"
    },
    {
      "inputs": [
        {
          "internalType": "bytes32",
          "name": "",
          "type": "bytes32"
        }
      ],
      "name": "pullRequestClaims",
      "outputs": [
        {
          "internalType": "string",
          "name": "githubUser",
          "type": "string"
        },
        {
          "internalType": "string",
          "name": "prId",
          "type": "string"
        },
        {
          "internalType": "uint256",
          "name": "status",
          "type": "uint256"
        }
      ],
      "stateMutability": "view",
      "type": "function"
    },
    {
      "inputs": [
        {
          "internalType": "uint256",
          "name": "",
          "type": "uint256"
        }
      ],
      "name": "registeredOracles",
      "outputs": [
        {
          "internalType": "address",
          "name": "",
          "type": "address"
        }
      ],
      "stateMutability": "view",
      "type": "function"
    },
    {
      "inputs": [
        {
          "internalType": "bytes32",
          "name": "",
          "type": "bytes32"
        }
      ],
      "name": "releasedIssues",
      "outputs": [
        {
          "internalType": "string",
          "name": "githubUser",
          "type": "string"
        },
        {
          "internalType": "string",
          "name": "issueId",
          "type": "string"
        },
        {
          "internalType": "uint256",
          "name": "status",
          "type": "uint256"
        }
      ],
      "stateMutability": "view",
      "type": "function"
    },
    {
      "inputs": [],
      "name": "renounceOwnership",
      "outputs": [],
      "stateMutability": "nonpayable",
      "type": "function"
    },
    {
      "inputs": [
        {
          "internalType": "address",
          "name": "newOwner",
          "type": "address"
        }
      ],
      "name": "transferOwnership",
      "outputs": [],
      "stateMutability": "nonpayable",
      "type": "function"
    },
    {
      "inputs": [],
      "name": "trustedForwarder",
      "outputs": [
        {
          "internalType": "address",
          "name": "",
          "type": "address"
        }
      ],
      "stateMutability": "view",
      "type": "function"
    },
    {
      "inputs": [],
      "name": "twitterAccountId",
      "outputs": [
        {
          "internalType": "string",
          "name": "",
          "type": "string"
        }
      ],
      "stateMutability": "view",
      "type": "function"
    },
    {
      "inputs": [],
      "name": "twitterFollowers",
      "outputs": [
        {
          "internalType": "uint256",
          "name": "",
          "type": "uint256"
        }
      ],
      "stateMutability": "view",
      "type": "function"
    },
    {
      "inputs": [
        {
          "internalType": "string",
          "name": "",
          "type": "string"
        }
      ],
      "name": "userClaimAmountByGithbUser",
      "outputs": [
        {
          "internalType": "uint256",
          "name": "",
          "type": "uint256"
        }
      ],
      "stateMutability": "view",
      "type": "function"
    },
    {
      "inputs": [
        {
          "internalType": "string",
          "name": "",
          "type": "string"
        },
        {
          "internalType": "uint256",
          "name": "",
          "type": "uint256"
        }
      ],
      "name": "userDepositIdsByGithubUser",
      "outputs": [
        {
          "internalType": "uint256",
          "name": "",
          "type": "uint256"
        }
      ],
      "stateMutability": "view",
      "type": "function"
    },
    {
      "inputs": [
        {
          "internalType": "address",
          "name": "",
          "type": "address"
        },
        {
          "internalType": "uint256",
          "name": "",
          "type": "uint256"
        }
      ],
      "name": "userDepositIdsBySender",
      "outputs": [
        {
          "internalType": "uint256",
          "name": "",
          "type": "uint256"
        }
      ],
      "stateMutability": "view",
      "type": "function"
    },
    {
      "inputs": [
        {
          "internalType": "uint256",
          "name": "",
          "type": "uint256"
        }
      ],
      "name": "userDeposits",
      "outputs": [
        {
          "internalType": "address",
          "name": "from",
          "type": "address"
        },
        {
          "internalType": "uint256",
          "name": "amount",
          "type": "uint256"
        },
        {
          "internalType": "string",
          "name": "githubUser",
          "type": "string"
        }
      ],
      "stateMutability": "view",
      "type": "function"
    },
    {
      "inputs": [
        {
          "internalType": "address",
          "name": "",
          "type": "address"
        }
      ],
      "name": "userIDsByAddress",
      "outputs": [
        {
          "internalType": "bytes32",
          "name": "",
          "type": "bytes32"
        }
      ],
      "stateMutability": "view",
      "type": "function"
    },
    {
      "inputs": [
        {
          "internalType": "string",
          "name": "",
          "type": "string"
        }
      ],
      "name": "userIDsByGithubUser",
      "outputs": [
        {
          "internalType": "bytes32",
          "name": "",
          "type": "bytes32"
        }
      ],
      "stateMutability": "view",
      "type": "function"
    },
    {
      "inputs": [
        {
          "internalType": "bytes32",
          "name": "",
          "type": "bytes32"
        }
      ],
      "name": "users",
      "outputs": [
        {
          "internalType": "string",
          "name": "githubUser",
          "type": "string"
        },
        {
          "internalType": "address",
          "name": "ethAddress",
          "type": "address"
        },
        {
          "internalType": "uint8",
          "name": "status",
          "type": "uint8"
        }
      ],
      "stateMutability": "view",
      "type": "function"
    },
    {
      "inputs": [],
      "name": "versionRecipient",
      "outputs": [
        {
          "internalType": "string",
          "name": "",
          "type": "string"
        }
      ],
      "stateMutability": "view",
      "type": "function"
    },
    {
      "inputs": [
        {
          "internalType": "address",
          "name": "_octoPin",
          "type": "address"
        }
      ],
      "name": "setOctoPin",
      "outputs": [],
      "stateMutability": "nonpayable",
      "type": "function"
    },
    {
      "inputs": [
        {
          "internalType": "address",
          "name": "_octobayPaymaster",
          "type": "address"
        }
      ],
      "name": "setPaymaster",
      "outputs": [],
      "stateMutability": "nonpayable",
      "type": "function"
    },
    {
      "inputs": [
        {
          "internalType": "string",
          "name": "_accountId",
          "type": "string"
        }
      ],
      "name": "setTwitterAccountId",
      "outputs": [],
      "stateMutability": "nonpayable",
      "type": "function"
    },
    {
      "inputs": [
        {
          "internalType": "address",
          "name": "_oracle",
          "type": "address"
        },
        {
          "internalType": "string",
          "name": "_name",
          "type": "string"
        },
        {
          "internalType": "enum OctoBay.jobName[]",
          "name": "_jobNames",
          "type": "uint8[]"
        },
        {
          "components": [
            {
              "internalType": "bytes32",
              "name": "id",
              "type": "bytes32"
            },
            {
              "internalType": "uint256",
              "name": "fee",
              "type": "uint256"
            }
          ],
          "internalType": "struct OctoBay.Job[]",
          "name": "_jobs",
          "type": "tuple[]"
        }
      ],
      "name": "addOracle",
      "outputs": [],
      "stateMutability": "nonpayable",
      "type": "function"
    },
    {
      "inputs": [
        {
          "internalType": "address",
          "name": "_oracle",
          "type": "address"
        }
      ],
      "name": "removeOracle",
      "outputs": [],
      "stateMutability": "nonpayable",
      "type": "function"
    },
    {
      "inputs": [
        {
          "internalType": "address",
          "name": "_oracle",
          "type": "address"
        },
        {
          "internalType": "string",
          "name": "_name",
          "type": "string"
        }
      ],
      "name": "changeOracleName",
      "outputs": [],
      "stateMutability": "nonpayable",
      "type": "function"
    },
    {
      "inputs": [
        {
          "internalType": "address",
          "name": "_oracle",
          "type": "address"
        },
        {
          "internalType": "enum OctoBay.jobName",
          "name": "_jobName",
          "type": "uint8"
        },
        {
          "components": [
            {
              "internalType": "bytes32",
              "name": "id",
              "type": "bytes32"
            },
            {
              "internalType": "uint256",
              "name": "fee",
              "type": "uint256"
            }
          ],
          "internalType": "struct OctoBay.Job",
          "name": "_job",
          "type": "tuple"
        }
      ],
      "name": "addOracleJob",
      "outputs": [],
      "stateMutability": "nonpayable",
      "type": "function"
    },
    {
      "inputs": [
        {
          "internalType": "address",
          "name": "_oracle",
          "type": "address"
        },
        {
          "internalType": "enum OctoBay.jobName",
          "name": "_jobName",
          "type": "uint8"
        }
      ],
      "name": "removeOracleJob",
      "outputs": [],
      "stateMutability": "nonpayable",
      "type": "function"
    },
    {
      "inputs": [
        {
          "internalType": "address",
          "name": "_oracle",
          "type": "address"
        }
      ],
      "name": "getOracleName",
      "outputs": [
        {
          "internalType": "string",
          "name": "",
          "type": "string"
        }
      ],
      "stateMutability": "view",
      "type": "function"
    },
    {
      "inputs": [
        {
          "internalType": "address",
          "name": "_oracle",
          "type": "address"
        },
        {
          "internalType": "enum OctoBay.jobName",
          "name": "_job",
          "type": "uint8"
        }
      ],
      "name": "getOracleJob",
      "outputs": [
        {
          "internalType": "bytes32",
          "name": "",
          "type": "bytes32"
        },
        {
          "internalType": "uint256",
          "name": "",
          "type": "uint256"
        }
      ],
      "stateMutability": "view",
      "type": "function"
    },
    {
      "inputs": [
        {
          "internalType": "string",
          "name": "_githubUser",
          "type": "string"
        },
        {
          "internalType": "uint256",
          "name": "_amount",
          "type": "uint256"
        }
      ],
      "name": "deductGasFee",
      "outputs": [],
      "stateMutability": "nonpayable",
      "type": "function"
    },
    {
      "inputs": [
        {
          "internalType": "address",
          "name": "_oracle",
          "type": "address"
        },
        {
          "internalType": "string",
          "name": "_githubUser",
          "type": "string"
        }
      ],
      "name": "register",
      "outputs": [
        {
          "internalType": "bytes32",
          "name": "requestId",
          "type": "bytes32"
        }
      ],
      "stateMutability": "nonpayable",
      "type": "function"
    },
    {
      "inputs": [
        {
          "internalType": "bytes32",
          "name": "_requestId",
          "type": "bytes32"
        }
      ],
      "name": "confirmRegistration",
      "outputs": [],
      "stateMutability": "nonpayable",
      "type": "function"
    },
    {
      "inputs": [
        {
          "internalType": "bytes32",
          "name": "_requestId",
          "type": "bytes32"
        },
        {
          "internalType": "bytes32",
          "name": "_tweetId",
          "type": "bytes32"
        }
      ],
      "name": "twitterPostConfirm",
      "outputs": [],
      "stateMutability": "nonpayable",
      "type": "function"
    },
    {
      "inputs": [
        {
          "internalType": "address",
          "name": "_oracle",
          "type": "address"
        },
        {
          "internalType": "string",
          "name": "_issueId",
          "type": "string"
        }
      ],
      "name": "updateTwitterFollowersAndPost",
      "outputs": [
        {
          "internalType": "bytes32",
          "name": "requestId",
          "type": "bytes32"
        }
      ],
      "stateMutability": "nonpayable",
      "type": "function"
    },
    {
      "inputs": [
        {
          "internalType": "bytes32",
          "name": "_requestId",
          "type": "bytes32"
        },
        {
          "internalType": "uint256",
          "name": "_followers",
          "type": "uint256"
        }
      ],
      "name": "updateTwitterFollowersConfirm",
      "outputs": [],
      "stateMutability": "nonpayable",
      "type": "function"
    },
    {
      "inputs": [
        {
          "internalType": "string",
          "name": "_githubUser",
          "type": "string"
        }
      ],
      "name": "depositEthForGithubUser",
      "outputs": [],
      "stateMutability": "payable",
      "type": "function"
    },
    {
      "inputs": [
        {
          "internalType": "uint256",
          "name": "_depositId",
          "type": "uint256"
        }
      ],
      "name": "refundUserDeposit",
      "outputs": [],
      "stateMutability": "nonpayable",
      "type": "function"
    },
    {
      "inputs": [
        {
          "internalType": "uint256",
          "name": "_depositId",
          "type": "uint256"
        }
      ],
      "name": "withdrawUserDeposit",
      "outputs": [],
      "stateMutability": "nonpayable",
      "type": "function"
    },
    {
      "inputs": [
        {
          "internalType": "string",
          "name": "_issueId",
          "type": "string"
        }
      ],
      "name": "depositEthForIssue",
      "outputs": [],
      "stateMutability": "payable",
      "type": "function"
    },
    {
      "inputs": [
        {
          "internalType": "uint256",
          "name": "_depositId",
          "type": "uint256"
        }
      ],
      "name": "refundIssueDeposit",
      "outputs": [],
      "stateMutability": "nonpayable",
      "type": "function"
    },
    {
      "inputs": [
        {
          "internalType": "address",
          "name": "_oracle",
          "type": "address"
        },
        {
          "internalType": "string",
          "name": "_issueId",
          "type": "string"
        },
        {
          "internalType": "string",
          "name": "_githubUser",
          "type": "string"
        }
      ],
      "name": "releaseIssueDeposits",
      "outputs": [],
      "stateMutability": "nonpayable",
      "type": "function"
    },
    {
      "inputs": [
        {
          "internalType": "bytes32",
          "name": "_requestId",
          "type": "bytes32"
        }
      ],
      "name": "confirmReleaseIssueDeposits",
      "outputs": [],
      "stateMutability": "nonpayable",
      "type": "function"
    },
    {
      "inputs": [
        {
          "internalType": "string",
          "name": "_issueId",
          "type": "string"
        }
      ],
      "name": "claimReleasedIssueDeposits",
      "outputs": [],
      "stateMutability": "nonpayable",
      "type": "function"
    },
    {
      "inputs": [
        {
          "internalType": "address",
          "name": "_oracle",
          "type": "address"
        },
        {
          "internalType": "string",
          "name": "_prId",
          "type": "string"
        },
        {
          "internalType": "string",
          "name": "_githubUser",
          "type": "string"
        }
      ],
      "name": "claimPullRequest",
      "outputs": [],
      "stateMutability": "nonpayable",
      "type": "function"
    },
    {
      "inputs": [
        {
          "internalType": "bytes32",
          "name": "_requestId",
          "type": "bytes32"
        },
        {
          "internalType": "uint256",
          "name": "_score",
          "type": "uint256"
        }
      ],
      "name": "confirmPullRequestClaim",
      "outputs": [],
      "stateMutability": "nonpayable",
      "type": "function"
    },
    {
      "inputs": [
        {
          "internalType": "string",
          "name": "_githubUser",
          "type": "string"
        }
      ],
      "name": "getUserDepositIdsForGithubUser",
      "outputs": [
        {
          "internalType": "uint256[]",
          "name": "",
          "type": "uint256[]"
        }
      ],
      "stateMutability": "view",
      "type": "function"
    },
    {
      "inputs": [],
      "name": "getUserDepositIdsForSender",
      "outputs": [
        {
          "internalType": "uint256[]",
          "name": "",
          "type": "uint256[]"
        }
      ],
      "stateMutability": "view",
      "type": "function"
    },
    {
      "inputs": [
        {
          "internalType": "string",
          "name": "_depositId",
          "type": "string"
        }
      ],
      "name": "getIssueDepositIdsForIssueId",
      "outputs": [
        {
          "internalType": "uint256[]",
          "name": "",
          "type": "uint256[]"
        }
      ],
      "stateMutability": "view",
      "type": "function"
    },
    {
      "inputs": [],
      "name": "getIssueDepositIdsForSender",
      "outputs": [
        {
          "internalType": "uint256[]",
          "name": "",
          "type": "uint256[]"
        }
      ],
      "stateMutability": "view",
      "type": "function"
    },
    {
      "inputs": [
        {
          "internalType": "string",
          "name": "_githubUser",
          "type": "string"
        }
      ],
      "name": "getUserClaimAmount",
      "outputs": [
        {
          "internalType": "uint256",
          "name": "",
          "type": "uint256"
        }
      ],
      "stateMutability": "view",
      "type": "function"
    },
    {
      "inputs": [],
      "name": "getOracles",
      "outputs": [
        {
          "internalType": "address[]",
          "name": "",
          "type": "address[]"
        }
      ],
      "stateMutability": "view",
      "type": "function"
    }
  ],
  "bytecode": "0x6001600590815560c06040526080819052640322e302e360dc1b60a09081526200002d91600891906200025b565b506000600e5560006013553480156200004557600080fd5b5060405162005b8338038062005b8383398101604081905262000068916200033a565b6000620000746200013b565b600080546001600160a01b0319166001600160a01b0383169081178255604051929350917f8be0079c531659141344cd1fd0a4f28419497f9722a3daafe3b4186f6b6457e0908290a3506001600160a01b038416620000dd57620000d762000158565b620000e8565b620000e884620001ed565b601d80546001600160a01b039586166001600160a01b031991821617909155601c80549486169482169490941790935560078054918516918416919091179055600980549190931691161790556200039a565b6000620001526200020f60201b620039411760201c565b90505b90565b620001eb73c89bd4e1632d3a43cb03aaad5262cbe4038bc5716001600160a01b03166338cc48316040518163ffffffff1660e01b815260040160206040518083038186803b158015620001aa57600080fd5b505afa158015620001bf573d6000803e3d6000fd5b505050506040513d601f19601f82011682018060405250810190620001e5919062000315565b620001ed565b565b600380546001600160a01b0319166001600160a01b0392909216919091179055565b600060183610801590620002295750620002293362000247565b156200023f575060131936013560601c62000155565b503362000155565b6007546001600160a01b0390811691161490565b828054600181600116156101000203166002900490600052602060002090601f016020900481019282601f106200029e57805160ff1916838001178555620002ce565b82800160010185558215620002ce579182015b82811115620002ce578251825591602001919060010190620002b1565b50620002dc929150620002e0565b5090565b5b80821115620002dc5760008155600101620002e1565b80516001600160a01b03811681146200030f57600080fd5b92915050565b60006020828403121562000327578081fd5b620003338383620002f7565b9392505050565b6000806000806080858703121562000350578283fd5b6200035c8686620002f7565b93506200036d8660208701620002f7565b92506200037e8660408701620002f7565b91506200038f8660608701620002f7565b905092959194509250565b6157d980620003aa6000396000f3fe6080604052600436106103225760003560e01c806361e421d5116101a7578063addd5099116100ed578063f0e31cf911610090578063f0e31cf9146109eb578063f16b41f414610a0b578063f2fde38b14610a2b578063f4b90ef714610a4b578063f63e8c7014610a5e578063f9c8d78f14610a73578063fb95354a14610a93578063fdc85fc414610aa857610322565b8063addd5099146108bf578063bea390bc146108df578063c315fbca146108ff578063cea6ab981461091f578063cf5f5f461461094e578063d224784d1461096e578063d30b05ee1461099d578063dedeb938146109bd57610322565b80638617fc46116101555780638617fc46146107e25780638d6ec921146108025780638da5cb5b146108225780638fc0e3b21461083757806391410b3b1461084c5780639947918c1461086c5780639996f1861461088c5780639c900e331461089f57610322565b806361e421d51461071857806364701750146107385780636f4c91a414610758578063715018a614610778578063746c97b91461078d5780637da0a877146107ad578063858c1194146107c257610322565b8063486ff0cd1161026c578063546075da1161021a578063546075da1461061657806354d16f67146106365780635525418814610656578063572b6c051461067657806357bd9a97146106a3578063583d789b146106c3578063595670b3146106e357806360445fb2146106f857610322565b8063486ff0cd1461053d57806348f92787146105525780634c1b100a1461056757806350aea559146105965780635308f52c146105b657806353a61ff9146105d6578063541b6c9f146105f657610322565b80632a97fa77116102d45780632a97fa771461042c57806332434a2e1461044c5780633663865d1461046c5780633be784bc1461048c5780633d10c2e0146104ac57806340884c52146104d957806343a506a6146104fb578063454d05541461051b57610322565b806304405fa9146103275780630479f6f21461035d5780630f8b8afa1461037f578063113d41341461039f57806313fd21ce146103bf57806317c486f1146103ec5780631d2f5e831461040c575b600080fd5b34801561033357600080fd5b50610347610342366004614a6c565b610ac8565b6040516103549190614e6b565b60405180910390f35b34801561036957600080fd5b5061037d6103783660046148f5565b610b05565b005b34801561038b57600080fd5b5061034761039a366004614a3a565b610dc8565b3480156103ab57600080fd5b506103476103ba366004614a3a565b610de5565b3480156103cb57600080fd5b506103df6103da3660046149b0565b610e0e565b6040516103549190614ebf565b3480156103f857600080fd5b50610347610407366004614a3a565b610ea9565b34801561041857600080fd5b50610347610427366004614a3a565b610ec6565b34801561043857600080fd5b5061037d6104473660046146c7565b610ee3565b34801561045857600080fd5b506103476104673660046148a8565b610f3a565b34801561047857600080fd5b506103df6104873660046146c7565b611163565b34801561049857600080fd5b5061037d6104a73660046149b0565b61120e565b3480156104b857600080fd5b506104cc6104c73660046149b0565b6113bd565b6040516103549190614c71565b3480156104e557600080fd5b506104ee6113e4565b6040516103549190614ddb565b34801561050757600080fd5b5061037d6105163660046146e2565b611447565b34801561052757600080fd5b5061053061155a565b6040516103549190614e28565b34801561054957600080fd5b506103df6115ba565b34801561055e57600080fd5b506103df611615565b34801561057357600080fd5b506105876105823660046149b0565b611670565b60405161035493929190614f08565b3480156105a257600080fd5b506105306105b13660046149fb565b6117b5565b3480156105c257600080fd5b506103476105d13660046148a8565b611829565b3480156105e257600080fd5b506105306105f13660046149fb565b611a35565b34801561060257600080fd5b506105876106113660046149b0565b611a49565b34801561062257600080fd5b5061037d610631366004614a6c565b611ab5565b34801561064257600080fd5b506103476106513660046146c7565b611b36565b34801561066257600080fd5b5061037d6106713660046146c7565b611b48565b34801561068257600080fd5b506106966106913660046146c7565b611b9f565b6040516103549190614e60565b3480156106af57600080fd5b5061037d6106be3660046149b0565b611bb3565b3480156106cf57600080fd5b5061037d6106de36600461475b565b611d07565b3480156106ef57600080fd5b50610347611e01565b34801561070457600080fd5b5061037d6107133660046149b0565b611e07565b34801561072457600080fd5b50610347610733366004614966565b611e4a565b34801561074457600080fd5b50610347610753366004614966565b611e63565b34801561076457600080fd5b5061037d6107733660046149e9565b611e7c565b34801561078457600080fd5b5061037d611fe3565b34801561079957600080fd5b506103476107a8366004614a6c565b612062565b3480156107b957600080fd5b506104cc61208a565b3480156107ce57600080fd5b5061037d6107dd3660046148f5565b612099565b3480156107ee57600080fd5b5061037d6107fd3660046149b0565b612325565b34801561080e57600080fd5b5061037d61081d366004614a3a565b612467565b34801561082e57600080fd5b506104cc6124b7565b34801561084357600080fd5b506104cc6124c6565b34801561085857600080fd5b5061037d6108673660046147ac565b6124d5565b34801561087857600080fd5b5061037d6108873660046149fb565b612728565b61037d61089a3660046149fb565b612928565b3480156108ab57600080fd5b506103476108ba366004614a3a565b612c96565b3480156108cb57600080fd5b506103df6108da3660046146c7565b612cb3565b3480156108eb57600080fd5b5061037d6108fa3660046149c8565b612d54565b34801561090b57600080fd5b5061037d61091a3660046149b0565b612dfc565b34801561092b57600080fd5b5061093f61093a3660046149b0565b612eb8565b60405161035493929190614ed2565b34801561095a57600080fd5b50610347610969366004614a3a565b612f75565b34801561097a57600080fd5b5061098e6109893660046149b0565b612f92565b60405161035493929190614db4565b3480156109a957600080fd5b5061037d6109b8366004614716565b613048565b3480156109c957600080fd5b506109dd6109d83660046146e2565b61316a565b604051610354929190614eb1565b3480156109f757600080fd5b5061037d610a063660046149e9565b6131e3565b348015610a1757600080fd5b5061098e610a263660046149b0565b61344f565b348015610a3757600080fd5b5061037d610a463660046146c7565b6134d0565b61037d610a593660046149fb565b613586565b348015610a6a57600080fd5b50610347613710565b348015610a7f57600080fd5b50610347610a8e366004614a3a565b613716565b348015610a9f57600080fd5b50610530613733565b348015610ab457600080fd5b5061037d610ac33660046146c7565b613792565b81516020818401810180516014825292820191850191909120919052805482908110610af057fe5b90600052602060002001600091509150505481565b6001600160a01b0383166000908152602460205260409020548390600190600260001961010083851615020190911604610b5a5760405162461bcd60e51b8152600401610b51906153a4565b60405180910390fd5b6001600160a01b038216600090815260246020526040812060010181836004811115610b8257fe5b6004811115610b8d57fe5b81526020019081526020016000206000015411610bbc5760405162461bcd60e51b8152600401610b51906153d1565b60196000601a86604051610bd09190614c55565b90815260200160405180910390205481526020019081526020016000206002015460021415610c115760405162461bcd60e51b8152600401610b5190615016565b600a6000600c85604051610c259190614c55565b908152602001604051809103902054815260200190815260200160002060010160149054906101000a900460ff1660ff16600214610c755760405162461bcd60e51b8152600401610b51906156ae565b610c7d6142e6565b6001600160a01b038616600090815260246020908152604080832060028452600101909152902054610cb7903063f0e31cf960e01b613973565b60408051808201909152600a81526933b4ba343ab12ab9b2b960b11b6020820152909150610ce790829086613998565b6040805180820190915260048152631c1c925960e21b6020820152610d0e90829087613998565b6001600160a01b0386166000908152602460205260408120610d5790889084906001018460025b6004811115610d4057fe5b8152602001908152602001600020600101546139b6565b6040805160608101825287815260208082018a9052600182840152600084815260198252929092208151805194955091939092610d9892849291019061431b565b506020828101518051610db1926001850192019061431b565b506040820151816002015590505050505050505050565b8051602081830181018051600d8252928201919093012091525481565b6000600d82604051610df79190614c55565b90815260200160405180910390205490505b919050565b60226020908152600091825260409182902080548351601f600260001961010060018616150201909316929092049182018490048402810184019094528084529091830182828015610ea15780601f10610e7657610100808354040283529160200191610ea1565b820191906000526020600020905b815481529060010190602001808311610e8457829003601f168201915b505050505081565b805160208183018101805160168252928201919093012091525481565b8051602081830181018051600c8252928201919093012091525481565b610eeb613af5565b6000546001600160a01b03908116911614610f185760405162461bcd60e51b8152600401610b5190615408565b601f80546001600160a01b0319166001600160a01b0392909216919091179055565b6001600160a01b0382166000908152602460205260408120548390829060026000196101006001841615020190911604610f865760405162461bcd60e51b8152600401610b51906153a4565b6001600160a01b038216600090815260246020526040812060010181836004811115610fae57fe5b6004811115610fb957fe5b81526020019081526020016000206000015411610fe85760405162461bcd60e51b8152600401610b51906153d1565b610ff06142e6565b6001600160a01b03861660009081526024602090815260408083208380526001019091529020546110299030630ef9e12f60e21b613973565b60408051808201909152600a81526933b4ba343ab12ab9b2b960b11b602082015290915061105990829087613998565b6110976040518060400160405280600a8152602001696574684164647265737360b01b81525061108f61108a613af5565b613b04565b839190613998565b6001600160a01b03861660009081526024602052604081206110c190889084906001018480610d35565b905060405180606001604052808781526020016110dc613af5565b6001600160a01b0316815260016020918201526000838152600a8252604090208251805191926111119284929091019061431b565b5060208201516001909101805460409093015160ff16600160a01b0260ff60a01b196001600160a01b039093166001600160a01b03199094169390931791909116919091179055509295945050505050565b6001600160a01b03811660009081526024602090815260409182902080548351601f60026000196101006001861615020190931692909204918201849004840281018401909452808452606093928301828280156112025780601f106111d757610100808354040283529160200191611202565b820191906000526020600020905b8154815290600101906020018083116111e557829003601f168201915b50505050509050919050565b60008181526006602052604090205481906001600160a01b031633146112465760405162461bcd60e51b8152600401610b51906155bd565b60008181526006602052604080822080546001600160a01b031916905551829160008051602061578483398151915291a26000828152600a60205260408082209051600c9161129491614c17565b9081526040805160209281900383019020546000818152600a80855283822060018101546001600160a01b03168352600b86529382208290558282529093529250906112e08282614399565b50600190810180546001600160a81b03191690556000848152600a60208181526040808420948501805460ff60a01b1916600160a11b17908190556001600160a01b03168452600b82528084208890559287905252518491600c916113459190614c17565b9081526040805160209281900383018120939093556000868152600a909252902060018101547fe8408876b5e7562554a0f90a3953717fa9577f8cf741c96e2f7d8521adcb4883926113b092879290916001600160a01b03821691600160a01b900460ff1690614e74565b60405180910390a1505050565b602381815481106113ca57fe5b6000918252602090912001546001600160a01b0316905081565b6060602380548060200260200160405190810160405280929190818152602001828054801561143c57602002820191906000526020600020905b81546001600160a01b0316815260019091019060200180831161141e575b505050505090505b90565b6001600160a01b0382166000908152602460205260409020548290600260001961010060018416150201909116046114915760405162461bcd60e51b8152600401610b51906153a4565b6114996124b7565b6001600160a01b0316336001600160a01b031614806114c05750336001600160a01b038416145b6114dc5760405162461bcd60e51b8152600401610b51906150aa565b6001600160a01b03831660009081526024602052604081206001019083600481111561150457fe5b600481111561150f57fe5b815260208101919091526040908101600090812081815560010155517f7ca4820f72a81e96162a053187a4b200d8c2e47dd7f158726a5ed9c925f7bd77906113b09085908590614ce7565b3360009081526011602090815260409182902080548351818402810184019094528084526060939283018282801561143c57602002820191906000526020600020905b81548152602001906001019080831161159d575050505050905090565b6008805460408051602060026001851615610100026000190190941693909304601f81018490048402820184019092528181529291830182828015610ea15780601f10610e7657610100808354040283529160200191610ea1565b6020805460408051601f60026000196101006001871615020190941693909304928301849004840281018401909152818152919082820182828015610ea15780601f10610e7657610100808354040283529160200191610ea1565b60196020908152600091825260409182902080548351601f600260001961010060018616150201909316929092049182018490048402810184019094528084529092918391908301828280156117075780601f106116dc57610100808354040283529160200191611707565b820191906000526020600020905b8154815290600101906020018083116116ea57829003601f168201915b505050505090806001018054600181600116156101000203166002900480601f0160208091040260200160405190810160405280929190818152602001828054600181600116156101000203166002900480156117a55780601f1061177a576101008083540402835291602001916117a5565b820191906000526020600020905b81548152906001019060200180831161178857829003601f168201915b5050505050908060020154905083565b6060601483836040516117c9929190614c45565b908152604080519182900360209081018320805480830285018301909352828452919083018282801561181b57602002820191906000526020600020905b815481526020019060010190808311611807575b505050505090505b92915050565b6001600160a01b0382166000908152602460205260408120548390600490600260001961010060018416150201909116046118765760405162461bcd60e51b8152600401610b51906153a4565b6001600160a01b03821660009081526024602052604081206001018183600481111561189e57fe5b60048111156118a957fe5b815260200190815260200160002060000154116118d85760405162461bcd60e51b8152600401610b51906153d1565b6118e06142e6565b6001600160a01b03861660009081526024602090815260408083206004845260010190915290205461191a9030631bd3246960e21b613973565b60408051808201825260098152681858d8dbdd5b9d125960ba1b6020808301919091528054835160026001831615610100026000190190921691909104601f81018390048302820183019094528381529394506119da939192828201828280156119c55780601f1061199a576101008083540402835291602001916119c5565b820191906000526020600020905b8154815290600101906020018083116119a857829003601f168201915b5050505050836139989092919063ffffffff16565b6001600160a01b0386166000908152602460205260408120611a0791889184916001909101906004610d35565b60008181526022602090815260409091208751929650611a2b92909188019061431b565b5050505092915050565b6060601083836040516117c9929190614c45565b60176020908152600091825260409182902080548351601f600260001961010060018616150201909316929092049182018490048402810184019094528084529092918391908301828280156117075780601f106116dc57610100808354040283529160200191611707565b601f546001600160a01b03163314611acc57600080fd5b80600d83604051611add9190614c55565b9081526020016040518091039020541015611b0a5760405162461bcd60e51b8152600401610b51906152fe565b80600d83604051611b1b9190614c55565b90815260405190819003602001902080549190910390555050565b600b6020526000908152604090205481565b611b50613af5565b6000546001600160a01b03908116911614611b7d5760405162461bcd60e51b8152600401610b5190615408565b601e80546001600160a01b0319166001600160a01b0392909216919091179055565b6007546001600160a01b0390811691161490565b60008181526006602052604090205481906001600160a01b03163314611beb5760405162461bcd60e51b8152600401610b51906155bd565b60008181526006602052604080822080546001600160a01b031916905551829160008051602061578483398151915291a2600082815260176020526040902060020154600114611c4d5760405162461bcd60e51b8152600401610b51906154da565b600082815260176020526040908190206002818101559051601691611c7791600190910190614c17565b90815260408051918290036020908101832054600086815260179092529190209091600d91611ca591614c17565b90815260408051602092819003830181208054949094019093556000858152601790925290207f982ab3ed562795c652df6267e3375f911bda7be583569dd2d2f704389ee5fc4191611cfb916001810191614f60565b60405180910390a15050565b6001600160a01b038316600090815260246020526040902054839060026000196101006001841615020190911604611d515760405162461bcd60e51b8152600401610b51906153a4565b611d596124b7565b6001600160a01b0316336001600160a01b03161480611d805750336001600160a01b038516145b611d9c5760405162461bcd60e51b8152600401610b5190615521565b6001600160a01b0384166000908152602460205260409020611dbf9084846143dd565b507f4bd0bcc6e1bae95de7a8726b9cd8b5a6791b2a5dc70e3bc931641c050929b8db848484604051611df393929190614d0e565b60405180910390a150505050565b60215481565b6000818152600f60205260409020546001600160a01b03163314611e3d5760405162461bcd60e51b8152600401610b5190614f85565b611e478133613be7565b50565b60156020528160005260406000208181548110610af057fe5b60116020528160005260406000208181548110610af057fe5b60008281526006602052604090205482906001600160a01b03163314611eb45760405162461bcd60e51b8152600401610b51906155bd565b60008181526006602052604080822080546001600160a01b031916905551829160008051602061578483398151915291a26021829055600083815260226020908152604080832080548251601f60026000196101006001861615020190931692909204918201859004850281018501909352808352611f8d933393929190830182828015611f835780601f10611f5857610100808354040283529160200191611f83565b820191906000526020600020905b815481529060010190602001808311611f6657829003601f168201915b5050505050613d5f565b60008581526022602052604080822083835291208154929350611fc5929091906002600019610100600184161502019091160461444b565b506000848152602260205260408120611fdd91614399565b50505050565b611feb613af5565b6000546001600160a01b039081169116146120185760405162461bcd60e51b8152600401610b5190615408565b600080546040516001600160a01b03909116907f8be0079c531659141344cd1fd0a4f28419497f9722a3daafe3b4186f6b6457e0908390a3600080546001600160a01b0319169055565b81516020818401810180516010825292820191850191909120919052805482908110610af057fe5b6007546001600160a01b031681565b6001600160a01b03831660009081526024602052604090205483906001906002600019610100838516150201909116046120e55760405162461bcd60e51b8152600401610b51906153a4565b6001600160a01b03821660009081526024602052604081206001018183600481111561210d57fe5b600481111561211857fe5b815260200190815260200160002060000154116121475760405162461bcd60e51b8152600401610b51906153d1565b60006016856040516121599190614c55565b908152602001604051809103902054116121855760405162461bcd60e51b8152600401610b5190614fd5565b336000818152600b60209081526040808320548352600a9091529020600101546001600160a01b0316146121cb5760405162461bcd60e51b8152600401610b51906152a6565b6121d36142e6565b6001600160a01b038616600090815260246020908152604080832060018085520190915290205461220c90306357bd9a9760e01b613973565b60408051808201909152600a81526933b4ba343ab12ab9b2b960b11b602082015290915061223c90829086613998565b6040805180820190915260078152661a5cdcdd59525960ca1b602082015261226690829087613998565b6001600160a01b038616600090815260246020526040812061229390889084906001908101908590610d35565b6040805160608101825287815260208082018a90526001828401526000848152601782529290922081518051949550919390926122d492849291019061431b565b5060208281015180516122ed926001850192019061431b565b50604082015181600201559050508060188760405161230c9190614c55565b9081526040519081900360200190205550505050505050565b6000818152601260205260409020546001600160a01b0316331461235b5760405162461bcd60e51b8152600401610b5190615472565b600081815260126020526040908190206001810154915160169161238491600290910190614c17565b90815260200160405180910390205410156123b15760405162461bcd60e51b8152600401610b5190615356565b600081815260126020526040808220600101549051339282156108fc02929190818181858888f193505050501580156123ee573d6000803e3d6000fd5b50600081815260126020526040908190206001810154915160169161241891600290910190614c17565b90815260408051602092819003830190208054939093039092556000838152601290915290812080546001600160a01b031916815560018101829055906124626002830182614399565b505050565b61246f613af5565b6000546001600160a01b0390811691161461249c5760405162461bcd60e51b8152600401610b5190615408565b80516124ae906020908184019061431b565b50506000602155565b6000546001600160a01b031690565b601e546001600160a01b031681565b6124dd613af5565b6000546001600160a01b0390811691161461250a5760405162461bcd60e51b8152600401610b5190615408565b6001600160a01b03851660009081526024602052604090205460026000196101006001841615020190911604156125535760405162461bcd60e51b8152600401610b51906151ad565b60008151116125745760405162461bcd60e51b8152600401610b5190615335565b80518251146125955760405162461bcd60e51b8152600401610b51906151dc565b604080516020601f8601819004810282018301835281018581529091829190879087908190850183828082843760009201829052509390945250506001600160a01b0388168152602460209081526040909120835180519193506125fd92849291019061431b565b5090505060005b82518110156126995781818151811061261957fe5b602002602001015160246000886001600160a01b03166001600160a01b03168152602001908152602001600020600101600085848151811061265757fe5b6020026020010151600481111561266a57fe5b600481111561267557fe5b81526020808201929092526040016000208251815591015160019182015501612604565b50602380546001810182556000919091527fd57b2b5166478fd4318d2acc6cc2c704584312bdd8781b32d5d06abda57f42300180546001600160a01b0319166001600160a01b0387161790556040517ff15d7eb8bd12280c83c1313c387aff8a2197d17c987dc7a28bcb4d3d545f57c69061271990879087908790614d0e565b60405180910390a15050505050565b336000818152600b60209081526040808320548352600a9091529020600101546001600160a01b03161461276e5760405162461bcd60e51b8152600401610b5190615565565b336000908152600b60209081526040808320548352600a9091529081902090516127989190614c17565b604051809103902060176000601885856040516127b6929190614c45565b90815260200160405180910390205481526020019081526020016000206000016040516127e39190614c17565b6040518091039020146128085760405162461bcd60e51b8152600401610b5190615605565b60006016838360405161281c929190614c45565b908152602001604051809103902054116128485760405162461bcd60e51b8152600401610b5190615228565b336001600160a01b03166108fc60168484604051612867929190614c45565b90815260405190819003602001812054801590920291906000818181858888f1935050505015801561289d573d6000803e3d6000fd5b50601682826040516128b0929190614c45565b90815260408051918290036020908101832054336000908152600b8352838120548152600a9092529190209091600d916128e991614c17565b9081526040519081900360200181208054929092039091556000906016906129149085908590614c45565b908152604051908190036020019020555050565b600034116129485760405162461bcd60e51b8152600401610b5190615682565b6129506144c0565b600a6000600c8585604051612966929190614c45565b9081526040805160209281900383019020548352828201939093529082016000208251815460026001821615610100026000190190911604601f81018490049093028101608090810190945260608101838152909391928492849190840182828015612a135780601f106129e857610100808354040283529160200191612a13565b820191906000526020600020905b8154815290600101906020018083116129f657829003601f168201915b5050509183525050600191909101546001600160a01b03808216602080850191909152600160a01b90920460ff166040909301929092528201519192501615801590612a665750806040015160ff166002145b15612b3057600a6000600c8585604051612a81929190614c45565b908152602001604051809103902054815260200190815260200160002060010160009054906101000a90046001600160a01b03166001600160a01b03166108fc349081150290604051600060405180830381858888f19350505050158015612aed573d6000803e3d6000fd5b507f55ba5e513ac5c832c73696b2bac8efc4fa9fcac62091a294ec672803704481d533348585604051612b239493929190614c85565b60405180910390a1612462565b600e8054600101905560408051606081018252338152346020808301919091528251601f8601829004820281018201845285815291928301919086908690819084018382808284376000920182905250939094525050600e548152600f6020908152604091829020845181546001600160a01b0319166001600160a01b03909116178155848201516001820155918401518051929350612bd9926002850192919091019061431b565b5090505060108383604051612bef929190614c45565b908152604080519182900360209081018320600e805482546001818101855560009485528585209091019190915533835260118452938220905481549485018255908252919020909101553490600d90612c4c9086908690614c45565b90815260405190819003602001812080549092019091557f406551011d3a3874d102c2ee25adb004adb6d90a8134f04c14bd02f73ad4a3d0906113b0903390349087908790614c85565b805160208183018101805160188252928201919093012091525481565b60246020908152600091825260409182902080548351601f60026000196101006001861615020190931692909204918201849004840281018401909452808452909291839190830182828015612d4a5780601f10612d1f57610100808354040283529160200191612d4a565b820191906000526020600020905b815481529060010190602001808311612d2d57829003601f168201915b5050505050905081565b60008281526006602052604090205482906001600160a01b03163314612d8c5760405162461bcd60e51b8152600401610b51906155bd565b60008181526006602052604080822080546001600160a01b031916905551829160008051602061578483398151915291a26000838152602260205260409081902090517fb0f3422488ef72245a96f78912cb9067322935e6faa986e18f27de848dcaee45916113b0918590614f3e565b336000818152600b60209081526040808320548352600a9091529020600101546001600160a01b031614612e425760405162461bcd60e51b8152600401610b519061504d565b336000908152600b60209081526040808320548352600a909152908190209051612e6c9190614c17565b604080519182900382206000848152600f602052919091209091612e939160020190614c17565b604051809103902014611e3d5760405162461bcd60e51b8152600401610b519061525f565b600a6020908152600091825260409182902080548351601f60026000196101006001861615020190931692909204918201849004840281018401909452808452909291839190830182828015612f4f5780601f10612f2457610100808354040283529160200191612f4f565b820191906000526020600020905b815481529060010190602001808311612f3257829003601f168201915b505050600190930154919250506001600160a01b0381169060ff600160a01b9091041683565b8051602081830181018051601b8252928201919093012091525481565b60126020908152600091825260409182902080546001808301546002808501805488516101009582161595909502600019011691909104601f81018790048702840187019097528683526001600160a01b0390931695909491929183018282801561303e5780601f106130135761010080835404028352916020019161303e565b820191906000526020600020905b81548152906001019060200180831161302157829003601f168201915b5050505050905083565b6001600160a01b0383166000908152602460205260409020548390600260001961010060018416150201909116046130925760405162461bcd60e51b8152600401610b51906153a4565b61309a6124b7565b6001600160a01b0316336001600160a01b031614806130c15750336001600160a01b038516145b6130dd5760405162461bcd60e51b8152600401610b51906150aa565b6001600160a01b0384166000908152602460205260408120839160019091019085600481111561310957fe5b600481111561311457fe5b815260200190815260200160002060008201518160000155602082015181600101559050507f668e1960dbe66fede84e6733bded6d647a768aa008813306a03d7f403472cb008484604051611df3929190614ce7565b6000806131756144e0565b6001600160a01b03851660009081526024602052604081206001019085600481111561319d57fe5b60048111156131a857fe5b8152602080820192909252604090810160002081518083019092528054808352600190910154919092018190529093509150505b9250929050565b60008281526006602052604090205482906001600160a01b0316331461321b5760405162461bcd60e51b8152600401610b51906155bd565b60008181526006602052604080822080546001600160a01b031916905551829160008051602061578483398151915291a28160011115801561325e575060648211155b61327a5760405162461bcd60e51b8152600401610b519061543d565b6000838152601960205260409020600201546001146132ab5760405162461bcd60e51b8152600401610b51906150df565b6000838152601960205260408082209051600a918391600c916132cd91614c17565b90815260408051602092819003830190205483529082019290925201600020600101546001600160a01b031614156133175760405162461bcd60e51b8152600401610b51906156ae565b600083815260196020526040808220600281810155601e5491516001600160a01b039092169263f68fb07592600a92600c916133539190614c17565b90815260408051602092819003830190205483528282019390935290820160002060010154601e54835163313ce56760e01b815293516001600160a01b0392831694929091169263313ce5679260048082019391829003018186803b1580156133bb57600080fd5b505afa1580156133cf573d6000803e3d6000fd5b505050506040513d601f19601f820116820180604052508101906133f39190614aae565b60ff16600a0a85026040518363ffffffff1660e01b8152600401613418929190614d33565b600060405180830381600087803b15801561343257600080fd5b505af1158015613446573d6000803e3d6000fd5b50505050505050565b600f6020908152600091825260409182902080546001808301546002808501805488516101009582161595909502600019011691909104601f81018790048702840187019097528683526001600160a01b0390931695909491929183018282801561303e5780601f106130135761010080835404028352916020019161303e565b6134d8613af5565b6000546001600160a01b039081169116146135055760405162461bcd60e51b8152600401610b5190615408565b6001600160a01b03811661352b5760405162461bcd60e51b8152600401610b5190615124565b600080546040516001600160a01b03808516939216917f8be0079c531659141344cd1fd0a4f28419497f9722a3daafe3b4186f6b6457e091a3600080546001600160a01b0319166001600160a01b0392909216919091179055565b600034116135a65760405162461bcd60e51b8152600401610b5190615682565b60138054600101905560408051606081018252338152346020808301919091528251601f8501829004820281018201845284815291928301919085908590819084018382808284376000920182905250939094525050601354815260126020908152604091829020845181546001600160a01b0319166001600160a01b0390911617815584820151600182015591840151805192935061364f926002850192919091019061431b565b5090505060148282604051613665929190614c45565b90815260408051918290036020908101832060138054825460018181018555600094855285852090910191909155338352601584529382209054815494850182559082529190209091015534906016906136c29085908590614c45565b90815260405190819003602001812080549092019091556013547f1c0306f1b3e6623ac3e5a5b1b36db068ce661a4afdd25b0fa922519d7ea9cf5a91611cfb91339134918791879190614cad565b60135481565b8051602081830181018051601a8252928201919093012091525481565b3360009081526015602090815260409182902080548351818402810184019094528084526060939283018282801561143c576020028201919060005260206000209081548152602001906001019080831161159d575050505050905090565b61379a613af5565b6000546001600160a01b039081169116146137c75760405162461bcd60e51b8152600401610b5190615408565b6001600160a01b0381166000908152602460205260409020548190600260001961010060018416150201909116046138115760405162461bcd60e51b8152600401610b51906153a4565b6001600160a01b0382166000908152602460205260408120906138348282614399565b505060005b60235481101561391157826001600160a01b03166023828154811061385a57fe5b6000918252602090912001546001600160a01b031614156139095760238054600019810190811061388757fe5b600091825260209091200154602380546001600160a01b0390921691839081106138ad57fe5b9060005260206000200160006101000a8154816001600160a01b0302191690836001600160a01b0316021790555060238054806138e657fe5b600082815260209020810160001990810180546001600160a01b03191690550190555b600101613839565b507f26dc9cb8cd5f6397fbef7cf9dd1f32cafa0c6c1181fbd386957ebc8152c4b7c282604051611cfb9190614c71565b600060183610801590613958575061395833611b9f565b1561396c575060131936013560601c611444565b5033611444565b61397b6142e6565b6139836142e6565b61398f81868686613efe565b95945050505050565b60808301516139a79083613f3b565b60808301516124629082613f3b565b6000306005546040516020016139cd929190614c23565b60408051808303601f19018152918152815160209283012060055460608701526000818152600690935281832080546001600160a01b0319166001600160a01b038916179055905190925082917fb5e6e01e79f91267dc17b4e6314d5d4d03593d2ceee0fbb452b750bd70ea5af991a26003546001600160a01b0316634000aea08584613a5987613f52565b6040518463ffffffff1660e01b8152600401613a7793929190614db4565b602060405180830381600087803b158015613a9157600080fd5b505af1158015613aa5573d6000803e3d6000fd5b505050506040513d601f19601f82011682018060405250810190613ac99190614990565b613ae55760405162461bcd60e51b8152600401610b519061516a565b6005805460010190559392505050565b6000613aff613941565b905090565b60606001600160a01b03821680613b345750506040805180820190915260018152600360fc1b6020820152610e09565b8060005b8115613b4c57600101600a82049150613b38565b6060816001600160401b0381118015613b6457600080fd5b506040519080825280601f01601f191660200182016040528015613b8f576020820181803683370190505b50905060001982015b8415613bdd57600a850660300160f81b82828060019003935081518110613bbb57fe5b60200101906001600160f81b031916908160001a905350600a85049450613b98565b5095945050505050565b613bef6144f7565b6000838152600f6020908152604091829020825160608101845281546001600160a01b03168152600180830154828501526002808401805487516101009482161594909402600019011691909104601f81018690048602830186018752808352929593949386019391929091830182828015613cac5780601f10613c8157610100808354040283529160200191613cac565b820191906000526020600020905b815481529060010190602001808311613c8f57829003601f168201915b5050505050815250509050816001600160a01b03166108fc82602001519081150290604051600060405180830381858888f19350505050158015613cf4573d6000803e3d6000fd5b508060200151600d8260400151604051613d0e9190614c55565b90815260408051602092819003830190208054939093039092556000858152600f90915290812080546001600160a01b03191681556001810182905590613d586002830182614399565b5050505050565b6001600160a01b038216600090815260246020526040812054839060039060026000196101006001841615020190911604613dac5760405162461bcd60e51b8152600401610b51906153a4565b6001600160a01b038216600090815260246020526040812060010181836004811115613dd457fe5b6004811115613ddf57fe5b81526020019081526020016000206000015411613e0e5760405162461bcd60e51b8152600401610b51906153d1565b613e166142e6565b6001600160a01b038616600090815260246020908152604080832060038452600101909152902054613e509030632fa8e42f60e21b613973565b6040805180820190915260078152661a5cdcdd59525960ca1b6020820152909150613e7d90829087613998565b613ec760405180604001604052806006815260200165185b5bdd5b9d60d21b815250601687604051613eaf9190614c55565b90815260405190819003602001902054839190613fce565b6001600160a01b0386166000908152602460205260408120613ef491889184916001909101906003610d35565b9695505050505050565b613f066142e6565b613f168560800151610100613fec565b50509183526001600160a01b031660208301526001600160e01b031916604082015290565b613f488260038351614026565b61246282826140f9565b6060634042994660e01b60008084600001518560200151866040015187606001516001896080015160000151604051602401613f95989796959493929190614d4c565b60408051601f198184030181529190526020810180516001600160e01b03166001600160e01b0319909316929092179091529050919050565b6080830151613fdd9083613f3b565b6080830151612462908261411a565b613ff4614521565b60208206156140095760208206602003820191505b506020828101829052604080518085526000815290920101905290565b60178111614047576140418360e0600585901b16831761412a565b50612462565b60ff811161407157614064836018611fe0600586901b161761412a565b5061404183826001614142565b61ffff811161409c5761408f836019611fe0600586901b161761412a565b5061404183826002614142565b63ffffffff81116140c9576140bc83601a611fe0600586901b161761412a565b5061404183826004614142565b6001600160401b038111612462576140ec83601b611fe0600586901b161761412a565b50611fdd83826008614142565b614101614521565b61411383846000015151848551614163565b9392505050565b61412682600083614026565b5050565b614132614521565b614113838460000151518461420f565b61414a614521565b61415b84856000015151858561425a565b949350505050565b61416b614521565b825182111561417957600080fd5b846020015182850111156141a3576141a38561419b87602001518786016142b8565b6002026142cf565b6000808651805187602083010193508088870111156141c25787860182525b505050602084015b602084106141e95780518252601f1990930192602091820191016141ca565b51815160001960208690036101000a019081169019919091161790525083949350505050565b614217614521565b83602001518310614233576142338485602001516002026142cf565b835180516020858301018481535080851415614250576001810182525b5093949350505050565b614262614521565b8460200151848301111561427f5761427f858584016002026142cf565b60006001836101000a0390508551838682010185831982511617815250805184870111156142ad5783860181525b509495945050505050565b6000818311156142c9575081611823565b50919050565b81516142db8383613fec565b50611fdd83826140f9565b6040805160a081018252600080825260208201819052918101829052606081019190915260808101614316614521565b905290565b828054600181600116156101000203166002900490600052602060002090601f016020900481019282601f1061435c57805160ff1916838001178555614389565b82800160010185558215614389579182015b8281111561438957825182559160200191906001019061436e565b5061439592915061453b565b5090565b50805460018160011615610100020316600290046000825580601f106143bf5750611e47565b601f016020900490600052602060002090810190611e47919061453b565b828054600181600116156101000203166002900490600052602060002090601f016020900481019282601f1061441e5782800160ff19823516178555614389565b82800160010185558215614389579182015b82811115614389578235825591602001919060010190614430565b828054600181600116156101000203166002900490600052602060002090601f016020900481019282601f106144845780548555614389565b8280016001018555821561438957600052602060002091601f016020900482015b828111156143895782548255916001019190600101906144a5565b604080516060808201835281526000602082018190529181019190915290565b604080518082019091526000808252602082015290565b604051806060016040528060006001600160a01b0316815260200160008152602001606081525090565b604051806040016040528060608152602001600081525090565b5b80821115614395576000815560010161453c565b80356001600160a01b038116811461182357600080fd5b600082601f830112614577578081fd5b813561458a61458582615717565b6156f1565b81815291506020808301908481016040808502870183018810156145ad57600080fd5b60005b858110156145d4576145c28984614696565b855293830193918101916001016145b0565b50505050505092915050565b80356005811061182357600080fd5b60008083601f840112614600578182fd5b5081356001600160401b03811115614616578182fd5b6020830191508360208285010111156131dc57600080fd5b600082601f83011261463e578081fd5b81356001600160401b03811115614653578182fd5b614666601f8201601f19166020016156f1565b915080825283602082850101111561467d57600080fd5b8060208401602084013760009082016020015292915050565b6000604082840312156146a7578081fd5b6146b160406156f1565b9050813581526020820135602082015292915050565b6000602082840312156146d8578081fd5b6141138383614550565b600080604083850312156146f4578081fd5b6146fe8484614550565b915061470d84602085016145e0565b90509250929050565b60008060006080848603121561472a578081fd5b6147348585614550565b925061474385602086016145e0565b91506147528560408601614696565b90509250925092565b60008060006040848603121561476f578283fd5b6147798585614550565b925060208401356001600160401b03811115614793578283fd5b61479f868287016145ef565b9497909650939450505050565b6000806000806000608086880312156147c3578081fd5b85356147ce8161576e565b94506020868101356001600160401b03808211156147ea578384fd5b6147f68a838b016145ef565b9097509550604089013591508082111561480e578384fd5b818901915089601f830112614821578384fd5b813561482f61458582615717565b81815284810190848601868402860187018e101561484b578788fd5b8795505b83861015614875576148618e826145e0565b83526001959095019491860191860161484f565b5096505050606089013592508083111561488d578384fd5b505061489b88828901614567565b9150509295509295909350565b600080604083850312156148ba578182fd5b82356148c58161576e565b915060208301356001600160401b038111156148df578182fd5b6148eb8582860161462e565b9150509250929050565b600080600060608486031215614909578283fd5b6149138585614550565b925060208401356001600160401b038082111561492e578384fd5b61493a8783880161462e565b9350604086013591508082111561494f578283fd5b5061495c8682870161462e565b9150509250925092565b60008060408385031215614978578182fd5b6149828484614550565b946020939093013593505050565b6000602082840312156149a1578081fd5b81518015158114614113578182fd5b6000602082840312156149c1578081fd5b5035919050565b600080604083850312156149da578081fd5b50508035926020909101359150565b600080604083850312156149da578182fd5b60008060208385031215614a0d578182fd5b82356001600160401b03811115614a22578283fd5b614a2e858286016145ef565b90969095509350505050565b600060208284031215614a4b578081fd5b81356001600160401b03811115614a60578182fd5b61415b8482850161462e565b60008060408385031215614a7e578182fd5b82356001600160401b03811115614a93578283fd5b614a9f8582860161462e565b95602094909401359450505050565b600060208284031215614abf578081fd5b815160ff81168114614113578182fd5b60008151808452614ae7816020860160208601615742565b601f01601f19169290920160200192915050565b60008154600180821660008114614b195760018114614b3057614b62565b60ff198316865260028304607f1686019350614b62565b600283048560005260208060002060005b83811015614b5a5781548a820152908501908201614b41565b505050860193505b50505092915050565b60008284528282602086013780602084860101526020601f19601f85011685010190509392505050565b60008154600180821660008114614bb35760018114614bd157614b62565b60028304607f16865260ff1983166020870152604086019350614b62565b60028304808752614be186615736565b60005b82811015614c055781546020828b0101528482019150602081019050614be4565b88016020019550505050505092915050565b60006141138284614afb565b60609290921b6bffffffffffffffffffffffff19168252601482015260340190565b6000828483379101908152919050565b60008251614c67818460208701615742565b9190910192915050565b6001600160a01b0391909116815260200190565b600060018060a01b038616825284602083015260606040830152613ef4606083018486614b6b565b600060018060a01b038716825285602083015260806040830152614cd5608083018587614b6b565b90508260608301529695505050505050565b6001600160a01b03831681526040810160058310614d0157fe5b8260208301529392505050565b6001600160a01b038416815260406020820181905260009061398f9083018486614b6b565b6001600160a01b03929092168252602082015260400190565b6001600160a01b0389811682526020820189905260408201889052861660608201526001600160e01b03198516608082015260a0810184905260c0810183905261010060e08201819052600090614da583820185614acf565b9b9a5050505050505050505050565b600060018060a01b03851682528360208301526060604083015261398f6060830184614acf565b6020808252825182820181905260009190848201906040850190845b81811015614e1c5783516001600160a01b031683529284019291840191600101614df7565b50909695505050505050565b6020808252825182820181905260009190848201906040850190845b81811015614e1c57835183529284019291840191600101614e44565b901515815260200190565b90815260200190565b600085825260806020830152614e8d6080830186614b95565b6001600160a01b039490941660408301525060ff9190911660609091015292915050565b918252602082015260400190565b6000602082526141136020830184614acf565b600060608252614ee56060830186614acf565b6001600160a01b039490941660208301525060ff91909116604090910152919050565b600060608252614f1b6060830186614acf565b8281036020840152614f2d8186614acf565b915050826040830152949350505050565b600060408252614f516040830185614b95565b90508260208301529392505050565b600060408252614f736040830185614b95565b828103602084015261398f8185614b95565b60208082526030908201527f4465706f73697420646964206e6f742063616d652066726f6d2074686973204560408201526f3a3432b932bab69030b2323932b9b99760811b606082015260800190565b60208082526021908201527f497373756520686173206e6f206465706f7369747320746f2072656c656173656040820152601760f91b606082015260800190565b6020808252601d908201527f50756c6c207265717565737420616c726561647920636c61696d65642e000000604082015260600190565b6020808252603d908201527f5468697320457468657265756d2061646472657373206973206e6f742072656760408201527f69737465726564207769746820616e792047697448756220757365722e000000606082015260800190565b6020808252818101527f4f6e6c79206f7261636c65206f72206f776e65722063616e20616464206a6f62604082015260600190565b60208082526025908201527f50756c6c207265717565737420636c61696d20776173206e6f7420726571756560408201526439ba32b21760d91b606082015260800190565b60208082526026908201527f4f776e61626c653a206e6577206f776e657220697320746865207a65726f206160408201526564647265737360d01b606082015260800190565b60208082526023908201527f756e61626c6520746f207472616e73666572416e6443616c6c20746f206f7261604082015262636c6560e81b606082015260800190565b6020808252601590820152744f7261636c6520616c72656164792065786973747360581b604082015260600190565b6020808252602c908201527f5f6a6f624e616d657320616e64205f6a6f62732073686f756c64206265206f6660408201526b040e6c2daca40d8cadccee8d60a31b606082015260800190565b6020808252601f908201527f4973737565206465706f7369747320616c726561647920636c61696d65642e00604082015260600190565b60208082526027908201527f4465706f736974206973206e6f7420666f72207468697320476974487562206160408201526631b1b7bab73a1760c91b606082015260800190565b60208082526038908201527f4f6e6c792072656769737465726564204769744875622075736572732063616e604082015277103932b632b0b9b29034b9b9bab2903232b837b9b4ba399760411b606082015260800190565b6020808252601e908201527f4e6f7420656e6f7567682066756e647320746f20706179206761734665650000604082015260600190565b6020808252600790820152664e6f204a6f627360c81b604082015260600190565b6020808252602e908201527f54686973206973737565206465706f73697420686173206265656e207769746860408201526d323930bbb71030b63932b0b23c9760911b606082015260800190565b602080825260139082015272556e72656769737465726564206f7261636c6560681b604082015260600190565b6020808252601a908201527f4f7261636c6520646f65736e277420646f2074686973206a6f62000000000000604082015260600190565b6020808252818101527f4f776e61626c653a2063616c6c6572206973206e6f7420746865206f776e6572604082015260600190565b6020808252818101527f496e76616c69642073636f72653a2031203c3d2073636f7265203c3d20313030604082015260600190565b60208082526042908201527f4465706f73697420646964206e6f7420636f6d652066726f6d2074686973204560408201527f7468657265756d2061646472657373206f7220646f6573206e6f7420657869736060820152613a1760f11b608082015260a00190565b60208082526027908201527f49737365206465706f7369742072656c6561736520776173206e6f74207265716040820152663ab2b9ba32b21760c91b606082015260800190565b60208082526024908201527f4f6e6c79206f7261636c65206f72206f776e65722063616e206368616e6765206040820152636e616d6560e01b606082015260800190565b60208082526038908201527f4e6f20476974487562206163636f756e7420726567697374657265642077697460408201527734103a3434b99022ba3432b932bab69030b1b1b7bab73a1760411b606082015260800190565b60208082526028908201527f536f75726365206d75737420626520746865206f7261636c65206f6620746865604082015267081c995c5d595cdd60c21b606082015260800190565b60208082526057908201527f54686520476974487562206163636f756e74207468697320697373756520776160408201527f732072656c656173656420746f20646f6573206e6f742062656c6f6e6720746f606082015276103a3434b99022ba3432b932bab69030b1b1b7bab73a1760491b608082015260a00190565b6020808252601290820152712cb7ba9036bab9ba1039b2b7321022aa241760711b604082015260600190565b60208082526023908201527f54686973204769744875622075736572206973206e6f7420726567697374657260408201526232b21760e91b606082015260800190565b6040518181016001600160401b038111828210171561570f57600080fd5b604052919050565b60006001600160401b0382111561572c578081fd5b5060209081020190565b60009081526020902090565b60005b8381101561575d578181015183820152602001615745565b83811115611fdd5750506000910152565b6001600160a01b0381168114611e4757600080fdfe7cc135e0cebb02c3480ae5d74d377283180a2601f8f644edf7987b009316c63aa2646970667358221220e329e7255cc920c82b18cbdedfa03bc13f574f674d153ad270c9e5097938b05f64736f6c634300060c0033",
  "immutableReferences": {},
  "source": "// SPDX-License-Identifier: MIT\npragma solidity ^0.6.0;\npragma experimental ABIEncoderV2;\n\nimport '@openzeppelin/contracts/token/ERC20/ERC20.sol';\nimport '@openzeppelin/contracts/access/Ownable.sol';\nimport '@chainlink/contracts/src/v0.6/ChainlinkClient.sol';\nimport '@opengsn/gsn/contracts/BaseRelayRecipient.sol';\nimport '@opengsn/gsn/contracts/BasePaymaster.sol';\nimport './interfaces/IUniswapV2Router02.sol';\nimport './OctoPin.sol';\n\ncontract OctoBay is Ownable, ChainlinkClient, BaseRelayRecipient {\n\n    function _msgSender() internal override(Context, BaseRelayRecipient)\n    view returns (address payable) {\n        return BaseRelayRecipient._msgSender();\n    }\n\n    function _msgData() internal override(Context,BaseRelayRecipient)\n    view returns (bytes memory ret) {\n        return BaseRelayRecipient._msgData();\n    }\n\n    string public override versionRecipient = '2.0.0'; // GSN version\n\n    IUniswapV2Router02 uniswap;\n    // TODO: Add more events related to user withdrawls\n    event UserDepositEvent(address from, uint256 amount, string githubUser);\n    event UserSendEvent(address from, uint256 amount, string githubUser);\n    event IssueDepositEvent(address from, uint256 amount, string issueId, uint256 depositId);\n    event ReleaseIssueDepositsEvent(string issueId, string githubUser);\n    event TwitterPostEvent(string issueId, bytes32 tweetId);\n    event UserAddedEvent(bytes32 id, string name, address ethAddress, uint8 status);\n\n    struct User {\n        string githubUser;\n        address ethAddress;\n        uint8 status; // 1 = requested, 2 = confirmed\n    }\n    mapping(bytes32 => User) public users;\n    mapping(address => bytes32) public userIDsByAddress;\n    mapping(string => bytes32) public userIDsByGithubUser;\n    mapping(string => uint256) public userClaimAmountByGithbUser;\n\n    struct UserDeposit {\n        address from;\n        uint256 amount;\n        string githubUser;\n    }\n    uint256 private nextUserDepositId = 0;\n    mapping(uint256 => UserDeposit) public userDeposits;\n    mapping(string => uint256[]) public userDepositIdsByGithubUser;\n    mapping(address => uint256[]) public userDepositIdsBySender;\n\n    struct IssueDeposit {\n        address from;\n        uint256 amount;\n        string issueId;\n    }\n    mapping(uint256 => IssueDeposit) public issueDeposits;\n    uint256 public nextIssueDepositId = 0;\n    mapping(string => uint256[]) public issueDepositIdsByIssueId;\n    mapping(address => uint256[]) public issueDepositIdsBySender;\n    mapping(string => uint256) public issueDepositsAmountByIssueId;\n\n    struct ReleasedIssue {\n        string githubUser;\n        string issueId;\n        uint256 status;\n    }\n    mapping(bytes32 => ReleasedIssue) public releasedIssues;\n    mapping(string => bytes32) public issueReleaseIDsByIssueId;\n\n    struct PullRequestClaim {\n        string githubUser;\n        string prId;\n        uint256 status; // 1 = requested, 2 = confirmed\n    }\n    mapping(bytes32 => PullRequestClaim) public pullRequestClaims;\n    mapping(string => bytes32) public pullRequestClaimIDsByPrId;\n\n    mapping(string => uint256) public issuePins;\n\n    address weth;\n    address link;\n    OctoPin public octoPin;\n    address octobayPaymaster;\n\n    string public twitterAccountId;\n    uint256 public twitterFollowers;\n    mapping(bytes32 => string) public pendingTwitterPostsIssueIds;\n\n    constructor(\n        address _link,\n        address _weth,\n        address _uniswap,\n        address _forwarder\n    ) public {\n        if (_link == address(0)) {\n            setPublicChainlinkToken();\n        } else {\n            setChainlinkToken(_link);\n        }\n        link = _link;\n        weth = _weth;\n        trustedForwarder = _forwarder; // GSN trusted forwarder\n        uniswap = IUniswapV2Router02(_uniswap);\n    }\n\n    function setOctoPin(address _octoPin) external onlyOwner {\n        octoPin = OctoPin(_octoPin);\n    }\n\n    function setPaymaster(address _octobayPaymaster) external onlyOwner {\n        octobayPaymaster = _octobayPaymaster;\n    }\n\n    function setTwitterAccountId(string memory _accountId) external onlyOwner {\n        twitterAccountId = _accountId;\n        twitterFollowers = 0;\n    }\n\n     // ------------ ORACLES ------------ //\n\n    event OracleAddedEvent(address oracle, string name);\n    event OracleRemovedEvent(address oracle);\n    event OracleNameChangedEvent(address oracle, string name);\n    event OracleJobAddedEvent(address oracle, jobName name);\n    event OracleJobRemovedEvent(address oracle, jobName name);\n\n    enum jobName { register, release, claim, twitterPost, twitterFollowers }\n\n    struct Job {\n        bytes32 id;\n        uint256 fee;\n    }\n\n    struct Oracle{\n        string name;\n        mapping(jobName => Job) jobs;\n    }\n\n    address[] public registeredOracles;\n    mapping(address => Oracle) public oracles;\n\n    modifier onlyRegisteredOracle(address _oracle) {\n      require(bytes(oracles[_oracle].name).length > 0, \"Unregistered oracle\");\n      _;\n    }\n\n    modifier oracleHandlesJob(address _oracle, jobName _jobName) {\n        require(bytes(oracles[_oracle].name).length > 0, \"Unregistered oracle\");\n        require(oracles[_oracle].jobs[_jobName].id > 0, \"Oracle doesn't do this job\");\n        _;\n    }\n\n    function addOracle(address _oracle, string calldata _name, jobName[] memory _jobNames, Job[] memory _jobs) external onlyOwner {\n      require(bytes(oracles[_oracle].name).length == 0, 'Oracle already exists');\n      require(_jobs.length > 0, 'No Jobs');\n      require(_jobNames.length == _jobs.length, '_jobNames and _jobs should be of same length');\n\n      oracles[_oracle] = Oracle({\n          name: _name\n      });\n      for(uint i = 0; i < _jobNames.length; i++) {\n          oracles[_oracle].jobs[_jobNames[i]] = _jobs[i];   // modifies the stroage\n      }\n      registeredOracles.push(_oracle);\n\n      emit OracleAddedEvent(_oracle, _name);\n    }\n\n    function removeOracle(address _oracle) external onlyOwner onlyRegisteredOracle(_oracle) {\n        delete oracles[_oracle];\n        for(uint i = 0; i < registeredOracles.length; i++ ) {\n            if(registeredOracles[i] == _oracle) {\n                registeredOracles[i] = registeredOracles[registeredOracles.length -1];\n                registeredOracles.pop();\n            }\n        }\n        emit OracleRemovedEvent(_oracle);\n    }\n\n    function changeOracleName(address _oracle, string calldata _name) external onlyRegisteredOracle(_oracle) {\n        require(msg.sender == owner() || msg.sender == _oracle, 'Only oracle or owner can change name');\n        oracles[_oracle].name = _name;\n        emit OracleNameChangedEvent(_oracle, _name);\n    }\n\n    function addOracleJob(address _oracle, jobName _jobName, Job memory _job) external onlyRegisteredOracle(_oracle) {\n        require(msg.sender == owner() || msg.sender == _oracle, 'Only oracle or owner can add job');\n        oracles[_oracle].jobs[_jobName] = _job;\n        emit OracleJobAddedEvent(_oracle, _jobName);\n    }\n\n    function removeOracleJob(address _oracle, jobName _jobName) external onlyRegisteredOracle(_oracle) {\n        require(msg.sender == owner() || msg.sender == _oracle, 'Only oracle or owner can add job');\n        delete oracles[_oracle].jobs[_jobName];\n        emit OracleJobRemovedEvent(_oracle, _jobName);\n    }\n\n    function getOracleName(address _oracle) external view returns (string memory) {\n        return oracles[_oracle].name;\n    }\n\n    function getOracleJob(address _oracle, jobName _job) external view returns (bytes32, uint256) {\n        Job memory job = oracles[_oracle].jobs[_job];\n        return (job.id, job.fee);\n    }\n\n    // ------------ PAYMASTER ------------ //\n\n    function deductGasFee(string memory _githubUser, uint256 _amount)\n        external\n    {\n        // only paymaster, cause paymaster pays for gas fee on behalf of user\n        require(msg.sender == octobayPaymaster);\n        require(userClaimAmountByGithbUser[_githubUser] >= _amount, 'Not enough funds to pay gasFee');\n\n        userClaimAmountByGithbUser[_githubUser] -= _amount;\n    }\n\n\n    function _swapETHforLink(uint256 _ethAmount, uint256 _linkAmount)\n        internal\n        returns (uint256 _ethOut)\n    {\n        address[] memory path = new address[](2);\n        path[0] = weth;\n        path[1] = link;\n\n        uint256[] memory amounts =\n            uniswap.swapETHForExactTokens{value: _ethAmount}(\n                _linkAmount, // amountOut\n                path,\n                address(this),\n                now\n            );\n    }\n\n    // ------------ USER ONBOARDING ------------ //\n\n    function register(\n        address _oracle,\n        string memory _githubUser\n    ) public oracleHandlesJob(_oracle, jobName.register) returns(bytes32 requestId) {\n        // Trusted and free oracle\n        Chainlink.Request memory request =\n            buildChainlinkRequest(\n                oracles[_oracle].jobs[jobName.register].id,\n                address(this),\n                this.confirmRegistration.selector\n            );\n        request.add('githubUser', _githubUser);\n        request.add('ethAddress', addressToIntString(_msgSender()));\n        bytes32 requestId =\n            sendChainlinkRequestTo(_oracle, request, oracles[_oracle].jobs[jobName.register].fee);\n\n        users[requestId] = User(_githubUser, _msgSender(), 1);\n    }\n\n    function confirmRegistration(bytes32 _requestId)\n        public\n        recordChainlinkFulfillment(_requestId)\n    {\n        // If githubUser was registered before (changed ethAddress now) look for old\n        // ID and delete entry in userIDsByAddress as well as users entry itself (userIDsByGithubUser\n        // has been overridden above anyway).\n        bytes32 oldId = userIDsByGithubUser[users[_requestId].githubUser];\n        delete userIDsByAddress[users[oldId].ethAddress];\n        delete users[oldId];\n        // The scenario where an eth address switches to a new github account\n        // (the other way around) does not occur.\n\n        users[_requestId].status = 2;\n        userIDsByAddress[users[_requestId].ethAddress] = _requestId;\n        userIDsByGithubUser[users[_requestId].githubUser] = _requestId;\n\n        emit UserAddedEvent(_requestId, users[_requestId].githubUser, users[_requestId].ethAddress, users[_requestId].status);\n    }\n\n    // ------------ TWITTER POST ------------ //\n\n    function twitterPost(\n        address _oracle,\n        string memory _issueId\n    ) internal oracleHandlesJob(_oracle, jobName.twitterPost) returns(bytes32 requestId) {\n        // Trusted and free oracle\n        Chainlink.Request memory request =\n            buildChainlinkRequest(\n                oracles[_oracle].jobs[jobName.twitterPost].id,\n                address(this),\n                this.twitterPostConfirm.selector\n            );\n        request.add('issueId', _issueId);\n        request.addUint('amount', issueDepositsAmountByIssueId[_issueId]);\n        requestId = sendChainlinkRequestTo(_oracle, request, oracles[_oracle].jobs[jobName.twitterPost].fee);\n    }\n\n    function twitterPostConfirm(bytes32 _requestId, bytes32 _tweetId)\n        public\n        recordChainlinkFulfillment(_requestId)\n    {\n        emit TwitterPostEvent(pendingTwitterPostsIssueIds[_requestId], _tweetId);\n    }\n\n    // ------------ TWITTER FOLLOWERS ------------ //\n\n    function updateTwitterFollowersAndPost(\n        address _oracle,\n        string memory _issueId\n    ) public oracleHandlesJob(_oracle, jobName.twitterFollowers) returns(bytes32 requestId) {\n        // Trusted and free oracle\n        Chainlink.Request memory request =\n            buildChainlinkRequest(\n                oracles[_oracle].jobs[jobName.twitterFollowers].id,\n                address(this),\n                this.updateTwitterFollowersConfirm.selector\n            );\n        request.add('accountId', twitterAccountId);\n        requestId = sendChainlinkRequestTo(_oracle, request, oracles[_oracle].jobs[jobName.twitterFollowers].fee);\n        pendingTwitterPostsIssueIds[requestId] = _issueId;\n    }\n\n    function updateTwitterFollowersConfirm(bytes32 _requestId, uint256 _followers)\n        public\n        recordChainlinkFulfillment(_requestId)\n    {\n        twitterFollowers = _followers;\n        bytes32 postRequestId = twitterPost(msg.sender, pendingTwitterPostsIssueIds[_requestId]);\n        pendingTwitterPostsIssueIds[postRequestId] = pendingTwitterPostsIssueIds[_requestId];\n        delete pendingTwitterPostsIssueIds[_requestId];\n    }\n\n    // ------------ USER DEPOSITS ------------ //\n\n    function depositEthForGithubUser(string calldata _githubUser)\n        external\n        payable\n    {\n        require(msg.value > 0, 'You must send ETH.');\n        User memory user = users[userIDsByGithubUser[_githubUser]];\n\n        if(user.ethAddress != address(0) && user.status == 2) { // Registered and verified user\n            payable(users[userIDsByGithubUser[_githubUser]].ethAddress).transfer(\n                msg.value\n            );\n\n            emit UserSendEvent(msg.sender, msg.value, _githubUser);\n\n        } else {    // hold funds in contract\n            nextUserDepositId++;\n            userDeposits[nextUserDepositId] = UserDeposit(\n                msg.sender,\n                msg.value,\n                _githubUser\n            );\n            userDepositIdsByGithubUser[_githubUser].push(nextUserDepositId);\n            userDepositIdsBySender[msg.sender].push(nextUserDepositId);\n\n            // increment claim amount\n            userClaimAmountByGithbUser[_githubUser] += msg.value;\n\n            emit UserDepositEvent(msg.sender, msg.value, _githubUser);\n        }\n    }\n\n    function _sendDeposit(uint256 _depositId, address _to) internal {\n        UserDeposit memory deposit = userDeposits[_depositId];\n        payable(_to).transfer(deposit.amount);\n\n        // reduce claim amount\n        userClaimAmountByGithbUser[deposit.githubUser] -= deposit.amount;\n\n        delete userDeposits[_depositId];\n    }\n\n\n    function refundUserDeposit(uint256 _depositId) external {\n        require(\n            userDeposits[_depositId].from == msg.sender,\n            'Deposit did not came from this Ethereum address.'\n        );\n        _sendDeposit(_depositId, msg.sender);   // msg.sender is depositor\n    }\n\n\n    // ------------ USER WITHDRAWALS ------------ //\n\n\n    function withdrawUserDeposit(uint256 _depositId) external {\n        require(\n            users[userIDsByAddress[msg.sender]].ethAddress == msg.sender,\n            'This Ethereum address is not registered with any GitHub user.'\n        );\n        require(\n            keccak256(bytes(userDeposits[_depositId].githubUser)) ==\n                keccak256(\n                    bytes(users[userIDsByAddress[msg.sender]].githubUser)\n                ),\n            'Deposit is not for this GitHub account.'\n        );\n        _sendDeposit(_depositId, msg.sender);   // msg.sender is user\n    }\n\n\n\n    // ------------ ISSUE DEPOSITS ------------ //\n\n    function depositEthForIssue(string calldata _issueId) external payable {\n        require(msg.value > 0, 'You must send ETH.');\n        nextIssueDepositId++;\n        issueDeposits[nextIssueDepositId] = IssueDeposit(\n            msg.sender,\n            msg.value,\n            _issueId\n        );\n        issueDepositIdsByIssueId[_issueId].push(nextIssueDepositId);\n        issueDepositIdsBySender[msg.sender].push(nextIssueDepositId);\n        issueDepositsAmountByIssueId[_issueId] += msg.value;\n        emit IssueDepositEvent(msg.sender, msg.value, _issueId, nextIssueDepositId);\n    }\n\n    function refundIssueDeposit(uint256 _depositId) external {\n        require(\n            issueDeposits[_depositId].from == msg.sender,\n            'Deposit did not come from this Ethereum address or does not exist.'\n        );\n        require(\n            issueDepositsAmountByIssueId[issueDeposits[_depositId].issueId] >=\n                issueDeposits[_depositId].amount,\n            'This issue deposit has been withdrawn already.'\n        );\n        payable(msg.sender).transfer(issueDeposits[_depositId].amount);\n        issueDepositsAmountByIssueId[\n            issueDeposits[_depositId].issueId\n        ] -= issueDeposits[_depositId].amount;\n        delete issueDeposits[_depositId];\n    }\n\n\n    // ------------ ISSUE-DEPOSIT RELEASES ------------ //\n\n    function releaseIssueDeposits(\n        address _oracle,\n        string memory _issueId,\n        string memory _githubUser\n    ) public oracleHandlesJob(_oracle, jobName.release) {\n        require(\n            issueDepositsAmountByIssueId[_issueId] > 0,\n            'Issue has no deposits to release.'\n        );\n        require(\n            users[userIDsByAddress[msg.sender]].ethAddress == msg.sender,\n            'Only registered GitHub users can release issue deposits.'\n        );\n\n        Chainlink.Request memory request =\n            buildChainlinkRequest(\n                oracles[_oracle].jobs[jobName.release].id,\n                address(this),\n                this.confirmReleaseIssueDeposits.selector\n            );\n        request.add('githubUser', _githubUser);\n        request.add('issueId', _issueId);\n        bytes32 requestId =\n            sendChainlinkRequestTo(_oracle, request, oracles[_oracle].jobs[jobName.release].fee);\n\n        releasedIssues[requestId] = ReleasedIssue(_githubUser, _issueId, 1);\n        issueReleaseIDsByIssueId[_issueId] = requestId;\n    }\n\n    function confirmReleaseIssueDeposits(bytes32 _requestId)\n        public\n        recordChainlinkFulfillment(_requestId)\n    {\n        require(\n            releasedIssues[_requestId].status == 1,\n            'Isse deposit release was not requested.'\n        );\n        releasedIssues[_requestId].status = 2;\n\n        // add released issue funds to user deposits\n        userClaimAmountByGithbUser[releasedIssues[_requestId].githubUser] +=\n            issueDepositsAmountByIssueId[releasedIssues[_requestId].issueId];\n\n        emit ReleaseIssueDepositsEvent(\n            releasedIssues[_requestId].issueId,\n            releasedIssues[_requestId].githubUser\n        );\n    }\n\n    function claimReleasedIssueDeposits(string calldata _issueId) external {\n        require(\n            users[userIDsByAddress[msg.sender]].ethAddress == msg.sender,\n            'No GitHub account registered with this Ethereum account.'\n        );\n        require(\n            keccak256(\n                bytes(\n                    releasedIssues[issueReleaseIDsByIssueId[_issueId]]\n                        .githubUser\n                )\n            ) ==\n                keccak256(\n                    bytes(users[userIDsByAddress[msg.sender]].githubUser)\n                ),\n            'The GitHub account this issue was released to does not belong to this Ethereum account.'\n        );\n        require(\n            issueDepositsAmountByIssueId[_issueId] > 0,\n            'Issue deposits already claimed.'\n        );\n\n        payable(msg.sender).transfer(issueDepositsAmountByIssueId[_issueId]);\n        // subtract released issue funds from user deposits\n        userClaimAmountByGithbUser[users[userIDsByAddress[msg.sender]].githubUser] -=\n            issueDepositsAmountByIssueId[_issueId];\n\n        issueDepositsAmountByIssueId[_issueId] = 0;\n    }\n\n    // ------------ PULL REQUESTS ------------ //\n\n    function claimPullRequest(\n        address _oracle,\n        string memory _prId,\n        string memory _githubUser\n    ) public oracleHandlesJob(_oracle, jobName.release) {\n        require(\n            pullRequestClaims[pullRequestClaimIDsByPrId[_prId]].status != 2,\n            'Pull request already claimed.'\n        );\n        require(\n            users[userIDsByGithubUser[_githubUser]].status == 2,\n            'This GitHub user is not registered.'\n        );\n\n        Chainlink.Request memory request =\n            buildChainlinkRequest(\n                oracles[_oracle].jobs[jobName.claim].id,\n                address(this),\n                this.confirmPullRequestClaim.selector\n            );\n        request.add('githubUser', _githubUser);\n        request.add('prId', _prId);\n        bytes32 requestId = sendChainlinkRequestTo(_oracle, request, oracles[_oracle].jobs[jobName.claim].fee);\n\n        pullRequestClaims[requestId] = PullRequestClaim(_githubUser, _prId, 1);\n    }\n\n    function confirmPullRequestClaim(bytes32 _requestId, uint256 _score)\n        public\n        recordChainlinkFulfillment(_requestId)\n    {\n        require(\n            1 <= _score && _score <= 100,\n            'Invalid score: 1 <= score <= 100'\n        );\n        require(\n            pullRequestClaims[_requestId].status == 1,\n            'Pull request claim was not requested.'\n        );\n        require(\n            users[userIDsByGithubUser[pullRequestClaims[_requestId].githubUser]]\n                .ethAddress != address(0),\n            'This GitHub user is not registered.'\n        );\n\n        pullRequestClaims[_requestId].status = 2;\n        octoPin.mintOnPullRequestClaim(\n            users[userIDsByGithubUser[pullRequestClaims[_requestId].githubUser]]\n                .ethAddress,\n            _score * uint256(10)**octoPin.decimals()\n        );\n    }\n\n\n    // ------------ GETTERS ------------ //\n\n     function getUserDepositIdsForGithubUser(string calldata _githubUser)\n        external\n        view\n        returns (uint256[] memory)\n    {\n        return userDepositIdsByGithubUser[_githubUser];\n    }\n\n    function getUserDepositIdsForSender()\n        external\n        view\n        returns (uint256[] memory)\n    {\n        return userDepositIdsBySender[msg.sender];\n    }\n\n    function getIssueDepositIdsForIssueId(string calldata _depositId)\n        external\n        view\n        returns (uint256[] memory)\n    {\n        return issueDepositIdsByIssueId[_depositId];\n    }\n\n    function getIssueDepositIdsForSender()\n        external\n        view\n        returns (uint256[] memory)\n    {\n        return issueDepositIdsBySender[msg.sender];\n    }\n\n    function getUserClaimAmount(string memory _githubUser)\n        external\n        view\n        returns (uint256)\n    {\n        return userClaimAmountByGithbUser[_githubUser];\n    }\n\n    function getOracles() external view returns(address[] memory) {\n        return registeredOracles;\n    }\n\n    // ------------ UTILS ------------ //\n\n    function addressToIntString(address _address)\n        internal\n        pure\n        returns (string memory _string)\n    {\n        uint256 _i = uint256(_address);\n        if (_i == 0) {\n            return '0';\n        }\n        uint256 j = _i;\n        uint256 len;\n        while (j != 0) {\n            len++;\n            j /= 10;\n        }\n        bytes memory bstr = new bytes(len);\n        uint256 k = len - 1;\n        while (_i != 0) {\n            bstr[k--] = bytes1(uint8(48 + (_i % 10)));\n            _i /= 10;\n        }\n        return string(bstr);\n    }\n}\n",
  "sourcePath": "/home/mkt/Projects/octobay/contracts/contracts/OctoBay.sol",
  "compiler": {
    "name": "solc",
    "version": "0.6.12+commit.27d51765.Emscripten.clang"
  },
  "schemaVersion": "3.2.5",
  "updatedAt": "2021-02-10T02:45:37.680Z",
  "devdoc": {
    "kind": "dev",
    "methods": {
      "owner()": {
        "details": "Returns the address of the current owner."
      },
      "renounceOwnership()": {
        "details": "Leaves the contract without owner. It will not be possible to call `onlyOwner` functions anymore. Can only be called by the current owner. NOTE: Renouncing ownership will leave the contract without an owner, thereby removing any functionality that is only available to the owner."
      },
      "transferOwnership(address)": {
        "details": "Transfers ownership of the contract to a new account (`newOwner`). Can only be called by the current owner."
      }
    },
    "version": 1
  },
  "userdoc": {
    "kind": "user",
    "methods": {
      "isTrustedForwarder(address)": {
        "notice": "return if the forwarder is trusted to forward relayed transactions to us. the forwarder is required to verify the sender's signature, and verify the call is not a replay."
      }
    },
    "version": 1
  }
}