{
  "contractName": "OctoPin",
  "abi": [
    {
      "inputs": [
        {
          "internalType": "address",
          "name": "_octobay",
          "type": "address"
        }
      ],
      "stateMutability": "nonpayable",
      "type": "constructor"
    },
    {
      "anonymous": false,
      "inputs": [
        {
          "indexed": true,
          "internalType": "address",
          "name": "owner",
          "type": "address"
        },
        {
          "indexed": true,
          "internalType": "address",
          "name": "spender",
          "type": "address"
        },
        {
          "indexed": false,
          "internalType": "uint256",
          "name": "value",
          "type": "uint256"
        }
      ],
      "name": "Approval",
      "type": "event"
    },
    {
      "anonymous": false,
      "inputs": [
        {
          "indexed": true,
          "internalType": "address",
          "name": "previousOwner",
          "type": "address"
        },
        {
          "indexed": true,
          "internalType": "address",
          "name": "newOwner",
          "type": "address"
        }
      ],
      "name": "OwnershipTransferred",
      "type": "event"
    },
    {
      "anonymous": false,
      "inputs": [
        {
          "indexed": true,
          "internalType": "address",
          "name": "from",
          "type": "address"
        },
        {
          "indexed": true,
          "internalType": "address",
          "name": "to",
          "type": "address"
        },
        {
          "indexed": false,
          "internalType": "uint256",
          "name": "value",
          "type": "uint256"
        }
      ],
      "name": "Transfer",
      "type": "event"
    },
    {
      "inputs": [
        {
          "internalType": "address",
          "name": "owner",
          "type": "address"
        },
        {
          "internalType": "address",
          "name": "spender",
          "type": "address"
        }
      ],
      "name": "allowance",
      "outputs": [
        {
          "internalType": "uint256",
          "name": "",
          "type": "uint256"
        }
      ],
      "stateMutability": "view",
      "type": "function",
      "constant": true
    },
    {
      "inputs": [
        {
          "internalType": "address",
          "name": "spender",
          "type": "address"
        },
        {
          "internalType": "uint256",
          "name": "amount",
          "type": "uint256"
        }
      ],
      "name": "approve",
      "outputs": [
        {
          "internalType": "bool",
          "name": "",
          "type": "bool"
        }
      ],
      "stateMutability": "nonpayable",
      "type": "function"
    },
    {
      "inputs": [
        {
          "internalType": "address",
          "name": "account",
          "type": "address"
        }
      ],
      "name": "balanceOf",
      "outputs": [
        {
          "internalType": "uint256",
          "name": "",
          "type": "uint256"
        }
      ],
      "stateMutability": "view",
      "type": "function",
      "constant": true
    },
    {
      "inputs": [],
      "name": "decimals",
      "outputs": [
        {
          "internalType": "uint8",
          "name": "",
          "type": "uint8"
        }
      ],
      "stateMutability": "view",
      "type": "function",
      "constant": true
    },
    {
      "inputs": [
        {
          "internalType": "address",
          "name": "spender",
          "type": "address"
        },
        {
          "internalType": "uint256",
          "name": "subtractedValue",
          "type": "uint256"
        }
      ],
      "name": "decreaseAllowance",
      "outputs": [
        {
          "internalType": "bool",
          "name": "",
          "type": "bool"
        }
      ],
      "stateMutability": "nonpayable",
      "type": "function"
    },
    {
      "inputs": [
        {
          "internalType": "address",
          "name": "spender",
          "type": "address"
        },
        {
          "internalType": "uint256",
          "name": "addedValue",
          "type": "uint256"
        }
      ],
      "name": "increaseAllowance",
      "outputs": [
        {
          "internalType": "bool",
          "name": "",
          "type": "bool"
        }
      ],
      "stateMutability": "nonpayable",
      "type": "function"
    },
    {
      "inputs": [
        {
          "internalType": "string",
          "name": "",
          "type": "string"
        }
      ],
      "name": "issuePins",
      "outputs": [
        {
          "internalType": "uint256",
          "name": "",
          "type": "uint256"
        }
      ],
      "stateMutability": "view",
      "type": "function",
      "constant": true
    },
    {
      "inputs": [],
      "name": "name",
      "outputs": [
        {
          "internalType": "string",
          "name": "",
          "type": "string"
        }
      ],
      "stateMutability": "view",
      "type": "function",
      "constant": true
    },
    {
      "inputs": [],
      "name": "owner",
      "outputs": [
        {
          "internalType": "address",
          "name": "",
          "type": "address"
        }
      ],
      "stateMutability": "view",
      "type": "function",
      "constant": true
    },
    {
      "inputs": [],
      "name": "renounceOwnership",
      "outputs": [],
      "stateMutability": "nonpayable",
      "type": "function"
    },
    {
      "inputs": [],
      "name": "symbol",
      "outputs": [
        {
          "internalType": "string",
          "name": "",
          "type": "string"
        }
      ],
      "stateMutability": "view",
      "type": "function",
      "constant": true
    },
    {
      "inputs": [],
      "name": "totalSupply",
      "outputs": [
        {
          "internalType": "uint256",
          "name": "",
          "type": "uint256"
        }
      ],
      "stateMutability": "view",
      "type": "function",
      "constant": true
    },
    {
      "inputs": [
        {
          "internalType": "address",
          "name": "recipient",
          "type": "address"
        },
        {
          "internalType": "uint256",
          "name": "amount",
          "type": "uint256"
        }
      ],
      "name": "transfer",
      "outputs": [
        {
          "internalType": "bool",
          "name": "",
          "type": "bool"
        }
      ],
      "stateMutability": "nonpayable",
      "type": "function"
    },
    {
      "inputs": [
        {
          "internalType": "address",
          "name": "sender",
          "type": "address"
        },
        {
          "internalType": "address",
          "name": "recipient",
          "type": "address"
        },
        {
          "internalType": "uint256",
          "name": "amount",
          "type": "uint256"
        }
      ],
      "name": "transferFrom",
      "outputs": [
        {
          "internalType": "bool",
          "name": "",
          "type": "bool"
        }
      ],
      "stateMutability": "nonpayable",
      "type": "function"
    },
    {
      "inputs": [
        {
          "internalType": "address",
          "name": "newOwner",
          "type": "address"
        }
      ],
      "name": "transferOwnership",
      "outputs": [],
      "stateMutability": "nonpayable",
      "type": "function"
    },
    {
      "inputs": [
        {
          "internalType": "string",
          "name": "_issueId",
          "type": "string"
        },
        {
          "internalType": "uint256",
          "name": "_amount",
          "type": "uint256"
        }
      ],
      "name": "pinIssue",
      "outputs": [],
      "stateMutability": "nonpayable",
      "type": "function"
    },
    {
      "inputs": [
        {
          "internalType": "address",
          "name": "_octobay",
          "type": "address"
        }
      ],
      "name": "updateOctobay",
      "outputs": [],
      "stateMutability": "nonpayable",
      "type": "function"
    },
    {
      "inputs": [
        {
          "internalType": "address",
          "name": "_receiver",
          "type": "address"
        },
        {
          "internalType": "uint256",
          "name": "_amount",
          "type": "uint256"
        }
      ],
      "name": "mintOnPullRequestClaim",
      "outputs": [],
      "stateMutability": "nonpayable",
      "type": "function"
    }
  ],
  "bytecode": "0x60806040523480156200001157600080fd5b5060405162001343380380620013438339810160408190526200003491620001cd565b604080518082018252600781526627b1ba37a834b760c91b60208083019182528351808501909452600484526327a824a760e11b9084015281519192916200007f9160039162000131565b5080516200009590600490602084019062000131565b50506005805460ff19166012179055506000620000b16200012d565b60058054610100600160a81b0319166101006001600160a01b03841690810291909117909155604051919250906000907f8be0079c531659141344cd1fd0a4f28419497f9722a3daafe3b4186f6b6457e0908290a350600780546001600160a01b0319166001600160a01b0392909216919091179055620001fd565b3390565b828054600181600116156101000203166002900490600052602060002090601f016020900481019282601f106200017457805160ff1916838001178555620001a4565b82800160010185558215620001a4579182015b82811115620001a457825182559160200191906001019062000187565b50620001b2929150620001b6565b5090565b5b80821115620001b25760008155600101620001b7565b600060208284031215620001df578081fd5b81516001600160a01b0381168114620001f6578182fd5b9392505050565b611136806200020d6000396000f3fe608060405234801561001057600080fd5b50600436106100f65760003560e01c80638da5cb5b116100925780638da5cb5b146101b957806395d89b41146101ce578063a457c2d7146101d6578063a9059cbb146101e9578063a9c8ce6f146101fc578063cf5f5f461461020f578063dd62ed3e14610222578063f2fde38b14610235578063f68fb07514610248576100f6565b806306fdde03146100fb578063095ea7b31461011957806318160ddd1461013957806323b872dd1461014e578063313ce56714610161578063395093511461017657806370a0823114610189578063715018a61461019c57806384f8f644146101a6575b600080fd5b61010361025b565b6040516101109190610d4a565b60405180910390f35b61012c610127366004610c67565b6102f1565b6040516101109190610d3f565b61014161030f565b6040516101109190610fec565b61012c61015c366004610c27565b610315565b61016961039c565b6040516101109190610ff5565b61012c610184366004610c67565b6103a5565b610141610197366004610bd8565b6103f3565b6101a461040e565b005b6101a46101b4366004610ccc565b6104a1565b6101c16104f6565b6040516101109190610d2b565b61010361050a565b61012c6101e4366004610c67565b61056b565b61012c6101f7366004610c67565b6105d3565b6101a461020a366004610bd8565b6105e7565b61014161021d366004610c91565b610643565b610141610230366004610bf3565b610660565b6101a4610243366004610bd8565b61068b565b6101a4610256366004610c67565b610752565b60038054604080516020601f60026000196101006001881615020190951694909404938401819004810282018101909252828152606093909290918301828280156102e75780601f106102bc576101008083540402835291602001916102e7565b820191906000526020600020905b8154815290600101906020018083116102ca57829003601f168201915b5050505050905090565b60006103056102fe610777565b848461077b565b5060015b92915050565b60025490565b600061032284848461082f565b6103928461032e610777565b61038d85604051806060016040528060288152602001611094602891396001600160a01b038a1660009081526001602052604081209061036c610777565b6001600160a01b031681526020810191909152604001600020549190610932565b61077b565b5060019392505050565b60055460ff1690565b60006103056103b2610777565b8461038d85600160006103c3610777565b6001600160a01b03908116825260208083019390935260409182016000908120918c16815292529020549061095e565b6001600160a01b031660009081526020819052604090205490565b610416610777565b60055461010090046001600160a01b039081169116146104515760405162461bcd60e51b815260040161044890610eb6565b60405180910390fd5b60055460405160009161010090046001600160a01b0316907f8be0079c531659141344cd1fd0a4f28419497f9722a3daafe3b4186f6b6457e0908390a360058054610100600160a81b0319169055565b600081116104c15760405162461bcd60e51b815260040161044890610dc0565b6104cb338261098a565b806006836040516104dc9190610d0f565b908152604051908190036020019020805490910190555050565b60055461010090046001600160a01b031690565b60048054604080516020601f60026000196101006001881615020190951694909404938401819004810282018101909252828152606093909290918301828280156102e75780601f106102bc576101008083540402835291602001916102e7565b6000610305610578610777565b8461038d856040518060600160405280602581526020016110dc60259139600160006105a2610777565b6001600160a01b03908116825260208083019390935260409182016000908120918d16815292529020549190610932565b60006103056105e0610777565b848461082f565b6105ef610777565b60055461010090046001600160a01b039081169116146106215760405162461bcd60e51b815260040161044890610eb6565b600780546001600160a01b0319166001600160a01b0392909216919091179055565b805160208183018101805160068252928201919093012091525481565b6001600160a01b03918216600090815260016020908152604080832093909416825291909152205490565b610693610777565b60055461010090046001600160a01b039081169116146106c55760405162461bcd60e51b815260040161044890610eb6565b6001600160a01b0381166106eb5760405162461bcd60e51b815260040161044890610df7565b6005546040516001600160a01b0380841692610100900416907f8be0079c531659141344cd1fd0a4f28419497f9722a3daafe3b4186f6b6457e090600090a3600580546001600160a01b0390921661010002610100600160a81b0319909216919091179055565b6007546001600160a01b0316331461076957600080fd5b6107738282610a5a565b5050565b3390565b6001600160a01b0383166107a15760405162461bcd60e51b815260040161044890610f71565b6001600160a01b0382166107c75760405162461bcd60e51b815260040161044890610e3d565b6001600160a01b0380841660008181526001602090815260408083209487168084529490915290819020849055517f8c5be1e5ebec7d5bd14f71427d1e84f3dd0314c0f7b2291e5b200ac8c7c3b92590610822908590610fec565b60405180910390a3505050565b6001600160a01b0383166108555760405162461bcd60e51b815260040161044890610f2c565b6001600160a01b03821661087b5760405162461bcd60e51b815260040161044890610d7d565b610886838383610afc565b6108c38160405180606001604052806026815260200161106e602691396001600160a01b0386166000908152602081905260409020549190610932565b6001600160a01b0380851660009081526020819052604080822093909355908416815220546108f2908261095e565b6001600160a01b0380841660008181526020819052604090819020939093559151908516906000805160206110bc83398151915290610822908590610fec565b600081848411156109565760405162461bcd60e51b81526004016104489190610d4a565b505050900390565b6000828201838110156109835760405162461bcd60e51b815260040161044890610e7f565b9392505050565b6001600160a01b0382166109b05760405162461bcd60e51b815260040161044890610eeb565b6109bc82600083610afc565b6109f98160405180606001604052806022815260200161104c602291396001600160a01b0385166000908152602081905260409020549190610932565b6001600160a01b038316600090815260208190526040902055600254610a1f9082610b01565b6002556040516000906001600160a01b038416906000805160206110bc83398151915290610a4e908590610fec565b60405180910390a35050565b6001600160a01b038216610a805760405162461bcd60e51b815260040161044890610fb5565b610a8c60008383610afc565b600254610a99908261095e565b6002556001600160a01b038216600090815260208190526040902054610abf908261095e565b6001600160a01b0383166000818152602081905260408082209390935591519091906000805160206110bc83398151915290610a4e908590610fec565b505050565b600061098383836040518060400160405280601e81526020017f536166654d6174683a207375627472616374696f6e206f766572666c6f770000815250610932565b80356001600160a01b038116811461030957600080fd5b600082601f830112610b6a578081fd5b813567ffffffffffffffff80821115610b81578283fd5b604051601f8301601f191681016020018281118282101715610ba1578485fd5b604052828152925082848301602001861015610bbc57600080fd5b8260208601602083013760006020848301015250505092915050565b600060208284031215610be9578081fd5b6109838383610b43565b60008060408385031215610c05578081fd5b610c0f8484610b43565b9150610c1e8460208501610b43565b90509250929050565b600080600060608486031215610c3b578081fd5b8335610c4681611033565b92506020840135610c5681611033565b929592945050506040919091013590565b60008060408385031215610c79578182fd5b610c838484610b43565b946020939093013593505050565b600060208284031215610ca2578081fd5b813567ffffffffffffffff811115610cb8578182fd5b610cc484828501610b5a565b949350505050565b60008060408385031215610cde578182fd5b823567ffffffffffffffff811115610cf4578283fd5b610d0085828601610b5a565b95602094909401359450505050565b60008251610d21818460208701611003565b9190910192915050565b6001600160a01b0391909116815260200190565b901515815260200190565b6000602082528251806020840152610d69816040850160208701611003565b601f01601f19169190910160400192915050565b60208082526023908201527f45524332303a207472616e7366657220746f20746865207a65726f206164647260408201526265737360e81b606082015260800190565b6020808252601c908201527f416d6f756e74206d7573742062652067726561746572207a65726f2e00000000604082015260600190565b60208082526026908201527f4f776e61626c653a206e6577206f776e657220697320746865207a65726f206160408201526564647265737360d01b606082015260800190565b60208082526022908201527f45524332303a20617070726f766520746f20746865207a65726f206164647265604082015261737360f01b606082015260800190565b6020808252601b908201527f536166654d6174683a206164646974696f6e206f766572666c6f770000000000604082015260600190565b6020808252818101527f4f776e61626c653a2063616c6c6572206973206e6f7420746865206f776e6572604082015260600190565b60208082526021908201527f45524332303a206275726e2066726f6d20746865207a65726f206164647265736040820152607360f81b606082015260800190565b60208082526025908201527f45524332303a207472616e736665722066726f6d20746865207a65726f206164604082015264647265737360d81b606082015260800190565b60208082526024908201527f45524332303a20617070726f76652066726f6d20746865207a65726f206164646040820152637265737360e01b606082015260800190565b6020808252601f908201527f45524332303a206d696e7420746f20746865207a65726f206164647265737300604082015260600190565b90815260200190565b60ff91909116815260200190565b60005b8381101561101e578181015183820152602001611006565b8381111561102d576000848401525b50505050565b6001600160a01b038116811461104857600080fd5b5056fe45524332303a206275726e20616d6f756e7420657863656564732062616c616e636545524332303a207472616e7366657220616d6f756e7420657863656564732062616c616e636545524332303a207472616e7366657220616d6f756e74206578636565647320616c6c6f77616e6365ddf252ad1be2c89b69c2b068fc378daa952ba7f163c4a11628f55a4df523b3ef45524332303a2064656372656173656420616c6c6f77616e63652062656c6f77207a65726fa26469706673582212209e0a0980e0dfd8b7f63012919a8076e0a7afd05e430a3efeaeb89127e7f5d41c64736f6c634300060c0033",
  "immutableReferences": {},
  "source": "// SPDX-License-Identifier: MIT\npragma solidity ^0.6.0;\npragma experimental ABIEncoderV2;\n\nimport '@openzeppelin/contracts/token/ERC20/ERC20.sol';\nimport '@openzeppelin/contracts/access/Ownable.sol';\n\ncontract OctoPin is ERC20, Ownable {\n    mapping(string => uint256) public issuePins;\n\n    address octobay;\n    uint256 private registrationFee;\n    uint256 private claimFee;\n\n    constructor(address _octobay) public ERC20('OctoPin', 'OPIN') {\n        octobay = _octobay;\n    }\n\n    function pinIssue(string memory _issueId, uint256 _amount) public {\n        require(_amount > 0, 'Amount must be greater zero.');\n        _burn(msg.sender, _amount);\n        issuePins[_issueId] += _amount;\n    }\n\n    modifier onlyOctobay {\n        require(msg.sender == octobay);\n        _;\n    }\n\n    function updateOctobay(address _octobay) external onlyOwner {\n        octobay = _octobay;\n    }\n\n    function mintOnPullRequestClaim(address _receiver, uint256 _amount)\n        external\n        onlyOctobay\n    {\n        _mint(_receiver, _amount);\n    }\n\n    // TODO\n    // function mintOnIssueClaim() onlyOctobay {}\n}\n",
  "sourcePath": "/home/mkt/Projects/octobay/contracts/contracts/OctoPin.sol",
  "compiler": {
    "name": "solc",
    "version": "0.6.12+commit.27d51765.Emscripten.clang"
  },
  "schemaVersion": "3.2.5",
  "updatedAt": "2021-01-17T18:26:10.345Z",
  "networkType": "ethereum",
  "devdoc": {
    "kind": "dev",
    "methods": {
      "allowance(address,address)": {
        "details": "See {IERC20-allowance}."
      },
      "approve(address,uint256)": {
        "details": "See {IERC20-approve}. Requirements: - `spender` cannot be the zero address."
      },
      "balanceOf(address)": {
        "details": "See {IERC20-balanceOf}."
      },
      "decimals()": {
        "details": "Returns the number of decimals used to get its user representation. For example, if `decimals` equals `2`, a balance of `505` tokens should be displayed to a user as `5,05` (`505 / 10 ** 2`). Tokens usually opt for a value of 18, imitating the relationship between Ether and Wei. This is the value {ERC20} uses, unless {_setupDecimals} is called. NOTE: This information is only used for _display_ purposes: it in no way affects any of the arithmetic of the contract, including {IERC20-balanceOf} and {IERC20-transfer}."
      },
      "decreaseAllowance(address,uint256)": {
        "details": "Atomically decreases the allowance granted to `spender` by the caller. This is an alternative to {approve} that can be used as a mitigation for problems described in {IERC20-approve}. Emits an {Approval} event indicating the updated allowance. Requirements: - `spender` cannot be the zero address. - `spender` must have allowance for the caller of at least `subtractedValue`."
      },
      "increaseAllowance(address,uint256)": {
        "details": "Atomically increases the allowance granted to `spender` by the caller. This is an alternative to {approve} that can be used as a mitigation for problems described in {IERC20-approve}. Emits an {Approval} event indicating the updated allowance. Requirements: - `spender` cannot be the zero address."
      },
      "name()": {
        "details": "Returns the name of the token."
      },
      "owner()": {
        "details": "Returns the address of the current owner."
      },
      "renounceOwnership()": {
        "details": "Leaves the contract without owner. It will not be possible to call `onlyOwner` functions anymore. Can only be called by the current owner. NOTE: Renouncing ownership will leave the contract without an owner, thereby removing any functionality that is only available to the owner."
      },
      "symbol()": {
        "details": "Returns the symbol of the token, usually a shorter version of the name."
      },
      "totalSupply()": {
        "details": "See {IERC20-totalSupply}."
      },
      "transfer(address,uint256)": {
        "details": "See {IERC20-transfer}. Requirements: - `recipient` cannot be the zero address. - the caller must have a balance of at least `amount`."
      },
      "transferFrom(address,address,uint256)": {
        "details": "See {IERC20-transferFrom}. Emits an {Approval} event indicating the updated allowance. This is not required by the EIP. See the note at the beginning of {ERC20}. Requirements: - `sender` and `recipient` cannot be the zero address. - `sender` must have a balance of at least `amount`. - the caller must have allowance for ``sender``'s tokens of at least `amount`."
      },
      "transferOwnership(address)": {
        "details": "Transfers ownership of the contract to a new account (`newOwner`). Can only be called by the current owner."
      }
    },
    "version": 1
  },
  "userdoc": {
    "kind": "user",
    "methods": {},
    "version": 1
  }
}