{
  "contractName": "OctoBay",
  "abi": [
    {
      "inputs": [
        {
          "internalType": "address",
          "name": "_link",
          "type": "address"
        },
        {
          "internalType": "address",
          "name": "_weth",
          "type": "address"
        },
        {
          "internalType": "address",
          "name": "_uniswap",
          "type": "address"
        },
        {
          "internalType": "address",
          "name": "_forwarder",
          "type": "address"
        }
      ],
      "stateMutability": "nonpayable",
      "type": "constructor"
    },
    {
      "anonymous": false,
      "inputs": [
        {
          "indexed": true,
          "internalType": "bytes32",
          "name": "id",
          "type": "bytes32"
        }
      ],
      "name": "ChainlinkCancelled",
      "type": "event"
    },
    {
      "anonymous": false,
      "inputs": [
        {
          "indexed": true,
          "internalType": "bytes32",
          "name": "id",
          "type": "bytes32"
        }
      ],
      "name": "ChainlinkFulfilled",
      "type": "event"
    },
    {
      "anonymous": false,
      "inputs": [
        {
          "indexed": true,
          "internalType": "bytes32",
          "name": "id",
          "type": "bytes32"
        }
      ],
      "name": "ChainlinkRequested",
      "type": "event"
    },
    {
      "anonymous": false,
      "inputs": [
        {
          "indexed": false,
          "internalType": "address",
          "name": "account",
          "type": "address"
        },
        {
          "indexed": false,
          "internalType": "uint256",
          "name": "amount",
          "type": "uint256"
        },
        {
          "indexed": false,
          "internalType": "string",
          "name": "issueId",
          "type": "string"
        }
      ],
      "name": "IssueDepositEvent",
      "type": "event"
    },
    {
      "anonymous": false,
      "inputs": [
        {
          "indexed": true,
          "internalType": "address",
          "name": "previousOwner",
          "type": "address"
        },
        {
          "indexed": true,
          "internalType": "address",
          "name": "newOwner",
          "type": "address"
        }
      ],
      "name": "OwnershipTransferred",
      "type": "event"
    },
    {
      "anonymous": false,
      "inputs": [
        {
          "indexed": false,
          "internalType": "string",
          "name": "issueId",
          "type": "string"
        },
        {
          "indexed": false,
          "internalType": "string",
          "name": "githubUser",
          "type": "string"
        }
      ],
      "name": "ReleaseIssueDepositsEvent",
      "type": "event"
    },
    {
      "anonymous": false,
      "inputs": [
        {
          "indexed": false,
          "internalType": "bytes32",
          "name": "requestId",
          "type": "bytes32"
        },
        {
          "indexed": false,
          "internalType": "bytes32",
          "name": "tweetId",
          "type": "bytes32"
        }
      ],
      "name": "TwitterPost",
      "type": "event"
    },
    {
      "anonymous": false,
      "inputs": [
        {
          "indexed": false,
          "internalType": "address",
          "name": "account",
          "type": "address"
        },
        {
          "indexed": false,
          "internalType": "uint256",
          "name": "amount",
          "type": "uint256"
        },
        {
          "indexed": false,
          "internalType": "string",
          "name": "githubUser",
          "type": "string"
        }
      ],
      "name": "UserDepositEvent",
      "type": "event"
    },
    {
      "anonymous": false,
      "inputs": [
        {
          "indexed": false,
          "internalType": "address",
          "name": "account",
          "type": "address"
        },
        {
          "indexed": false,
          "internalType": "uint256",
          "name": "amount",
          "type": "uint256"
        },
        {
          "indexed": false,
          "internalType": "string",
          "name": "githubUser",
          "type": "string"
        }
      ],
      "name": "UserSendEvent",
      "type": "event"
    },
    {
      "inputs": [
        {
          "internalType": "address",
          "name": "",
          "type": "address"
        }
      ],
      "name": "claimJobFees",
      "outputs": [
        {
          "internalType": "uint256",
          "name": "",
          "type": "uint256"
        }
      ],
      "stateMutability": "view",
      "type": "function",
      "constant": true
    },
    {
      "inputs": [
        {
          "internalType": "address",
          "name": "",
          "type": "address"
        }
      ],
      "name": "claimJobIds",
      "outputs": [
        {
          "internalType": "bytes32",
          "name": "",
          "type": "bytes32"
        }
      ],
      "stateMutability": "view",
      "type": "function",
      "constant": true
    },
    {
      "inputs": [
        {
          "internalType": "address",
          "name": "forwarder",
          "type": "address"
        }
      ],
      "name": "isTrustedForwarder",
      "outputs": [
        {
          "internalType": "bool",
          "name": "",
          "type": "bool"
        }
      ],
      "stateMutability": "view",
      "type": "function",
      "constant": true
    },
    {
      "inputs": [
        {
          "internalType": "string",
          "name": "",
          "type": "string"
        },
        {
          "internalType": "uint256",
          "name": "",
          "type": "uint256"
        }
      ],
      "name": "issueDepositIdsByIssueId",
      "outputs": [
        {
          "internalType": "uint256",
          "name": "",
          "type": "uint256"
        }
      ],
      "stateMutability": "view",
      "type": "function",
      "constant": true
    },
    {
      "inputs": [
        {
          "internalType": "address",
          "name": "",
          "type": "address"
        },
        {
          "internalType": "uint256",
          "name": "",
          "type": "uint256"
        }
      ],
      "name": "issueDepositIdsBySender",
      "outputs": [
        {
          "internalType": "uint256",
          "name": "",
          "type": "uint256"
        }
      ],
      "stateMutability": "view",
      "type": "function",
      "constant": true
    },
    {
      "inputs": [
        {
          "internalType": "uint256",
          "name": "",
          "type": "uint256"
        }
      ],
      "name": "issueDeposits",
      "outputs": [
        {
          "internalType": "address",
          "name": "from",
          "type": "address"
        },
        {
          "internalType": "uint256",
          "name": "amount",
          "type": "uint256"
        },
        {
          "internalType": "string",
          "name": "issueId",
          "type": "string"
        }
      ],
      "stateMutability": "view",
      "type": "function",
      "constant": true
    },
    {
      "inputs": [
        {
          "internalType": "string",
          "name": "",
          "type": "string"
        }
      ],
      "name": "issueDepositsAmountByIssueId",
      "outputs": [
        {
          "internalType": "uint256",
          "name": "",
          "type": "uint256"
        }
      ],
      "stateMutability": "view",
      "type": "function",
      "constant": true
    },
    {
      "inputs": [
        {
          "internalType": "string",
          "name": "",
          "type": "string"
        }
      ],
      "name": "issuePins",
      "outputs": [
        {
          "internalType": "uint256",
          "name": "",
          "type": "uint256"
        }
      ],
      "stateMutability": "view",
      "type": "function",
      "constant": true
    },
    {
      "inputs": [
        {
          "internalType": "string",
          "name": "",
          "type": "string"
        }
      ],
      "name": "issueReleaseIDsByIssueId",
      "outputs": [
        {
          "internalType": "bytes32",
          "name": "",
          "type": "bytes32"
        }
      ],
      "stateMutability": "view",
      "type": "function",
      "constant": true
    },
    {
      "inputs": [],
      "name": "nextIssueDepositId",
      "outputs": [
        {
          "internalType": "uint256",
          "name": "",
          "type": "uint256"
        }
      ],
      "stateMutability": "view",
      "type": "function",
      "constant": true
    },
    {
      "inputs": [],
      "name": "octoPin",
      "outputs": [
        {
          "internalType": "contract OctoPin",
          "name": "",
          "type": "address"
        }
      ],
      "stateMutability": "view",
      "type": "function",
      "constant": true
    },
    {
      "inputs": [
        {
          "internalType": "uint256",
          "name": "",
          "type": "uint256"
        }
      ],
      "name": "oracleAddresses",
      "outputs": [
        {
          "internalType": "address",
          "name": "",
          "type": "address"
        }
      ],
      "stateMutability": "view",
      "type": "function",
      "constant": true
    },
    {
      "inputs": [
        {
          "internalType": "address",
          "name": "",
          "type": "address"
        }
      ],
      "name": "oracleNames",
      "outputs": [
        {
          "internalType": "string",
          "name": "",
          "type": "string"
        }
      ],
      "stateMutability": "view",
      "type": "function",
      "constant": true
    },
    {
      "inputs": [],
      "name": "owner",
      "outputs": [
        {
          "internalType": "address",
          "name": "",
          "type": "address"
        }
      ],
      "stateMutability": "view",
      "type": "function",
      "constant": true
    },
    {
      "inputs": [
        {
          "internalType": "string",
          "name": "",
          "type": "string"
        }
      ],
      "name": "pullRequestClaimIDsByPrId",
      "outputs": [
        {
          "internalType": "bytes32",
          "name": "",
          "type": "bytes32"
        }
      ],
      "stateMutability": "view",
      "type": "function",
      "constant": true
    },
    {
      "inputs": [
        {
          "internalType": "bytes32",
          "name": "",
          "type": "bytes32"
        }
      ],
      "name": "pullRequestClaims",
      "outputs": [
        {
          "internalType": "string",
          "name": "githubUser",
          "type": "string"
        },
        {
          "internalType": "string",
          "name": "prId",
          "type": "string"
        },
        {
          "internalType": "uint256",
          "name": "status",
          "type": "uint256"
        }
      ],
      "stateMutability": "view",
      "type": "function",
      "constant": true
    },
    {
      "inputs": [
        {
          "internalType": "address",
          "name": "",
          "type": "address"
        }
      ],
      "name": "registerJobFees",
      "outputs": [
        {
          "internalType": "uint256",
          "name": "",
          "type": "uint256"
        }
      ],
      "stateMutability": "view",
      "type": "function",
      "constant": true
    },
    {
      "inputs": [
        {
          "internalType": "address",
          "name": "",
          "type": "address"
        }
      ],
      "name": "registerJobIds",
      "outputs": [
        {
          "internalType": "bytes32",
          "name": "",
          "type": "bytes32"
        }
      ],
      "stateMutability": "view",
      "type": "function",
      "constant": true
    },
    {
      "inputs": [
        {
          "internalType": "address",
          "name": "",
          "type": "address"
        }
      ],
      "name": "releaseJobFees",
      "outputs": [
        {
          "internalType": "uint256",
          "name": "",
          "type": "uint256"
        }
      ],
      "stateMutability": "view",
      "type": "function",
      "constant": true
    },
    {
      "inputs": [
        {
          "internalType": "address",
          "name": "",
          "type": "address"
        }
      ],
      "name": "releaseJobIds",
      "outputs": [
        {
          "internalType": "bytes32",
          "name": "",
          "type": "bytes32"
        }
      ],
      "stateMutability": "view",
      "type": "function",
      "constant": true
    },
    {
      "inputs": [
        {
          "internalType": "bytes32",
          "name": "",
          "type": "bytes32"
        }
      ],
      "name": "releasedIssues",
      "outputs": [
        {
          "internalType": "string",
          "name": "githubUser",
          "type": "string"
        },
        {
          "internalType": "string",
          "name": "issueId",
          "type": "string"
        },
        {
          "internalType": "uint256",
          "name": "status",
          "type": "uint256"
        }
      ],
      "stateMutability": "view",
      "type": "function",
      "constant": true
    },
    {
      "inputs": [],
      "name": "renounceOwnership",
      "outputs": [],
      "stateMutability": "nonpayable",
      "type": "function"
    },
    {
      "inputs": [
        {
          "internalType": "address",
          "name": "newOwner",
          "type": "address"
        }
      ],
      "name": "transferOwnership",
      "outputs": [],
      "stateMutability": "nonpayable",
      "type": "function"
    },
    {
      "inputs": [],
      "name": "trustedForwarder",
      "outputs": [
        {
          "internalType": "address",
          "name": "",
          "type": "address"
        }
      ],
      "stateMutability": "view",
      "type": "function",
      "constant": true
    },
    {
      "inputs": [
        {
          "internalType": "address",
          "name": "",
          "type": "address"
        }
      ],
      "name": "twitterFollowersJobFees",
      "outputs": [
        {
          "internalType": "uint256",
          "name": "",
          "type": "uint256"
        }
      ],
      "stateMutability": "view",
      "type": "function",
      "constant": true
    },
    {
      "inputs": [
        {
          "internalType": "address",
          "name": "",
          "type": "address"
        }
      ],
      "name": "twitterFollowersJobIds",
      "outputs": [
        {
          "internalType": "bytes32",
          "name": "",
          "type": "bytes32"
        }
      ],
      "stateMutability": "view",
      "type": "function",
      "constant": true
    },
    {
      "inputs": [
        {
          "internalType": "address",
          "name": "",
          "type": "address"
        }
      ],
      "name": "twitterPostJobFees",
      "outputs": [
        {
          "internalType": "uint256",
          "name": "",
          "type": "uint256"
        }
      ],
      "stateMutability": "view",
      "type": "function",
      "constant": true
    },
    {
      "inputs": [
        {
          "internalType": "address",
          "name": "",
          "type": "address"
        }
      ],
      "name": "twitterPostJobIds",
      "outputs": [
        {
          "internalType": "bytes32",
          "name": "",
          "type": "bytes32"
        }
      ],
      "stateMutability": "view",
      "type": "function",
      "constant": true
    },
    {
      "inputs": [
        {
          "internalType": "string",
          "name": "",
          "type": "string"
        }
      ],
      "name": "userClaimAmountByGithbUser",
      "outputs": [
        {
          "internalType": "uint256",
          "name": "",
          "type": "uint256"
        }
      ],
      "stateMutability": "view",
      "type": "function",
      "constant": true
    },
    {
      "inputs": [
        {
          "internalType": "string",
          "name": "",
          "type": "string"
        },
        {
          "internalType": "uint256",
          "name": "",
          "type": "uint256"
        }
      ],
      "name": "userDepositIdsByGithubUser",
      "outputs": [
        {
          "internalType": "uint256",
          "name": "",
          "type": "uint256"
        }
      ],
      "stateMutability": "view",
      "type": "function",
      "constant": true
    },
    {
      "inputs": [
        {
          "internalType": "address",
          "name": "",
          "type": "address"
        },
        {
          "internalType": "uint256",
          "name": "",
          "type": "uint256"
        }
      ],
      "name": "userDepositIdsBySender",
      "outputs": [
        {
          "internalType": "uint256",
          "name": "",
          "type": "uint256"
        }
      ],
      "stateMutability": "view",
      "type": "function",
      "constant": true
    },
    {
      "inputs": [
        {
          "internalType": "uint256",
          "name": "",
          "type": "uint256"
        }
      ],
      "name": "userDeposits",
      "outputs": [
        {
          "internalType": "address",
          "name": "from",
          "type": "address"
        },
        {
          "internalType": "uint256",
          "name": "amount",
          "type": "uint256"
        },
        {
          "internalType": "string",
          "name": "githubUser",
          "type": "string"
        }
      ],
      "stateMutability": "view",
      "type": "function",
      "constant": true
    },
    {
      "inputs": [
        {
          "internalType": "address",
          "name": "",
          "type": "address"
        }
      ],
      "name": "userIDsByAddress",
      "outputs": [
        {
          "internalType": "bytes32",
          "name": "",
          "type": "bytes32"
        }
      ],
      "stateMutability": "view",
      "type": "function",
      "constant": true
    },
    {
      "inputs": [
        {
          "internalType": "string",
          "name": "",
          "type": "string"
        }
      ],
      "name": "userIDsByGithubUser",
      "outputs": [
        {
          "internalType": "bytes32",
          "name": "",
          "type": "bytes32"
        }
      ],
      "stateMutability": "view",
      "type": "function",
      "constant": true
    },
    {
      "inputs": [
        {
          "internalType": "bytes32",
          "name": "",
          "type": "bytes32"
        }
      ],
      "name": "users",
      "outputs": [
        {
          "internalType": "string",
          "name": "githubUser",
          "type": "string"
        },
        {
          "internalType": "address",
          "name": "ethAddress",
          "type": "address"
        },
        {
          "internalType": "uint8",
          "name": "status",
          "type": "uint8"
        }
      ],
      "stateMutability": "view",
      "type": "function",
      "constant": true
    },
    {
      "inputs": [],
      "name": "versionRecipient",
      "outputs": [
        {
          "internalType": "string",
          "name": "",
          "type": "string"
        }
      ],
      "stateMutability": "view",
      "type": "function",
      "constant": true
    },
    {
      "inputs": [
        {
          "internalType": "address",
          "name": "_octoPin",
          "type": "address"
        }
      ],
      "name": "setOctoPin",
      "outputs": [],
      "stateMutability": "nonpayable",
      "type": "function"
    },
    {
      "inputs": [
        {
          "internalType": "address",
          "name": "_octobayPaymaster",
          "type": "address"
        }
      ],
      "name": "setPaymaster",
      "outputs": [],
      "stateMutability": "nonpayable",
      "type": "function"
    },
    {
      "inputs": [
        {
          "internalType": "string",
          "name": "_accountId",
          "type": "string"
        }
      ],
      "name": "setTwitterAccountId",
      "outputs": [],
      "stateMutability": "nonpayable",
      "type": "function"
    },
    {
      "inputs": [
        {
          "internalType": "address",
          "name": "_oracle",
          "type": "address"
        },
        {
          "internalType": "string",
          "name": "name",
          "type": "string"
        }
      ],
      "name": "setOracle",
      "outputs": [],
      "stateMutability": "nonpayable",
      "type": "function"
    },
    {
      "inputs": [
        {
          "internalType": "address",
          "name": "_oracle",
          "type": "address"
        },
        {
          "internalType": "uint256",
          "name": "_jobType",
          "type": "uint256"
        },
        {
          "internalType": "bytes32",
          "name": "_jobId",
          "type": "bytes32"
        },
        {
          "internalType": "uint256",
          "name": "_jobFee",
          "type": "uint256"
        }
      ],
      "name": "setOracleJob",
      "outputs": [],
      "stateMutability": "nonpayable",
      "type": "function"
    },
    {
      "inputs": [
        {
          "internalType": "address",
          "name": "_oracle",
          "type": "address"
        }
      ],
      "name": "removeOracle",
      "outputs": [],
      "stateMutability": "nonpayable",
      "type": "function"
    },
    {
      "inputs": [],
      "name": "getOracles",
      "outputs": [
        {
          "internalType": "address[]",
          "name": "",
          "type": "address[]"
        }
      ],
      "stateMutability": "view",
      "type": "function",
      "constant": true
    },
    {
      "inputs": [
        {
          "internalType": "string",
          "name": "_githubUser",
          "type": "string"
        },
        {
          "internalType": "uint256",
          "name": "_amount",
          "type": "uint256"
        }
      ],
      "name": "deductGasFee",
      "outputs": [],
      "stateMutability": "nonpayable",
      "type": "function"
    },
    {
      "inputs": [
        {
          "internalType": "address",
          "name": "_oracle",
          "type": "address"
        },
        {
          "internalType": "string",
          "name": "_githubUser",
          "type": "string"
        }
      ],
      "name": "register",
      "outputs": [],
      "stateMutability": "nonpayable",
      "type": "function"
    },
    {
      "inputs": [
        {
          "internalType": "bytes32",
          "name": "_requestId",
          "type": "bytes32"
        }
      ],
      "name": "confirmRegistration",
      "outputs": [],
      "stateMutability": "nonpayable",
      "type": "function"
    },
    {
      "inputs": [
        {
          "internalType": "address",
          "name": "_oracle",
          "type": "address"
        },
        {
          "internalType": "string",
          "name": "_issueId",
          "type": "string"
        }
      ],
      "name": "twitterPost",
      "outputs": [
        {
          "internalType": "bytes32",
          "name": "requestId",
          "type": "bytes32"
        }
      ],
      "stateMutability": "nonpayable",
      "type": "function"
    },
    {
      "inputs": [
        {
          "internalType": "bytes32",
          "name": "_requestId",
          "type": "bytes32"
        },
        {
          "internalType": "bytes32",
          "name": "_tweetId",
          "type": "bytes32"
        }
      ],
      "name": "twitterPostConfirm",
      "outputs": [],
      "stateMutability": "nonpayable",
      "type": "function"
    },
    {
      "inputs": [
        {
          "internalType": "address",
          "name": "_oracle",
          "type": "address"
        }
      ],
      "name": "updateTwitterFollowers",
      "outputs": [
        {
          "internalType": "bytes32",
          "name": "requestId",
          "type": "bytes32"
        }
      ],
      "stateMutability": "nonpayable",
      "type": "function"
    },
    {
      "inputs": [
        {
          "internalType": "bytes32",
          "name": "_requestId",
          "type": "bytes32"
        },
        {
          "internalType": "uint256",
          "name": "_followers",
          "type": "uint256"
        }
      ],
      "name": "updateTwitterFollowersConfirm",
      "outputs": [],
      "stateMutability": "nonpayable",
      "type": "function"
    },
    {
      "inputs": [
        {
          "internalType": "string",
          "name": "_githubUser",
          "type": "string"
        }
      ],
      "name": "depositEthForGithubUser",
      "outputs": [],
      "stateMutability": "payable",
      "type": "function",
      "payable": true
    },
    {
      "inputs": [
        {
          "internalType": "uint256",
          "name": "_depositId",
          "type": "uint256"
        }
      ],
      "name": "refundUserDeposit",
      "outputs": [],
      "stateMutability": "nonpayable",
      "type": "function"
    },
    {
      "inputs": [
        {
          "internalType": "uint256",
          "name": "_depositId",
          "type": "uint256"
        }
      ],
      "name": "withdrawUserDeposit",
      "outputs": [],
      "stateMutability": "nonpayable",
      "type": "function"
    },
    {
      "inputs": [
        {
          "internalType": "string",
          "name": "_issueId",
          "type": "string"
        }
      ],
      "name": "depositEthForIssue",
      "outputs": [],
      "stateMutability": "payable",
      "type": "function",
      "payable": true
    },
    {
      "inputs": [
        {
          "internalType": "uint256",
          "name": "_depositId",
          "type": "uint256"
        }
      ],
      "name": "refundIssueDeposit",
      "outputs": [],
      "stateMutability": "nonpayable",
      "type": "function"
    },
    {
      "inputs": [
        {
          "internalType": "address",
          "name": "_oracle",
          "type": "address"
        },
        {
          "internalType": "string",
          "name": "_issueId",
          "type": "string"
        },
        {
          "internalType": "string",
          "name": "_githubUser",
          "type": "string"
        }
      ],
      "name": "releaseIssueDeposits",
      "outputs": [],
      "stateMutability": "nonpayable",
      "type": "function"
    },
    {
      "inputs": [
        {
          "internalType": "bytes32",
          "name": "_requestId",
          "type": "bytes32"
        }
      ],
      "name": "confirmReleaseIssueDeposits",
      "outputs": [],
      "stateMutability": "nonpayable",
      "type": "function"
    },
    {
      "inputs": [
        {
          "internalType": "string",
          "name": "_issueId",
          "type": "string"
        }
      ],
      "name": "claimReleasedIssueDeposits",
      "outputs": [],
      "stateMutability": "nonpayable",
      "type": "function"
    },
    {
      "inputs": [
        {
          "internalType": "address",
          "name": "_oracle",
          "type": "address"
        },
        {
          "internalType": "string",
          "name": "_prId",
          "type": "string"
        },
        {
          "internalType": "string",
          "name": "_githubUser",
          "type": "string"
        }
      ],
      "name": "claimPullRequest",
      "outputs": [],
      "stateMutability": "nonpayable",
      "type": "function"
    },
    {
      "inputs": [
        {
          "internalType": "bytes32",
          "name": "_requestId",
          "type": "bytes32"
        },
        {
          "internalType": "uint256",
          "name": "_score",
          "type": "uint256"
        }
      ],
      "name": "confirmPullRequestClaim",
      "outputs": [],
      "stateMutability": "nonpayable",
      "type": "function"
    },
    {
      "inputs": [
        {
          "internalType": "string",
          "name": "_githubUser",
          "type": "string"
        }
      ],
      "name": "getUserDepositIdsForGithubUser",
      "outputs": [
        {
          "internalType": "uint256[]",
          "name": "",
          "type": "uint256[]"
        }
      ],
      "stateMutability": "view",
      "type": "function",
      "constant": true
    },
    {
      "inputs": [],
      "name": "getUserDepositIdsForSender",
      "outputs": [
        {
          "internalType": "uint256[]",
          "name": "",
          "type": "uint256[]"
        }
      ],
      "stateMutability": "view",
      "type": "function",
      "constant": true
    },
    {
      "inputs": [
        {
          "internalType": "string",
          "name": "_depositId",
          "type": "string"
        }
      ],
      "name": "getIssueDepositIdsForIssueId",
      "outputs": [
        {
          "internalType": "uint256[]",
          "name": "",
          "type": "uint256[]"
        }
      ],
      "stateMutability": "view",
      "type": "function",
      "constant": true
    },
    {
      "inputs": [],
      "name": "getIssueDepositIdsForSender",
      "outputs": [
        {
          "internalType": "uint256[]",
          "name": "",
          "type": "uint256[]"
        }
      ],
      "stateMutability": "view",
      "type": "function",
      "constant": true
    },
    {
      "inputs": [
        {
          "internalType": "string",
          "name": "_githubUser",
          "type": "string"
        }
      ],
      "name": "getUserClaimAmount",
      "outputs": [
        {
          "internalType": "uint256",
          "name": "",
          "type": "uint256"
        }
      ],
      "stateMutability": "view",
      "type": "function",
      "constant": true
    }
  ],
  "bytecode": "0x6001600590815560c06040526080819052640322e302e360dc1b60a09081526200002d91600891906200025b565b506000600e5560006013553480156200004557600080fd5b5060405162004db938038062004db983398101604081905262000068916200033a565b6000620000746200013b565b600080546001600160a01b0319166001600160a01b0383169081178255604051929350917f8be0079c531659141344cd1fd0a4f28419497f9722a3daafe3b4186f6b6457e0908290a3506001600160a01b038416620000dd57620000d762000158565b620000e8565b620000e884620001ed565b602980546001600160a01b039586166001600160a01b031991821617909155602880549486169482169490941790935560078054918516918416919091179055600980549190931691161790556200039a565b6000620001526200020f60201b6200322d1760201c565b90505b90565b620001eb73c89bd4e1632d3a43cb03aaad5262cbe4038bc5716001600160a01b03166338cc48316040518163ffffffff1660e01b815260040160206040518083038186803b158015620001aa57600080fd5b505afa158015620001bf573d6000803e3d6000fd5b505050506040513d601f19601f82011682018060405250810190620001e5919062000315565b620001ed565b565b600380546001600160a01b0319166001600160a01b0392909216919091179055565b600060183610801590620002295750620002293362000247565b156200023f575060131936013560601c62000155565b503362000155565b6007546001600160a01b0390811691161490565b828054600181600116156101000203166002900490600052602060002090601f016020900481019282601f106200029e57805160ff1916838001178555620002ce565b82800160010185558215620002ce579182015b82811115620002ce578251825591602001919060010190620002b1565b50620002dc929150620002e0565b5090565b5b80821115620002dc5760008155600101620002e1565b80516001600160a01b03811681146200030f57600080fd5b92915050565b60006020828403121562000327578081fd5b620003338383620002f7565b9392505050565b6000806000806080858703121562000350578283fd5b6200035c8686620002f7565b93506200036d8660208701620002f7565b92506200037e8660408701620002f7565b91506200038f8660608701620002f7565b905092959194509250565b614a0f80620003aa6000396000f3fe60806040526004361061034e5760003560e01c80636f4c91a4116101bd578063a1097fbc116100f8578063e1e7d4d31161009b578063e1e7d4d314610a7f578063f0e31cf914610a9f578063f16b41f414610abf578063f2fde38b14610adf578063f4b90ef714610aff578063f63e8c7014610b12578063f9c8d78f14610b27578063fb95354a14610b47578063fdc85fc414610b5c5761034e565b8063a1097fbc14610961578063bea390bc14610981578063c315fbca146109a1578063cea6ab98146109c1578063cf5f5f46146109f0578063d224784d14610a10578063d9d9164414610a3f578063dc4bfb8514610a5f5761034e565b8063875752cd11610160578063875752cd146108845780638d6ec921146108a45780638da5cb5b146108c45780638fc0e3b2146108d95780639947918c146108ee5780639979635e1461090e5780639996f1861461092e5780639c900e33146109415761034e565b80636f4c91a41461078d578063715018a6146107ad578063746c97b9146107c25780637c779190146107e25780637d2f1f85146108025780637da0a87714610822578063858c1194146108445780638617fc46146108645761034e565b8063486ff0cd1161028d5780635525418811610230578063552541881461068057806356ba75b8146106a0578063572b6c05146106c057806357bd9a97146106ed57806360445fb21461070d57806361e421d51461072d578063647017501461074d5780636f4514931461076d5761034e565b8063486ff0cd1461056f5780634a481450146105915780634c1b100a146105b157806350aea559146105e057806353a61ff914610600578063541b6c9f14610620578063546075da1461064057806354d16f67146106605761034e565b80632a97fa77116102f55780632a97fa771461046b5780632fd895891461048b57806332434a2e146104ab5780633be784bc146104cb5780633f107fdb146104eb578063400b49ce1461050b57806340884c521461052b578063454d05541461054d5761034e565b806304405fa9146103535780630479f6f21461038957806304fad8fd146103ab5780630f8b8afa146103cb578063113d4134146103eb57806317c486f11461040b5780631d2f5e831461042b578063262541391461044b575b600080fd5b34801561035f57600080fd5b5061037361036e366004613f0e565b610b7c565b604051610380919061427d565b60405180910390f35b34801561039557600080fd5b506103a96103a4366004613d70565b610bb9565b005b3480156103b757600080fd5b506103736103c6366004613cac565b610de5565b3480156103d757600080fd5b506103736103e6366004613edc565b610df7565b3480156103f757600080fd5b50610373610406366004613edc565b610e14565b34801561041757600080fd5b50610373610426366004613edc565b610e3d565b34801561043757600080fd5b50610373610446366004613edc565b610e5a565b34801561045757600080fd5b50610373610466366004613cac565b610e77565b34801561047757600080fd5b506103a9610486366004613cac565b610e89565b34801561049757600080fd5b506103a96104a6366004613cc7565b610ee0565b3480156104b757600080fd5b506103a96104c6366004613d18565b610f7d565b3480156104d757600080fd5b506103a96104e6366004613e64565b61112c565b3480156104f757600080fd5b50610373610506366004613cac565b611278565b34801561051757600080fd5b50610373610526366004613cac565b61128a565b34801561053757600080fd5b506105406113f8565b60405161038091906141ed565b34801561055957600080fd5b5061056261145b565b604051610380919061423a565b34801561057b57600080fd5b506105846114bb565b6040516103809190614294565b34801561059d57600080fd5b506103736105ac366004613cac565b611549565b3480156105bd57600080fd5b506105d16105cc366004613e64565b61155b565b604051610380939291906142dd565b3480156105ec57600080fd5b506105626105fb366004613e9d565b6116a0565b34801561060c57600080fd5b5061056261061b366004613e9d565b611714565b34801561062c57600080fd5b506105d161063b366004613e64565b611728565b34801561064c57600080fd5b506103a961065b366004613f0e565b611794565b34801561066c57600080fd5b5061037361067b366004613cac565b611815565b34801561068c57600080fd5b506103a961069b366004613cac565b611827565b3480156106ac57600080fd5b506103736106bb366004613cac565b61187e565b3480156106cc57600080fd5b506106e06106db366004613cac565b611890565b6040516103809190614272565b3480156106f957600080fd5b506103a9610708366004613e64565b6118a4565b34801561071957600080fd5b506103a9610728366004613e64565b6119f8565b34801561073957600080fd5b50610373610748366004613de1565b611a3b565b34801561075957600080fd5b50610373610768366004613de1565b611a54565b34801561077957600080fd5b50610373610788366004613cac565b611a6d565b34801561079957600080fd5b506103a96107a8366004613e7c565b611a7e565b3480156107b957600080fd5b506103a9611aee565b3480156107ce57600080fd5b506103736107dd366004613f0e565b611b6d565b3480156107ee57600080fd5b506103736107fd366004613cac565b611b95565b34801561080e57600080fd5b5061058461081d366004613cac565b611ba7565b34801561082e57600080fd5b50610837611c0f565b60405161038091906140e9565b34801561085057600080fd5b506103a961085f366004613d70565b611c1e565b34801561087057600080fd5b506103a961087f366004613e64565b611e2f565b34801561089057600080fd5b5061037361089f366004613cac565b611f71565b3480156108b057600080fd5b506103a96108bf366004613edc565b611f83565b3480156108d057600080fd5b50610837611fd4565b3480156108e557600080fd5b50610837611fe3565b3480156108fa57600080fd5b506103a9610909366004613e9d565b611ff2565b34801561091a57600080fd5b50610373610929366004613cac565b6121f2565b6103a961093c366004613e9d565b612204565b34801561094d57600080fd5b5061037361095c366004613edc565b61257f565b34801561096d57600080fd5b5061037361097c366004613d18565b61259c565b34801561098d57600080fd5b506103a961099c366004613e7c565b612675565b3480156109ad57600080fd5b506103a96109bc366004613e64565b61270f565b3480156109cd57600080fd5b506109e16109dc366004613e64565b6127cb565b604051610380939291906142a7565b3480156109fc57600080fd5b50610373610a0b366004613edc565b612888565b348015610a1c57600080fd5b50610a30610a2b366004613e64565b6128a5565b604051610380939291906141c6565b348015610a4b57600080fd5b506103a9610a5a366004613e0b565b61295b565b348015610a6b57600080fd5b50610837610a7a366004613e64565b612a9c565b348015610a8b57600080fd5b50610373610a9a366004613cac565b612ac3565b348015610aab57600080fd5b506103a9610aba366004613e7c565b612ad5565b348015610acb57600080fd5b50610a30610ada366004613e64565b612d41565b348015610aeb57600080fd5b506103a9610afa366004613cac565b612dc2565b6103a9610b0d366004613e9d565b612e78565b348015610b1e57600080fd5b50610373612ffe565b348015610b3357600080fd5b50610373610b42366004613edc565b613004565b348015610b5357600080fd5b50610562613021565b348015610b6857600080fd5b506103a9610b77366004613cac565b613080565b81516020818401810180516014825292820191850191909120919052805482908110610ba457fe5b90600052602060002001600091509150505481565b6001600160a01b0383166000908152601d6020526040902054839060026000196101006001841615020190911604610c0c5760405162461bcd60e51b8152600401610c03906144e8565b60405180910390fd5b60196000601a85604051610c2091906140cd565b90815260200160405180910390205481526020019081526020016000206002015460021415610c615760405162461bcd60e51b8152600401610c03906143c9565b600a6000600c84604051610c7591906140cd565b908152602001604051809103902054815260200190815260200160002060010160149054906101000a900460ff1660ff16600214610cc55760405162461bcd60e51b8152600401610c039061493e565b610ccd6139f4565b6001600160a01b038516600090815260226020526040902054610cf8903063f0e31cf960e01b61325f565b60408051808201909152600a81526933b4ba343ab12ab9b2b960b11b6020820152909150610d289082908561327b565b6040805180820190915260048152631c1c925960e21b6020820152610d4f9082908661327b565b6001600160a01b038516600090815260236020526040812054610d759087908490613299565b604080516060810182528681526020808201899052600182840152600084815260198252929092208151805194955091939092610db6928492910190613a29565b506020828101518051610dcf9260018501920190613a29565b5060408201518160020155905050505050505050565b60276020526000908152604090205481565b8051602081830181018051600d8252928201919093012091525481565b6000600d82604051610e2691906140cd565b90815260200160405180910390205490505b919050565b805160208183018101805160168252928201919093012091525481565b8051602081830181018051600c8252928201919093012091525481565b60216020526000908152604090205481565b610e916133d8565b6000546001600160a01b03908116911614610ebe5760405162461bcd60e51b8152600401610c03906146dc565b602b80546001600160a01b0319166001600160a01b0392909216919091179055565b610ee86133d8565b6000546001600160a01b03908116911614610f155760405162461bcd60e51b8152600401610c03906146dc565b601c8054600181019091557f0e4562a10381dec21b205ed72637e6b1b523bdd0e4d4d50af5cd23dd4500a2110180546001600160a01b0319166001600160a01b0385169081179091556000908152601d60205260409020610f77908383613aa7565b50505050565b6001600160a01b0382166000908152601d6020526040902054829060026000196101006001841615020190911604610fc75760405162461bcd60e51b8152600401610c03906144e8565b610fcf6139f4565b6001600160a01b0384166000908152601e6020526040902054610ffa9030630ef9e12f60e21b61325f565b60408051808201909152600a81526933b4ba343ab12ab9b2b960b11b602082015290915061102a9082908561327b565b6110686040518060400160405280600a8152602001696574684164647265737360b01b81525061106061105b6133d8565b6133e7565b83919061327b565b6001600160a01b0384166000908152601f602052604081205461108e9086908490613299565b905060405180606001604052808581526020016110a96133d8565b6001600160a01b0316815260016020918201526000838152600a8252604090208251805191926110de92849290910190613a29565b5060208201516001909101805460409093015160ff16600160a01b0260ff60a01b196001600160a01b039093166001600160a01b031990941693909317919091169190911790555050505050565b60008181526006602052604090205481906001600160a01b031633146111645760405162461bcd60e51b8152600401610c039061484d565b60008181526006602052604080822080546001600160a01b03191690555182916000805160206149ba83398151915291a26000828152600a60205260408082209051600c916111b29161408f565b9081526040805160209281900383019020546000818152600a80855283822060018101546001600160a01b03168352600b86529382208290558282529093529250906111fe8282613b15565b50600190810180546001600160a81b03191690556000848152600a60208181526040808420948501805460ff60a01b1916600160a11b17908190556001600160a01b03168452600b82528084208890559287905252518491600c91611263919061408f565b90815260405190819003602001902055505050565b601e6020526000908152604090205481565b6001600160a01b0381166000908152601d60205260408120548290600260001961010060018416150201909116046112d45760405162461bcd60e51b8152600401610c03906144e8565b6112dc6139f4565b6001600160a01b0384166000908152602660205260409020546113079030631bd3246960e21b61325f565b60408051808201825260098152681858d8dbdd5b9d125960ba1b602080830191909152602c8054845160026001831615610100026000190190921691909104601f81018490048402820184019095528481529495506113ca94929390918301828280156113b55780601f1061138a576101008083540402835291602001916113b5565b820191906000526020600020905b81548152906001019060200180831161139857829003601f168201915b50505050508361327b9092919063ffffffff16565b6001600160a01b0384166000908152602760205260409020546113f09085908390613299565b949350505050565b6060601c80548060200260200160405190810160405280929190818152602001828054801561145057602002820191906000526020600020905b81546001600160a01b03168152600190910190602001808311611432575b505050505090505b90565b3360009081526011602090815260409182902080548351818402810184019094528084526060939283018282801561145057602002820191906000526020600020905b81548152602001906001019080831161149e575050505050905090565b6008805460408051602060026001851615610100026000190190941693909304601f810184900484028201840190925281815292918301828280156115415780601f1061151657610100808354040283529160200191611541565b820191906000526020600020905b81548152906001019060200180831161152457829003601f168201915b505050505081565b601f6020526000908152604090205481565b60196020908152600091825260409182902080548351601f600260001961010060018616150201909316929092049182018490048402810184019094528084529092918391908301828280156115f25780601f106115c7576101008083540402835291602001916115f2565b820191906000526020600020905b8154815290600101906020018083116115d557829003601f168201915b505050505090806001018054600181600116156101000203166002900480601f0160208091040260200160405190810160405280929190818152602001828054600181600116156101000203166002900480156116905780601f1061166557610100808354040283529160200191611690565b820191906000526020600020905b81548152906001019060200180831161167357829003601f168201915b5050505050908060020154905083565b6060601483836040516116b49291906140bd565b908152604080519182900360209081018320805480830285018301909352828452919083018282801561170657602002820191906000526020600020905b8154815260200190600101908083116116f2575b505050505090505b92915050565b6060601083836040516116b49291906140bd565b60176020908152600091825260409182902080548351601f600260001961010060018616150201909316929092049182018490048402810184019094528084529092918391908301828280156115f25780601f106115c7576101008083540402835291602001916115f2565b602b546001600160a01b031633146117ab57600080fd5b80600d836040516117bc91906140cd565b90815260200160405180910390205410156117e95760405162461bcd60e51b8152600401610c0390614657565b80600d836040516117fa91906140cd565b90815260405190819003602001902080549190910390555050565b600b6020526000908152604090205481565b61182f6133d8565b6000546001600160a01b0390811691161461185c5760405162461bcd60e51b8152600401610c03906146dc565b602a80546001600160a01b0319166001600160a01b0392909216919091179055565b60236020526000908152604090205481565b6007546001600160a01b0390811691161490565b60008181526006602052604090205481906001600160a01b031633146118dc5760405162461bcd60e51b8152600401610c039061484d565b60008181526006602052604080822080546001600160a01b03191690555182916000805160206149ba83398151915291a260008281526017602052604090206002015460011461193e5760405162461bcd60e51b8152600401610c03906147ae565b6000828152601760205260409081902060028181015590516016916119689160019091019061408f565b90815260408051918290036020908101832054600086815260179092529190209091600d916119969161408f565b90815260408051602092819003830181208054949094019093556000858152601790925290207f982ab3ed562795c652df6267e3375f911bda7be583569dd2d2f704389ee5fc41916119ec916001810191614313565b60405180910390a15050565b6000818152600f60205260409020546001600160a01b03163314611a2e5760405162461bcd60e51b8152600401610c0390614338565b611a3881336134ca565b50565b60156020528160005260406000208181548110610ba457fe5b60116020528160005260406000208181548110610ba457fe5b602080526000908152604090205481565b60008281526006602052604090205482906001600160a01b03163314611ab65760405162461bcd60e51b8152600401610c039061484d565b60008181526006602052604080822080546001600160a01b03191690555182916000805160206149ba83398151915291a250602d5550565b611af66133d8565b6000546001600160a01b03908116911614611b235760405162461bcd60e51b8152600401610c03906146dc565b600080546040516001600160a01b03909116907f8be0079c531659141344cd1fd0a4f28419497f9722a3daafe3b4186f6b6457e0908390a3600080546001600160a01b0319169055565b81516020818401810180516010825292820191850191909120919052805482908110610ba457fe5b60256020526000908152604090205481565b601d6020908152600091825260409182902080548351601f6002600019610100600186161502019093169290920491820184900484028101840190945280845290918301828280156115415780601f1061151657610100808354040283529160200191611541565b6007546001600160a01b031681565b6001600160a01b0383166000908152601d6020526040902054839060026000196101006001841615020190911604611c685760405162461bcd60e51b8152600401610c03906144e8565b6000601684604051611c7a91906140cd565b90815260200160405180910390205411611ca65760405162461bcd60e51b8152600401610c0390614388565b336000818152600b60209081526040808320548352600a9091529020600101546001600160a01b031614611cec5760405162461bcd60e51b8152600401610c03906145ff565b611cf46139f4565b6001600160a01b0385166000908152602080526040902054611d1e90306357bd9a9760e01b61325f565b60408051808201909152600a81526933b4ba343ab12ab9b2b960b11b6020820152909150611d4e9082908561327b565b6040805180820190915260078152661a5cdcdd59525960ca1b6020820152611d789082908661327b565b6001600160a01b038516600090815260216020526040812054611d9e9087908490613299565b604080516060810182528681526020808201899052600182840152600084815260178252929092208151805194955091939092611ddf928492910190613a29565b506020828101518051611df89260018501920190613a29565b506040820151816002015590505080601886604051611e1791906140cd565b90815260405190819003602001902055505050505050565b6000818152601260205260409020546001600160a01b03163314611e655760405162461bcd60e51b8152600401610c0390614746565b6000818152601260205260409081902060018101549151601691611e8e9160029091019061408f565b9081526020016040518091039020541015611ebb5760405162461bcd60e51b8152600401610c039061468e565b600081815260126020526040808220600101549051339282156108fc02929190818181858888f19350505050158015611ef8573d6000803e3d6000fd5b506000818152601260205260409081902060018101549151601691611f229160029091019061408f565b90815260408051602092819003830190208054939093039092556000838152601290915290812080546001600160a01b03191681556001810182905590611f6c6002830182613b15565b505050565b60246020526000908152604090205481565b611f8b6133d8565b6000546001600160a01b03908116911614611fb85760405162461bcd60e51b8152600401610c03906146dc565b8051611fcb90602c906020840190613a29565b50506000602d55565b6000546001600160a01b031690565b602a546001600160a01b031681565b336000818152600b60209081526040808320548352600a9091529020600101546001600160a01b0316146120385760405162461bcd60e51b8152600401610c03906147f5565b336000908152600b60209081526040808320548352600a909152908190209051612062919061408f565b604051809103902060176000601885856040516120809291906140bd565b90815260200160405180910390205481526020019081526020016000206000016040516120ad919061408f565b6040518091039020146120d25760405162461bcd60e51b8152600401610c0390614895565b6000601683836040516120e69291906140bd565b908152602001604051809103902054116121125760405162461bcd60e51b8152600401610c0390614581565b336001600160a01b03166108fc601684846040516121319291906140bd565b90815260405190819003602001812054801590920291906000818181858888f19350505050158015612167573d6000803e3d6000fd5b506016828260405161217a9291906140bd565b90815260408051918290036020908101832054336000908152600b8352838120548152600a9092529190209091600d916121b39161408f565b9081526040519081900360200181208054929092039091556000906016906121de90859085906140bd565b908152604051908190036020019020555050565b60266020526000908152604090205481565b600034116122245760405162461bcd60e51b8152600401610c0390614912565b61222c613b59565b600a6000600c85856040516122429291906140bd565b9081526040805160209281900383019020548352828201939093529082016000208251815460026001821615610100026000190190911604601f810184900490930281016080908101909452606081018381529093919284928491908401828280156122ef5780601f106122c4576101008083540402835291602001916122ef565b820191906000526020600020905b8154815290600101906020018083116122d257829003601f168201915b5050509183525050600191909101546001600160a01b03808216602080850191909152600160a01b90920460ff1660409093019290925282015191925016158015906123425750806040015160ff166002145b1561240c57600a6000600c858560405161235d9291906140bd565b908152602001604051809103902054815260200190815260200160002060010160009054906101000a90046001600160a01b03166001600160a01b03166108fc349081150290604051600060405180830381858888f193505050501580156123c9573d6000803e3d6000fd5b507f55ba5e513ac5c832c73696b2bac8efc4fa9fcac62091a294ec672803704481d5333485856040516123ff94939291906140fd565b60405180910390a1611f6c565b600e8054600101905560408051606081018252338152346020808301919091528251601f8601829004820281018201845285815291928301919086908690819084018382808284376000920182905250939094525050600e548152600f6020908152604091829020845181546001600160a01b0319166001600160a01b039091161781558482015160018201559184015180519293506124b59260028501929190910190613a29565b50905050601083836040516124cb9291906140bd565b908152604080519182900360209081018320600e805482546001818101855560009485528585209091019190915533835260118452938220905481549485018255908252919020909101553490600d9061252890869086906140bd565b90815260405190819003602001812080549092019091557f406551011d3a3874d102c2ee25adb004adb6d90a8134f04c14bd02f73ad4a3d0906125729033903490879087906140fd565b60405180910390a1505050565b805160208183018101805160188252928201919093012091525481565b6001600160a01b0382166000908152601d60205260408120548390600260001961010060018416150201909116046125e65760405162461bcd60e51b8152600401610c03906144e8565b6125ee6139f4565b6001600160a01b0385166000908152602460205260409020546126199030632fa8e42f60e21b61325f565b6040805180820190915260078152661a5cdcdd59525960ca1b60208201529091506126469082908661327b565b6001600160a01b03851660009081526025602052604090205461266c9086908390613299565b95945050505050565b60008281526006602052604090205482906001600160a01b031633146126ad5760405162461bcd60e51b8152600401610c039061484d565b60008181526006602052604080822080546001600160a01b03191690555182916000805160206149ba83398151915291a27f18a9ae8da60af552acf2f19fde63eb449e44f7ef6a41c64a6274f8b2277448e08383604051612572929190614286565b336000818152600b60209081526040808320548352600a9091529020600101546001600160a01b0316146127555760405162461bcd60e51b8152600401610c0390614400565b336000908152600b60209081526040808320548352600a90915290819020905161277f919061408f565b604080519182900382206000848152600f6020529190912090916127a6916002019061408f565b604051809103902014611a2e5760405162461bcd60e51b8152600401610c03906145b8565b600a6020908152600091825260409182902080548351601f600260001961010060018616150201909316929092049182018490048402810184019094528084529092918391908301828280156128625780601f1061283757610100808354040283529160200191612862565b820191906000526020600020905b81548152906001019060200180831161284557829003601f168201915b505050600190930154919250506001600160a01b0381169060ff600160a01b9091041683565b8051602081830181018051601b8252928201919093012091525481565b60126020908152600091825260409182902080546001808301546002808501805488516101009582161595909502600019011691909104601f81018790048702840187019097528683526001600160a01b039093169590949192918301828280156129515780601f1061292657610100808354040283529160200191612951565b820191906000526020600020905b81548152906001019060200180831161293457829003601f168201915b5050505050905083565b6129636133d8565b6000546001600160a01b039081169116146129905760405162461bcd60e51b8152600401610c03906146dc565b82600114156129c6576001600160a01b0384166000908152601e60209081526040808320859055601f9091529020819055610f77565b82600214156129fa576001600160a01b03841660009081526020808052604080832085905560219091529020819055610f77565b8260031415612a30576001600160a01b038416600090815260226020908152604080832085905560239091529020819055610f77565b8260041415612a66576001600160a01b038416600090815260246020908152604080832085905560259091529020819055610f77565b8260051415610f77576001600160a01b039390931660009081526026602090815260408083209390935560279052209190915550565b601c8181548110612aa957fe5b6000918252602090912001546001600160a01b0316905081565b60226020526000908152604090205481565b60008281526006602052604090205482906001600160a01b03163314612b0d5760405162461bcd60e51b8152600401610c039061484d565b60008181526006602052604080822080546001600160a01b03191690555182916000805160206149ba83398151915291a281600111158015612b50575060648211155b612b6c5760405162461bcd60e51b8152600401610c0390614711565b600083815260196020526040902060020154600114612b9d5760405162461bcd60e51b8152600401610c039061445d565b6000838152601960205260408082209051600a918391600c91612bbf9161408f565b90815260408051602092819003830190205483529082019290925201600020600101546001600160a01b03161415612c095760405162461bcd60e51b8152600401610c039061493e565b600083815260196020526040808220600281810155602a5491516001600160a01b039092169263f68fb07592600a92600c91612c45919061408f565b90815260408051602092819003830190205483528282019390935290820160002060010154602a54835163313ce56760e01b815293516001600160a01b0392831694929091169263313ce5679260048082019391829003018186803b158015612cad57600080fd5b505afa158015612cc1573d6000803e3d6000fd5b505050506040513d601f19601f82011682018060405250810190612ce59190613f50565b60ff16600a0a85026040518363ffffffff1660e01b8152600401612d0a929190614145565b600060405180830381600087803b158015612d2457600080fd5b505af1158015612d38573d6000803e3d6000fd5b50505050505050565b600f6020908152600091825260409182902080546001808301546002808501805488516101009582161595909502600019011691909104601f81018790048702840187019097528683526001600160a01b039093169590949192918301828280156129515780601f1061292657610100808354040283529160200191612951565b612dca6133d8565b6000546001600160a01b03908116911614612df75760405162461bcd60e51b8152600401610c03906146dc565b6001600160a01b038116612e1d5760405162461bcd60e51b8152600401610c03906144a2565b600080546040516001600160a01b03808516939216917f8be0079c531659141344cd1fd0a4f28419497f9722a3daafe3b4186f6b6457e091a3600080546001600160a01b0319166001600160a01b0392909216919091179055565b60003411612e985760405162461bcd60e51b8152600401610c0390614912565b60138054600101905560408051606081018252338152346020808301919091528251601f8501829004820281018201845284815291928301919085908590819084018382808284376000920182905250939094525050601354815260126020908152604091829020845181546001600160a01b0319166001600160a01b03909116178155848201516001820155918401518051929350612f419260028501929190910190613a29565b5090505060148282604051612f579291906140bd565b9081526040805191829003602090810183206013805482546001818101855560009485528585209091019190915533835260158452938220905481549485018255908252919020909101553490601690612fb490859085906140bd565b90815260405190819003602001812080549092019091557f08c7c4039b7c98d46cb4ebb0f96ca6a67a506db7c3ddd814f88dd3cfd24e2ae9906119ec9033903490869086906140fd565b60135481565b8051602081830181018051601a8252928201919093012091525481565b33600090815260156020908152604091829020805483518184028101840190945280845260609392830182828015611450576020028201919060005260206000209081548152602001906001019080831161149e575050505050905090565b6130886133d8565b6000546001600160a01b039081169116146130b55760405162461bcd60e51b8152600401610c03906146dc565b6001600160a01b0381166000908152601d602052604081206130d691613b15565b6001600160a01b0381166000908152601e60209081526040808320839055601f8252808320839055818052808320839055602182528083208390556022825280832083905560238252808320839055602482528083208390556025825280832083905560268252808320839055602790915281208190555b816001600160a01b0316601c828154811061316557fe5b6000918252602090912001546001600160a01b0316146131875760010161314e565b601c54600019018110156131fc57601c81600101815481106131a557fe5b600091825260209091200154601c80546001600160a01b0390921691839081106131cb57fe5b600091825260209091200180546001600160a01b0319166001600160a01b0392909216919091179055600101613187565b601c80548061320757fe5b600082815260209020810160001990810180546001600160a01b03191690550190555050565b600060183610801590613244575061324433611890565b15613258575060131936013560601c611458565b5033611458565b6132676139f4565b61326f6139f4565b61266c81868686613642565b608083015161328a908361367f565b6080830151611f6c908261367f565b6000306005546040516020016132b092919061409b565b60408051808303601f19018152918152815160209283012060055460608701526000818152600690935281832080546001600160a01b0319166001600160a01b038916179055905190925082917fb5e6e01e79f91267dc17b4e6314d5d4d03593d2ceee0fbb452b750bd70ea5af991a26003546001600160a01b0316634000aea0858461333c87613696565b6040518463ffffffff1660e01b815260040161335a939291906141c6565b602060405180830381600087803b15801561337457600080fd5b505af1158015613388573d6000803e3d6000fd5b505050506040513d601f19601f820116820180604052508101906133ac9190613e44565b6133c85760405162461bcd60e51b8152600401610c039061453e565b6005805460010190559392505050565b60006133e261322d565b905090565b60606001600160a01b038216806134175750506040805180820190915260018152600360fc1b6020820152610e38565b8060005b811561342f57600101600a8204915061341b565b6060816001600160401b038111801561344757600080fd5b506040519080825280601f01601f191660200182016040528015613472576020820181803683370190505b50905060001982015b84156134c057600a850660300160f81b8282806001900393508151811061349e57fe5b60200101906001600160f81b031916908160001a905350600a8504945061347b565b5095945050505050565b6134d2613b79565b6000838152600f6020908152604091829020825160608101845281546001600160a01b03168152600180830154828501526002808401805487516101009482161594909402600019011691909104601f8101869004860283018601875280835292959394938601939192909183018282801561358f5780601f106135645761010080835404028352916020019161358f565b820191906000526020600020905b81548152906001019060200180831161357257829003601f168201915b5050505050815250509050816001600160a01b03166108fc82602001519081150290604051600060405180830381858888f193505050501580156135d7573d6000803e3d6000fd5b508060200151600d82604001516040516135f191906140cd565b90815260408051602092819003830190208054939093039092556000858152600f90915290812080546001600160a01b0319168155600181018290559061363b6002830182613b15565b5050505050565b61364a6139f4565b61365a8560800151610100613712565b50509183526001600160a01b031660208301526001600160e01b031916604082015290565b61368c826003835161374c565b611f6c828261381f565b6060634042994660e01b600080846000015185602001518660400151876060015160018960800151600001516040516024016136d998979695949392919061415e565b60408051601f198184030181529190526020810180516001600160e01b03166001600160e01b0319909316929092179091529050919050565b61371a613ba3565b602082061561372f5760208206602003820191505b506020828101829052604080518085526000815290920101905290565b6017811161376d576137678360e0600585901b168317613840565b50611f6c565b60ff81116137975761378a836018611fe0600586901b1617613840565b5061376783826001613858565b61ffff81116137c2576137b5836019611fe0600586901b1617613840565b5061376783826002613858565b63ffffffff81116137ef576137e283601a611fe0600586901b1617613840565b5061376783826004613858565b6001600160401b038111611f6c5761381283601b611fe0600586901b1617613840565b50610f7783826008613858565b613827613ba3565b61383983846000015151848551613871565b9392505050565b613848613ba3565b613839838460000151518461391d565b613860613ba3565b6113f0848560000151518585613968565b613879613ba3565b825182111561388757600080fd5b846020015182850111156138b1576138b1856138a987602001518786016139c6565b6002026139dd565b6000808651805187602083010193508088870111156138d05787860182525b505050602084015b602084106138f75780518252601f1990930192602091820191016138d8565b51815160001960208690036101000a019081169019919091161790525083949350505050565b613925613ba3565b83602001518310613941576139418485602001516002026139dd565b83518051602085830101848153508085141561395e576001810182525b5093949350505050565b613970613ba3565b8460200151848301111561398d5761398d858584016002026139dd565b60006001836101000a0390508551838682010185831982511617815250805184870111156139bb5783860181525b509495945050505050565b6000818311156139d757508161170e565b50919050565b81516139e98383613712565b50610f77838261381f565b6040805160a081018252600080825260208201819052918101829052606081019190915260808101613a24613ba3565b905290565b828054600181600116156101000203166002900490600052602060002090601f016020900481019282601f10613a6a57805160ff1916838001178555613a97565b82800160010185558215613a97579182015b82811115613a97578251825591602001919060010190613a7c565b50613aa3929150613bbd565b5090565b828054600181600116156101000203166002900490600052602060002090601f016020900481019282601f10613ae85782800160ff19823516178555613a97565b82800160010185558215613a97579182015b82811115613a97578235825591602001919060010190613afa565b50805460018160011615610100020316600290046000825580601f10613b3b5750611a38565b601f016020900490600052602060002090810190611a389190613bbd565b604080516060808201835281526000602082018190529181019190915290565b604051806060016040528060006001600160a01b0316815260200160008152602001606081525090565b604051806040016040528060608152602001600081525090565b5b80821115613aa35760008155600101613bbe565b80356001600160a01b038116811461170e57600080fd5b60008083601f840112613bfa578182fd5b5081356001600160401b03811115613c10578182fd5b602083019150836020828501011115613c2857600080fd5b9250929050565b600082601f830112613c3f578081fd5b81356001600160401b0380821115613c55578283fd5b604051601f8301601f191681016020018281118282101715613c75578485fd5b604052828152925082848301602001861015613c9057600080fd5b8260208601602083013760006020848301015250505092915050565b600060208284031215613cbd578081fd5b6138398383613bd2565b600080600060408486031215613cdb578182fd5b613ce58585613bd2565b925060208401356001600160401b03811115613cff578283fd5b613d0b86828701613be9565b9497909650939450505050565b60008060408385031215613d2a578182fd5b82356001600160a01b0381168114613d40578283fd5b915060208301356001600160401b03811115613d5a578182fd5b613d6685828601613c2f565b9150509250929050565b600080600060608486031215613d84578283fd5b613d8e8585613bd2565b925060208401356001600160401b0380821115613da9578384fd5b613db587838801613c2f565b93506040860135915080821115613dca578283fd5b50613dd786828701613c2f565b9150509250925092565b60008060408385031215613df3578182fd5b613dfd8484613bd2565b946020939093013593505050565b60008060008060808587031215613e20578081fd5b613e2a8686613bd2565b966020860135965060408601359560600135945092505050565b600060208284031215613e55578081fd5b81518015158114613839578182fd5b600060208284031215613e75578081fd5b5035919050565b60008060408385031215613e8e578182fd5b50508035926020909101359150565b60008060208385031215613eaf578182fd5b82356001600160401b03811115613ec4578283fd5b613ed085828601613be9565b90969095509350505050565b600060208284031215613eed578081fd5b81356001600160401b03811115613f02578182fd5b6113f084828501613c2f565b60008060408385031215613f20578182fd5b82356001600160401b03811115613f35578283fd5b613f4185828601613c2f565b95602094909401359450505050565b600060208284031215613f61578081fd5b815160ff81168114613839578182fd5b60008151808452613f8981602086016020860161498d565b601f01601f19169290920160200192915050565b60008154600180821660008114613fbb5760018114613fd257614004565b60ff198316865260028304607f1686019350614004565b600283048560005260208060002060005b83811015613ffc5781548a820152908501908201613fe3565b505050860193505b50505092915050565b6000815460018082166000811461402b576001811461404957614004565b60028304607f16865260ff1983166020870152604086019350614004565b6002830480875261405986614981565b60005b8281101561407d5781546020828b010152848201915060208101905061405c565b88016020019550505050505092915050565b60006138398284613f9d565b60609290921b6bffffffffffffffffffffffff19168252601482015260340190565b6000828483379101908152919050565b600082516140df81846020870161498d565b9190910192915050565b6001600160a01b0391909116815260200190565b6001600160a01b0385168152602081018490526060604082018190528101829052600082846080840137818301608090810191909152601f909201601f191601019392505050565b6001600160a01b03929092168252602082015260400190565b6001600160a01b0389811682526020820189905260408201889052861660608201526001600160e01b03198516608082015260a0810184905260c0810183905261010060e082018190526000906141b783820185613f71565b9b9a5050505050505050505050565b600060018060a01b03851682528360208301526060604083015261266c6060830184613f71565b6020808252825182820181905260009190848201906040850190845b8181101561422e5783516001600160a01b031683529284019291840191600101614209565b50909695505050505050565b6020808252825182820181905260009190848201906040850190845b8181101561422e57835183529284019291840191600101614256565b901515815260200190565b90815260200190565b918252602082015260400190565b6000602082526138396020830184613f71565b6000606082526142ba6060830186613f71565b6001600160a01b039490941660208301525060ff91909116604090910152919050565b6000606082526142f06060830186613f71565b82810360208401526143028186613f71565b915050826040830152949350505050565b600060408252614326604083018561400d565b828103602084015261266c818561400d565b60208082526030908201527f4465706f73697420646964206e6f742063616d652066726f6d2074686973204560408201526f3a3432b932bab69030b2323932b9b99760811b606082015260800190565b60208082526021908201527f497373756520686173206e6f206465706f7369747320746f2072656c656173656040820152601760f91b606082015260800190565b6020808252601d908201527f50756c6c207265717565737420616c726561647920636c61696d65642e000000604082015260600190565b6020808252603d908201527f5468697320457468657265756d2061646472657373206973206e6f742072656760408201527f69737465726564207769746820616e792047697448756220757365722e000000606082015260800190565b60208082526025908201527f50756c6c207265717565737420636c61696d20776173206e6f7420726571756560408201526439ba32b21760d91b606082015260800190565b60208082526026908201527f4f776e61626c653a206e6577206f776e657220697320746865207a65726f206160408201526564647265737360d01b606082015260800190565b60208082526036908201527f4f6e6c792077686974656c6973746564206f7261636c65732063616e206265206040820152753ab9b2b2103337b9103a3434b9903932b8bab2b9ba1760511b606082015260800190565b60208082526023908201527f756e61626c6520746f207472616e73666572416e6443616c6c20746f206f7261604082015262636c6560e81b606082015260800190565b6020808252601f908201527f4973737565206465706f7369747320616c726561647920636c61696d65642e00604082015260600190565b60208082526027908201527f4465706f736974206973206e6f7420666f72207468697320476974487562206160408201526631b1b7bab73a1760c91b606082015260800190565b60208082526038908201527f4f6e6c792072656769737465726564204769744875622075736572732063616e604082015277103932b632b0b9b29034b9b9bab2903232b837b9b4ba399760411b606082015260800190565b6020808252601e908201527f4e6f7420656e6f7567682066756e647320746f20706179206761734665650000604082015260600190565b6020808252602e908201527f54686973206973737565206465706f73697420686173206265656e207769746860408201526d323930bbb71030b63932b0b23c9760911b606082015260800190565b6020808252818101527f4f776e61626c653a2063616c6c6572206973206e6f7420746865206f776e6572604082015260600190565b6020808252818101527f496e76616c69642073636f72653a2031203c3d2073636f7265203c3d20313030604082015260600190565b60208082526042908201527f4465706f73697420646964206e6f7420636f6d652066726f6d2074686973204560408201527f7468657265756d2061646472657373206f7220646f6573206e6f7420657869736060820152613a1760f11b608082015260a00190565b60208082526027908201527f49737365206465706f7369742072656c6561736520776173206e6f74207265716040820152663ab2b9ba32b21760c91b606082015260800190565b60208082526038908201527f4e6f20476974487562206163636f756e7420726567697374657265642077697460408201527734103a3434b99022ba3432b932bab69030b1b1b7bab73a1760411b606082015260800190565b60208082526028908201527f536f75726365206d75737420626520746865206f7261636c65206f6620746865604082015267081c995c5d595cdd60c21b606082015260800190565b60208082526057908201527f54686520476974487562206163636f756e74207468697320697373756520776160408201527f732072656c656173656420746f20646f6573206e6f742062656c6f6e6720746f606082015276103a3434b99022ba3432b932bab69030b1b1b7bab73a1760491b608082015260a00190565b6020808252601290820152712cb7ba9036bab9ba1039b2b7321022aa241760711b604082015260600190565b60208082526023908201527f54686973204769744875622075736572206973206e6f7420726567697374657260408201526232b21760e91b606082015260800190565b60009081526020902090565b60005b838110156149a8578181015183820152602001614990565b83811115610f77575050600091015256fe7cc135e0cebb02c3480ae5d74d377283180a2601f8f644edf7987b009316c63aa2646970667358221220b1df4c9dc3411442f64a169711043b3132bd267643f5c180564479c3ee09267964736f6c634300060c0033",
  "immutableReferences": {},
  "source": "// SPDX-License-Identifier: MIT\npragma solidity ^0.6.0;\npragma experimental ABIEncoderV2;\n\nimport '@openzeppelin/contracts/token/ERC20/ERC20.sol';\nimport '@openzeppelin/contracts/access/Ownable.sol';\nimport '@chainlink/contracts/src/v0.6/ChainlinkClient.sol';\nimport '@opengsn/gsn/contracts/BaseRelayRecipient.sol';\nimport '@opengsn/gsn/contracts/BasePaymaster.sol';\nimport './interfaces/IUniswapV2Router02.sol';\nimport './OctoPin.sol';\n\ncontract OctoBay is Ownable, ChainlinkClient, BaseRelayRecipient {\n\n    function _msgSender() internal override(Context, BaseRelayRecipient)\n    view returns (address payable) {\n        return BaseRelayRecipient._msgSender();\n    }\n\n    function _msgData() internal override(Context,BaseRelayRecipient)\n    view returns (bytes memory ret) {\n        return BaseRelayRecipient._msgData();\n    }\n\n    string public override versionRecipient = '2.0.0'; // GSN version\n\n    IUniswapV2Router02 uniswap;\n    // TODO: Add more events related to user withdrawls\n    event UserDepositEvent(address account, uint256 amount, string githubUser);\n    event UserSendEvent(address account, uint256 amount, string githubUser);\n    event IssueDepositEvent(address account, uint256 amount, string issueId);\n    event ReleaseIssueDepositsEvent(string issueId, string githubUser);\n    event TwitterPost(bytes32 requestId, bytes32 tweetId);\n\n    struct User {\n        string githubUser;\n        address ethAddress;\n        uint8 status; // 1 = requested, 2 = confirmed\n    }\n    mapping(bytes32 => User) public users;\n    mapping(address => bytes32) public userIDsByAddress;\n    mapping(string => bytes32) public userIDsByGithubUser;\n    mapping(string => uint256) public userClaimAmountByGithbUser;\n\n    struct UserDeposit {\n        address from;\n        uint256 amount;\n        string githubUser;\n    }\n    uint256 private nextUserDepositId = 0;\n    mapping(uint256 => UserDeposit) public userDeposits;\n    mapping(string => uint256[]) public userDepositIdsByGithubUser;\n    mapping(address => uint256[]) public userDepositIdsBySender;\n\n    struct IssueDeposit {\n        address from;\n        uint256 amount;\n        string issueId;\n    }\n    mapping(uint256 => IssueDeposit) public issueDeposits;\n    uint256 public nextIssueDepositId = 0;\n    mapping(string => uint256[]) public issueDepositIdsByIssueId;\n    mapping(address => uint256[]) public issueDepositIdsBySender;\n    mapping(string => uint256) public issueDepositsAmountByIssueId;\n\n    struct ReleasedIssue {\n        string githubUser;\n        string issueId;\n        uint256 status;\n    }\n    mapping(bytes32 => ReleasedIssue) public releasedIssues;\n    mapping(string => bytes32) public issueReleaseIDsByIssueId;\n\n    struct PullRequestClaim {\n        string githubUser;\n        string prId;\n        uint256 status; // 1 = requested, 2 = confirmed\n    }\n    mapping(bytes32 => PullRequestClaim) public pullRequestClaims;\n    mapping(string => bytes32) public pullRequestClaimIDsByPrId;\n\n    mapping(string => uint256) public issuePins;\n\n    address[] public oracleAddresses;\n    mapping(address => string) public oracleNames;\n    mapping(address => bytes32) public registerJobIds;\n    mapping(address => uint256) public registerJobFees;\n    mapping(address => bytes32) public releaseJobIds;\n    mapping(address => uint256) public releaseJobFees;\n    mapping(address => bytes32) public claimJobIds;\n    mapping(address => uint256) public claimJobFees;\n    mapping(address => bytes32) public twitterPostJobIds;\n    mapping(address => uint256) public twitterPostJobFees;\n    mapping(address => bytes32) public twitterFollowersJobIds;\n    mapping(address => uint256) public twitterFollowersJobFees;\n\n\n    address weth;\n    address link;\n    OctoPin public octoPin;\n    address octobayPaymaster;\n\n    string twitterAccountId;\n    uint256 twitterFollowers;\n\n    constructor(\n        address _link,\n        address _weth,\n        address _uniswap,\n        address _forwarder\n    ) public {\n        if (_link == address(0)) {\n            setPublicChainlinkToken();\n        } else {\n            setChainlinkToken(_link);\n        }\n        link = _link;\n        weth = _weth;\n        trustedForwarder = _forwarder; // GSN trusted forwarder\n        uniswap = IUniswapV2Router02(_uniswap);\n    }\n\n    function setOctoPin(address _octoPin) external onlyOwner {\n        octoPin = OctoPin(_octoPin);\n    }\n\n    function setPaymaster(address _octobayPaymaster) external onlyOwner {\n        octobayPaymaster = _octobayPaymaster;\n    }\n\n    function setTwitterAccountId(string memory _accountId) external onlyOwner {\n        twitterAccountId = _accountId;\n        twitterFollowers = 0;\n    }\n\n    modifier onlyActiveOracles(address _oracle) {\n      require(bytes(oracleNames[_oracle]).length > 0, \"Only whitelisted oracles can be used for this request.\");\n      _;\n    }\n\n    function setOracle(address _oracle, string calldata name) external onlyOwner {\n      oracleAddresses.push(_oracle);\n      oracleNames[_oracle] = name;\n    }\n\n    function setOracleJob(address _oracle, uint256 _jobType, bytes32 _jobId, uint256 _jobFee) external onlyOwner {\n      if (_jobType == 1) {\n        registerJobIds[_oracle] = _jobId;\n        registerJobFees[_oracle] = _jobFee;\n      } else if (_jobType == 2) {\n        releaseJobIds[_oracle] = _jobId;\n        releaseJobFees[_oracle] = _jobFee;\n      } else if (_jobType == 3) {\n        claimJobIds[_oracle] = _jobId;\n        claimJobFees[_oracle] = _jobFee;\n      } else if (_jobType == 4) {\n        twitterPostJobIds[_oracle] = _jobId;\n        twitterPostJobFees[_oracle] = _jobFee;\n      } else if (_jobType == 5) {\n        twitterFollowersJobIds[_oracle] = _jobId;\n        twitterFollowersJobFees[_oracle] = _jobFee;\n      }\n    }\n\n    function removeOracle(address _oracle) external onlyOwner {\n      delete oracleNames[_oracle];\n      delete registerJobIds[_oracle];\n      delete registerJobFees[_oracle];\n      delete releaseJobIds[_oracle];\n      delete releaseJobFees[_oracle];\n      delete claimJobIds[_oracle];\n      delete claimJobFees[_oracle];\n      delete twitterPostJobIds[_oracle];\n      delete twitterPostJobFees[_oracle];\n      delete twitterFollowersJobIds[_oracle];\n      delete twitterFollowersJobFees[_oracle];\n\n      uint i = 0;\n      while (oracleAddresses[i] != _oracle) {\n        i++;\n      }\n      while (i < oracleAddresses.length - 1) {\n        oracleAddresses[i] = oracleAddresses[i + 1];\n        i++;\n      }\n      oracleAddresses.pop();\n    }\n\n    function getOracles() external view returns(address[] memory) {\n      return oracleAddresses;\n    }\n\n    function deductGasFee(string memory _githubUser, uint256 _amount)\n        external\n    {\n        // only paymaster, cause paymaster pays for gas fee on behalf of user\n        require(msg.sender == octobayPaymaster);\n        require(userClaimAmountByGithbUser[_githubUser] >= _amount, 'Not enough funds to pay gasFee');\n\n        userClaimAmountByGithbUser[_githubUser] -= _amount;\n    }\n\n\n    function _swapETHforLink(uint256 _ethAmount, uint256 _linkAmount)\n        internal\n        returns (uint256 _ethOut)\n    {\n        address[] memory path = new address[](2);\n        path[0] = weth;\n        path[1] = link;\n\n        uint256[] memory amounts =\n            uniswap.swapETHForExactTokens{value: _ethAmount}(\n                _linkAmount, // amountOut\n                path,\n                address(this),\n                now\n            );\n    }\n\n    // ------------ USER ONBOARDING ------------ //\n\n    function register(\n        address _oracle,\n        string memory _githubUser\n    ) public onlyActiveOracles(_oracle) {\n        // Trusted and free oracle\n        Chainlink.Request memory request =\n            buildChainlinkRequest(\n                registerJobIds[_oracle],\n                address(this),\n                this.confirmRegistration.selector\n            );\n        request.add('githubUser', _githubUser);\n        request.add('ethAddress', addressToIntString(_msgSender()));\n        bytes32 requestId =\n            sendChainlinkRequestTo(_oracle, request, registerJobFees[_oracle]);\n\n        users[requestId] = User(_githubUser, _msgSender(), 1);\n    }\n\n    function confirmRegistration(bytes32 _requestId)\n        public\n        recordChainlinkFulfillment(_requestId)\n    {\n        // If githubUser was registered before (changed ethAddress now) look for old\n        // ID and delete entry in userIDsByAddress as well as users entry itself (userIDsByGithubUser\n        // has been overridden above anyway).\n        bytes32 oldId = userIDsByGithubUser[users[_requestId].githubUser];\n        delete userIDsByAddress[users[oldId].ethAddress];\n        delete users[oldId];\n        // The scenario where an eth address switches to a new github account\n        // (the other way around) does not occur.\n\n        users[_requestId].status = 2;\n        userIDsByAddress[users[_requestId].ethAddress] = _requestId;\n        userIDsByGithubUser[users[_requestId].githubUser] = _requestId;\n    }\n\n    // ------------ TWITTER POST ------------ //\n\n    function twitterPost(\n        address _oracle,\n        string memory _issueId\n    ) public onlyActiveOracles(_oracle) returns(bytes32 requestId) {\n        // Trusted and free oracle\n        Chainlink.Request memory request =\n            buildChainlinkRequest(\n                twitterPostJobIds[_oracle],\n                address(this),\n                this.twitterPostConfirm.selector\n            );\n        request.add('issueId', _issueId);\n        requestId = sendChainlinkRequestTo(_oracle, request, twitterPostJobFees[_oracle]);\n    }\n\n    function twitterPostConfirm(bytes32 _requestId, bytes32 _tweetId)\n        public\n        recordChainlinkFulfillment(_requestId)\n    {\n        emit TwitterPost(_requestId, _tweetId);\n    }\n\n    // ------------ TWITTER FOLLOWERS ------------ //\n\n    function updateTwitterFollowers(\n        address _oracle\n    ) public onlyActiveOracles(_oracle) returns(bytes32 requestId) {\n        // Trusted and free oracle\n        Chainlink.Request memory request =\n            buildChainlinkRequest(\n                twitterFollowersJobIds[_oracle],\n                address(this),\n                this.updateTwitterFollowersConfirm.selector\n            );\n        request.add('accountId', twitterAccountId);\n        requestId = sendChainlinkRequestTo(_oracle, request, twitterFollowersJobFees[_oracle]);\n    }\n\n    function updateTwitterFollowersConfirm(bytes32 _requestId, uint256 _followers)\n        public\n        recordChainlinkFulfillment(_requestId)\n    {\n        twitterFollowers = _followers;\n    }\n\n    // ------------ USER DEPOSITS ------------ //\n\n    function depositEthForGithubUser(string calldata _githubUser)\n        external\n        payable\n    {\n        require(msg.value > 0, 'You must send ETH.');\n        User memory user = users[userIDsByGithubUser[_githubUser]];\n\n        if(user.ethAddress != address(0) && user.status == 2) { // Registered and verified user\n            payable(users[userIDsByGithubUser[_githubUser]].ethAddress).transfer(\n                msg.value\n            );\n\n            emit UserSendEvent(msg.sender, msg.value, _githubUser);\n\n        } else {    // hold funds in contract\n            nextUserDepositId++;\n            userDeposits[nextUserDepositId] = UserDeposit(\n                msg.sender,\n                msg.value,\n                _githubUser\n            );\n            userDepositIdsByGithubUser[_githubUser].push(nextUserDepositId);\n            userDepositIdsBySender[msg.sender].push(nextUserDepositId);\n\n            // increment claim amount\n            userClaimAmountByGithbUser[_githubUser] += msg.value;\n\n            emit UserDepositEvent(msg.sender, msg.value, _githubUser);\n        }\n    }\n\n    function _sendDeposit(uint256 _depositId, address _to) internal {\n        UserDeposit memory deposit = userDeposits[_depositId];\n        payable(_to).transfer(deposit.amount);\n\n        // reduce claim amount\n        userClaimAmountByGithbUser[deposit.githubUser] -= deposit.amount;\n\n        delete userDeposits[_depositId];\n    }\n\n\n    function refundUserDeposit(uint256 _depositId) external {\n        require(\n            userDeposits[_depositId].from == msg.sender,\n            'Deposit did not came from this Ethereum address.'\n        );\n        _sendDeposit(_depositId, msg.sender);   // msg.sender is depositor\n    }\n\n\n    // ------------ USER WITHDRAWALS ------------ //\n\n\n    function withdrawUserDeposit(uint256 _depositId) external {\n        require(\n            users[userIDsByAddress[msg.sender]].ethAddress == msg.sender,\n            'This Ethereum address is not registered with any GitHub user.'\n        );\n        require(\n            keccak256(bytes(userDeposits[_depositId].githubUser)) ==\n                keccak256(\n                    bytes(users[userIDsByAddress[msg.sender]].githubUser)\n                ),\n            'Deposit is not for this GitHub account.'\n        );\n        _sendDeposit(_depositId, msg.sender);   // msg.sender is user\n    }\n\n\n\n    // ------------ ISSUE DEPOSITS ------------ //\n\n    function depositEthForIssue(string calldata _issueId) external payable {\n        require(msg.value > 0, 'You must send ETH.');\n        nextIssueDepositId++;\n        issueDeposits[nextIssueDepositId] = IssueDeposit(\n            msg.sender,\n            msg.value,\n            _issueId\n        );\n        issueDepositIdsByIssueId[_issueId].push(nextIssueDepositId);\n        issueDepositIdsBySender[msg.sender].push(nextIssueDepositId);\n        issueDepositsAmountByIssueId[_issueId] += msg.value;\n        emit IssueDepositEvent(msg.sender, msg.value, _issueId);\n    }\n\n    function refundIssueDeposit(uint256 _depositId) external {\n        require(\n            issueDeposits[_depositId].from == msg.sender,\n            'Deposit did not come from this Ethereum address or does not exist.'\n        );\n        require(\n            issueDepositsAmountByIssueId[issueDeposits[_depositId].issueId] >=\n                issueDeposits[_depositId].amount,\n            'This issue deposit has been withdrawn already.'\n        );\n        payable(msg.sender).transfer(issueDeposits[_depositId].amount);\n        issueDepositsAmountByIssueId[\n            issueDeposits[_depositId].issueId\n        ] -= issueDeposits[_depositId].amount;\n        delete issueDeposits[_depositId];\n    }\n\n\n    // ------------ ISSUE-DEPOSIT RELEASES ------------ //\n\n    function releaseIssueDeposits(\n        address _oracle,\n        string memory _issueId,\n        string memory _githubUser\n    ) public onlyActiveOracles(_oracle) {\n        require(\n            issueDepositsAmountByIssueId[_issueId] > 0,\n            'Issue has no deposits to release.'\n        );\n        require(\n            users[userIDsByAddress[msg.sender]].ethAddress == msg.sender,\n            'Only registered GitHub users can release issue deposits.'\n        );\n\n        Chainlink.Request memory request =\n            buildChainlinkRequest(\n                releaseJobIds[_oracle],\n                address(this),\n                this.confirmReleaseIssueDeposits.selector\n            );\n        request.add('githubUser', _githubUser);\n        request.add('issueId', _issueId);\n        bytes32 requestId =\n            sendChainlinkRequestTo(_oracle, request, releaseJobFees[_oracle]);\n\n        releasedIssues[requestId] = ReleasedIssue(_githubUser, _issueId, 1);\n        issueReleaseIDsByIssueId[_issueId] = requestId;\n    }\n\n    function confirmReleaseIssueDeposits(bytes32 _requestId)\n        public\n        recordChainlinkFulfillment(_requestId)\n    {\n        require(\n            releasedIssues[_requestId].status == 1,\n            'Isse deposit release was not requested.'\n        );\n        releasedIssues[_requestId].status = 2;\n\n        // add released issue funds to user deposits\n        userClaimAmountByGithbUser[releasedIssues[_requestId].githubUser] +=\n            issueDepositsAmountByIssueId[releasedIssues[_requestId].issueId];\n\n        emit ReleaseIssueDepositsEvent(\n            releasedIssues[_requestId].issueId,\n            releasedIssues[_requestId].githubUser\n        );\n    }\n\n    function claimReleasedIssueDeposits(string calldata _issueId) external {\n        require(\n            users[userIDsByAddress[msg.sender]].ethAddress == msg.sender,\n            'No GitHub account registered with this Ethereum account.'\n        );\n        require(\n            keccak256(\n                bytes(\n                    releasedIssues[issueReleaseIDsByIssueId[_issueId]]\n                        .githubUser\n                )\n            ) ==\n                keccak256(\n                    bytes(users[userIDsByAddress[msg.sender]].githubUser)\n                ),\n            'The GitHub account this issue was released to does not belong to this Ethereum account.'\n        );\n        require(\n            issueDepositsAmountByIssueId[_issueId] > 0,\n            'Issue deposits already claimed.'\n        );\n\n        payable(msg.sender).transfer(issueDepositsAmountByIssueId[_issueId]);\n        // subtract released issue funds from user deposits\n        userClaimAmountByGithbUser[users[userIDsByAddress[msg.sender]].githubUser] -=\n            issueDepositsAmountByIssueId[_issueId];\n\n        issueDepositsAmountByIssueId[_issueId] = 0;\n    }\n\n    // ------------ PULL REQUESTS ------------ //\n\n    function claimPullRequest(\n        address _oracle,\n        string memory _prId,\n        string memory _githubUser\n    ) public onlyActiveOracles(_oracle) {\n        require(\n            pullRequestClaims[pullRequestClaimIDsByPrId[_prId]].status != 2,\n            'Pull request already claimed.'\n        );\n        require(\n            users[userIDsByGithubUser[_githubUser]].status == 2,\n            'This GitHub user is not registered.'\n        );\n\n        Chainlink.Request memory request =\n            buildChainlinkRequest(\n                claimJobIds[_oracle],\n                address(this),\n                this.confirmPullRequestClaim.selector\n            );\n        request.add('githubUser', _githubUser);\n        request.add('prId', _prId);\n        bytes32 requestId = sendChainlinkRequestTo(_oracle, request, claimJobFees[_oracle]);\n\n        pullRequestClaims[requestId] = PullRequestClaim(_githubUser, _prId, 1);\n    }\n\n    function confirmPullRequestClaim(bytes32 _requestId, uint256 _score)\n        public\n        recordChainlinkFulfillment(_requestId)\n    {\n        require(\n            1 <= _score && _score <= 100,\n            'Invalid score: 1 <= score <= 100'\n        );\n        require(\n            pullRequestClaims[_requestId].status == 1,\n            'Pull request claim was not requested.'\n        );\n        require(\n            users[userIDsByGithubUser[pullRequestClaims[_requestId].githubUser]]\n                .ethAddress != address(0),\n            'This GitHub user is not registered.'\n        );\n\n        pullRequestClaims[_requestId].status = 2;\n        octoPin.mintOnPullRequestClaim(\n            users[userIDsByGithubUser[pullRequestClaims[_requestId].githubUser]]\n                .ethAddress,\n            _score * uint256(10)**octoPin.decimals()\n        );\n    }\n\n\n    // ------------ GETTERS ------------ //\n\n     function getUserDepositIdsForGithubUser(string calldata _githubUser)\n        external\n        view\n        returns (uint256[] memory)\n    {\n        return userDepositIdsByGithubUser[_githubUser];\n    }\n\n    function getUserDepositIdsForSender()\n        external\n        view\n        returns (uint256[] memory)\n    {\n        return userDepositIdsBySender[msg.sender];\n    }\n\n    function getIssueDepositIdsForIssueId(string calldata _depositId)\n        external\n        view\n        returns (uint256[] memory)\n    {\n        return issueDepositIdsByIssueId[_depositId];\n    }\n\n    function getIssueDepositIdsForSender()\n        external\n        view\n        returns (uint256[] memory)\n    {\n        return issueDepositIdsBySender[msg.sender];\n    }\n\n    function getUserClaimAmount(string memory _githubUser)\n        external\n        view\n        returns (uint256)\n    {\n        return userClaimAmountByGithbUser[_githubUser];\n    }\n\n\n    // ------------ UTILS ------------ //\n\n    function addressToIntString(address _address)\n        internal\n        pure\n        returns (string memory _string)\n    {\n        uint256 _i = uint256(_address);\n        if (_i == 0) {\n            return '0';\n        }\n        uint256 j = _i;\n        uint256 len;\n        while (j != 0) {\n            len++;\n            j /= 10;\n        }\n        bytes memory bstr = new bytes(len);\n        uint256 k = len - 1;\n        while (_i != 0) {\n            bstr[k--] = bytes1(uint8(48 + (_i % 10)));\n            _i /= 10;\n        }\n        return string(bstr);\n    }\n}\n",
  "sourcePath": "/home/mkt/Projects/octobay/contracts/contracts/OctoBay.sol",
  "compiler": {
    "name": "solc",
    "version": "0.6.12+commit.27d51765.Emscripten.clang"
  },
  "schemaVersion": "3.2.5",
  "updatedAt": "2021-01-17T18:26:10.316Z",
  "networkType": "ethereum",
  "devdoc": {
    "kind": "dev",
    "methods": {
      "owner()": {
        "details": "Returns the address of the current owner."
      },
      "renounceOwnership()": {
        "details": "Leaves the contract without owner. It will not be possible to call `onlyOwner` functions anymore. Can only be called by the current owner. NOTE: Renouncing ownership will leave the contract without an owner, thereby removing any functionality that is only available to the owner."
      },
      "transferOwnership(address)": {
        "details": "Transfers ownership of the contract to a new account (`newOwner`). Can only be called by the current owner."
      }
    },
    "version": 1
  },
  "userdoc": {
    "kind": "user",
    "methods": {
      "isTrustedForwarder(address)": {
        "notice": "return if the forwarder is trusted to forward relayed transactions to us. the forwarder is required to verify the sender's signature, and verify the call is not a replay."
      }
    },
    "version": 1
  }
}