{
  "contractName": "Octobay",
  "abi": [
    {
      "inputs": [
        {
          "internalType": "address",
          "name": "_link",
          "type": "address"
        },
        {
          "internalType": "address",
          "name": "_forwarder",
          "type": "address"
        },
        {
          "internalType": "address",
          "name": "_ovt",
          "type": "address"
        },
        {
          "internalType": "address",
          "name": "_userAddressStorage",
          "type": "address"
        },
        {
          "internalType": "address",
          "name": "_oracleStorage",
          "type": "address"
        },
        {
          "internalType": "address",
          "name": "_octobayGovernor",
          "type": "address"
        },
        {
          "internalType": "address",
          "name": "_ethUSDPriceFeed",
          "type": "address"
        },
        {
          "internalType": "address",
          "name": "_octobayGovNFT",
          "type": "address"
        }
      ],
      "stateMutability": "nonpayable",
      "type": "constructor"
    },
    {
      "anonymous": false,
      "inputs": [
        {
          "indexed": false,
          "internalType": "address",
          "name": "recipient",
          "type": "address"
        },
        {
          "indexed": false,
          "internalType": "uint256",
          "name": "amount",
          "type": "uint256"
        },
        {
          "indexed": false,
          "internalType": "address",
          "name": "tokenAddr",
          "type": "address"
        }
      ],
      "name": "AwardGovernanceTokensEvent",
      "type": "event"
    },
    {
      "anonymous": false,
      "inputs": [
        {
          "indexed": true,
          "internalType": "bytes32",
          "name": "id",
          "type": "bytes32"
        }
      ],
      "name": "ChainlinkCancelled",
      "type": "event"
    },
    {
      "anonymous": false,
      "inputs": [
        {
          "indexed": true,
          "internalType": "bytes32",
          "name": "id",
          "type": "bytes32"
        }
      ],
      "name": "ChainlinkFulfilled",
      "type": "event"
    },
    {
      "anonymous": false,
      "inputs": [
        {
          "indexed": true,
          "internalType": "bytes32",
          "name": "id",
          "type": "bytes32"
        }
      ],
      "name": "ChainlinkRequested",
      "type": "event"
    },
    {
      "anonymous": false,
      "inputs": [
        {
          "indexed": false,
          "internalType": "address",
          "name": "from",
          "type": "address"
        },
        {
          "indexed": false,
          "internalType": "uint256",
          "name": "amount",
          "type": "uint256"
        },
        {
          "indexed": false,
          "internalType": "string",
          "name": "issueId",
          "type": "string"
        },
        {
          "indexed": false,
          "internalType": "uint256",
          "name": "depositId",
          "type": "uint256"
        }
      ],
      "name": "IssueDepositEvent",
      "type": "event"
    },
    {
      "anonymous": false,
      "inputs": [
        {
          "indexed": true,
          "internalType": "address",
          "name": "previousOwner",
          "type": "address"
        },
        {
          "indexed": true,
          "internalType": "address",
          "name": "newOwner",
          "type": "address"
        }
      ],
      "name": "OwnershipTransferred",
      "type": "event"
    },
    {
      "anonymous": false,
      "inputs": [
        {
          "indexed": false,
          "internalType": "address",
          "name": "to",
          "type": "address"
        },
        {
          "indexed": false,
          "internalType": "uint256",
          "name": "amount",
          "type": "uint256"
        },
        {
          "indexed": false,
          "internalType": "string",
          "name": "issueId",
          "type": "string"
        },
        {
          "indexed": false,
          "internalType": "uint256",
          "name": "depositId",
          "type": "uint256"
        }
      ],
      "name": "RefundIssueDepositEvent",
      "type": "event"
    },
    {
      "anonymous": false,
      "inputs": [
        {
          "indexed": false,
          "internalType": "address",
          "name": "from",
          "type": "address"
        },
        {
          "indexed": false,
          "internalType": "string",
          "name": "issueId",
          "type": "string"
        },
        {
          "indexed": false,
          "internalType": "address",
          "name": "govTokenAddress",
          "type": "address"
        },
        {
          "indexed": false,
          "internalType": "string",
          "name": "projectId",
          "type": "string"
        }
      ],
      "name": "SetGovTokenForIssueEvent",
      "type": "event"
    },
    {
      "anonymous": false,
      "inputs": [
        {
          "indexed": false,
          "internalType": "string",
          "name": "issueId",
          "type": "string"
        },
        {
          "indexed": false,
          "internalType": "bytes32",
          "name": "tweetId",
          "type": "bytes32"
        }
      ],
      "name": "TwitterPostEvent",
      "type": "event"
    },
    {
      "anonymous": false,
      "inputs": [
        {
          "indexed": false,
          "internalType": "address",
          "name": "from",
          "type": "address"
        },
        {
          "indexed": false,
          "internalType": "uint256",
          "name": "amount",
          "type": "uint256"
        },
        {
          "indexed": false,
          "internalType": "string",
          "name": "githubUser",
          "type": "string"
        }
      ],
      "name": "UserDepositEvent",
      "type": "event"
    },
    {
      "anonymous": false,
      "inputs": [
        {
          "indexed": false,
          "internalType": "string",
          "name": "issueId",
          "type": "string"
        },
        {
          "indexed": false,
          "internalType": "address",
          "name": "recipient",
          "type": "address"
        },
        {
          "indexed": false,
          "internalType": "uint256",
          "name": "amount",
          "type": "uint256"
        }
      ],
      "name": "WithdrawIssueDepositEvent",
      "type": "event"
    },
    {
      "inputs": [
        {
          "internalType": "string",
          "name": "",
          "type": "string"
        }
      ],
      "name": "govTokenByIssueId",
      "outputs": [
        {
          "internalType": "contract OctobayGovToken",
          "name": "",
          "type": "address"
        }
      ],
      "stateMutability": "view",
      "type": "function",
      "constant": true
    },
    {
      "inputs": [
        {
          "internalType": "address",
          "name": "forwarder",
          "type": "address"
        }
      ],
      "name": "isTrustedForwarder",
      "outputs": [
        {
          "internalType": "bool",
          "name": "",
          "type": "bool"
        }
      ],
      "stateMutability": "view",
      "type": "function",
      "constant": true
    },
    {
      "inputs": [
        {
          "internalType": "string",
          "name": "",
          "type": "string"
        },
        {
          "internalType": "uint256",
          "name": "",
          "type": "uint256"
        }
      ],
      "name": "issueDepositIdsByIssueId",
      "outputs": [
        {
          "internalType": "uint256",
          "name": "",
          "type": "uint256"
        }
      ],
      "stateMutability": "view",
      "type": "function",
      "constant": true
    },
    {
      "inputs": [
        {
          "internalType": "address",
          "name": "",
          "type": "address"
        },
        {
          "internalType": "uint256",
          "name": "",
          "type": "uint256"
        }
      ],
      "name": "issueDepositIdsBySender",
      "outputs": [
        {
          "internalType": "uint256",
          "name": "",
          "type": "uint256"
        }
      ],
      "stateMutability": "view",
      "type": "function",
      "constant": true
    },
    {
      "inputs": [
        {
          "internalType": "uint256",
          "name": "",
          "type": "uint256"
        }
      ],
      "name": "issueDeposits",
      "outputs": [
        {
          "internalType": "address",
          "name": "from",
          "type": "address"
        },
        {
          "internalType": "uint256",
          "name": "amount",
          "type": "uint256"
        },
        {
          "internalType": "string",
          "name": "issueId",
          "type": "string"
        }
      ],
      "stateMutability": "view",
      "type": "function",
      "constant": true
    },
    {
      "inputs": [
        {
          "internalType": "string",
          "name": "",
          "type": "string"
        }
      ],
      "name": "issueDepositsAmountByIssueId",
      "outputs": [
        {
          "internalType": "uint256",
          "name": "",
          "type": "uint256"
        }
      ],
      "stateMutability": "view",
      "type": "function",
      "constant": true
    },
    {
      "inputs": [
        {
          "internalType": "string",
          "name": "",
          "type": "string"
        }
      ],
      "name": "issuePins",
      "outputs": [
        {
          "internalType": "uint256",
          "name": "",
          "type": "uint256"
        }
      ],
      "stateMutability": "view",
      "type": "function",
      "constant": true
    },
    {
      "inputs": [
        {
          "internalType": "string",
          "name": "",
          "type": "string"
        }
      ],
      "name": "issueStatusByIssueId",
      "outputs": [
        {
          "internalType": "enum Octobay.IssueStatus",
          "name": "",
          "type": "uint8"
        }
      ],
      "stateMutability": "view",
      "type": "function",
      "constant": true
    },
    {
      "inputs": [
        {
          "internalType": "bytes32",
          "name": "",
          "type": "bytes32"
        }
      ],
      "name": "issueWithdrawRequests",
      "outputs": [
        {
          "internalType": "string",
          "name": "issueId",
          "type": "string"
        },
        {
          "internalType": "address",
          "name": "payoutAddress",
          "type": "address"
        }
      ],
      "stateMutability": "view",
      "type": "function",
      "constant": true
    },
    {
      "inputs": [
        {
          "internalType": "bytes32",
          "name": "",
          "type": "bytes32"
        }
      ],
      "name": "newGovernanceTokenReqs",
      "outputs": [
        {
          "internalType": "bool",
          "name": "isValue",
          "type": "bool"
        },
        {
          "internalType": "string",
          "name": "githubUserId",
          "type": "string"
        },
        {
          "internalType": "string",
          "name": "name",
          "type": "string"
        },
        {
          "internalType": "string",
          "name": "symbol",
          "type": "string"
        },
        {
          "internalType": "string",
          "name": "projectId",
          "type": "string"
        },
        {
          "internalType": "uint16",
          "name": "newProposalShare",
          "type": "uint16"
        },
        {
          "internalType": "uint16",
          "name": "minQuorum",
          "type": "uint16"
        },
        {
          "internalType": "address",
          "name": "creator",
          "type": "address"
        }
      ],
      "stateMutability": "view",
      "type": "function",
      "constant": true
    },
    {
      "inputs": [],
      "name": "nextIssueDepositId",
      "outputs": [
        {
          "internalType": "uint256",
          "name": "",
          "type": "uint256"
        }
      ],
      "stateMutability": "view",
      "type": "function",
      "constant": true
    },
    {
      "inputs": [],
      "name": "octobayGovNFT",
      "outputs": [
        {
          "internalType": "contract OctobayGovNFT",
          "name": "",
          "type": "address"
        }
      ],
      "stateMutability": "view",
      "type": "function",
      "constant": true
    },
    {
      "inputs": [],
      "name": "octobayGovernor",
      "outputs": [
        {
          "internalType": "contract OctobayGovernor",
          "name": "",
          "type": "address"
        }
      ],
      "stateMutability": "view",
      "type": "function",
      "constant": true
    },
    {
      "inputs": [],
      "name": "oracleStorage",
      "outputs": [
        {
          "internalType": "contract OracleStorage",
          "name": "",
          "type": "address"
        }
      ],
      "stateMutability": "view",
      "type": "function",
      "constant": true
    },
    {
      "inputs": [],
      "name": "ovt",
      "outputs": [
        {
          "internalType": "contract OctobayVisibilityToken",
          "name": "",
          "type": "address"
        }
      ],
      "stateMutability": "view",
      "type": "function",
      "constant": true
    },
    {
      "inputs": [],
      "name": "owner",
      "outputs": [
        {
          "internalType": "address",
          "name": "",
          "type": "address"
        }
      ],
      "stateMutability": "view",
      "type": "function",
      "constant": true
    },
    {
      "inputs": [
        {
          "internalType": "bytes32",
          "name": "",
          "type": "bytes32"
        }
      ],
      "name": "pendingTwitterPostsIssueIds",
      "outputs": [
        {
          "internalType": "string",
          "name": "",
          "type": "string"
        }
      ],
      "stateMutability": "view",
      "type": "function",
      "constant": true
    },
    {
      "inputs": [],
      "name": "renounceOwnership",
      "outputs": [],
      "stateMutability": "nonpayable",
      "type": "function"
    },
    {
      "inputs": [
        {
          "internalType": "address",
          "name": "newOwner",
          "type": "address"
        }
      ],
      "name": "transferOwnership",
      "outputs": [],
      "stateMutability": "nonpayable",
      "type": "function"
    },
    {
      "inputs": [],
      "name": "trustedForwarder",
      "outputs": [
        {
          "internalType": "address",
          "name": "",
          "type": "address"
        }
      ],
      "stateMutability": "view",
      "type": "function",
      "constant": true
    },
    {
      "inputs": [],
      "name": "twitterAccountId",
      "outputs": [
        {
          "internalType": "string",
          "name": "",
          "type": "string"
        }
      ],
      "stateMutability": "view",
      "type": "function",
      "constant": true
    },
    {
      "inputs": [],
      "name": "twitterFollowers",
      "outputs": [
        {
          "internalType": "uint256",
          "name": "",
          "type": "uint256"
        }
      ],
      "stateMutability": "view",
      "type": "function",
      "constant": true
    },
    {
      "inputs": [
        {
          "internalType": "bytes32",
          "name": "",
          "type": "bytes32"
        }
      ],
      "name": "userAddressRegistrations",
      "outputs": [
        {
          "internalType": "string",
          "name": "githubUserId",
          "type": "string"
        },
        {
          "internalType": "address",
          "name": "ethAddress",
          "type": "address"
        }
      ],
      "stateMutability": "view",
      "type": "function",
      "constant": true
    },
    {
      "inputs": [],
      "name": "userAddressStorage",
      "outputs": [
        {
          "internalType": "contract UserAddressStorage",
          "name": "",
          "type": "address"
        }
      ],
      "stateMutability": "view",
      "type": "function",
      "constant": true
    },
    {
      "inputs": [
        {
          "internalType": "string",
          "name": "",
          "type": "string"
        }
      ],
      "name": "userClaimAmountByGithbUserId",
      "outputs": [
        {
          "internalType": "uint256",
          "name": "",
          "type": "uint256"
        }
      ],
      "stateMutability": "view",
      "type": "function",
      "constant": true
    },
    {
      "inputs": [
        {
          "internalType": "string",
          "name": "",
          "type": "string"
        },
        {
          "internalType": "uint256",
          "name": "",
          "type": "uint256"
        }
      ],
      "name": "userDepositIdsByGithubUserId",
      "outputs": [
        {
          "internalType": "uint256",
          "name": "",
          "type": "uint256"
        }
      ],
      "stateMutability": "view",
      "type": "function",
      "constant": true
    },
    {
      "inputs": [
        {
          "internalType": "address",
          "name": "",
          "type": "address"
        },
        {
          "internalType": "uint256",
          "name": "",
          "type": "uint256"
        }
      ],
      "name": "userDepositIdsBySender",
      "outputs": [
        {
          "internalType": "uint256",
          "name": "",
          "type": "uint256"
        }
      ],
      "stateMutability": "view",
      "type": "function",
      "constant": true
    },
    {
      "inputs": [
        {
          "internalType": "uint256",
          "name": "",
          "type": "uint256"
        }
      ],
      "name": "userDeposits",
      "outputs": [
        {
          "internalType": "address",
          "name": "from",
          "type": "address"
        },
        {
          "internalType": "uint256",
          "name": "amount",
          "type": "uint256"
        },
        {
          "internalType": "string",
          "name": "githubUserId",
          "type": "string"
        }
      ],
      "stateMutability": "view",
      "type": "function",
      "constant": true
    },
    {
      "inputs": [],
      "name": "versionRecipient",
      "outputs": [
        {
          "internalType": "string",
          "name": "",
          "type": "string"
        }
      ],
      "stateMutability": "view",
      "type": "function",
      "constant": true
    },
    {
      "inputs": [
        {
          "internalType": "string",
          "name": "_accountId",
          "type": "string"
        }
      ],
      "name": "setTwitterAccountId",
      "outputs": [],
      "stateMutability": "nonpayable",
      "type": "function"
    },
    {
      "inputs": [
        {
          "internalType": "string",
          "name": "_issueId",
          "type": "string"
        },
        {
          "internalType": "uint256",
          "name": "_amount",
          "type": "uint256"
        }
      ],
      "name": "pinIssue",
      "outputs": [],
      "stateMutability": "nonpayable",
      "type": "function"
    },
    {
      "inputs": [
        {
          "internalType": "address",
          "name": "_oracle",
          "type": "address"
        },
        {
          "internalType": "string",
          "name": "_name",
          "type": "string"
        },
        {
          "internalType": "string[]",
          "name": "_jobNames",
          "type": "string[]"
        },
        {
          "components": [
            {
              "internalType": "bytes32",
              "name": "id",
              "type": "bytes32"
            },
            {
              "internalType": "uint256",
              "name": "fee",
              "type": "uint256"
            }
          ],
          "internalType": "struct OracleStorage.Job[]",
          "name": "_jobs",
          "type": "tuple[]"
        }
      ],
      "name": "addOracle",
      "outputs": [],
      "stateMutability": "nonpayable",
      "type": "function"
    },
    {
      "inputs": [
        {
          "internalType": "address",
          "name": "_oracle",
          "type": "address"
        }
      ],
      "name": "removeOracle",
      "outputs": [],
      "stateMutability": "nonpayable",
      "type": "function"
    },
    {
      "inputs": [
        {
          "internalType": "address",
          "name": "_oracle",
          "type": "address"
        },
        {
          "internalType": "string",
          "name": "_name",
          "type": "string"
        }
      ],
      "name": "changeOracleName",
      "outputs": [],
      "stateMutability": "nonpayable",
      "type": "function"
    },
    {
      "inputs": [
        {
          "internalType": "address",
          "name": "_oracle",
          "type": "address"
        },
        {
          "internalType": "string",
          "name": "_jobName",
          "type": "string"
        },
        {
          "components": [
            {
              "internalType": "bytes32",
              "name": "id",
              "type": "bytes32"
            },
            {
              "internalType": "uint256",
              "name": "fee",
              "type": "uint256"
            }
          ],
          "internalType": "struct OracleStorage.Job",
          "name": "_job",
          "type": "tuple"
        }
      ],
      "name": "addOracleJob",
      "outputs": [],
      "stateMutability": "nonpayable",
      "type": "function"
    },
    {
      "inputs": [
        {
          "internalType": "address",
          "name": "_oracle",
          "type": "address"
        },
        {
          "internalType": "string",
          "name": "_jobName",
          "type": "string"
        }
      ],
      "name": "removeOracleJob",
      "outputs": [],
      "stateMutability": "nonpayable",
      "type": "function"
    },
    {
      "inputs": [
        {
          "internalType": "address",
          "name": "_octobayPaymaster",
          "type": "address"
        }
      ],
      "name": "setPaymaster",
      "outputs": [],
      "stateMutability": "nonpayable",
      "type": "function"
    },
    {
      "inputs": [
        {
          "internalType": "string",
          "name": "_githubUserId",
          "type": "string"
        },
        {
          "internalType": "uint256",
          "name": "_amount",
          "type": "uint256"
        }
      ],
      "name": "deductGasFee",
      "outputs": [],
      "stateMutability": "nonpayable",
      "type": "function"
    },
    {
      "inputs": [
        {
          "internalType": "address",
          "name": "_oracle",
          "type": "address"
        },
        {
          "internalType": "string",
          "name": "_githubUserId",
          "type": "string"
        }
      ],
      "name": "registerUserAddress",
      "outputs": [
        {
          "internalType": "bytes32",
          "name": "requestId",
          "type": "bytes32"
        }
      ],
      "stateMutability": "nonpayable",
      "type": "function"
    },
    {
      "inputs": [
        {
          "internalType": "bytes32",
          "name": "_requestId",
          "type": "bytes32"
        },
        {
          "internalType": "bytes32",
          "name": "_addressName",
          "type": "bytes32"
        }
      ],
      "name": "confirmRegisterUserAddress",
      "outputs": [],
      "stateMutability": "nonpayable",
      "type": "function"
    },
    {
      "inputs": [
        {
          "internalType": "bytes32",
          "name": "_requestId",
          "type": "bytes32"
        },
        {
          "internalType": "bytes32",
          "name": "_tweetId",
          "type": "bytes32"
        }
      ],
      "name": "twitterPostConfirm",
      "outputs": [],
      "stateMutability": "nonpayable",
      "type": "function"
    },
    {
      "inputs": [
        {
          "internalType": "address",
          "name": "_oracle",
          "type": "address"
        },
        {
          "internalType": "string",
          "name": "_issueId",
          "type": "string"
        }
      ],
      "name": "updateTwitterFollowersAndPost",
      "outputs": [
        {
          "internalType": "bytes32",
          "name": "requestId",
          "type": "bytes32"
        }
      ],
      "stateMutability": "nonpayable",
      "type": "function"
    },
    {
      "inputs": [
        {
          "internalType": "bytes32",
          "name": "_requestId",
          "type": "bytes32"
        },
        {
          "internalType": "uint256",
          "name": "_followers",
          "type": "uint256"
        }
      ],
      "name": "updateTwitterFollowersConfirm",
      "outputs": [],
      "stateMutability": "nonpayable",
      "type": "function"
    },
    {
      "inputs": [
        {
          "internalType": "string",
          "name": "_githubUserId",
          "type": "string"
        }
      ],
      "name": "depositEthForGithubUser",
      "outputs": [],
      "stateMutability": "payable",
      "type": "function",
      "payable": true
    },
    {
      "inputs": [
        {
          "internalType": "uint256",
          "name": "_depositId",
          "type": "uint256"
        }
      ],
      "name": "refundUserDeposit",
      "outputs": [],
      "stateMutability": "nonpayable",
      "type": "function"
    },
    {
      "inputs": [
        {
          "internalType": "uint256",
          "name": "_depositId",
          "type": "uint256"
        }
      ],
      "name": "withdrawUserDeposit",
      "outputs": [],
      "stateMutability": "nonpayable",
      "type": "function"
    },
    {
      "inputs": [
        {
          "internalType": "string",
          "name": "_issueId",
          "type": "string"
        },
        {
          "internalType": "address",
          "name": "_govTokenAddress",
          "type": "address"
        },
        {
          "internalType": "string",
          "name": "_projectId",
          "type": "string"
        }
      ],
      "name": "depositAndSetGovTokenForIssue",
      "outputs": [],
      "stateMutability": "nonpayable",
      "type": "function"
    },
    {
      "inputs": [
        {
          "internalType": "string",
          "name": "_issueId",
          "type": "string"
        },
        {
          "internalType": "address",
          "name": "_govTokenAddress",
          "type": "address"
        },
        {
          "internalType": "string",
          "name": "_projectId",
          "type": "string"
        }
      ],
      "name": "setGovTokenForIssue",
      "outputs": [],
      "stateMutability": "nonpayable",
      "type": "function"
    },
    {
      "inputs": [
        {
          "internalType": "string",
          "name": "_issueId",
          "type": "string"
        }
      ],
      "name": "depositEthForIssue",
      "outputs": [],
      "stateMutability": "payable",
      "type": "function",
      "payable": true
    },
    {
      "inputs": [
        {
          "internalType": "uint256",
          "name": "_depositId",
          "type": "uint256"
        }
      ],
      "name": "refundIssueDeposit",
      "outputs": [],
      "stateMutability": "nonpayable",
      "type": "function"
    },
    {
      "inputs": [
        {
          "internalType": "address",
          "name": "_oracle",
          "type": "address"
        },
        {
          "internalType": "string",
          "name": "_issueId",
          "type": "string"
        }
      ],
      "name": "withdrawIssueDeposit",
      "outputs": [
        {
          "internalType": "bytes32",
          "name": "requestId",
          "type": "bytes32"
        }
      ],
      "stateMutability": "nonpayable",
      "type": "function"
    },
    {
      "inputs": [
        {
          "internalType": "bytes32",
          "name": "_requestId",
          "type": "bytes32"
        }
      ],
      "name": "confirmWithdrawIssueDeposit",
      "outputs": [],
      "stateMutability": "nonpayable",
      "type": "function"
    },
    {
      "inputs": [
        {
          "internalType": "address",
          "name": "_oracle",
          "type": "address"
        },
        {
          "components": [
            {
              "internalType": "bool",
              "name": "isValue",
              "type": "bool"
            },
            {
              "internalType": "string",
              "name": "githubUserId",
              "type": "string"
            },
            {
              "internalType": "string",
              "name": "name",
              "type": "string"
            },
            {
              "internalType": "string",
              "name": "symbol",
              "type": "string"
            },
            {
              "internalType": "string",
              "name": "projectId",
              "type": "string"
            },
            {
              "internalType": "uint16",
              "name": "newProposalShare",
              "type": "uint16"
            },
            {
              "internalType": "uint16",
              "name": "minQuorum",
              "type": "uint16"
            },
            {
              "internalType": "address",
              "name": "creator",
              "type": "address"
            }
          ],
          "internalType": "struct Octobay.NewGovernanceToken",
          "name": "_newToken",
          "type": "tuple"
        }
      ],
      "name": "createGovernanceToken",
      "outputs": [
        {
          "internalType": "bytes32",
          "name": "requestId",
          "type": "bytes32"
        }
      ],
      "stateMutability": "nonpayable",
      "type": "function"
    },
    {
      "inputs": [
        {
          "internalType": "bytes32",
          "name": "_requestId",
          "type": "bytes32"
        },
        {
          "internalType": "bool",
          "name": "_result",
          "type": "bool"
        }
      ],
      "name": "confirmCreateGovernanceToken",
      "outputs": [],
      "stateMutability": "nonpayable",
      "type": "function"
    },
    {
      "inputs": [
        {
          "internalType": "string",
          "name": "_githubUserId",
          "type": "string"
        }
      ],
      "name": "getUserDepositIdsForGithubUserId",
      "outputs": [
        {
          "internalType": "uint256[]",
          "name": "",
          "type": "uint256[]"
        }
      ],
      "stateMutability": "view",
      "type": "function",
      "constant": true
    },
    {
      "inputs": [],
      "name": "getUserDepositIdsForSender",
      "outputs": [
        {
          "internalType": "uint256[]",
          "name": "",
          "type": "uint256[]"
        }
      ],
      "stateMutability": "view",
      "type": "function",
      "constant": true
    },
    {
      "inputs": [
        {
          "internalType": "string",
          "name": "_issueId",
          "type": "string"
        }
      ],
      "name": "getIssueDepositIdsForIssueId",
      "outputs": [
        {
          "internalType": "uint256[]",
          "name": "",
          "type": "uint256[]"
        }
      ],
      "stateMutability": "view",
      "type": "function",
      "constant": true
    },
    {
      "inputs": [],
      "name": "getIssueDepositIdsForSender",
      "outputs": [
        {
          "internalType": "uint256[]",
          "name": "",
          "type": "uint256[]"
        }
      ],
      "stateMutability": "view",
      "type": "function",
      "constant": true
    },
    {
      "inputs": [
        {
          "internalType": "string",
          "name": "_githubUserId",
          "type": "string"
        }
      ],
      "name": "getUserClaimAmount",
      "outputs": [
        {
          "internalType": "uint256",
          "name": "",
          "type": "uint256"
        }
      ],
      "stateMutability": "view",
      "type": "function",
      "constant": true
    }
  ],
  "bytecode": "0x6001600590815560c06040526080819052640322e302e360dc1b60a09081526200002d9160109190620001d7565b5060006014556000601a553480156200004557600080fd5b50604051620061a1380380620061a1833981016040819052620000689162000291565b6000620000746200014c565b600080546001600160a01b0319166001600160a01b0383169081178255604051929350917f8be0079c531659141344cd1fd0a4f28419497f9722a3daafe3b4186f6b6457e0908290a350620000c98862000169565b600780546001600160a01b03199081166001600160a01b03998a161790915560118054821696891696909617909555600e805486169488169490941790935560098054851695871695909517909455602180548416918616919091179055600d805483169385169390931790925560188054909116919092161790555062000340565b6000620001636200018b60201b62003a961760201c565b90505b90565b600380546001600160a01b0319166001600160a01b0392909216919091179055565b600060183610801590620001a55750620001a533620001c3565b15620001bb575060131936013560601c62000166565b503362000166565b6007546001600160a01b0390811691161490565b828054600181600116156101000203166002900490600052602060002090601f016020900481019282601f106200021a57805160ff19168380011785556200024a565b828001600101855582156200024a579182015b828111156200024a5782518255916020019190600101906200022d565b50620002589291506200025c565b5090565b5b808211156200025857600081556001016200025d565b80516001600160a01b03811681146200028b57600080fd5b92915050565b600080600080600080600080610100898b031215620002ae578384fd5b620002ba8a8a62000273565b9750620002cb8a60208b0162000273565b9650620002dc8a60408b0162000273565b9550620002ed8a60608b0162000273565b9450620002fe8a60808b0162000273565b93506200030f8a60a08b0162000273565b9250620003208a60c08b0162000273565b9150620003318a60e08b0162000273565b90509295985092959890939650565b615e5180620003506000396000f3fe60806040526004361061030b5760003560e01c806361e421d51161019c578063b910b633116100e2578063f16b41f411610090578063f16b41f414610969578063f224f90214610989578063f2fde38b146109a9578063f4b90ef7146109c9578063f63e8c70146109dc578063f831eaa4146109f1578063fb95354a14610a11578063fdc85fc414610a265761030b565b8063b910b63314610890578063bea390bc146108a5578063c315fbca146108c5578063c4f59d63146108e5578063cf5f5f46146108fa578063d224784d1461091a578063e5c59948146109495761030b565b80638617fc461161014a5780638617fc46146107aa578063886c3c89146107ca5780638d6ec921146107df5780638da5cb5b146107ff578063924718a614610814578063968ad381146108345780639996f18614610868578063a9d2facd1461087b5761030b565b806361e421d5146106d357806364701750146106f35780636a6ab0e9146107135780636f4c91a414610740578063715018a6146107605780637da0a8771461077557806384f8f6441461078a5761030b565b806348297f5911610261578063572b6c051161020f578063572b6c05146105dc5780635760885714610609578063583d789b14610629578063590b597014610649578063595670b31461065e5780635f38dace146106735780635ff3a19a1461069357806360445fb2146106b35761030b565b806348297f5914610512578063486ff0cd1461053257806348f927871461054757806350aea5591461055c5780635308f52c1461057c578063546075da1461059c578063554d108a146105bc5761030b565b80632a97fa77116102be5780632a97fa77146104225780632bbba33614610442578063420acf3c14610462578063422c546b1461048257806342aaf11b146104b0578063454d0554146104d057806345ae7717146104f25761030b565b806283cf111461031057806304405fa914610332578063113d41341461036857806313fd21ce1461038857806317c486f1146103b55780631c2a01e1146103d55780632512be93146103f5575b600080fd5b34801561031c57600080fd5b5061033061032b366004614dda565b610a46565b005b34801561033e57600080fd5b5061035261034d36600461500d565b610f7e565b60405161035f9190615785565b60405180910390f35b34801561037457600080fd5b50610352610383366004614e69565b610fbb565b34801561039457600080fd5b506103a86103a3366004614dc2565b610fe7565b60405161035f91906157b6565b3480156103c157600080fd5b506103526103d0366004614f72565b611082565b3480156103e157600080fd5b506103306103f0366004614ea8565b61109f565b34801561040157600080fd5b50610415610410366004614f72565b611362565b60405161035f919061528a565b34801561042e57600080fd5b5061033061043d366004614a3a565b611388565b34801561044e57600080fd5b5061033061045d366004614b95565b6113df565b34801561046e57600080fd5b5061033061047d366004614e09565b611482565b34801561048e57600080fd5b506104a261049d366004614dc2565b611596565b60405161035f9291906157c9565b3480156104bc57600080fd5b506103306104cb366004614a56565b611646565b3480156104dc57600080fd5b506104e56116e6565b60405161035f91906156ad565b3480156104fe57600080fd5b5061035261050d366004614a56565b611748565b34801561051e57600080fd5b5061033061052d366004614aa8565b611b50565b34801561053e57600080fd5b506103a8611bbd565b34801561055357600080fd5b506103a8611c18565b34801561056857600080fd5b506104e5610577366004614e69565b611c73565b34801561058857600080fd5b50610352610597366004614bfa565b611ce6565b3480156105a857600080fd5b506103306105b7366004614f29565b611feb565b3480156105c857600080fd5b506103306105d7366004614dc2565b612071565b3480156105e857600080fd5b506105fc6105f7366004614a3a565b6122a3565b60405161035f91906156f1565b34801561061557600080fd5b50610352610624366004614c47565b6122ba565b34801561063557600080fd5b50610330610644366004614a56565b612641565b34801561065557600080fd5b506104156126aa565b34801561066a57600080fd5b506103526126b9565b34801561067f57600080fd5b506104a261068e366004614dc2565b6126bf565b34801561069f57600080fd5b506104e56106ae366004614e69565b612729565b3480156106bf57600080fd5b506103306106ce366004614dc2565b61273d565b3480156106df57600080fd5b506103526106ee366004614d7b565b612780565b3480156106ff57600080fd5b5061035261070e366004614d7b565b612799565b34801561071f57600080fd5b5061073361072e366004614f72565b6127b2565b60405161035f919061578e565b34801561074c57600080fd5b5061033061075b366004614e09565b6127d2565b34801561076c57600080fd5b50610330612939565b34801561078157600080fd5b506104156129b8565b34801561079657600080fd5b506103306107a536600461500d565b6129c7565b3480156107b657600080fd5b506103306107c5366004614dc2565b612a76565b3480156107d657600080fd5b50610415612bfb565b3480156107eb57600080fd5b506103306107fa366004614f72565b612c0a565b34801561080b57600080fd5b50610415612c5b565b34801561082057600080fd5b5061033061082f366004614ea8565b612c6a565b34801561084057600080fd5b5061085461084f366004614dc2565b612c81565b60405161035f9897969594939291906156fc565b610330610876366004614e69565b612f0a565b34801561088757600080fd5b5061041561309c565b34801561089c57600080fd5b506104156130ab565b3480156108b157600080fd5b506103306108c0366004614e09565b6130ba565b3480156108d157600080fd5b506103306108e0366004614dc2565b61316f565b3480156108f157600080fd5b50610415613242565b34801561090657600080fd5b50610352610915366004614f72565b613251565b34801561092657600080fd5b5061093a610935366004614dc2565b61326e565b60405161035f93929190615686565b34801561095557600080fd5b50610352610964366004614a56565b613324565b34801561097557600080fd5b5061093a610984366004614dc2565b613649565b34801561099557600080fd5b506103526109a4366004614f72565b6136ca565b3480156109b557600080fd5b506103306109c4366004614a3a565b6136e7565b6103306109d7366004614e69565b61379d565b3480156109e857600080fd5b50610352613976565b3480156109fd57600080fd5b50610352610a0c36600461500d565b61397c565b348015610a1d57600080fd5b506104e56139a4565b348015610a3257600080fd5b50610330610a41366004614a3a565b613a03565b60008281526006602052604090205482906001600160a01b03163314610a875760405162461bcd60e51b8152600401610a7e90615ca6565b60405180910390fd5b60008181526006602052604080822080546001600160a01b0319169055518291600080516020615dfc83398151915291a281610ad55760405162461bcd60e51b8152600401610a7e90615a53565b610add6146a9565b60008481526022602090815260409182902082516101008082018552825460ff1615158252600180840180548751600293821615909402600019011691909104601f8101869004860283018601909652858252919492938581019391929190830182828015610b8d5780601f10610b6257610100808354040283529160200191610b8d565b820191906000526020600020905b815481529060010190602001808311610b7057829003601f168201915b5050509183525050600282810180546040805160206001841615610100026000190190931694909404601f81018390048302850183019091528084529381019390830182828015610c1f5780601f10610bf457610100808354040283529160200191610c1f565b820191906000526020600020905b815481529060010190602001808311610c0257829003601f168201915b505050918352505060038201805460408051602060026001851615610100026000190190941693909304601f8101849004840282018401909252818152938201939291830182828015610cb35780601f10610c8857610100808354040283529160200191610cb3565b820191906000526020600020905b815481529060010190602001808311610c9657829003601f168201915b505050918352505060048201805460408051602060026001851615610100026000190190941693909304601f8101849004840282018401909252818152938201939291830182828015610d475780601f10610d1c57610100808354040283529160200191610d47565b820191906000526020600020905b815481529060010190602001808311610d2a57829003601f168201915b50505091835250506005919091015461ffff808216602084015262010000820416604083015264010000000090046001600160a01b03166060909101528051909150610da55760405162461bcd60e51b8152600401610a7e90615b20565b6000848152602260205260408120805460ff1916815590610dc96001830182614701565b610dd7600283016000614701565b610de5600383016000614701565b610df3600483016000614701565b5060050180546001600160c01b0319169055602154608082015160a083015160c084015160408086015160608701519151633afcfa0b60e11b81526001600160a01b03909616956375f9f41695610e5395909490939092916004016157f3565b600060405180830381600087803b158015610e6d57600080fd5b505af1158015610e81573d6000803e3d6000fd5b505060185460e084015160808501516040516306b7b36b60e41b8152600095506001600160a01b039093169350636b7b36b092610ec29291906004016154c4565b602060405180830381600087803b158015610edc57600080fd5b505af1158015610ef0573d6000803e3d6000fd5b505050506040513d601f19601f82011682018060405250810190610f14919061504f565b60185460405163e483abaf60e01b81529192506001600160a01b03169063e483abaf90610f45908490600401615785565b600060405180830381600087803b158015610f5f57600080fd5b505af1158015610f73573d6000803e3d6000fd5b505050505050505050565b8151602081840181018051601b825292820191850191909120919052805482908110610fa657fe5b90600052602060002001600091509150505481565b600060138383604051610fcf92919061525e565b90815260200160405180910390205490505b92915050565b600c6020908152600091825260409182902080548351601f60026000196101006001861615020190931692909204918201849004840281018401909452808452909183018282801561107a5780601f1061104f5761010080835404028352916020019161107a565b820191906000526020600020905b81548152906001019060200180831161105d57829003601f168201915b505050505081565b8051602081830181018051601d8252928201919093012091525481565b6000601e86866040516110b392919061525e565b9081526040519081900360200190205460ff1660018111156110d157fe5b146110ee5760405162461bcd60e51b8152600401610a7e90615c43565b6021546040516331f5934360e11b81526001600160a01b038086169216906363eb26869061112290869086906004016157a2565b60206040518083038186803b15801561113a57600080fd5b505afa15801561114e573d6000803e3d6000fd5b505050506040513d601f19601f820116820180604052508101906111729190614e4d565b6001600160a01b0316146111985760405162461bcd60e51b8152600401610a7e90615911565b601854604051635a47d15760e11b815260009182916001600160a01b039091169063b48fa2ae906111d19033908890889060040161529e565b60206040518083038186803b1580156111e957600080fd5b505afa1580156111fd573d6000803e3d6000fd5b505050506040513d601f19601f82011682018060405250810190611221919061504f565b905080158015906112b0575060185460405163ceb0d74760e01b81526001600160a01b039091169063ceb0d74790611260908490600290600401615d1a565b60206040518083038186803b15801561127857600080fd5b505afa15801561128c573d6000803e3d6000fd5b505050506040513d601f19601f820116820180604052508101906112b09190614da6565b156112ba57600191505b816112d75760405162461bcd60e51b8152600401610a7e90615b7e565b84601f88886040516112ea92919061525e565b90815260405190819003602001812080546001600160a01b03939093166001600160a01b0319909316929092179091557fc82436870110d88ae48acbdbd49a266bab91ea504cac8d1fae116b327400916d906113519033908a908a908a908a908a906152c3565b60405180910390a150505050505050565b8051602081830181018051601f825292820191909301209152546001600160a01b031681565b611390613ac8565b6000546001600160a01b039081169116146113bd5760405162461bcd60e51b8152600401610a7e90615b49565b600f80546001600160a01b0319166001600160a01b0392909216919091179055565b6113e7613ac8565b6000546001600160a01b039081169116146114145760405162461bcd60e51b8152600401610a7e90615b49565b600e546040516315ddd19b60e11b81526001600160a01b0390911690632bbba3369061144a908790879087908790600401615490565b600060405180830381600087803b15801561146457600080fd5b505af1158015611478573d6000803e3d6000fd5b5050505050505050565b60008281526006602052604090205482906001600160a01b031633146114ba5760405162461bcd60e51b8152600401610a7e90615ca6565b60008181526006602052604080822080546001600160a01b0319169055518291600080516020615dfc83398151915291a26011546000848152601260205260409081902060018101549151632625cd2960e21b81526001600160a01b039384169363989734a493611534939288929091169060040161588e565b600060405180830381600087803b15801561154e57600080fd5b505af1158015611562573d6000803e3d6000fd5b5050506000848152601260205260408120915061157f8282614701565b5060010180546001600160a01b0319169055505050565b60126020908152600091825260409182902080548351601f6002600019610100600186161502019093169290920491820184900484028101840190945280845290929183919083018282801561162d5780601f106116025761010080835404028352916020019161162d565b820191906000526020600020905b81548152906001019060200180831161161057829003601f168201915b505050600190930154919250506001600160a01b031682565b61164e613ac8565b6000546001600160a01b0390811691161461167b5760405162461bcd60e51b8152600401610a7e90615b49565b600e546040516342aaf11b60e01b81526001600160a01b03909116906342aaf11b906116af9086908690869060040161529e565b600060405180830381600087803b1580156116c957600080fd5b505af11580156116dd573d6000803e3d6000fd5b50505050505050565b3360009081526017602090815260409182902080548351818402810184019094528084526060939283018282801561173d57602002820191906000526020600020905b815481526020019060010190808311611729575b505050505090505b90565b6040805180820182526005815264636c61696d60d81b6020820152600e549151637f7207c360e11b81526000928692916001600160a01b039091169063fee40f869061179890859060040161528a565b60206040518083038186803b1580156117b057600080fd5b505afa1580156117c4573d6000803e3d6000fd5b505050506040513d601f19601f820116820180604052508101906117e89190614da6565b6118045760405162461bcd60e51b8152600401610a7e9061599a565b600e54604051639dd1e44b60e01b81526001600160a01b0390911690639dd1e44b9061183690859085906004016154c4565b60206040518083038186803b15801561184e57600080fd5b505afa158015611862573d6000803e3d6000fd5b505050506040513d601f19601f820116820180604052508101906118869190614da6565b6118a25760405162461bcd60e51b8152600401610a7e90615c6f565b6000601e86866040516118b692919061525e565b9081526040519081900360200190205460ff1660018111156118d457fe5b146118f15760405162461bcd60e51b8152600401610a7e90615c43565b600e54604051632ed20a2960e21b815260009182916001600160a01b039091169063bb4828a490611926908b90600401615596565b604080518083038186803b15801561193d57600080fd5b505afa158015611951573d6000803e3d6000fd5b505050506040513d601f19601f820116820180604052508101906119759190614e2a565b91509150611981614745565b6119938330632aa6884560e11b613ad7565b604080518082018252600c81526b19da5d1a1d58955cd95c925960a21b6020820152601154915163c155f9bd60e01b8152929350611a479290916001600160a01b03169063c155f9bd906119eb90339060040161528a565b60006040518083038186803b158015611a0357600080fd5b505afa158015611a17573d6000803e3d6000fd5b505050506040513d6000823e601f3d908101601f19168201604052611a3f9190810190614fa4565b839190613afc565b611aaa604051806040016040528060078152602001661a5cdcdd59525960ca1b81525089898080601f016020809104026020016040519081016040528093929190818152602001838380828437600092019190915250869493925050613afc9050565b611ab5898284613b1a565b6040805160606020601f8c01819004028201810183529181018a81529298509182918b908b908190850183828082843760009201829052509385525050336020938401525088815281805260409020825180519192611b199284929091019061477a565b5060209190910151600190910180546001600160a01b0319166001600160a01b039092169190911790555093979650505050505050565b611b58613ac8565b6000546001600160a01b03908116911614611b855760405162461bcd60e51b8152600401610a7e90615b49565b600e546040516348297f5960e01b81526001600160a01b03909116906348297f5990610f4590889088908890889088906004016153cc565b6010805460408051602060026001851615610100026000190190941693909304601f8101849004840282018401909252818152929183018282801561107a5780601f1061104f5761010080835404028352916020019161107a565b600a805460408051602060026001851615610100026000190190941693909304601f8101849004840282018401909252818152929183018282801561107a5780601f1061104f5761010080835404028352916020019161107a565b6060601b8383604051611c8792919061525e565b9081526040805191829003602090810183208054808302850183019093528284529190830182828015611cd957602002820191906000526020600020905b815481526020019060010190808311611cc5575b5050505050905092915050565b604080518082018252601081526f74776974746572466f6c6c6f7765727360801b6020820152600e549151637f7207c360e11b81526000928592916001600160a01b039091169063fee40f8690611d4190859060040161528a565b60206040518083038186803b158015611d5957600080fd5b505afa158015611d6d573d6000803e3d6000fd5b505050506040513d601f19601f82011682018060405250810190611d919190614da6565b611dad5760405162461bcd60e51b8152600401610a7e9061599a565b600e54604051639dd1e44b60e01b81526001600160a01b0390911690639dd1e44b90611ddf90859085906004016154c4565b60206040518083038186803b158015611df757600080fd5b505afa158015611e0b573d6000803e3d6000fd5b505050506040513d601f19601f82011682018060405250810190611e2f9190614da6565b611e4b5760405162461bcd60e51b8152600401610a7e90615c6f565b600e54604051632ed20a2960e21b815260009182916001600160a01b039091169063bb4828a490611e80908a9060040161555a565b604080518083038186803b158015611e9757600080fd5b505afa158015611eab573d6000803e3d6000fd5b505050506040513d601f19601f82011682018060405250810190611ecf9190614e2a565b91509150611edb614745565b611eed8330631bd3246960e21b613ad7565b60408051808201825260098152681858d8dbdd5b9d125960ba1b602080830191909152600a8054845160026001831615610100026000190190921691909104601f8101849004840282018401909552848152949550611fb09492939091830182828015611f9b5780601f10611f7057610100808354040283529160200191611f9b565b820191906000526020600020905b815481529060010190602001808311611f7e57829003601f168201915b505050505083613afc9092919063ffffffff16565b611fbb888284613b1a565b6000818152600c602090815260409091208951929850611fdf9290918a019061477a565b50505050505092915050565b600f546001600160a01b0316331461200257600080fd5b806013848460405161201592919061525e565b90815260200160405180910390205410156120425760405162461bcd60e51b8152600401610a7e90615ae9565b806013848460405161205592919061525e565b9081526040519081900360200190208054919091039055505050565b60008181526006602052604090205481906001600160a01b031633146120a95760405162461bcd60e51b8152600401610a7e90615ca6565b60008181526006602052604080822080546001600160a01b0319169055518291600080516020615dfc83398151915291a260008281526020805260409020600101546001600160a01b03166120fd57600080fd5b6000828152602080526040808220600181015491516001600160a01b039092169291601d9161212b91615230565b9081526040805160209281900383018120546000888152938052918320919350601d9161215791615230565b90815260408051602092819003830181209390935560008781529180529020600191601e9161218591615230565b908152604051908190036020019020805460ff1916600183818111156121a757fe5b02179055506121f48282601f602060008981526020019081526020016000206000016040516121d69190615230565b908152604051908190036020019020546001600160a01b0316613c59565b60008481526020805260409081902090517fdc0861bad4be5f3f068f6252a7b985acb7fd378990006b92d20855b3d25340e391612234918590859061583e565b60405180910390a160008481526020805260408120906122548282614701565b5060010180546001600160a01b03191690556040516001600160a01b0383169082156108fc029083906000818181858888f1935050505015801561229c573d6000803e3d6000fd5b5050505050565b6007546001600160a01b038281169116145b919050565b604080518082018252600f81526e0636865636b2d6f776e65727368697608c1b6020820152600e549151637f7207c360e11b81526000928592916001600160a01b039091169063fee40f869061231490859060040161528a565b60206040518083038186803b15801561232c57600080fd5b505afa158015612340573d6000803e3d6000fd5b505050506040513d601f19601f820116820180604052508101906123649190614da6565b6123805760405162461bcd60e51b8152600401610a7e9061599a565b600e54604051639dd1e44b60e01b81526001600160a01b0390911690639dd1e44b906123b290859085906004016154c4565b60206040518083038186803b1580156123ca57600080fd5b505afa1580156123de573d6000803e3d6000fd5b505050506040513d601f19601f820116820180604052508101906124029190614da6565b61241e5760405162461bcd60e51b8152600401610a7e90615c6f565b600e54604051632ed20a2960e21b815260009182916001600160a01b039091169063bb4828a490612453908a906004016154e8565b604080518083038186803b15801561246a57600080fd5b505afa15801561247e573d6000803e3d6000fd5b505050506040513d601f19601f820116820180604052508101906124a29190614e2a565b915091506124ae614745565b6124bf83306283cf1160e01b613ad7565b90506124fe6040518060400160405280600c81526020016b19da5d1a1d58955cd95c925960a21b815250886020015183613afc9092919063ffffffff16565b6040805180820190915260098152681c995c1bd3dc99d25960ba1b6020820152608088015161252e918391613afc565b612539888284613b1a565b3360e089015260008181526022602090815260409091208951815460ff1916901515178155818a015180519399508a93919261257d9260018501929091019061477a565b506040820151805161259991600284019160209091019061477a565b50606082015180516125b591600384019160209091019061477a565b50608082015180516125d191600484019160209091019061477a565b5060a0820151600591909101805460c084015160e09094015161ffff1990911661ffff9384161763ffff0000191662010000939094169290920292909217640100000000600160c01b0319166401000000006001600160a01b039092169190910217905550939695505050505050565b612649613ac8565b6000546001600160a01b039081169116146126765760405162461bcd60e51b8152600401610a7e90615b49565b600e5460405163583d789b60e01b81526001600160a01b039091169063583d789b906116af9086908690869060040161529e565b6009546001600160a01b031681565b600b5481565b6020808052600091825260409182902080548351601f6002600019610100600186161502019093169290920491820184900484028101840190945280845290929183919083018282801561162d5780601f106116025761010080835404028352916020019161162d565b606060168383604051611c8792919061525e565b6000818152601560205260409020546001600160a01b031633146127735760405162461bcd60e51b8152600401610a7e906158c1565b61277d8133613ddd565b50565b601c6020528160005260406000208181548110610fa657fe5b60176020528160005260406000208181548110610fa657fe5b8051602081830181018051601e8252928201919093012091525460ff1681565b60008281526006602052604090205482906001600160a01b0316331461280a5760405162461bcd60e51b8152600401610a7e90615ca6565b60008181526006602052604080822080546001600160a01b0319169055518291600080516020615dfc83398151915291a2600b8290556000838152600c6020908152604080832080548251601f600260001961010060018616150201909316929092049182018590048502810185019093528083526128e39333939291908301828280156128d95780601f106128ae576101008083540402835291602001916128d9565b820191906000526020600020905b8154815290600101906020018083116128bc57829003601f168201915b5050505050613f4e565b6000858152600c60205260408082208383529120815492935061291b92909190600260001961010060018416150201909116046147f8565b506000848152600c6020526040812061293391614701565b50505050565b612941613ac8565b6000546001600160a01b0390811691161461296e5760405162461bcd60e51b8152600401610a7e90615b49565b600080546040516001600160a01b03909116907f8be0079c531659141344cd1fd0a4f28419497f9722a3daafe3b4186f6b6457e0908390a3600080546001600160a01b0319169055565b6007546001600160a01b031681565b600081116129e75760405162461bcd60e51b8152600401610a7e90615963565b600954604051632770a7eb60e21b81526001600160a01b0390911690639dc29fac90612a19903390859060040161530f565b600060405180830381600087803b158015612a3357600080fd5b505af1158015612a47573d6000803e3d6000fd5b5050505080600883604051612a5c919061526e565b908152604051908190036020019020805490910190555050565b6000818152601960205260409020546001600160a01b03163314612aac5760405162461bcd60e51b8152600401610a7e90615bdb565b6000818152601960205260408082209051601e91612acf91600290910190615230565b9081526040519081900360200190205460ff166001811115612aed57fe5b14612b0a5760405162461bcd60e51b8152600401610a7e90615c43565b60008181526019602052604090819020600181015491518291601d91612b339160020190615230565b90815260408051602092819003830181208054949094039093556000858152601990925290207fd0bcb4e3e011748e643741274f157a3c2810a6655d5df0ff9aa8a27880dae49591612b8e9133918591600201908790615394565b60405180910390a1600082815260196020526040812080546001600160a01b03191681556001810182905590612bc76002830182614701565b5050604051339082156108fc029083906000818181858888f19350505050158015612bf6573d6000803e3d6000fd5b505050565b600e546001600160a01b031681565b612c12613ac8565b6000546001600160a01b03908116911614612c3f5760405162461bcd60e51b8152600401610a7e90615b49565b8051612c5290600a90602084019061477a565b50506000600b55565b6000546001600160a01b031690565b612c74858561379d565b61229c858585858561109f565b6022602090815260009182526040918290208054600180830180548651600261010094831615949094026000190190911692909204601f810186900486028301860190965285825260ff909216949293909290830182828015612d255780601f10612cfa57610100808354040283529160200191612d25565b820191906000526020600020905b815481529060010190602001808311612d0857829003601f168201915b50505060028085018054604080516020601f6000196101006001871615020190941695909504928301859004850281018501909152818152959695945090925090830182828015612db75780601f10612d8c57610100808354040283529160200191612db7565b820191906000526020600020905b815481529060010190602001808311612d9a57829003601f168201915b5050505060038301805460408051602060026001851615610100026000190190941693909304601f8101849004840282018401909252818152949594935090830182828015612e475780601f10612e1c57610100808354040283529160200191612e47565b820191906000526020600020905b815481529060010190602001808311612e2a57829003601f168201915b5050505060048301805460408051602060026001851615610100026000190190941693909304601f8101849004840282018401909252818152949594935090830182828015612ed75780601f10612eac57610100808354040283529160200191612ed7565b820191906000526020600020905b815481529060010190602001808311612eba57829003601f168201915b5050506005909301549192505061ffff80821691620100008104909116906001600160a01b036401000000009091041688565b60003411612f2a5760405162461bcd60e51b8152600401610a7e90615cee565b60148054600101905560408051606081018252338152346020808301919091528251601f8501829004820281018201845284815291928301919085908590819084018382808284376000920182905250939094525050601454815260156020908152604091829020845181546001600160a01b0319166001600160a01b03909116178155848201516001820155918401518051929350612fd3926002850192919091019061477a565b5090505060168282604051612fe992919061525e565b9081526040805191829003602090810183206014805482546001818101855560009485528585209091019190915533835260178452938220905481549485018255908252919020909101553490601390613046908590859061525e565b90815260405190819003602001812080549092019091557f406551011d3a3874d102c2ee25adb004adb6d90a8134f04c14bd02f73ad4a3d090613090903390349086908690615328565b60405180910390a15050565b6021546001600160a01b031681565b6018546001600160a01b031681565b60008281526006602052604090205482906001600160a01b031633146130f25760405162461bcd60e51b8152600401610a7e90615ca6565b60008181526006602052604080822080546001600160a01b0319169055518291600080516020615dfc83398151915291a26000838152600c60205260409081902090517fb0f3422488ef72245a96f78912cb9067322935e6faa986e18f27de848dcaee459161316291859061586c565b60405180910390a1505050565b60115460405163c155f9bd60e01b81526001600160a01b039091169063c155f9bd9061319f90339060040161528a565b60006040518083038186803b1580156131b757600080fd5b505afa1580156131cb573d6000803e3d6000fd5b505050506040513d6000823e601f3d908101601f191682016040526131f39190810190614fa4565b805190602001206015600083815260200190815260200160002060020160405161321d9190615230565b6040518091039020146127735760405162461bcd60e51b8152600401610a7e90615aa2565b6011546001600160a01b031681565b805160208183018101805160088252928201919093012091525481565b60196020908152600091825260409182902080546001808301546002808501805488516101009582161595909502600019011691909104601f81018790048702840187019097528683526001600160a01b0390931695909491929183018282801561331a5780601f106132ef5761010080835404028352916020019161331a565b820191906000526020600020905b8154815290600101906020018083116132fd57829003601f168201915b5050505050905083565b60408051808201825260088152673932b3b4b9ba32b960c11b6020820152600e549151637f7207c360e11b81526000928692916001600160a01b039091169063fee40f869061337790859060040161528a565b60206040518083038186803b15801561338f57600080fd5b505afa1580156133a3573d6000803e3d6000fd5b505050506040513d601f19601f820116820180604052508101906133c79190614da6565b6133e35760405162461bcd60e51b8152600401610a7e9061599a565b600e54604051639dd1e44b60e01b81526001600160a01b0390911690639dd1e44b9061341590859085906004016154c4565b60206040518083038186803b15801561342d57600080fd5b505afa158015613441573d6000803e3d6000fd5b505050506040513d601f19601f820116820180604052508101906134659190614da6565b6134815760405162461bcd60e51b8152600401610a7e90615c6f565b600e54604051632ed20a2960e21b815260009182916001600160a01b039091169063bb4828a4906134b6908b906004016155c7565b604080518083038186803b1580156134cd57600080fd5b505afa1580156134e1573d6000803e3d6000fd5b505050506040513d601f19601f820116820180604052508101906135059190614e2a565b91509150613511614745565b6135238330631082b3cf60e21b613ad7565b905061358d6040518060400160405280600c81526020016b19da5d1a1d58955cd95c925960a21b81525089898080601f016020809104026020016040519081016040528093929190818152602001838380828437600092019190915250869493925050613afc9050565b6135c36040518060400160405280600a8152602001696574684164647265737360b01b815250611a3f6135be613ac8565b6141de565b6135ce898284613b1a565b6040805160606020601f8c01819004028201810183529181018a81529298509182918b908b9081908501838280828437600092019190915250505090825250602001613618613ac8565b6001600160a01b031690526000878152601260209081526040909120825180519192611b199284929091019061477a565b60156020908152600091825260409182902080546001808301546002808501805488516101009582161595909502600019011691909104601f81018790048702840187019097528683526001600160a01b0390931695909491929183018282801561331a5780601f106132ef5761010080835404028352916020019161331a565b805160208183018101805160138252928201919093012091525481565b6136ef613ac8565b6000546001600160a01b0390811691161461371c5760405162461bcd60e51b8152600401610a7e90615b49565b6001600160a01b0381166137425760405162461bcd60e51b8152600401610a7e906159ca565b600080546040516001600160a01b03808516939216917f8be0079c531659141344cd1fd0a4f28419497f9722a3daafe3b4186f6b6457e091a3600080546001600160a01b0319166001600160a01b0392909216919091179055565b600034116137bd5760405162461bcd60e51b8152600401610a7e90615cee565b6000601e83836040516137d192919061525e565b9081526040519081900360200190205460ff1660018111156137ef57fe5b1461380c5760405162461bcd60e51b8152600401610a7e90615c43565b601a8054600101905560408051606081018252338152346020808301919091528251601f8501829004820281018201845284815291928301919085908590819084018382808284376000920182905250939094525050601a54815260196020908152604091829020845181546001600160a01b0319166001600160a01b039091161781558482015160018201559184015180519293506138b5926002850192919091019061477a565b50905050601b82826040516138cb92919061525e565b908152604080519182900360209081018320601a8054825460018181018555600094855285852090910191909155338352601c8452938220905481549485018255908252919020909101553490601d90613928908590859061525e565b9081526040519081900360200181208054909201909155601a547f1c0306f1b3e6623ac3e5a5b1b36db068ce661a4afdd25b0fa922519d7ea9cf5a916130909133913491879187919061535a565b601a5481565b81516020818401810180516016825292820191850191909120919052805482908110610fa657fe5b336000908152601c602090815260409182902080548351818402810184019094528084526060939283018282801561173d5760200282019190600052602060002090815481526020019060010190808311611729575050505050905090565b613a0b613ac8565b6000546001600160a01b03908116911614613a385760405162461bcd60e51b8152600401610a7e90615b49565b600e54604051633f7217f160e21b81526001600160a01b039091169063fdc85fc490613a6890849060040161528a565b600060405180830381600087803b158015613a8257600080fd5b505af115801561229c573d6000803e3d6000fd5b600060183610801590613aad5750613aad336122a3565b15613ac1575060131936013560601c611745565b5033611745565b6000613ad2613a96565b905090565b613adf614745565b613ae7614745565b613af3818686866142c1565b95945050505050565b6080830151613b0b90836142fe565b6080830151612bf690826142fe565b600030600554604051602001613b3192919061523c565b60408051808303601f19018152918152815160209283012060055460608701526000818152600690935281832080546001600160a01b0319166001600160a01b038916179055905190925082917fb5e6e01e79f91267dc17b4e6314d5d4d03593d2ceee0fbb452b750bd70ea5af991a26003546001600160a01b0316634000aea08584613bbd87614315565b6040518463ffffffff1660e01b8152600401613bdb93929190615686565b602060405180830381600087803b158015613bf557600080fd5b505af1158015613c09573d6000803e3d6000fd5b505050506040513d601f19601f82011682018060405250810190613c2d9190614da6565b613c495760405162461bcd60e51b8152600401610a7e90615a10565b6005805460010190559392505050565b600d5460408051633fabe5a360e21b815290516000926001600160a01b03169163feaf968c9160048083019260a0929190829003018186803b158015613c9e57600080fd5b505afa158015613cb2573d6000803e3d6000fd5b505050506040513d601f19601f82011682018060405250810190613cd69190615067565b5050509150506000600d60009054906101000a90046001600160a01b03166001600160a01b031663313ce5676040518163ffffffff1660e01b815260040160206040518083038186803b158015613d2c57600080fd5b505afa158015613d40573d6000803e3d6000fd5b505050506040513d601f19601f82011682018060405250810190613d6491906150b8565b60ff1682850281613d7157fe5b0490507fb8c37540534e3c73833fa45c239553e91d75af88ce658ebc50e097fc33a91de2858285604051613da7939291906155fb565b60405180910390a16040516340c10f1960e01b81526001600160a01b038416906340c10f1990610f45908890859060040161530f565b613de561486d565b600083815260156020908152604091829020825160608101845281546001600160a01b03168152600180830154828501526002808401805487516101009482161594909402600019011691909104601f81018690048602830186018752808352929593949386019391929091830182828015613ea25780601f10613e7757610100808354040283529160200191613ea2565b820191906000526020600020905b815481529060010190602001808311613e8557829003601f168201915b5050505050815250509050816001600160a01b03166108fc82602001519081150290604051600060405180830381858888f19350505050158015613eea573d6000803e3d6000fd5b50806020015160138260400151604051613f04919061526e565b90815260408051602092819003830190208054939093039092556000858152601590915290812080546001600160a01b0319168155600181018290559061229c6002830182614701565b604080518082018252600b81526a1d1dda5d1d195c941bdcdd60aa1b6020820152600e549151637f7207c360e11b81526000928592916001600160a01b039091169063fee40f8690613fa490859060040161528a565b60206040518083038186803b158015613fbc57600080fd5b505afa158015613fd0573d6000803e3d6000fd5b505050506040513d601f19601f82011682018060405250810190613ff49190614da6565b6140105760405162461bcd60e51b8152600401610a7e9061599a565b600e54604051639dd1e44b60e01b81526001600160a01b0390911690639dd1e44b9061404290859085906004016154c4565b60206040518083038186803b15801561405a57600080fd5b505afa15801561406e573d6000803e3d6000fd5b505050506040513d601f19601f820116820180604052508101906140929190614da6565b6140ae5760405162461bcd60e51b8152600401610a7e90615c6f565b600e54604051632ed20a2960e21b815260009182916001600160a01b039091169063bb4828a4906140e3908a90600401615523565b604080518083038186803b1580156140fa57600080fd5b505afa15801561410e573d6000803e3d6000fd5b505050506040513d601f19601f820116820180604052508101906141329190614e2a565b9150915061413e614745565b6141508330632fa8e42f60e21b613ad7565b6040805180820190915260078152661a5cdcdd59525960ca1b602082015290915061417d90829089613afc565b6141c760405180604001604052806006815260200165185b5bdd5b9d60d21b815250601d896040516141af919061526e565b90815260405190819003602001902054839190614391565b6141d2888284613b1a565b98975050505050505050565b60606001600160a01b0382168061420e5750506040805180820190915260018152600360fc1b60208201526122b5565b8060005b811561422657600101600a82049150614212565b6060816001600160401b038111801561423e57600080fd5b506040519080825280601f01601f191660200182016040528015614269576020820181803683370190505b50905060001982015b84156142b757600a850660300160f81b8282806001900393508151811061429557fe5b60200101906001600160f81b031916908160001a905350600a85049450614272565b5095945050505050565b6142c9614745565b6142d985608001516101006143af565b50509183526001600160a01b031660208301526001600160e01b031916604082015290565b61430b82600383516143e9565b612bf682826144bc565b6060634042994660e01b6000808460000151856020015186604001518760600151600189608001516000015160405160240161435898979695949392919061561e565b60408051601f198184030181529190526020810180516001600160e01b03166001600160e01b0319909316929092179091529050919050565b60808301516143a090836142fe565b6080830151612bf690826144dd565b6143b7614897565b60208206156143cc5760208206602003820191505b506020828101829052604080518085526000815290920101905290565b6017811161440a576144048360e0600585901b1683176144ed565b50612bf6565b60ff811161443457614427836018611fe0600586901b16176144ed565b5061440483826001614505565b61ffff811161445f57614452836019611fe0600586901b16176144ed565b5061440483826002614505565b63ffffffff811161448c5761447f83601a611fe0600586901b16176144ed565b5061440483826004614505565b6001600160401b038111612bf6576144af83601b611fe0600586901b16176144ed565b5061293383826008614505565b6144c4614897565b6144d683846000015151848551614526565b9392505050565b6144e9826000836143e9565b5050565b6144f5614897565b6144d683846000015151846145d2565b61450d614897565b61451e84856000015151858561461d565b949350505050565b61452e614897565b825182111561453c57600080fd5b84602001518285011115614566576145668561455e876020015187860161467b565b600202614692565b6000808651805187602083010193508088870111156145855787860182525b505050602084015b602084106145ac5780518252601f19909301926020918201910161458d565b51815160001960208690036101000a019081169019919091161790525083949350505050565b6145da614897565b836020015183106145f6576145f6848560200151600202614692565b835180516020858301018481535080851415614613576001810182525b5093949350505050565b614625614897565b846020015184830111156146425761464285858401600202614692565b60006001836101000a0390508551838682010185831982511617815250805184870111156146705783860181525b509495945050505050565b60008183111561468c575081610fe1565b50919050565b815161469e83836143af565b5061293383826144bc565b60405180610100016040528060001515815260200160608152602001606081526020016060815260200160608152602001600061ffff168152602001600061ffff16815260200160006001600160a01b031681525090565b50805460018160011615610100020316600290046000825580601f10614727575061277d565b601f01602090049060005260206000209081019061277d91906148b1565b6040805160a081018252600080825260208201819052918101829052606081019190915260808101614775614897565b905290565b828054600181600116156101000203166002900490600052602060002090601f016020900481019282601f106147bb57805160ff19168380011785556147e8565b828001600101855582156147e8579182015b828111156147e85782518255916020019190600101906147cd565b506147f49291506148b1565b5090565b828054600181600116156101000203166002900490600052602060002090601f016020900481019282601f1061483157805485556147e8565b828001600101855582156147e857600052602060002091601f016020900482015b828111156147e8578254825591600101919060010190614852565b604051806060016040528060006001600160a01b0316815260200160008152602001606081525090565b604051806040016040528060608152602001600081525090565b5b808211156147f457600081556001016148b2565b8035610fe181615dd8565b600082601f8301126148e1578081fd5b81356148f46148ef82615d5e565b615d38565b818152915060208083019084810160408085028701830188101561491757600080fd5b60005b85811015611fdf5761492c89846149dd565b8552938301939181019160010161491a565b8035610fe181615ded565b60008083601f84011261495a578182fd5b5081356001600160401b03811115614970578182fd5b60208301915083602082850101111561498857600080fd5b9250929050565b600082601f83011261499f578081fd5b81356149ad6148ef82615d7d565b91508082528360208285010111156149c457600080fd5b8060208401602084013760009082016020015292915050565b6000604082840312156149ee578081fd5b6149f86040615d38565b9050813581526020820135602082015292915050565b803561ffff81168114610fe157600080fd5b805169ffffffffffffffffffff81168114610fe157600080fd5b600060208284031215614a4b578081fd5b81356144d681615dd8565b600080600060408486031215614a6a578182fd5b8335614a7581615dd8565b925060208401356001600160401b03811115614a8f578283fd5b614a9b86828701614949565b9497909650939450505050565b600080600080600060808688031215614abf578081fd5b8535614aca81615dd8565b94506020868101356001600160401b0380821115614ae6578384fd5b614af28a838b01614949565b90975095506040890135915080821115614b0a578384fd5b818901915089601f830112614b1d578384fd5b8135614b2b6148ef82615d5e565b81815284810190848601875b84811015614b6057614b4e8f8984358a010161498f565b84529287019290870190600101614b37565b509097505050506060890135925080831115614b7a578384fd5b5050614b88888289016148d1565b9150509295509295909350565b60008060008060808587031215614baa578384fd5b8435614bb581615dd8565b935060208501356001600160401b03811115614bcf578384fd5b614bdb87828801614949565b9094509250614bef905086604087016149dd565b905092959194509250565b60008060408385031215614c0c578182fd5b8235614c1781615dd8565b915060208301356001600160401b03811115614c31578182fd5b614c3d8582860161498f565b9150509250929050565b60008060408385031215614c59578182fd5b8235614c6481615dd8565b915060208301356001600160401b0380821115614c7f578283fd5b8185019150610100808388031215614c95578384fd5b614c9e81615d38565b9050614caa878461493e565b8152602083013582811115614cbd578485fd5b614cc98882860161498f565b602083015250604083013582811115614ce0578485fd5b614cec8882860161498f565b604083015250606083013582811115614d03578485fd5b614d0f8882860161498f565b606083015250608083013582811115614d26578485fd5b614d328882860161498f565b608083015250614d458760a08501614a0e565b60a0820152614d578760c08501614a0e565b60c0820152614d698760e085016148c6565b60e08201528093505050509250929050565b60008060408385031215614d8d578182fd5b8235614d9881615dd8565b946020939093013593505050565b600060208284031215614db7578081fd5b81516144d681615ded565b600060208284031215614dd3578081fd5b5035919050565b60008060408385031215614dec578182fd5b823591506020830135614dfe81615ded565b809150509250929050565b60008060408385031215614e1b578182fd5b50508035926020909101359150565b60008060408385031215614e3c578182fd5b505080516020909101519092909150565b600060208284031215614e5e578081fd5b81516144d681615dd8565b60008060208385031215614e7b578182fd5b82356001600160401b03811115614e90578283fd5b614e9c85828601614949565b90969095509350505050565b600080600080600060608688031215614ebf578283fd5b85356001600160401b0380821115614ed5578485fd5b614ee189838a01614949565b909750955060208801359150614ef682615dd8565b90935060408701359080821115614f0b578283fd5b50614f1888828901614949565b969995985093965092949392505050565b600080600060408486031215614f3d578081fd5b83356001600160401b03811115614f52578182fd5b614f5e86828701614949565b909790965060209590950135949350505050565b600060208284031215614f83578081fd5b81356001600160401b03811115614f98578182fd5b61451e8482850161498f565b600060208284031215614fb5578081fd5b81516001600160401b03811115614fca578182fd5b8201601f81018413614fda578182fd5b8051614fe86148ef82615d7d565b818152856020838501011115614ffc578384fd5b613af3826020830160208601615dac565b6000806040838503121561501f578182fd5b82356001600160401b03811115615034578283fd5b6150408582860161498f565b95602094909401359450505050565b600060208284031215615060578081fd5b5051919050565b600080600080600060a0868803121561507e578283fd5b6150888787614a20565b94506020860151935060408601519250606086015191506150ac8760808801614a20565b90509295509295909350565b6000602082840312156150c9578081fd5b815160ff811681146144d6578182fd5b600081518084526150f1816020860160208601615dac565b601f01601f19169290920160200192915050565b60008154600180821660008114615123576001811461513a5761516c565b60ff198316865260028304607f168601935061516c565b600283048560005260208060002060005b838110156151645781548a82015290850190820161514b565b505050860193505b50505092915050565b60008284528282602086013780602084860101526020601f19601f85011685010190509392505050565b600081546001808216600081146151bd57600181146151db5761516c565b60028304607f16865260ff198316602087015260408601935061516c565b600283048087526151eb86615da0565b60005b8281101561520f5781546020828b01015284820191506020810190506151ee565b88016020019550505050505092915050565b80518252602090810151910152565b60006144d68284615105565b60609290921b6bffffffffffffffffffffffff19168252601482015260340190565b6000828483379101908152919050565b60008251615280818460208701615dac565b9190910192915050565b6001600160a01b0391909116815260200190565b6001600160a01b0384168152604060208201819052600090613af39083018486615175565b600060018060a01b038089168352608060208401526152e660808401888a615175565b81871660408501528381036060850152615301818688615175565b9a9950505050505050505050565b6001600160a01b03929092168252602082015260400190565b600060018060a01b038616825284602083015260606040830152615350606083018486615175565b9695505050505050565b600060018060a01b038716825285602083015260806040830152615382608083018587615175565b90508260608301529695505050505050565b600060018060a01b0386168252846020830152608060408301526153bb608083018561519f565b905082606083015295945050505050565b6001600160a01b0386168152608060208083018290526000916153f29084018789615175565b604084820381860152818751808452848401915084858202850101858a01875b8381101561544057601f1987840301855261542e8383516150d9565b94880194925090870190600101615412565b5050878103606089015288518082529086019450915050838701855b8281101561547f5761546f858351615221565b938301939085019060010161545c565b50929b9a5050505050505050505050565b6001600160a01b03851681526080602082018190526000906154b59083018587615175565b9050613af36040830184615221565b6001600160a01b038316815260406020820181905260009061451e908301846150d9565b6001600160a01b03919091168152604060208201819052600f908201526e0636865636b2d6f776e65727368697608c1b606082015260800190565b6001600160a01b03919091168152604060208201819052600b908201526a1d1dda5d1d195c941bdcdd60aa1b606082015260800190565b6001600160a01b039190911681526040602082018190526010908201526f74776974746572466f6c6c6f7765727360801b606082015260800190565b6001600160a01b0391909116815260406020820181905260059082015264636c61696d60d81b606082015260800190565b6001600160a01b03919091168152604060208201819052600890820152673932b3b4b9ba32b960c11b606082015260800190565b6001600160a01b0393841681526020810192909252909116604082015260600190565b6001600160a01b0389811682526020820189905260408201889052861660608201526001600160e01b03198516608082015260a0810184905260c0810183905261010060e08201819052600090615677838201856150d9565b9b9a5050505050505050505050565b600060018060a01b038516825283602083015260606040830152613af360608301846150d9565b6020808252825182820181905260009190848201906040850190845b818110156156e5578351835292840192918401916001016156c9565b50909695505050505050565b901515815260200190565b60006101008a151583528060208401526157188184018b6150d9565b9050828103604084015261572c818a6150d9565b9050828103606084015261574081896150d9565b9050828103608084015261575481886150d9565b61ffff96871660a08501529490951660c0830152506001600160a01b039190911660e0909101529695505050505050565b90815260200190565b602081016002831061579c57fe5b91905290565b60006020825261451e602083018486615175565b6000602082526144d660208301846150d9565b6000604082526157dc60408301856150d9565b905060018060a01b03831660208301529392505050565b600060a0825261580660a08301886150d9565b61ffff878116602085015286166040840152828103606084015261582a81866150d9565b905082810360808401526141d281856150d9565b600060608252615851606083018661519f565b6001600160a01b039490941660208301525060400152919050565b60006040825261587f604083018561519f565b90508260208301529392505050565b6000606082526158a1606083018661519f565b6020830194909452506001600160a01b0391909116604090910152919050565b60208082526030908201527f4465706f73697420646964206e6f742063616d652066726f6d2074686973204560408201526f3a3432b932bab69030b2323932b9b99760811b606082015260800190565b60208082526032908201527f5f70726f6a6563744964206973206e6f74206173736f6369617465642077697460408201527168205f676f76546f6b656e4164647265737360701b606082015260800190565b6020808252601c908201527f416d6f756e74206d7573742062652067726561746572207a65726f2e00000000604082015260600190565b60208082526016908201527527b930b1b632903237b2b9903737ba1032bc34b9ba1760511b604082015260600190565b60208082526026908201527f4f776e61626c653a206e6577206f776e657220697320746865207a65726f206160408201526564647265737360d01b606082015260800190565b60208082526023908201527f756e61626c6520746f207472616e73666572416e6443616c6c20746f206f7261604082015262636c6560e81b606082015260800190565b6020808252602f908201527f55736572206973206e6f74206f776e6572206f66206f7267616e697a6174696f60408201526e6e206f72207265706f7369746f727960881b606082015260800190565b60208082526027908201527f4465706f736974206973206e6f7420666f72207468697320476974487562206160408201526631b1b7bab73a1760c91b606082015260800190565b6020808252601e908201527f4e6f7420656e6f7567682066756e647320746f20706179206761734665650000604082015260600190565b6020808252600f908201526e139bc81cdd58da081c995c5d595cdd608a1b604082015260600190565b6020808252818101527f4f776e61626c653a2063616c6c6572206973206e6f7420746865206f776e6572604082015260600190565b6020808252603d908201527f596f7520646f6e27742068617665207065726d697373696f6e20746f2073657460408201527f20676f7665726e616e636520746f6b656e7320666f7220697373756573000000606082015260800190565b60208082526042908201527f4465706f73697420646964206e6f7420636f6d652066726f6d2074686973204560408201527f7468657265756d2061646472657373206f7220646f6573206e6f7420657869736060820152613a1760f11b608082015260a00190565b60208082526012908201527124b9b9bab29034b9903737ba1027a822a71760711b604082015260600190565b6020808252601a908201527f4f7261636c65206a6f6220646f6573206e6f742065786973742e000000000000604082015260600190565b60208082526028908201527f536f75726365206d75737420626520746865206f7261636c65206f6620746865604082015267081c995c5d595cdd60c21b606082015260800190565b6020808252601290820152712cb7ba9036bab9ba1039b2b7321022aa241760711b604082015260600190565b8281526040810160048310615d2b57fe5b8260208301529392505050565b6040518181016001600160401b0381118282101715615d5657600080fd5b604052919050565b60006001600160401b03821115615d73578081fd5b5060209081020190565b60006001600160401b03821115615d92578081fd5b50601f01601f191660200190565b60009081526020902090565b60005b83811015615dc7578181015183820152602001615daf565b838111156129335750506000910152565b6001600160a01b038116811461277d57600080fd5b801515811461277d57600080fdfe7cc135e0cebb02c3480ae5d74d377283180a2601f8f644edf7987b009316c63aa2646970667358221220805305d455e2b9adad66c166ff636a1319aaf3922135dc892da079be40a10e2764736f6c634300060c0033",
  "immutableReferences": {},
  "source": "// SPDX-License-Identifier: MIT\npragma solidity ^0.6.0;\npragma experimental ABIEncoderV2;\n\nimport '@openzeppelin/contracts/token/ERC20/ERC20.sol';\nimport '@openzeppelin/contracts/access/Ownable.sol';\nimport '@chainlink/contracts/src/v0.6/ChainlinkClient.sol';\nimport \"@chainlink/contracts/src/v0.6/interfaces/AggregatorV3Interface.sol\";\nimport '@opengsn/gsn/contracts/BaseRelayRecipient.sol';\nimport '@opengsn/gsn/contracts/BasePaymaster.sol';\nimport './OctobayVisibilityToken.sol';\nimport './UserAddressStorage.sol';\nimport './OracleStorage.sol';\nimport './OctobayGovernor.sol';\nimport './OctobayGovNFT.sol';\n\ncontract Octobay is Ownable, ChainlinkClient, BaseRelayRecipient {\n\n    // TODO: Add more events related to user withdrawls\n    event TwitterPostEvent(string issueId, bytes32 tweetId);\n\n    mapping(string => uint256) public issuePins;\n\n    OctobayVisibilityToken public ovt;\n\n    string public twitterAccountId;\n    uint256 public twitterFollowers;\n    mapping(bytes32 => string) public pendingTwitterPostsIssueIds;\n    AggregatorV3Interface internal ethUSDPriceFeed;\n\n    constructor(\n        address _link,\n        address _forwarder,\n        address _ovt,\n        address _userAddressStorage,\n        address _oracleStorage,\n        address _octobayGovernor,\n        address _ethUSDPriceFeed,\n        address _octobayGovNFT\n    ) public {\n        setChainlinkToken(_link);\n        trustedForwarder = _forwarder; // GSN trusted forwarder\n        userAddressStorage = UserAddressStorage(_userAddressStorage);\n        oracleStorage = OracleStorage(_oracleStorage);\n        ovt = OctobayVisibilityToken(_ovt);\n        octobayGovernor = OctobayGovernor(_octobayGovernor);\n        ethUSDPriceFeed = AggregatorV3Interface(_ethUSDPriceFeed);\n        octobayGovNFT = OctobayGovNFT(_octobayGovNFT);\n    }\n\n    function setTwitterAccountId(string memory _accountId) external onlyOwner {\n        twitterAccountId = _accountId;\n        twitterFollowers = 0;\n    }\n\n    function pinIssue(string memory _issueId, uint256 _amount) public {\n        require(_amount > 0, 'Amount must be greater zero.');\n        ovt.burn(msg.sender, _amount);\n        issuePins[_issueId] += _amount;\n    }\n\n\n\n\n\n    // ------------ Oracles ------------ //\n\n\n    OracleStorage public oracleStorage;\n\n    modifier oracleHandlesJob(address _oracle, string memory _jobName) {\n        require(oracleStorage.oracleExists(_oracle), \"Oracle does not exist.\");\n        require(oracleStorage.oracleJobExists(_oracle, _jobName), \"Oracle job does not exist.\");\n        _;\n    }\n\n    function addOracle(\n        address _oracle,\n        string calldata _name,\n        string[] memory _jobNames,\n        OracleStorage.Job[] memory _jobs\n    ) external onlyOwner {\n        oracleStorage.addOracle(_oracle, _name, _jobNames, _jobs);\n    }\n\n    function removeOracle(address _oracle) external onlyOwner {\n        oracleStorage.removeOracle(_oracle);\n    }\n\n    function changeOracleName(address _oracle, string calldata _name) external onlyOwner {\n        oracleStorage.changeOracleName(_oracle, _name);\n    }\n\n    function addOracleJob(\n        address _oracle,\n        string calldata _jobName,\n        OracleStorage.Job memory _job\n    ) external onlyOwner {\n        oracleStorage.addOracleJob(_oracle, _jobName, _job);\n    }\n\n    function removeOracleJob(address _oracle, string calldata _jobName) external onlyOwner {\n        oracleStorage.removeOracleJob(_oracle, _jobName);\n    }\n    \n\n\n\n\n    // ------------ GSN ------------ //\n\n\n    address octobayPaymaster;\n\n    function setPaymaster(address _octobayPaymaster) external onlyOwner {\n        octobayPaymaster = _octobayPaymaster;\n    }\n\n    function _msgSender() internal override(Context, BaseRelayRecipient)\n    view returns (address payable) {\n        return BaseRelayRecipient._msgSender();\n    }\n\n    function _msgData() internal override(Context, BaseRelayRecipient)\n    view returns (bytes memory ret) {\n        return BaseRelayRecipient._msgData();\n    }\n\n    string public override versionRecipient = '2.0.0'; // GSN version\n\n    function deductGasFee(string calldata _githubUserId, uint256 _amount)\n        external\n    {\n        // only paymaster, cause paymaster pays for gas fee on behalf of user\n        require(msg.sender == octobayPaymaster);\n        require(userClaimAmountByGithbUserId[_githubUserId] >= _amount, 'Not enough funds to pay gasFee');\n\n        userClaimAmountByGithbUserId[_githubUserId] -= _amount;\n    }\n\n\n\n\n\n    // ------------ REGISTRATION ------------ //\n\n\n    UserAddressStorage public userAddressStorage;\n\n    struct UserAddressRegistration {\n        string githubUserId;\n        address ethAddress;\n    }\n\n    mapping(bytes32 => UserAddressRegistration) public userAddressRegistrations;\n\n    function registerUserAddress(\n        address _oracle,\n        string calldata _githubUserId\n    ) public oracleHandlesJob(_oracle, 'register') returns(bytes32 requestId) {\n        (bytes32 jobId, uint256 jobFee) = oracleStorage.getOracleJob(_oracle, 'register');\n        Chainlink.Request memory request =\n            buildChainlinkRequest(\n                jobId,\n                address(this),\n                this.confirmRegisterUserAddress.selector\n            );\n        request.add('githubUserId', _githubUserId);\n        request.add('ethAddress', addressToIntString(_msgSender()));\n        requestId = sendChainlinkRequestTo(_oracle, request, jobFee);\n\n        userAddressRegistrations[requestId] = UserAddressRegistration(_githubUserId, _msgSender());\n    }\n\n    function confirmRegisterUserAddress(bytes32 _requestId, bytes32 _addressName)\n        public\n        recordChainlinkFulfillment(_requestId)\n    {\n        userAddressStorage.addUserAddress(\n            userAddressRegistrations[_requestId].githubUserId,\n            _addressName,\n            userAddressRegistrations[_requestId].ethAddress\n        );\n\n        delete userAddressRegistrations[_requestId];\n    }\n\n\n\n\n\n    // ------------ TWITTER ------------ //\n\n\n    function twitterPost(\n        address _oracle,\n        string memory _issueId\n    ) internal oracleHandlesJob(_oracle, 'twitterPost') returns(bytes32 requestId) {\n        (bytes32 jobId, uint256 jobFee) = oracleStorage.getOracleJob(_oracle, 'twitterPost');\n        Chainlink.Request memory request =\n            buildChainlinkRequest(\n                jobId,\n                address(this),\n                this.twitterPostConfirm.selector\n            );\n        request.add('issueId', _issueId);\n        request.addUint('amount', issueDepositsAmountByIssueId[_issueId]);\n        requestId = sendChainlinkRequestTo(_oracle, request, jobFee);\n    }\n\n    function twitterPostConfirm(bytes32 _requestId, bytes32 _tweetId)\n        public\n        recordChainlinkFulfillment(_requestId)\n    {\n        emit TwitterPostEvent(pendingTwitterPostsIssueIds[_requestId], _tweetId);\n    }\n\n    function updateTwitterFollowersAndPost(\n        address _oracle,\n        string memory _issueId\n    ) public oracleHandlesJob(_oracle, 'twitterFollowers') returns(bytes32 requestId) {\n        (bytes32 jobId, uint256 jobFee) = oracleStorage.getOracleJob(_oracle, 'twitterFollowers');\n        Chainlink.Request memory request =\n            buildChainlinkRequest(\n                jobId,\n                address(this),\n                this.updateTwitterFollowersConfirm.selector\n            );\n        request.add('accountId', twitterAccountId);\n        requestId = sendChainlinkRequestTo(_oracle, request, jobFee);\n        pendingTwitterPostsIssueIds[requestId] = _issueId;\n    }\n\n    function updateTwitterFollowersConfirm(bytes32 _requestId, uint256 _followers)\n        public\n        recordChainlinkFulfillment(_requestId)\n    {\n        twitterFollowers = _followers;\n        bytes32 postRequestId = twitterPost(msg.sender, pendingTwitterPostsIssueIds[_requestId]);\n        pendingTwitterPostsIssueIds[postRequestId] = pendingTwitterPostsIssueIds[_requestId];\n        delete pendingTwitterPostsIssueIds[_requestId];\n    }\n\n\n\n\n\n    // ------------ USER DEPOSITS ------------ //\n\n\n    event UserDepositEvent(address from, uint256 amount, string githubUser);\n\n    mapping(string => uint256) public userClaimAmountByGithbUserId;\n\n    struct UserDeposit {\n        address from;\n        uint256 amount;\n        string githubUserId;\n    }\n\n    uint256 private nextUserDepositId = 0;\n\n    mapping(uint256 => UserDeposit) public userDeposits;\n\n    mapping(string => uint256[]) public userDepositIdsByGithubUserId;\n\n    mapping(address => uint256[]) public userDepositIdsBySender;\n\n    function depositEthForGithubUser(string calldata _githubUserId)\n        external\n        payable\n    {\n        require(msg.value > 0, 'You must send ETH.');\n\n        nextUserDepositId++;\n        userDeposits[nextUserDepositId] = UserDeposit(\n            msg.sender,\n            msg.value,\n            _githubUserId\n        );\n        userDepositIdsByGithubUserId[_githubUserId].push(nextUserDepositId);\n        userDepositIdsBySender[msg.sender].push(nextUserDepositId);\n\n        // increment claim amount\n        userClaimAmountByGithbUserId[_githubUserId] += msg.value;\n\n        emit UserDepositEvent(msg.sender, msg.value, _githubUserId);\n    }\n\n    function _sendDeposit(uint256 _depositId, address _to) internal {\n        UserDeposit memory deposit = userDeposits[_depositId];\n        payable(_to).transfer(deposit.amount);\n\n        // reduce claim amount\n        userClaimAmountByGithbUserId[deposit.githubUserId] -= deposit.amount;\n\n        delete userDeposits[_depositId];\n    }\n\n    function refundUserDeposit(uint256 _depositId) external {\n        require(\n            userDeposits[_depositId].from == msg.sender,\n            'Deposit did not came from this Ethereum address.'\n        );\n        _sendDeposit(_depositId, msg.sender);   // msg.sender is depositor\n    }\n\n    function withdrawUserDeposit(uint256 _depositId) external {\n        require(\n            keccak256(bytes(userDeposits[_depositId].githubUserId)) ==\n                keccak256(\n                    bytes(userAddressStorage.userIdsByAddress(msg.sender))\n                ),\n            'Deposit is not for this GitHub account.'\n        );\n        _sendDeposit(_depositId, msg.sender);   // msg.sender is user\n    }\n\n\n\n\n\n    // ------------ ISSUE DEPOSITS ------------ //\n\n    OctobayGovNFT public octobayGovNFT;\n\n    event IssueDepositEvent(address from, uint256 amount, string issueId, uint256 depositId);\n    event RefundIssueDepositEvent(address to, uint256 amount, string issueId, uint256 depositId);\n    event SetGovTokenForIssueEvent(address from, string  issueId, address govTokenAddress, string projectId);\n\n    enum IssueStatus {\n        // NOT_VALID, // There's no sense of 'opening' an issue atm, this would be used if so\n        OPEN,\n        CLAIMED\n    }\n\n    struct IssueDeposit {\n        address from;\n        uint256 amount;\n        string issueId;\n    }\n    mapping(uint256 => IssueDeposit) public issueDeposits;\n    uint256 public nextIssueDepositId = 0;\n    mapping(string => uint256[]) public issueDepositIdsByIssueId; // Consider removing this? Can be derived from issueDeposits. Unless we need it for deletion.\n    mapping(address => uint256[]) public issueDepositIdsBySender;\n    mapping(string => uint256) public issueDepositsAmountByIssueId;\n    mapping(string => IssueStatus) public issueStatusByIssueId;\n    mapping(string => OctobayGovToken) public govTokenByIssueId;\n\n    function depositAndSetGovTokenForIssue(string calldata _issueId, address _govTokenAddress, string calldata _projectId) external {\n        depositEthForIssue(_issueId);\n        setGovTokenForIssue(_issueId, _govTokenAddress, _projectId);\n    }\n\n    function setGovTokenForIssue(string calldata _issueId, address _govTokenAddress, string calldata _projectId) public {\n        require(issueStatusByIssueId[_issueId] == IssueStatus.OPEN, 'Issue is not OPEN.');\n        // Ensure they're giving us a valid gov token\n        require(address(octobayGovernor.tokensByProjectId(_projectId)) == _govTokenAddress, \"_projectId is not associated with _govTokenAddress\");\n        bool hasPermission = false;\n        uint256 govNFTId = octobayGovNFT.getTokenIDForUserInProject(msg.sender, _projectId);\n        if (govNFTId != 0 && octobayGovNFT.hasPermission(govNFTId, OctobayGovNFT.Permission.SET_ISSUE_GOVTOKEN)) {\n            hasPermission = true;\n        } else {\n            // Do other permission checks here, e.g. oracle calls\n        }\n        require(hasPermission, \"You don't have permission to set governance tokens for issues\");\n        govTokenByIssueId[_issueId] = OctobayGovToken(_govTokenAddress);\n        emit SetGovTokenForIssueEvent(msg.sender, _issueId, _govTokenAddress, _projectId);\n    }\n\n    function depositEthForIssue(string calldata _issueId) public payable {\n        require(msg.value > 0, 'You must send ETH.');\n        require(issueStatusByIssueId[_issueId] == IssueStatus.OPEN, 'Issue is not OPEN.');\n\n        nextIssueDepositId++;\n        issueDeposits[nextIssueDepositId] = IssueDeposit(\n            msg.sender,\n            msg.value,\n            _issueId\n        );\n        issueDepositIdsByIssueId[_issueId].push(nextIssueDepositId);\n        issueDepositIdsBySender[msg.sender].push(nextIssueDepositId);\n        issueDepositsAmountByIssueId[_issueId] += msg.value;\n        emit IssueDepositEvent(msg.sender, msg.value, _issueId, nextIssueDepositId);\n    }\n\n    function refundIssueDeposit(uint256 _depositId) external {\n        require(\n            issueDeposits[_depositId].from == msg.sender,\n            'Deposit did not come from this Ethereum address or does not exist.'\n        );\n        require(issueStatusByIssueId[issueDeposits[_depositId].issueId] == IssueStatus.OPEN, 'Issue is not OPEN.');\n\n        uint256 payoutAmt = issueDeposits[_depositId].amount;\n        issueDepositsAmountByIssueId[\n            issueDeposits[_depositId].issueId\n        ] -= payoutAmt;\n        emit RefundIssueDepositEvent(msg.sender, payoutAmt, issueDeposits[_depositId].issueId, _depositId);\n        delete issueDeposits[_depositId];\n        payable(msg.sender).transfer(payoutAmt);\n    }\n\n\n\n    // ------------ ISSUE CLAIMING ------------ //\n\n    event WithdrawIssueDepositEvent(string issueId, address recipient, uint256 amount);\n\n    struct IssueWithdrawRequest {\n        string issueId;\n        address payoutAddress;\n    }\n\n    mapping(bytes32 => IssueWithdrawRequest) public issueWithdrawRequests;\n\n    function withdrawIssueDeposit(\n        address _oracle,\n        string calldata _issueId\n    ) public oracleHandlesJob(_oracle, 'claim') returns(bytes32 requestId) {\n        require(issueStatusByIssueId[_issueId] == IssueStatus.OPEN, 'Issue is not OPEN.'); \n\n        (bytes32 jobId, uint256 jobFee) = oracleStorage.getOracleJob(_oracle, 'claim');\n        Chainlink.Request memory request =\n            buildChainlinkRequest(\n                jobId,\n                address(this),\n                this.confirmWithdrawIssueDeposit.selector\n            );\n        request.add('githubUserId', userAddressStorage.userIdsByAddress(msg.sender));\n        request.add('issueId', _issueId);\n        requestId = sendChainlinkRequestTo(_oracle, request, jobFee);\n        issueWithdrawRequests[requestId] = IssueWithdrawRequest({\n            issueId: _issueId,\n            payoutAddress: msg.sender\n        });\n    }\n\n    function confirmWithdrawIssueDeposit(bytes32 _requestId)\n        public\n        recordChainlinkFulfillment(_requestId)\n    {\n        require(issueWithdrawRequests[_requestId].payoutAddress != address(0) );\n        address payoutAddr = issueWithdrawRequests[_requestId].payoutAddress;\n        uint256 payoutAmt = issueDepositsAmountByIssueId[issueWithdrawRequests[_requestId].issueId];\n        issueDepositsAmountByIssueId[issueWithdrawRequests[_requestId].issueId] = 0;\n        issueStatusByIssueId[issueWithdrawRequests[_requestId].issueId] = IssueStatus.CLAIMED;\n        awardGovernanceTokens(payoutAddr, payoutAmt, govTokenByIssueId[issueWithdrawRequests[_requestId].issueId]);\n        emit WithdrawIssueDepositEvent(issueWithdrawRequests[_requestId].issueId, payoutAddr, payoutAmt);\n        delete issueWithdrawRequests[_requestId];\n        // delete issueDeposits[_depositId]; ??? loop through issueDepositIdsByIssueId ???\n        payable(payoutAddr).transfer(payoutAmt);\n    }\n\n\n\n    // ------------ GOVERNANCE ------------ //\n\n    event AwardGovernanceTokensEvent(address recipient, uint256 amount, address tokenAddr);\n\n    OctobayGovernor public octobayGovernor;\n\n    struct NewGovernanceToken {\n        bool isValue;\n        string githubUserId;\n        string name;\n        string symbol;\n        string projectId;\n        uint16 newProposalShare;\n        uint16 minQuorum;\n        address creator;\n    }\n\n    mapping(bytes32 => NewGovernanceToken) public newGovernanceTokenReqs;\n\n    // Using a struct as arg here otherwise we get stack too deep errors\n    function createGovernanceToken(\n        address _oracle,\n        NewGovernanceToken memory _newToken\n    ) public oracleHandlesJob(_oracle, 'check-ownership') returns(bytes32 requestId) {\n        (bytes32 jobId, uint256 jobFee) = oracleStorage.getOracleJob(_oracle, 'check-ownership');\n        Chainlink.Request memory request =\n            buildChainlinkRequest(\n                jobId,\n                address(this),\n                this.confirmCreateGovernanceToken.selector\n            );\n        request.add('githubUserId', _newToken.githubUserId);\n        request.add('repoOrgId', _newToken.projectId); // Which one should we use to keep these in sync? \n        requestId = sendChainlinkRequestTo(_oracle, request, jobFee);\n\n        _newToken.creator = msg.sender;\n        newGovernanceTokenReqs[requestId] = _newToken;\n    }\n\n    function confirmCreateGovernanceToken(bytes32 _requestId, bool _result)\n        public\n        recordChainlinkFulfillment(_requestId)\n    {\n        require(_result, \"User is not owner of organization or repository\");\n        NewGovernanceToken memory newToken = newGovernanceTokenReqs[_requestId];\n        require(newToken.isValue, \"No such request\");\n        delete newGovernanceTokenReqs[_requestId];\n\n        octobayGovernor.createGovernorAndToken(newToken.projectId, newToken.newProposalShare, newToken.minQuorum, newToken.name, newToken.symbol);\n        uint256 nftId = octobayGovNFT.mintTokenForProject(newToken.creator, newToken.projectId);\n        octobayGovNFT.grantAllPermissions(nftId);\n    }\n\n    function awardGovernanceTokens(address recipient, uint256 payoutEth, OctobayGovToken tokenAddr) internal {\n        (\n            , //uint80 roundID, \n            int price,\n            , //uint startedAt,\n            , //uint timeStamp,\n            //uint80 answeredInRound\n        ) = ethUSDPriceFeed.latestRoundData();\n        uint256 amount = uint256((payoutEth * uint256(price)) / ethUSDPriceFeed.decimals());\n        emit AwardGovernanceTokensEvent(recipient, amount, address(tokenAddr));\n        tokenAddr.mint(recipient, amount);\n    }\n\n\n\n    // ------------ GETTERS ------------ //\n\n\n     function getUserDepositIdsForGithubUserId(string calldata _githubUserId)\n        external\n        view\n        returns (uint256[] memory)\n    {\n        return userDepositIdsByGithubUserId[_githubUserId];\n    }\n\n    function getUserDepositIdsForSender()\n        external\n        view\n        returns (uint256[] memory)\n    {\n        return userDepositIdsBySender[msg.sender];\n    }\n\n    function getIssueDepositIdsForIssueId(string calldata _issueId)\n        external\n        view\n        returns (uint256[] memory)\n    {\n        return issueDepositIdsByIssueId[_issueId];\n    }\n\n    function getIssueDepositIdsForSender()\n        external\n        view\n        returns (uint256[] memory)\n    {\n        return issueDepositIdsBySender[msg.sender];\n    }\n\n    function getUserClaimAmount(string calldata _githubUserId)\n        external\n        view\n        returns (uint256)\n    {\n        return userClaimAmountByGithbUserId[_githubUserId];\n    }\n\n\n\n\n\n    // ------------ UTILS ------------ //\n\n\n    function addressToIntString(address _address)\n        internal\n        pure\n        returns (string memory _string)\n    {\n        uint256 _i = uint256(_address);\n        if (_i == 0) {\n            return '0';\n        }\n        uint256 j = _i;\n        uint256 len;\n        while (j != 0) {\n            len++;\n            j /= 10;\n        }\n        bytes memory bstr = new bytes(len);\n        uint256 k = len - 1;\n        while (_i != 0) {\n            bstr[k--] = bytes1(uint8(48 + (_i % 10)));\n            _i /= 10;\n        }\n        return string(bstr);\n    }\n}\n",
  "sourcePath": "/home/mkt/Projects/octobay/contracts/contracts/Octobay.sol",
  "compiler": {
    "name": "solc",
    "version": "0.6.12+commit.27d51765.Emscripten.clang"
  },
  "schemaVersion": "3.2.5",
  "updatedAt": "2021-04-05T21:37:05.655Z",
  "networkType": "ethereum",
  "devdoc": {
    "kind": "dev",
    "methods": {
      "owner()": {
        "details": "Returns the address of the current owner."
      },
      "renounceOwnership()": {
        "details": "Leaves the contract without owner. It will not be possible to call `onlyOwner` functions anymore. Can only be called by the current owner. NOTE: Renouncing ownership will leave the contract without an owner, thereby removing any functionality that is only available to the owner."
      },
      "transferOwnership(address)": {
        "details": "Transfers ownership of the contract to a new account (`newOwner`). Can only be called by the current owner."
      }
    },
    "version": 1
  },
  "userdoc": {
    "kind": "user",
    "methods": {
      "isTrustedForwarder(address)": {
        "notice": "return if the forwarder is trusted to forward relayed transactions to us. the forwarder is required to verify the sender's signature, and verify the call is not a replay."
      }
    },
    "version": 1
  }
}