{
  "contractName": "Octobay",
  "abi": [
    {
      "inputs": [
        {
          "internalType": "address",
          "name": "_link",
          "type": "address"
        },
        {
          "internalType": "address",
          "name": "_forwarder",
          "type": "address"
        },
        {
          "internalType": "address",
          "name": "_ovt",
          "type": "address"
        },
        {
          "internalType": "address",
          "name": "_userAddressStorage",
          "type": "address"
        },
        {
          "internalType": "address",
          "name": "_oracleStorage",
          "type": "address"
        }
      ],
      "stateMutability": "nonpayable",
      "type": "constructor"
    },
    {
      "anonymous": false,
      "inputs": [
        {
          "indexed": true,
          "internalType": "bytes32",
          "name": "id",
          "type": "bytes32"
        }
      ],
      "name": "ChainlinkCancelled",
      "type": "event"
    },
    {
      "anonymous": false,
      "inputs": [
        {
          "indexed": true,
          "internalType": "bytes32",
          "name": "id",
          "type": "bytes32"
        }
      ],
      "name": "ChainlinkFulfilled",
      "type": "event"
    },
    {
      "anonymous": false,
      "inputs": [
        {
          "indexed": true,
          "internalType": "bytes32",
          "name": "id",
          "type": "bytes32"
        }
      ],
      "name": "ChainlinkRequested",
      "type": "event"
    },
    {
      "anonymous": false,
      "inputs": [
        {
          "indexed": false,
          "internalType": "address",
          "name": "from",
          "type": "address"
        },
        {
          "indexed": false,
          "internalType": "uint256",
          "name": "amount",
          "type": "uint256"
        },
        {
          "indexed": false,
          "internalType": "string",
          "name": "issueId",
          "type": "string"
        },
        {
          "indexed": false,
          "internalType": "uint256",
          "name": "depositId",
          "type": "uint256"
        }
      ],
      "name": "IssueDepositEvent",
      "type": "event"
    },
    {
      "anonymous": false,
      "inputs": [
        {
          "indexed": true,
          "internalType": "address",
          "name": "previousOwner",
          "type": "address"
        },
        {
          "indexed": true,
          "internalType": "address",
          "name": "newOwner",
          "type": "address"
        }
      ],
      "name": "OwnershipTransferred",
      "type": "event"
    },
    {
      "anonymous": false,
      "inputs": [
        {
          "indexed": false,
          "internalType": "string",
          "name": "issueId",
          "type": "string"
        },
        {
          "indexed": false,
          "internalType": "bytes32",
          "name": "tweetId",
          "type": "bytes32"
        }
      ],
      "name": "TwitterPostEvent",
      "type": "event"
    },
    {
      "anonymous": false,
      "inputs": [
        {
          "indexed": false,
          "internalType": "address",
          "name": "from",
          "type": "address"
        },
        {
          "indexed": false,
          "internalType": "uint256",
          "name": "amount",
          "type": "uint256"
        },
        {
          "indexed": false,
          "internalType": "string",
          "name": "githubUser",
          "type": "string"
        }
      ],
      "name": "UserDepositEvent",
      "type": "event"
    },
    {
      "inputs": [
        {
          "internalType": "address",
          "name": "forwarder",
          "type": "address"
        }
      ],
      "name": "isTrustedForwarder",
      "outputs": [
        {
          "internalType": "bool",
          "name": "",
          "type": "bool"
        }
      ],
      "stateMutability": "view",
      "type": "function"
    },
    {
      "inputs": [
        {
          "internalType": "string",
          "name": "",
          "type": "string"
        },
        {
          "internalType": "uint256",
          "name": "",
          "type": "uint256"
        }
      ],
      "name": "issueDepositIdsByIssueId",
      "outputs": [
        {
          "internalType": "uint256",
          "name": "",
          "type": "uint256"
        }
      ],
      "stateMutability": "view",
      "type": "function"
    },
    {
      "inputs": [
        {
          "internalType": "address",
          "name": "",
          "type": "address"
        },
        {
          "internalType": "uint256",
          "name": "",
          "type": "uint256"
        }
      ],
      "name": "issueDepositIdsBySender",
      "outputs": [
        {
          "internalType": "uint256",
          "name": "",
          "type": "uint256"
        }
      ],
      "stateMutability": "view",
      "type": "function"
    },
    {
      "inputs": [
        {
          "internalType": "uint256",
          "name": "",
          "type": "uint256"
        }
      ],
      "name": "issueDeposits",
      "outputs": [
        {
          "internalType": "address",
          "name": "from",
          "type": "address"
        },
        {
          "internalType": "uint256",
          "name": "amount",
          "type": "uint256"
        },
        {
          "internalType": "string",
          "name": "issueId",
          "type": "string"
        }
      ],
      "stateMutability": "view",
      "type": "function"
    },
    {
      "inputs": [
        {
          "internalType": "string",
          "name": "",
          "type": "string"
        }
      ],
      "name": "issueDepositsAmountByIssueId",
      "outputs": [
        {
          "internalType": "uint256",
          "name": "",
          "type": "uint256"
        }
      ],
      "stateMutability": "view",
      "type": "function"
    },
    {
      "inputs": [
        {
          "internalType": "string",
          "name": "",
          "type": "string"
        }
      ],
      "name": "issuePins",
      "outputs": [
        {
          "internalType": "uint256",
          "name": "",
          "type": "uint256"
        }
      ],
      "stateMutability": "view",
      "type": "function"
    },
    {
      "inputs": [],
      "name": "nextIssueDepositId",
      "outputs": [
        {
          "internalType": "uint256",
          "name": "",
          "type": "uint256"
        }
      ],
      "stateMutability": "view",
      "type": "function"
    },
    {
      "inputs": [],
      "name": "ovt",
      "outputs": [
        {
          "internalType": "contract OctobayVisibilityToken",
          "name": "",
          "type": "address"
        }
      ],
      "stateMutability": "view",
      "type": "function"
    },
    {
      "inputs": [],
      "name": "owner",
      "outputs": [
        {
          "internalType": "address",
          "name": "",
          "type": "address"
        }
      ],
      "stateMutability": "view",
      "type": "function"
    },
    {
      "inputs": [
        {
          "internalType": "bytes32",
          "name": "",
          "type": "bytes32"
        }
      ],
      "name": "pendingTwitterPostsIssueIds",
      "outputs": [
        {
          "internalType": "string",
          "name": "",
          "type": "string"
        }
      ],
      "stateMutability": "view",
      "type": "function"
    },
    {
      "inputs": [],
      "name": "renounceOwnership",
      "outputs": [],
      "stateMutability": "nonpayable",
      "type": "function"
    },
    {
      "inputs": [
        {
          "internalType": "address",
          "name": "newOwner",
          "type": "address"
        }
      ],
      "name": "transferOwnership",
      "outputs": [],
      "stateMutability": "nonpayable",
      "type": "function"
    },
    {
      "inputs": [],
      "name": "trustedForwarder",
      "outputs": [
        {
          "internalType": "address",
          "name": "",
          "type": "address"
        }
      ],
      "stateMutability": "view",
      "type": "function"
    },
    {
      "inputs": [],
      "name": "twitterAccountId",
      "outputs": [
        {
          "internalType": "string",
          "name": "",
          "type": "string"
        }
      ],
      "stateMutability": "view",
      "type": "function"
    },
    {
      "inputs": [],
      "name": "twitterFollowers",
      "outputs": [
        {
          "internalType": "uint256",
          "name": "",
          "type": "uint256"
        }
      ],
      "stateMutability": "view",
      "type": "function"
    },
    {
      "inputs": [
        {
          "internalType": "bytes32",
          "name": "",
          "type": "bytes32"
        }
      ],
      "name": "userAddressRegistrations",
      "outputs": [
        {
          "internalType": "string",
          "name": "githubUserId",
          "type": "string"
        },
        {
          "internalType": "address",
          "name": "ethAddress",
          "type": "address"
        }
      ],
      "stateMutability": "view",
      "type": "function"
    },
    {
      "inputs": [],
      "name": "userAddressStorage",
      "outputs": [
        {
          "internalType": "contract UserAddressStorage",
          "name": "",
          "type": "address"
        }
      ],
      "stateMutability": "view",
      "type": "function"
    },
    {
      "inputs": [
        {
          "internalType": "string",
          "name": "",
          "type": "string"
        }
      ],
      "name": "userClaimAmountByGithbUserId",
      "outputs": [
        {
          "internalType": "uint256",
          "name": "",
          "type": "uint256"
        }
      ],
      "stateMutability": "view",
      "type": "function"
    },
    {
      "inputs": [
        {
          "internalType": "string",
          "name": "",
          "type": "string"
        },
        {
          "internalType": "uint256",
          "name": "",
          "type": "uint256"
        }
      ],
      "name": "userDepositIdsByGithubUserId",
      "outputs": [
        {
          "internalType": "uint256",
          "name": "",
          "type": "uint256"
        }
      ],
      "stateMutability": "view",
      "type": "function"
    },
    {
      "inputs": [
        {
          "internalType": "address",
          "name": "",
          "type": "address"
        },
        {
          "internalType": "uint256",
          "name": "",
          "type": "uint256"
        }
      ],
      "name": "userDepositIdsBySender",
      "outputs": [
        {
          "internalType": "uint256",
          "name": "",
          "type": "uint256"
        }
      ],
      "stateMutability": "view",
      "type": "function"
    },
    {
      "inputs": [
        {
          "internalType": "uint256",
          "name": "",
          "type": "uint256"
        }
      ],
      "name": "userDeposits",
      "outputs": [
        {
          "internalType": "address",
          "name": "from",
          "type": "address"
        },
        {
          "internalType": "uint256",
          "name": "amount",
          "type": "uint256"
        },
        {
          "internalType": "string",
          "name": "githubUserId",
          "type": "string"
        }
      ],
      "stateMutability": "view",
      "type": "function"
    },
    {
      "inputs": [],
      "name": "versionRecipient",
      "outputs": [
        {
          "internalType": "string",
          "name": "",
          "type": "string"
        }
      ],
      "stateMutability": "view",
      "type": "function"
    },
    {
      "inputs": [
        {
          "internalType": "string",
          "name": "_accountId",
          "type": "string"
        }
      ],
      "name": "setTwitterAccountId",
      "outputs": [],
      "stateMutability": "nonpayable",
      "type": "function"
    },
    {
      "inputs": [
        {
          "internalType": "string",
          "name": "_issueId",
          "type": "string"
        },
        {
          "internalType": "uint256",
          "name": "_amount",
          "type": "uint256"
        }
      ],
      "name": "pinIssue",
      "outputs": [],
      "stateMutability": "nonpayable",
      "type": "function"
    },
    {
      "inputs": [
        {
          "internalType": "address",
          "name": "_oracle",
          "type": "address"
        },
        {
          "internalType": "string",
          "name": "_name",
          "type": "string"
        },
        {
          "internalType": "string[]",
          "name": "_jobNames",
          "type": "string[]"
        },
        {
          "components": [
            {
              "internalType": "bytes32",
              "name": "id",
              "type": "bytes32"
            },
            {
              "internalType": "uint256",
              "name": "fee",
              "type": "uint256"
            }
          ],
          "internalType": "struct OracleStorage.Job[]",
          "name": "_jobs",
          "type": "tuple[]"
        }
      ],
      "name": "addOracle",
      "outputs": [],
      "stateMutability": "nonpayable",
      "type": "function"
    },
    {
      "inputs": [
        {
          "internalType": "address",
          "name": "_oracle",
          "type": "address"
        }
      ],
      "name": "removeOracle",
      "outputs": [],
      "stateMutability": "nonpayable",
      "type": "function"
    },
    {
      "inputs": [
        {
          "internalType": "address",
          "name": "_oracle",
          "type": "address"
        },
        {
          "internalType": "string",
          "name": "_name",
          "type": "string"
        }
      ],
      "name": "changeOracleName",
      "outputs": [],
      "stateMutability": "nonpayable",
      "type": "function"
    },
    {
      "inputs": [
        {
          "internalType": "address",
          "name": "_oracle",
          "type": "address"
        },
        {
          "internalType": "string",
          "name": "_jobName",
          "type": "string"
        },
        {
          "components": [
            {
              "internalType": "bytes32",
              "name": "id",
              "type": "bytes32"
            },
            {
              "internalType": "uint256",
              "name": "fee",
              "type": "uint256"
            }
          ],
          "internalType": "struct OracleStorage.Job",
          "name": "_job",
          "type": "tuple"
        }
      ],
      "name": "addOracleJob",
      "outputs": [],
      "stateMutability": "nonpayable",
      "type": "function"
    },
    {
      "inputs": [
        {
          "internalType": "address",
          "name": "_oracle",
          "type": "address"
        },
        {
          "internalType": "string",
          "name": "_jobName",
          "type": "string"
        }
      ],
      "name": "removeOracleJob",
      "outputs": [],
      "stateMutability": "nonpayable",
      "type": "function"
    },
    {
      "inputs": [
        {
          "internalType": "address",
          "name": "_octobayPaymaster",
          "type": "address"
        }
      ],
      "name": "setPaymaster",
      "outputs": [],
      "stateMutability": "nonpayable",
      "type": "function"
    },
    {
      "inputs": [
        {
          "internalType": "string",
          "name": "_githubUserId",
          "type": "string"
        },
        {
          "internalType": "uint256",
          "name": "_amount",
          "type": "uint256"
        }
      ],
      "name": "deductGasFee",
      "outputs": [],
      "stateMutability": "nonpayable",
      "type": "function"
    },
    {
      "inputs": [
        {
          "internalType": "address",
          "name": "_oracle",
          "type": "address"
        },
        {
          "internalType": "string",
          "name": "_githubUserId",
          "type": "string"
        }
      ],
      "name": "registerUserAddress",
      "outputs": [
        {
          "internalType": "bytes32",
          "name": "requestId",
          "type": "bytes32"
        }
      ],
      "stateMutability": "nonpayable",
      "type": "function"
    },
    {
      "inputs": [
        {
          "internalType": "bytes32",
          "name": "_requestId",
          "type": "bytes32"
        },
        {
          "internalType": "bytes32",
          "name": "_addressName",
          "type": "bytes32"
        }
      ],
      "name": "confirmRegisterUserAddress",
      "outputs": [],
      "stateMutability": "nonpayable",
      "type": "function"
    },
    {
      "inputs": [
        {
          "internalType": "bytes32",
          "name": "_requestId",
          "type": "bytes32"
        },
        {
          "internalType": "bytes32",
          "name": "_tweetId",
          "type": "bytes32"
        }
      ],
      "name": "twitterPostConfirm",
      "outputs": [],
      "stateMutability": "nonpayable",
      "type": "function"
    },
    {
      "inputs": [
        {
          "internalType": "address",
          "name": "_oracle",
          "type": "address"
        },
        {
          "internalType": "string",
          "name": "_issueId",
          "type": "string"
        }
      ],
      "name": "updateTwitterFollowersAndPost",
      "outputs": [
        {
          "internalType": "bytes32",
          "name": "requestId",
          "type": "bytes32"
        }
      ],
      "stateMutability": "nonpayable",
      "type": "function"
    },
    {
      "inputs": [
        {
          "internalType": "bytes32",
          "name": "_requestId",
          "type": "bytes32"
        },
        {
          "internalType": "uint256",
          "name": "_followers",
          "type": "uint256"
        }
      ],
      "name": "updateTwitterFollowersConfirm",
      "outputs": [],
      "stateMutability": "nonpayable",
      "type": "function"
    },
    {
      "inputs": [
        {
          "internalType": "string",
          "name": "_githubUserId",
          "type": "string"
        }
      ],
      "name": "depositEthForGithubUser",
      "outputs": [],
      "stateMutability": "payable",
      "type": "function"
    },
    {
      "inputs": [
        {
          "internalType": "uint256",
          "name": "_depositId",
          "type": "uint256"
        }
      ],
      "name": "refundUserDeposit",
      "outputs": [],
      "stateMutability": "nonpayable",
      "type": "function"
    },
    {
      "inputs": [
        {
          "internalType": "uint256",
          "name": "_depositId",
          "type": "uint256"
        }
      ],
      "name": "withdrawUserDeposit",
      "outputs": [],
      "stateMutability": "nonpayable",
      "type": "function"
    },
    {
      "inputs": [
        {
          "internalType": "string",
          "name": "_issueId",
          "type": "string"
        }
      ],
      "name": "depositEthForIssue",
      "outputs": [],
      "stateMutability": "payable",
      "type": "function"
    },
    {
      "inputs": [
        {
          "internalType": "uint256",
          "name": "_depositId",
          "type": "uint256"
        }
      ],
      "name": "refundIssueDeposit",
      "outputs": [],
      "stateMutability": "nonpayable",
      "type": "function"
    },
    {
      "inputs": [
        {
          "internalType": "string",
          "name": "_githubUserId",
          "type": "string"
        }
      ],
      "name": "getUserDepositIdsForGithubUserId",
      "outputs": [
        {
          "internalType": "uint256[]",
          "name": "",
          "type": "uint256[]"
        }
      ],
      "stateMutability": "view",
      "type": "function"
    },
    {
      "inputs": [],
      "name": "getUserDepositIdsForSender",
      "outputs": [
        {
          "internalType": "uint256[]",
          "name": "",
          "type": "uint256[]"
        }
      ],
      "stateMutability": "view",
      "type": "function"
    },
    {
      "inputs": [
        {
          "internalType": "string",
          "name": "_issueId",
          "type": "string"
        }
      ],
      "name": "getIssueDepositIdsForIssueId",
      "outputs": [
        {
          "internalType": "uint256[]",
          "name": "",
          "type": "uint256[]"
        }
      ],
      "stateMutability": "view",
      "type": "function"
    },
    {
      "inputs": [],
      "name": "getIssueDepositIdsForSender",
      "outputs": [
        {
          "internalType": "uint256[]",
          "name": "",
          "type": "uint256[]"
        }
      ],
      "stateMutability": "view",
      "type": "function"
    },
    {
      "inputs": [
        {
          "internalType": "string",
          "name": "_githubUserId",
          "type": "string"
        }
      ],
      "name": "getUserClaimAmount",
      "outputs": [
        {
          "internalType": "uint256",
          "name": "",
          "type": "uint256"
        }
      ],
      "stateMutability": "view",
      "type": "function"
    }
  ],
  "bytecode": "0x60016005908155600060095560c06040526080819052640322e302e360dc1b60a0908152620000329160149190620001a7565b5060006018553480156200004557600080fd5b50604051620041cc380380620041cc833981016040819052620000689162000243565b6000620000746200011c565b600080546001600160a01b0319166001600160a01b0383169081178255604051929350917f8be0079c531659141344cd1fd0a4f28419497f9722a3daafe3b4186f6b6457e0908290a350620000c98562000139565b600780546001600160a01b03199081166001600160a01b039687161790915560158054821693861693909317909255601280548316918516919091179055600e80549091169190921617905550620002db565b6000620001336200015b60201b620023251760201c565b90505b90565b600380546001600160a01b0319166001600160a01b0392909216919091179055565b600060183610801590620001755750620001753362000193565b156200018b575060131936013560601c62000136565b503362000136565b6007546001600160a01b0390811691161490565b828054600181600116156101000203166002900490600052602060002090601f016020900481019282601f10620001ea57805160ff19168380011785556200021a565b828001600101855582156200021a579182015b828111156200021a578251825591602001919060010190620001fd565b50620002289291506200022c565b5090565b5b808211156200022857600081556001016200022d565b600080600080600060a086880312156200025b578081fd5b85516200026881620002c2565b60208701519095506200027b81620002c2565b60408701519094506200028e81620002c2565b6060870151909350620002a181620002c2565b6080870151909250620002b481620002c2565b809150509295509295909350565b6001600160a01b0381168114620002d857600080fd5b50565b613ee180620002eb6000396000f3fe60806040526004361061027d5760003560e01c8063647017501161014f578063c4f59d63116100c1578063f2fde38b1161007a578063f2fde38b1461077b578063f4b90ef71461079b578063f63e8c70146107ae578063f831eaa4146107c3578063fb95354a146107e3578063fdc85fc4146107f85761027d565b8063c4f59d63146106b7578063cf5f5f46146106cc578063d224784d146106ec578063e5c599481461071b578063f16b41f41461073b578063f224f9021461075b5761027d565b80638617fc46116101135780638617fc461461060f5780638d6ec9211461062f5780638da5cb5b1461064f5780639996f18614610664578063bea390bc14610677578063c315fbca146106975761027d565b806364701750146105855780636f4c91a4146105a5578063715018a6146105c55780637da0a877146105da57806384f8f644146105ef5761027d565b8063486ff0cd116101f3578063583d789b116101ac578063583d789b146104ce578063590b5970146104ee578063595670b3146105105780635ff3a19a1461052557806360445fb21461054557806361e421d5146105655761027d565b8063486ff0cd1461041757806348f927871461042c57806350aea559146104415780635308f52c14610461578063546075da14610481578063572b6c05146104a15761027d565b80632bbba336116102455780632bbba33614610347578063420acf3c14610367578063422c546b1461038757806342aaf11b146103b5578063454d0554146103d557806348297f59146103f75761027d565b806304405fa914610282578063113d4134146102b857806313fd21ce146102d857806317c486f1146103055780632a97fa7714610325575b600080fd5b34801561028e57600080fd5b506102a261029d366004613495565b610818565b6040516102af91906139e7565b60405180910390f35b3480156102c457600080fd5b506102a26102d3366004613372565b610855565b3480156102e457600080fd5b506102f86102f3366004613316565b610881565b6040516102af91906139f0565b34801561031157600080fd5b506102a26103203660046133fa565b61091c565b34801561033157600080fd5b506103456103403660046130c2565b610939565b005b34801561035357600080fd5b5061034561036236600461321b565b610999565b34801561037357600080fd5b5061034561038236600461332e565b610a3c565b34801561039357600080fd5b506103a76103a2366004613316565b610b50565b6040516102af929190613a03565b3480156103c157600080fd5b506103456103d03660046130dd565b610c00565b3480156103e157600080fd5b506103ea610ca0565b6040516102af9190613998565b34801561040357600080fd5b5061034561041236600461312e565b610d02565b34801561042357600080fd5b506102f8610da8565b34801561043857600080fd5b506102f8610e03565b34801561044d57600080fd5b506103ea61045c366004613372565b610e5e565b34801561046d57600080fd5b506102a261047c36600461327f565b610ed1565b34801561048d57600080fd5b5061034561049c3660046133b1565b6111d6565b3480156104ad57600080fd5b506104c16104bc3660046130c2565b61125c565b6040516102af91906139dc565b3480156104da57600080fd5b506103456104e93660046130dd565b611273565b3480156104fa57600080fd5b506105036112dc565b6040516102af9190613688565b34801561051c57600080fd5b506102a26112eb565b34801561053157600080fd5b506103ea610540366004613372565b6112f1565b34801561055157600080fd5b50610345610560366004613316565b611305565b34801561057157600080fd5b506102a26105803660046132cc565b611348565b34801561059157600080fd5b506102a26105a03660046132cc565b611361565b3480156105b157600080fd5b506103456105c036600461332e565b61137a565b3480156105d157600080fd5b506103456114e1565b3480156105e657600080fd5b50610503611560565b3480156105fb57600080fd5b5061034561060a366004613495565b61156f565b34801561061b57600080fd5b5061034561062a366004613316565b61161e565b34801561063b57600080fd5b5061034561064a3660046133fa565b611760565b34801561065b57600080fd5b506105036117b1565b610345610672366004613372565b6117c0565b34801561068357600080fd5b5061034561069236600461332e565b611952565b3480156106a357600080fd5b506103456106b2366004613316565b611a07565b3480156106c357600080fd5b50610503611ada565b3480156106d857600080fd5b506102a26106e73660046133fa565b611ae9565b3480156106f857600080fd5b5061070c610707366004613316565b611b06565b6040516102af93929190613971565b34801561072757600080fd5b506102a26107363660046130dd565b611bbc565b34801561074757600080fd5b5061070c610756366004613316565b611f20565b34801561076757600080fd5b506102a26107763660046133fa565b611fa1565b34801561078757600080fd5b506103456107963660046130c2565b611fbe565b6103456107a9366004613372565b612074565b3480156107ba57600080fd5b506102a26121fe565b3480156107cf57600080fd5b506102a26107de366004613495565b612204565b3480156107ef57600080fd5b506103ea61222c565b34801561080457600080fd5b506103456108133660046130c2565b61228b565b8151602081840181018051600a82529282019185019190912091905280548290811061084057fe5b90600052602060002001600091509150505481565b60006017838360405161086992919061365c565b90815260200160405180910390205490505b92915050565b60116020908152600091825260409182902080548351601f6002600019610100600186161502019093169290920491820184900484028101840190945280845290918301828280156109145780601f106108e957610100808354040283529160200191610914565b820191906000526020600020905b8154815290600101906020018083116108f757829003601f168201915b505050505081565b8051602081830181018051600c8252928201919093012091525481565b610941612357565b6000546001600160a01b039081169116146109775760405162461bcd60e51b815260040161096e90613c8e565b60405180910390fd5b601380546001600160a01b0319166001600160a01b0392909216919091179055565b6109a1612357565b6000546001600160a01b039081169116146109ce5760405162461bcd60e51b815260040161096e90613c8e565b6012546040516315ddd19b60e11b81526001600160a01b0390911690632bbba33690610a0490879087908790879060040161380a565b600060405180830381600087803b158015610a1e57600080fd5b505af1158015610a32573d6000803e3d6000fd5b5050505050505050565b60008281526006602052604090205482906001600160a01b03163314610a745760405162461bcd60e51b815260040161096e90613d62565b60008181526006602052604080822080546001600160a01b0319169055518291600080516020613e8c83398151915291a26015546000848152601660205260409081902060018101549151632625cd2960e21b81526001600160a01b039384169363989734a493610aee9392889290911690600401613a4f565b600060405180830381600087803b158015610b0857600080fd5b505af1158015610b1c573d6000803e3d6000fd5b50505060008481526016602052604081209150610b398282612db4565b5060010180546001600160a01b0319169055505050565b60166020908152600091825260409182902080548351601f60026000196101006001861615020190931692909204918201849004840281018401909452808452909291839190830182828015610be75780601f10610bbc57610100808354040283529160200191610be7565b820191906000526020600020905b815481529060010190602001808311610bca57829003601f168201915b505050600190930154919250506001600160a01b031682565b610c08612357565b6000546001600160a01b03908116911614610c355760405162461bcd60e51b815260040161096e90613c8e565b6012546040516342aaf11b60e01b81526001600160a01b03909116906342aaf11b90610c6990869086908690600401613721565b600060405180830381600087803b158015610c8357600080fd5b505af1158015610c97573d6000803e3d6000fd5b50505050505050565b336000908152601b6020908152604091829020805483518184028101840190945280845260609392830182828015610cf757602002820191906000526020600020905b815481526020019060010190808311610ce3575b505050505090505b90565b610d0a612357565b6000546001600160a01b03908116911614610d375760405162461bcd60e51b815260040161096e90613c8e565b6012546040516348297f5960e01b81526001600160a01b03909116906348297f5990610d6f9088908890889088908890600401613746565b600060405180830381600087803b158015610d8957600080fd5b505af1158015610d9d573d6000803e3d6000fd5b505050505050505050565b6014805460408051602060026001851615610100026000190190941693909304601f810184900484028201840190925281815292918301828280156109145780601f106108e957610100808354040283529160200191610914565b600f805460408051602060026001851615610100026000190190941693909304601f810184900484028201840190925281815292918301828280156109145780601f106108e957610100808354040283529160200191610914565b6060600a8383604051610e7292919061365c565b9081526040805191829003602090810183208054808302850183019093528284529190830182828015610ec457602002820191906000526020600020905b815481526020019060010190808311610eb0575b5050505050905092915050565b604080518082018252601081526f74776974746572466f6c6c6f7765727360801b60208201526012549151637f7207c360e11b81526000928592916001600160a01b039091169063fee40f8690610f2c908590600401613688565b60206040518083038186803b158015610f4457600080fd5b505afa158015610f58573d6000803e3d6000fd5b505050506040513d601f19601f82011682018060405250810190610f7c91906132f6565b610f985760405162461bcd60e51b815260040161096e90613b09565b601254604051639dd1e44b60e01b81526001600160a01b0390911690639dd1e44b90610fca908590859060040161383e565b60206040518083038186803b158015610fe257600080fd5b505afa158015610ff6573d6000803e3d6000fd5b505050506040513d601f19601f8201168201806040525081019061101a91906132f6565b6110365760405162461bcd60e51b815260040161096e90613d2b565b601254604051632ed20a2960e21b815260009182916001600160a01b039091169063bb4828a49061106b908a90600401613899565b604080518083038186803b15801561108257600080fd5b505afa158015611096573d6000803e3d6000fd5b505050506040513d601f19601f820116820180604052508101906110ba919061334f565b915091506110c6612df8565b6110d88330631bd3246960e21b612366565b60408051808201825260098152681858d8dbdd5b9d125960ba1b602080830191909152600f8054845160026001831615610100026000190190921691909104601f810184900484028201840190955284815294955061119b94929390918301828280156111865780601f1061115b57610100808354040283529160200191611186565b820191906000526020600020905b81548152906001019060200180831161116957829003601f168201915b50505050508361238b9092919063ffffffff16565b6111a68882846123a9565b600081815260116020908152604090912089519298506111ca9290918a0190612e2d565b50505050505092915050565b6013546001600160a01b031633146111ed57600080fd5b806017848460405161120092919061365c565b908152602001604051809103902054101561122d5760405162461bcd60e51b815260040161096e90613c09565b806017848460405161124092919061365c565b9081526040519081900360200190208054919091039055505050565b6007546001600160a01b038281169116145b919050565b61127b612357565b6000546001600160a01b039081169116146112a85760405162461bcd60e51b815260040161096e90613c8e565b60125460405163583d789b60e01b81526001600160a01b039091169063583d789b90610c6990869086908690600401613721565b600e546001600160a01b031681565b60105481565b6060601a8383604051610e7292919061365c565b6000818152601960205260409020546001600160a01b0316331461133b5760405162461bcd60e51b815260040161096e90613a82565b61134581336124e8565b50565b600b602052816000526040600020818154811061084057fe5b601b602052816000526040600020818154811061084057fe5b60008281526006602052604090205482906001600160a01b031633146113b25760405162461bcd60e51b815260040161096e90613d62565b60008181526006602052604080822080546001600160a01b0319169055518291600080516020613e8c83398151915291a26010829055600083815260116020908152604080832080548251601f6002600019610100600186161502019093169290920491820185900485028101850190935280835261148b9333939291908301828280156114815780601f1061145657610100808354040283529160200191611481565b820191906000526020600020905b81548152906001019060200180831161146457829003601f168201915b5050505050612659565b600085815260116020526040808220838352912081549293506114c39290919060026000196101006001841615020190911604612eab565b5060008481526011602052604081206114db91612db4565b50505050565b6114e9612357565b6000546001600160a01b039081169116146115165760405162461bcd60e51b815260040161096e90613c8e565b600080546040516001600160a01b03909116907f8be0079c531659141344cd1fd0a4f28419497f9722a3daafe3b4186f6b6457e0908390a3600080546001600160a01b0319169055565b6007546001600160a01b031681565b6000811161158f5760405162461bcd60e51b815260040161096e90613ad2565b600e54604051632770a7eb60e21b81526001600160a01b0390911690639dc29fac906115c1903390859060040161369c565b600060405180830381600087803b1580156115db57600080fd5b505af11580156115ef573d6000803e3d6000fd5b5050505080600d83604051611604919061366c565b908152604051908190036020019020805490910190555050565b6000818152600860205260409020546001600160a01b031633146116545760405162461bcd60e51b815260040161096e90613cc3565b6000818152600860205260409081902060018101549151600c9161167d9160029091019061362e565b90815260200160405180910390205410156116aa5760405162461bcd60e51b815260040161096e90613c40565b600081815260086020526040808220600101549051339282156108fc02929190818181858888f193505050501580156116e7573d6000803e3d6000fd5b506000818152600860205260409081902060018101549151600c916117119160029091019061362e565b90815260408051602092819003830190208054939093039092556000838152600890915290812080546001600160a01b0319168155600181018290559061175b6002830182612db4565b505050565b611768612357565b6000546001600160a01b039081169116146117955760405162461bcd60e51b815260040161096e90613c8e565b80516117a890600f906020840190612e2d565b50506000601055565b6000546001600160a01b031690565b600034116117e05760405162461bcd60e51b815260040161096e90613daa565b60188054600101905560408051606081018252338152346020808301919091528251601f8501829004820281018201845284815291928301919085908590819084018382808284376000920182905250939094525050601854815260196020908152604091829020845181546001600160a01b0319166001600160a01b039091161781558482015160018201559184015180519293506118899260028501929190910190612e2d565b50905050601a828260405161189f92919061365c565b90815260408051918290036020908101832060188054825460018181018555600094855285852090910191909155338352601b84529382209054815494850182559082529190209091015534906017906118fc908590859061365c565b90815260405190819003602001812080549092019091557f406551011d3a3874d102c2ee25adb004adb6d90a8134f04c14bd02f73ad4a3d0906119469033903490869086906136b5565b60405180910390a15050565b60008281526006602052604090205482906001600160a01b0316331461198a5760405162461bcd60e51b815260040161096e90613d62565b60008181526006602052604080822080546001600160a01b0319169055518291600080516020613e8c83398151915291a26000838152601160205260409081902090517fb0f3422488ef72245a96f78912cb9067322935e6faa986e18f27de848dcaee45916119fa918590613a2d565b60405180910390a1505050565b60155460405163c155f9bd60e01b81526001600160a01b039091169063c155f9bd90611a37903390600401613688565b60006040518083038186803b158015611a4f57600080fd5b505afa158015611a63573d6000803e3d6000fd5b505050506040513d6000823e601f3d908101601f19168201604052611a8b919081019061342c565b8051906020012060196000838152602001908152602001600020600201604051611ab5919061362e565b60405180910390201461133b5760405162461bcd60e51b815260040161096e90613bc2565b6015546001600160a01b031681565b8051602081830181018051600d8252928201919093012091525481565b60086020908152600091825260409182902080546001808301546002808501805488516101009582161595909502600019011691909104601f81018790048702840187019097528683526001600160a01b03909316959094919291830182828015611bb25780601f10611b8757610100808354040283529160200191611bb2565b820191906000526020600020905b815481529060010190602001808311611b9557829003601f168201915b5050505050905083565b60408051808201825260088152673932b3b4b9ba32b960c11b60208201526012549151637f7207c360e11b81526000928692916001600160a01b039091169063fee40f8690611c0f908590600401613688565b60206040518083038186803b158015611c2757600080fd5b505afa158015611c3b573d6000803e3d6000fd5b505050506040513d601f19601f82011682018060405250810190611c5f91906132f6565b611c7b5760405162461bcd60e51b815260040161096e90613b09565b601254604051639dd1e44b60e01b81526001600160a01b0390911690639dd1e44b90611cad908590859060040161383e565b60206040518083038186803b158015611cc557600080fd5b505afa158015611cd9573d6000803e3d6000fd5b505050506040513d601f19601f82011682018060405250810190611cfd91906132f6565b611d195760405162461bcd60e51b815260040161096e90613d2b565b601254604051632ed20a2960e21b815260009182916001600160a01b039091169063bb4828a490611d4e908b906004016138d5565b604080518083038186803b158015611d6557600080fd5b505afa158015611d79573d6000803e3d6000fd5b505050506040513d601f19601f82011682018060405250810190611d9d919061334f565b91509150611da9612df8565b611dbb8330631082b3cf60e21b612366565b9050611e256040518060400160405280600c81526020016b19da5d1a1d58955cd95c925960a21b81525089898080601f01602080910402602001604051908101604052809392919081815260200183838082843760009201919091525086949392505061238b9050565b611e636040518060400160405280600a8152602001696574684164647265737360b01b815250611e5b611e56612357565b6128e9565b83919061238b565b611e6e8982846123a9565b6040805160606020601f8c01819004028201810183529181018a81529298509182918b908b9081908501838280828437600092019190915250505090825250602001611eb8612357565b6001600160a01b031690526000878152601660209081526040909120825180519192611ee992849290910190612e2d565b5060209190910151600190910180546001600160a01b0319166001600160a01b039092169190911790555093979650505050505050565b60196020908152600091825260409182902080546001808301546002808501805488516101009582161595909502600019011691909104601f81018790048702840187019097528683526001600160a01b03909316959094919291830182828015611bb25780601f10611b8757610100808354040283529160200191611bb2565b805160208183018101805160178252928201919093012091525481565b611fc6612357565b6000546001600160a01b03908116911614611ff35760405162461bcd60e51b815260040161096e90613c8e565b6001600160a01b0381166120195760405162461bcd60e51b815260040161096e90613b39565b600080546040516001600160a01b03808516939216917f8be0079c531659141344cd1fd0a4f28419497f9722a3daafe3b4186f6b6457e091a3600080546001600160a01b0319166001600160a01b0392909216919091179055565b600034116120945760405162461bcd60e51b815260040161096e90613daa565b60098054600101905560408051606081018252338152346020808301919091528251601f8501829004820281018201845284815291928301919085908590819084018382808284376000920182905250939094525050600954815260086020908152604091829020845181546001600160a01b0319166001600160a01b0390911617815584820151600182015591840151805192935061213d9260028501929190910190612e2d565b50905050600a828260405161215392919061365c565b90815260408051918290036020908101832060098054825460018181018555600094855285852090910191909155338352600b8452938220905481549485018255908252919020909101553490600c906121b0908590859061365c565b90815260405190819003602001812080549092019091556009547f1c0306f1b3e6623ac3e5a5b1b36db068ce661a4afdd25b0fa922519d7ea9cf5a91611946913391349187918791906136e7565b60095481565b8151602081840181018051601a82529282019185019190912091905280548290811061084057fe5b336000908152600b6020908152604091829020805483518184028101840190945280845260609392830182828015610cf75760200282019190600052602060002090815481526020019060010190808311610ce3575050505050905090565b612293612357565b6000546001600160a01b039081169116146122c05760405162461bcd60e51b815260040161096e90613c8e565b601254604051633f7217f160e21b81526001600160a01b039091169063fdc85fc4906122f0908490600401613688565b600060405180830381600087803b15801561230a57600080fd5b505af115801561231e573d6000803e3d6000fd5b5050505050565b60006018361080159061233c575061233c3361125c565b15612350575060131936013560601c610cff565b5033610cff565b6000612361612325565b905090565b61236e612df8565b612376612df8565b612382818686866129cc565b95945050505050565b608083015161239a9083612a09565b608083015161175b9082612a09565b6000306005546040516020016123c092919061363a565b60408051808303601f19018152918152815160209283012060055460608701526000818152600690935281832080546001600160a01b0319166001600160a01b038916179055905190925082917fb5e6e01e79f91267dc17b4e6314d5d4d03593d2ceee0fbb452b750bd70ea5af991a26003546001600160a01b0316634000aea0858461244c87612a20565b6040518463ffffffff1660e01b815260040161246a93929190613971565b602060405180830381600087803b15801561248457600080fd5b505af1158015612498573d6000803e3d6000fd5b505050506040513d601f19601f820116820180604052508101906124bc91906132f6565b6124d85760405162461bcd60e51b815260040161096e90613b7f565b6005805460010190559392505050565b6124f0612f20565b600083815260196020908152604091829020825160608101845281546001600160a01b03168152600180830154828501526002808401805487516101009482161594909402600019011691909104601f810186900486028301860187528083529295939493860193919290918301828280156125ad5780601f10612582576101008083540402835291602001916125ad565b820191906000526020600020905b81548152906001019060200180831161259057829003601f168201915b5050505050815250509050816001600160a01b03166108fc82602001519081150290604051600060405180830381858888f193505050501580156125f5573d6000803e3d6000fd5b5080602001516017826040015160405161260f919061366c565b90815260408051602092819003830190208054939093039092556000858152601990915290812080546001600160a01b0319168155600181018290559061231e6002830182612db4565b604080518082018252600b81526a1d1dda5d1d195c941bdcdd60aa1b60208201526012549151637f7207c360e11b81526000928592916001600160a01b039091169063fee40f86906126af908590600401613688565b60206040518083038186803b1580156126c757600080fd5b505afa1580156126db573d6000803e3d6000fd5b505050506040513d601f19601f820116820180604052508101906126ff91906132f6565b61271b5760405162461bcd60e51b815260040161096e90613b09565b601254604051639dd1e44b60e01b81526001600160a01b0390911690639dd1e44b9061274d908590859060040161383e565b60206040518083038186803b15801561276557600080fd5b505afa158015612779573d6000803e3d6000fd5b505050506040513d601f19601f8201168201806040525081019061279d91906132f6565b6127b95760405162461bcd60e51b815260040161096e90613d2b565b601254604051632ed20a2960e21b815260009182916001600160a01b039091169063bb4828a4906127ee908a90600401613862565b604080518083038186803b15801561280557600080fd5b505afa158015612819573d6000803e3d6000fd5b505050506040513d601f19601f8201168201806040525081019061283d919061334f565b91509150612849612df8565b61285b8330632fa8e42f60e21b612366565b6040805180820190915260078152661a5cdcdd59525960ca1b60208201529091506128889082908961238b565b6128d260405180604001604052806006815260200165185b5bdd5b9d60d21b815250600c896040516128ba919061366c565b90815260405190819003602001902054839190612a9c565b6128dd8882846123a9565b98975050505050505050565b60606001600160a01b038216806129195750506040805180820190915260018152600360fc1b602082015261126e565b8060005b811561293157600101600a8204915061291d565b6060816001600160401b038111801561294957600080fd5b506040519080825280601f01601f191660200182016040528015612974576020820181803683370190505b50905060001982015b84156129c257600a850660300160f81b828280600190039350815181106129a057fe5b60200101906001600160f81b031916908160001a905350600a8504945061297d565b5095945050505050565b6129d4612df8565b6129e48560800151610100612aba565b50509183526001600160a01b031660208301526001600160e01b031916604082015290565b612a168260038351612af4565b61175b8282612bc7565b6060634042994660e01b60008084600001518560200151866040015187606001516001896080015160000151604051602401612a63989796959493929190613909565b60408051601f198184030181529190526020810180516001600160e01b03166001600160e01b0319909316929092179091529050919050565b6080830151612aab9083612a09565b608083015161175b9082612be8565b612ac2612f4a565b6020820615612ad75760208206602003820191505b506020828101829052604080518085526000815290920101905290565b60178111612b1557612b0f8360e0600585901b168317612bf8565b5061175b565b60ff8111612b3f57612b32836018611fe0600586901b1617612bf8565b50612b0f83826001612c10565b61ffff8111612b6a57612b5d836019611fe0600586901b1617612bf8565b50612b0f83826002612c10565b63ffffffff8111612b9757612b8a83601a611fe0600586901b1617612bf8565b50612b0f83826004612c10565b6001600160401b03811161175b57612bba83601b611fe0600586901b1617612bf8565b506114db83826008612c10565b612bcf612f4a565b612be183846000015151848551612c31565b9392505050565b612bf482600083612af4565b5050565b612c00612f4a565b612be18384600001515184612cdd565b612c18612f4a565b612c29848560000151518585612d28565b949350505050565b612c39612f4a565b8251821115612c4757600080fd5b84602001518285011115612c7157612c7185612c698760200151878601612d86565b600202612d9d565b600080865180518760208301019350808887011115612c905787860182525b505050602084015b60208410612cb75780518252601f199093019260209182019101612c98565b51815160001960208690036101000a019081169019919091161790525083949350505050565b612ce5612f4a565b83602001518310612d0157612d01848560200151600202612d9d565b835180516020858301018481535080851415612d1e576001810182525b5093949350505050565b612d30612f4a565b84602001518483011115612d4d57612d4d85858401600202612d9d565b60006001836101000a039050855183868201018583198251161781525080518487011115612d7b5783860181525b509495945050505050565b600081831115612d9757508161087b565b50919050565b8151612da98383612aba565b506114db8382612bc7565b50805460018160011615610100020316600290046000825580601f10612dda5750611345565b601f0160209004906000526020600020908101906113459190612f64565b6040805160a081018252600080825260208201819052918101829052606081019190915260808101612e28612f4a565b905290565b828054600181600116156101000203166002900490600052602060002090601f016020900481019282601f10612e6e57805160ff1916838001178555612e9b565b82800160010185558215612e9b579182015b82811115612e9b578251825591602001919060010190612e80565b50612ea7929150612f64565b5090565b828054600181600116156101000203166002900490600052602060002090601f016020900481019282601f10612ee45780548555612e9b565b82800160010185558215612e9b57600052602060002091601f016020900482015b82811115612e9b578254825591600101919060010190612f05565b604051806060016040528060006001600160a01b0316815260200160008152602001606081525090565b604051806040016040528060608152602001600081525090565b5b80821115612ea75760008155600101612f65565b80356001600160a01b038116811461087b57600080fd5b600082601f830112612fa0578081fd5b8135612fb3612fae82613dfc565b613dd6565b8181529150602080830190848101604080850287018301881015612fd657600080fd5b60005b858110156111ca57612feb8984613091565b85529383019391810191600101612fd9565b60008083601f84011261300e578182fd5b5081356001600160401b03811115613024578182fd5b60208301915083602082850101111561303c57600080fd5b9250929050565b600082601f830112613053578081fd5b8135613061612fae82613e1b565b915080825283602082850101111561307857600080fd5b8060208401602084013760009082016020015292915050565b6000604082840312156130a2578081fd5b6130ac6040613dd6565b9050813581526020820135602082015292915050565b6000602082840312156130d3578081fd5b612be18383612f79565b6000806000604084860312156130f1578182fd5b6130fb8585612f79565b925060208401356001600160401b03811115613115578283fd5b61312186828701612ffd565b9497909650939450505050565b600080600080600060808688031215613145578081fd5b853561315081613e76565b94506020868101356001600160401b038082111561316c578384fd5b6131788a838b01612ffd565b90975095506040890135915080821115613190578384fd5b818901915089601f8301126131a3578384fd5b81356131b1612fae82613dfc565b81815284810190848601875b848110156131e6576131d48f8984358a0101613043565b845292870192908701906001016131bd565b509097505050506060890135925080831115613200578384fd5b505061320e88828901612f90565b9150509295509295909350565b60008060008060808587031215613230578384fd5b61323a8686612f79565b935060208501356001600160401b03811115613254578384fd5b61326087828801612ffd565b909450925061327490508660408701613091565b905092959194509250565b60008060408385031215613291578182fd5b823561329c81613e76565b915060208301356001600160401b038111156132b6578182fd5b6132c285828601613043565b9150509250929050565b600080604083850312156132de578182fd5b6132e88484612f79565b946020939093013593505050565b600060208284031215613307578081fd5b81518015158114612be1578182fd5b600060208284031215613327578081fd5b5035919050565b60008060408385031215613340578182fd5b50508035926020909101359150565b60008060408385031215613361578182fd5b505080516020909101519092909150565b60008060208385031215613384578182fd5b82356001600160401b03811115613399578283fd5b6133a585828601612ffd565b90969095509350505050565b6000806000604084860312156133c5578081fd5b83356001600160401b038111156133da578182fd5b6133e686828701612ffd565b909790965060209590950135949350505050565b60006020828403121561340b578081fd5b81356001600160401b03811115613420578182fd5b612c2984828501613043565b60006020828403121561343d578081fd5b81516001600160401b03811115613452578182fd5b8201601f81018413613462578182fd5b8051613470612fae82613e1b565b818152856020838501011115613484578384fd5b612382826020830160208601613e4a565b600080604083850312156134a7578182fd5b82356001600160401b038111156134bc578283fd5b6134c885828601613043565b95602094909401359450505050565b600081518084526134ef816020860160208601613e4a565b601f01601f19169290920160200192915050565b6000815460018082166000811461352157600181146135385761356a565b60ff198316865260028304607f168601935061356a565b600283048560005260208060002060005b838110156135625781548a820152908501908201613549565b505050860193505b50505092915050565b60008284528282602086013780602084860101526020601f19601f85011685010190509392505050565b600081546001808216600081146135bb57600181146135d95761356a565b60028304607f16865260ff198316602087015260408601935061356a565b600283048087526135e986613e3e565b60005b8281101561360d5781546020828b01015284820191506020810190506135ec565b88016020019550505050505092915050565b80518252602090810151910152565b6000612be18284613503565b60609290921b6bffffffffffffffffffffffff19168252601482015260340190565b6000828483379101908152919050565b6000825161367e818460208701613e4a565b9190910192915050565b6001600160a01b0391909116815260200190565b6001600160a01b03929092168252602082015260400190565b600060018060a01b0386168252846020830152606060408301526136dd606083018486613573565b9695505050505050565b600060018060a01b03871682528560208301526080604083015261370f608083018587613573565b90508260608301529695505050505050565b6001600160a01b03841681526040602082018190526000906123829083018486613573565b6001600160a01b03861681526080602080830182905260009161376c9084018789613573565b604084820381860152818751808452848401915084858202850101858a01875b838110156137ba57601f198784030185526137a88383516134d7565b9488019492509087019060010161378c565b5050878103606089015288518082529086019450915050838701855b828110156137f9576137e985835161361f565b93830193908501906001016137d6565b50929b9a5050505050505050505050565b6001600160a01b038516815260806020820181905260009061382f9083018587613573565b9050612382604083018461361f565b6001600160a01b0383168152604060208201819052600090612c29908301846134d7565b6001600160a01b03919091168152604060208201819052600b908201526a1d1dda5d1d195c941bdcdd60aa1b606082015260800190565b6001600160a01b039190911681526040602082018190526010908201526f74776974746572466f6c6c6f7765727360801b606082015260800190565b6001600160a01b03919091168152604060208201819052600890820152673932b3b4b9ba32b960c11b606082015260800190565b6001600160a01b0389811682526020820189905260408201889052861660608201526001600160e01b03198516608082015260a0810184905260c0810183905261010060e08201819052600090613962838201856134d7565b9b9a5050505050505050505050565b600060018060a01b03851682528360208301526060604083015261238260608301846134d7565b6020808252825182820181905260009190848201906040850190845b818110156139d0578351835292840192918401916001016139b4565b50909695505050505050565b901515815260200190565b90815260200190565b600060208252612be160208301846134d7565b600060408252613a1660408301856134d7565b905060018060a01b03831660208301529392505050565b600060408252613a40604083018561359d565b90508260208301529392505050565b600060608252613a62606083018661359d565b6020830194909452506001600160a01b0391909116604090910152919050565b60208082526030908201527f4465706f73697420646964206e6f742063616d652066726f6d2074686973204560408201526f3a3432b932bab69030b2323932b9b99760811b606082015260800190565b6020808252601c908201527f416d6f756e74206d7573742062652067726561746572207a65726f2e00000000604082015260600190565b60208082526016908201527527b930b1b632903237b2b9903737ba1032bc34b9ba1760511b604082015260600190565b60208082526026908201527f4f776e61626c653a206e6577206f776e657220697320746865207a65726f206160408201526564647265737360d01b606082015260800190565b60208082526023908201527f756e61626c6520746f207472616e73666572416e6443616c6c20746f206f7261604082015262636c6560e81b606082015260800190565b60208082526027908201527f4465706f736974206973206e6f7420666f72207468697320476974487562206160408201526631b1b7bab73a1760c91b606082015260800190565b6020808252601e908201527f4e6f7420656e6f7567682066756e647320746f20706179206761734665650000604082015260600190565b6020808252602e908201527f54686973206973737565206465706f73697420686173206265656e207769746860408201526d323930bbb71030b63932b0b23c9760911b606082015260800190565b6020808252818101527f4f776e61626c653a2063616c6c6572206973206e6f7420746865206f776e6572604082015260600190565b60208082526042908201527f4465706f73697420646964206e6f7420636f6d652066726f6d2074686973204560408201527f7468657265756d2061646472657373206f7220646f6573206e6f7420657869736060820152613a1760f11b608082015260a00190565b6020808252601a908201527f4f7261636c65206a6f6220646f6573206e6f742065786973742e000000000000604082015260600190565b60208082526028908201527f536f75726365206d75737420626520746865206f7261636c65206f6620746865604082015267081c995c5d595cdd60c21b606082015260800190565b6020808252601290820152712cb7ba9036bab9ba1039b2b7321022aa241760711b604082015260600190565b6040518181016001600160401b0381118282101715613df457600080fd5b604052919050565b60006001600160401b03821115613e11578081fd5b5060209081020190565b60006001600160401b03821115613e30578081fd5b50601f01601f191660200190565b60009081526020902090565b60005b83811015613e65578181015183820152602001613e4d565b838111156114db5750506000910152565b6001600160a01b038116811461134557600080fdfe7cc135e0cebb02c3480ae5d74d377283180a2601f8f644edf7987b009316c63aa26469706673582212202bd8b5410ba74d9831d9becfe29ab8ef711989aac0e43877a4caaaa005ee432f64736f6c634300060c0033",
  "immutableReferences": {},
  "source": "// SPDX-License-Identifier: MIT\npragma solidity ^0.6.0;\npragma experimental ABIEncoderV2;\n\nimport '@openzeppelin/contracts/token/ERC20/ERC20.sol';\nimport '@openzeppelin/contracts/access/Ownable.sol';\nimport '@chainlink/contracts/src/v0.6/ChainlinkClient.sol';\nimport '@opengsn/gsn/contracts/BaseRelayRecipient.sol';\nimport '@opengsn/gsn/contracts/BasePaymaster.sol';\nimport './OctobayVisibilityToken.sol';\nimport './UserAddressStorage.sol';\nimport './OracleStorage.sol';\n\ncontract Octobay is Ownable, ChainlinkClient, BaseRelayRecipient {\n\n    // TODO: Add more events related to user withdrawls\n    event IssueDepositEvent(address from, uint256 amount, string issueId, uint256 depositId);\n    event TwitterPostEvent(string issueId, bytes32 tweetId);\n\n    struct IssueDeposit {\n        address from;\n        uint256 amount;\n        string issueId;\n    }\n    mapping(uint256 => IssueDeposit) public issueDeposits;\n    uint256 public nextIssueDepositId = 0;\n    mapping(string => uint256[]) public issueDepositIdsByIssueId;\n    mapping(address => uint256[]) public issueDepositIdsBySender;\n    mapping(string => uint256) public issueDepositsAmountByIssueId;\n\n    mapping(string => uint256) public issuePins;\n\n    OctobayVisibilityToken public ovt;\n\n    string public twitterAccountId;\n    uint256 public twitterFollowers;\n    mapping(bytes32 => string) public pendingTwitterPostsIssueIds;\n\n    constructor(\n        address _link,\n        address _forwarder,\n        address _ovt,\n        address _userAddressStorage,\n        address _oracleStorage\n    ) public {\n        setChainlinkToken(_link);\n        trustedForwarder = _forwarder; // GSN trusted forwarder\n        userAddressStorage = UserAddressStorage(_userAddressStorage);\n        oracleStorage = OracleStorage(_oracleStorage);\n        ovt = OctobayVisibilityToken(_ovt);\n    }\n\n    function setTwitterAccountId(string memory _accountId) external onlyOwner {\n        twitterAccountId = _accountId;\n        twitterFollowers = 0;\n    }\n\n    function pinIssue(string memory _issueId, uint256 _amount) public {\n        require(_amount > 0, 'Amount must be greater zero.');\n        ovt.burn(msg.sender, _amount);\n        issuePins[_issueId] += _amount;\n    }\n\n\n\n\n\n    // ------------ Oracles ------------ //\n\n\n    OracleStorage oracleStorage;\n\n    modifier oracleHandlesJob(address _oracle, string memory _jobName) {\n        require(oracleStorage.oracleExists(_oracle), \"Oracle does not exist.\");\n        require(oracleStorage.oracleJobExists(_oracle, _jobName), \"Oracle job does not exist.\");\n        _;\n    }\n\n    function addOracle(\n        address _oracle,\n        string calldata _name,\n        string[] memory _jobNames,\n        OracleStorage.Job[] memory _jobs\n    ) external onlyOwner {\n        oracleStorage.addOracle(_oracle, _name, _jobNames, _jobs);\n    }\n\n    function removeOracle(address _oracle) external onlyOwner {\n        oracleStorage.removeOracle(_oracle);\n    }\n\n    function changeOracleName(address _oracle, string calldata _name) external onlyOwner {\n        oracleStorage.changeOracleName(_oracle, _name);\n    }\n\n    function addOracleJob(\n        address _oracle,\n        string calldata _jobName,\n        OracleStorage.Job memory _job\n    ) external onlyOwner {\n        oracleStorage.addOracleJob(_oracle, _jobName, _job);\n    }\n\n    function removeOracleJob(address _oracle, string calldata _jobName) external onlyOwner {\n        oracleStorage.removeOracleJob(_oracle, _jobName);\n    }\n    \n\n\n\n\n    // ------------ GSN ------------ //\n\n\n    address octobayPaymaster;\n\n    function setPaymaster(address _octobayPaymaster) external onlyOwner {\n        octobayPaymaster = _octobayPaymaster;\n    }\n\n    function _msgSender() internal override(Context, BaseRelayRecipient)\n    view returns (address payable) {\n        return BaseRelayRecipient._msgSender();\n    }\n\n    function _msgData() internal override(Context, BaseRelayRecipient)\n    view returns (bytes memory ret) {\n        return BaseRelayRecipient._msgData();\n    }\n\n    string public override versionRecipient = '2.0.0'; // GSN version\n\n    function deductGasFee(string calldata _githubUserId, uint256 _amount)\n        external\n    {\n        // only paymaster, cause paymaster pays for gas fee on behalf of user\n        require(msg.sender == octobayPaymaster);\n        require(userClaimAmountByGithbUserId[_githubUserId] >= _amount, 'Not enough funds to pay gasFee');\n\n        userClaimAmountByGithbUserId[_githubUserId] -= _amount;\n    }\n\n\n\n\n\n    // ------------ REGISTRATION ------------ //\n\n\n    UserAddressStorage public userAddressStorage;\n\n    struct UserAddressRegistration {\n        string githubUserId;\n        address ethAddress;\n    }\n\n    mapping(bytes32 => UserAddressRegistration) public userAddressRegistrations;\n\n    function registerUserAddress(\n        address _oracle,\n        string calldata _githubUserId\n    ) public oracleHandlesJob(_oracle, 'register') returns(bytes32 requestId) {\n        (bytes32 jobId, uint256 jobFee) = oracleStorage.getOracleJob(_oracle, 'register');\n        Chainlink.Request memory request =\n            buildChainlinkRequest(\n                jobId,\n                address(this),\n                this.confirmRegisterUserAddress.selector\n            );\n        request.add('githubUserId', _githubUserId);\n        request.add('ethAddress', addressToIntString(_msgSender()));\n        requestId = sendChainlinkRequestTo(_oracle, request, jobFee);\n\n        userAddressRegistrations[requestId] = UserAddressRegistration(_githubUserId, _msgSender());\n    }\n\n    function confirmRegisterUserAddress(bytes32 _requestId, bytes32 _addressName)\n        public\n        recordChainlinkFulfillment(_requestId)\n    {\n        userAddressStorage.addUserAddress(\n            userAddressRegistrations[_requestId].githubUserId,\n            _addressName,\n            userAddressRegistrations[_requestId].ethAddress\n        );\n\n        delete userAddressRegistrations[_requestId];\n    }\n\n\n\n\n\n    // ------------ TWITTER ------------ //\n\n\n    function twitterPost(\n        address _oracle,\n        string memory _issueId\n    ) internal oracleHandlesJob(_oracle, 'twitterPost') returns(bytes32 requestId) {\n        (bytes32 jobId, uint256 jobFee) = oracleStorage.getOracleJob(_oracle, 'twitterPost');\n        Chainlink.Request memory request =\n            buildChainlinkRequest(\n                jobId,\n                address(this),\n                this.twitterPostConfirm.selector\n            );\n        request.add('issueId', _issueId);\n        request.addUint('amount', issueDepositsAmountByIssueId[_issueId]);\n        requestId = sendChainlinkRequestTo(_oracle, request, jobFee);\n    }\n\n    function twitterPostConfirm(bytes32 _requestId, bytes32 _tweetId)\n        public\n        recordChainlinkFulfillment(_requestId)\n    {\n        emit TwitterPostEvent(pendingTwitterPostsIssueIds[_requestId], _tweetId);\n    }\n\n    function updateTwitterFollowersAndPost(\n        address _oracle,\n        string memory _issueId\n    ) public oracleHandlesJob(_oracle, 'twitterFollowers') returns(bytes32 requestId) {\n        (bytes32 jobId, uint256 jobFee) = oracleStorage.getOracleJob(_oracle, 'twitterFollowers');\n        Chainlink.Request memory request =\n            buildChainlinkRequest(\n                jobId,\n                address(this),\n                this.updateTwitterFollowersConfirm.selector\n            );\n        request.add('accountId', twitterAccountId);\n        requestId = sendChainlinkRequestTo(_oracle, request, jobFee);\n        pendingTwitterPostsIssueIds[requestId] = _issueId;\n    }\n\n    function updateTwitterFollowersConfirm(bytes32 _requestId, uint256 _followers)\n        public\n        recordChainlinkFulfillment(_requestId)\n    {\n        twitterFollowers = _followers;\n        bytes32 postRequestId = twitterPost(msg.sender, pendingTwitterPostsIssueIds[_requestId]);\n        pendingTwitterPostsIssueIds[postRequestId] = pendingTwitterPostsIssueIds[_requestId];\n        delete pendingTwitterPostsIssueIds[_requestId];\n    }\n\n\n\n\n\n    // ------------ USER DEPOSITS ------------ //\n\n\n    event UserDepositEvent(address from, uint256 amount, string githubUser);\n\n    mapping(string => uint256) public userClaimAmountByGithbUserId;\n\n    struct UserDeposit {\n        address from;\n        uint256 amount;\n        string githubUserId;\n    }\n\n    uint256 private nextUserDepositId = 0;\n\n    mapping(uint256 => UserDeposit) public userDeposits;\n\n    mapping(string => uint256[]) public userDepositIdsByGithubUserId;\n\n    mapping(address => uint256[]) public userDepositIdsBySender;\n\n    function depositEthForGithubUser(string calldata _githubUserId)\n        external\n        payable\n    {\n        require(msg.value > 0, 'You must send ETH.');\n\n        nextUserDepositId++;\n        userDeposits[nextUserDepositId] = UserDeposit(\n            msg.sender,\n            msg.value,\n            _githubUserId\n        );\n        userDepositIdsByGithubUserId[_githubUserId].push(nextUserDepositId);\n        userDepositIdsBySender[msg.sender].push(nextUserDepositId);\n\n        // increment claim amount\n        userClaimAmountByGithbUserId[_githubUserId] += msg.value;\n\n        emit UserDepositEvent(msg.sender, msg.value, _githubUserId);\n    }\n\n    function _sendDeposit(uint256 _depositId, address _to) internal {\n        UserDeposit memory deposit = userDeposits[_depositId];\n        payable(_to).transfer(deposit.amount);\n\n        // reduce claim amount\n        userClaimAmountByGithbUserId[deposit.githubUserId] -= deposit.amount;\n\n        delete userDeposits[_depositId];\n    }\n\n    function refundUserDeposit(uint256 _depositId) external {\n        require(\n            userDeposits[_depositId].from == msg.sender,\n            'Deposit did not came from this Ethereum address.'\n        );\n        _sendDeposit(_depositId, msg.sender);   // msg.sender is depositor\n    }\n\n    function withdrawUserDeposit(uint256 _depositId) external {\n        require(\n            keccak256(bytes(userDeposits[_depositId].githubUserId)) ==\n                keccak256(\n                    bytes(userAddressStorage.userIdsByAddress(msg.sender))\n                ),\n            'Deposit is not for this GitHub account.'\n        );\n        _sendDeposit(_depositId, msg.sender);   // msg.sender is user\n    }\n\n\n\n\n\n    // ------------ ISSUE DEPOSITS ------------ //\n\n\n    function depositEthForIssue(string calldata _issueId) external payable {\n        require(msg.value > 0, 'You must send ETH.');\n        nextIssueDepositId++;\n        issueDeposits[nextIssueDepositId] = IssueDeposit(\n            msg.sender,\n            msg.value,\n            _issueId\n        );\n        issueDepositIdsByIssueId[_issueId].push(nextIssueDepositId);\n        issueDepositIdsBySender[msg.sender].push(nextIssueDepositId);\n        issueDepositsAmountByIssueId[_issueId] += msg.value;\n        emit IssueDepositEvent(msg.sender, msg.value, _issueId, nextIssueDepositId);\n    }\n\n    function refundIssueDeposit(uint256 _depositId) external {\n        require(\n            issueDeposits[_depositId].from == msg.sender,\n            'Deposit did not come from this Ethereum address or does not exist.'\n        );\n        require(\n            issueDepositsAmountByIssueId[issueDeposits[_depositId].issueId] >=\n                issueDeposits[_depositId].amount,\n            'This issue deposit has been withdrawn already.'\n        );\n        payable(msg.sender).transfer(issueDeposits[_depositId].amount);\n        issueDepositsAmountByIssueId[\n            issueDeposits[_depositId].issueId\n        ] -= issueDeposits[_depositId].amount;\n        delete issueDeposits[_depositId];\n    }\n\n\n\n\n\n    // ------------ GETTERS ------------ //\n\n\n     function getUserDepositIdsForGithubUserId(string calldata _githubUserId)\n        external\n        view\n        returns (uint256[] memory)\n    {\n        return userDepositIdsByGithubUserId[_githubUserId];\n    }\n\n    function getUserDepositIdsForSender()\n        external\n        view\n        returns (uint256[] memory)\n    {\n        return userDepositIdsBySender[msg.sender];\n    }\n\n    function getIssueDepositIdsForIssueId(string calldata _issueId)\n        external\n        view\n        returns (uint256[] memory)\n    {\n        return issueDepositIdsByIssueId[_issueId];\n    }\n\n    function getIssueDepositIdsForSender()\n        external\n        view\n        returns (uint256[] memory)\n    {\n        return issueDepositIdsBySender[msg.sender];\n    }\n\n    function getUserClaimAmount(string calldata _githubUserId)\n        external\n        view\n        returns (uint256)\n    {\n        return userClaimAmountByGithbUserId[_githubUserId];\n    }\n\n    \n\n\n\n    // ------------ UTILS ------------ //\n\n\n    function addressToIntString(address _address)\n        internal\n        pure\n        returns (string memory _string)\n    {\n        uint256 _i = uint256(_address);\n        if (_i == 0) {\n            return '0';\n        }\n        uint256 j = _i;\n        uint256 len;\n        while (j != 0) {\n            len++;\n            j /= 10;\n        }\n        bytes memory bstr = new bytes(len);\n        uint256 k = len - 1;\n        while (_i != 0) {\n            bstr[k--] = bytes1(uint8(48 + (_i % 10)));\n            _i /= 10;\n        }\n        return string(bstr);\n    }\n}\n",
  "sourcePath": "/home/mkt/Projects/octobay/contracts/contracts/Octobay.sol",
  "compiler": {
    "name": "solc",
    "version": "0.6.12+commit.27d51765.Emscripten.clang"
  },
  "schemaVersion": "3.2.5",
  "updatedAt": "2021-03-10T23:18:46.514Z",
  "devdoc": {
    "kind": "dev",
    "methods": {
      "owner()": {
        "details": "Returns the address of the current owner."
      },
      "renounceOwnership()": {
        "details": "Leaves the contract without owner. It will not be possible to call `onlyOwner` functions anymore. Can only be called by the current owner. NOTE: Renouncing ownership will leave the contract without an owner, thereby removing any functionality that is only available to the owner."
      },
      "transferOwnership(address)": {
        "details": "Transfers ownership of the contract to a new account (`newOwner`). Can only be called by the current owner."
      }
    },
    "version": 1
  },
  "userdoc": {
    "kind": "user",
    "methods": {
      "isTrustedForwarder(address)": {
        "notice": "return if the forwarder is trusted to forward relayed transactions to us. the forwarder is required to verify the sender's signature, and verify the call is not a replay."
      }
    },
    "version": 1
  }
}