{
  "contractName": "OctobayGovernor",
  "abi": [
    {
      "inputs": [
        {
          "internalType": "address",
          "name": "_octobayGovNFT",
          "type": "address"
        }
      ],
      "stateMutability": "nonpayable",
      "type": "constructor"
    },
    {
      "anonymous": false,
      "inputs": [
        {
          "indexed": false,
          "internalType": "string",
          "name": "projectId",
          "type": "string"
        },
        {
          "indexed": false,
          "internalType": "uint16",
          "name": "newProposalShare",
          "type": "uint16"
        },
        {
          "indexed": false,
          "internalType": "uint16",
          "name": "minQuorum",
          "type": "uint16"
        },
        {
          "indexed": false,
          "internalType": "string",
          "name": "tokenName",
          "type": "string"
        },
        {
          "indexed": false,
          "internalType": "string",
          "name": "tokenSymbol",
          "type": "string"
        },
        {
          "indexed": false,
          "internalType": "address",
          "name": "tokenAddress",
          "type": "address"
        }
      ],
      "name": "DepartmentCreatedEvent",
      "type": "event"
    },
    {
      "anonymous": false,
      "inputs": [
        {
          "indexed": true,
          "internalType": "address",
          "name": "previousOwner",
          "type": "address"
        },
        {
          "indexed": true,
          "internalType": "address",
          "name": "newOwner",
          "type": "address"
        }
      ],
      "name": "OwnershipTransferred",
      "type": "event"
    },
    {
      "anonymous": false,
      "inputs": [
        {
          "indexed": false,
          "internalType": "address",
          "name": "tokenAddress",
          "type": "address"
        },
        {
          "indexed": false,
          "internalType": "string",
          "name": "discussionId",
          "type": "string"
        },
        {
          "indexed": false,
          "internalType": "uint256",
          "name": "startDate",
          "type": "uint256"
        },
        {
          "indexed": false,
          "internalType": "uint256",
          "name": "endDate",
          "type": "uint256"
        },
        {
          "indexed": false,
          "internalType": "uint16",
          "name": "quorum",
          "type": "uint16"
        },
        {
          "indexed": false,
          "internalType": "address",
          "name": "creator",
          "type": "address"
        },
        {
          "indexed": false,
          "internalType": "uint256",
          "name": "proposalId",
          "type": "uint256"
        }
      ],
      "name": "ProposalCreatedEvent",
      "type": "event"
    },
    {
      "anonymous": false,
      "inputs": [
        {
          "indexed": false,
          "internalType": "string",
          "name": "oldProjectId",
          "type": "string"
        },
        {
          "indexed": false,
          "internalType": "string",
          "name": "newProjectId",
          "type": "string"
        },
        {
          "indexed": false,
          "internalType": "address",
          "name": "tokenAddr",
          "type": "address"
        }
      ],
      "name": "UpdatedProjectId",
      "type": "event"
    },
    {
      "anonymous": false,
      "inputs": [
        {
          "indexed": false,
          "internalType": "string",
          "name": "projectId",
          "type": "string"
        },
        {
          "indexed": false,
          "internalType": "uint256",
          "name": "proposalId",
          "type": "uint256"
        },
        {
          "indexed": false,
          "internalType": "int16",
          "name": "vote",
          "type": "int16"
        },
        {
          "indexed": false,
          "internalType": "address",
          "name": "voter",
          "type": "address"
        }
      ],
      "name": "VoteCastEvent",
      "type": "event"
    },
    {
      "inputs": [
        {
          "internalType": "string",
          "name": "",
          "type": "string"
        }
      ],
      "name": "governorsByProjectId",
      "outputs": [
        {
          "internalType": "bool",
          "name": "isValue",
          "type": "bool"
        },
        {
          "internalType": "uint256",
          "name": "proposalCount",
          "type": "uint256"
        },
        {
          "internalType": "uint16",
          "name": "newProposalShare",
          "type": "uint16"
        },
        {
          "internalType": "uint16",
          "name": "minQuorum",
          "type": "uint16"
        }
      ],
      "stateMutability": "view",
      "type": "function",
      "constant": true
    },
    {
      "inputs": [],
      "name": "octobayGovNFT",
      "outputs": [
        {
          "internalType": "contract OctobayGovNFT",
          "name": "",
          "type": "address"
        }
      ],
      "stateMutability": "view",
      "type": "function",
      "constant": true
    },
    {
      "inputs": [],
      "name": "owner",
      "outputs": [
        {
          "internalType": "address",
          "name": "",
          "type": "address"
        }
      ],
      "stateMutability": "view",
      "type": "function",
      "constant": true
    },
    {
      "inputs": [],
      "name": "renounceOwnership",
      "outputs": [],
      "stateMutability": "nonpayable",
      "type": "function"
    },
    {
      "inputs": [
        {
          "internalType": "address",
          "name": "_octobay",
          "type": "address"
        }
      ],
      "name": "setOctobay",
      "outputs": [],
      "stateMutability": "nonpayable",
      "type": "function"
    },
    {
      "inputs": [
        {
          "internalType": "string",
          "name": "",
          "type": "string"
        }
      ],
      "name": "tokensByProjectId",
      "outputs": [
        {
          "internalType": "contract OctobayGovToken",
          "name": "",
          "type": "address"
        }
      ],
      "stateMutability": "view",
      "type": "function",
      "constant": true
    },
    {
      "inputs": [
        {
          "internalType": "address",
          "name": "newOwner",
          "type": "address"
        }
      ],
      "name": "transferOwnership",
      "outputs": [],
      "stateMutability": "nonpayable",
      "type": "function"
    },
    {
      "inputs": [
        {
          "internalType": "string",
          "name": "_projectId",
          "type": "string"
        },
        {
          "internalType": "uint16",
          "name": "_newProposalShare",
          "type": "uint16"
        },
        {
          "internalType": "uint16",
          "name": "_minQuorum",
          "type": "uint16"
        },
        {
          "internalType": "string",
          "name": "_name",
          "type": "string"
        },
        {
          "internalType": "string",
          "name": "_symbol",
          "type": "string"
        }
      ],
      "name": "createGovernorAndToken",
      "outputs": [
        {
          "internalType": "contract OctobayGovToken",
          "name": "newToken",
          "type": "address"
        }
      ],
      "stateMutability": "nonpayable",
      "type": "function"
    },
    {
      "inputs": [
        {
          "internalType": "string",
          "name": "_projectId",
          "type": "string"
        },
        {
          "internalType": "uint16",
          "name": "_newProposalShare",
          "type": "uint16"
        },
        {
          "internalType": "uint16",
          "name": "_minQuorum",
          "type": "uint16"
        }
      ],
      "name": "createGovernor",
      "outputs": [],
      "stateMutability": "nonpayable",
      "type": "function"
    },
    {
      "inputs": [
        {
          "internalType": "address",
          "name": "_tokenAddress",
          "type": "address"
        },
        {
          "internalType": "string",
          "name": "_projectId",
          "type": "string"
        },
        {
          "internalType": "string",
          "name": "_discussionId",
          "type": "string"
        },
        {
          "internalType": "uint256",
          "name": "_startDate",
          "type": "uint256"
        },
        {
          "internalType": "uint256",
          "name": "_endDate",
          "type": "uint256"
        },
        {
          "internalType": "uint16",
          "name": "_quorum",
          "type": "uint16"
        }
      ],
      "name": "createProposal",
      "outputs": [],
      "stateMutability": "nonpayable",
      "type": "function"
    },
    {
      "inputs": [
        {
          "internalType": "string",
          "name": "_projectId",
          "type": "string"
        },
        {
          "internalType": "uint256",
          "name": "_proposalId",
          "type": "uint256"
        }
      ],
      "name": "proposalState",
      "outputs": [
        {
          "internalType": "enum OctobayGovernor.ProposalState",
          "name": "",
          "type": "uint8"
        }
      ],
      "stateMutability": "view",
      "type": "function",
      "constant": true
    },
    {
      "inputs": [
        {
          "internalType": "string",
          "name": "_projectId",
          "type": "string"
        },
        {
          "internalType": "uint256",
          "name": "_proposalId",
          "type": "uint256"
        },
        {
          "internalType": "int16",
          "name": "_vote",
          "type": "int16"
        }
      ],
      "name": "castVote",
      "outputs": [],
      "stateMutability": "nonpayable",
      "type": "function"
    },
    {
      "inputs": [
        {
          "internalType": "string",
          "name": "_name",
          "type": "string"
        },
        {
          "internalType": "string",
          "name": "_symbol",
          "type": "string"
        },
        {
          "internalType": "string",
          "name": "_projectId",
          "type": "string"
        }
      ],
      "name": "createToken",
      "outputs": [
        {
          "internalType": "contract OctobayGovToken",
          "name": "",
          "type": "address"
        }
      ],
      "stateMutability": "nonpayable",
      "type": "function"
    },
    {
      "inputs": [
        {
          "internalType": "string",
          "name": "_oldProjectId",
          "type": "string"
        },
        {
          "internalType": "string",
          "name": "_newProjectId",
          "type": "string"
        }
      ],
      "name": "updateProjectId",
      "outputs": [],
      "stateMutability": "nonpayable",
      "type": "function"
    }
  ],
  "bytecode": "0x60806040523480156200001157600080fd5b50604051620035e8380380620035e88339810160408190526200003491620000b4565b600062000040620000b0565b600080546001600160a01b0319166001600160a01b0383169081178255604051929350917f8be0079c531659141344cd1fd0a4f28419497f9722a3daafe3b4186f6b6457e0908290a350600380546001600160a01b0319166001600160a01b0392909216919091179055620000e4565b3390565b600060208284031215620000c6578081fd5b81516001600160a01b0381168114620000dd578182fd5b9392505050565b6134f480620000f46000396000f3fe60806040523480156200001157600080fd5b5060043610620000dc5760003560e01c8063a1ee05531162000087578063a1ee05531462000182578063b910b63314620001a8578063c4cb379314620001b2578063f04c9a9a14620001c9578063f2fde38b14620001f2578063f380e05c1462000209578063f390b69b146200022057620000dc565b8063056444df14620000e157806363eb268614620000fa578063715018a6146200012957806375f9f416146200013357806385c52e4b146200014a5780638da5cb5b146200016157806394aed7d0146200016b575b600080fd5b620000f8620000f236600462001372565b62000237565b005b620001116200010b36600462001437565b62000701565b604051620001209190620017ae565b60405180910390f35b620000f862000727565b6200011162000144366004620015d2565b620007ab565b620000f86200015b36600462001475565b62000843565b6200011162000970565b620001116200017c366004620014dc565b6200097f565b62000199620001933660046200168d565b62000a9c565b60405162000120919062001877565b6200011162000be9565b620000f8620001c336600462001569565b62000bf8565b620001e0620001da36600462001437565b62000d14565b60405162000120949392919062001853565b620000f8620002033660046200134d565b62000d56565b620000f86200021a3660046200134d565b62000e14565b620000f862000231366004620016d3565b62000e70565b60028560405162000249919062001790565b9081526040519081900360200190205460ff16620002845760405162461bcd60e51b81526004016200027b9062001c67565b60405180910390fd5b600060028660405162000298919062001790565b908152602001604051809103902090506000600487604051620002bc919062001790565b908152604051908190036020019020546001600160a01b0316905080620002f75760405162461bcd60e51b81526004016200027b90620019aa565b60028201546040516314eed2e760e31b815260009161ffff16906001600160a01b0384169063a77697389062000332903390600401620017ae565b60206040518083038186803b1580156200034b57600080fd5b505afa15801562000360573d6000803e3d6000fd5b505050506040513d601f19601f820116820180604052508101906200038691906200172a565b61ffff16106200039957506001620004c3565b600354604051635a47d15760e11b81526000916001600160a01b03169063b48fa2ae90620003ce9033908d90600401620017c2565b60206040518083038186803b158015620003e757600080fd5b505afa158015620003fc573d6000803e3d6000fd5b505050506040513d601f19601f8201168201806040525081019062000422919062001749565b90508015801590620004b657506003805460405163ceb0d74760e01b81526001600160a01b039091169163ceb0d747916200046291859160040162001d1a565b60206040518083038186803b1580156200047b57600080fd5b505afa15801562000490573d6000803e3d6000fd5b505050506040513d601f19601f82011682018060405250810190620004b6919062001415565b15620004c157600191505b505b80620004e35760405162461bcd60e51b81526004016200027b9062001cb1565b620004ed6200115f565b604051806101200160405280600115158152602001336001600160a01b031681526020018981526020018881526020018781526020018661ffff168152602001600060010b8152602001846001600160a01b0316639711715a6040518163ffffffff1660e01b8152600401602060405180830381600087803b1580156200057357600080fd5b505af115801562000588573d6000803e3d6000fd5b505050506040513d601f19601f82011682018060405250810190620005ae919062001749565b81526001600160a01b03808616602092830152600180880180548201908190556000908152600389018452604090819020855181548787015190951661010002610100600160a81b031991151560ff1990961695909517169390931783558401518051949550859492936200062a9392850192910190620011c6565b50606082015160028201556080820151600382015560a082015160048201805460c085015161ffff1990911661ffff9384161763ffff0000191662010000600192830b949094169390930292909217905560e0830151600583015561010090920151600690910180546001600160a01b0319166001600160a01b039092169190911790558401546040517fe191330d4636ca47c7e38303db80eb04badf07d479b5e3868d1195f19c1baffe91620006ed918d918c918c918c918c91339162001801565b60405180910390a150505050505050505050565b80516020818301810180516004825292820191909301209152546001600160a01b031681565b620007316200115b565b6000546001600160a01b03908116911614620007615760405162461bcd60e51b81526004016200027b9062001b85565b600080546040516001600160a01b03909116907f8be0079c531659141344cd1fd0a4f28419497f9722a3daafe3b4186f6b6457e0908390a3600080546001600160a01b0319169055565b6001546000906001600160a01b03163314620007db5760405162461bcd60e51b81526004016200027b90620019f1565b620007e886868662000bf8565b620007f58383886200097f565b90507f42005b6fc697739eff896094bf4d332eab769891af5a0aa57f3edc13a2400de0868686868686604051620008329695949392919062001900565b60405180910390a195945050505050565b6001546001600160a01b03163314620008705760405162461bcd60e51b81526004016200027b90620019f1565b600060048360405162000884919062001790565b908152604051908190036020019020546001600160a01b0316905080620008bf5760405162461bcd60e51b81526004016200027b9062001aeb565b600483604051620008d1919062001790565b90815260405190819003602001812080546001600160a01b031916905581906004906200090090859062001790565b90815260405190819003602001812080546001600160a01b03939093166001600160a01b0319909316929092179091557fc19ffaa96ba6d2dbe37bd245d9f2287311e447d1aa68454ef45b7fd98944ca53906200096390859085908590620018be565b60405180910390a1505050565b6000546001600160a01b031690565b6001546000906001600160a01b03163314620009af5760405162461bcd60e51b81526004016200027b90620019f1565b60008484604051620009c1906200124b565b620009ce9291906200188c565b604051809103906000f080158015620009eb573d6000803e3d6000fd5b50604051633ce0381760e21b81529091506001600160a01b0382169063f380e05c9062000a1d903390600401620017ae565b600060405180830381600087803b15801562000a3857600080fd5b505af115801562000a4d573d6000803e3d6000fd5b505050508060048460405162000a64919062001790565b90815260405190819003602001902080546001600160a01b03929092166001600160a01b031990921691909117905590509392505050565b6000828260028260405162000ab2919062001790565b9081526040519081900360200190205460ff1662000ae45760405162461bcd60e51b81526004016200027b9062001c67565b60028260405162000af6919062001790565b90815260408051602092819003830190206000848152600390910190925290205460ff1662000b395760405162461bcd60e51b81526004016200027b9062001b3a565b600060028660405162000b4d919062001790565b908152602001604051809103902060030160008681526020019081526020016000209050806002015442101562000b8957600093505062000be1565b8060020154421015801562000ba15750806003015442105b1562000bb257600193505062000be1565b600481015461ffff811662010000909104600190810b900b1262000bdb57600393505062000be1565b60029350505b505092915050565b6003546001600160a01b031681565b6001546001600160a01b0316331462000c255760405162461bcd60e51b81526004016200027b90620019f1565b60028360405162000c37919062001790565b9081526040519081900360200190205460ff161562000c6a5760405162461bcd60e51b81526004016200027b9062001c1c565b62000c7462001259565b5060408051608081018252600181526000602082015261ffff80851682840152831660608201529051819060029062000caf90879062001790565b90815260408051602092819003830190208351815460ff19169015151781559183015160018301558201516002909101805460609093015161ffff1990931661ffff9283161763ffff0000191662010000929093169190910291909117905550505050565b80516020818301810180516002808352938301929094019190912092905281546001830154929091015460ff909116919061ffff808216916201000090041684565b62000d606200115b565b6000546001600160a01b0390811691161462000d905760405162461bcd60e51b81526004016200027b9062001b85565b6001600160a01b03811662000db95760405162461bcd60e51b81526004016200027b9062001a48565b600080546040516001600160a01b03808516939216917f8be0079c531659141344cd1fd0a4f28419497f9722a3daafe3b4186f6b6457e091a3600080546001600160a01b0319166001600160a01b0392909216919091179055565b62000e1e6200115b565b6000546001600160a01b0390811691161462000e4e5760405162461bcd60e51b81526004016200027b9062001b85565b600180546001600160a01b0319166001600160a01b0392909216919091179055565b828260028260405162000e84919062001790565b9081526040519081900360200190205460ff1662000eb65760405162461bcd60e51b81526004016200027b9062001c67565b60028260405162000ec8919062001790565b90815260408051602092819003830190206000848152600390910190925290205460ff1662000f0b5760405162461bcd60e51b81526004016200027b9062001b3a565b600060028660405162000f1f919062001790565b90815260408051602092819003830190206000888152600390910190925290209050600162000f4f878762000a9c565b600381111562000f5b57fe5b1462000f7b5760405162461bcd60e51b81526004016200027b9062001bec565b33600090815260078201602052604090205460ff161562000fb05760405162461bcd60e51b81526004016200027b9062001bba565b6000808560010b1262000fc7578460010b62000fd0565b846000190260010b5b6006830154600584015460405163a9456ec360e01b815292935083926001600160a01b039092169163a9456ec3916200100f91339190600401620017e8565b60206040518083038186803b1580156200102857600080fd5b505afa1580156200103d573d6000803e3d6000fd5b505050506040513d601f19601f820116820180604052508101906200106391906200172a565b61ffff161015620010885760405162461bcd60e51b81526004016200027b9062001a8e565b60048201805462010000808204600190810b8901900b61ffff160263ffff000019909116179055620010b962001280565b50604080518082018252600180825287810b6020808401918252336000818152600789019092529085902084518154935190940b61ffff166101000262ffff001994151560ff19909416939093179390931691909117909155915190917f31dc9b7a9074b2984f0e24e4d77d4f1682771e2f1d75e3a8e7b1523486434f359162001149918b918b918b916200196d565b60405180910390a15050505050505050565b3390565b60405180610120016040528060001515815260200160006001600160a01b03168152602001606081526020016000815260200160008152602001600061ffff168152602001600060010b81526020016000815260200160006001600160a01b031681525090565b828054600181600116156101000203166002900490600052602060002090601f016020900481019282601f106200120957805160ff191683800117855562001239565b8280016001018555821562001239579182015b82811115620012395782518255916020019190600101906200121c565b506200124792915062001297565b5090565b6117338062001d8c83390190565b60408051608081018252600080825260208201819052918101829052606081019190915290565b604080518082019091526000808252602082015290565b5b8082111562001247576000815560010162001298565b80356001600160a01b0381168114620012c657600080fd5b92915050565b600082601f830112620012dd578081fd5b81356001600160401b0380821115620012f4578283fd5b604051601f8301601f19168101602001828111828210171562001315578485fd5b6040528281529250828483016020018610156200133157600080fd5b8260208601602083013760006020848301015250505092915050565b6000602082840312156200135f578081fd5b6200136b8383620012ae565b9392505050565b60008060008060008060c087890312156200138b578182fd5b620013978888620012ae565b955060208701356001600160401b0380821115620013b3578384fd5b620013c18a838b01620012cc565b96506040890135915080821115620013d7578384fd5b50620013e689828a01620012cc565b945050606087013592506080870135915060a0870135620014078162001d7a565b809150509295509295509295565b60006020828403121562001427578081fd5b815180151581146200136b578182fd5b60006020828403121562001449578081fd5b81356001600160401b038111156200145f578182fd5b6200146d84828501620012cc565b949350505050565b6000806040838503121562001488578182fd5b82356001600160401b03808211156200149f578384fd5b620014ad86838701620012cc565b93506020850135915080821115620014c3578283fd5b50620014d285828601620012cc565b9150509250929050565b600080600060608486031215620014f1578283fd5b83356001600160401b038082111562001508578485fd5b6200151687838801620012cc565b945060208601359150808211156200152c578384fd5b6200153a87838801620012cc565b9350604086013591508082111562001550578283fd5b506200155f86828701620012cc565b9150509250925092565b6000806000606084860312156200157e578283fd5b83356001600160401b0381111562001594578384fd5b620015a286828701620012cc565b9350506020840135620015b58162001d7a565b91506040840135620015c78162001d7a565b809150509250925092565b600080600080600060a08688031215620015ea578081fd5b85356001600160401b038082111562001601578283fd5b6200160f89838a01620012cc565b965060208801359150620016238262001d7a565b909450604087013590620016378262001d7a565b909350606087013590808211156200164d578283fd5b6200165b89838a01620012cc565b9350608088013591508082111562001671578283fd5b506200168088828901620012cc565b9150509295509295909350565b60008060408385031215620016a0578182fd5b82356001600160401b03811115620016b6578283fd5b620016c485828601620012cc565b95602094909401359450505050565b600080600060608486031215620016e8578283fd5b83356001600160401b03811115620016fe578384fd5b6200170c86828701620012cc565b9350506020840135915060408401358060010b8114620015c7578182fd5b6000602082840312156200173c578081fd5b81516200136b8162001d7a565b6000602082840312156200175b578081fd5b5051919050565b600081518084526200177c81602086016020860162001d39565b601f01601f19169290920160200192915050565b60008251620017a481846020870162001d39565b9190910192915050565b6001600160a01b0391909116815260200190565b6001600160a01b03831681526040602082018190526000906200146d9083018462001762565b6001600160a01b03929092168252602082015260400190565b600060018060a01b03808a16835260e060208401526200182560e084018a62001762565b604084019890985260608301969096525061ffff939093166080840152921660a082015260c0015292915050565b9315158452602084019290925261ffff908116604084015216606082015260800190565b60208101620018868362001d6c565b91905290565b600060408252620018a1604083018562001762565b8281036020840152620018b5818562001762565b95945050505050565b600060608252620018d3606083018662001762565b8281036020840152620018e7818662001762565b91505060018060a01b0383166040830152949350505050565b600060c082526200191560c083018962001762565b61ffff88811660208501528716604084015282810360608401526200193b818762001762565b9050828103608084015262001951818662001762565b91505060018060a01b03831660a0830152979650505050505050565b60006080825262001982608083018762001762565b60208301959095525060019290920b60408301526001600160a01b0316606090910152919050565b60208082526027908201527f4e6f20676f7665726e616e636520746f6b656e20666f722074686174205f70726040820152661bda9958dd125960ca1b606082015260800190565b60208082526037908201527f4f6e6c79207468652063757272656e74206f63746f6261792076657273696f6e6040820152761031b0b7103ab9b2903a3434b990333ab731ba34b7b71760491b606082015260800190565b60208082526026908201527f4f776e61626c653a206e6577206f776e657220697320746865207a65726f206160408201526564647265737360d01b606082015260800190565b6020808252603e908201527f53656e64657220646f65736e2774206861766520656e6f75676820676f76657260408201527f6e616e636520746f6b656e7320746f206d616b65207468617420766f74650000606082015260800190565b6020808252602f908201527f5468657265206973206e6f20746f6b656e206173736f6369617465642077697460408201526e1a0817dbdb19141c9bda9958dd1259608a1b606082015260800190565b6020808252602b908201527f50726f706f73616c20666f722074686174205f70726f706f73616c496420646f60408201526a195cdb89dd08195e1a5cdd60aa1b606082015260800190565b6020808252818101527f4f776e61626c653a2063616c6c6572206973206e6f7420746865206f776e6572604082015260600190565b60208082526018908201527714d95b99195c881a185cc8185b1c9958591e481d9bdd195960421b604082015260600190565b60208082526016908201527550726f706f73616c206973206e6f742041637469766560501b604082015260600190565b6020808252602b908201527f476f7665726e6f7220666f722074686174205f70726f6a656374496420616c7260408201526a656164792065786973747360a81b606082015260800190565b6020808252602a908201527f476f7665726e6f7220666f722074686174205f70726f6a656374496420646f656040820152691cdb89dd08195e1a5cdd60b21b606082015260800190565b60208082526043908201527f546f6b656e207368617265206e6f74206869676820656e6f75676820616e642060408201527f6e6f204e4654207065726d697373696f6e20666f72206e65772070726f706f73606082015262616c7360e81b608082015260a00190565b8281526040810162001d2c8362001d6c565b8260208301529392505050565b60005b8381101562001d5657818101518382015260200162001d3c565b8381111562001d66576000848401525b50505050565b6004811062001d7757fe5b50565b61ffff8116811462001d7757600080fdfe60806040523480156200001157600080fd5b506040516200173338038062001733833981016040819052620000349162000217565b8181600062000042620000d0565b600080546001600160a01b0319166001600160a01b0383169081178255604051929350917f8be0079c531659141344cd1fd0a4f28419497f9722a3daafe3b4186f6b6457e0908290a3508151620000a1906005906020850190620000d4565b508051620000b7906006906020840190620000d4565b50506007805460ff19166012179055506200027e915050565b3390565b828054600181600116156101000203166002900490600052602060002090601f016020900481019282601f106200011757805160ff191683800117855562000147565b8280016001018555821562000147579182015b82811115620001475782518255916020019190600101906200012a565b506200015592915062000159565b5090565b5b808211156200015557600081556001016200015a565b600082601f83011262000181578081fd5b81516001600160401b038082111562000198578283fd5b6040516020601f8401601f1916820181018381118382101715620001ba578586fd5b80604052508194508382528681858801011115620001d757600080fd5b600092505b83831015620001fb5785830181015182840182015291820191620001dc565b838311156200020d5760008185840101525b5050505092915050565b600080604083850312156200022a578182fd5b82516001600160401b038082111562000241578384fd5b6200024f8683870162000170565b9350602085015191508082111562000265578283fd5b50620002748582860162000170565b9150509250929050565b6114a5806200028e6000396000f3fe608060405234801561001057600080fd5b50600436106101425760003560e01c806395d89b41116100b8578063a77697381161007c578063a776973814610276578063a9059cbb14610296578063a9456ec3146102a9578063dd62ed3e146102bc578063f2fde38b146102cf578063f380e05c146102e257610142565b806395d89b411461022d5780639711715a14610235578063981b24d01461023d5780639dc29fac14610250578063a457c2d71461026357610142565b8063395093511161010a57806339509351146101c257806340c10f19146101d55780634ee2cd7e146101ea57806370a08231146101fd578063715018a6146102105780638da5cb5b1461021857610142565b806306fdde0314610147578063095ea7b31461016557806318160ddd1461018557806323b872dd1461019a578063313ce567146101ad575b600080fd5b61014f6102f5565b60405161015c919061100c565b60405180910390f35b610178610173366004610fab565b61038b565b60405161015c9190611001565b61018d6103a9565b60405161015c91906113b6565b6101786101a8366004610f6b565b6103af565b6101b56103fa565b60405161015c91906113bf565b6101786101d0366004610fab565b610403565b6101e86101e3366004610fab565b610456565b005b61018d6101f8366004610fab565b61048e565b61018d61020b366004610f1c565b6104d7565b6101e86104f6565b610220610575565b60405161015c9190610fed565b61014f610584565b61018d6105e5565b61018d61024b366004610fd5565b6105f4565b6101e861025e366004610fab565b610624565b610178610271366004610fab565b610658565b610289610284366004610f1c565b6106c0565b60405161015c91906113a7565b6101786102a4366004610fab565b6106e6565b6102896102b7366004610fab565b610700565b61018d6102ca366004610f37565b610729565b6101e86102dd366004610f1c565b610754565b6101e86102f0366004610f1c565b61080a565b60058054604080516020601f60026000196101006001881615020190951694909404938401819004810282018101909252828152606093909290918301828280156103815780601f1061035657610100808354040283529160200191610381565b820191906000526020600020905b81548152906001019060200180831161036457829003601f168201915b5050505050905090565b600061039f610398610861565b8484610865565b5060015b92915050565b60045490565b6001546000906001600160a01b031633146103e55760405162461bcd60e51b81526004016103dc906110d9565b60405180910390fd5b6103f0848484610919565b5060019392505050565b60075460ff1690565b600061039f610410610861565b846104518560036000610421610861565b6001600160a01b03908116825260208083019390935260409182016000908120918c168152925290205490610a1c565b610865565b6001546001600160a01b031633146104805760405162461bcd60e51b81526004016103dc906110d9565b61048a8282610a48565b5050565b6001600160a01b0382166000908152600860205260408120819081906104b5908590610af6565b91509150816104cc576104c7856104d7565b6104ce565b805b95945050505050565b6001600160a01b0381166000908152600260205260409020545b919050565b6104fe610861565b6000546001600160a01b0390811691161461052b5760405162461bcd60e51b81526004016103dc90611241565b600080546040516001600160a01b03909116907f8be0079c531659141344cd1fd0a4f28419497f9722a3daafe3b4186f6b6457e0908390a3600080546001600160a01b0319169055565b6000546001600160a01b031690565b60068054604080516020601f60026000196101006001881615020190951694909404938401819004810282018101909252828152606093909290918301828280156103815780601f1061035657610100808354040283529160200191610381565b60006105ef610b90565b905090565b6000806000610604846009610af6565b915091508161061a576106156103a9565b61061c565b805b949350505050565b6001546001600160a01b0316331461064e5760405162461bcd60e51b81526004016103dc906110d9565b61048a8282610be6565b600061039f610665610861565b846104518560405180606001604052806025815260200161144b602591396003600061068f610861565b6001600160a01b03908116825260208083019390935260409182016000908120918d16815292529020549190610caa565b60006106ca6103a9565b6106d3836104d7565b816106da57fe5b04612710029050919050565b600060405162461bcd60e51b81526004016103dc906111ef565b600061070b826105f4565b610715848461048e565b8161071c57fe5b0461271002905092915050565b6001600160a01b03918216600090815260036020908152604080832093909416825291909152205490565b61075c610861565b6000546001600160a01b039081169116146107895760405162461bcd60e51b81526004016103dc90611241565b6001600160a01b0381166107af5760405162461bcd60e51b81526004016103dc90611130565b600080546040516001600160a01b03808516939216917f8be0079c531659141344cd1fd0a4f28419497f9722a3daafe3b4186f6b6457e091a3600080546001600160a01b0319166001600160a01b0392909216919091179055565b610812610861565b6000546001600160a01b0390811691161461083f5760405162461bcd60e51b81526004016103dc90611241565b600180546001600160a01b0319166001600160a01b0392909216919091179055565b3390565b6001600160a01b03831661088b5760405162461bcd60e51b81526004016103dc906112fc565b6001600160a01b0382166108b15760405162461bcd60e51b81526004016103dc90611176565b6001600160a01b0380841660008181526003602090815260408083209487168084529490915290819020849055517f8c5be1e5ebec7d5bd14f71427d1e84f3dd0314c0f7b2291e5b200ac8c7c3b9259061090c9085906113b6565b60405180910390a3505050565b6001600160a01b03831661093f5760405162461bcd60e51b81526004016103dc906112b7565b6001600160a01b0382166109655760405162461bcd60e51b81526004016103dc90611096565b610970838383610cd6565b6109ad81604051806060016040528060268152602001611405602691396001600160a01b0386166000908152600260205260409020549190610caa565b6001600160a01b0380851660009081526002602052604080822093909355908416815220546109dc9082610a1c565b6001600160a01b03808416600081815260026020526040908190209390935591519085169060008051602061142b8339815191529061090c9085906113b6565b600082820183811015610a415760405162461bcd60e51b81526004016103dc906111b8565b9392505050565b6001600160a01b038216610a6e5760405162461bcd60e51b81526004016103dc90611370565b610a7a60008383610cd6565b600454610a879082610a1c565b6004556001600160a01b038216600090815260026020526040902054610aad9082610a1c565b6001600160a01b03831660008181526002602052604080822093909355915190919060008051602061142b83398151915290610aea9085906113b6565b60405180910390a35050565b60008060008411610b195760405162461bcd60e51b81526004016103dc90611340565b610b23600b610d33565b841115610b425760405162461bcd60e51b81526004016103dc9061105f565b6000610b4e8486610d37565b8454909150811415610b67576000809250925050610b89565b6001846001018281548110610b7857fe5b906000526020600020015492509250505b9250929050565b6000610b9c600b610dd8565b6000610ba8600b610d33565b90507f8030e83b04d87bef53480e26263266d6ca66863aa8506aca6f2559d18aa1cb6781604051610bd991906113b6565b60405180910390a1905090565b6001600160a01b038216610c0c5760405162461bcd60e51b81526004016103dc90611276565b610c1882600083610cd6565b610c55816040518060600160405280602281526020016113e3602291396001600160a01b0385166000908152600260205260409020549190610caa565b6001600160a01b038316600090815260026020526040902055600454610c7b9082610de1565b6004556040516000906001600160a01b0384169060008051602061142b83398151915290610aea9085906113b6565b60008184841115610cce5760405162461bcd60e51b81526004016103dc919061100c565b505050900390565b610ce1838383610d2e565b6001600160a01b038316610d0557610cf882610e23565b610d00610e50565b610d2e565b6001600160a01b038216610d1c57610cf883610e23565b610d2583610e23565b610d2e82610e23565b505050565b5490565b8154600090610d48575060006103a3565b82546000905b80821015610d97576000610d628383610e5f565b905084868281548110610d7157fe5b90600052602060002001541115610d8a57809150610d91565b8060010192505b50610d4e565b600082118015610dbf575083856001840381548110610db257fe5b9060005260206000200154145b15610dd057506000190190506103a3565b5090506103a3565b80546001019055565b6000610a4183836040518060400160405280601e81526020017f536166654d6174683a207375627472616374696f6e206f766572666c6f770000815250610caa565b6001600160a01b0381166000908152600860205260409020610e4d90610e48836104d7565b610e84565b50565b610e5d6009610e486103a9565b565b60006002808306600285060181610e7257fe5b04600283046002850401019392505050565b6000610e90600b610d33565b905080610e9c84610ed0565b1015610d2e578254600180820185556000858152602080822090930193909355938401805494850181558252902090910155565b8054600090610ee1575060006104f1565b815482906000198101908110610ef357fe5b906000526020600020015490506104f1565b80356001600160a01b03811681146103a357600080fd5b600060208284031215610f2d578081fd5b610a418383610f05565b60008060408385031215610f49578081fd5b610f538484610f05565b9150610f628460208501610f05565b90509250929050565b600080600060608486031215610f7f578081fd5b8335610f8a816113cd565b92506020840135610f9a816113cd565b929592945050506040919091013590565b60008060408385031215610fbd578182fd5b610fc78484610f05565b946020939093013593505050565b600060208284031215610fe6578081fd5b5035919050565b6001600160a01b0391909116815260200190565b901515815260200190565b6000602080835283518082850152825b818110156110385785810183015185820160400152820161101c565b818111156110495783604083870101525b50601f01601f1916929092016040019392505050565b6020808252601d908201527f4552433230536e617073686f743a206e6f6e6578697374656e74206964000000604082015260600190565b60208082526023908201527f45524332303a207472616e7366657220746f20746865207a65726f206164647260408201526265737360e81b606082015260800190565b60208082526037908201527f4f6e6c79207468652063757272656e74206f63746f6261792076657273696f6e6040820152761031b0b7103ab9b2903a3434b990333ab731ba34b7b71760491b606082015260800190565b60208082526026908201527f4f776e61626c653a206e6577206f776e657220697320746865207a65726f206160408201526564647265737360d01b606082015260800190565b60208082526022908201527f45524332303a20617070726f766520746f20746865207a65726f206164647265604082015261737360f01b606082015260800190565b6020808252601b908201527f536166654d6174683a206164646974696f6e206f766572666c6f770000000000604082015260600190565b60208082526032908201527f5472616e736665727320617265206f6e6c7920616c6c6f776564206279207468604082015271194813d8dd1bd8985e4818dbdb9d1c9858dd60721b606082015260800190565b6020808252818101527f4f776e61626c653a2063616c6c6572206973206e6f7420746865206f776e6572604082015260600190565b60208082526021908201527f45524332303a206275726e2066726f6d20746865207a65726f206164647265736040820152607360f81b606082015260800190565b60208082526025908201527f45524332303a207472616e736665722066726f6d20746865207a65726f206164604082015264647265737360d81b606082015260800190565b60208082526024908201527f45524332303a20617070726f76652066726f6d20746865207a65726f206164646040820152637265737360e01b606082015260800190565b60208082526016908201527504552433230536e617073686f743a20696420697320360541b604082015260600190565b6020808252601f908201527f45524332303a206d696e7420746f20746865207a65726f206164647265737300604082015260600190565b61ffff91909116815260200190565b90815260200190565b60ff91909116815260200190565b6001600160a01b0381168114610e4d57600080fdfe45524332303a206275726e20616d6f756e7420657863656564732062616c616e636545524332303a207472616e7366657220616d6f756e7420657863656564732062616c616e6365ddf252ad1be2c89b69c2b068fc378daa952ba7f163c4a11628f55a4df523b3ef45524332303a2064656372656173656420616c6c6f77616e63652062656c6f77207a65726fa2646970667358221220c72eaebedf7b5937014eb1ba4655ee2eed6cf931fe7141f042a10a402230377d64736f6c634300060c0033a2646970667358221220da1d266588d136edf00b33cca76385bb3455ac0ee10290b882a00151f85cbcbf64736f6c634300060c0033",
  "immutableReferences": {},
  "source": "// SPDX-License-Identifier: MIT\npragma solidity ^0.6.0;\npragma experimental ABIEncoderV2;\n\nimport './OctobayStorage.sol';\nimport './OctobayGovToken.sol';\nimport './OctobayGovNFT.sol';\n\n// This contract acts as Octobay's storage of all Governors which are used for voting on proposals\ncontract OctobayGovernor is OctobayStorage {\n\n    struct Governor {\n        bool isValue; // Ensure we have a valid value in the map\n        uint256 proposalCount; // Number of proposals\n        uint16 newProposalShare; // min percentage required for a token holder to create a new proposal\n        uint16 minQuorum; // min quorum for all new proposals made in this governance department\n        mapping (uint => Proposal) proposalList; // List of proposals\n    }\n\n    struct Proposal {\n        bool isValue; // Ensure we have a valid value in the map\n        address creator; // Creator of this proposal\n        string discussionId; // GitHub Graph ID\n        uint256 startDate; // timestamp from when proposal is Active\n        uint256 endDate; // timestamp for when voting closes on proposal, can be 0 (open ended)\n        uint16 quorum; // min percentage (0 - 10000)\n        int16 voteCount; // the current vote count as a percent of supply\n        uint256 snapshotId; // ID of the snapshot of balances for the token, taken at proposal creation\n        OctobayGovToken votingToken; // governance token required to vote\n        mapping (address => Vote) votesBySubmitter; // map of votes submitted for proposal by submitter\n    }\n\n    struct Vote {\n        bool hasVoted; // to track whether a token holder has already voted\n        int16 vote; // can be negative, represents token share (0 - 10000)\n    }\n\n    enum ProposalState {\n        Pending,\n        Active,\n        Defeated,\n        Succeeded\n    }\n\n    event ProposalCreatedEvent(address tokenAddress, string discussionId, uint256 startDate, uint256 endDate, uint16 quorum, address creator, uint256 proposalId);\n\n    event VoteCastEvent(string projectId, uint256 proposalId, int16 vote, address voter);\n\n    event DepartmentCreatedEvent(string projectId, uint16 newProposalShare, uint16 minQuorum, string tokenName, string tokenSymbol, address tokenAddress);\n\n    /// @notice Maps org/repo path to a Governor\n    mapping (string => Governor) public governorsByProjectId;\n\n    OctobayGovNFT public octobayGovNFT;\n\n    constructor(address _octobayGovNFT) public {\n        octobayGovNFT = OctobayGovNFT(_octobayGovNFT);\n    }\n\n    function createGovernorAndToken(\n        string memory _projectId,\n        uint16 _newProposalShare,\n        uint16 _minQuorum,\n        string memory _name,\n        string memory _symbol\n    ) external onlyOctobay returns(OctobayGovToken newToken) {\n        createGovernor(_projectId, _newProposalShare, _minQuorum);\n        newToken = createToken(_name, _symbol, _projectId);\n\n        emit DepartmentCreatedEvent(_projectId, _newProposalShare, _minQuorum, _name, _symbol, address(newToken));\n    } \n\n    /// @dev Necessary to set the newProposalShare for new proposals and to know if we've already initialized a governor\n    function createGovernor(string memory _projectId, uint16 _newProposalShare, uint16 _minQuorum) public onlyOctobay {\n        require(!governorsByProjectId[_projectId].isValue, \"Governor for that _projectId already exists\");\n        Governor memory newGovernor = Governor({\n            isValue: true,\n            proposalCount: 0,\n            newProposalShare: _newProposalShare,\n            minQuorum: _minQuorum\n        });\n        governorsByProjectId[_projectId] = newGovernor;\n    }\n\n    /// @dev Anyone with at least newProposalShare share of tokens can create a new proposal here\n    function createProposal(address _tokenAddress, string memory _projectId, string memory _discussionId, uint256 _startDate, uint256 _endDate, uint16 _quorum) external {\n        require(governorsByProjectId[_projectId].isValue, \"Governor for that _projectId doesn't exist\");\n        Governor storage governor = governorsByProjectId[_projectId];\n        OctobayGovToken govToken = tokensByProjectId[_projectId];\n        require(address(govToken) != address(0), \"No governance token for that _projectId\");\n\n        bool hasPermission = false;\n        if (govToken.balanceOfAsPercent(msg.sender) >= governor.newProposalShare) {\n            hasPermission = true;\n        } else {\n            uint256 govNFTId = octobayGovNFT.getTokenIDForUserInProject(msg.sender, _projectId);\n            if (govNFTId != 0 && octobayGovNFT.hasPermission(govNFTId, OctobayGovNFT.Permission.CREATE_PROPOSAL)) {\n                hasPermission = true;\n            }\n        }\n        require(hasPermission, \"Token share not high enough and no NFT permission for new proposals\");\n        \n        Proposal memory newProposal = Proposal({\n            isValue: true,\n            creator: msg.sender,\n            discussionId: _discussionId,\n            startDate: _startDate,\n            endDate: _endDate,\n            quorum: _quorum,\n            voteCount: 0,\n            snapshotId: govToken.snapshot(),\n            votingToken: govToken \n        });\n\n        governor.proposalCount++;\n        governor.proposalList[governor.proposalCount] = newProposal;\n\n        emit ProposalCreatedEvent(_tokenAddress, _discussionId, _startDate, _endDate, _quorum, msg.sender, governor.proposalCount);\n    }\n\n    function proposalState(string memory _projectId, uint256 _proposalId) public view proposalExists(_projectId, _proposalId) returns(ProposalState) {\n        Proposal storage proposal = governorsByProjectId[_projectId].proposalList[_proposalId];\n        if (block.timestamp < proposal.startDate) {\n            return ProposalState.Pending;\n        } else if (block.timestamp >= proposal.startDate && block.timestamp < proposal.endDate) {\n            return ProposalState.Active;\n        } else if (proposal.voteCount >= int(proposal.quorum)) {\n            return ProposalState.Succeeded;\n        } else {\n            return ProposalState.Defeated;\n        }\n    }\n\n    /// @dev Anyone with > 0 amount of tokens can vote. They can vote up to and including their share (but not necessarily all).\n    ///      A positive _vote is considered in favour of the proposal and a negative is considered against it.   \n    function castVote(string memory _projectId, uint256 _proposalId, int16 _vote) external proposalExists(_projectId, _proposalId) {\n        Proposal storage proposal = governorsByProjectId[_projectId].proposalList[_proposalId];\n        require(proposalState(_projectId, _proposalId) == ProposalState.Active, \"Proposal is not Active\");\n        require(!proposal.votesBySubmitter[msg.sender].hasVoted, \"Sender has already voted\");\n        uint voteAmt = _vote < 0 ? uint(-1 * _vote) : uint(_vote);\n        require(proposal.votingToken.balanceOfAsPercentAt(msg.sender, proposal.snapshotId) >= voteAmt, \"Sender doesn't have enough governance tokens to make that vote\");\n\n        proposal.voteCount += _vote;\n        Vote memory newVote = Vote({\n            hasVoted: true,\n            vote: _vote\n        });\n        proposal.votesBySubmitter[msg.sender] = newVote;\n\n        emit VoteCastEvent(_projectId, _proposalId, _vote, msg.sender);\n    }\n\n    //TODO: Include a castVoteBySignature to avoid gas costs for voters\n\n    modifier proposalExists(string memory _projectId, uint256 _proposalId) {\n        require(governorsByProjectId[_projectId].isValue, \"Governor for that _projectId doesn't exist\");\n        require(governorsByProjectId[_projectId].proposalList[_proposalId].isValue, \"Proposal for that _proposalId doesn't exist\");\n        _;\n    }\n\n    // ------------ Token Factory ------------ //\n\n    event UpdatedProjectId(string oldProjectId, string newProjectId, address tokenAddr);\n    mapping (string => OctobayGovToken) public tokensByProjectId;\n\n    /// @param _name Name of the new token\n    /// @param _symbol Token Symbol for the new token\n    /// @param _projectId Path of the org or repo which maps to the new token\n    /// @return The address of the new token contract\n    function createToken(string memory _name, string memory _symbol, string memory _projectId) public onlyOctobay returns (OctobayGovToken) {\n        OctobayGovToken newToken = new OctobayGovToken(_name, _symbol);\n        newToken.setOctobay(msg.sender);\n        tokensByProjectId[_projectId] = newToken;\n        return newToken;\n    }\n\n    /// @notice Used in case a project wants to transfer tokens from a repo to an org in the future for example\n    /// @param _oldProjectId Path of the old org or repo which should be updated\n    /// @param _newProjectId Path of the new org or repo which should be used\n    function updateProjectId(string memory _oldProjectId, string memory _newProjectId) external onlyOctobay {\n        OctobayGovToken token = tokensByProjectId[_oldProjectId];\n        require(address(token) != address(0), \"There is no token associated with _oldProjectId\");\n        delete tokensByProjectId[_oldProjectId];\n        tokensByProjectId[_newProjectId] = token;\n        emit UpdatedProjectId(_oldProjectId, _newProjectId, address(token));\n    }     \n}\n",
  "sourcePath": "/home/mkt/Projects/octobay/contracts/contracts/OctobayGovernor.sol",
  "compiler": {
    "name": "solc",
    "version": "0.6.12+commit.27d51765.Emscripten.clang"
  },
  "schemaVersion": "3.3.4",
  "updatedAt": "2021-04-09T12:05:40.593Z",
  "networkType": "ethereum",
  "devdoc": {
    "kind": "dev",
    "methods": {
      "castVote(string,uint256,int16)": {
        "details": "Anyone with > 0 amount of tokens can vote. They can vote up to and including their share (but not necessarily all).      A positive _vote is considered in favour of the proposal and a negative is considered against it.   "
      },
      "createGovernor(string,uint16,uint16)": {
        "details": "Necessary to set the newProposalShare for new proposals and to know if we've already initialized a governor"
      },
      "createProposal(address,string,string,uint256,uint256,uint16)": {
        "details": "Anyone with at least newProposalShare share of tokens can create a new proposal here"
      },
      "createToken(string,string,string)": {
        "params": {
          "_name": "Name of the new token",
          "_projectId": "Path of the org or repo which maps to the new token",
          "_symbol": "Token Symbol for the new token"
        },
        "returns": {
          "_0": "The address of the new token contract"
        }
      },
      "owner()": {
        "details": "Returns the address of the current owner."
      },
      "renounceOwnership()": {
        "details": "Leaves the contract without owner. It will not be possible to call `onlyOwner` functions anymore. Can only be called by the current owner. NOTE: Renouncing ownership will leave the contract without an owner, thereby removing any functionality that is only available to the owner."
      },
      "transferOwnership(address)": {
        "details": "Transfers ownership of the contract to a new account (`newOwner`). Can only be called by the current owner."
      },
      "updateProjectId(string,string)": {
        "params": {
          "_newProjectId": "Path of the new org or repo which should be used",
          "_oldProjectId": "Path of the old org or repo which should be updated"
        }
      }
    },
    "version": 1
  },
  "userdoc": {
    "kind": "user",
    "methods": {
      "governorsByProjectId(string)": {
        "notice": "Maps org/repo path to a Governor"
      },
      "updateProjectId(string,string)": {
        "notice": "Used in case a project wants to transfer tokens from a repo to an org in the future for example"
      }
    },
    "version": 1
  }
}